:020000021000EC
:10B00000008000200DB3010041B3010043B30100F3
:10B010000000000000000000000000000000000030
:10B0200000000000000000000000000045B3010027
:10B03000000000000000000047B3010049B3010018
:10B040004DB301004FB30100B1210200794E02005F
:10B0500055B301004BB30100CD1A020059B30100F2
:10B060005BB301005DB301005FB3010061B3010098
:10B0700063B3010065B3010067B3010069B3010068
:10B080006BB30100955E02006FB3010071B3010064
:10B09000E15E020075B30100BD71020079B30100E9
:08B0A0007BB301007DB3010048
:10B0A80080B500AF00F01CF8031E06D0094B0A4A11
:10B0B8001A600A4B802212021A6000F051F8031E2F
:10B0C80005D08023DA05C123DB000121D150BD461C
:10B0D80080BDC04604050040DFFF07C0186C004073
:10B0E80080B500AF1A4B1B68FF221340012B2AD1F1
:10B0F800184B1B680F22134025D1174B1B68F022F1
:10B10800134006D1154B1B68F022134001D10123CF
:10B118001AE0114B1B68F0221340102B06D10F4B7D
:10B128001B68F022134001D101230DE00A4B1B6874
:10B13800F0221340302B06D1084B1B68F022134035
:10B1480001D1012300E00023181CBD4680BDC04684
:10B15800E00F00F0E40F00F0E80F00F0EC0F00F053
:10B1680080B500AF0D4B1B68FF221340012B11D196
:10B178000B4B1B680F2213400CD10A4B1B68F022A3
:10B188001340402B06D1084B1B68F022134001D115
:10B19800012300E00023181CBD4680BDE00F00F02D
:10B1A800E40F00F0E80F00F0EC0F00F035493648E6
:10B1B8000A1A02D0072291438D46344934480A1AA4
:10B1C80006D00722914381F30988022282F314886A
:10B1D80030483149314A00F043F831483149324A60
:10B1E80000F03EF831483249324A00F039F8324826
:10B1F8003249334A00F034F832483349334A00F0D0
:10B208002FF833483349344A00F02AF83348344990
:10B21800344A00F025F834483449002200F02BF86D
:10B2280033483449002200F026F833483349091AD4
:10B23800082903DB00220260043001601F4820490E
:10B24800884205D00268043003B4904703BCF7E78E
:10B2580000208646EC4600200021294A9047FEE758
:10B26800884207D0521A05D0037801300B7001319B
:10B27800013AF9D17047884202D002700130FAE7EA
:10B288007047000000800020007800200080002027
:10B298000080002040A50200E81F00205E2000205A
:10B2A80080B3010080B301002891020040A502008C
:10B2B800E81F0020E81F00202891020028910200C2
:10B2C800289102002891020028910200289102008A
:10B2D800289102002891020040A50200B8A50200AA
:10B2E8006020002060200020602000206C310020B9
:10B2F8006C31002070310020703100207032002045
:10B30800E5BE01000321074802680A4302600648B7
:10B3180002680A430260054805498843854605488E
:10B32800804743E724050040540500400080002082
:10B3380007000000A9B00100FEE7FEE7FEE7FEE710
:10B34800FEE7FEE7FEE7FEE7FEE7FEE7FEE7FEE7CD
:10B35800FEE7FEE7FEE7FEE7FEE7FEE7FEE7FEE7BD
:10B36800FEE7FEE7FEE7FEE7FEE7FEE7FEE7FEE7AD
:08B37800FEE7FEE7FEE7C04618
:10B3800076DF7047181CC0467ADF7047181CC0462D
:10B390007CDF7047181CC046A9DF7047181CC046E8
:10B3A0003CDF7047181CC04648DF7047181CC04679
:10B3B00090B589B002AFF860B9607A607B687B6154
:10B3C0000D4B0020191C0BF0E3FC7B699A687B692C
:10B3D0001B881C1C7B695B68084900930020231CA8
:10B3E0000BF0D6FC064B0020191C0BF0D1FC0C20F6
:10B3F00002F0E2F8FEE7C0462C9102003491020010
:10B400005891020080B58AB000AF78601423FB1811
:10B41000181C08F081FC031C7B627B6A3B623B6A60
:10B42000002B06D03A6A384B101C98211A1C09F0E0
:10B430009DFE1023FB18181C08F09AFC031C7B626D
:10B440007B6AFB61FB69002B06D0FA692E4B101C4E
:10B450009A211A1C09F08AFE0C23FB18181C08F00C
:10B460002FFC031C7B627B6ABB61BB69002B06D08F
:10B47000BA69254B101C9C211A1C09F077FE7A69C9
:10B48000224B1B689A420FD07B69181C08F04EFDB6
:10B49000021C1F4B1A601F4A1D4B101C191C01F087
:10B4A00095F97A69194B1A603A691B4B1B689A42E5
:10B4B0000FD03B69181C08F00BFE021C174B1A60DA
:10B4C000144A164B101C191C01F0CEF93A69124BA4
:10B4D0001A60FA68124B1B689A420FD0FB68181C5E
:10B4E00008F05CFD021C0F4B1A600A4A0D4B101C41
:10B4F000191C01F007FAFA68094B1A600A4B01227D
:10B500001A70BD460AB080BD60910200A4200020E0
:10B51000F01F002088200020A8200020F41F002019
:10B52000AC200020F81F00208420002080B584B0CB
:10B5300000AF164B002005211A1C00230AF0D6FC90
:10B54000031CFB60FB68BB60BB68002B06D0BA68BD
:10B550000F4B101CC0211A1C09F008FE0D4A0E4B9F
:10B56000101C01211A1C0AF045FD031C7B607B683E
:10B570003B603B68002B06D03A68054B101CC42189
:10B580001A1C09F0F3FDBD4604B080BDB0200020B8
:10B59000609102002891020005B4010080B586B0D8
:10B5A00000AF3B1C1A780F218A43111C01220A4369
:10B5B0001A703B1C1A780F210A40111C10220A43F2
:10B5C0001A70214B181C0CF069FC031C9BB2391C2F
:10B5D0001D4A081C111C1A1CFFF7DAFE031C7B61B4
:10B5E0007B693B613B69002B06D03A69174B101C05
:10B5F000D8211A1C09F0BAFD3B1D181C0021082295
:10B600000CF03AFC3B1D10221A803B1D28225A8068
:10B610003B1D00229A803B1DC8225200DA803B1D50
:10B62000181CFFF7B1FE031C7B617B69FB60FB68A4
:10B63000002B06D0FA68054B101CE6211A1C09F0F5
:10B6400095FDBD4606B080BDC49102006091020028
:10B6500080B500AF024B181C01F05AF8BD4680BD02
:10B660008820002080B584B000AF78607B681B78AC
:10B67000002B15D10C4B1B88181C3B21FFF780FEBB
:10B68000031CFB60FB68BB60BB68002B08D0B9687B
:10B6900082235A00054B081C111C1A1C09F066FD78
:10B6A000BD4604B080BDC046E81F00206091020086
:10B6B00080B582B000AF786079681023FF331A1C20
:10B6C000044B081C111C1A1C09F050FDBD4602B0A9
:10B6D00080BDC0466091020080B58AB000AF3B1DBE
:10B6E000181C00211C220CF0C7FB3B1D00221A6015
:10B6F0003B1DA02292025A603B1DF02212039A6069
:10B700003B1D03221A733B1D0022DA813B1D0022E0
:10B710001A743B1D0D4A5A613B1D0D4A9A613B1D2F
:10B72000181C03F07FFE031C7B627B6A3B623B6A52
:10B73000002B08D0396A93235A00064B081C111CB1
:10B740001A1C09F013FDBD460AB080BD65B60100A4
:10B75000B1B601006091020080B582B000AF0D4A21
:10B7600080235B02101C191C00220AF093FC031CAE
:10B770007B607B683B603B68002B08D0396898236E
:10B780005A00054B081C111C1A1C09F0EFFCBD46A1
:10B7900002B080BD642000206091020080B584B0BA
:10B7A00000AF002001F008FF031CFB60FB68BB60DA
:10B7B000BB68002B09D0B9683C23FF331A1C174B18
:10B7C000081C111C1A1C09F0D1FC02F0DFF8031C44
:10B7D000FB60FB687B607B68002B09D079684023A5
:10B7E000FF331A1C0D4B081C111C1A1C09F0BEFC5F
:10B7F000FFF7D6FD031CFB60FB683B603B68002B3A
:10B8000009D039684423FF331A1C044B081C111C4F
:10B810001A1C09F0ABFCBD4604B080BD609102006B
:10B8200080B584B000AF021CFB1D1A70FB1D1B7895
:10B83000002B18D0032B00D018E0022001F0BCFE32
:10B84000031CFB60FB68BB60BB68002B0AD0B968B7
:10B850005623FF331A1C074B081C111C1A1C09F035
:10B8600085FC03E002E0FFF799FFC046BD4604B047
:10B8700080BDC0466091020080B586B000AF7860A0
:10B880007B68181C01F09EF97B681B88112B36D051
:10B89000522B39D0102B00D050E0072001F08CFE45
:10B8A000031C7B617B693B613B69002B08D03969D4
:10B8B000B7235A00234B081C111C1A1C09F056FC14
:10B8C0007B689A88204B1A801F4B1B88181C00210C
:10B8D00000220023FFF760FD031C7B617B69FB6096
:10B8E000FB68002B0AD0F9687223FF331A1C154B32
:10B8F000081C111C1A1C09F039FC1FE01EE0124B39
:10B90000012252421A8019E00F4B1B88181C00219B
:10B9100000220023FFF740FD031C7B617B69BB60B5
:10B92000BB68002B09D0B968BD235A00054B081C21
:10B93000111C1A1C09F01AFCFFE7C046BD4606B0F0
:10B9400080BDC04660910200E81F002080B582B033
:10B9500000AF78607B68181C04F06EFF7B68181CD1
:10B9600003F0A2FE7B68181C02F026F87B68181C06
:10B97000FFF782FF7B68181C03F07CFB044A7B689E
:10B98000101C191C00F040FCBD4602B080BDC04632
:10B990008820002080B582B000AF78607B68181CDA
:10B9A00007F0F2F97B68181C03F004FCBD4602B0F6
:10B9B00080BDC04680B590B000AF1823FA18484B40
:10B9C000111C1A1C0423081C111C1A1C0CF048FA28
:10B9D0001823FA18434B101C191C482200230BF0A3
:10B9E0007DFB031CFB63FB6BBB63BB6B002B08D0B5
:10B9F000B96BD8235A003C4B081C111C1A1C09F0C7
:10BA0000B5FB3B1D002001211A1C0BF0FDFB031CA4
:10BA10007B637B6B3B633B6B002B08D0396BDB2379
:10BA20005A00314B081C111C1A1C09F09FFB2F4BAC
:10BA3000FB62FB6A181C0BF03DFC031C7B637B6BF9
:10BA4000BB62BB6A002B09D0B96ABA23FF331A1C48
:10BA5000254B081C111C1A1C09F088FB3B1D181CE7
:10BA60000BF054FC031C7B637B6B7B627B6A002BBB
:10BA700009D0796ABE23FF331A1C1B4B081C111C0A
:10BA80001A1C09F073FB1A4B181C0BF06FFB031CFC
:10BA90007B637B6B3B623B6A002B09D0396AC22314
:10BAA000FF331A1C104B081C111C1A1C09F05EFBFA
:10BAB000104B181C0BF06EFB031C7B637B6BFB6154
:10BAC000FB69002B09D0F969C623FF331A1C064B0A
:10BAD000081C111C1A1C09F049FBBD4610B080BDA2
:10BAE000C89102007822002060910200E81F002027
:10BAF0004DB9010095B9010080B586B000AF021CB8
:10BB0000FB1D1A70FB1D1B78072B22D00A2B02D0BD
:10BB1000042B03D034E0FFF741FE31E01A4B1B88C1
:10BB2000181C1321FFF72CFC031C7B617B69082B7D
:10BB30000ED07B693B613B69002B09D03969ED234D
:10BB40005A00124B081C111C1A1C09F00FFB17E0BD
:10BB500016E003F05FFB031C7B617B69082B0ED0B2
:10BB60007B69FB60FB68002B09D0F968F1235A0060
:10BB7000064B081C111C1A1C09F0F8FAFFE7C04616
:10BB8000BD4606B080BDC046E81F0020609102009F
:10BB900080B586B000AFF860B9607A607B687B6181
:10BBA0007B69002B08D07969FA235A00054B081CE1
:10BBB000111C1A1C09F0DAFA0023181CBD4606B045
:10BBC00080BDC0466091020080B58AB000AF021C03
:10BBD000FB1D1A701423FB18FA1D12781A7007F057
:10BBE00049FA031C7B627B6A3B623B6A002B06D0EE
:10BBF0003A6A3849384B101C1A1C09F0B7FA14235A
:10BC0000FB18181C04F09CFC031C7B627B6AFB6124
:10BC1000FB69002B06D0FA6930492F4B101C1A1C07
:10BC200009F0A4FA0823FB180533181C002105228B
:10BC30000CF022F90823FB185A7901210A435A71A2
:10BC40000823FB185A7902218A435A710823FB18EA
:10BC50005A7904218A435A710823FB185A7908211A
:10BC60008A435A710823FB185A7970218A43111CA0
:10BC700030220A435A710823FB185A797F210A405F
:10BC80005A710823FB1807229A710823FB18102207
:10BC9000DA710823FB18124A1A600823FB180122E4
:10BCA0001A71104A0823FB18101C191C04F0FEFC22
:10BCB000031C7B627B6ABB61BB69002B06D0BA693F
:10BCC0000949054B101C1A1C09F050FABD460AB070
:10BCD00080BDC0460E02000060910200110200000B
:10BCE00091BB0100602000202102000090B59DB0B2
:10BCF00002AF2823FB18181C002138220CF0BCF8D6
:10BD00002823FB1802221A702823FB1801229A709C
:10BD10002823FB180622DA702823FB1801221A8236
:10BD20002823FB181D4A5A613B1D00221A6000227D
:10BD30005A6000229A600022DA6000221A61002212
:10BD40005A6100229A610022DA6100221A623B1DC8
:10BD500001221A733B1D962252001A613B1D0022DC
:10BD60005A612823F9183A1D0D4C00230093081C32
:10BD70000021231C02F09EFE031C7B667B6E3B664B
:10BD80003B6E002B06D03A6E0649074B101C1A1C5E
:10BD900009F0ECF9BD461BB090BDC046EC1F002079
:10BDA00021B801003B0200006091020080B586B01E
:10BDB00000AF78601A4A1B4B0320111C1A1C01F0BB
:10BDC00017FC031C7B617B693B613B69002B06D040
:10BDD0003A691549154B101C1A1C09F0C7F90B23B9
:10BDE000FB180020191C01F02FFE031C7B617B69EE
:10BDF000FB60FB68002B06D0FA680D490B4B101C4A
:10BE00001A1C09F0B3F90B23FB181B78023B5A42AA
:10BE10005341DAB27B681A70BD4606B080BDC04699
:10BE2000CD0C0000F9BA01004A0200006091020046
:10BE30004D02000080B582B000AFFFF7B5FA031CD9
:10BE40007B607B683B603B68002B08D03968962399
:10BE50009A00044B081C111C1A1C09F087F9BD46F6
:10BE600002B080BD6091020080B582B000AF786002
:10BE700039607B68181C07F0E5FDBD4602B080BD47
:10BE800090B587B000AF3B1C124A13CA13C31268A7
:10BE90001A6011493A1C114B081C111C1A1C002372
:10BEA00008F03CFB031C7B617B693B613B69002B19
:10BEB00008D039699D239A00094B081C111C1A1CD3
:10BEC00009F054F9044B181C08F0A6FBBD4607B056
:10BED00090BDC046CC910200FC1F002069BE01004D
:10BEE00060910200F0B599B004AF5F4A5F4B00204B
:10BEF000111C1A1C0AF04CFFFFF7C2FF5C4B181C08
:10BF000007F08CFE031CFB64FB6CBB64BB6C002B5A
:10BF100006D0BA6C5749584B101C1A1C09F026F968
:10BF2000012001210122032307F086FE031CFB648C
:10BF3000FB6C7B647B6C002B06D07A6C4F494E4BBC
:10BF4000101C1A1C09F012F907F036FF031CFB64E1
:10BF5000FB6C3B643B6C002B06D03A6C4849464B6B
:10BF6000101C1A1C09F002F9FFF7E0FA2F2308222F
:10BF70009446BC446344181CFFF718FFFFF71AFDF2
:10BF80002F2308229446BC4463441B78181CFFF7F7
:10BF90001BFEFFF703FBFFF7A9FEFFF759FBFFF7B7
:10BFA0009BFBFFF7D9FB032002F0B0FE031CFB63F1
:10BFB000FB6BBB63BB6B002B06D0BA6B31492E4BBE
:10BFC000101C1A1C09F0D2F82F4B1B78DBB2002B87
:10BFD00046D02E4B1B68181C0BF0F8F9031C181CDC
:10BFE0002B490BF0AFFA031C181C0BF089FA3860D0
:10BFF0007960284B1B68181C0BF0E8F9031C181C0F
:10C000008921C9050BF09EFA031C181C0BF078FA65
:10C01000051C0E1C204B1B68181C0BF0D7F9031CC9
:10C02000181C1B490BF08EFA031C181C0BF068FA45
:10C03000031C0C1C0C22B918184A00950196029397
:10C040000394081C111C3A687B680BF0E1FE0C237A
:10C05000FB180020191C0AF09BFE0B4B00221A70E3
:10C06000FFF7E8FEB0E7C046DC910200F091020065
:10C07000FC1F002087020000609102008A0200007D
:10C080008D0200009E02000084200020F01F00208E
:10C090000000C842F41F0020F81F0020FC9102009D
:10C0A000A0DF7047181CC046A2DF7047181CC046AE
:10C0B000A5DF7047181CC046A6DF7047181CC04695
:10C0C00063DF7047181CC04680B58AB000AF786047
:10C0D00039601023FB1802221A801023FB1800225B
:10C0E0005A801023FB180E22BA185A603B68DA886F
:10C0F0007B681B899A4225D17B6819887B681A89DD
:10C100001023FB18081C111C1A1CFFF7D1FF031C7D
:10C110007B627B6A3B623B6A002B06D03A6A364BF5
:10C12000101C27211A1C09F021F80E23FB181B886C
:10C13000012B03D1314B01221A705AE02F4B002200
:10C140001A7056E03B68DA887B681B8A9A4225D1D0
:10C150007B6819887B681A8A1023FB18081C111C3D
:10C160001A1CFFF7A5FF031C7B627B6AFB61FB695E
:10C17000002B06D0FA69204B101C34211A1C08F041
:10C18000F5FF0E23FB181B88012B03D11C4B01224A
:10C190001A702EE01A4B00221A702AE03B68DA88E7
:10C1A0007B681B8B9A4224D17B6819887B681A8B29
:10C1B0001023FB18081C111C1A1CFFF779FF031C25
:10C1C0007B627B6ABB61BB69002B06D0BA690A4BF4
:10C1D000101C41211A1C08F0C9FF0E23FB181B88F4
:10C1E000012B03D1074B01221A7002E0054B0022FC
:10C1F0001A70BD460AB080BD24920200C022002001
:10C20000C2220020C122002080B582B000AF786039
:10C2100039603B681B88112B09D0502B0CD0102B98
:10C2200000D010E03B689A887B681A800BE07B683E
:10C23000012252421A8006E07A683B68101C191CE1
:10C24000FFF742FFC046BD4602B080BD80B594B046
:10C2500000AF78600023FB644423FB1801229A702E
:10C260004423FB185D4A1A802823FB18181C002160
:10C270001C220BF001FE2823FB181A7802210A4326
:10C280001A702423FB18181C002103220BF0F4FD64
:10C290002423FB181A780F218A43111C01220A4318
:10C2A0001A702423FB181A780F210A40111C10223F
:10C2B0000A431A702423FB185A780F218A43111C51
:10C2C00001220A435A702423FB185A780F210A408E
:10C2D000111C10220A435A702423FB189A78062155
:10C2E0008A43111C02220A439A702823FB18242235
:10C2F000BA185A612823FB181A7810210A431A70B9
:10C300002023FB18181C002103220BF0B5FD20236D
:10C31000FB189A7806218A43111C02220A439A705C
:10C320002023FB181A780F218A43111C01220A438B
:10C330001A702023FB181A780F210A40111C1022B2
:10C340000A431A702023FB185A780F218A435A7027
:10C350002023FB185A780F210A405A700C23FB182F
:10C36000181C002114220BF087FD0C23FB1844221B
:10C37000BA181A600C23FB182022BA185A600C2332
:10C38000FB1804229A810C23FB1804221A8108232B
:10C39000FB1800221A600C23FB180822BA181A6135
:10C3A0007B6858887B6814332822B9180C22BA1885
:10C3B000FFF77AFE031CFB64FB6CBB64BB6C002BB9
:10C3C00006D0BA6C064B101C8D211A1C08F0CEFE4C
:10C3D0000023181CBD4614B080BDC0465EE5FFFFBB
:10C3E0002492020080B594B000AF78600023FB6413
:10C3F0004423FB1801229A704423FB18D222FF32F7
:10C400001A802823FB18181C00211C220BF034FD75
:10C410002823FB181A7802210A431A702423FB18D8
:10C42000181C002103220BF027FD2423FB181A7887
:10C430000F218A43111C01220A431A702423FB187E
:10C440001A780F210A40111C10220A431A70242363
:10C45000FB185A780F218A43111C01220A435A7093
:10C460002423FB185A780F210A40111C10220A437A
:10C470005A702423FB189A7806218A43111C022241
:10C480000A439A702823FB182422BA185A612823D9
:10C49000FB181A7810210A431A702023FB18181C65
:10C4A000002103220BF0E8FC2023FB189A780621D8
:10C4B0008A43111C02220A439A702023FB181A781F
:10C4C0000F218A43111C01220A431A702023FB18F2
:10C4D0001A780F210A40111C10220A431A702023D7
:10C4E000FB185A780F218A435A702023FB185A7878
:10C4F0000F210A405A700C23FB18181C002114222B
:10C500000BF0BAFC0C23FB184422BA181A600C2357
:10C51000FB182022BA185A600C23FB1804229A81B7
:10C520000C23FB1804221A810823FB1800221A602E
:10C530000C23FB180822BA181A617B6858887B689C
:10C540000C332822B9180C22BA18FFF7ADFD031CD2
:10C55000FB64FB6CBB64BB6C002B06D0BA6C054B58
:10C56000101CC1211A1C08F001FE0023181CBD4636
:10C5700014B080BD2492020080B594B000AF786002
:10C580000023FB644423FB1801229A704423FB1808
:10C590005D4A1A802823FB18181C00211C220BF06E
:10C5A0006BFC2823FB181A7802210A431A702423F3
:10C5B000FB18181C002103220BF05EFC2423FB183F
:10C5C0001A780F218A43111C01220A431A7024236E
:10C5D000FB181A780F210A40111C10220A431A7006
:10C5E0002423FB185A780F218A43111C01220A4385
:10C5F0005A702423FB185A780F210A40111C10226C
:10C600000A435A702423FB189A7806218A43111C86
:10C6100002220A439A702823FB182422BA185A616E
:10C620002823FB181A7810210A431A702023FB18BC
:10C63000181C002103220BF01FFC2023FB189A7802
:10C6400006218A43111C02220A439A702023FB18F8
:10C650001A780F218A43111C01220A431A702023E1
:10C66000FB181A780F210A40111C10220A431A7075
:10C670002023FB185A780F218A435A702023FB1875
:10C680005A780F210A405A700C23FB18181C0021FD
:10C6900014220BF0F1FB0C23FB184422BA181A6089
:10C6A0000C23FB182022BA185A600C23FB18042212
:10C6B0009A810C23FB1804221A810823FB180022FC
:10C6C0001A600C23FB180822BA181A617B68588874
:10C6D0007B6804332822B9180C22BA18FFF7E4FC4F
:10C6E000031CFB64FB6CBB64BB6C002B06D0BA6CF8
:10C6F000064B101CF5211A1C08F038FD0023181CED
:10C70000BD4614B080BDC046AEEEFFFF24920200CD
:10C7100080B58AB000AF78600823FA18284B111C46
:10C720001A1C1023081C111C1A1C0BF099FB18234F
:10C73000FB18244A1A800823FA181823FB1802331E
:10C74000101C191CFFF7BCFC031C7B627B6A3B625C
:10C750003B6A002B08D0396A84235A001A4B081C04
:10C76000111C1A1C08F002FD7B68012252421A803B
:10C770007B6802331822BA180120111C1A1CFFF71B
:10C780008FFC031C7B627B6AFB61FB69002B08D07A
:10C79000F96988235A000C4B081C111C1A1C08F05C
:10C7A000E5FC7B68181CFFF7E7FE7B68181CFFF7A9
:10C7B00019FE7B68181CFFF749FDBD460AB080BD15
:10C7C000909202000DF0FFFF2492020080B588B025
:10C7D00000AF786039607B681B88204A934239D06B
:10C7E0001F4B1B78DBB2002B34D01A23FB1804221A
:10C7F0001A800823FB18181C002110220BF03CFBA8
:10C800007B689A880823FB181A800823FB180122EA
:10C810009A700823FB1800229A800823FB181A221A
:10C82000BA189A600823FB183A68DA607B681A889D
:10C830000823FB18101C191CFFF73EFC031CFB61AE
:10C84000FB69002B06D0074AFB690020111C1A1C4B
:10C850000AF09EFABD4608B080BDC046FFFF00004A
:10C86000C0220020A092020080B588B000AF78609E
:10C8700039607B681B88204A934239D01F4B1B7854
:10C88000DBB2002B34D01A23FB1804221A800823B1
:10C89000FB18181C002110220BF0EEFA7B689A8915
:10C8A0000823FB181A800823FB1801229A7008231A
:10C8B000FB1800229A800823FB181A22BA189A60E3
:10C8C0000823FB183A68DA607B681A880823FB188B
:10C8D000101C191CFFF7F0FB031CFB61FB69002B0C
:10C8E00006D0074AFB690020111C1A1C0AF050FAF6
:10C8F000BD4608B080BDC046FFFF0000C222002038
:10C90000B892020080B588B000AF786039607B686B
:10C910001B88204A934239D01F4B1B78DBB2002B77
:10C9200034D01A23FB1804221A800823FB18181C81
:10C93000002110220BF0A0FA7B689A8A0823FB18CA
:10C940001A800823FB1801229A700823FB18002282
:10C950009A800823FB181A22BA189A600823FB1839
:10C960003A68DA607B681A880823FB18101C191CC7
:10C97000FFF7A2FB031CFB61FB69002B06D0074AF3
:10C98000FB690020111C1A1C0AF002FABD4608B00F
:10C9900080BDC046FFFF0000C1220020D0920200EF
:10C9A00090B583B000AF78607B681B88103B1A1C81
:10C9B000464B9200D358464A0020111C1A1C0AF01C
:10C9C000E7F97B689B881A1C424B0020191C0AF06F
:10C9D000DFF97B681B88112B66D0122B33D0102B0C
:10C9E00000D06FE07B681B8B181C0AF0E1FC031C75
:10C9F0000C1C181C211C0022374B0AF0F7FE031CEC
:10CA00000C1C181C211C0AF03DFD031C9BB21A1CB7
:10CA1000324B0020191C0AF0BBF97B68DB8B1A1C17
:10CA2000131C9B009B185B001A1C2D4B0020191C2B
:10CA30000AF0AEF97B689B8B1A1C2A4B0020191C4C
:10CA40000AF0A6F93EE07B681B89181C0AF0B0FCCE
:10CA5000031C0C1C181C211C00221F4B0AF0C6FED4
:10CA6000031C0C1C181C211C0AF00CFD031C9BB29F
:10CA70001A1C1A4B0020191C0AF08AF97B68DB8902
:10CA80001A1C131C9B009B185B001A1C144B0020E3
:10CA9000191C0AF07DF97B689B891A1C114B002038
:10CAA000191C0AF075F90DE07B681B7A123B1A1C01
:10CAB0000D4B9200D3580D4A0020111C1A1C0AF08D
:10CAC00067F9C046BD4603B090BDC04604200020B3
:10CAD000189A0200289A02000000F43F409A0200CF
:10CAE000589A0200709A020048200020849A02009E
:10CAF000B0B58AB002AF78601E23FB187A689288BE
:10CB00001A800823FA187B68043313CB13C2196800
:10CB100011609B8893801C23FB187A6812881A8006
:10CB20001C23FB181B88512B04D0522B36D0502BC2
:10CB300023D03CE00823FB189B78012B0ED108235F
:10CB4000FB189B881A1C0823FB18DB881C1C194B3C
:10CB50000020191C231C0AF01BF928E00823FB18ED
:10CB60009B881A1C0823FB18DB881C1C124B002016
:10CB7000191C231C0AF00CF919E07B68DB881D1CCA
:10CB80007B681B891C1C7B6812330C4A00930020B5
:10CB9000111C2A1C231C0AF0FBF808E07B689B7917
:10CBA0001A1C074B0020191C0AF0F2F8C046BD46BB
:10CBB00008B0B0BD8C9A0200B09A0200D49A02006C
:10CBC000049B020080B584B000AF78607B681B884E
:10CBD000FB60274AFB680020111C1A1C0AF0D8F8D9
:10CBE000FB680F2B07D9FB682F2B04D87B68181C18
:10CBF000FFF7D6FE38E0FB684F2B07D9FB686F2B99
:10CC000004D87B68181CFFF773FF2DE0FB682F2BFF
:10CC100010D9FB684F2B0DD87B681B88303B1A1C42
:10CC2000144B9200D358144A0020111C1A1C0AF00D
:10CC3000AFF819E0FB68002B0FD0FB680F2B0CD866
:10CC40007B681B885A1E0D4B9200D3580C4A00205B
:10CC5000111C1A1C0AF09CF806E00A4AFB68002026
:10CC6000111C1A1C0AF094F8BD4604B080BDC046E1
:10CC7000149B020040200020249B0200442000203E
:10CC8000309B02003C9B020080B584B000AF78600E
:10CC900039607B68032B16D8A023DA05A223DB00BA
:10CCA000D358DB43FB600C4B7A689200D3581A1CB4
:10CCB000012393401A1CFB6813405A1E9341DAB2B9
:10CCC0003B681A7002E03B6800221A700023181CAF
:10CCD000BD4604B080BDC046609B020080B586B0F2
:10CCE00000AF021CFB1D1A70BB1D0A1C1A70172313
:10CCF000FB1800221A7000233B6102E03B690133FC
:10CD00003B613B69032B07D8414B3A699200D258EB
:10CD1000FB1D1B789A42F1D13B69032B65D8BB1DE3
:10CD20001B78012B04D0022B55D0002B36D05CE0B1
:10CD30001723F91837483A69131C5B009B181B5CD2
:10CD40000B7034493A69131C5B009B18CB185B7855
:10CD5000002B16D03049314B1A68131C9B009B18CE
:10CD60005B001A1C2E4B081C111C1A1C09F092F9AE
:10CD7000031CFB60FB68002B03D1294BFA1D1278C2
:10CD80001A7024493A69131C5B009B18CB189978D8
:10CD9000244A3B69D3180A1C1A7026E01E4B181C43
:10CDA00009F0B0F91F4A3B69D318197819483A6954
:10CDB000131C5B009B18C3189B7899420AD1172358
:10CDC000F91814483A69131C5B009B18C3189B7828
:10CDD0000B700AE009E01723F9180E483A69131C92
:10CDE0005B009B18C3185B780B701723FB181B782C
:10CDF000002B0AD00C4B1B68002B06D00A4B1B687B
:10CE00001722BA181278101C9847BD4606B080BD8C
:10CE1000609B02001423002020230020C422002055
:10CE200040230020442300201023002080B582B03E
:10CE300000AF78607B681B78181C0221FFF74EFF5B
:10CE4000BD4602B080BDC04690B589B000AF021C9F
:10CE5000FB1D1A700023FB610023BB61FB1D1B78C7
:10CE6000172B00D95CE39A00E24BD3181B689F464E
:10CE7000A023DA05E04B1B68D943F0235B0419407B
:10CE8000A123DB00D150A023DB05DC4A002199500F
:10CE9000DB4BFA1D12781A7043E3A023DA05D64B58
:10CEA0001B68D943E0235B041940A123DB00D15068
:10CEB000A023DB05D14A00219950A023DB05D14AEC
:10CEC0009B58F02252045A4080239B03134016D0F3
:10CED000A023DA05A123DB0080218903D150A02300
:10CEE000DB05C64A00219950FB1D1B78022B02D19D
:10CEF000E123DB0001E0FA231B01BB6114E0A02366
:10CF0000DB05BE49802292035A50A023DA05A123F3
:10CF1000DB000021D150FB1D1B78022B01D1C8235F
:10CF200001E0C8235B00BB61B54BFA1D12781A7093
:10CF3000B54CBB69181C64210AF090FE031C1A1C36
:10CF4000B24B1B685343201C191C002209F0A2F8A5
:10CF5000031CFB61E5E2A023DA05A74B1B68D9435C
:10CF6000E0235B041940A123DB00D150A023DB05A3
:10CF7000A24A00219950A023DB05A24A9B58F02227
:10CF800052045A4080239B03134016D0A023DA0595
:10CF9000A123DB0080218903D150A023DB05974A20
:10CFA00000219950FB1D1B78032B02D1C8239B0045
:10CFB00001E0FA231B01BB6114E0A023DB058F49CC
:10CFC000802292035A50A023DA05A123DB0000211E
:10CFD000D150FB1D1B78032B01D1C82301E0C823CE
:10CFE0005B00BB61864BFA1D12781A70864CBB69D8
:10CFF000181C64210AF032FE031C1A1C834B1B68A8
:10D000005343201C191C002209F044F8031CFB6147
:10D0100087E2A023DA05784B1B68D943E0235B0441
:10D020001940A123DB00D150A023DB05734A002166
:10D030009950A023DB05734A9B58F02252045A40B2
:10D0400080239B0313400FD0A023DA05A123DB002C
:10D0500080218903D150A023DB05684A0021995023
:10D06000FA231B01BB610EE0A023DB05634980228C
:10D0700092035A50A023DA05A123DB000021D150EE
:10D08000C8235B00BB615E4BFA1D12781A705E4CC0
:10D09000BB69181C64210AF0E1FD031C1A1C5B4BE0
:10D0A0001B685343201C191C002208F0F3FF031CCB
:10D0B000FB6136E2A023DA054F4B1B68D943E0231E
:10D0C0005B041940A123DB00D150A023DB054B4AB0
:10D0D00000219950A023DB054A4A9B58F0225204B4
:10D0E0005A4080239B03134015D0A023DA05A123C7
:10D0F000DB0080218903D150A023DB053F4A0021BA
:10D100009950FB1D1B78052B01D1C82301E0FA23A0
:10D110001B01BB6114E0A023DB0538498022920388
:10D120005A50A023DA05A123DB000021D150FB1DBA
:10D130001B78052B01D1C82301E0C8235B00BB612C
:10D140002F4BFA1D12781A702F4CBB69181C6421E2
:10D150000AF084FD031C1A1C2C4B1B685343201C33
:10D16000191C002208F096FF031CFB61D9E1A023E3
:10D17000DA05214B1B68D943E0235B041940A12346
:10D18000DB00D150A023DB051C4A00219950A023CD
:10D19000DB051C4A9B58F02252045A4080239B0313
:10D1A00013400CD0A023DA05A123DB0080218903E2
:10D1B000D150A023DB05114A002199500BE0A02398
:10D1C000DB050E49802292035A50A023DA05A123E1
:10D1D000DB000021D1500A4BFA1D12781A700A4A5E
:10D1E0000A4B1B68101C191C002208F053FF031C7B
:10D1F000FB6196E1909B0200CC2200200C05000010
:10D20000C322002004050000D0220020C4220020F8
:10D21000A023DA05C54B1B68D943E0235B04194002
:10D22000A123DB00D150A023DB05C14A0021995086
:10D23000A023DB05BE49802292035A50A023DA05C1
:10D24000A123DB000021D150BA4BFA1D12781A70CD
:10D2500067E1A023DB05B84A9B587B61A023DA0570
:10D260007B69D9438023DB031940A123DB00D15024
:10D27000A023DB0579698022D2030A40AC495A50C9
:10D28000AE4AAF4B1B68101C191C002208F002FFAD
:10D29000031CFB6145E1A023DB05A74A9B583B61CA
:10D2A000A023DA053B69D9438023DB031940A1237E
:10D2B000DB00D150A023DB0539698022D2030A406C
:10D2C0009B495A509D499E4B1A68131C9B009B1802
:10D2D000081C191C002208F0DDFE031CFB6120E184
:10D2E000A023DB05944A9B58FB60A023DA05FB686A
:10D2F000D9438023DB031940A123DB00D150A023B5
:10D30000DB05F9688022D2030A4089495A508B4ACA
:10D310008B4B1B68101C191C002208F0BBFE031C61
:10D32000FB61FEE0A023DB05834A9B58BB60A02382
:10D33000DA05BB68D9438023DB031940A123DB0056
:10D34000D150A023DB05B9688022D2030A40784976
:10D350005A507A497A4B1A68131C9B009B18081C78
:10D36000191C002208F096FE031CFB61D9E0A023E3
:10D37000DB056F49F02252045A50A023DA05A1239D
:10D38000DB000021D1506B4BFA1D12781A70C8E0F7
:10D390006C4B181C08F0B6FE031CFB61FB1D1B78D0
:10D3A0001122D31ABB61BB69002B2DD0FB69002B66
:10D3B0002AD15E4B802212041A60BB69012B13D95B
:10D3C000604CBB69C8225343181C64210AF046FC18
:10D3D000031C1A1C5A4B1B685343201C191C0022A7
:10D3E00008F058FE031CFB61A023DA054F4B1968B7
:10D3F000F0235B040B404E495350A023DA05A123D0
:10D40000DB000021D1508CE0A023DA05474B1968DE
:10D41000F0235B041940A123DB00D150A023DB05DE
:10D42000434A00219950414B00221A6079E0A02321
:10D43000DA05A123DB00F0214904D150A023DB054C
:10D440003B4A002199503B4BFA1D12781A7068E054
:10D45000A023DA05A123DB00E0214904D150A02359
:10D46000DB05334A00219950A023DB053049802297
:10D4700092035A50A023DA05A123DB000021D150EA
:10D480002C4BFA1D12781A704BE0A023DA05A12369
:10D49000DB00D0214904D150A023DB05244A002120
:10D4A0009950A023DB0522498022D2035A50A023A1
:10D4B000DA05A123DB000021D1501E4BFA1D1278A2
:10D4C0001A702EE0A023DA05A123DB00C021490455
:10D4D000D150A023DB05164A00219950A023DB057B
:10D4E0001349C022D2035A50A023DA05A123DB003E
:10D4F0000021D1500F4BFA1D12781A7011E0A023B1
:10D50000DB050B49F02252045A50A023DA05A1236F
:10D51000DB000021D150074BFA1D12781A7000E091
:10D52000C046FB69181CBD4609B090BDCC22002046
:10D530000C050000C322002004050000D0220020BA
:10D54000C4220020F022002080B582B000AF7860B5
:10D55000064B1B680122134004D0054B1B78181C96
:10D56000FFF772FCBD4602B080BDC046C822002055
:10D57000C322002080B584B000AF7860A023DB0513
:10D580000B4A9B58FB60A023DA05FB68D943802334
:10D590001B041940A123DB00D150A023DB05F9684F
:10D5A000802212040A4003495A50BD4604B080BD8F
:10D5B000040500000C05000080B584B000AF021C1B
:10D5C000FB1D1A700023FB60084B1B6801221340EF
:10D5D00006D0FB1D1B78181CFFF736FC031CFB60F4
:10D5E000FB68181CBD4604B080BDC046C8220020A0
:10D5F00080B586B000AFF860B9607A6000237B61C7
:10D600003A4BBA681A603A4BFA681A60394B7A6832
:10D610001A60FB680222134033D000233B610AE00A
:10D620003B69181C0121012200F076F8031C7B6184
:10D630003B6901333B613B69032B02D87B69002BBB
:10D64000EED07B69002B09D1BB685B082A4A101C0D
:10D6500004211A1C07F0E2FC031C7B617B69002B90
:10D6600003D107F061FD031C7B617B69002B08D1AE
:10D67000224A234B101C00211A1C08F0BBFC031C7F
:10D680007B61FB680122134012D0A023DA05A1239D
:10D69000DB00F0214904D150A023DB05194A002109
:10D6A0009950A023DA05A323DB00F0214904D150CF
:10D6B0007B69002B08D1144A144B101C00211A1C42
:10D6C00008F098FC031C7B617B69002B08D1104A91
:10D6D000104B101C01211A1C08F08CFC031C7B61F0
:10D6E0007B69181CBD4606B080BDC046C422002020
:10D6F000C822002010230020709B02005C9B0200C7
:10D700002DCE01000C050000549B020049D50100FC
:10D71000589B020075D5010080B584B000AF7860D9
:10D72000081C111CFB1C021C1A70BB1C0A1C1A7062
:10D730000023FB607B68032B39D8BB1C1B78012BB3
:10D740000BD1FB1C1B78012B04D17B68DBB20D33A2
:10D75000DAB200E00022BB1C1A70FB1C1B78012B04
:10D7600004D0022B0BD0002B13D01CE013497A6895
:10D77000131C5B009B18BA1C12785A5416E00F4910
:10D780007A68131C5B009B18BA1CCB1812785A706D
:10D790000CE00A497A68131C5B009B18BA1CCB1872
:10D7A00012789A7002E00723FB60C04601E007236D
:10D7B000FB60FB68181CBD4604B080BD142300202C
:10D7C00080B586B000AF786000237B612DE0A02398
:10D7D000DB051A4A796989008A58C132FF32920002
:10D7E000D3583B617B6901229A40131C1A1C7B6849
:10D7F000134001D0032300E00023FB603B69104A83
:10D8000013403B61FB681B043A6913433B61A0234F
:10D81000DB050A4A796989008A58C132FF329200D1
:10D820003969D1507B6901337B617B69032BCED988
:10D830000023181CBD4606B080BDC046609B020098
:10D84000FFFFFCFF80B582B000AF00200021012265
:10D85000FFF762FF031C7B607B68002B04D07B68B2
:10D86000072B01D07B681EE0012002210722FFF771
:10D8700053FF031C7B607B68002B04D07B68072B65
:10D8800001D07B680FE0002002210422FFF744FF53
:10D89000031C7B607B68002B04D07B68072B01D0C6
:10D8A0007B6800E00023181CBD4602B080BDC04666
:10D8B00080B582B000AF002002210122FFF72CFFCB
:10D8C000031C7B607B68002B04D07B68072B01D096
:10D8D0007B681EE0012002210722FFF71DFF031CC9
:10D8E0007B607B68002B04D07B68072B01D07B68B2
:10D8F0000FE0002000210A22FFF70EFF031C7B60CF
:10D900007B68002B04D07B68072B01D07B6800E08C
:10D910000023181CBD4602B080BDC04680B584B04F
:10D9200000AF78600B23FB180020191CFFF7ACF93F
:10D93000031CFB60FB68002B01D0FB6822E00A237C
:10D94000FB180120191CFFF79FF9031CFB60FB6803
:10D95000002B01D0FB6815E00A23FB181B78002B75
:10D9600003D07B6802221A700BE00B23FB181B7894
:10D97000002B03D07B680B221A7002E07B68002228
:10D980001A700023181CBD4604B080BD80B582B05B
:10D9900000AF0320FFF714FF031C7B607B68002BA4
:10D9A00004D07B68062B01D07B6800E00023181CA4
:10D9B000BD4602B080BDC04680B584B000AF78607F
:10D9C0007B681B88102B02D0112B1AD034E01C4B23
:10D9D0001B68002B0FD1FFF735FF031CFB60FB68B2
:10D9E000002B08D0174B1B68002B04D0154B1B686D
:10D9F000FA68101C9847124B1B685A1C104B1A608F
:10DA00001AE00F4B1B685A1E0D4B1A600C4B1B681B
:10DA1000002B10D1FFF74CFF031CFB60FB68002BB1
:10DA200009D0084B1B68002B05D0064B1B68FA6811
:10DA3000101C9847FFE7C046BD4604B080BDC046F5
:10DA40004C2300204823002080B584B000AF7860CC
:10DA500039600023FB600F4B7A681A603B68002B2B
:10DA60000AD03B68181CFFF759FF031CFB60FB68DA
:10DA7000002B01D0FB6808E0074B1B68002B03D18B
:10DA8000FFF716FF031CFB60FB68181CBD4604B0C3
:10DA900080BDC046482300204C23002071DF704722
:10DAA000181CC04672DF7047181CC04679DF7047EB
:10DAB000181CC0467DDF7047181CC04665DF7047E4
:10DAC000181CC04680B582B000AF021C3960BB1D77
:10DAD0001A80BB1D1B88DAB23B681A703B680133A1
:10DAE000BA1D1288120A92B2D2B21A700223181CFE
:10DAF000BD4602B080BDC04680B586B000AFF860BC
:10DB0000B9607A601A1CBB1C1A807B681B881233B0
:10DB10001A1CBB1C1B889A4201D90C233FE07B686E
:10DB20001B881A1CBB689B1811221A707B681B8803
:10DB300001339AB27B681A807B681B881A1CBB6809
:10DB40009B1810221A707B681B8801339AB27B687D
:10DB50001A801723FB180F221A701AE07B681B88A3
:10DB60001A1CBB689B181722BA18127852B2F968AF
:10DB70008A5C1A701723FB181B78DBB2013BDAB200
:10DB80001723FB181A707B681B8801339AB27B68D5
:10DB90001A801723FB181B787F2BDFD90023181C52
:10DBA000BD4606B080BDC04680B584B000AFB96048
:10DBB0007A60191C0F23FB18021C1A700C23FB1827
:10DBC0000A1C1A807B681B88DA1C0C23FB181B8834
:10DBD0009A4201D90C2350E07B681B881A1CBB6851
:10DBE0009B1802221A707B681B8801339AB27B68EB
:10DBF0001A807B681B881A1CBB689B181C221A7031
:10DC00007B681B8801339AB27B681A800F23FB184C
:10DC10001B78022B10D002DC012B05D024E0032B53
:10DC200012D0042B18D01FE07B681B881A1CBB681D
:10DC30009B1800221A7019E07B681B881A1CBB68AD
:10DC40009B1801221A7011E07B681B881A1CBB68A4
:10DC50009B1802221A7009E07B681B881A1CBB689B
:10DC60009B1803221A7001E0072306E07B681B88DB
:10DC700001339AB27B681A800023181CBD4604B099
:10DC800080BDC04680B588B000AFF860B960BB1DEC
:10DC90001A80BB681B8809331A1CBB1D1B889A425B
:10DCA00001D90C2353E01423FB18181CFFF7F6FED0
:10DCB000031CFB61FB69002B01D0FB6947E0BB68DB
:10DCC0001B881A1CFB689B1808221A70BB681B88EB
:10DCD00001339AB2BB681A80BB681B881A1CFB68A8
:10DCE0009B181B221A70BB681B8801339AB2BB6851
:10DCF0001A80BB681B881A1CFB689A181423FB182F
:10DD00000133101C191C06220AF0AAF8BB681B88F4
:10DD100006339AB2BB681A801423FB181B78002BB9
:10DD200007D1BB681B881A1CFB689B1800221A705D
:10DD300006E0BB681B881A1CFB689B1801221A703E
:10DD4000BB681B8801339AB2BB681A800023181C79
:10DD5000BD4608B080BDC04680B588B000AFF86051
:10DD6000B9607A601A1CBB1C1A80FB681B78012BF7
:10DD700005D1FB685B78002B01D1072399E07B6814
:10DD80001B889A1CBB1C1B889A420ED8FB681B7808
:10DD9000012B0CD17B681B881A1CFB685B78D3189D
:10DDA0009A1CBB1C1B889A4201D90C2381E07B681A
:10DDB0001B88BA1C1288D31A9AB21C23FB18023A89
:10DDC0001A801623FB181C22BA1812881A807B6846
:10DDD0001B880233BA68D2181623FB18101C191CB2
:10DDE000FFF768FE031CBB61BB69002B01D0BB6958
:10DDF0005FE0FB681B78022B0CD11623FB181B88F5
:10DE00001C22BA1812889A4204D31F23FB18092235
:10DE10001A701CE01F23FB1808221A70FB681B787D
:10DE2000012B0ED1FB685B789BB21C22BA181288BA
:10DE30009A4206D3FB685B789AB21623FB181A80C5
:10DE400005E01623FB181C22BA1812881A80162324
:10DE5000FB181B88FE2B01D90C232AE07B681B884A
:10DE60001A1CBB689B181622BA181288D2B201324B
:10DE7000D2B21A707B681B8801339AB27B681A8011
:10DE80007B681B881A1CBB689B181F22BA18127863
:10DE90001A707B681B8801339AB27B681A807B6892
:10DEA0001A881623FB181B88D3189AB27B681A802D
:10DEB0000023181CBD4608B080BDC04680B586B0A2
:10DEC00000AFF860B960BB1D1A80BB681B881A1DC3
:10DED000BB1D1B889A4201D90C233BE01223FB187F
:10DEE000181CFFF7E3FD031C7B617B69002B01D04D
:10DEF0007B692FE0BB681B881A1CFB689B180322F8
:10DF00001A70BB681B8801339AB2BB681A80BB6861
:10DF10001B881A1CFB689B1819221A70BB681B8887
:10DF200001339AB2BB681A801223FB181A88BB68A7
:10DF30001B88191CFB685B18101C191CFFF7C2FD1D
:10DF4000031C191CBB681A888BB2D3189AB2BB6821
:10DF50001A800023181CBD4606B080BD80B584B071
:10DF600000AFB9607A60191C0F23FB18021C1A70ED
:10DF70000C23FB180A1C1A807B681B88DA1C0C23F4
:10DF8000FB181B889A4201D90C2329E07B681B8867
:10DF90001A1CBB689B1802221A707B681B8801330D
:10DFA0009AB27B681A807B681B881A1CBB689B1816
:10DFB00001221A707B681B8801339AB27B681A8031
:10DFC0007B681B881A1CBB689B180F22BA18127832
:10DFD0001A707B681B8801339AB27B681A80002311
:10DFE000181CBD4604B080BD80B584B000AFB960D8
:10DFF0007A60191C0F23FB18021C1A700C23FB18E3
:10E000000A1C1A807B681B88DA1C0C23FB181B88EF
:10E010009A4201D90C2329E07B681B881A1CBB6833
:10E020009B1802221A707B681B8801339AB27B68A6
:10E030001A807B681B881A1CBB689B1811221A70F7
:10E040007B681B8801339AB27B681A807B681B88C7
:10E050001A1CBB689B180F22BA1812781A707B68BA
:10E060001B8801339AB27B681A800023181CBD46B6
:10E0700004B080BD80B584B000AFB9607A60191C6F
:10E080000F23FB18021C1A700C23FB180A1C1A80A1
:10E090007B681B88DA1C0C23FB181B889A4201D969
:10E0A0000C2329E07B681B881A1CBB689B18022282
:10E0B0001A707B681B8801339AB27B681A807B6870
:10E0C0001B881A1CBB689B180A221A707B681B8865
:10E0D00001339AB27B681A807B681B881A1CBB6864
:10E0E0009B180F22BA1812781A707B681B880133AC
:10E0F0009AB27B681A800023181CBD4604B080BD0C
:10E1000080B58AB000AFF860081C111C7B600B233F
:10E11000FB18021C1A700A23FB180A1C1A7023230E
:10E12000FB1800221A702023FB183A6B12881A8001
:10E1300000237B6286E0FB685A687B6A9B00D318E9
:10E140001022BA18111C1A1C0423081C111C1A1CBA
:10E1500009F086FE1023FA181723FB18101C191C4F
:10E160000022FFF7ABFC031CFB61FB69002B01D015
:10E17000FB6990E01723FB181B780A22BA18127863
:10E180009A425CD12323FB181B78002B01D000227C
:10E1900000E002221B23FB181A703B6B1B881A1C21
:10E1A0001723FB181B78D2181B23FB181B78D218D7
:10E1B0003423FB181B889A4201DD0C236BE02323D8
:10E1C000FB181B7801225340DBB2002B18D03B6BAD
:10E1D0001B8801339AB23B6B1A803B6B1B881A1C5D
:10E1E0007B689B180B22BA1812781A703B6B1B883D
:10E1F00001339AB23B6B1A802323FB1801221A7059
:10E200003B6B1B881A1C7B689B181022B9181722BD
:10E21000BA18081C111C1A1CFFF750FC031CFB61E8
:10E22000FB69002B01D0FB6935E03B6B1A88172393
:10E23000FB181B789BB2D3189AB23B6B1A807B6A8F
:10E2400001337B62FB681B881A1E7B6A9A4200DDE1
:10E2500071E72323FB181B78002B1BD03B6B1A881C
:10E260002023FB181B88D31A9AB21823FB18013AF3
:10E270001A801823FB181B88FF2B01D90C230AE0F6
:10E280002023FB181B887A68D3181822BA18128822
:10E29000D2B21A700023181CBD460AB080BDC04619
:10E2A00090B589B002AFF860081C111C7B600B238D
:10E2B000FB18021C1A700A23FB180A1C1A70F96852
:10E2C0000B23FB181A787C68BB6A00932C23FB187D
:10E2D0001B880193081C111C0222231CFFF710FF4E
:10E2E000031C7B617B69002B01D07B6918E0F96816
:10E2F0000A23FB181A787C68BB6A00932C23FB184E
:10E300001B880193081C111C1022231CFFF7F8FE28
:10E31000031C7B617B69002B01D07B6900E000233B
:10E32000181CBD4607B090BD80B582B000AF7860C4
:10E330007B681B88052B0AD97B681A88C8231B01B8
:10E340009A4206D97B681B88164A934201D007235C
:10E3500023E07B685B88052B0AD97B685A88C82331
:10E360001B019A4206D97B685B880E4A934201D012
:10E37000072312E07B681B880A4A93420CD07B6813
:10E380005B88084A934207D07B681A887B685B8861
:10E390009A4201D9072300E00023181CBD4602B0B1
:10E3A00080BDC046FFFF000080B586B000AFF860BA
:10E3B000B9607A601A1CBB1C1A807B681B889A1D86
:10E3C000BB1C1B889A4201D90C234DE0FB68181C2A
:10E3D000FFF7AAFF031C7B617B69002B01D07B69DF
:10E3E00042E07B681B881A1CBB689B1805221A70C8
:10E3F0007B681B8801339AB27B681A807B681B8814
:10E400001A1CBB689B1812221A707B681B88013388
:10E410009AB27B681A80FB681A887B681B88191C73
:10E42000BB685B18101C191CFFF74CFB031C191C64
:10E430007B681A888BB2D3189AB27B681A80FB6803
:10E440005A887B681B88191CBB685B18101C191C38
:10E45000FFF738FB031C191C7B681A888BB2D31892
:10E460009AB27B681A800023181CBD4606B080BD96
:10E4700080B586B000AFF860B9607A601A1CBB1C2A
:10E480001A80FB689B8802337B617B681B881A1C9F
:10E490007B69D3189A1CBB1C1B889A4201D90C2398
:10E4A00056E07B69FE2B01D90C2351E07B681B8869
:10E4B0001A1CBB689B187A69D2B20132D2B21A70A8
:10E4C0007B681B8801339AB27B681A807B681B8843
:10E4D0001A1CBB689B18FF221A707B681B880133CB
:10E4E0009AB27B681A80FB681A887B681B88191CA3
:10E4F000BB685B18101C191CFFF7E4FA031C191CFD
:10E500007B681A888BB2D3189AB27B681A80FB6832
:10E510009B88002B1BD0FB689B68002B01D1072335
:10E5200016E07B681B881A1CBB689918FB689A6800
:10E53000FB689B88081C111C1A1C09F091FC7B6865
:10E540001A88FB689B88D3189AB27B681A800023CC
:10E55000181CBD4606B080BD80B588B000AFF8601D
:10E56000B9607A601A1CBB1C1A80FB689B6A002B7E
:10E5700001D107237AE01F23FB1800221A706BE0F9
:10E58000FB68996A1F23FB181A78131C5B009B1801
:10E590009B00CB18BB61BB699B8802337B617B69A5
:10E5A000FE2B01D90C2361E07B681B881A1CBB6819
:10E5B0009B187A69D2B20132D2B21A707B681B887A
:10E5C00001339AB27B681A807B681B881A1CBB686F
:10E5D0009B1816221A707B681B8801339AB27B68DD
:10E5E0001A80BB691A887B681B88191CBB685B187A
:10E5F000101C191CFFF766FA031C191C7B681A888B
:10E600008BB2D3189AB27B681A80BB699B88002BA7
:10E610001BD0BB699B68002B01D1072326E07B68D8
:10E620001B881A1CBB689918BB699A68BB699B88D0
:10E63000081C111C1A1C09F013FC7B681A88BB69A2
:10E640009B88D3189AB27B681A801F23FB181A780C
:10E650001F23FB1801321A70FB682C229B5C1F22BF
:10E66000BA1812789A4200D28AE70023181CBD46D5
:10E6700008B080BD90B589B002AFF860B9607A602B
:10E6800000237B611223FB187A6812881A807B684A
:10E6900000221A80FB685B6B002B10D0FB685B6B61
:10E6A0001878B9687A681223FB181B88FFF79CFC5E
:10E6B000031C7B617B69002B01D07B6921E1FB6836
:10E6C0001B6B002B0FD0FB68186BB9687A6812239C
:10E6D000FB181B88FFF710FA031C7B617B69002B7A
:10E6E00001D07B690DE1FB682E229B5C002B10D0D2
:10E6F000FB682E22985CB9687A681223FB181B8885
:10E70000FFF752FA031C7B617B69002B01D07B6908
:10E71000F7E0FB682D229B5C002B10D0B9687A686B
:10E720001223FB181B88081C111C1A1CFFF7AAFADD
:10E73000031C7B617B69002B01D07B69E1E0FB68F6
:10E740009B78002B10D0B9687A681223FB181B88BD
:10E75000081C111C1A1CFFF7B1FB031C7B617B69B1
:10E76000002B01D07B69CCE0FB68DB78002B11D05B
:10E77000FB68DB78DBB258B2B9687A681223FB1801
:10E780001B88FFF7EBFB031C7B617B69002B01D02F
:10E790007B69B6E0FB685B68002B11D0FB685B68A7
:10E7A0001B7858B2B9687A681223FB181B88FFF7E8
:10E7B00061FC031C7B617B69002B01D07B69A0E0BD
:10E7C000FB681B89002B16D0FB6808331A1CBC6839
:10E7D0007B6800931223FB181B880193101C0221F5
:10E7E0000622231CFFF75CFD031C7B617B69002B69
:10E7F00001D07B6985E0FB681B8A002B16D0FB6883
:10E8000010331A1CBC687B6800931223FB181B880A
:10E810000193101C03210722231CFFF741FD031C59
:10E820007B617B69002B01D07B696AE0FB681B8BF5
:10E83000002B16D0FB6818331A1CBC687B68009349
:10E840001223FB181B880193101C14211522231C72
:10E85000FFF726FD031C7B617B69002B01D07B69E0
:10E860004FE0FB681B6A002B0FD0FB68186AB96881
:10E870007A681223FB181B88FFF796FD031C7B6147
:10E880007B69002B01D07B693BE0FB685B6A002B56
:10E890000FD0FB68586AB9687A681223FB181B8886
:10E8A000FFF7E6FD031C7B617B69002B01D07B69D0
:10E8B00027E0FB682C229B5C002B0ED0F868B9681F
:10E8C0007A681223FB181B88FFF746FE031C7B6146
:10E8D0007B69002B01D07B6913E0FB681B78002B60
:10E8E0000ED0F868B9687A681223FB181B88FFF706
:10E8F00033FA031C7B617B69002B01D07B6900E04C
:10E900007B69181CBD4607B090BDC04680B582B07B
:10E9100000AF78607B68DB781A1C0423134001D1B8
:10E92000072300E00023181CBD4602B080BDC0468E
:10E9300080B582B000AF78607B68DB78002B01D0B7
:10E94000072300E00023181CBD4602B080BDC0466E
:10E9500080B596B000AF786039604A23FB181F225B
:10E960001A804823FB181F221A807B68002B1FD0B7
:10E970007B68181CFFF7CAFF031CFB64FB6C002BB1
:10E9800001D0FB6C50E079682823FA184A23FB1861
:10E99000081C111C1A1CFFF76DFE031CFB64FB6CAA
:10E9A000002B01D0FB6C3FE02823FB187B6505E0C2
:10E9B00000237B654A23FB1800221A803B68002B4A
:10E9C0001FD03B68181CFFF7B3FF031CFB64FB6CF4
:10E9D000002B01D0FB6C27E039680823FA18482384
:10E9E000FB18081C111C1A1CFFF744FE031CFB64D7
:10E9F000FB6C002B01D0FB6C16E00823FB183B6579
:10EA000005E000233B654823FB1800221A804A23B7
:10EA1000FB181B88D9B24823FB181B88DBB2786D22
:10EA20003A6DFFF73FF8031C181CBD4616B080BDB9
:10EA300073DF7047181CC04674DF7047181CC0464F
:10EA400080B582B000AF78607B681B79002B03D162
:10EA50007B681B7B002B01D0012300E00023181CE6
:10EA6000BD4602B080BDC04680B500AF034B181C48
:10EA70000021072209F000FABD4680BD5423002082
:10EA800080B584B000AF78600023FB600AE07A684C
:10EA9000FB68D3181B78002B01D0012306E0FB682C
:10EAA0000133FB60FB68052BF1D90023181CBD4620
:10EAB00004B080BD90B589B000AFF860B9607A60ED
:10EAC0003B60FB68002B01D10E23D2E07B68002B5A
:10EAD00001D10E23CDE0694B00221A70684B3A68D1
:10EAE0001A60684B3A6B1A60674B7A6813CA13C393
:10EAF00013CA13C313CA13C3FFF7B6FF634B644AA9
:10EB00001A60624B634A9A60634B181C00213822DA
:10EB100009F0B2F9FB681A785F4B1A70FB689A78B3
:10EB20005D4B9A70FB68DA785B4BDA70FB685A7859
:10EB3000594B5A70584BFA681033103203CA03C34A
:10EB4000554BFA680833083203CA03C3524BFA68BC
:10EB50001833183203CA03C3FB685B6A002B29D041
:10EB60004D4B4E4A5A624D4B4D4A9A604A4B5A6A37
:10EB7000FB685B6A1B881380474B5A6AFB685B6AB9
:10EB80009B8893800023FB610DE0FB685B6A9A68B9
:10EB9000FB69D3181978424AFB69D3180A1C1A700A
:10EBA000FB690133FB613C4B5B6A9B881A1EFB6966
:10EBB0009A42EAD8FB689B6A002B33D0394B3A4A19
:10EBC0009A60354B374A9A62334B9B6A364A9A6051
:10EBD000314B9A6AFB689B6A9B8893802E4B9A6A9A
:10EBE000FB689B6A1B8813800023BB610DE0FB68F8
:10EBF0009B6A9A68BB69D31819782B4ABB69D318EA
:10EC00000A1C1A70BB690133BB61234B9B6A9B884A
:10EC10001A1EBB699A42EAD8FB682C22995C1E4BEB
:10EC20002C229954FB681B6A002B0ED01A4B1F4AEA
:10EC30001A62194B1A6AFB681B6A5B885380164B71
:10EC40001A6AFB681B6A1B881380FB685B68002BD1
:10EC500006D0114B164A5A60FB685A680E4B5A6030
:10EC60000D4ABB68101C191CFFF772FE031C7B6168
:10EC70007B69181CBD4609B090BDC046A02300208A
:10EC8000982300209C230020A4230020C8230020D8
:10EC9000D8230020F82300205C2300201C2400201F
:10ECA000282400204824002054240020742400201C
:10ECB0007824002080B582B000AF00233B603B1C6D
:10ECC000181C04F073FE031C7B607B68082B04D0C7
:10ECD0007B68002B01D0012313E07B68082B0AD14D
:10ECE0003B1C181C07F036FA031C7B607B68002B6A
:10ECF00001D0002305E03B68002B01D0012300E098
:10ED00000023181CBD4602B080BDC04680B58AB045
:10ED100000AF021CFB1D1A70C04BFA1D12781A704E
:10ED2000FFF7C8FF031E04D0BD4B01221A70002359
:10ED300097E1FFF799FEBB4B5B78002B03D0B74BF5
:10ED40001B78012B0FD0B74B9B78002B03D0B34B14
:10ED50001B78012B07D0B34B9B78002B12D0AF4B05
:10ED60001B78022B0ED1B04B1B68002B07D0AF4B8A
:10ED700001221A70AC4B1B680820984702E0AB4B8D
:10ED800000221A70A54B1B78012B14D1A54B5B7880
:10ED900001225340DBB2002B0AD1A54B181CFFF710
:10EDA0006FFE031C1A1C01235340DBB2002B02D060
:10EDB0009A4B02221A70994B1B78022B14D1994B53
:10EDC0009B7801225340DBB2002B0AD1984B181CD0
:10EDD000FFF756FE031C1A1C01235340DBB2002B25
:10EDE00002D08E4B03221A708E4B1B7B01225340A4
:10EDF000DBB2002B06D0894B1B78032B02D1874B4B
:10EE000004221A70874B1B7E01225340DBB2002B79
:10EE100009D0824B1B78042B05D1804B00221A703D
:10EE2000844B00221A70804B1B68002B1AD07B4B3E
:10EE30001B78032B03D0794B1B78042B12D1794B11
:10EE40001B78002B0ED07C4B1B7801225340DBB289
:10EE5000002B07D0794B01221A70734B1B680720D7
:10EE6000984702E0754B00221A700C23FB18181CFF
:10EE70000021182209F000F80C23FB1800221A7058
:10EE80000C23FB1800225A600C23FB1800221A7274
:10EE90000C23FB180022DA60604B1B78022B1CD07D
:10EEA00002DC012B05D0A8E0032B2ED0042B68D068
:10EEB000A3E00C23FB18624A5A600C23FB180122C2
:10EEC0001A700C23FB1800225A820C23FB18002214
:10EED0001A82584B01221A708FE00C23FB18584AF3
:10EEE0005A600C23FB1801221A704E4B9B689AB291
:10EEF0000C23FB185A824B4B5B689AB20C23FB180D
:10EF00001A824C4B02221A7077E0464B5B699AB228
:10EF10000C23FB185A82434B1B699AB20C23FB1833
:10EF20001A82484B181CFFF78BFD031E25D03D4B62
:10EF30001B78002B21D0404B1B7801225340DBB2C1
:10EF4000002B1AD00C23FB1802221A720C23FB1878
:10EF50003C4ADA603C4B0422DA703B4B181C00211F
:10EF6000FFF7F6FC031C7B627B6A002B01D07B6AF7
:10EF700077E0304B05221A703FE02E4B03221A70C7
:10EF80003BE0284BDB699AB20C23FB181A82254B15
:10EF90001B6A9AB20C23FB185A822A4B181CFFF7E3
:10EFA0004FFD031E25D01F4B1B78002B21D0224B79
:10EFB0001B7801225340DBB2002B1AD00C23FB1824
:10EFC00002221A720C23FB181E4ADA601E4B04221E
:10EFD000DA701D4B181C0021FFF7BAFC031C7B6282
:10EFE0007B6A002B01D07B6A3BE0124B06221A7031
:10EFF00002E0104B04221A70C046084B1B78002B0D
:10F0000024D00C23FB18181CFFF712FD031C7B6295
:10F010007B6A002B1AD07B6A23E0C046A023002025
:10F0200050230020A4230020982300201A2400202D
:10F0300055230020942300201824002019240020A8
:10F0400054230020C82300205C230020074B1B68AA
:10F05000002B05D0054B1B68054A1278101C9847F9
:10F060000023181CBD460AB080BDC046982300206E
:10F070009423002080B586B000AF78607B681B8841
:10F08000112B0ED01B2B28D0102B00D082E07B68D8
:10F090009B7D012B04D17B689A88404B1A8079E0D4
:10F0A00078E03F4B00221A707B689A883B4B1B88A4
:10F0B0009A4211D10120FFF729FE031C7B617B6975
:10F0C000002B09D0374B1B68002B05D0354B1B6834
:10F0D0007A69101C98475DE05CE07B681B7A002B26
:10F0E00057D1314B1B78022B1BD002DC012B05D0F2
:10F0F0004FE0032B28D0042B3CD04AE00220FFF73E
:10F1000005FE031C3B613B69002B09D0254B1B68A6
:10F11000002B05D0234B1B683A69101C984738E038
:10F1200037E00320FFF7F2FD031CFB60FB68002BB8
:10F1300009D01C4B1B68002B05D01A4B1B68FA68C2
:10F14000101C984725E024E0184B03221A70042075
:10F15000FFF7DCFD031CBB60BB68002B09D0114B23
:10F160001B68002B05D00F4B1B68BA68101C984712
:10F170000FE00EE00D4B00221A700D4B1B68002BA8
:10F1800006D00B4B1B68094A1278101C9847FFE702
:10F19000C046C046BD4606B080BDC0465C200020CB
:10F1A000182400209C230020A0230020942300206A
:10F1B0009823002080B584B000AF78600023FB6006
:10F1C0007B68023B012B1BD80F4B1B78002B16D002
:10F1D0000D4B00221A700D4B1B78181CFFF796FD83
:10F1E000031CFB60FB68002B09D0094B1B68002B3C
:10F1F00005D0074B1B68FA68101C984701E000E037
:10F20000C046BD4604B080BD50230020A02300208E
:10F210009C23002080B582B000AF214B1B78002BCF
:10F2200038D0204B1B7801225340DBB2002B31D069
:10F230001D4B1B78002B08D0FFF7FEFB031C7B60E7
:10F240007B68002B01D07B6825E0164B01221A70E9
:10F25000164B0622DA70154B181C0021FFF778FBBD
:10F26000031C7B607B68002B01D07B6813E00E4B96
:10F270001B78181CFFF74AFD031C7B607B68002B82
:10F2800008D00B4B1B68002B04D0094B1B687A6815
:10F29000101C98470023181CBD4602B080BDC04614
:10F2A000A423002018240020A02300205C23002099
:10F2B0009C23002075DF7047181CC04676DF70471E
:10F2C000181CC0467ADF7047181CC0467BDF7047A9
:10F2D000181CC04680B582B000AF78607B681B7890
:10F2E0009AB27B6801331B781B029BB213439BB21B
:10F2F0009BB2181CBD4602B080BDC04690B585B01B
:10F3000000AF78600E23FC187B68181CFFF7E2FF43
:10F31000031C23800E23FB181B88012213405A1E56
:10F320009341DBB2181CBD4605B090BD80B582B0DC
:10F3300000AF78607B685A88084B1B889A4207D3D5
:10F340007B685A88054B5B889A4201D8012300E00C
:10F350000023181CBD4602B080BDC0469824002082
:10F3600080B586B000AF7860294B1B88294A93424C
:10F370004BD0294B1B780133DAB2274B1A70274B3D
:10F380001A7B254B1B789A4216D3214B1A88244BA3
:10F39000101C191CFFF78EFF031C7B617B69002B7F
:10F3A00009D01E4B9B69002B05D01C4B9B697A69C9
:10F3B000101C984729E028E0174B00221A70174BC1
:10F3C0001B7C002B13D0124B1B88181C3B21FFF712
:10F3D00075FF031C3B613B69002B08D00F4B9B69F9
:10F3E000002B04D00D4B9B693A69101C98470B4BBE
:10F3F0005B69002B09D00C23FB1800221A70074B05
:10F400005B690C22BA18101C9847BD4606B080BD37
:10F41000A2240020FFFF0000A02400207C24002064
:10F420009824002090B585B000AF7860214B7A68B1
:10F4300013CA13C313CA13C312681A601E4B0022E7
:10F440001A707B681B68002B15D07B681B681B4AF1
:10F45000111C1A1C0823081C111C1A1C08F000FDA2
:10F46000164B181CFFF72EFF031CFB60FB68002BDC
:10F470000CD0FB6819E0114B181CFFF727FF031C89
:10F48000FB60FB68002B01D0FB680EE00C4B0122F7
:10F4900052421A800B4B00221A700B4A0B4B101C65
:10F4A00000211A1C06F0A6FD031C181CBD4605B061
:10F4B00090BDC0467C240020CC240020982400204D
:10F4C000A2240020A0240020F09B020061F3010090
:10F4D00080B584B000AF284B181CFFF727FF031C32
:10F4E0001A1C01235340DBB2002B32D0234B1B7874
:10F4F000002B0CD0224B5B69002B29D03B1D002236
:10F500001A701F4B5B693A1D101C98472DE01D4B6C
:10F510001B78002B03D11A4B5B68FB6002E0184B91
:10F520009B68FB60184AFB68101C191C002206F03F
:10F53000B1FD031CBB60BB68002B09D0104B9B695D
:10F54000002B05D00E4B9B69BA68101C98470CE045
:10F550000BE00B4B5B69002B07D03B1C01221A70A0
:10F56000074B5B693A1C101C9847044B00221A7029
:10F57000BD4604B080BDC046A4240020CC24002099
:10F580007C240020A0240020AC24002080B582B080
:10F5900000AF78607B689A88094B1A80094A7B68BB
:10F5A000183303CB03C2084B00221A70074BDB89C8
:10F5B000002B01D1FFF78CFFBD4602B080BDC046D5
:10F5C000A2240020A4240020A02400207C240020C9
:10F5D00080B584B000AF78600D4B012252421A8092
:10F5E0000C4B00221A700C4B181C06F08BFD031CF0
:10F5F000FB60FB68002B08D0084B9B69002B04D0F4
:10F60000064B9B69FA68101C9847BD4604B080BD44
:10F61000A2240020A0240020AC2400207C24002070
:10F6200080B584B000AF78607B680633FB60FB6810
:10F630001A88134BDB899A421FD1FB685B89022B26
:10F640001BD1FB680C33181CFFF758FE031E02D0B9
:10F65000FFF73EFF11E00B4B181C06F053FD031C97
:10F66000BB60BB68002B08D0054B9B69002B04D006
:10F67000034B9B69BA68101C9847BD4604B080BD17
:10F680007C240020AC24002080B582B000AF7860DC
:10F69000044A7B68083303CB03C2FFF719FFBD465A
:10F6A00002B080BDA424002080B582B000AF786095
:10F6B0007B681B88112B0DD002DC102B05D018E0C5
:10F6C000122B11D0502B0AD013E07B68181CFFF7C7
:10F6D0005DFF0EE07B68181CFFF77AFF09E07B688E
:10F6E000181CFFF79DFF04E07B68181CFFF7CCFF98
:10F6F000C046BD4602B080BD7FDF7047181CC046C3
:10F7000086DF7047181CC046A7DF7047181CC0462C
:10F71000A9DF7047181CC046AADF7047181CC046F6
:10F7200080B582B000AF78607B6801229A40131CDC
:10F73000DA43044B1B681A40024B1A60BD4602B004
:10F7400080BDC0461026002080B582B000AF786032
:10F750007B6801229A40131C1A1C054B1B6813403E
:10F760005A1E9341DBB2181CBD4602B080BDC04694
:10F770001026002080B582B000AF78600F497A680B
:10F78000131C5B009B189B0000225A500B497A689F
:10F79000131C5B009B189B00CB18083300225A7087
:10F7A00006497A68131C5B009B189B00CB18083332
:10F7B00000229A70BD4602B080BDC046FC250020E4
:10F7C00080B582B000AF786016497A68131C5B0080
:10F7D0009B189B00CB18083301229A7011497A6854
:10F7E000131C5B009B189B00CB180833012252426C
:10F7F0001A800C497A68131C5B009B189B00CB187D
:10F800000833FF22DA707A68131C5B009B189B0098
:10F81000044A9B18181C0021072208F02DFBBD4646
:10F8200002B080BDF025002080B582B000AF7860C6
:10F830007A68131CDB009B1A9B0010331A1C1F4BA9
:10F84000D3180133181C0021062208F015FB7A6832
:10F85000131CDB009B1A9B00184A9B18181C0021E4
:10F86000102208F009FB15497A68131CDB009B1A6B
:10F870009B00CB181033FF221A7010497A68131CB2
:10F88000DB009B1A9B00CB181833FF229A700B49A0
:10F890007A68131CDB009B1A9B00CB1818330122DB
:10F8A00052421A807B68181CFFF73AFF044B7A68B3
:10F8B00092000021D150BD4602B080BDEC24002052
:10F8C000D024002080B584B000AF3A60BB1D021C7C
:10F8D0001A807B1D0A1C1A700823FB600023BB6082
:10F8E0002BE01A49BA68131C5B009B189B00CB18CD
:10F8F00008339B787A1D12781340DBB2002B19D0A5
:10F90000BB1D1B88124A93420CD01049BA68131CC5
:10F910005B009B189B00CB1808331B88BA1D12880C
:10F920009A4205D13B68BA681A600023FB6007E081
:10F930000523FB60BB680133BB60BB68002BD0D0E4
:10F94000FB68181CBD4604B080BDC046F0250020F1
:10F95000FFFF000080B584B000AF78603960324BA3
:10F96000FB600023BB6057E03049BA68131CDB0022
:10F970009B1A9B00CB1818339B78FF2B49D13B680F
:10F980001B78022B28D02949BA68131CDB009B1A6C
:10F990009B00CB1818339B7802229343D8B223499B
:10F9A000BA68131CDB009B1A9B00CB181833021C8F
:10F9B0009A701E49BA681020131CDB009B1A9B002A
:10F9C000CB181A183B68111C1A1C0723081C111CA1
:10F9D0001A1C08F045FA15E01449BA68131CDB003C
:10F9E0009B1A9B00CB1818339B7801229343D8B203
:10F9F0000E49BA68131CDB009B1A9B00CB18183306
:10FA0000021C9A70BB68DAB27B681A700023FB6034
:10FA100005E0BB680133BB60BB68062BA4D9FB685B
:10FA2000181CBD4604B080BD43800000EC240020BB
:10FA300080B586B000AF78607B689AB210490C231D
:10FA4000FB18081C111C1A1C03F038FC031C7B61FA
:10FA50007B69002B0ED10C23FB18181C742103F0BA
:10FA6000D3FE031C7B617B69002B03D17B68181CD0
:10FA7000FFF7DAFE7B69181CBD4606B080BDC046A4
:10FA80000826002080B586B000AFF860B960BB1DC5
:10FA90001A8005237B6100233B612CE0FB68002B6F
:10FAA0000CD119493A69131CDB009B1A9B00CB1837
:10FAB00018331B88BA1D12889A4213D0FB68002B9A
:10FAC00016D03A69131CDB009B1A9B0010331A1CDA
:10FAD0000D4BD218FB68101C191C072208F07CF98A
:10FAE000031E05D1BB683A691A6000237B6105E0FB
:10FAF0003B6901333B613B69062BCFD97B69181CFD
:10FB0000BD4606B080BDC046EC24002080B586B05E
:10FB100000AFF860B9607A60054B1B687B61F868DC
:10FB2000B9687A687B699847BD4606B080BDC04613
:10FB3000FC25002080B584B000AF78600F4A7B6858
:10FB4000101C01211A1CFFF7BDFE031CFB60FB68A3
:10FB5000002B0BD17B681A680949131C5B009B18AA
:10FB60009B00CB18083302229A7001E00423FB604B
:10FB7000FB68181CBD4604B080BDC046FFFF0000F6
:10FB8000F025002080B582B000AF78607B681A68ED
:10FB90000849131C5B009B189B00CB1808339B780B
:10FBA000012B04D07B681B68181CFFF709FEBD46BB
:10FBB00002B080BDF025002080B584B000AFF860B1
:10FBC000B960191CBB1D1A803B1D0A1C1A8000233A
:10FBD000181CBD4604B080BD90B587B000AF7860FA
:10FBE0000A1CFB1C1A707B689B789AB24849082350
:10FBF000FB18081C111C1A1C03F060FB031C3B6162
:10FC00003B69002B00D080E07B685B78191C414A7F
:10FC10000B1C5B005B189B00D31808339B781A1CE5
:10FC20004023134003D1FB1C1B78022B02D13A4B1B
:10FC30007B6108E0FB1C1B78012B02D1374B7B61F9
:10FC400001E0374B7B617B689B781A1C131CDB003F
:10FC50009B1A9B00334A9B180822BA187C69101C17
:10FC6000191C1C220023A047031C3B613B69002B8D
:10FC700030D1FB1C1B78022B2CD07B685B78191CC5
:10FC80007B685B78181C234A031C5B001B189B00D5
:10FC9000D31808339B7840229343D8B21D4A0B1CDB
:10FCA0005B005B189B00D3180833021C9A707B68BA
:10FCB0005B781A1C131CDB009B1A9B001A4A9B18CA
:10FCC0000822BA187C69101C191C1C221C23A0478E
:10FCD000031C3B61FB1C1B78022B16D07B681B7836
:10FCE000191C124A0B1C5B005B189B00D3180833CD
:10FCF0009B781A1C0E4B9200D3580822B9187A68C8
:10FD0000081C111C9847031C3B61BD4607B090BD01
:10FD100008260020F025002019350200B533020026
:10FD2000B9FB0100EC240020B0250020FC250020B8
:10FD3000F49B020080B582B000AF78603960002388
:10FD4000181CBD4602B080BD90B58DB000AF786084
:10FD500039600323BB622223FB181A221A803B68F6
:10FD60005B78191C504A0B1C5B005B189B00D31876
:10FD7000083318880823F9182223FA18BB6AFFF7FA
:10FD8000CBFC031C7B627B6A002B00D086E03B68C7
:10FD90005B781A1C131CDB009B189B0008331A1C91
:10FDA000424BD2182223FB181B881C1C0823FB186B
:10FDB000101C191C221C08F00FF8031E1DD13B68F3
:10FDC0005B78191C384A0B1C5B005B189B00D3182E
:10FDD00008339B781A1C022313405FD13B685B7881
:10FDE0001A1C131CDB009B189B00304A9B18181C24
:10FDF0000021242208F040F850E03B685B78191C91
:10FE00002A4A0B1CDB005B189B00D3185B68002B95
:10FE100002D0274BFB6201E0264BFB623B685B781C
:10FE2000191C224A0B1CDB005B189B00B96A995015
:10FE30003B685B78191C2223FB181B88181C1B4A83
:10FE40000B1CDB005B189B00D31858603B685B7889
:10FE50001A1C131CDB009B189B0008331A1C134B45
:10FE6000D2182223FB181B881C1C0823FB18101C0B
:10FE7000191C221C07F0F4FF3B685B781A1C131C4A
:10FE8000DB009B189B00094A9B187A68FC6A101CCF
:10FE9000191C24223823A047031C7B620023181C52
:10FEA000BD460DB090BDC046F0250020CC250020F9
:10FEB00019350200B533020080B582B000AF78601A
:10FEC00039600023181CBD4602B080BD80B584B0E7
:10FED00000AF786039607A683B68101C191CFFF726
:10FEE00033FF031CFB60FB68002B07D17A683B687B
:10FEF000101C191CFFF7E0FF031CFB60FB68181CBB
:10FF0000BD4604B080BDC04680B582B000AF786009
:10FF100039600023181CBD4602B080BD80B584B096
:10FF200000AF786039603B685B781A1C131CDB00FB
:10FF30009B189B00144A9A187B68101C191C2422D9
:10FF4000382303F09BFB031CFB60FB68002B16D1DE
:10FF50003B685B78191C0C4A0B1CDB005B189B0090
:10FF6000D3185B6801330AD13B685B78191C064AD9
:10FF70000B1CDB005B189B00D31800225A60FB6847
:10FF8000181CBD4604B080BDCC25002080B582B0D1
:10FF900000AF786039600023181CBD4602B080BDF8
:10FFA00080B584B000AF786039607A683B68101C17
:10FFB000191CFFF7B3FF031CFB60FB68002B07D184
:10FFC0007A683B68101C191CFFF7E0FF031CFB60FC
:10FFD000FB68181CBD4604B080BDC04680B582B029
:10FFE00000AF78600023181CBD4602B080BDC0463B
:10FFF00080B586B000AF786000233B610E23FB180C
:020000022000DC
:1000000000221A800023BB607B685B78191C564A6B
:100010000B1CDB005B189B00D3185B68002B40D0E7
:100020007B685B78191C514A0B1C5B005B189B00BA
:10003000D31808339B78DBB25BB2002B31DA7B68D4
:100040005B78191C494A0B1C5B005B189B00D3189A
:1000500008339B781A1C4023134022D17B685B78BD
:100060001A1C131CDB009B189B0008331A1C3E4B08
:10007000D3183B617B685B78191C3B4A0B1CDB0087
:100080005B189B00D3185A680E23FB181A807B68F4
:100090005B78191C344A0B1CDB005B189B009B58D7
:1000A000BB607B685B78191C304A0B1C5B005B18DB
:1000B0009B00D3180833188839690E23FB181A8857
:1000C000BB68FFF725FB031C7B617B690B2B15D1FC
:1000D0000123BB607B685B78191C244A0B1C5B0006
:1000E0005B189B00D3180833188839690E23FB1856
:1000F0001A88BB68FFF70CFB031C7B617B69002B34
:1001000001D01B4B7B61BB68012B27D17B685B78DF
:10011000191C164A0B1C5B005B189B00D318083394
:100120001B88144A181C0C21FFF7EEFA031C7B6194
:100130007B69002B12D07B690F4A93420CD07B69FC
:10014000082B09D07B690D4A934205D07B69112B9E
:1001500002D000237B6101E0054B7B617B69181CA9
:10016000BD4606B080BDC046CC250020F02500204D
:1001700041800000FFFF000002300000043000005A
:1001800080B582B000AF78600023181CBD4602B075
:1001900080BDC04680B584B000AF78607B68181C15
:1001A000FFF726FF031CFB60FB68002B05D17B6873
:1001B000181CFFF7E5FF031CFB60FB68181CBD461D
:1001C00004B080BD80B59CB000AFF8607A603B6041
:1001D0000B23FB180A1C1A70CE4B1B68002B00D196
:1001E00094E1BB6F742B00D990E16F23FB180122BF
:1001F0001A704823FB18181C00F0C2FA031C3B6657
:100200003B6EFB65FB6D002B06D0FA6DC249C34BFC
:10021000101C1A1C04F0AAFF4823FB1800221A70B5
:100220004C23FB1800221A703C23FB183A689A6092
:100230003C23FB18BA6F5A600023BB6621E0BB6EFB
:100240009AB2B7493423FB18081C111C1A1C03F07E
:1002500035F8031C3B663B6E002B0FD1FA68342344
:10026000FB18101C191C082207F0B6FD031E05D14F
:10027000BB6EDAB24823FB189A7005E0BB6E0133FF
:10028000BB66BB6E062BDAD94823FB189B78FF2B85
:1002900000D13BE10B23FB181B78032B0CD1BB6F68
:1002A000742B04D14C23FB1820221A70F3E04C234A
:1002B000FB1840221A70EEE03A689A4BD31A181CC9
:1002C0001C2107F0CBFC031CBB65BB6D062B24D89F
:1002D0004C23FB183C22BA185A607B68002B11D1C2
:1002E0004823FB189B78181CFFF72EFA031C1A1CD6
:1002F00001235340DBB2002B04D06F23FB180022F4
:100300001A70C8E04823FB189B78181CFFF708FAFE
:100310004C23FB1820221A70BDE03A68824BD31A96
:10032000181C1C2107F09AFC031CBB65BB6D002B3D
:1003300036D14C23FB183C22BA185A604C23FB18C8
:1003400020221A70BB6DDAB24823FB185A701423AE
:10035000FB1800221A611423FB18744A5A61BA6D03
:10036000131CDB009B1A9B006F4A9A181423FB187E
:100370001A604823FB189B781A1C131CDB009B1A7D
:100380009B00684A9A181423FB185A603C23FB18F8
:100390001422BA189A603C23FB1820225A607AE093
:1003A0003A68634BD31A181C242107F057FC031C2E
:1003B000BB65BB6D002B29D14C23FB1830221A7072
:1003C000BB6DDAB24823FB185A704823FB18012290
:1003D000DA705849BA6D131C5B009B189B00CB1850
:1003E00008339B781A1C0223134054D14823FB186E
:1003F0005B781A1C131CDB009B189B004C4A9B1853
:10040000181C0021242207F037FD44E06F23FB185D
:1004100000221A704C23FB1840221A703A68464B8F
:100420009A4208D10B23FB1803221A706F23FB1882
:1004300001221A702FE04823FB189B781A1C3F4BAF
:100440009200D2583B689A4225D16F23FB180122B3
:100450001A704C23FB183C22BA185A6000237B66A2
:1004600016E04823FB18997832487A6E131C5B001B
:100470009B189B00C3180833DB78994205D17B6E2B
:10048000DAB24823FB185A7005E07B6E01337B66B5
:100490007B6E002BE5D06F23FB181B78002B35D02B
:1004A0000B23FB181B78032B09D14C23FB181B785B
:1004B00003221343DAB24C23FB181A7017E00B2304
:1004C000FB181B78022B09D14C23FB181B78012247
:1004D0001343DAB24C23FB181A7008E04C23FB18C4
:1004E0001B7802221343DAB24C23FB181A704C23F8
:1004F000FB183C22BA185A604823F9184C23FA1802
:100500007B68081C111C1A1CFFF700FBBD461CB0C1
:1005100080BDC046FC250020A1050000289C0200EB
:1005200008260020EC240020B025002014260020FE
:10053000CC250020F0250020249C0200D02400209F
:1005400080B588B000AF78607B68002B01D1504B3C
:1005500099E00023BB6106E0BB69181CFFF70AF9AC
:10056000BB690133BB61BB69002BF5D00023BB61C4
:1005700006E0BB69181CFFF723F9BB690133BB61B7
:10058000BB69002BF5D0434B181C0021242207F037
:1005900073FC0023BB610BE0BB69181CFFF744F937
:1005A0003D4ABB69D318FF221A70BB690133BB6196
:1005B000BB69062BF0D91023FB1874229A801023F4
:1005C000FB180722DA801023FB18344A1A60102324
:1005D000FA18334B101C191C02F0AEFD031CFB6112
:1005E000FB69002B4ED12F4B01221A707B681B78C0
:1005F00001225340DBB2002B35D00023BB612DE03C
:10060000BB699AB226490823FB18081C111C1A1C46
:1006100002F054FE031CFB61FB69002B17D1BA6981
:10062000131CDB009B1A9B001F4A9A180823FB1817
:10063000101C191C1C22002303F020F8031CFB6172
:10064000FB69002B07D0174B00221A700AE0154BEC
:1006500000221A7006E0BB690133BB61BB69062B3F
:10066000CED90FE00EE01023FB189B881022BA1899
:10067000D28853439BB20A4A101C191C03F0C4F8D9
:10068000031CFB61FB69181CBD4608B080BDC04659
:100690000E800000CC2500202C260020C501020081
:1006A000082600202B260020EC24002090B585B0E1
:1006B00000AF786039602D4B1B7801225340DBB2CC
:1006C000002B01D02A4B4DE07B68002B01D1294B38
:1006D00048E03B68002B01D1264B43E03B681B6898
:1006E000002B01D1234B3DE0234B1B68002B36D15F
:1006F0003B681A68204B1A601F4A3B680521043288
:100700005B180524101C191C221C07F0A9FB3B6870
:100710001A79194B9A72184B1A7A01218A431A7264
:10072000154B1A7A02210A431A72134B1A7A0421C2
:100730008A431A72104BDA7901210A43DA710E4B9F
:10074000DA7902210A43DA710B4BDA7904218A4300
:10075000DA717B6800221A700023FB6001E0074B0E
:10076000FB60FB68181CBD4605B090BD2B26002021
:10077000088000000E800000FC250020048000009E
:1007800080B582B000AF78607B68002B01D1094B47
:100790000CE07B68FF221A707B68FF225A707B682E
:1007A000FF229A707B68FF22DA700023181CBD4676
:1007B00002B080BD0E80000080B586B000AF7860CA
:1007C0007B689B789AB218490C23FB18081C111CF3
:1007D0001A1C02F073FD031C7B617B69002B20D186
:1007E0007B685B781A1C131CDB009B1A9B000F4A6A
:1007F0009A180C23FB18101C191C1C221C2302F035
:100800003DFF031C7B610A4B9B7A1A1C094B92002B
:10081000D3580C22B9187A68081C111C9847031C7D
:100820007B61BD4606B080BD08260020B0250020B3
:10083000FC250020049C020090B597B000AF7860C2
:10084000FF23BB635323FB1800221A700023BB64F1
:10085000E14B1B7801225340DBB2002B01D000F0AA
:1008600080FCDE4B1B68002B01D100F07AFC3423A6
:10087000FB18181CFFF784FF031C7B657B6D7B64F2
:100880007B6C002B06D07A6CD549D64B101C1A1CF9
:1008900004F06CFC0023FB6400237B657B681A1D5D
:1008A0002823FB185A602823FB182C221A81342392
:1008B000FB18FF229A703423FB1800221A700023C1
:1008C000FB637B681B88102B1ED07B689A883C23B7
:1008D000FB18101C02211A1CFEF7F4FF031C7B6599
:1008E0007B6D002B10D1FA6BBF49131C5B009B186A
:1008F0009B00CB180833DA783423FB189A70FB6B13
:10090000DAB23423FB185A707B681B88103B422BE9
:1009100001D900F00CFC9A00B44BD3181B689F4619
:100920003C23FB18181CFFF705F9031C7B657B6D46
:10093000002B00D08BE05323FB1801221A702823D0
:10094000FB1811221A70FB6BDAB23423FB185A70B1
:10095000FA6B7B689888A449131C5B009B189B006A
:10096000CB180833021C1A80FA6B9F49131C5B00DA
:100970009B189B00CB18083302229A70FA6B9A4995
:10098000131C5B009B189B007A68CB180832116817
:1009900019609188998092799A717B68DB7D012238
:1009A0001340DBB2002B15D07B68DB7D1B065B0E92
:1009B000DBB21A1C8E4B9B5CFF2B18D07B68DB7D57
:1009C0001B065B0EDBB21A1C894B9B5CBB630023CE
:1009D0007B650CE07B6808331A1C3823FB18854CB8
:1009E000101C191C221CFFF74DF8031C7B657B6D46
:1009F000002B2CD1FA6BBB6BD8B27B49131C5B006C
:100A00009B189B00CB180833021CDA70FA6BF96B49
:100A100075480B1C5B005B189B00C31808339B7860
:100A200008210B43D8B27049131C5B009B189B0034
:100A3000CB180833021C9A70BB6BDAB23423FB1854
:100A40009A703423FB18181CFFF7B6FE70E36FE3AF
:100A5000FA6BF96B64480B1C5B005B189B00C318B6
:100A600008339B7802218B43D8B25F49131C5B008B
:100A70009B189B00CB180833021C9A70FA6B5A49DA
:100A8000131C5B009B189B00CB1808339B781A1C27
:100A90000823134013D0FA6B5349131C5B009B18B7
:100AA0009B00CB1808339B78DBB25BB2002B15DAC6
:100AB0003423FB18181C0021FFF78EF80EE03423B6
:100AC000FB189B78FF2B09D03423FB189B78181C4C
