:020000040001F9
:10C00000A851002005C501000DC501000FC50100A4
:10C0100011C5010013C5010015C501000000000095
:10C0200000000000000000000000000017C5010033
:10C0300019C50100000000001BC501001DC501005D
:10C040001FC501001FC50100F9D3010061D1010026
:10C050001FC501001FC5010001CB01001FC5010064
:10C060001FC501001FC501001FC501001FC501003C
:10C070001FC501001FC501001FC501001FC501002C
:10C080001FC5010029CD01001FC501001FC501000A
:10C0900075D101001FC501007DD101001FC5010040
:10C0A0001FC501001FC501001FC501001FC50100FC
:10C0B0001FC501001FC501000000000000000000B6
:10C0C0001FC501001FC501001FC501001FC50100DC
:10C0D0001FC501001FC501001FC5010000000000B1
:10C0E0000000000000000000000000000000000050
:10C0F0000000000000000000000000000000000040
:10C10000000000000000000000000000000000002F
:10C11000000000000000000000000000000000001F
:10C40000DFF80CD000F0DCFA00480047F12702000A
:10C41000A8510020401E00BF00BF00BF00BF00BFEA
:10C4200000BF00BF00BF00BF00BF00BF00BF00BF14
:10C4300000BF00BF00BF00BF00BF00BF00BF00BF04
:10C4400000BF00BF00BF00BF00BF00BF00BF00BFF4
:10C4500000BF00BF00BF00BF00BF00BF00BF00BFE4
:10C4600000BF00BF00BF00BF00BF00BF00BF00BFD4
:10C4700000BF00BF00BF00BF00BF00BF00BF00BFC4
:10C4800000BF00BF00BFC5D170470000401E00BF05
:10C4900000BF00BF00BF00BF00BF00BF00BF00BFA4
:10C4A00000BF00BF00BF00BF00BF00BF00BF00BF94
:10C4B00000BF00BF00BF00BF00BF00BF00BF00BF84
:10C4C00000BF00BF00BF00BF00BF00BF00BF00BF74
:10C4D00000BF00BF00BF00BF00BF00BF00BF00BF64
:10C4E00000BF00BF00BF00BF00BF00BF00BF00BF54
:10C4F00000BF00BF00BF00BF00BF00BF00BFC5D16D
:10C50000704700000648804706480047FEE7FEE700
:10C51000FEE7FEE7FEE7FEE7FEE7FEE7FEE7FEE7F3
:10C52000C5D1010001C4010040EA01039B0703D00B
:10C5300009E008C9121F08C0042AFAD203E011F862
:10C54000013B00F8013B521EF9D27047D2B201E024
:10C5500000F8012B491EFBD270470022F6E710B508
:10C5600013460A4604461946FFF7F0FF204610BD61
:10C5700030B504460020034600E05B1C934203D222
:10C58000E05CCD5C401BF8D030BD034611F8012BB8
:10C5900000F8012B002AF9D11846704700F000423C
:10C5A00030F000400AD0C10D01F56071C0F31600F3
:10C5B00042EA0151C208400711437047002001467A
:10C5C000704730B50B46014600202022012409E0C7
:10C5D00021FA02F59D4205D303FA02F5491B04FA3C
:10C5E00002F52844151EA2F10102F1DC30BD2DE94F
:10C5F000F05F0546002092469B46884606468146E7
:10C6000040241BE0284641464746224600F0F9F9FF
:10C6100053465A46C01A914110D311461846224635
:10C6200000F0E0F92D1A67EB01084F462246012081
:10C63000002100F0D7F917EB00094E41201EA4F1AC
:10C640000104DFDC484631462A464346BDE8F09FF8
:10C650002DE9FE4F804681EA0300C00F0C46009092
:10C6600021F0004123F00045B8EB0200A94105D2BA
:10C670004046214690461C460B46024623F00040A9
:10C68000104347D0270DC7F30A00C3F30A510290A5
:10C69000401A019040286BDAC3F3130040F4801B6A
:10C6A0000098924620B10023D2EB030A63EB0B0BF8
:10C6B00001985946C0F14002504600F093F90646F1
:10C6C0000D4650465946019A00F0ABF910EB0800B0
:10C6D0006141002487EA115284EAE7731A4340D08B
:10C6E000009A62B3019A012A4FEA075215DC001B37
:10C6F00061EB02014FF0004202EA0752CDE900422D
:10C70000001C41F5801132462B4600F0ABF903B016
:10C71000BDE8F08F40462146F9E7001B61EB0201BE
:10C72000001C41F5801300185B412018A2F500178A
:10C7300047EB030140EAD570B6196D4111E06D0871
:10C740004FEA360645EAC0754FEA0752001B61EB17
:10C750000201001C41F5801149084FEA3000001920
:10C76000514132462B4603B0BDE8F04F00F06BB9A3
:10C770000098012240000023D0EB020263EBE0733B
:10C78000009821464FEAE074B8EB000061EB040129
:10C79000E9E783F000435BE781F0004158E72DE9CA
:10C7A000FE4F81EA030404F0004421F000410094AC
:10C7B0004FF0000B23F0004350EA01045ED052EA30
:10C7C00003045BD0C3F30A54C1F30A552C44A4F20A
:10C7D000F3340194A0FB0254C1F3130141F480111E
:10C7E000C3F3130343F4801301FB024400FB034E25
:10C7F000840A970A44EA815447EA8357A4FB0768EE
:10C8000002958D0A05FB07854FEA932C04FB0C5417
:10C810002705029D4FEA065847EA1637B5EB08058B
:10C820006EEB070C870E920E47EA811742EA8312DD
:10C83000A7FB0201B6EB0B0164EB00042B0D43EAEE
:10C840000C335E1844EB1C50DA465146E7FB0201FC
:10C85000C5F313044FEA0B3343EA14534FEA04328F
:10C86000019C43EA0603A4F10C040294009CCDE968
:10C8700000B400F0F7F803B0BDE8F08F00200146E7
:10C88000F9E72DE9F04D81EA030404F0004B21F0B3
:10C89000004514464FF0000A23F0004150EA05021B
:10C8A00020D054EA01021DD0C5F30A570246C5F351
:10C8B0001303C1F31300C1F30A5640F4801543F487
:10C8C0008013A7EB0608101BD64608F2FD3873EB61
:10C8D000050002D308F1010801E092185B41B8F1AC
:10C8E000000F03DA00200146BDE8F08D00204FF470
:10C8F0008011064684460EE0171B73EB050705D32F
:10C90000121B63EB050306434CEA010C49084FEA8E
:10C91000300092185B4150EA0107EDD152EA030062
:10C9200012D082EA040083EA0501084305D0101BF7
:10C93000AB4106D20122002306E000224FF0004363
:10C9400002E06FF0010253101AEB06004CEB0851A5
:10C9500010EB0A0041EB0B01BDE8F04D00F073B89D
:10C96000C1F30A52C1F3130140F2FF3341F48011C5
:10C970009A4202DA00200146704740F233439A425D
:10C98000A2F2334202DC524200F03BB800F02AB877
:10C9900030B5041E71F1000404DB4FF00044404246
:10C9A00064EB0101141E73F1000405DB1C464FF01B
:10C9B0000043524263EB0403994208BF904230BDEA
:10C9C000064C074D06E0E06840F0010394E80700DC
:10C9D00098471034AC42F6D3FFF716FD9C54020082
:10C9E000BC540200202A04DB203A00FA02F10020A5
:10C9F00070479140C2F1200320FA03F3194390409D
:10CA00007047202A04DB203A21FA02F00021704707
:10CA100021FA02F3D040C2F12002914008431946A6
:10CA20007047202A06DBCB17203A41FA02F043EA8E
:10CA3000E07306E041FA02F3D040C2F120029140D7
:10CA400008431946704710B5141E73F1000408DA44
:10CA5000401C41F1000192185B411A4301D120F0C2
:10CA6000010010BD2DE9F04D92469B4611B1B1FA7F
:10CA700081F202E0B0FA80F220329046FFF7B2FF76
:10CA800004460F4640EA0A0041EA0B0153465A4663
:10CA9000084313D0114653EA010019D0C8F14002EF
:10CAA0005046FFF7AEFF05460E46504659464246F1
:10CAB000FFF798FF084305D0012004E020463946DF
:10CAC000BDE8F08D0020054346EAE0762C4337436D
:10CAD0000A986305E40AA0EB08000022FD0A44EA74
:10CAE00047540A3002D500200146E9E70105101934
:10CAF0006941DDE9084500196941BDE8F04DA2E74B
:10CB00002DE9F04F87B00027BA464FF480700690A9
:10CB10000125002412E0069806F0D8F940B100BFC4
:10CB200060480068284018B1069806F0C1F92F4304
:10CB30006D000698001D80B20690641C082CEAD394
:10CB40004FF4BE7006F0C2F948B14FF4BE7006F063
:10CB5000AFF947F0004700BF534800688246F8B27B
:10CB6000F8B1012500241AE005EA0700A8B100BFCA
:10CB70004E4850F82400C0F30420064600BF4B483E
:10CB800050F82400C0F301408046204603F0AEFC7C
:10CB9000814641463046C84700BF6D00641C082CE2
:10CBA000E2D307F00040002879D04FF0000B0020BE
:10CBB0000590401E049000BF4FF0000B002457E08A
:10CBC0003B48005D0390039820F0C00638480057AA
:10CBD000401C00284BD00120B04004990840002898
:10CBE00045D003984FEA9019304603F0C7FC8046C1
:10CBF00003F07CFC0290029810B9B9F1030F35D113
:10CC0000012000FA06F5B9F1030F02D10598284377
:10CC1000059000BF274850F82600C0F3014800BF28
:10CC200005EA0A0010B1B8F1020F05D005EA0A00C2
:10CC3000D8B9B8F1030F18D1B9F1030F0FD1B8F17A
:10CC4000020F01D1032000E002200190304601993B
:10CC500006F006F90BF1010000F0FF0B00BF02988F
:10CC600018B149463046029A904700BF00BF641C85
:10CC7000042CA5D3BBF1000F0DD000BF0A490968F1
:10CC80000846504503D14FF0000B03E007E0824611
:10CC90000599049100BFBBF1000F8DD100BF07B013
:10CCA000BDE8F08F0463004010050050106500409F
:10CCB000742700200007005000F01F02012191405E
:10CCC000024A430942F823107047000080E200E066
:10CCD00000F01F02012191404209920002F1E0227E
:10CCE000C2F800117047000000F01F0201219140BE
:10CCF000024A430942F823107047000000E200E0B6
:10CD000010B5002807DA4A07140E054A00F00F0391
:10CD10001B1FD45403E04A07130E024A135410BDDC
:10CD200018ED00E000E400E010B5002009490860BB
:10CD300000210948C0F84411C0F84811C0F84C114E
:10CD400000200549C1F8000102493C39086007F09C
:10CD5000FBFC10BD40110140001001402DE9F047DF
:10CD600004460E4617469846DDF8209000BF1F483F
:10CD7000007808B900F04CFB00BF1C484069A04295
:10CD80002ED900BF0CB304EB44011848483040F8DA
:10CD9000316004EB440100EBC100476004EB440147
:10CDA0001248483000EBC100C0F80880002104EBB5
:10CDB00044020E48483000EBC200016104EB44021B
:10CDC0000A48483000EBC200C16004EB4401074848
:10CDD000483000EBC100C0F8149000BF002501E00E
:10CDE0004FF0FF352846BDE8F087000024310020D1
:10CDF0002DE9F04704460E4617469846DDF8209088
:10CE000000BF1F48007808B900F002FB00BF1C48B3
:10CE10000069A0422ED900BF0CB304EB44011848AE
:10CE2000183040F8316004EB440100EBC10047606A
:10CE300004EB44011248183000EBC100C0F8088030
:10CE4000002104EB44020E48183000EBC2000161DF
:10CE500004EB44020A48183000EBC200C16004EB46
:10CE600044010748183000EBC100C0F8149000BF1F
:10CE7000002501E04FF0FF352846BDE8F0870000AF
:10CE8000243100202DE9F04104460D46164600BF2E
:10CE90000848007808B900F0BBFA00BF00BF32466E
:10CEA0002946204600F008F8074600BF3846BDE88E
:10CEB000F0810000243100202DE9F0470746884624
:10CEC0001646C24607EB47011B4800EBC109D9F8DB
:10CED000140020B1012811D0022826D11EE04846B6
:10CEE00000F0CEFA0546B54201D2002405E03446F2
:10CEF00032465146484600F018FC18E0484600F01B
:10CF0000BFFA0546B54201D2284600E03046044645
:10CF100022465146484600F008FC08E03246514699
:10CF2000484600F0C9FB044601E0002400BF00BFF2
:10CF30002046BDE8F08700003C3100200FB438B532
:10CF4000044606A800906A462046059900F003F8BA
:10CF500038BC5DF814FB2DE9F04F99B082460D46C0
:10CF6000144603A814904020159000201690CDF888
:10CF700060A0179000BF2E786D1C06B9DDE0252E4D
:10CF800079D100274FF0010900BF2E78232E12D04F
:10CF90002B2E0CD02D2E02D0302E10D103E047F0D6
:10CFA00001076D1C0EE047F002076D1C0AE047F018
:10CFB00004076D1C06E047F008076D1C02E04FF007
:10CFC000000900BF00BFB9F1000FDED14FF000082B
:10CFD00000BF2E78302E01DB392E00DD07E06D1CFE
:10CFE000A6F1300008EB880100EB4108F1E700BF33
:10CFF000002013902E782E2E12D16D1C00BF2E789B
:10D00000302E01DB392E00DD09E06D1CA6F1300069
:10D01000139901EB810100EB41001390EFE700BF92
:10D020002E7800BF6C2E01D0682E02D12E786D1C98
:10D0300000E000E0F6E700BF702E5DD008DC252E92
:10D040006AD0582E35D0632E09D0642E69D113E0F2
:10D05000732E3CD0752E1DD0782E62D128E0216829
:10D06000081D2060D1F8009009F0FF0B594614A864
:10D0700000F000FB56E058E02168081D2060D1F860
:10D080000090CDE900870A22494614A8139B00F0BE
:10D0900005FA47E02168081D2060D1F80090CDE92D
:10D0A00000870A22494614A8139B00F06DFA39E064
:10D0B00000BF2168081D2060D1F80090CDE90087ED
:10D0C0001022494614A8139B00F05EFA2AE021685A
:10D0D000081D2060D1F800B000BF9BF800600BF184
:10D0E000010B06B906E0314614A800F0C3FA179800
:10D0F0000028F2DA00BF15E02168081D2060D1F891
:10D100000090002008210B461022CDE9001049466E
:10D1100014A800F039FA05E0252114A800F0AAFAB5
:10D1200000E000BF00BF6D1C03E0314614A800F012
:10D13000A1FA17980028BFF61EAF00BF1798002865
:10D140000ADD169820B103A95046169AFFF79AFEF9
:10D15000DDE9161008441790179819B0BDE8F08F54
:10D1600010B50249024805F011F910BD0024002055
:10D170000030004010B507F053F910BD70B50B48F2
:10D18000006880B1094800688047044600BF254612
:10D190003DB100BF064A4FF4B371284601F064F96F
:10D1A00000BF00BF01E005F099F870BD74210020B8
:10D1B0004454020001480249086070470090D003BF
:10D1C0008C21002010B504F0E1FC10B17D487E49AF
:10D1D000486704F0F3FC28B17C480068C0F3423093
:10D1E0007B49086004F014FD28B17A48006820F0FB
:10D1F00080707849086004F023FD48B1002076492A
:10D2000008604FF08041C1F810017149091F0860A2
:10D2100004F040FD18B103206D496431086004F04A
:10D2200051FD68B105206D49086001206B497831D6
:10D23000086000206949083108603F20091F086024
:10D2400004F058FD002855D065480068654908601D
:10D250006348001D0068091D0860614808300068C7
:10D26000091D08605E480C300068091D08605C48B4
:10D2700010300068091D0860594814300068091D05
:10D2800008605748183000685649203108605448F3
:10D290001C300068091D0860514820300068091DD5
:10D2A00008604F4824300068091D08604C48283049
:10D2B0000068091D08604A482C300068091D086094
:10D2C00047483030006847494031086044483430AE
:10D2D0000068091D0860424838300068091D086070
:10D2E0003F483C300068091D08603D4840300068F8
:10D2F000091D086037487438006840F470003549EB
:10D300007439086000BF00BF00BFBFF34F8F00BF7C
:10D3100000BF00BF00BF00BF00BFBFF36F8F00BFE3
:10D3200000BF00BF3048006800F0004030B92E4810
:10D33000001D006800F00040002840D001202B496B
:10D34000086000BF2A4800680028FBD01520264945
:10D35000086000BF264800680028FBD0152122483D
:10D36000001D016000BF224800680028FBD000209B
:10D370001E49086000BF1E4800680028FBD000BF9F
:10D3800000BF00BF00BF00BFBFF34F8F00BF00BF93
:10D3900000BF1048F038006800F4E0601549084309
:10D3A000001D0C49F039086000BF00BF00BFBFF38B
:10D3B0004F8F00BF00BF00BF00BF00BFFDE7FFF7FA
:10D3C000F9FE10BD0DF0ADBA00C0074044020010D8
:10D3D0003C050040FCED00E00C0100401056004010
:10D3E0000404001020C500400012001004E50140B4
:10D3F00000E401400000FA0510B50448007F10B1B8
:10D4000007F0A8FD01E007F0F5FC10BD7C27002027
:10D4100010B5124C02202061606111A0A061134977
:10D42000E1614FF4806121620021A1626162E162E9
:10D430000BA0A0640E49E164102121650021A165C3
:10D440006165E1650BA1E01DFFF79FF80AA1204689
:10D45000FFF79BF82020A07110BD000024310020B0
:10D460005465726D696E616C00000000142D00201F
:10D470001431002052545400534547474552000090
:10D4800010B501460A69CB689A4204D88C68641EBC
:10D49000E41AA01801E0D41A601E10BD2DE9FC5F4B
:10D4A00006460F4692469846DDE90C45002F01DA04
:10D4B000784200E0384683464FF0010903E09BFBC9
:10D4C000FAFB09F10109D345F9DAC84500D9C1468B
:10D4D00034B1002F03DB05F00400042800D1641EE2
:10D4E00005F0020010B1B8F1000F11D005F00100F5
:10D4F00070B96CB108E0641E2021304600F0BAF823
:10D50000F068002800DA02E00CB1A145F3D300BFB7
:10D51000F068002836DB002F05DA7F422D213046E7
:10D5200000F0A8F807E005F00400042803D12B213F
:10D53000304600F09FF8F068002823DB05F0020079
:10D54000022814D105F0010088B9B8F1000F0ED1FE
:10D550006CB108E0641E3021304600F08BF8F068B2
:10D56000002800DA02E00CB1A145F3D300BFF06857
:10D57000002807DB4346524639463046CDE9004590
:10D5800000F002F8BDE8FC9F2DE9FC5F804689466B
:10D5900015461E460C9CCDF804900127BB4605E0BD
:10D5A0000198B0FBF5F001900BF1010B0198A84236
:10D5B000F6D25E4500D9B3460D9800F00100D0B90F
:10D5C000CCB10D9800F00200022803D116B930202A
:10D5D000009001E02020009009E0641E4046009980
:10D5E00000F048F8D8F80C00002800DA02E00CB18E
:10D5F000A345F2D300BFD8F80C00002835DB09E0C2
:10D60000012E01D9761E04E0B9FBF7FAAA4500D233
:10D6100001E06F43F4E700BF00BFB9FBF7FA0AFB74
:10D620001799134810F80A10404600F023F8D8F86C
:10D630000C00002800DA03E0B7FBF5F7002FECD16F
:10D6400000BF0D9800F0010078B174B109E0641ECC
:10D650002021404600F00EF8D8F80C00002800DA2F
:10D6600002E00CB1A345F2D300BFBDE8FC9F00006F
:10D67000E853020070B504460E46A568681C616850
:10D68000814206D320684655681CA060E068401CB3
:10D69000E060D4E9011088420DD1A26821682069B8
:10D6A000FFF7F0FBA168884203D04FF0FF30E06045
:10D6B00001E00020A06070BD2DE9F04704468946D6
:10D6C00017464FF0000AE56800BFD4F81080A8455F
:10D6D00003D9A8EB0500461E04E0A5EB0800401C9A
:10D6E000A1680E1AA068401BB04201D9304601E083
:10D6F000A068401B0646BE4201D2304600E03846D4
:10D7000006466168481932464946FEF70DFFB244A5
:10D71000B144BF1B3544A068A84200D10025E56094
:10D72000002FD2D15046BDE8F0872DE9F0470446DE
:10D7300089461546E668A068871BAF4208D961682C
:10D7400088192A464946FEF7EFFE7019E06010E09E
:10D75000B8466168881942464946FEF7E5FEA5EBE2
:10D76000070809EB070142466068FEF7DDFEC4F8D2
:10D770000C80BDE8F08700000FB4084B10B504A979
:10D7800002AA039800F0CEF8044602A9002000F097
:10D7900060FC204610BC5DF814FB000053E0010063
:10D7A00002E008C8121F08C1002AFAD1704770476A
:10D7B000002001E001C1121F002AFBD170470000C8
:10D7C0002DE9FF5FDDE90220010DDDF838B00243ED
:10D7D00018D044F61050A1F2FF3141430D140F98B8
:10D7E000012820D0A5EB0B00401C5FEA000A4FF097
:10D7F0000004474EDFF81C91A046504616D5CAF1EA
:10D80000000728E00F98012443A2012808D0002136
:10D8100000980F9BC0E90021C0E90243BDE8FF9FCB
:10D820006FEA0B01F4E7CBF10000DEE7074612E0F8
:10D83000F80707D02246334640464946FEF7AFFF79
:10D84000804689462246334610461946FEF7A7FF12
:10D8500004460E467F10002FEAD1DDE90201BAF13D
:10D86000000F42464B4602DAFEF799FF01E0FFF750
:10D8700008F804460E460022284BFFF789F803D823
:10D880004FF0FF30014607E00022254B204631468D
:10D89000FEF7DEFEFFF764F8102409E0002C0ADB37
:10D8A0000A220023FEF7A3FE019B30321A55641EA4
:10D8B00050EA0102F2D1641C019AC4F1110314442C
:10D8C0000F9A012A03D0012208430DD10AE0084330
:10D8D00004D000204FF0110B0F9080E7A3EB0B0555
:10D8E0006D1E0DE05B4504DD4FF0000205F1010502
:10D8F00004E003DA4FF00002A5F10105002AECD0A4
:10D9000000980F99C0E90231C0E9004586E70000A0
:10D91000000024400000F03F300000000000F04311
:10D920000000E03F2DE9FF4F95B09B468946064633
:10D9300000250FE2252877D100242746F84A012147
:10D94000059400E0044316F8013F203B01FA03F080
:10D950001042F7D130782A2811D06FF02F03307899
:10D96000A0F13002092A16D8059A44F0020402EB0D
:10D97000820203EB42021044761C0590EFE759F84F
:10D98000042B0592002A03DA504244F40054059017
:10D9900044F00204761C30782E2816D116F8010FB8
:10D9A00044F004042A280DD06FF02F023078A0F143
:10D9B0003003092B09D807EB870302EB4303C71891
:10D9C000761CF3E759F8047B761C30786C280FD06E
:10D9D00006DC4C2817D068280DD06A2814D104E042
:10D9E000742810D07A280FD10DE044F400140AE016
:10D9F00044F4801401E044F440147278824202D16D
:10DA000004F58014761C761C307866280BD013DC65
:10DA1000582877D009DC002875D04528F6D046284C
:10DA2000F4D047281AD19DE118E0632835D0642846
:10DA300079D0652812D195E1702873D008DC672869
:10DA4000F1D069286FD06E280DD06F2806D1B5E0CF
:10DA500073282CD0752875D0782874D05A46179919
:10DA600090476D1C75E1C4F30250022809D00328C9
:10DA70000DD0D9F8001004280DD00D6009F104096B
:10DA800067E1D9F80010EA17C1E90052F6E7D9F8C2
:10DA900000100D80F2E70D70F0E719F8041B8DF807
:10DAA000001000208DF80100EA46012003E059F83B
:10DAB00004AB4FF0FF3061074FF0000102D40DE0DE
:10DAC00008F101018846B9420FDA8045F8DB1AF8FF
:10DAD00008100029F4D108E008F1010188468142CC
:10DAE000FADB1AF808100029F6D105985B46A0EB7E
:10DAF000080721463846179A00F094FA284400EBAC
:10DB0000080507E04DE029E10DE01AF8010B5A463F
:10DB100017999047B8F10108F7D25B46214638467D
:10DB2000179A13E142E00A220092C4F302524FF026
:10DB3000000A022A08D059F804CB032A4FEAEC71F4
:10DB40000AD00DE029E02AE009F1070121F00702DF
:10DB5000F2E802C1914609E00FFA8CFC4FEAEC7141
:10DB6000042A03D14FFA8CFC4FEAEC71002907DA42
:10DB70000A460021DCF1000C61EB02012D2202E0DB
:10DB8000220504D52B228DF80420012203E0E207B0
:10DB900001D02022F7E7904659E00A2102E0102246
:10DBA0000DE010214FF0000A00910BE010224FF021
:10DBB000000A44F004040827009203E008224FF012
:10DBC000000A0092C4F30252022A05D059F804CB8D
:10DBD0000021032A08D009E009F1070121F007021A
:10DBE000F2E802C1914605E01FFA8CFC042A01D13B
:10DBF0000CF0FF0C4FF00008220728D5702806D043
:10DC0000009B83F0100353EA0A0305D00EE0402284
:10DC10008DF80420012208E05CEA010206D03022DF
:10DC20008DF804208DF8050002229046009B83F0B9
:10DC3000080353EA0A030AD15CEA010201D1620730
:10DC400005D530228DF804204FF001087F1E58289A
:10DC500004D034A003900EA802900DE036A0F9E79E
:10DC600053466046009AFEF7C2FC84460398825CE5
:10DC70000298401E029002705CEA0100F0D1029806
:10DC800006A9081A00F1200A600702D524F480349E
:10DC900000E00127574502DDA7EB0A0000E0002065
:10DCA00000EB0A01009005984144401A0590E003FA
:10DCB00006D45B462146179A059800F0B3F905444F
:10DCC000002706E001A85A46C05D179990476D1CD1
:10DCD0007F1C4745F6DBE0030CD55B462146179ACF
:10DCE000059800F09FF9054404E030205A46179942
:10DCF00090476D1C0099481E00900029F5DC08E053
:10DD0000029802995A460078491C02911799904747
:10DD10006D1CBAF10001AAF1010AF1DC65E1000015
:10DD200009280100303132333435363738396162F1
:10DD300063646566000000003031323334353637B5
:10DD400038394142434445460000000000F058F98C
:10DD50000544761C307800287FF4ECAD19B02846D5
:10DD6000BDE8F08F620700D4062709F1070222F010
:10DD7000070CFCE80223E14603F000485FEA080CC8
:10DD800002D00FF2702C0DE05FEA045C02D50FF2B6
:10DD9000682C07E05FEAC47C02D00FF2602C01E03F
:10DDA000AFF2700C4FF0FF3823F00043CDF850C0B5
:10DDB00065280CD006DC452809D046281DD0472808
:10DDC0003DD13DE0662818D067287ED138E000219B
:10DDD000112F01DB112000E0781CCDE9000106A91C
:10DDE0000EA8FFF7EDFCDDE90F010E9A039100216B
:10DDF000009207F1010A04914DE04FF000400097B6
:10DE0000CDE9011006A90EA8FFF7DAFCDDE90F0243
:10DE100003920E9B11990022DDF80CA0009304924E
:10DE200011B9791C00EB010AB7EB0A0004D4C0F168
:10DE3000FF3007F1010A0490AAEB0700019044E0CB
:10DE4000012F00DA01270021112F01DD112000E050
:10DE50003846CDE9000106A90EA8FFF7B1FCDDE9BF
:10DE60000F010E9A0391002104910092BA462107F6
:10DE70000CD40399514500DA8A46BAF1010F05DD49
:10DE8000009AAAF10101515C302908D0B84202DAA7
:10DE900010F1040F06DA0121CDE9011015E0AAF115
:10DEA0000101E9E7002805DC049901440491AAEB8B
:10DEB000000102E0411C514500DD8A460499401AE8
:10DEC000401C01904FF000400290200704D40198BC
:10DED000504501DBCDF8048000208DF84F000298FA
:10DEE0000DF14F07B0F1004F25D02B200E90029876
:10DEF0004FF0020800280CDA404202902D200E90CC
:10DF000007E00A210298FEF75CFB3031029007F827
:10DF1000011DB8F10001A8F10108F2DC0298002807
:10DF2000EFD1791E0E980870307800F0200040F094
:10DF3000450007F8020D12A8C01B00F1070814984D
:10DF4000007800B1012000EB0A01019801EBE071BB
:10DF500005984144401A401E0590E00306D45B46F4
:10DF60002146179A059800F05DF80544149800784A
:10DF700018B15A46179990476D1CE00324D55B46AB
:10DF80002146179A059800F04DF805441CE00498C6
:10DF9000002807DBDDE90301884203DD0098405CCF
:10DFA000179901E0179930205A469047049805F1D7
:10DFB0000105401C04900198401E019004D12E20C0
:10DFC0005A46179990476D1CBAF10001AAF1010A4F
:10DFD000DDDC05E017F8010B5A46179990476D1CD8
:10DFE000B8F10001A8F10108F4DC5B462146179A5C
:10DFF0000598ABE62D0000002B000000200000007B
:10E000002DE9F041044600251E461746880404D435
:10E0100005E039462020B0476D1C641EF9D528461E
:10E02000BDE8F0812DE9F041044600251E469046EA
:10E03000C80301D5302700E02027880404D505E077
:10E0400041463846B0476D1C641EF9D52846BDE8E8
:10E05000F0810A68531C0B60107070472DE9FC4179
:10E060000446884616460025378800203080606BBD
:10E0700068B1616B08783B463246414605F0E6FDE3
:10E08000054600BF15B12846BDE8FC8100BF206BE6
:10E0900058B13B4632464146206B06F0DDFB054653
:10E0A00000BF0DB12846EFE700BF94F82E0060B125
:10E0B00094F82E003B463246414604F043FA0546AA
:10E0C00000BF0DB12846DFE700BF94F82D0050B126
:10E0D0003A463146404601F0A8F9054600BF0DB169
:10E0E0002846D1E700BFA07850B13A4631464046B5
:10E0F00000F0C6FA054600BF0DB12846C4E700BFD0
:10E10000E07860B1E17848B23B463246414603F0E0
:10E1100035FE054600BF0DB12846B5E700BF606873
:10E1200068B1616891F900003B463246414606F00D
:10E1300045FE054600BF0DB12846A5E700BF208972
:10E1400000280EDD43460622022104F10800CDE935
:10E15000006707F037F8054600BF0DB1284693E782
:10E1600000BF208A00280EDD43460722032104F168
:10E170001000CDE9006707F025F8054600BF0DB196
:10E18000284681E700BF208B00280EDD434615227C
:10E19000142104F11800CDE9006707F013F80546D3
:10E1A00000BF0DB128466FE700BF206A58B13B465B
:10E1B00032464146206A02F0D0FB054600BF0DB151
:10E1C000284661E700BF606A58B13B463246414687
:10E1D000606A04F09BFB054600BF0DB1284653E77B
:10E1E00000BF94F82C0000280BDD3B463246414628
:10E1F000204605F046FD054600BF0DB1284643E721
:10E2000000BF207858B13B4632464146204604F0D4
:10E21000B8FB054600BF0DB1284635E700BF2846CC
:10E2200032E70146C87800F0040008B907207047BB
:10E230000020FCE710B501220221002001F068FD5A
:10E24000044600BF1CB1072C01D0204610BD00BF02
:10E2500007220221012001F05BFD044600BF1CB132
:10E26000072C01D02046F1E700BF0A220021084612
:10E2700001F04EFD044600BF1CB1072C01D0204622
:10E28000E4E700BF0020E1E730B599B038210BA8E2
:10E29000FEF763F902208DF82C0001208DF82E0086
:10E2A00006208DF82F000120ADF83C001149109197
:10E2B000242102A8FEF751F901208DF814004FF433
:10E2C00096700690002007900B4B02AA0146009022
:10E2D0000BA800F069FA044600BF25463DB100BF17
:10E2E00006A240F21221284600F0BEF800BF00BF8F
:10E2F00019B030BD84200020852F02002E2E5C2E08
:10E300002E5C2E2E5C6D61696E2E6300014600BF8F
:10E31000064A10684FF400228243044B1B1D1A600A
:10E3200000F400221B1D1A6000BF70470405005056
:10E3300010B5002407E00749096811F834000121ED
:10E3400004F0C0FB641C044800788442F3D300202E
:10E3500010BD0000382100203C2100202DE9F843A9
:10E3600006460C461746052F02D20720BDE8F88363
:10E3700004F0A8FC38B904F07BFC054600BF0DB1E1
:10E380002846F3E700BF1648066016480470164892
:10E3900007600020154908601549086015E006EB84
:10E3A000C40814480068009098F802008DF8010035
:10E3B00098F80000104A694604F0E0FB054600BFEB
:10E3C0000DB12846D2E700BF00BF201EA4F1010115
:10E3D000CCB2E4D1094A0021094800F091F8C5E720
:10E3E000382100203C210020402100204421002031
:10E3F00048210020E4530200F5210200690C0200CC
:10E40000E053020008B5144625460AA10020FEF795
:10E4100095FD686800902B8808A10020AA68FEF787
:10E420008DFD0FA10020FEF789FD0C2001F09EFC60
:10E4300000BFFEE71B5B313B33316D000A45727252
:10E440006F723A2030782523780A4C696E653A203D
:10E4500025640A46696C653A2025730A0A000000A3
:10E460001B5B306D00000000FEB504460E461546ED
:10E47000B0B2ADF80000019502946A46002144F262
:10E480000100FFF7BFFFFEBD2DE9F04104460D4638
:10E49000164604480768324629462046B847BDE874
:10E4A000F081000000270020F8B505460C462778CB
:10E4B000A06800EB4000064951F82060054800685C
:10E4C00000902A46394604F108002369B047F8BD98
:10E4D000682800203021002010B504460748007845
:10E4E00000EB80020548001D00EB82012046FFF78B
:10E4F000DBFF042005F050FC10BD00009C2700202D
:10E5000010B503460C4600BF0B48006808B9082048
:10E5100010BD00BF0AB90720FAE70BB90720F7E7DB
:10E520001868007C08B10820F2E719680020087418
:10E530004C744A6100BFEBE7502100202DE9F04107
:10E5400080460E4614461F46204600F0030109B9D6
:10E55000012100E0002111B90720BDE8F08124B9B4
:10E5600000201D4908600720F7E705F057FA1B480F
:10E57000076003201A490870174804601834002502
:10E580000DE01549096801EBC500002101704170DB
:10E590008670446006EB460104EBC1046D1C032D3C
:10E5A000EFDB00200F4908600F4908700F49087021
:10E5B0001420FEF781FB06211420FEF7A1FB142096
:10E5C000FEF786FB404605F0FFF905F0F7F908492C
:10E5D00008600020C1E700005021002068210020D1
:10E5E0004C210020542100206421002065210020BE
:10E5F000582100202DE9F84304460D4617462646CB
:10E6000000BF1148006810B90820BDE8F88300BFBA
:10E610000CB90820F9E7052D01D20720F5E770694C
:10E6200008B90820F1E7707C012801D1284600E0F4
:10E630000020804606F080FD814643462A4631464A
:10E64000009705F087FFE0E75021002070B50446F1
:10E65000254600BF0948006808B9082070BD00BF02
:10E660000CB1686908B90820F8E70020287406F0A2
:10E6700063FD0646294605F09BFFEFE75021002089
:10E68000F8B505460C4617462088001DB84201D94A
:10E690000C20F8BD684679DF064600BF0EB1304653
:10E6A000F7E700BF0320218868542088401C2080A1
:10E6B0001920218868542088401C20802088411916
:10E6C000BDF8000006F0DCFC218808442080002012
:10E6D000DFE7000070B500224FF4004108480068F1
:10E6E000FFF788FF044600BF25463DB100BF05A2E5
:10E6F00040F211112846FFF7B7FE00BF00BF70BD02
:10E70000005302002E2E5C2E2E5C2E2E5C6D616955
:10E710006E2E63002DE9F04192B080460D461F2019
:10E7200011901090B8F1000F17D04046FFF779FD17
:10E73000044600BF1CB1204612B0BDE8F08100BF06
:10E7400011AA08A94046FFF789FC044600BF0CB196
:10E750002046F1E700BF08AE02E00026002011903D
:10E76000ADB1284605F010FC044600BF0CB12046B0
:10E77000E2E700BF10AA69462846FFF76FFC04468F
:10E7800000BF0CB12046D7E700BF6F4602E000276C
:10E7900000201090BDF84000C3B2BDF84400C1B2E3
:10E7A0003A46304672DFC7E72DE9F04704460F4688
:10E7B00015461E46DDF8208000BF14B90E20BDE8C6
:10E7C000F08700BF00BF0DB90E20F8E700BF0020A2
:10E7D00046490870464806604648C0F80080242232
:10E7E00029464548FDF7A0FE00F03EF9434844495C
:10E7F00008604448886038214348FDF7AEFE207821
:10E8000041490870A0788870E078C87060784870D6
:10E810000846D4E90412C0E90412D4E90212C0E99E
:10E820000212D4E90612C0E90612606AD8B137486C
:10E830003549486236498160606A00883249496AD0
:10E840000880606A80883049496A8880002005E035
:10E85000616A8968095C2E4A1154401C2A49496A38
:10E8600089888142F4D8A06A20B32A492A48816065
:10E870002549886227492448806A8160A06A808887
:10E880002149896A8880A06A00881F49896A0880AE
:10E89000002005E0A16A8968095C1E4A1154401CE9
:10E8A0001949896A89888142F4D894F82C0016495C
:10E8B00081F82C00206A58B1184813490862206A70
:10E8C0004088096A4880206A00880F49096A0880E0
:10E8D000606820B112480C49486060684860394659
:10E8E0000948FFF717FF8146484668E7D82000200F
:10E8F000D0200020D4200020CC240020002500209F
:10E90000F024002020250020942400204025002011
:10E910004C250020782500206C250020DC200020DC
:10E92000E020002070B504462088102804D011286B
:10E9300009D01B2863D11BE0A07D012802D1A0884B
:10E94000304908805CE000202F490870A0882D49DC
:10E95000098888420BD1012000F0CAF8054635B17C
:10E960002A48006818B1284628490968884747E0BE
:10E97000207A002842D126480078012806D00228B3
:10E9800011D003281CD0042836D129E0022000F041
:10E99000AFF8054635B11D48006818B128461B4937
:10E9A0000968884729E0032000F0A2F8054635B140
:10E9B0001648006818B128461449096888471CE0C1
:10E9C000032014490870042000F092F8054635B180
:10E9D0000E48006818B128460C49096888470CE0C1
:10E9E00000200C4908700C48006820B108460078E7
:10E9F00009490968884700E000BF00BF00E000BF88
:10EA000000BF70BDE2200020D9200020D4200020CB
:10EA1000D8200020CC200020D020002070B5044653
:10EA20000025022C02D0032C15D100E000BF0B48BA
:10EA3000007878B10020094908700948007800F092
:10EA400057F8054635B10748006818B1284605490A
:10EA50000968884700E000BF00BF70BDC4200020E7
:10EA6000D8200020D42000200248002101608180AD
:10EA700081717047C520002010B518480078012822
:10EA800029D11748007830BB1648007830B174DFC0
:10EA9000044600BF0CB1204610BD00BF0120104944
:10EAA000087006201049C87000210F48FFF732FE99
:10EAB000044600BF0CB12046EEE700BF09480078CD
:10EAC00000F016F8044634B10848006818B1204632
:10EAD0000649096888470020DEE70000CC240020B2
:10EAE000D9200020D820002094240020D420002009
:10EAF00030B587B005469548057003F05AF928B13E
:10EB0000012093490870002007B030BDFFF7ACFF2B
:10EB10009048407818B18D48007801280DD08D4874
:10EB2000807818B189480078012806D08948807813
:10EB300088B18648007802280DD18748006838B12E
:10EB4000012086490870082083490968884702E047
:10EB50000020824908707D480078012809D17D484D
:10EB6000407818B17E4804F03DFB10B90220774987
:10EB7000087076480078022809D17648807818B164
:10EB8000774804F02FFB10B90320704908707148D2
:10EB9000007B30B96D480078032802D104206B490E
:10EBA00008706C48007E40B968480078042804D199
:10EBB0000020664908706B49087067480068A8B172
:10EBC00062480078032803D06048007804280DD1FB
:10EBD0006048007850B16448007838B90120634932
:10EBE000087007205C490968884702E000205F49F7
:10EBF0000870182101A8FDF7B0FC00208DF8040072
:10EC000002908DF80C00049050480078012806D03E
:10EC1000022813D0032825D0042876D150E050488C
:10EC2000401E029001208DF804000020ADF816006F
:10EC3000ADF8140001204B49087071E04848401EAF
:10EC4000029001208DF804004248008980B2ADF89E
:10EC500016004048808880B2ADF814000220414977
:10EC600008705DE03B48808A80B2ADF816003948F4
:10EC7000008A80B2ADF814003D4806F038FBD8B1E8
:10EC800034480078C0B138480078A8B902208DF81F
:10EC90000C003748049004203649C87000213548DC
:10ECA000FFF738FD044600BF0CB120462CE700BF3B
:10ECB00005202C49087002E003202A4908702FE043
:10ECC0002448808B80B2ADF814002248008C80B2BA
:10ECD000ADF81600264806F00AFBE0B11D480078A2
:10ECE000C8B121480078B0B902208DF80C00204846
:10ECF000049004201F49C87000211E48FFF70AFD38
:10ED0000044600BF14B12046FEE608E000BF06201E
:10ED10001449087002E004201249087000E000BFA6
:10ED200000BF0A48007838B101A873DF044600BF6D
:10ED30000CB12046E8E600BF0748006820B109484A
:10ED400000780549096888470020DDE6D8200020C2
:10ED5000C4200020CC240020D0200020DB20002074
:10ED6000C6200020CC200020D9200020DA2000205E
:10ED7000F02400209424002070B586B004460D468F
:10ED800020884FF6FF71884221D012480078012870
:10ED90001DD1042005900020019002900390049062
:10EDA000A089ADF8040001208DF806000020ADF820
:10EDB000080005A803900495208801A9A6DF06464F
:10EDC00026B1324604A10020FEF7B8F800BF06B015
:10EDD00070BD00009220002048756D2048565820D4
:10EDE0004552524F523A202523780A0A000000006B
:10EDF00070B504460D462888102804D0112805D087
:10EE000050280CD106E0A888208009E04FF6FF705A
:10EE1000208005E02946204604F006F900E000BF06
:10EE200000BF70BD70B586B004460D4620884FF611
:10EE3000FF71884221D01248007801281DD104209A
:10EE4000059000200190029003900490A08AADF8F4
:10EE5000040001208DF806000020ADF8080005A888
:10EE600003900495208801A9A6DF064626B1324604
:10EE700004A10020FEF762F800BF06B070BD0000DC
:10EE800091200020507265737320485658204552D7
:10EE9000524F523A202523780A0A000070B586B0F6
:10EEA00005461B4B0FCB01AC0FC44FF20D00ADF864
:10EEB0001400A11C01A863DF044600BF26463EB132
:10EEC00000BF14A240F201113046FFF7CDFA00BF97
:10EED00000BF4FF6FF702880AA1C05A90120A0DF03
:10EEE000044600BF26463EB100BF0AA240F2091107
:10EEF0003046FFF7B9FA00BF00BF284600F09CF982
:10EF0000284600F051F8284600F0F2F806B070BD2F
:10EF1000185302002E2E5C2E2E5C2E2E5C2E2E5CA4
:10EF2000626C655F626D653238302E6300000000F0
:10EF300070B586B004460D4620884FF6FF718842B2
:10EF400021D01248007801281DD10420059000200E
:10EF50000190029003900490A088ADF80400012075
:10EF60008DF806000020ADF8080005A80390049570
:10EF7000208801A9A6DF064626B1324604A100205A
:10EF8000FDF7DCFF00BF06B070BD00009020002040
:10EF900054656D7020485658204552524F523A20C1
:10EFA0002523780A0A00000070B590B004460025B9
:10EFB00000BF01208DF83E0040F2D110ADF83C00BA
:10EFC00000BF1C2108A8FDF7C8FA9DF8200020F01A
:10EFD0000200801C8DF8200000BF9DF81C0020F06E
:10EFE0000F00401C8DF81C009DF81C0020F0F00064
:10EFF00010308DF81C0000BF00BF9DF81D0020F0F0
:10F000000F00401C8DF81D009DF81D0020F0F00041
:10F0100010308DF81D0000BF9DF81E0020F0060086
:10F02000801C8DF81E0007A80D909DF8200020F090
:10F03000100010308DF82000002006909DF81A0076
:10F0400020F00600801C8DF81A0000BF9DF8180003
:10F0500020F00F00401C8DF818009DF8180020F0DB
:10F06000F00010308DF8180000BF00BF9DF81900A7
:10F0700020F00F008DF819009DF8190020F0F00025
:10F080008DF8190000BF142101A8FDF766FA0FA83A
:10F09000019006A802900420ADF81000ADF80C0015
:10F0A00000200090CDF814D0608804F10C0301AA70
:10F0B00008A9A2DF054600BF2E4636B100BF05A253
:10F0C000BB213046FFF7D0F900BF00BF002010B0D1
:10F0D00070BD00002E2E5C2E2E5C2E2E5C2E2E5C23
:10F0E000626C655F626D653238302E63000000002F
:10F0F00070B590B00446002500BF01208DF83E0099
:10F100004EF25E50ADF83C0000BF1C2108A8FDF790
:10F1100024FA9DF8200020F00200801C8DF82000C9
:10F1200000BF9DF81C0020F00F00401C8DF81C0053
:10F130009DF81C0020F0F00010308DF81C0000BF7E
:10F1400000BF9DF81D0020F00F00401C8DF81D0031
:10F150009DF81D0020F0F00010308DF81D0000BF5C
:10F160009DF81E0020F00600801C8DF81E0007A8E8
:10F170000D909DF8200020F0100010308DF8200038
:10F18000002006909DF81A0020F00600801C8DF8E3
:10F190001A0000BF9DF8180020F00F00401C8DF8E9
:10F1A00018009DF8180020F0F00010308DF81800BD
:10F1B00000BF00BF9DF8190020F00F008DF8190066
:10F1C0009DF8190020F0F0008DF8190000BF1421FF
:10F1D00001A8FDF7C2F90FA8019006A8029004202B
:10F1E000ADF81000ADF80C0000200090CDF814D060
:10F1F000608804F1140301AA08A9A2DF054600BF34
:10F200002E4636B100BF05A288213046FFF72CF903
:10F2100000BF00BF002010B070BD00002E2E5C2E7D
:10F220002E5C2E2E5C2E2E5C626C655F626D6532EC
:10F2300038302E630000000070B590B00446002501
:10F2400000BF01208DF83E004EF6AE60ADF83C00E8
:10F2500000BF1C2108A8FDF780F99DF8200020F0D0
:10F260000200801C8DF8200000BF9DF81C0020F0DB
:10F270000F00401C8DF81C009DF81C0020F0F000D1
:10F2800010308DF81C0000BF00BF9DF81D0020F05D
:10F290000F00401C8DF81D009DF81D0020F0F000AF
:10F2A00010308DF81D0000BF9DF81E0020F00600F4
:10F2B000801C8DF81E0007A80D909DF8200020F0FE
:10F2C000100010308DF82000002006909DF81A00E4
:10F2D00020F00600801C8DF81A0000BF9DF8180071
:10F2E00020F00F00401C8DF818009DF8180020F049
:10F2F000F00010308DF8180000BF00BF9DF8190015
:10F3000020F00F008DF819009DF8190020F0F00092
:10F310008DF8190000BF142101A8FDF71EF90FA8F0
:10F32000019006A802900420ADF81000ADF80C0082
:10F3300000200090CDF814D06088231D01AA08A9F0
:10F34000A2DF054600BF2E4636B100BF04A2EE2163
:10F350003046FFF789F800BF00BF002010B070BD35
:10F360002E2E5C2E2E5C2E2E5C2E2E5C626C655F2B
:10F37000626D653238302E630000000070B50546BE
:10F380001C2229461248FDF7CFF8002011490870C9
:10F39000286850B1104829680A68026049684160CD
:10F3A0007ADF04463CB1204670BD0B487BDF044643
:10F3B0000CB12046F8E74FF6FF700849088000209E
:10F3C00007490870074A00210748FFF799F8EBE75B
:10F3D00098250020F8200020E4200020EE200020C6
:10F3E000EC200020A95002008053020010B5044612
:10F3F0002088102806D0112808D012280ED05028B6
:10F4000010D107E0204603F085FE0CE0204603F013
:10F410009DFE08E0204603F0B9FE04E0204603F01C
:10F420006DFE00E000BF00BF10BD2DE9FC410546A8
:10F430000C46174620880930B84202D90C20BDE896
:10F44000FC81684671DF064600BF0EB13046F6E724
:10F4500000BF0820218868542088401C20801B2081
:10F46000218868542088401C208020882844DDF8AA
:10F4700001100160BDF8051081802088801D20806A
:10F480009DF8000018B900202188685402E001208E
:10F49000218868542088401C20800020CFE700008D
:10F4A00010B50446204601F0ADFD2046FFF79EFF53
:10F4B000204600F01BFB204603F088FD2046FFF7A6
:10F4C00031FA21460148FFF793FC10BDB02100201E
:10F4D00070B586B037480068059000BF0023482209
:10F4E000354905A804F010FD054600BF2E463EB183
:10F4F00000BF32A240F287113046FEF7B5FF00BFD1
:10F5000000BF00BF6A460121002004F0DDFC044674
:10F5100000BF25463DB100BF28A240F28D1128460C
:10F52000FEF7A2FF00BF00BF00BF284E304604F028
:10F53000DBFA044600BF25463DB100BF1FA24FF4D1
:10F54000C8712846FEF790FF00BF00BF00BF6846A5
:10F5500004F038FC044600BF25463DB100BF17A2A9
:10F560004FF4CA712846FEF77FFF00BF00BF18485E
:10F5700004F01CFC044600BF25463DB100BF0FA2AD
:10F580004FF4CC712846FEF76FFF00BF00BF114853
:10F5900004F0EEFC044600BF25463DB100BF07A2C3
:10F5A0004FF4CE712846FEF75FFF00BF00BF06B0E4
:10F5B00070BD000004530200942300202E2E5C2E08
:10F5C0002E5C2E2E5C6D61696E2E6300E81F00209C
:10F5D000A1F401002143020030B502462148006831
:10F5E000A0F5963193032048808BA3EB00531E486F
:10F5F000B0F91A0000FB113000F58040C3131A481F
:10F6000090F9180048438012174CA47F4C434FF4E4
:10F61000004505EBE4246043AC0104EBA020124C50
:10F62000B4F92040604300F50050801303FB00F163
:10F63000C8134043C0110C4B93F822305843A1EB40
:10F640002011002901DA002000E008460146B1F14E
:10F65000C85F02DD4FF0C85000E0084601460813BD
:10F6600030BD00009C200020DC23002030B5044683
:10F670002C4800684FF47A45C5EB60018810404380
:10F68000C012294DB5F9105000FB05F32648B0F91A
:10F690000E00484303EB40039D102348808905EB8F
:10F6A00000438810404340131F4DB5F90A5068438A
:10F6B000C5101D48B0F90800484305EB60008114EF
:10F6C00001F50040184DED886843C11309B90020C9
:10F6D00030BDC4F58010A0EB233040F6354500FB6B
:10F6E00005F2B2F1004F03D25000B0FBF1F202E09C
:10F6F000B2FBF1F04200D0084043400B0A4DB5F98F
:10F700001650684301139008074DB5F9145068432B
:10F710004313CD180448B0F91200284402EB20121C
:10F720001046D5E79C200020DC23002030B50146A0
:10F73000CC100F4D2D88A4EB45040D4DB5F90250AA
:10F740006C43E2120A4C2488C4EB21146443241352
:10F75000074DB5F904506C43A313D418054D2C6024
:10F760002C46246804EB84048034201230BD000051
:10F77000DC2300209C200020F0B599B060273A4699
:10F7800001A9882000F09EF8064616B1304619B04F
:10F79000F0BD781EC4B201A8005D40B221490876D0
:10F7A000601EC0B2044601A9085C0101601EC0B21F
:10F7B000044601AA105C41EA20111A484183601EE8
:10F7C000C0B2044601A9095C01A8005D61F31F10E5
:10F7D00014498883601EC0B2044601A9095C11481F
:10F7E0008177601EC0B201A9095C401EC0B2044608
:10F7F000105C41EA002001B20A480184192401A8E2
:10F80000015D084880F822100546882006E0A0F136
:10F81000880101AA515C29706D1C401C9F28F6DDEF
:10F820000020B4E7DC23002038B504460020009017
:10F83000206002226946FD2000F044F805469DF84C
:10F8400001009DF8001040EA01202060284638BDE4
:10F8500038B5044600200090206003226946F72056
:10F8600000F030F805469DF8000000049DF80110F6
:10F8700040EA01209DF8021008430011206028464C
:10F8800038BD38B504460020009020600322694648
:10F89000FA2000F017F805469DF8000000049DF8D6
:10F8A000011040EA01209DF8021008430011206079
:10F8B000284638BD0146024801600020704700001C
:10F8C00094200020F7B582B00E4617461B4C00204E
:10F8D000012302AA762100901948006803F072FA09
:10F8E000054615B1284605B0F0BD00BF15480078A3
:10F8F00010B9601E041EF9D10CB90D20F3E70020E9
:10F9000010490870FBB2324676210D48006803F0BA
:10F9100043FA05460DB12846E5E7084C00BF0A4802
:10F92000007810B9601E041EF9D10CB90D20DAE779
:10F930000020054908702846D5E70000F04902007C
:10F940009420002098200020992000202DE9F047E5
:10F950000546894616461F464946F22000F056F8ED
:10F96000044614B12046BDE8F087680140EA8600ED
:10F97000384300F0FF084146F42000F047F8044601
:10F980000CB12046EFE70020EDE7000030B501782C
:10F9900021B101292FD002292FD12DE018220123D6
:10F9A00003FA02F1164C236821EA0304144D2D1DBD
:10F9B0002C6003EA01042D1D2C6000BF00BF0179FB
:10F9C00031B101290CD002290ED0032910D103E056
:10F9D00001210C4A11700CE001210A4A117008E063
:10F9E0000121094A117004E00121074A117000E069
:10F9F00000BF00BF02E001E000E000BF00BF30BD7B
:10FA00000405005098200020992000202DE9FC4199
:10FA100004460D46104F8DF804408DF80550002027
:10FA2000022301AA762100900C48006803F0CAF96D
:10FA3000064616B13046BDE8FC8100BF0848007894
:10FA400010B9781E071EF9D10FB90D20F3E7002079
:10FA5000034908703046EEE7F04902009420002088
:10FA6000982000207CB50446A1786A460D4803F032
:10FA700055FC0546ADB96178C1EBC1010A4A02EBFC
:10FA800081001C231A46694603F086FD0546074897
:10FA9000807A074951F8202021466846904705465C
:10FAA00000BF7CBDFC200020B426002000270020E1
:10FAB0009453020070B505460C46002609480560BF
:10FAC00044B1204604F067FA064600BF0EB1304646
:10FAD00070BD00BF0448006810B9FEF7ABFB0646D6
:10FAE0003046F5E7BC200020C020002070B5054658
:10FAF0002888102802D011282CD115E0174800685A
:10FB000060B900F0EBFF044600BF34B11448006850
:10FB100018B1204612490968884700BF0F4800689D
:10FB2000401C0E49086016E00C480068401E0B4956
:10FB300008600846006860B9FEF77CFB044600BF19
:10FB400034B10748006818B120460549096888475C
:10FB500000BF00E000BF00BF70BD0000C02000205B
:10FB6000BC20002010B5032000F046FC044600BF76
:10FB70001CB1062C01D0204610BD00BF0020FBE7C1
:10FB80002DE9F04105460F464FF00008002400E043
:10FB9000641C042C04D22A4850F82400A842F7D14F
:10FBA000042C41D227B3012F02D0022F3BD133E0E6
:10FBB00004EB4400234911F8008004EB440008449E
:10FBC000407868B12048006800EB800041001F4A7F
:10FBD0001F480068FEF70EFD06460EB91B4805706B
:10FBE00004EB44001749084480781A4908551AE084
:10FBF00017480068FEF72AFD1648005D04EB440133
:10FC0000104A11448978884205D104EB440011461A
:10FC1000084490F8028006E004EB440009490844D7
:10FC200090F8018000BF00BFB8F1000F06D00A486D
:10FC3000006818B14046084909688847BDE8F08166
:10FC40005053020068240020A4200020B42000208B
:10FC50004C530200B5200020B020002010B5024611
:10FC6000042A0ED2094B1B68D843094B13F82240D3
:10FC70000123A34003400BB1012300E000230B70DC
:10FC800001E000200870002010BD000010050050A9
:10FC90005053020070B50546042D06D0072D18D02C
:10FCA0000A2D28D104F040F826E0132113480088DB
:10FCB00076DF0446082C0BD000BF26463EB100BFBD
:10FCC0000FA240F2B1113046FEF7CEFB00BF00BFDD
:10FCD00012E0FEF7D1FE0446082C0BD000BF2646EA
:10FCE0003EB100BF06A240F2B9113046FEF7BCFBA0
:10FCF00000BF00BF00E000BF00BF70BD8220002039
:10FD00002E2E5C2E2E5C2E2E5C6D61696E2E630095
:10FD100030B503460020042B23D2012A07D1012944
:10FD200003D103F10D04E4B200E00024224679B1CE
:10FD3000012902D0022911D104E003EB43040A4D4A
:10FD40002A550DE003EB4304074D2C44627007E095
:10FD500003EB4304044D2C44A27001E0072000BFD4
:10FD600000E0072030BD00006824002070B5044684
:10FD700000250548007800F0010018B1204600F089
:10FD80006DF80546284670BDA82000202DE9F041F9
:10FD900005460E4690460024254806602548056025
:10FDA0002548C0F8008005F00200F8B1002706E001
:10FDB000012211463846FFF7ABFF04467F1C042F93
:10FDC00001D2002CF4D02CB9720804211B48FEF794
:10FDD000C5FA044614B9FEF7ABFA04462CB9184A22
:10FDE00000211848FEF78CFB044600BF05F0010017
:10FDF00068B100BF4FF4F010134908600020091DDE
:10FE0000086000BF4FF4F0100F49103108602CB9A2
:10FE10000E4A00210E48FEF773FB04462CB90D4A2A
:10FE200001210D48FEF76CFB04462046BDE8F08139
:10FE3000A4200020A8200020B02000206053020051
:10FE4000490402004C53020008050050B12502008D
:10FE5000445302000DE30100485302002DE9F04134
:10FE6000044600260025182C7DD2DFE804F00C1D86
:10FE70001E68B4EEEDECEBEAE9E8E7E6E5E4E3E280
:10FE8000E1E0DFDEDDDC00BFFD4801684FF4F0108B
:10FE9000884300F4F010FB4908600020091D086049
:10FEA00000BFF948047098E200BF00BFF448016841
:10FEB0004FF4E010884300F4F010F249086000208D
:10FEC000091D086000BFEF48001F006880F4F010B3
:10FED00000F4003088B100BF4FF40030091F086003
:10FEE0000020091D086000BF022C02D14FF4E16020
:10FEF00001E04FF47A60054610E000BF4FF4003097
:10FF0000E049091D08600020091F086000BF022C9D
:10FF100001D1C82001E04FF4C8700546DA480470EA
:10FF20006420B5FBF0F0D949096800FB01F7002215
:10FF30003946D7480068FEF75DFB06464DE200BF34
:10FF4000CF4801684FF4E010884300F4F010CD4929
:10FF500008600020091D086000BFCA48001F006833
:10FF600080F4F01000E037E200F4003088B100BF08
:10FF70004FF40030091F08600020091D086000BF11
:10FF8000032C02D14FF4487001E04FF47A6005462B
:10FF900010E000BF4FF40030BA49091D086000208E
:10FFA000091F086000BF032C01D1C82001E04FF4F5
:10FFB000C8700546B44804706420B5FBF0F0B3493E
:10FFC000096800FB01F700223946B1480068FEF7D6
:10FFD00011FB064601E200BFA94801684FF4E0109A
:10FFE000884300F4F010A74908600020091D08604C
:10FFF00000BFA448001F006880F4F01000F4003037
:020000040002F8
:1000000020B300BF4FF40030091F08600020091D15
:10001000086000BF042C02D14FF47A6001E04FF475
:100020007A60054624E0CBE1C9E1B3E19DE187E1D7
:1000300079E13FE13DE13BE139E137E12AE105E1E9
:10004000EDE0D3E0BBE0A1E06CE022E000BF4FF4C4
:1000500000308C49091D08600020091F086000BF9E
:10006000042C02D14FF4C87001E04FF4C87005466B
:10007000854804706420B5FBF0F08449096800FBF2
:1000800001F70022394682480068FEF7B3FA0646B7
:10009000A3E100BF7A4801684FF4E010884300F400
:1000A000F010784908600020091D086000BF7548FD
:1000B000001F006880F4F01000F4003080B100BF31
:1000C0004FF40030091F08600020091D086000BFC0
:1000D000052C01D1C82001E04FF47A60054610E0FC
:1000E00000BF4FF400306749091D08600020091F58
:1000F000086000BF052C01D1C82001E04FF4C87092
:100100000546614804706420B5FBF0F05F4909685A
:1001100000FB01F7002239465D480068FEF76AFAE5
:1001200006465AE100BF564801684FF4E010884384
:1001300000F4F010534908600020091D086000BF5A
:100140005048001F006880F4F01000F4003040B107
:1001500000BF4FF40030091F08600020091D08602F
:1001600009E000BF4FF400304649091D0860002037
:10017000091F086000BF4448047044480022016819
:1001800043480068FEF736FA064626E100BF3C48C1
:1001900001684FF4E010884300F4F010394908601A
:1001A0000020091D086000BF00BF4FF40030086048
:1001B0000020091F086000BF334804700DE100BF34
:1001C0003049091F08684FF4802181432D4A11608E
:1001D00000F48021121D116000BF2C48002201682C
:1001E0002B480068FEF706FA0646F6E000BF2549F0
:1001F000091F08684FF480218143224A116000F4EE
:100200008021121D116000BF2048006800EB8001B2
:1002100000221F480068FEF7EDF90646DDE000BF4A
:100220001849091F08684FF480218143154A11605D
:1002300000F48021121D116000BF144800220168E3
:1002400013480068FEF7D6F90646C6E000BF0D4920
:10025000091F08684FF4802181430A4A116000F4A5
:100260008021121D116000BF0848006800EB80016A
:10027000002207480068FEF7BDF90646ADE0000021
:10028000AC20002008050050A0200020A420002061
:100290004453020000BF4FF4F010524908600020A0
:1002A000091F086000BF5048047096E000BF00BFFF
:1002B00000BF00BF4D480068FEF7C8F90646C4F10C
:1002C00011050DB306BB4FF4002049490860012D0C
:1002D0000FD9C82068436421B0FBF1F04549096893
:1002E00000FB01F70022394640480068FEF782F91A
:1002F000064600BF3E48006800F4F0103949086027
:100300000020091F08600DE000BF3948006800F4B4
:10031000F0103449091F08600020091D086000BF63
:100320003349086059E000BF4FF4F0102D49091F10
:1003300008600020091D086000BF2B4804704CE0D5
:1003400000BF4FF4E0102749091F08600020091D75
:10035000086000BF00BF4FF4003008600020091F94
:10036000086000BF2048047037E000BF4FF4D01091
:100370001C49091F08600020091D086000BF00BF5C
:100380004FF4802008600020091F086000BF164855
:10039000047022E000BF4FF4C0101249091F08602A
:1003A0000020091D086000BF00BF4FF4C020086096
:1003B0000020091F086000BF0B4804700DE000BF5B
:1003C00000BF4FF4F010074908600020091F0860C3
:1003D00000BF0548047000E000BF00BF3046BDE824
:1003E000F08100000C050050A020002048530200BE
:1003F000AC200020A420002030B5024600201AE0E6
:100400000F4C54F82040A40004F1A044D4F8001785
:100410000124844014400CB1032400E0002423464E
:1004200021F4403141EA0341064C054D55F8205076
:1004300044F82510401C0428E2D3002030BD000001
:10044000505302000007005010B5044620780221E6
:10045000FFF796FB10BD0000F8B50546164A40F6BA
:10046000CD410320FFF792FC044600BF26463EB173
:1004700000BF12A240F221213046FDF7F5FF00BF78
:1004800000BF69460020FFF715FB044600BF264663
:100490003EB100BF09A24FF409713046FDF7E4FFF9
:1004A00000BF00BF9DF80000022801D1012000E03C
:1004B00000202870F8BD000095FC01002E2E5C2E57
:1004C0002E5C2E2E5C6D61696E2E63004FF0FF3145
:1004D000054A42F82010082804DBFF23A0F1080198
:1004E0005032535470470000242700200146024830
:1004F00050F8210070470000242700202DE9F04F1C
:1005000003460C464FF0FF390AB1002000E00820F6
:1005100084460AB1082000E00C208046614624E0B1
:10052000154850F82100401CF0B91D4608462746E2
:1005300016464FFA80FBDFF840A00AF1300A0AF8AD
:1005400005B0DFF834A04AF820704EB94FFA85FBA9
:10055000A0F1080ADFF820E00EF1500E0EF80AB004
:1005600000BF4FFA81F902E0491C4145D8D300BFD2
:100570004846BDE8F08F00002427002001460148CE
:1005800040567047542700202DE9F84F3A4800782C
:1005900000EB80013848001D00EB8104E668A0688C
:1005A00000EB4000354901EB8000B0F80890A068EE
:1005B00000EB400001EB8000B0F80AA0A06800EB5F
:1005C000400001EB80004068009002F098FFB6FB0D
:1005D000F0F100FB116008B9012000E00020804626
:1005E000009809FB0A0760883044A188451800205C
:1005F00023490860B8F1000F04D002F080FF618841
:10060000884209D0B8F1000F03D0BD4201D1A088C3
:1006100010B1A068032809D102F071FFB6FBF0F019
:1006200018490860032003F0B7FB22E002F067FFDF
:10063000A1883144B1FBF0F200FB1210800812498E
:10064000086002F05CFFB5FBF0F100FB115008B947
:10065000012000E000208346BD4206D0BBF1000F20
:1006600003D1B9B2A8B203F073FE022003F094FBE9
:1006700000BFBDE8F88F00009C27002068280020FC
:1006800020210020242100201C21002010B5084832
:10069000007800EB80010648001D00EB8104207803
:1006A000042802D000F0BAF801E003F0C9FD10BD43
:1006B0009C27002010B50F48007800EB80010D4802
:1006C000001D00EB810460880B4908602078012838
:1006D00004D0032805D0042809D105E003F0B0FDBB
:1006E00006E0FFF751FF03E004F0D0FC00E000BF9C
:1006F00000BF10BD9C2700203021002010B503480A
:10070000407808B1FFF7D6FF10BD00009C270020FD
:10071000002200EB8003114901F8232000EB800345
:1007200001EB83014A80022200EB80030B4901EBBD
:1007300083018A60002200EB8003084901EB8301FA
:10074000CA6000EB8003054901EB83010A6100EBFD
:100750008003024901EB83018A807047A0270020B3
:100760002DE9F04706460F4690469946DDF820A051
:10077000204840780A2839D01E4800781D49497819
:1007800044180A2C00D30A3C04EB84011948001DCC
:1007900000F8216004EB840100EB8100C0F81080B8
:1007A00004EB84011348001D00EB8100D7E900121F
:1007B000C0E9021204EB84010E48001D00EB810029
:1007C000A0F8029004EB84010A48001D00EB8100B0
:1007D000A0F804A007484078401C06494870064825
:1007E000007808B9FFF766FF002500E004252846D9
:1007F000BDE8F0879C2700201821002010B50020BC
:10080000054908704870002403E02046FFF780FF88
:10081000641C0A2CF9D310BD9C27002010B5084891
:10082000007800EB80020648001D00EB82010020EA
:10083000FDF73AFE00F006F8002003F0ADFA10BD17
:100840009C27002010B509490878FFF761FF074889
:100850004078401E0549487008460078401CC0B2E8
:1008600008700A2801D10020087010BD9C270020C4
:100870002DE9F04782461F480068002836D01D4801
:100880000068056803F09AF807461B48046821468B
:10089000384603F083FDC61C1848007808B903F0F9
:1008A0009FF8AE4201D2284600E03046044424F0CE
:1008B0007F44204603F07CF803F080F880463946F8
:1008C000404603F06BFD00F103093946204603F072
:1008D00065FD814509D903F071F8814603F068F898
:1008E0002F20FBF7D3FD03F07BFF01E003F096F828
:1008F000BDE8F08754210020582100206C21002001
:1009000001460888062808DB0888B0F5486F06DD30
:1009100008884FF6FF72904201D007207047488840
:10092000062808DB4888B0F5486F06DD48884FF692
:10093000FF72904201D00720F0E708884FF6FF725F
:10094000904208D04888904205D008884A88904252
:1009500001DD0720E2E70020E0E72DE9F04106464F
:100960000D46144698462088801D404502D90C202B
:10097000BDE8F0813046FFF7C3FF074600BF0FB167
:100980003846F5E700BF0520218868542088401CC0
:1009900020801220218868542088401C20802288D2
:1009A0005119308804F06CFB21880844208022888B
:1009B0005119708804F064FB2188084420800020CD
:1009C000D6E7000010B5044600BF03A2F021204680
:1009D000FDF74AFD00BF10BD2E2E5C2E2E5C2E2E84
:1009E0005C6D61696E2E630030B587B01C2168466E
:1009F000FBF7B3FD002000904FF4203001904FF43E
:100A00007020029003208DF80C000020ADF80E003D
:100A10008DF810000A4805900A4806906846FEF7CF
:100A2000ADFC044600BF25463DB100BF06A240F222
:100A300007112846FDF718FD00BF00BF07B030BD05
:100A4000BD300200C50902002E2E5C2E2E5C2E2E1B
:100A50005C6D61696E2E630038B51B4801F004FDC2
:100A600020BB1A48007848B119484069E8B1002015
:100A70000090174841696846884716E01548007895
:100A800010B91348456801E01148856800222946DD
:100A900011480068FDF7AEFD044634B10C4880698A
:100AA00018B10B4881692046884709E00848406929
:100AB00030B101200090064841696846884700BF70
:100AC00000200249087038BDF0200020F8200020E6
:100AD00098250020EC2000208053020010B5012250
:100AE00000210846FFF714F9044600BF1CB1072C8B
:100AF00001D0204610BD00BF072202210120FFF7D0
:100B000007F9044600BF1CB1072C01D02046F1E7CD
:100B100000BF042202210020FFF7FAF8044600BFBC
:100B20001CB1072C01D02046E4E700BF0020E1E71C
:100B300070B503460C460820002117E001EB410583
:100B40000C4E06EB8505AD7A254075B14FF6FF7565
:100B5000AB4206D001EB410506EB85052D899D4290
:100B600002D11160002003E00520491C0029E5D0D6
:100B700000BF70BDF4260020012100EB40020D4BA8
:100B800003EB820291724FF6FF7100EB400203EB20
:100B900082021181FF2100EB400203EB8202D1723D
:100BA00000EB40011A4602EB810100220A608A80B4
:100BB0008A717047F426002010B51A48007800F0BA
:100BC000080058BB18480068401C174908601748BF
:100BD000006818B1042003F099FB21E001F056FCF5
:100BE00018B1022003F092FB1AE01148006890B19E
:100BF0000C48007800F0010048B90A48006840F04D
:100C0000010008490860002003F080FB08E0032091
:100C100003F07CFB04E003F04DFB01E003F05AFB22
:100C200010BD000034210020242100201C210020C0
:100C30002021002010B50B48007800F0080070B9A2
:100C40000848007800F0020028B10648006840F02B
:100C5000010004490860022003F058FB01E003F0A2
:100C600039FB10BD342100202DE9F04781460025D5
:100C700032E01C48006800EBC5042178012000FA2E
:100C800001F619480068304020B317480068B043A7
:100C900015490860207801F0DDFF07462178012022
:100CA0008840124909680840217807FA01F1884212
:100CB0000FD16078012800D100E00020784080F05A
:100CC0000108606820B108F0FF0120786268904751
:100CD00000BF00BF681CC5B2054800788542C8DB6C
:100CE000BDE8F08738210020482100204421002061
:100CF0003C2100202DE9FC4104460D46A1786A46BE
:100D00002B4802F00BFB0746002F4ED1607800EB1A
:100D10004000284901EB8000807A00F04000402824
:100D200001D0022D01D1244E04E0012D01D1234E2A
:100D300000E0234EA078C0EBC000224A02EB800105
:100D400000231C226846B0470746EFB9022D1BD08E
:100D5000607800EB4000174901EB8000807A20F0BA
:100D60004000617801EB4101124A02EB8101887277
:100D70006078C0EBC000144A02EB80011C231A46C5
:100D80006846B047074600BF022D0ED0207800EB22
:100D900040000E4901EB8000807A0D4951F8202077
:100DA000214668469047074600BFBDE8FC81000029
:100DB000FC200020F4260020C13802009D370200EC
:100DC000D1410200F0250020B42600200027002099
:100DD0008453020070B503460A4648F243000021DE
:100DE00035E0C1EBC1041C4D05EB8404A47EFF2C4F
:100DF0002CD11478022C18D0C1EBC10405EB84046B
:100E0000A47E24F00204C1EBC105134E06EB850558
:100E1000AC76C1EBC104354605EB84041568256149
:100E20009588A5829579A5750DE0C1EBC1040A4DA1
:100E300005EB8404A47E24F00104C1EBC105064E39
:100E400006EB8505AC761970002002E0491C0729E5
:100E5000C7D300BF70BD0000F02500202DE9F04190
:100E600005460E4617464FF0050800241AE03DB926
:100E7000C4EBC4000E4901EB8000008BB8420CD0DB
:100E80007DB1C4EBC4010A4A02EB810101F11000FB
:100E900007222946FBF76CFB18B934604FF00008B5
:100EA00002E0641C072CE2D300BF4046BDE8F0819D
:100EB000F02500207CB50546A9B26A46074802F035
:100EC0002DFA044644B97421684602F079FA0446C2
:100ED00014B9284602F092F920467CBDFC2000207F
:100EE0002DE9F04106460F46144600BF25463DB1A8
:100EF00000BF05A240F2CB112846FDF7B5FA00BFAE
:100F000000BF0020BDE8F0812E2E5C2E2E5C2E2E20
:100F10005C6D61696E2E63007FB50546039502F036
:100F2000F3FA044600BF26463EB100BF2FA240F2AE
:100F3000E5113046FDF798FA00BF00BF03A800F0A6
:100F4000C9FB044600BF26463EB100BF27A24FF4AE
:100F5000F4713046FDF788FA00BF00BF0020CDF8DD
:100F600005008DF809009DF8050020F00100401CE7
:100F70008DF805009DF8050020F002008DF80500B1
:100F80009DF8050020F004008DF805009DF805008F
:100F900020F008008DF805009DF8050020F0700095
:100FA00030308DF805009DF8050020F080008DF8A8
:100FB000050007218DF8061010218DF807100F4845
:100FC000009001208DF8040069460D4800F034FDC2
:100FD000044600BF26463EB100BF04A24FF4FC7198
:100FE0003046FDF741FA00BF00BF7FBD2E2E5C2EBC
:100FF0002E5C2E2E5C6D61696E2E6300E10E020088
:10100000802000202DE9F0478EB00446FF200C9090
:101010004FF000094FF0000A00BFFE48007810B9F9
:101020000EB0BDE8F08700BF00BFFB48006800B904
:10103000F6E700BF0BA800F041FB054600BF2E46B7
:101040003EB100BFF54A40F6F1113046FDF70CFA0B
:1010500000BF00BF00270025201D09902C20ADF8FF
:101060002800FF208DF82E0000208DF82C000D9018
:101070002088102813D0A0880DAA0221FFF758FD60
:10108000054665B90D9800EB4000E54901EB80008D
:10109000C07A8DF82E000D98C0B28DF82D002088F2
:1010A00019287DD008DC10280DD0112879D01328FC
:1010B00078D0142877D1C7E01A2875D01E2874D0AC
:1010C0005228F7D1C0E20DAE324601214FF6FF7033
:1010D000FFF72EFD8046B8F1000F08D102203168DD
:1010E00001EB4101CE4A02EB8101887201E04FF031
:1010F000040800BF4546002D62D14FF001091120C0
:101100008DF820000D98C0B28DF82D00A0880D99A3
:1011100001EB4101C24A02EB8101088102200D99D5
:1011200001EB410102EB810188720D9800EB400058
:10113000114601EB8001A2680A60A2898A80A07B27
:101140008871E07D00F0010060B1E07DB54901EB00
:1011500050000078FF280DD0E07D01EB50000078B2
:101160000C9007E04FF6FF720CA904F10800FFF79E
:1011700075FE054625BBDDE90C0101EB4101A84ADE
:1011800002EB8101C8720D9800EB4000114601EBA3
:101190008000807A40F008000D9901EB410105E0E4
:1011A0001AE10EE099E05EE2E3E156E202EB810132
:1011B00088720C98C0B28DF82E000BA8FEF752FC76
:1011C00052E20D9800EB4000954901EB8000807AD7
:1011D00020F002000D9901EB4101914A02EB8101DF
:1011E00088720D9800EB4000114601EB8000807A78
:1011F00000F0080008280ED10D9800EB400001EB2C
:101200008000807A00F0800080280FD100210BA898
:10121000FFF770FD0AE09DF82E00FF2806D09DF82C
:101220002E0001F0EBFFFF208DF82E0010200D990D
:1012300001EB41017A4A02EB810188724FF001090A
:1012400012208DF820000FE20D9800EB4000744949
:1012500001EB8000C07AFF2824D1228A0CA900204B
:10126000FFF7FCFD0546EDB9DDE90C0101EB41019D
:101270006B4A02EB8101C8720D9800EB40001146E9
:1012800001EB8000807A40F008000D9901EB4101EC
:1012900002EB810188720C98C0B28DF82E000BA869
:1012A000FEF7E0FB0D9800EB40005D4901EB80008C
:1012B000C07AFF2805D00D98C0EBC0005A4901EB59
:1012C000800A0D99C1EBC101584B03EB8102A08844
:1012D0000023514686DF0546C6E113208DF8200025
:1012E0000D9800EB40004E4901EB8000807A40F001
:1012F00004000D9901EB4101494A02EB810188721A
:101300004FF001090D9800EB4000114601EB800001
:10131000C07AFF2842D10D9800EB400002EB80011B
:101320000CA8FFF757FD054665B90C98C0B28DF8BB
:101330002E00DDE90C0101EB4101394A02EB81018C
:10134000C87202E02F464FF00109002004900D986A
:1013500000EB4000324901EB8000C07AC0EBC000D6
:10136000324901EB800105910021069107910D980A
:10137000C0EBC0002C4901EB8000009000200190E0
:1013800002900390A0886B46234A121D00217FDF44
:10139000054615B12F464FF000091CE00D9800EBF3
:1013A00040001F4901EB8000807A40F040000D9919
:1013B00001EB41011A4A02EB8101887216208DF877
:1013C0002000A08800231A4685217FDF054615B13D
:1013D0002F464FF0000947E10F48407A20F0010006
:1013E0000D4948720D9800EB40000D4901EB80005B
:1013F000807A20F004000D9901EB4101084A02EBCC
:101400008101887214208DF820004FF00109207AA4
:1014100020B30DE00821002000270020F85302002F
:10142000F426002009210020B4260020F025002009
:101430000D9800EB4000114601EB8000807A00F02F
:101440004000402809D00D9901EB410102EB8101D8
:10145000C87AFFF72FFD0646277A89E0607AC0F345
:101460008000E0B39DF82E00FF2838D00D9800EBE7
:1014700040008C4901EB8000807A40F008000D9913
:1014800001EB4101874A02EB81018872607BC0F366
:10149000400088B19DF82E00C0EBC000824901EBEE
:1014A0008000807E20F001009DF82E10C1EBC1016C
:1014B0007D4A02EB810188760D9800EB4000794966
:1014C00001EB8000C07AFF2852D00D9800EB40005D
:1014D00011F82000022827D09DF82E0000E047E0F8
:1014E000C0EBC000704901EB80000D9901EB410198
:1014F0006C4A02EB81010A6802618A8882828979DA
:1015000081759DF82E00C0EBC000674901EB80009B
:10151000807E20F002009DF82E10C1EBC101624ACE
:1015200002EB810188761FE00D98C0EBC0005F4997
:1015300001EB8000408A9DF82E10C1EBC1015A4A90
:1015400002EB810108839DF82E00C0EBC00011461C
:1015500001EB8000807E20F001009DF82E10C1EB91
:10156000C10102EB8101887601210BA8FFF7C2FBC4
:101570007AE0207A0121B1EB101F43D1207A00F0EC
:101580000F0001283ED10D9800EB4000454901EBCA
:101590008000807A00F00800082833D10D9901EB13
:1015A000C101434A02EB810101F108001A21FAF757
:1015B000D4FF16208DF820000D9800EB400039492B
:1015C00001EB8000807A40F020000D9901EB410191
:1015D000344A02EB810188720D9800EB40001146FD
:1015E00001EB8000807A40F040000D9901EB410151
:1015F00002EB810188722F48407A40F002002D49A9
:1016000048721DE00D9800EB4000264901EB800078
:10161000807A40F080000D9901EB4101214A02EBF4
:101620008101887215208DF820002248807A224A94
:1016300052F820100BA8884705460DB148F2410723
:1016400000274FF001090FE01A48807A1A4A52F831
:1016500020100BA88847074606E013208DF82000CD
:101660004FF0010900E000BF00BFB9F1000F17D033
:101670003A4608A90BA8FCF707FF9DF8200012289E
:101680000ED100BF0D9800EB4000064901EB800031
:10169000807A012802D00D98FFF76EFA00BF00BFD4
:1016A00000BFBDE4F4260020F0250020B426002071
:1016B000D026002000270020A4530200014611B9C3
:1016C00048F20E007047FF20087048708870C8709C
:1016D0000020F7E77FB506461EB948F20E0004B0B9
:1016E00070BD002412E02046002100EB4002344B84
:1016F00043F8221000EB400203EB8202517200EB30
:10170000400203EB8202917200BF641C002CEAD0FD
:10171000002403E02046FFF72FFA641C002CF9D0C8
:1017200024212848FAF719FF002406E0204601F09A
:1017300065FDFF2024490855641C072CF6D374204E
:10174000ADF80C000720ADF80E00204802902049AB
:1017500002A801F09BFF054625BB01201D4908702A
:10176000307800BB00241BE0A1B26A46184801F0A3
:10177000D5FD05467DB9C4EBC401174A02EB8100D3
:1017800000231C22694601F007FF05463DB10020F9
:101790001049087006E000200E49087002E0641C41
:1017A000072CE1D309E0BDF80C00BDF80E20504332
:1017B00081B2074801F004FE054628468FE7000085
:1017C00000270020D026002009210020DD1702007C
:1017D000FC20002008210020F02500202DE9FF4FEB
:1017E00091B00F4692461D46DDF8789000BF8748BD
:1017F000006810B915B0BDE8F08F00BFB9F1740FE3
:1018000000D9F7E74FF0010B0DA8FFF757FF064689
:1018100000BFB046B8F1000F07D000BF7C4A40F2CD
:10182000A1514046FCF720FE00BF00BF00208DF80C
:1018300034008DF838000C95CDF82C90804614E0DB
:101840001FFA88F108AA734801F068FD064656B9E8
:10185000082208A91198FAF78BFE20B908F0FF00BA
:101860008DF8360004E008F10108B8F1070FE7D35E
:1018700000BF9DF83600FF2878D0032F0AD1B9F1B8
:10188000740F03D120208DF838009BE040208DF8A4
:10189000380097E06048281A1C21B0FBF1F4072CAF
:1018A0001BD20AA80F90BAF1000F0ED19DF8360096
:1018B00001218140594A1268114009B1012100E01B
:1018C000002111B94FF0000B7CE09DF8360003F0C9
:1018D000E1FB20208DF8380074E05148281A1C21C3
:1018E000B0FBF1F4F4B90AA80F9020208DF838006D
:1018F000E0B28DF83500002004904A490591C4EB10
:10190000C400474901EB800000909DF83600C0EB11
:10191000C000414901EB80000190CDF830D020207B
:101920000B904FE04048281A2421B0FBF1F4F4B9A1
:1019300030208DF83800E0B28DF8350001208DF8A8
:10194000370004EB4400394901EB8000807A00F055
:101950000200022836D09DF8351001EBC101324A51
:1019600002EB81002421FAF7F8FD2BE04CE04FF068
:10197000000B40208DF838002D48854203D1032705
:101980004FF0010B1EE09DF836002A4951F8200067
:10199000A84217D14FF0010B0AA80F9000200EE0CB
:1019A0009DF8361000EB4002204B03EB8202D27A06
:1019B000914203D1C1B28DF8351002E0401C0028DD
:1019C000EED000BFBBF1010F1ED1032F06D19DF851
:1019D000380040F003008DF838000EE0022F06D1E9
:1019E0009DF8380040F001008DF8380005E09DF8C2
:1019F000380040F002008DF838000AA80F905246D7
:101A00000EA90DA8FCF740FD00BFF3E6002700205B
:101A1000F8530200FC200020F025002004210020C3
:101A2000B42600200C270020D0260020F426002019
:101A3000B4530200D425002010B5024600BF284848
:101A4000007810B948F2080010BD00BF12B948F282
:101A50000E00F9E711B948F20E00F5E7086810B971
:101A600048F20E00F0E71F48006898BB1D4C08685C
:101A700020602046D1F8054044604C7A0472087911
:101A8000184CA0722046007A20F001041548047218
:101A9000007A20F00200801C124C20722046007A4E
:101AA00020F004040F480472C07920F00100401CAB
:101AB0000C4CE0712046C07920F00200801CE071DF
:101AC0002046C07920F004040648C471002010703C
:101AD000002302E0FFE748F204031846B4E70000E1
:101AE0000821002000270020014614480078144AED
:101AF000127890421DD011480078401C0F4A107097
:101B000010460078022801D1002010700D480B4AC1
:101B1000127850F8220008600B4A086812681044D6
:101B2000094A10601046006820F07F4010600120D4
:101B300070470020086000BFFAE700006421002021
:101B4000652100205C2100205821002010B50C48A0
:101B5000007800F0080078B90A480068401C09497C
:101B6000086000F093FC10B9FEF790FD06E006480F
:101B7000007802F011F901E000F0B8FE10BD00009D
:101B80003421002024210020182100200A48007858
:101B900006280ED10848001D007800F00F0040B95B
:101BA00005480830007800F0F000302801D101200D
:101BB00070470020FCE70000E00F00F013480078B9
:101BC000062820D11148001D007800F00F00D0B980
:101BD0000E480830007800F0F000302801D10120D4
:101BE00070470A480830007800F0F000402801D122
:101BF0000120F5E705480830007800F0F000502893
:101C000001D10120ECE70020EAE70000E00F00F03E
:101C10000A48007806280ED10848001D007800F018
:101C20000F0040B905480830007800F0F000302877
:101C300001D1012070470020FCE70000E00F00F018
:101C400013480078062820D11148001D007800F0C4
:101C50000F00D0B90E480830007800F0F0003028AE
:101C600001D1012070470A480830007800F0F000E8
:101C7000402801D10120F5E705480830007800F040
:101C8000F000502801D10120ECE70020EAE7000035
:101C9000E00F00F00A48007806280ED10848001D21
:101CA000007800F00F0040B905480830007800F0D7
:101CB000F000302801D1012070470020FCE700002F
:101CC000E00F00F00A48007806280ED10848001DF1
:101CD000007800F00F0040B905480830007800F0A7
:101CE000F000302801D1012070470020FCE70000FF
:101CF000E00F00F00A48007806280ED10848001DC1
:101D0000007800F00F0040B905480830007800F076
:101D1000F000502801D1012070470020FCE70000AE
:101D2000E00F00F0F0B5034600241FE0124E3068CB
:101D300006689E4203D90668F61A06601AE006682D
:101D40009B1B06683444002606600B4E35680A4F1C
:101D5000C6693E60C66846B10E1926F07F464660E9
:101D6000C66886601668C661156000BF02480068D4
:101D70000028DBD100BFF0BD5421002030B504465F
:101D80001088C01C984201D90C2030BD0220158853
:101D900048551088401C108001201588485510882F
:101DA000401C108015884C551088401C1080002065
