:020000021000EC
:10B0000000800020E9C0010011C1010013C101004E
:10B0100015C1010017C1010019C1010000000000A5
:10B020000000000000000000000000001BC1010043
:10B030001DC10100000000001FC1010021C101006D
:10B0400023C1010023C10100D91E0200E14D02000D
:10B0500023C1010023C10100BD16020023C101006C
:10B0600023C1010023C1010023C1010023C101004C
:10B0700023C1010023C1010023C1010023C101003C
:10B0800023C10100F95D020023C1010023C10100B9
:10B09000395E020023C101003570020023C10100A6
:10B0A00023C1010023C1010023C1010023C101000C
:10B0B00023C1010023C101000000000000000000C6
:10B0C00023C1010023C1010023C1010023C10100EC
:10B0D00023C1010023C1010023C1010000000000C1
:10B0E0000000000000000000000000000000000060
:10B0F0000000000000000000000000000000000050
:10B10000000000000000000000000000000000003F
:10B11000000000000000000000000000000000002F
:10B4000010B5054C237833B9044B13B10448AFF39E
:10B4100000800123237010BD6C210020000000007B
:10B420001C950200084B10B51BB108490848AFF342
:10B4300000800848036803B910BD074B002BFBD000
:10B44000BDE81040184700BF000000007021002038
:10B450001C9502006821002000000000154B002B05
:10B4600008BF134B9D46A3F5803A00218B460F463B
:10B470001348144A121A00F065F80F4B002B00D045
:10B4800098470E4B002B00D0984700200021040065
:10B490000D000D48002802D00C48AFF3008000F0EA
:10B4A0002BF82000290000F05FFD00F011F800BF2C
:10B4B00000000800008000200000000000000000E4
:10B4C0006C210020F032002000000000000000008D
:10B4D00008B5074B044613B10021AFF30080054BBC
:10B4E0001868836A03B19847204600F033F800BF1C
:10B4F00000000000DC87020070B50E4B0E4CE41A11
:10B50000A41000251E46A54204D056F825309847C1
:10B510000135F8E70DF054F9084C094BE41AA41072
:10B5200000251E46A54204D056F82530984701351F
:10B53000F8E770BD60210020602100206421002018
:10B540006021002002440346934202D003F8011B0D
:10B55000FAE77047FEE700BF76DF704700BF184686
:10B560007ADF704700BF18467CDF704700BF18467F
:10B57000A9DF704700BF18463CDF704700BF184680
:10B5800048DF704700BF184680B588B002AFF8604A
:10B59000B9607A607B687B610C4900200BF050FB3E
:10B5A0007B699A687B691B889BB219467B695B68DB
:10B5B00000930B46064900200BF042FB0549002092
:10B5C0000BF03EFB0C2002F04FF8FEE7E88702008C
:10B5D000F08702001488020080B58AB000AF78605E
:10B5E00007F11403184608F0EFF978627B6A3B62B2
:10B5F0003B6A002B04D0324A9C21386A09F03CFD9A
:10B6000007F11003184608F005FA78627B6AFB61BF
:10B61000FB69002B04D02A4A9E21F86909F02CFD11
:10B6200007F10C03184608F0A9F978627B6ABB6140
:10B63000BB69002B04D0224AA021B86909F01CFD87
:10B640007A69204B1B689A420DD07B69184608F036
:10B65000B7FA02461C4B1A601B491C4801F0B8F9A6
:10B660007B69184A13603A69194B1B689A420DD0DE
:10B670003B69184608F07EFB0246164B1A601549D6
:10B68000124801F0E3F93B69114A1360FA68124B62
:10B690001B689A420DD0FB68184608F0CDFA0246A6
:10B6A0000E4B1A600D49094801F00EFAFB680A4A70
:10B6B00013600B4B01221A7000BF2837BD4680BDB6
:10B6C0001C880200D0210020EC2000201032002035
:10B6D000D4210020F0200020D8210020F4200020D8
:10B6E000CC21002080B582B000AF7860064B1B787B
:10B6F0005A1CD1B2044A11701946044808F098FC4B
:10B7000000BF0837BD4680BDDC2100202C32002060
:10B7100080B586B000AF0023194A052100200AF049
:10B7200091FB78617B693B613B69002B04D0154A32
:10B73000CB21386909F0A0FC134A012113480AF013
:10B74000FDFBF860FB68BB60BB68002B04D00D4AB2
:10B75000CF21B86809F090FC0D4A01210D480AF08C
:10B76000EDFBF860FB687B607B68002B04D0054A2A
:10B77000D221786809F080FC00BF1837BD4680BD33
:10B78000E02100201C880200D9B50100E0870200FA
:10B79000E5B60100E487020080B586B000AF3B78D3
:10B7A000012262F303033B703B78012262F307132B
:10B7B0003B701B480CF0A4FB03469AB23B46184969
:10B7C0001846FFF7D1FE78617B693B613B69002B2E
:10B7D00004D0144AE621386909F04EFC3B1D0822CA
:10B7E00000211846FFF7AEFE1023BB802823FB8004
:10B7F00000233B814FF4C8737B813B1D1846FFF744
:10B80000AFFE78617B69FB60FB68002B04D0054AC2
:10B81000F421F86809F030FC00BF1837BD4680BD40
:10B82000508802001C88020080B500AF034801F078
:10B8300081F8034808F0D2FB00BF80BD1032002021
:10B840002C32002080B584B000AF78607B681B7814
:10B85000002B11D10A4B1B883B211846FFF77CFEB9
:10B86000F860FB68BB60BB68002B05D0054A40F25E
:10B870001311B86809F000FC00BF1037BD4680BD49
:10B88000E42000201C88020080B582B000AF786000
:10B89000044A4FF48F71786809F0EEFB00BF083757
:10B8A000BD4680BD1C88020080B58AB000AF3B1D3C
:10B8B0001C2200211846FFF745FE00237B604FF451
:10B8C0002033BB604FF47023FB6003233B740023E1
:10B8D0007B8200233B750C4BBB610C4BFB613B1D1A
:10B8E000184603F09BFC78627B6A3B623B6A002B44
:10B8F00005D0074A40F23511386A09F0BDFB00BF98
:10B900002837BD4680BD00BF45B8010089B8010099
:10B910001C88020080B584B000AF154B00224FF4A4
:10B92000803118460AF056FBF860FB68BB60BB68C4
:10B93000002B05D00F4A4FF4A071B86809F09CFBAA
:10B940000D4B00224FF4803118460AF043FBF8609B
:10B95000FB687B607B68002B05D0064A40F24311F0
:10B96000786809F089FB00BF1037BD4680BD00BF75
:10B970008C2100201C880200AC21002080B584B0FE
:10B9800000AF002001F070FEF860FB68BB60BB6890
:10B99000002B05D0124A4FF4A771B86809F06CFB70
:10B9A00002F026F8F860FB687B607B68002B05D00E
:10B9B0000B4A4FF4A971786809F05EFBFFF7DCFDD4
:10B9C000F860FB683B603B68002B05D0044A4FF4ED
:10B9D000AB71386809F050FB00BF1037BD4680BD21
:10B9E0001C88020080B584B000AF0346FB71FB7970
:10B9F000002B12D0032B00D013E0022001F034FE04
:10BA0000F860FB68BB60BB68002B09D0074A4FF4A5
:10BA1000B471B86809F030FB02E0FFF7AFFF00E057
:10BA200000BF00BF1037BD4680BD00BF1C880200AC
:10BA300080B586B000AF7860786801F06BF97B68FC
:10BA40001B88112B2BD0522B2ED0102B00D042E074
:10BA5000072001F009FE78617B693B613B69002B9F
:10BA600005D01F4A40F28111386909F005FB7B6857
:10BA70009A881C4B1A801B4B188800230022002137
:10BA8000FFF776FD78617B69FB60FB68002B1FD0B8
:10BA9000134A4FF4C271F86809F0EEFA18E0114B3E
:10BAA0004FF6FF721A8016E00E4B18880023002212
:10BAB0000021FFF75DFD78617B69BB60BB68002BEF
:10BAC00008D0074A40F28D11B86809F0D5FA01E0B4
:10BAD00000BF00E000BF00BF1837BD4680BD00BFFB
:10BAE0001C880200E420002080B582B000AF78609E
:10BAF000786804F0E7FC786803F0C6FC786801F029
:10BB00008BFF7868FFF794FF786803F0BBF97968DA
:10BB1000054800F0F5FC7968044808F099F900BF81
:10BB20000837BD4680BD00BF103200202C320020F7
:10BB300080B582B000AF7860786806F0BDFF7868A5
:10BB400003F044FA00BF0837BD4680BD80B590B011
:10BB500000AF364A07F118031068186007F11800A3
:10BB60000023482232490BF0FBF9F863FB6BBB63FF
:10BB7000BB6B002B05D02F4A4FF4E271B86B09F074
:10BB80007BFA3B1D1A46012100200BF075FA786301
:10BB90007B6B3B633B6B002B05D0264A4FF4E57172
:10BBA000386B09F069FA244BFB62F86A0BF0ACFAC7
:10BBB00078637B6BBB62BB6A002B05D01D4A40F2E9
:10BBC000CD11B86A09F058FA3B1D18460BF0C6FAB9
:10BBD00078637B6B7B627B6A002B05D0154A40F251
:10BBE000D111786A09F048FA14480BF0FBF9786330
:10BBF0007B6B3B623B6A002B05D00E4A40F2D511AD
:10BC0000386A09F039FA0E480BF000FA78637B6B5A
:10BC1000FB61FB69002B05D0064A40F2D911F86997
:10BC200009F02AFA00BF4037BD4680BD54880200A3
:10BC3000A82300201C880200E81F0020E9BA0100A8
:10BC400031BB010080B586B000AF0346FB71FB79C4
:10BC5000072B1DD00A2B02D0042B03D02DE0FFF7B9
:10BC60008DFE2AE0174B1B8813211846FFF774FC42
:10BC700078617B69082B1DD07B693B613B69002B98
:10BC800018D0114A4FF4F771386909F0F5F911E04D
:10BC900003F0CCF978617B69082B0DD07B69FB60E0
:10BCA000FB68002B08D0084A4FF4FB71F86809F0D4
:10BCB000E3F901E000BF00E000BF00BF1837BD4658
:10BCC00080BD00BFE42000201C88020080B586B043
:10BCD00000AFF860B9607A607B687B617B69002B9C
:10BCE00005D0054A4FF40271786909F0C5F90023BF
:10BCF00018461837BD4680BD1C88020080B58AB042
:10BD000000AF0346FB71FB793B7507F037F87862AB
:10BD10007B6A3B623B6A002B05D02B4A40F2222112
:10BD2000386A09F0A9F907F11403184604F070FA0B
:10BD300078627B6AFB61FB69002B05D0224A40F2E6
:10BD40002521F86909F098F907F108030533052260
:10BD500000211846FFF7F6FB7B7B43F001037B7362
:10BD60007B7B6FF341037B737B7B6FF382037B737E
:10BD70007B7B6FF3C3037B737B7B032262F306132E
:10BD80007B737B7B6FF3C7137B730723BB7310231A
:10BD9000FB730E4BBB6001233B7307F1080319468D
:10BDA0000B4804F0D1FA78627B6ABB61BB69002B57
:10BDB00005D0054A40F23521B86909F05DF900BFA8
:10BDC0002837BD4680BD00BF1C880200CDBC0100E5
:10BDD0008821002080B59CB002AF07F128033822EB
:10BDE00000211846FFF7AEFB022387F82830012315
:10BDF00087F82A30062387F82B3001233B87144B22
:10BE0000FB633B1D242200211846FFF79BFB012307
:10BE10003B744FF4AF737B610023BB613A1D07F1A4
:10BE20002800002300930B4B002102F075FD78667B
:10BE30007B6E3B663B6E002B05D0074A40F24F21DC
:10BE4000386E09F019F900BF6837BD4680BD00BFE4
:10BE5000E8200020E5B901001C88020080B586B00A
:10BE600000AF7860174A40F6CD41032001F016FC80
:10BE700078617B693B613B69002B05D0124A40F237
:10BE80005E21386909F0F8F807F10B031946002024
:10BE900001F006FE78617B69FB60FB68002B05D032
:10BEA000094A40F26121F86809F0E6F8FB7A022BB2
:10BEB0000CBF01230023DAB27B681A7000BF183769
:10BEC000BD4680BD45BC01001C88020080B582B023
:10BED00000AFFFF755FB78607B683B603B68002B49
:10BEE00005D0054A4FF41B71386809F0C5F800BF4A
:10BEF0000837BD4680BD00BF1C88020080B582B0F7
:10BF000000AF78603960786807F00EFC00BF083732
:10BF1000BD4680BD90B587B000AF0F4B3C460FCB00
:10BF200084E80F00394600230C4A0D4808F03AFB1C
:10BF300078617B693B613B69002B05D0094A4FF46E
:10BF40002271386909F098F8054808F0A5FB00BF90
:10BF50001C37BD4690BD00BF58880200FDBE0100E1
:10BF6000F82000201C8802002DE9B04396B004AFF1
:10BF7000534A544900200AF063FEFFF7CBFF5248B2
:10BF800007F0B4FC78647B6C3B643B6C002B05D001
:10BF90004E4A40F29B21386C09F06EF803230122CF
:10BFA0000121012007F0B2FC78647B6CFB63FB6B22
:10BFB000002B05D0454A40F29E21F86B09F05CF851
:10BFC00007F046FD78647B6CBB63BB6B002B05D030
:10BFD0003E4A40F2A121B86B09F04EF8FFF798FBFA
:10BFE00007F12F031846FFF739FFFFF7AFFD97F86A
:10BFF0002F301846FFF782FEFFF7CEFBFFF7EAFE71
:10C00000FFF712FCFFF750FCFFF784FC032002F05F
:10C01000B1FD786301233B633B6B002B05D02B4ABA
:10C0200040F2B221386B09F027F8294B1B78DBB2BC
:10C03000002B42D0274B1B6818460BF073FD0346BC
:10C04000254918460BF07AFE034618460BF02EFAE7
:10C0500080468946214B1B6818460BF063FD03465A
:10C060004FF0894118460BF069FE034618460BF065
:10C070001DFA04460D461A4B1B6818460BF052FD7C
:10C080000346154918460BF059FE034618460BF0B7
:10C090000DFA02460B46381DCDE90223CDE90045D5
:10C0A00042464B460F490BF0FFFE3B1D1946002050
:10C0B0000AF0C6FD064B00221A70FFF707FFB4E72F
:10C0C0006888020074880200F82000201C880200A2
:10C0D000CC210020EC2000200000C842F0200020ED
:10C0E000F4200020888802000649074A074B9B1A63
:10C0F00003DD043BC858D050FBDC00F021F8FFF70B
:10C10000ADF9000028950200802000206C2100205D
:10C11000FEE7FEE7FEE7FEE7FEE7FEE7FEE7FEE7F7
:10C12000FEE7FEE780B400AF034B044A1A6000BF8D
:10C13000BD4680BC704700BF002100200090D003A6
:10C1400080B500AF00F062F80346002B02D0254B0B
:10C15000254A1A6000F07AF80346002B06D0234ADD
:10C16000234B1B6803F460435B0B136000F09EF8E5
:10C170000346002B05D01F4A1E4BDB6823F080735B
:10C18000D36000F0B3F80346002B0ED04FF080438D
:10C190000022C3F80C214FF080430022C3F8102185
:10C1A0004FF080430022C3F8382500F0CFF8034653
:10C1B000002B02D0104B03221A6000F0E7F8034670
:10C1C000002B0BD00D4B05221A600D4B01221A607B
:10C1D0000C4B00221A600C4B3F221A60FFF7A2FFA3
:10C1E00000BF80BD74C007400DF0ADBA3C050040F3
:10C1F00044020010F0ED00E0A005004010560040A1
:10C2000088560040185600401456004080B400AFD5
:10C210000B4B1B68DBB2062B0DD10A4B1B6803F0DE
:10C220000F03002B07D1084B1B6803F0F003302BE2
:10C2300001D1012300E000231846BD4680BC7047B1
:10C24000E00F00F0E40F00F0E80F00F080B400AF62
:10C25000134B1B68DBB2062B1DD1124B1B6803F07E
:10C260000F03002B17D1104B1B6803F0F003302B8A
:10C2700001D1012310E00C4B1B6803F0F003402BAD
:10C2800001D1012308E0084B1B6803F0F003502B99
:10C2900001D1012300E000231846BD4680BC704751
:10C2A000E00F00F0E40F00F0E80F00F080B400AF02
:10C2B0000B4B1B68DBB2062B0DD10A4B1B6803F03E
:10C2C0000F03002B07D1084B1B6803F0F003302B42
:10C2D00001D1012300E000231846BD4680BC704711
:10C2E000E00F00F0E40F00F0E80F00F080B400AFC2
:10C2F000134B1B68DBB2062B1DD1124B1B6803F0DE
:10C300000F03002B17D1104B1B6803F0F003302BE9
:10C3100001D1012310E00C4B1B6803F0F003402B0C
:10C3200001D1012308E0084B1B6803F0F003502BF8
:10C3300001D1012300E000231846BD4680BC7047B0
:10C34000E00F00F0E40F00F0E80F00F080B400AF61
:10C350000B4B1B68DBB2062B0DD10A4B1B6803F09D
:10C360000F03002B07D1084B1B6803F0F003302BA1
:10C3700001D1012300E000231846BD4680BC704770
:10C38000E00F00F0E40F00F0E80F00F080B400AF21
:10C390000B4B1B68DBB2062B0DD10A4B1B6803F05D
:10C3A0000F03002B07D1084B1B6803F0F003302B61
:10C3B00001D1012300E000231846BD4680BC704730
:10C3C000E00F00F0E40F00F0E80F00F0A0DF70478E
:10C3D00000BF1846A2DF704700BF1846A5DF7047B0
:10C3E00000BF1846A6DF704700BF184663DF7047DE
:10C3F00000BF184680B58AB000AF7860396002236C
:10C400003B8200237B8207F10E037B613B68DA8865
:10C410007B681B899A421ED17B6818887B681B89C0
:10C4200007F110021946FFF7D9FF78627B6A3B6279
:10C430003B6A002B04D02E4A2721386A08F01CFEE4
:10C44000FB89012B03D12B4B01221A704CE0294BA5
:10C4500000221A7048E03B68DA887B681B8A9A429F
:10C460001ED17B6818887B681B8A07F11002194669
:10C47000FFF7B4FF78627B6AFB61FB69002B04D095
:10C480001B4A3421F86908F0F7FDFB89012B03D121
:10C49000194B01221A7027E0174B00221A7023E073
:10C4A0003B68DA887B681B8B9A421DD17B681888B1
:10C4B0007B681B8B07F110021946FFF78FFF78622C
:10C4C0007B6ABB61BB69002B04D0094A4121B86972
:10C4D00008F0D2FDFB89012B03D1084B01221A7011
:10C4E00002E0064B00221A7000BF2837BD4680BD0F
:10C4F000B088020038320020393200203A32002061
:10C5000080B582B000AF786039603B681B88112B22
:10C5100009D0502B0CD0102B00D00EE03B689A882D
:10C520007B681A8009E07B684FF6FF721A8004E08E
:10C5300039687868FFF75EFF00BF00BF0837BD4667
:10C5400080BD00BF80B594B000AF78600023FB646D
:10C55000012387F846304EF25E53A7F8443007F1C6
:10C5600028031C2200211846FEF7ECFF97F828301C
:10C5700043F0020387F8283007F124030322002147
:10C580001846FEF7DFFF97F82430012262F3030319
:10C5900087F8243097F82430012262F3071387F8D4
:10C5A000243097F82530012262F3030387F8253001
:10C5B00097F82530012262F3071387F8253097F8A2
:10C5C0002630012262F3420387F8263007F1240364
:10C5D000FB6397F8283043F0100387F8283007F101
:10C5E0002003032200211846FEF7ACFF97F8223003
:10C5F000012262F3420387F8223097F820300122AB
:10C6000062F3030387F8203097F82030012262F3A9
:10C61000071387F8203097F821306FF3030387F86A
:10C62000213097F821306FF3071387F8213007F195
:10C630000C03142200211846FEF784FF07F144037F
:10C64000FB6007F120033B6104233B830423BB828F
:10C650000023BB6007F10803FB617B6858887B6897
:10C66000143307F10C0207F12801FFF7B3FEF86459
:10C67000FB6CBB64BB6C002B04D0054A8D21B86CED
:10C6800008F0FAFC002318465037BD4680BD00BFB5
:10C69000B088020080B594B000AF78600023FB64DE
:10C6A000012387F8463040F2D113A7F8443007F150
:10C6B00028031C2200211846FEF744FF97F8283073
:10C6C00043F0020387F8283007F1240303220021F6
:10C6D0001846FEF737FF97F82430012262F3030370
:10C6E00087F8243097F82430012262F3071387F883
:10C6F000243097F82530012262F3030387F82530B0
:10C7000097F82530012262F3071387F8253097F850
:10C710002630012262F3420387F8263007F1240312
:10C72000FB6397F8283043F0100387F8283007F1AF
:10C730002003032200211846FEF704FF97F8223059
:10C74000012262F3420387F8223097F82030012259
:10C7500062F3030387F8203097F82030012262F358
:10C76000071387F8203097F821306FF3030387F819
:10C77000213097F821306FF3071387F8213007F144
:10C780000C03142200211846FEF7DCFE07F14403D7
:10C79000FB6007F120033B6104233B830423BB823E
:10C7A0000023BB6007F10803FB617B6858887B6846
:10C7B0000C3307F10C0207F12801FFF70BFEF864B8
:10C7C000FB6CBB64BB6C002B04D0054AC121B86C68
:10C7D00008F052FC002318465037BD4680BD00BF0C
:10C7E000B088020080B594B000AF78600023FB648D
:10C7F000012387F846304EF6AE63A7F8443007F1C0
:10C8000028031C2200211846FEF79CFE97F82830CA
:10C8100043F0020387F8283007F1240303220021A4
:10C820001846FEF78FFE97F82430012262F30303C7
:10C8300087F8243097F82430012262F3071387F831
:10C84000243097F82530012262F3030387F825305E
:10C8500097F82530012262F3071387F8253097F8FF
:10C860002630012262F3420387F8263007F12403C1
:10C87000FB6397F8283043F0100387F8283007F15E
:10C880002003032200211846FEF75CFE97F82230B1
:10C89000012262F3420387F8223097F82030012208
:10C8A00062F3030387F8203097F82030012262F307
:10C8B000071387F8203097F821306FF3030387F8C8
:10C8C000213097F821306FF3071387F8213007F1F3
:10C8D0000C03142200211846FEF734FE07F144032E
:10C8E000FB6007F120033B6104233B830423BB82ED
:10C8F0000023BB6007F10803FB617B6858887B68F5
:10C90000043307F10C0207F12801FFF763FDF86417
:10C91000FB6CBB64BB6C002B04D0054AF521B86CE2
:10C9200008F0AAFB002318465037BD4680BD00BF63
:10C93000B088020090B58BB000AF7860224B07F151
:10C940000804186859689A68DB680FC44FF20D0331
:10C950003B8307F118039A1C07F108031146184698
:10C96000FFF744FD78627B6A3B623B6A002B05D08F
:10C97000164A4FF48471386A08F07EFB7B684FF6E4
:10C98000FF721A807B689A1C07F118031946012070
:10C99000FFF71CFD78627B6AFB61FB69002B05D009
:10C9A0000A4A4FF48871F86908F066FB7868FFF767
:10C9B00019FF7868FFF76EFE7868FFF7C3FD00BFC8
:10C9C0002C37BD4690BD00BFEC880200B088020045
:10C9D00080B588B000AF786039607B681B884FF6FF
:10C9E000FF7293422AD0174B1B78DBB2002B25D065
:10C9F00004237B8307F10803102200211846FEF769
:10CA0000A1FD7B689B883B810123BB720023BB8116
:10CA100007F11A033B613B687B617B681B8807F168
:10CA2000080211461846FFF7DDFCF861FB69002B90
:10CA300004D0FA69044900200AF002F900BF203747
:10CA4000BD4680BD38320020FC88020080B588B029
:10CA500000AF786039607B681B884FF6FF729342A5
:10CA60002AD0174B1B78DBB2002B25D004237B8305
:10CA700007F10803102200211846FEF763FD7B68CA
:10CA80009B893B810123BB720023BB8107F11A0301
:10CA90003B613B687B617B681B8807F1080211469C
:10CAA0001846FFF79FFCF861FB69002B04D0FA6978
:10CAB000044900200AF0C4F800BF2037BD4680BDFD
:10CAC000393200201489020080B588B000AF786048
:10CAD00039607B681B884FF6FF7293422AD0174B50
:10CAE0001B78DBB2002B25D004237B8307F10803DE
:10CAF000102200211846FEF725FD7B689B8A3B81AA
:10CB00000123BB720023BB8107F11A033B613B6821
:10CB10007B617B681B8807F1080211461846FFF706
:10CB200061FCF861FB69002B04D0FA69044900201C
:10CB30000AF086F800BF2037BD4680BD3A3200209B
:10CB40002C89020090B583B000AF78607B681B88A9
:10CB5000103B3F4A52F823301A463E4900200AF063
:10CB60006FF87B689B881A463B4900200AF068F8FA
:10CB70007B681B88112B5AD0122B2DD0102B00D084
:10CB800061E07B681B8B18460AF07EFC4FF00002C8
:10CB9000324B0AF0DFFC03460C46184621460AF0E9
:10CBA000EBFE03469BB21A462D4900200AF048F8D6
:10CBB0007B68DB8B1A4613469B0013445B001A46C6
:10CBC000284900200AF03CF87B689B8B1A462649CE
:10CBD00000200AF035F836E07B681B8918460AF019
:10CBE00053FC4FF000021D4B0AF0B4FC03460C4608
:10CBF000184621460AF0C0FE03469BB21A46184961
:10CC000000200AF01DF87B68DB891A4613469B005A
:10CC100013445B001A46134900200AF011F87B68A0
:10CC20009B891A46104900200AF00AF80BE07B683D
:10CC30001B7A123B0D4A52F823301A460C49002049
:10CC400009F0FEFF00BF00BF0C37BD4690BD00BF1E
:10CC50000421002074900200849002000000F43F40
:10CC60009C900200B4900200CC9002004821002069
:10CC7000E0900200B0B58AB002AF78607B689B8814
:10CC8000FB837B6807F108041D1D0FCD0FC42B68C3
:10CC900023807B681B88BB83BB8B512B04D0522B1A
:10CCA00024D0502B13D029E0BB7A012B07D1BB89AC
:10CCB0001A46FB891349002009F0C2FF1EE0BB8918
:10CCC0001A46FB891049002009F0BAFF16E07B687C
:10CCD000DB881A467B681B8919467B6812330093F0
:10CCE0000B460A49002009F0ABFF07E07B689B79FF
:10CCF0001A460749002009F0A3FF00BF00BF2037F4
:10CD0000BD46B0BDE89002000C91020030910200D7
:10CD10006091020080B584B000AF78607B681B88AA
:10CD2000FB60FA682249002009F08AFFFB680F2B9C
:10CD300006D9FB682F2B03D87868FFF703FF32E092
:10CD4000FB684F2B06D9FB686F2B03D87868FFF779
:10CD500091FF28E0FB682F2B0ED9FB684F2B0BD8D7
:10CD60007B681B88303B134A52F823301A4612491D
:10CD7000002009F065FF16E0FB68002B0ED0FB6871
:10CD80000F2B0BD87B681B88013B0C4A52F82330D1
:10CD90001A460B49002009F053FF04E0FA680949DC
:10CDA000002009F04DFF00BF1037BD4680BD00BF19
:10CDB0007091020040210020809102004421002057
:10CDC0008C9102009891020080B485B000AF786029
:10CDD00039607B68032B17D84FF0A043D3F8103588
:10CDE000DB43FB600D4A7B6852F82330012202FAD4
:10CDF00003F31A46FB681340002B14BF01230023E2
:10CE0000DAB23B681A7002E03B6800221A70002315
:10CE100018461437BD4680BC704700BFBC91020065
:10CE200080B586B000AF03460A46FB711346BB715E
:10CE30000023FB7500233B6102E03B6901333B614A
:10CE40003B69032B06D83D4A3B6952F82320FB7906
:10CE50009A42F2D13B69032B60D8BB79012B04D0F5
:10CE6000022B50D0002B32D058E035493A69134696
:10CE70005B0013440B441B78FB7531493A69134638
:10CE80005B0013440B4401331B78002B11D02D4859
:10CE90002D4B1A6813469B0013445B002B4A19461E
:10CEA00009F098F8F860FB68002B02D1274AFB795B
:10CEB000137023493A6913465B0013440B44023351
:10CEC0001978234A3B6913440A461A7026E01D4B21
:10CED000184609F0B5F81E4A3B69134419781848FA
:10CEE0003A6913465B001344034402331B789942AA
:10CEF00013D113493A6913465B0013440B440233C0
:10CF00001B78FB7509E00E493A6913465B00134430
:10CF10000B4401331B78FB7500E000BFFB7D002B49
:10CF200008D00C4B1B68002B04D00A4B1B68FA7D01
:10CF30001046984700BF1837BD4680BDBC9102001F
:10CF40004424002050240020F423002070240020DA
:10CF5000742400204024002080B582B000AF7860A7
:10CF60007B681B7802211846FFF75AFF00BF08377D
:10CF7000BD4680BD80B588B000AF0346FB7100237D
:10CF8000FB610023BB61FB79172B00F2248301A214
:10CF900052F823F0F5CF010019D0010019D001009B
:10CFA000BFD0010065D10100F5D1010099D2010087
:10CFB00025D301005FD3010099D30100D9D301002B
:10CFC00013D4010053D4010071D4010071D40100C5
:10CFD00071D4010071D4010071D40100FFD40100AB
:10CFE0001DD5010051D5010085D50100B9D501003D
:10CFF000B9D501004FF0A042C54B1B68DB4303F4D9
:10D00000F013C2F808354FF0A0430022C3F80C25F6
:10D01000C04AFB791370DFE24FF0A042BC4B1B68A3
:10D02000DB4303F4E013C2F808354FF0A0430022BD
:10D03000C3F80C254FF0A043D3F8043583F4F01364
:10D0400003F40033002B14D04FF0A0434FF4003210
:10D05000C3F808254FF0A0430022C3F80C25FB7944
:10D06000022B02D14FF4E16301E04FF47A63BB611C
:10D0700012E04FF0A0434FF40032C3F80C254FF0FC
:10D08000A0430022C3F80825FB79022B01D1C82355
:10D0900001E04FF4C873BB619E4AFB7913709E4850
:10D0A000BB699E4AA2FB03235B099D4A126802FBEF
:10D0B00003F30022194608F08DFFF8618CE24FF06F
:10D0C000A042934B1B68DB4303F4E013C2F808351E
:10D0D0004FF0A0430022C3F80C254FF0A043D3F833
:10D0E000043583F4F01303F40033002B14D04FF015
:10D0F000A0434FF40032C3F808254FF0A0430022AC
:10D10000C3F80C25FB79032B02D14FF4487301E0DF
:10D110004FF47A63BB6112E04FF0A0434FF400324A
:10D12000C3F80C254FF0A0430022C3F80825FB7973
:10D13000032B01D1C82301E04FF4C873BB61754ACA
:10D14000FB7913707448BB69744AA2FB03235B0923
:10D15000734A126802FB03F30022194608F03AFFF3
:10D16000F86139E24FF0A042694B1B68DB4303F4DE
:10D17000E013C2F808354FF0A0430022C3F80C2595
:10D180004FF0A043D3F8043583F4F01303F40033D5
:10D19000002B0ED04FF0A0434FF40032C3F8082507
:10D1A0004FF0A0430022C3F80C254FF47A63BB6113
:10D1B0000DE04FF0A0434FF40032C3F80C254FF0C0
:10D1C000A0430022C3F808254FF4C873BB61514A3D
:10D1D000FB7913705048BB69504AA2FB03235B09DB
:10D1E0004F4A126802FB03F30022194608F0F2FED0
:10D1F000F861F1E14FF0A042454B1B68DB4303F4BB
:10D20000E013C2F808354FF0A0430022C3F80C2504
:10D210004FF0A043D3F8043583F4F01303F4003344
:10D22000002B13D04FF0A0434FF40032C3F8082571
:10D230004FF0A0430022C3F80C25FB79052B01D148
:10D24000C82301E04FF47A63BB6112E04FF0A043C2
:10D250004FF40032C3F80C254FF0A0430022C3F86E
:10D260000825FB79052B01D1C82301E04FF4C873D1
:10D27000BB61284AFB7913702748BB69274AA2FB88
:10D2800003235B09264A126802FB03F300221946B6
:10D2900008F0A0FEF8619FE14FF0A0421C4B1B6814
:10D2A000DB4303F4E013C2F808354FF0A04300223B
:10D2B000C3F80C254FF0A043D3F8043583F4F013E2
:10D2C00003F40033002B0BD04FF0A0434FF4003297
:10D2D000C3F808254FF0A0430022C3F80C250AE04C
:10D2E0004FF0A0434FF40032C3F80C254FF0A04399
:10D2F0000022C3F80825074AFB7913700648084B3B
:10D300001B680022194608F065FEF86164E100BF61
:10D31000FC230020F0230020002400201F85EB5177
:10D32000F42300204FF0A042AE4B1B68DB4303F414
:10D33000E013C2F808354FF0A0430022C3F80C25D3
:10D340004FF0A0434FF40032C3F80C254FF0A04338
:10D350000022C3F80825A44AFB7913703CE14FF082
:10D36000A043D3F804357B614FF0A0427B69DB43D7
:10D3700003F48023C2F808354FF0A0427B6903F420
:10D380008023C2F80C359948994B1B680022194636
:10D3900008F020FEF8611FE14FF0A043D3F80435F8
:10D3A0003B614FF0A0423B69DB4303F48023C2F8AA
:10D3B00008354FF0A0423B6903F48023C2F80C35D6
:10D3C0008A488B4B1A6813469B0013440022194667
:10D3D00008F000FEF861FFE04FF0A043D3F80435F9
:10D3E000FB604FF0A042FB68DB4303F48023C2F8EC
:10D3F00008354FF0A042FB6803F48023C2F80C35D7
:10D400007A487B4B1B680022194608F0E3FDF8615F
:10D41000E2E04FF0A043D3F80435BB604FF0A042E8
:10D42000BB68DB4303F48023C2F808354FF0A04209
:10D43000BB6803F48023C2F80C356C486C4B1A6847
:10D4400013469B0013440022194608F0C3FDF861FF
:10D45000C2E04FF0A0434FF4F012C3F80C254FF098
:10D46000A0430022C3F808255F4AFB791370B3E09C
:10D47000604B184608F0E4FDF861FB79C3F1110335
:10D48000BB61BB69002B29D0FB69002B26D1554B12
:10D490004FF400221A60BB69012B11D95548BB69B2
:10D4A000C82202FB03F3544AA2FB03235B09504A40
:10D4B000126802FB03F30022194608F08BFDF861A5
:10D4C0004FF0A042474B1B6803F4F013C2F80C3531
:10D4D0004FF0A0430022C3F808257DE04FF0A042A2
:10D4E000404B1B6803F4F013C2F808354FF0A0431B
:10D4F0000022C3F80C253B4B00221A606CE04FF071
:10D50000A0434FF4F012C3F808254FF0A0430022C7
:10D51000C3F80C25344AFB7913705DE04FF0A0434B
:10D520004FF4E012C3F808254FF0A0430022C3F8DF
:10D530000C254FF0A0434FF40032C3F80C254FF0F8
:10D54000A0430022C3F80825274AFB79137043E063
:10D550004FF0A0434FF4D012C3F808254FF0A0437A
:10D560000022C3F80C254FF0A0434FF48022C3F8EB
:10D570000C254FF0A0430022C3F808251A4AFB7976
:10D58000137029E04FF0A0434FF4C012C3F80825F0
:10D590004FF0A0430022C3F80C254FF0A0434FF4F6
:10D5A000C022C3F80C254FF0A0430022C3F8082581
:10D5B0000D4AFB7913700FE04FF0A0434FF4F012C7
:10D5C000C3F80C254FF0A0430022C3F80825064AF3
:10D5D000FB79137000E000BFFB6918462037BD4699
:10D5E00080BD00BFFC230020F02300200024002089
:10D5F000F4230020202400201F85EB5180B582B049
:10D6000000AF7860074B1B6803F00103002B04D0C8
:10D61000054B1B781846FFF7ADFC00BF0837BD4629
:10D6200080BD00BFF8230020F023002080B485B027
:10D6300000AF78604FF0A043D3F80435FB604FF0A3
:10D64000A042FB68DB4303F40023C2F808354FF027
:10D65000A042FB6803F40023C2F80C3500BF143766
:10D66000BD4680BC704700BF80B584B000AF0346A4
:10D67000FB710023FB60084B1B6803F00103002BC8
:10D6800004D0FB791846FFF775FCF860FB68184674
:10D690001037BD4680BD00BFF823002080B586B09E
:10D6A00000AFF860B9607A6000237B61334ABB68E1
:10D6B0001360334AFB681360324A7B681360FB686F
:10D6C00003F00203002B2BD000233B6108E0012272
:10D6D0000121386900F066F878613B6901333B61EC
:10D6E0003B69032B02D87B69002BF0D07B69002BB0
:10D6F00007D1BB685B081A460421234807F030FCB9
:10D7000078617B69002B02D107F094FC78617B691A
:10D71000002B05D11D4A00211D4808F00FFC78613F
:10D72000FB6803F00103002B10D04FF0A0434FF42F
:10D73000F012C3F808254FF0A0430022C3F80C25CF
:10D740004FF0A0434FF4F012C3F818257B69002B6B
:10D7500005D1104A0021104808F0F0FB78617B6980
:10D76000002B05D10D4A01210D4808F0E7FB786137
:10D770007B6918461837BD4680BD00BFF4230020E2
:10D78000F823002040240020CC91020059CF010052
:10D79000B8910200FDD50100B09102002DD6010024
:10D7A000B491020080B485B000AF78600B46FB7086
:10D7B0001346BB700023FB607B68032B35D8BB7816
:10D7C000012B09D1FB78012B04D17B68DBB20D332F
:10D7D000DBB200E00023BB70FB78012B04D0022BEE
:10D7E0000BD0002B13D01CE014497A6813465B0061
:10D7F00013440B44BA781A7019E010497A6813463A
:10D800005B0013440B440133BA781A700FE00B49E4
:10D810007A6813465B0013440B440233BA781A70DB
:10D8200005E00723FB6000BF01E00723FB60FB6806
:10D8300018461437BD4680BC704700BF4424002002
:10D8400080B487B000AF786000237B612EE04FF09A
:10D85000A0421B497B6951F8233003F5E07352F86D
:10D8600023303B6101227B6902FA03F31A467B688D
:10D870001340002B01D0032300E00023FB603B6931
:10D8800023F440333B61FB681B043A6913433B615B
:10D890004FF0A0410A4A7B6952F8233003F5E07348
:10D8A0003A6941F823207B6901337B617B69032B53
:10D8B000CDD9002318461C37BD4680BC704700BF39
:10D8C000BC91020080B582B000AF0122002100208F
:10D8D000FFF768FF78607B68002B04D07B68072B1C
:10D8E00001D07B681CE0072202210120FFF75AFFCC
:10D8F00078607B68002B04D07B68072B01D07B68A5
:10D900000EE0042202210020FFF74CFF78607B68C4
:10D91000002B04D07B68072B01D07B6800E000233C
:10D9200018460837BD4680BD80B582B000AF0122E1
:10D9300002210020FFF736FF78607B68002B04D0BF
:10D940007B68072B01D07B681CE0072202210120A5
:10D95000FFF728FF78607B68002B04D07B68072BDB
:10D9600001D07B680EE00A2200210020FFF71AFF99
:10D9700078607B68002B04D07B68072B01D07B6824
:10D9800000E0002318460837BD4680BD80B584B04E
:10D9900000AF786007F10B0319460020FFF714FA77
:10D9A000F860FB68002B01D0FB681DE007F10A035B
:10D9B00019460120FFF708FAF860FB68002B01D038
:10D9C000FB6811E0BB7A002B03D07B6802221A703F
:10D9D00009E0FB7A002B03D07B680B221A7002E06F
:10D9E0007B6800221A70002318461037BD4680BDA0
:10D9F00080B582B000AF0320FFF722FF78607B681C
:10DA0000002B04D07B68062B01D07B6800E000234C
:10DA100018460837BD4680BD80B584B000AF786039
:10DA20007B681B88102B02D0112B18D02FE01A4BCB
:10DA30001B68002B0DD1FFF745FFF860FB68002B3A
:10DA400007D0164B1B68002B03D0144B1B68F868DB
:10DA50009847114B1B6801330F4A136017E00E4BB8
:10DA60001B68013B0C4A13600B4B1B68002B0DD14C
:10DA7000FFF75AFFF860FB68002B07D0074B1B68C5
:10DA8000002B03D0054B1B68F868984700BF00BF08
:10DA90001037BD4680BD00BF7C24002078240020C4
:10DAA00080B584B000AF786039600023FB600D4A18
:10DAB0007B6813603B68002B08D03868FFF766FF6F
:10DAC000F860FB68002B01D0FB6807E0064B1B6881
:10DAD000002B02D1FFF728FFF860FB6818461037CB
:10DAE000BD4680BD782400207C24002071DF704773
:10DAF00000BF184672DF704700BF184679DF7047D5
:10DB000000BF18467DDF704700BF184665DF7047CD
:10DB100000BF184680B483B000AF03463960FB8075
:10DB2000FB88DAB23B681A703B680133FA88120A44
:10DB300092B2D2B21A70022318460C37BD4680BC8E
:10DB4000704700BF80B487B000AFF860B9607A60FA
:10DB50007B807B681B8803F112027B889A4201D983
:10DB60000C2337E07B681B881A46BB6813441122DC
:10DB70001A707B681B8801339AB27B681A807B68B5
:10DB80001B881A46BB68134410221A707B681B88D6
:10DB900001339AB27B681A800F23FB7515E07B680E
:10DBA0001B881A46BB68134497F91720F9688A5CEA
:10DBB0001A7097F91730DBB2013BDBB2FB757B685B
:10DBC0001B8801339AB27B681A8097F91730002BB3
:10DBD000E5DA002318461C37BD4680BC704700BFFD
:10DBE00080B485B000AFB9607A601A460346FB7313
:10DBF0001346BB817B681B88DA1CBB899A4201D91A
:10DC00000C2352E07B681B881A46BB68134402222F
:10DC10001A707B681B8801339AB27B681A807B6814
:10DC20001B881A46BB6813441C221A707B681B8829
:10DC300001339AB27B681A80FB7B013B032B2BD804
:10DC400001A252F823F000BF59DC010069DC010099
:10DC500079DC010089DC01007B681B881A46BB68FF
:10DC6000134400221A7019E07B681B881A46BB68AF
:10DC7000134401221A7011E07B681B881A46BB68A6
:10DC8000134402221A7009E07B681B881A46BB689D
:10DC9000134403221A7001E0072306E07B681B8807
:10DCA00001339AB27B681A80002318461437BD46A8
:10DCB00080BC704780B588B000AFF860B96013468B
:10DCC000FB80BB681B8803F10902FB889A4201D9DB
:10DCD0000C234FE007F114031846FFF707FFF86124
:10DCE000FB69002B01D0FB6944E0BB681B881A4626
:10DCF000FB68134408221A70BB681B8801339AB270
:10DD0000BB681A80BB681B881A46FB6813441B2239
:10DD10001A70BB681B8801339AB2BB681A80BB6853
:10DD20001B881A46FB68981807F114030133062272
:10DD300019460AF0AEF8BB681B8806339AB2BB6876
:10DD40001A803B7D002B07D1BB681B881A46FB68F5
:10DD5000134400221A7006E0BB681B881A46FB6851
:10DD6000134401221A70BB681B8801339AB2BB6846
:10DD70001A80002318462037BD4680BD80B588B084
:10DD800000AFF860B9607A607B80FB681B78012B7C
:10DD900005D1FB685B78002B01D1072377E07B6816
:10DDA0001B889A1C7B889A420DD8FB681B78012B34
:10DDB0000BD17B681B881A46FB685B7813449A1C5E
:10DDC0007B889A4201D90C2361E07B681B887A88A2
:10DDD000D31A9BB2023BBB83BB8BFB827B681B8845
:10DDE0000233BA68134407F1160211461846FFF7CA
:10DDF00089FEB861BB69002B01D0BB6947E0FB68B5
:10DE00001B78022B06D1FB8ABA8B9A4202D30923D4
:10DE1000FB7712E00823FB77FB681B78012B0AD104
:10DE2000FB685B789BB2BA8B9A4204D3FB685B7841
:10DE30009BB2FB8201E0BB8BFB82FB8AFE2B01D9EC
:10DE40000C2324E07B681B881A46BB681344FA8ABB
:10DE5000D2B20132D2B21A707B681B8801339AB2F7
:10DE60007B681A807B681B881A46BB681344FA7F5C
:10DE70001A707B681B8801339AB27B681A807B68B2
:10DE80001A88FB8A13449AB27B681A8000231846CA
:10DE90002037BD4680BD00BF80B586B000AFF860BA
:10DEA000B9601346FB80BB681B881A1DFB889A4229
:10DEB00001D90C2338E007F112031846FFF71EFEC4
:10DEC00078617B69002B01D07B692DE0BB681B88E2
:10DED0001A46FB68134403221A70BB681B8801337F
:10DEE0009AB2BB681A80BB681B881A46FB68134449
:10DEF00019221A70BB681B8801339AB2BB681A805A
:10DF00007A8ABB681B881946FB680B441946104681
:10DF1000FFF700FE03461946BB681A888BB213440C
:10DF20009AB2BB681A80002318461837BD4680BDD8
:10DF300080B485B000AFB9607A601A460346FB73BF
:10DF40001346BB817B681B88DA1CBB899A4201D9C6
:10DF50000C2327E07B681B881A46BB681344022207
:10DF60001A707B681B8801339AB27B681A807B68C1
:10DF70001B881A46BB68134401221A707B681B88F1
:10DF800001339AB27B681A807B681B881A46BB688B
:10DF90001344FA7B1A707B681B8801339AB27B6842
:10DFA0001A80002318461437BD4680BC704700BF56
:10DFB00080B485B000AFB9607A601A460346FB733F
:10DFC0001346BB817B681B88DA1CBB899A4201D946
:10DFD0000C2327E07B681B881A46BB681344022287
:10DFE0001A707B681B8801339AB27B681A807B6841
:10DFF0001B881A46BB68134411221A707B681B8861
:10E0000001339AB27B681A807B681B881A46BB680A
:10E010001344FA7B1A707B681B8801339AB27B68C1
:10E020001A80002318461437BD4680BC704700BFD5
:10E0300080B485B000AFB9607A601A460346FB73BE
:10E040001346BB817B681B88DA1CBB899A4201D9C5
:10E050000C2327E07B681B881A46BB681344022206
:10E060001A707B681B8801339AB27B681A807B68C0
:10E070001B881A46BB6813440A221A707B681B88E7
:10E0800001339AB27B681A807B681B881A46BB688A
:10E090001344FA7B1A707B681B8801339AB27B6841
:10E0A0001A80002318461437BD4680BC704700BF55
:10E0B00080B58AB000AFF8607B600B46FB721346F8
:10E0C000BB72002387F823303B6B1B883B84002303
:10E0D0007B6268E0FB685A687B6A9B001A4407F120
:10E0E00010031068186007F1170107F110030022F0
:10E0F0001846FFF70BFDF861FB69002B01D0FB69A7
:10E100006EE0FB7DBA7A9A424AD197F82330002B11
:10E1100001D0002300E00223FB763B6B1B881A46EC
:10E12000FB7D1A44FB7E1A44BB8E9A4201DD0C2310
:10E1300056E097F8233083F00103DBB2002B15D0B3
:10E140003B6B1B8801339AB23B6B1A803B6B1B887D
:10E150001A467B681344FA7A1A703B6B1B880133AA
:10E160009AB23B6B1A80012387F823303B6B1B88E4
:10E170001A467B681A4407F1170107F11003184685
:10E18000FFF7C4FCF861FB69002B01D0FB6927E0B5
:10E190003B6B1A88FB7D9BB213449AB23B6B1A808F
:10E1A0007B6A01337B62FB681B881A467B6A9A4252
:10E1B00090DC97F82330002B11D03B6B1A883B8CF6
:10E1C000D31A9BB2013B3B833B8BFF2B01D90C2322
:10E1D00006E03B8C7A6813443A8BD2B21A70002363
:10E1E00018462837BD4680BD80B588B002AFF860BC
:10E1F0007B600B46FB721346BB72F97ABB8C0193B2
:10E200003B6A00937B680222F868FFF751FF786150
:10E210007B69002B01D07B6910E0B97ABB8C01933C
:10E220003B6A00937B681022F868FFF741FF786132
:10E230007B69002B01D07B6900E00023184618376A
:10E24000BD4680BD80B483B000AF78607B681B881A
:10E25000052B0AD97B681B88B3F5486F07D97B6803
:10E260001B884FF6FF72934201D0072325E07B689D
:10E270005B88052B0AD97B685B88B3F5486F07D9A3
:10E280007B685B884FF6FF72934201D0072314E04E
:10E290007B681B884FF6FF7293420DD07B685B88CA
:10E2A0004FF6FF72934207D07B681A887B685B88C1
:10E2B0009A4201D9072300E0002318460C37BD46D7
:10E2C00080BC704780B586B000AFF860B9607A60F6
:10E2D0007B807B681B889A1D7B889A4201D90C231E
:10E2E0004BE0F868FFF7AEFF78617B69002B01D047
:10E2F0007B6942E07B681B881A46BB681344052291
:10E300001A707B681B8801339AB27B681A807B681D
:10E310001B881A46BB68134412221A707B681B883C
:10E3200001339AB27B681A80FB681A887B681B8865
:10E330001946BB680B4419461046FFF7EBFB034632
:10E3400019467B681A888BB213449AB27B681A808C
:10E35000FB685A887B681B881946BB680B441946C2
:10E360001046FFF7D7FB034619467B681A888BB225
:10E3700013449AB27B681A80002318461837BD46AA
:10E3800080BD00BF80B586B000AFF860B9607A602C
:10E390007B80FB689B8802337B617B681B881A4605
:10E3A0007B6913449A1C7B889A4201D90C2354E060
:10E3B0007B69FE2B01D90C234FE07B681B881A4632
:10E3C000BB6813447A69D2B20132D2B21A707B6848
:10E3D0001B8801339AB27B681A807B681B881A46B7
:10E3E000BB681344FF221A707B681B8801339AB202
:10E3F0007B681A80FB681A887B681B881946BB6893
:10E400000B4419461046FFF785FB034619467B6807
:10E410001A888BB213449AB27B681A80FB689B8877
:10E42000002B19D0FB689B68002B01D1072314E057
:10E430007B681B881A46BB689818FB689968FB685C
:10E440009B881A4609F025FD7B681A88FB689B8823
:10E4500013449AB27B681A80002318461837BD46C9
:10E4600080BD00BF80B588B000AFF860B9607A6049
:10E470007B80FB689B6A002B01D107236DE00023A2
:10E48000FB7763E0FB68996AFA7F13465B001344ED
:10E490009B000B44BB61BB699B8802337B617B693A
:10E4A000FE2B01D90C2358E07B681B881A46BB68F9
:10E4B00013447A69D2B20132D2B21A707B681B88D7
:10E4C00001339AB27B681A807B681B881A46BB6846
:10E4D000134416221A707B681B8801339AB27B683A
:10E4E0001A80BB691A887B681B881946BB680B4475
:10E4F00019461046FFF70EFB034619467B681A883B
:10E500008BB213449AB27B681A80BB699B88002B3C
:10E5100019D0BB699B68002B01D107231DE07B68E4
:10E520001B881A46BB689818BB699968BB699B88A9
:10E530001A4609F0AEFC7B681A88BB699B881344B5
:10E540009AB27B681A80FB7F0133FB77FB6893F8F4
:10E550002C30FA7F9A4295D3002318462037BD46C7
:10E5600080BD00BF80B588B002AFF860B9607A6046
:10E5700000237B617B681B887B827B6800221A807A
:10E58000FB685B6B002B0DD0FB685B6B18787B8A9C
:10E590007A68B968FFF70CFD78617B69002B01D0C0
:10E5A0007B69EFE0FB681B6B002B0CD0FB68186BE2
:10E5B0007B8A7A68B968FFF7C5FA78617B69002BB6
:10E5C00001D07B69DEE0FB6893F82E30002B0DD084
:10E5D000FB6893F82E007B8A7A68B968FFF700FB26
:10E5E00078617B69002B01D07B69CBE0FB6893F8F5
:10E5F0002D30002B0BD07B8A1A467968B868FFF75C
:10E6000059FB78617B69002B01D07B69BAE0FB681C
:10E610009B78002B0BD07B8A1A467968B868FFF785
:10E620003BFC78617B69002B01D07B69AAE0FB6829
:10E63000DB78002B0DD0FB68DB7858B27B8A7A68D8
:10E64000B968FFF775FC78617B69002B01D07B69A5
:10E6500098E0FB685B68002B0ED0FB685B6893F961
:10E6600000007B8A7A68B968FFF7E2FC78617B6911
:10E67000002B01D07B6985E0FB681B89002B11D042
:10E68000FB6803F108007B8A01937B680093BB68F9
:10E6900006220221FFF7A8FD78617B69002B01D0DB
:10E6A0007B696FE0FB681B8A002B11D0FB6803F1CC
:10E6B00010007B8A01937B680093BB6807220321CB
:10E6C000FFF792FD78617B69002B01D07B6959E0EF
:10E6D000FB681B8B002B11D0FB6803F118007B8AB1
:10E6E00001937B680093BB6815221421FFF77CFD22
:10E6F00078617B69002B01D07B6943E0FB681B6A72
:10E70000002B0CD0FB68186A7B8A7A68B968FFF71F
:10E71000D9FD78617B69002B01D07B6932E0FB6811
:10E720005B6A002B0CD0FB68586A7B8A7A68B968F0
:10E73000FFF728FE78617B69002B01D07B6921E01F
:10E74000FB6893F82C30002B0BD07B8A7A68B96871
:10E75000F868FFF787FE78617B69002B01D07B6941
:10E7600010E0FB681B78002B0BD07B8A7A68B968B5
:10E77000F868FFF703FB78617B69002B01D07B69A8
:10E7800000E07B6918461837BD4680BD80B483B071
:10E7900000AF78607B68DB7803F00403002B01D1C5
:10E7A000072300E0002318460C37BD4680BC7047A5
:10E7B00080B483B000AF78607B68DB78002B01D039
:10E7C000072300E0002318460C37BD4680BC704785
:10E7D00080B596B000AF786039601F23A7F84A3043
:10E7E0001F23A7F848307B68002B1AD07868FFF702
:10E7F000CDFFF864FB6C002B01D0FB6C44E007F10B
:10E800004A0207F1280319467868FFF7ABFEF8645F
:10E81000FB6C002B01D0FB6C36E007F128037B6515
:10E8200004E000237B650023A7F84A303B68002BF7
:10E830001AD03868FFF7BCFFF864FB6C002B01D0DE
:10E84000FB6C21E007F1480207F10803194638681C
:10E85000FFF788FEF864FB6C002B01D0FB6C13E023
:10E8600007F108033B6504E000233B650023A7F89C
:10E870004830B7F84A30D9B2B7F84830DBB23A6D11
:10E88000786DFFF737F9034618465837BD4680BD07
:10E8900073DF704700BF184674DF704700BF18462B
:10E8A00080B483B000AF78607B681B79002B03D104
:10E8B0007B681B7B002B01D0012300E0002318465E
:10E8C0000C37BD4680BC704780B500AF07220021E1
:10E8D0000248FCF737FE00BF80BD00BF8424002043
:10E8E00080B485B000AF78600023FB600AE07A68EE
:10E8F000FB6813441B78002B01D0012306E0FB6862
:10E900000133FB60FB68052BF1D90023184614374F
:10E91000BD4680BC704700BFB0B588B000AFF8609E
:10E92000B9607A603B60FB68002B01D10E23D6E012
:10E930007B68002B01D10E23D1E06B4B00221A70B3
:10E940006A4A3B6813606A4A3B6B1360694A7B689A
:10E9500014461D460FCD0FC40FCD0FC42B68236086
:10E96000FFF7B2FF644B654A1A60634B644A9A60D2
:10E97000382200216348FCF7E5FDFB681A78614BFB
:10E980001A70FB689A785F4B9A70FB68DA785D4B77
:10E99000DA70FB685A785B4B5A705A4BFA6810333E
:10E9A000103292E8030083E80300564BFA680833FC
:10E9B000083292E8030083E80300524BFA681833E8
:10E9C000183292E8030083E80300FB685B6A002BBF
:10E9D00029D04C4B4C4A5A624B4B4C4A9A60494B9B
:10E9E0005B6AFA68526A12881A80464B5B6AFA6858
:10E9F000526A92889A800023FB610DE0FB685B6A93
:10EA00009A68FB6913441978404AFB6913440A4623
:10EA10001A70FB690133FB613A4B5B6A9B881A46AB
:10EA2000FB699A42EAD8FB689B6A002B33D0384BCB
:10EA3000384A9A60334B364A9A62324B9B6A354A5F
:10EA40009A60304B9B6AFA68926A92889A802D4B42
:10EA50009B6AFA68926A12881A800023BB610DE0F3
:10EA6000FB689B6A9A68BB6913441978294ABB6999
:10EA700013440A461A70BB690133BB61214B9B6A80
:10EA80009B881A46BB699A42EAD8FB6893F82C2007
:10EA90001C4B83F82C20FB681B6A002B0ED0194BF3
:10EAA0001D4A1A62174B1B6AFA68126A52885A800A
:10EAB000144B1B6AFA68126A12881A80FB685B683A
:10EAC000002B06D00F4B154A5A60FB685B680D4A55
:10EAD0005360B9680B48FFF77BFE78617B69184685
:10EAE0002037BD46B0BD00BFD0240020C824002080
:10EAF000CC240020D4240020F82400200825002065
:10EB0000282500208C2400204C250020582500209A
:10EB10007825002084250020A4250020A825002099
:10EB200080B582B000AF00233B603B46184604F03E
:10EB3000ADFD78607B68082B04D07B68002B01D08A
:10EB4000012313E07B68082B0AD13B46184607F0E7
:10EB50009DFA03467B607B68002B01D0002305E013
:10EB60003B68002B01D0012300E000231846083742
:10EB7000BD4680BD80B58AB000AF0346FB71A24A96
:10EB8000FB791370FFF7CCFF0346002B04D09F4B9B
:10EB900001221A7000236AE1FFF796FE9C4B5B7816
:10EBA000002B03D0984B1B78012B0FD0984B9B78F0
:10EBB000002B03D0944B1B78012B07D0944B9B78F0
:10EBC000002B12D0904B1B78022B0ED1914B1B685F
:10EBD000002B07D0904B01221A708E4B1B68082027
:10EBE000984702E08C4B00221A70874B1B78012B50
:10EBF00012D1874B5B7883F00103DBB2002B08D185
:10EC00008648FFF76DFE034683F00103DBB2002B5D
:10EC100002D07D4B02221A707B4B1B78022B12D143
:10EC20007B4B9B7883F00103DBB2002B08D17B4840
:10EC3000FFF756FE034683F00103DBB2002B02D040
:10EC4000714B03221A70724B1B7B83F00103DBB202
:10EC5000002B06D06C4B1B78032B02D16A4B04228D
:10EC60001A706B4B1B7E83F00103DBB2002B09D0C3
:10EC7000654B1B78042B05D1634B00221A70684B3F
:10EC800000221A70634B1B68002B1AD05E4B1B7856
:10EC9000032B03D05C4B1B78042B12D15C4B1B78ED
:10ECA000002B0ED05F4B1B7883F00103DBB2002BEF
:10ECB00007D05D4B01221A70564B1B6807209847FE
:10ECC00002E0594B00221A7007F10C0318220021B0
:10ECD0001846FCF737FC00233B7300233B610023FD
:10ECE0003B750023BB61484B1B78013B032B00F2B3
:10ECF000A38001A252F823F009ED010021ED0100EB
:10ED000041ED0100A5ED0100484B3B6101233B7340
:10ED10000023FB830023BB83414B01221A708CE04C
:10ED2000424B3B6101233B73394B9B689BB2FB8396
:10ED3000374B5B689BB2BB83394B02221A707CE075
:10ED4000334B5B699BB2FB83314B1B699BB2BB832B
:10ED50003748FFF7A5FD0346002B1FD02C4B1B782F
:10ED6000002B1BD02F4B1B7883F00103DBB2002B51
:10ED700014D002233B752E4BBB612E4B0422DA705C
:10ED800000212C48FFF724FD78627B6A002B01D01C
:10ED90007B6A6CE0224B05221A704EE0204B032266
:10EDA0001A704AE01A4BDB699BB2BB83184B1B6A93
:10EDB0009BB2FB831E48FFF773FD0346002B1FD059
:10EDC000134B1B78002B1BD0164B1B7883F00103D1
:10EDD000DBB2002B14D002233B75154BBB61154BE6
:10EDE0000422DA7000211348FFF7F2FC78627B6A94
:10EDF000002B01D07B6A3AE0094B06221A701CE016
:10EE0000074B04221A7018E0D02400208024002030
:10EE1000D4240020C82400204A2500208524002076
:10EE2000C4240020482500204925002084240020F7
:10EE3000F82400208C24002000BF0F4B1B78002BEF
:10EE40000AD007F10C031846FFF722FD78627B6AAF
:10EE5000002B01D07B6A0AE0084B1B68002B05D011
:10EE6000064B1B68064A127810469847002318463E
:10EE70002837BD4680BD00BFD0240020C824002014
:10EE8000C424002080B586B000AF78607B681B8802
:10EE9000112B0DD01B2B24D0102B00D086E07B68CB
:10EEA0009B7D012B7DD17B689A88424B1A8078E04C
:10EEB000414B00221A707B689A883E4B1B889A420D
:10EEC00071D10120FFF756FE78617B69002B6AD073
:10EED0003A4B1B68002B66D0384B1B687869984703
:10EEE00061E07B681B7A002B5FD1354B1B78013BBF
:10EEF000032B4CD801A252F823F000BF0DEF010004
:10EF00002DEF01004DEF010073EF01000220FFF72C
:10EF100031FE38613B69002B3BD0284B1B68002B2E
:10EF200037D0264B1B683869984732E00320FFF73B
:10EF300021FEF860FB68002B2DD0204B1B68002BB6
:10EF400029D01E4B1B68F868984724E01D4B03220C
:10EF50001A700420FFF70EFEB860BB68002B1CD0AF
:10EF6000164B1B68002B18D0144B1B68B8689847C9
:10EF700013E0144B00221A70134B1B68002B0ED0A9
:10EF8000114B1B680F4A12781046984707E000BFE4
:10EF90000BE000BF09E000BF07E000BF05E000BFD5
:10EFA00003E000BF02E000BF00E000BF00BF183771
:10EFB000BD4680BD5C21002048250020CC240020D7
:10EFC000D0240020C4240020C824002080B584B0B0
:10EFD00000AF78600023FB607B68023B012B18D8F0
:10EFE0000F4B1B78002B16D00D4B00221A700D4BC7
:10EFF0001B781846FFF7BEFDF860FB68002B0AD0AF
:10F00000094B1B68002B06D0074B1B68F868984714
:10F0100001E000BF00E000BF00BF1037BD4680BD6B
:10F0200080240020D0240020CC24002080B582B091
:10F0300000AF1E4B1B78002B33D01D4B1B7883F089
:10F040000103DBB2002B2CD01A4B1B78002B07D00E
:10F05000FFF722FC78607B68002B01D07B6821E001
:10F06000134B01221A70144B0622DA700021124849
:10F07000FFF7AEFB78607B68002B01D07B6811E066
:10F080000C4B1B781846FFF775FD78607B68002BEA
:10F0900007D00A4B1B68002B03D0084B1B6878680D
:10F0A0009847002318460837BD4680BDD424002069
:10F0B00048250020D02400208C240020CC240020CF
:10F0C00075DF704700BF184676DF704700BF1846EF
:10F0D0007ADF704700BF18467BDF704700BF1846D5
:10F0E00080B483B000AF78607B681B781AB27B680D
:10F0F00001331B781B021BB213431BB29BB2184691
:10F100000C37BD4680BC704780B584B000AF7860D6
:10F110007868FFF7E5FF0346FB81FB8903F00103F5
:10F12000002B14BF01230023DBB218461037BD4665
:10F1300080BD00BF80B483B000AF78607B685A8820
:10F14000084B1B889A4207D37B685A88054B5B881B
:10F150009A4201D8012300E0002318460C37BD462F
:10F1600080BC7047C825002080B586B000AF7860AD
:10F17000264B1B884FF6FF72934243D0244B1B78DB
:10F180000133DAB2224B1A70224B1A7B204B1B78C8
:10F190009A4212D31D4B1B881F491846FFF790FF58
:10F1A00078617B69002B2DD01A4B9B69002B29D0ED
:10F1B000184B9B697869984724E0154B00221A7018
:10F1C000144B1B7C002B11D0104B1B883B21184685
:10F1D000FFF77AFF38613B69002B07D00D4B9B6925
:10F1E000002B03D00B4B9B6938699847094B5B692F
:10F1F000002B07D000233B73064B5B6907F10C0221
:10F200001046984700BF1837BD4680BDD225002064
:10F21000D0250020AC250020C8250020B0B584B042
:10F2200000AF78601C4A7B6814461D460FCD0FC4A2
:10F2300095E8070084E80700184B00221A707B68E5
:10F240001B68002B0ED07B681A68154B106851683C
:10F2500003C31348FFF73CFFF860FB68002B0AD09C
:10F26000FB6815E00E48FFF737FFF860FB68002BDE
:10F2700001D0FB680CE00B4B4FF6FF721A800A4B73
:10F2800000221A70094A0021094806F057FE034679
:10F2900018461037BD46B0BDAC250020FC25002027
:10F2A000C8250020D2250020D025002069F10100CA
:10F2B000EC91020080B584B000AF2448FFF73AFF1C
:10F2C000034683F00103DBB2002B2DD0204B1B78CB
:10F2D000002B0BD01F4B5B69002B30D000233B7100
:10F2E0001C4B5B693A1D1046984728E01A4B1B7867
:10F2F000002B03D1174B5B68FB6002E0154B9B684A
:10F30000FB60164B0022F968184606F063FEB860F1
:10F31000BB68002B13D00F4B9B69002B0FD00D4BFC
:10F320009B69B86898470AE00A4B5B69002B06D0D6
:10F3300001233B70074B5B693A4610469847044BE4
:10F3400000221A7000BF1037BD4680BDD4250020B2
:10F35000FC250020AC250020D0250020DC25002045
:10F3600080B582B000AF78607B689A880A4B1A80BB
:10F370000A4A7B68183393E8030082E80300084BCD
:10F3800000221A70074BDB89002B01D1FFF792FF97
:10F3900000BF0837BD4680BDD2250020D4250020FF
:10F3A000D0250020AC25002080B584B000AF786067
:10F3B0000D4B4FF6FF721A800C4B00221A700C4B4B
:10F3C000184606F03DFEF860FB68002B07D0094B9D
:10F3D0009B69002B03D0074B9B69F868984700BFD7
:10F3E0001037BD4680BD00BFD2250020D0250020AB
:10F3F000DC250020AC25002080B584B000AF78600B
:10F400007B680633FB60FB681A88134BDB899A42E2
:10F410001ED1FB685B89022B1AD1FB680C3318469E
:10F42000FFF772FE0346002B02D0FFF743FF0FE009
:10F430000A4B184606F004FEB860BB68002B07D0E4
:10F44000054B9B69002B03D0034B9B69B868984719
:10F4500000BF1037BD4680BDAC250020DC25002054
:10F4600080B582B000AF7860064A7B68083393E8C5
:10F47000030082E80300FFF71DFF00BF0837BD4609
:10F4800080BD00BFD425002080B582B000AF786079
:10F490007B681B88112B0DD0112B02DC102B05D0A3
:10F4A00014E0122B0ED0502B08D00FE07868FFF735
:10F4B00057FF0BE07868FFF777FF07E07868FFF702
:10F4C0009BFF03E07868FFF7CBFF00BF00BF083762
:10F4D000BD4680BD7FDF704700BF184686DF70479E
:10F4E00000BF1846A7DF704700BF1846A9DF704766
:10F4F00000BF1846AADF704700BF184680B483B02B
:10F5000000AF786001227B6802FA03F3DA43054B0F
:10F510001B681340034A136000BF0C37BD4680BC14
:10F52000704700BF4027002080B483B000AF7860F0
:10F5300001227B6802FA03F31A46064B1B6813404C
:10F54000002B14BF01230023DBB218460C37BD4645
:10F5500080BC70474027002080B483B000AF786043
:10F5600010497A6813465B0013449B000B44002249
:10F570001A600C497A6813465B0013449B000B44E5
:10F58000093300221A7007497A6813465B00134456
:10F590009B000B440A3300221A7000BF0C37BD4693
:10F5A00080BC70472C27002080B582B000AF786007
:10F5B00017497A6813465B0013449B000B440A33D7
:10F5C00001221A7012497A6813465B0013449B00AB
:10F5D0000B4408334FF6FF721A800D497A681346C0
:10F5E0005B0013449B000B440B33FF221A707A68B4
:10F5F00013465B0013449B00054A13440722002175
:10F600001846FBF79FFF00BF0837BD4680BD00BF0F
:10F610002027002080B582B000AF78607A6813465A
:10F62000DB009B1A9B0010331F4A13440133062250
:10F6300000211846FBF786FF7A681346DB009B1A09
:10F640009B00194A1344102200211846FBF77AFF49
:10F6500015497A681346DB009B1A9B000B44103354
:10F66000FF221A7010497A681346DB009B1A9B0030
:10F670000B441A33FF221A700B497A681346DB00D9
:10F680009B1A9B000B4418334FF6FF721A80786860
:10F69000FFF734FF054A7B68002142F8231000BFC2
:10F6A0000837BD4680BD00BF1C2600200026002074
:10F6B00080B485B000AF03463A60FB800B467B7197
:10F6C0000823FB600023BB6029E01949BA68134690
:10F6D0005B0013449B000B440A331A787B79134078
:10F6E000DBB2002B18D0FB884FF6FF7293420BD091
:10F6F0000F49BA6813465B0013449B000B44083360
:10F700001B88FA889A4205D13B68BA681A600023C0
:10F71000FB6007E00523FB60BB680133BB60BB688F
:10F72000002BD2D0FB6818461437BD4680BC70470A
:10F730002027002080B485B000AF7860396048F29F
:10F740004303FB600023BB6054E02F49BA681346B3
:10F75000DB009B1A9B000B441A331B78FF2B46D10E
:10F760003B681B78022B25D02749BA681346DB007B
:10F770009B1A9B000B441A331B7823F00203D8B268
:10F780002149BA681346DB009B1A9B000B441A33CD
:10F7900002461A701C49BA681346DB009B1A9B008C
:10F7A0000B4410333A6810681860918892799980F8
:10F7B0009A7115E01449BA681346DB009B1A9B0046
:10F7C0000B441A331B7823F00103D8B20E49BA68F0
:10F7D0001346DB009B1A9B000B441A3302461A7037
:10F7E000BB68DAB27B681A700023FB6005E0BB6877
:10F7F0000133BB60BB68062BA7D9FB6818461437DA
:10F80000BD4680BC704700BF1C26002080B586B076
:10F8100000AF78607B689BB207F10C0219460C4878
:10F8200003F0D4FB78617B69002B0CD107F10C034A
:10F830007421184603F056FE78617B69002B02D1D3
:10F840007868FFF7E7FE7B6918461837BD4680BD2C
:10F850003827002080B586B000AFF860B960134645
:10F86000FB8005237B6100233B612AE0FB68002BC2
:10F870000BD118493A691346DB009B1A9B000B44D5
:10F8800018331B88FA889A4212D0FB68002B15D0D7
:10F890003A691346DB009B1A9B0010330D4A134450
:10F8A0000722F968184608F0E5FA0346002B05D14F
:10F8B000BB683A691A6000237B6105E03B6901334C
:10F8C0003B613B69062BD1D97B6918461837BD4689
:10F8D00080BD00BF1C26002080B586B000AFF86058
:10F8E000B9607A60054B1B687B617B697A68B9688F
:10F8F000F868984700BF1837BD4680BD2C27002008
:10F9000080B584B000AF78607A6801214FF6FF704F
:10F91000FFF7CEFEF860FB68002B0BD17B681A68FE
:10F92000084913465B0013449B000B440A33022230
:10F930001A7001E00423FB60FB6818461037BD46CF
:10F9400080BD00BF2027002080B582B000AF786066
:10F950007B681A68094913465B0013449B000B44FB
:10F960000A331B78012B04D07B681B681846FFF70D
:10F970001BFE00BF0837BD4680BD00BF202700200A
:10F9800080B485B000AFF860B96011461A460B46E6
:10F99000FB801346BB80002318461437BD4680BC4D
:10F9A000704700BF90B587B000AF78600B46FB7022
:10F9B0007B689B789BB207F1080219463F4803F029
:10F9C00005FB38613B69002B74D17B685B78194675
:10F9D0003B4A0B465B000B449B0013440A331B78E5
:10F9E00003F04003002B02D1FB78022B02D1354BF0
:10F9F0007B6107E0FB78012B02D1334B7B6101E097
:10FA0000324B7B617B689B781A461346DB009B1A5E
:10FA10009B002F4A991807F108007C6900231C22DB
:10FA2000A04738613B69002B2CD1FB78022B29D0F1
:10FA30007B685B7819467B685B781846204A0346EA
:10FA40005B0003449B0013440A331B7823F04003FC
:10FA5000D8B21B4A0B465B000B449B0013440A338D
:10FA600002461A707B685B781A461346DB009B1AC5
:10FA70009B00184A991807F108007C691C231C2276
:10FA8000A0473861FB78022B14D07B681B7819469D
:10FA9000114A0B465B000B449B0013440A331B784E
:10FAA0001A460E4B53F8223007F1080279681046C7
:10FAB0009847386100BF1C37BD4690BD38270020ED
:10FAC0002027002015320200BD30020081F901001C
:10FAD0001C260020E02600202C270020F0910200A8
:10FAE00080B483B000AF78603960002318460C37CB
:10FAF000BD4680BC704700BF90B58DB000AF786048
:10FB000039600323BB621A237B843B685B78194608
:10FB1000484A0B465B000B449B001344083318888B
:10FB200007F1220207F10801BB6AFFF7E3FC7862E4
:10FB30007B6A002B79D13B685B781A461346DB0061
:10FB400013449B0008333C4A13447A8C07F10801A4
:10FB5000184608F08FF90346002B1DD13B685B78EF
:10FB60001946344A0B465B000B449B0013440A338E
:10FB70001B7803F00203002B57D13B685B781A46D1
:10FB80001346DB0013449B002B4A1344242200211C
:10FB90001846FBF7D7FC48E03B685B781946264AD5
:10FBA0000B46DB000B449B00134404331B68002B03
:10FBB00002D0224BFB6201E0214BFB623B685B7889
:10FBC00019461D4A0B46DB000B449B001344BA6ADE
:10FBD0001A603B685B7819467B8C1846164A0B46C0
:10FBE000DB000B449B001344043318603B685B78D4
:10FBF0001A461346DB0013449B0008330E4A134495
:10FC00007A8C07F10801184608F043F93B685B78E5
:10FC10001A461346DB0013449B00074A9918FC6AF6
:10FC2000382324227868A0477862002318463437A6
:10FC3000BD4690BD20270020FC2600201532020082
:10FC4000BD30020080B483B000AF7860396000231B
:10FC500018460C37BD4680BC704700BF80B584B0E5
:10FC600000AF7860396039687868FFF745FFF86061
:10FC7000FB68002B04D139687868FFF7E3FFF86070
:10FC8000FB6818461037BD4680BD00BF80B483B006
:10FC900000AF78603960002318460C37BD4680BC41
:10FCA000704700BF80B584B000AF786039603B68B2
:10FCB0005B781A461346DB0013449B00144A9818DD
:10FCC00038232422796803F051FBF860FB68002B8D
:10FCD00019D13B685B7819460D4A0B46DB000B4493
:10FCE0009B00134404331B68B3F1FF3F0BD13B6807
:10FCF0005B781946064A0B46DB000B449B00134415
:10FD0000043300221A60FB6818461037BD4680BDD8
:10FD1000FC26002080B483B000AF786039600023F7
:10FD200018460C37BD4680BC704700BF80B584B014
:10FD300000AF7860396039687868FFF7B3FFF86022
:10FD4000FB68002B04D139687868FFF7E3FFF8609F
:10FD5000FB6818461037BD4680BD00BF80B483B035
:10FD600000AF7860002318460C37BD4680BC704752
:10FD700080B586B000AF786000233B610023FB8133
:10FD80000023BB607B685B781946544A0B46DB0056
:10FD90000B449B00134404331B68002B3ED07B684C
:10FDA0005B7819464E4A0B465B000B449B0013449C
:10FDB0000A331B785BB2002B30DA7B685B7819461C
:10FDC000474A0B465B000B449B0013440A331B78E5
:10FDD00003F04003002B21D17B685B781A46134661
:10FDE000DB0013449B0008333C4A13443B617B68AF
:10FDF0005B781946394A0B46DB000B449B001344E1
:10FE000004331B68FB817B685B781946334A0B46D9
:10FE1000DB000B449B0013441B68BB607B685B7872
:10FE200019462F4A0B465B000B449B0013440833D2
:10FE30001888FA89BB683969FFF758FB78617B69D4
:10FE40000B2B12D10123BB607B685B781946244AD7
:10FE50000B465B000B449B00134408331888FA8957
:10FE6000BB683969FFF742FB78617B69002B02D0E0
:10FE700048F241037B61BB68012B2AD17B685B7828
:10FE80001946174A0B465B000B449B00134408338A
:10FE90001B884FF6FF720C211846FFF723FB786191
:10FEA0007B69002B15D07B6943F2020293420DD08F
:10FEB0007B69082B0AD07B6943F20402934205D088
:10FEC0007B69112B02D000237B6102E048F24103E1
:10FED0007B617B6918461837BD4680BDFC26002033
:10FEE0002027002080B483B000AF7860002318463C
:10FEF0000C37BD4680BC704780B584B000AF7860D9
:10FF00007868FFF735FFF860FB68002B03D178684D
:10FF1000FFF7E8FFF860FB6818461037BD4680BD64
:10FF200080B59CB000AFF8607A603B600B46FB7216
:10FF3000AB4B1B68002B00F04C81BB6F742B00F2A5
:10FF40004A81012387F86F3007F14803184600F013
:10FF500063FA38663B6EFB65FB6D002B05D0A14A4A
:10FF600040F2A151F86D05F087F8002387F848307A
:10FF7000002387F84C303B687B64BB6F3B640023F5
:10FF8000BB661DE0BB6E9BB207F134021946964872
:10FF900003F01CF838663B6E002B0ED107F13403DA
:10FFA00008221946F86807F065FF0346002B04D1C4
:10FFB000BB6EDBB287F84A3005E0BB6E0133BB662F
:10FFC000BB6E062BDED997F84A30FF2B00F0048178
:10FFD000FB7A032B0AD1BB6F742B03D1202387F844
:10FFE0004C30C9E0402387F84C30C5E03B687F4A7D
:10FFF0009B1A9B087E4AA2FB0323BB65BB6D062BA5
:020000022000DC
:100000001DD807F13C033B657B68002B0ED197F8A8
:100010004A301846FFF788FA034683F00103DBB243
:10002000002B03D0002387F86F30A5E097F84A3003
:100030001846FFF763FA202387F84C309CE03B68B2
:100040006C4A9B1A9B086A4AA2FB0323BB65BB6DE3
:10005000002B25D107F13C033B65202387F84C306A
:10006000BB6DDBB287F8493000237B62624BBB6219
:10007000BA6D1346DB009B1A9B005E4A13447B61FA
:1000800097F84A301A461346DB009B1A9B00574AE2
:100090001344BB6107F114037B6420233B646BE0D2
:1000A0003B68564A9B1A1A46554BA3FB0223DB08B2
:1000B000BB65BB6D002B25D1302387F84C30BB6D61
:1000C000DBB287F84930012387F84B304D49BA6DD0
:1000D00013465B0013449B000B440A331B7803F068
:1000E0000203002B48D197F849301A461346DB002B
:1000F00013449B00414A1344242200211846FBF775
:1001000021FA39E0002387F86F30402387F84C301C
:100110003B683D4A934205D10323FB72012387F8D4
:100120006F3029E097F84A301A46384B53F82220AE
:100130003B689A4220D1012387F86F3007F13C03D6
:100140003B6500237B6614E097F84A102D487A6ED1
:1001500013465B0013449B0003440B331B78994206
:1001600004D17B6EDBB287F8493005E07B6E01334A
:100170007B667B6E002BE7D097F86F30002B2BD07F
:10018000FB7A032B07D197F84C3043F00303DBB223
:1001900087F84C3011E0FB7A022B07D197F84C30EE
:1001A00043F00103DBB287F84C3006E097F84C309F
:1001B00043F00203DBB287F84C3007F13C033B65A8
:1001C00007F14C0107F148037A681846FFF784FBF2
:1001D00002E000BF00E000BF7037BD4680BD00BF39
:1001E0002C27002024920200382700201C26002003
:1001F00025499224E026002044270020FC260020E8
:10020000398EE338202700202092020000260020AB
:1002100080B588B000AF78607B68002B02D148F2CF
:100220000E0381E00023BB6105E0B869FFF794F994
:10023000BB690133BB61BB69002BF6D00023BB61F6
:1002400005E0B869FFF7B0F9BB690133BB61BB6971
:10025000002BF6D0242200213548FBF773F9002348
:10026000BB610AE0B869FFF7D5F9324ABB691344AC
:10027000FF221A70BB690133BB61BB69062BF1D940
:100280007423BB820723FB822B4B3B6107F11003D6
:100290002A49184602F0D6FDF861FB69002B42D1CD
:1002A000274B01221A707B681B7883F00103DBB2B5
:1002B000002B2ED00023BB6127E0BB699BB207F166
:1002C000080219461D4802F081FEF861FB69002B07
:1002D00014D1BA691346DB009B1A9B00194A98187F
:1002E00007F1080100231C2203F040F8F861FB69C4
:1002F000002B07D0124B00221A7014E0104B002282
:100300001A7010E0BB690133BB61BB69062BD4D9FD
:1003100009E0BA8AFB8A12FB03F39BB2194607482D
:1003200003F0E0F8F861FB6918462037BD4680BD50
:10033000FC2600205C27002021FF01003827002038
:100340005B2700201C26002080B485B000AF7860B9
:1003500039602F4B1B7883F00103DBB2002B02D0F6
:1003600048F208034EE07B68002B02D148F20E03EE
:1003700048E03B68002B02D148F20E0342E03B68A4
:100380001B68002B02D148F20E033BE0214B1B6897
:10039000002B33D13B681B681E4A13601D4B3A6823
:1003A000043305321068186012791A713B681A79A3
:1003B000184B9A72174A137A6FF300031372154A97
:1003C000137A43F002031372124A137A6FF3820313
:1003D0001372104AD37943F00103D3710D4AD379D4
:1003E00043F00203D3710B4AD3796FF38203D371C5
:1003F0007B6800221A700023FB6002E048F20403CD
:10040000FB60FB6818461437BD4680BC704700BFD0
:100410005B2700202C27002080B483B000AF7860D9
:100420007B68002B02D148F20E030CE07B68FF22B0
:100430001A707B68FF225A707B68FF229A707B6873
:10044000FF22DA70002318460C37BD4680BC704787
:1004500080B586B000AF78607B689B789BB207F16F
:100460000C021946134802F0B1FD78617B69002B3C
:100470001BD17B685B781A461346DB009B1A9B00F6
:100480000D4A981807F10C011C231C2202F06EFF84
:1004900078610A4B9B7A1A46094B53F8223007F1D0
:1004A0000C02796810469847786100BF1837BD463E
:1004B00080BD00BF38270020E02600202C27002028
:1004C0000092020080B596B000AF7860FF23BB6356
:1004D000002387F853300023BB64B74B1B7883F0AD
:1004E0000103DBB2002B40F0B784B44B1B68002B38
:1004F00000F0B48407F134031846FFF78DFF7865E8
:100500007B6D7B647B6C002B05D0AD4A40F6F1110E
:10051000786C04F0B1FD0023FB6400237B657B68ED
:100520000433FB622C233B86FF2387F836300023FD
:1005300087F834300023FB637B681B88102B1AD0AC
:100540007B689B8807F13C0202211846FFF7B0F850
:1005500078657B6D002B0ED1FA6B9A4913465B00D0
:1005600013449B000B440B331B7887F83630FB6B2E
:10057000DBB287F835307B681B88103B422B00F2DA
:100580004E8401A252F823F095060200CD07020026
:100590001F0E02003B090200730802001F0E02003A
:1005A0001F0E02001F0E02001F0E0200AD0A020005
:1005B000C50C02001F0E02001F0E02001F0E0200DB
:1005C000110E02001F0E02001F0E02001F0E02007D
:1005D0001F0E02001F0E02001F0E02001F0E02005F
:1005E0001F0E02001F0E02001F0E02001F0E02004F
:1005F0001F0E02001F0E02001F0E02001F0E02003F
:100600001F0E02001F0E02001F0E02001F0E02002E
:100610001F0E02001F0E02001F0E02001F0E02001E
:100620001F0E02001F0E02001F0E02001F0E02000E
:100630001F0E02001F0E02001F0E02001F0E0200FE
:100640001F0E02001F0E02001F0E02001F0E0200EE
:100650001F0E02001F0E02001F0E02001F0E0200DE
:100660001F0E02001F0E02001F0E02001F0E0200CE
:100670001F0E02001F0E02001F0E02001F0E0200BE
:100680001F0E02001F0E02001F0E02001F0E0200AE
:10069000F90D020007F13C031846FFF731F97865C0
:1006A0007B6D002B40F0BD83012387F8533011236D
:1006B00087F82830FB6BDBB287F83530FA6B7B6844
:1006C0009888404913465B0013449B000B44083351
:1006D00002461A80FA6B3B4913465B0013449B00A9
:1006E0000B440A3302221A70FA6B364913465B0038
:1006F00013449B000B447A68083292E803001860A8
:100700000433198002330A0C1A707B68DB7D03F016
:100710000103DBB2002B15D07B68DB7DC3F34603FE
:10072000DBB21A46284B9B5CFF2B15D07B68DB7D28
:10073000C3F34603DBB21A46234B9B5CBB63002327
:100740007B6509E07B68083307F138014FF6FF72DB
:100750001846FFF77FF878657B6D002B40F06183CA
:10076000FA6BBB6BD8B2174913465B0013449B006E
:100770000B440B3302461A70FA6BF96B11480B46A7
:100780005B000B449B0003440A331B7843F00803CF
:10079000D8B20C4913465B0013449B000B440A3348
:1007A00002461A70BB6BDBB287F8363007F13403B0
:1007B0001846FFF74DFE34E35B2700202C2700206E
:1007C00024920200202700205C270020FA6BF96B9E
:1007D000B2480B465B000B449B0003440A331B7872
:1007E00023F00203D8B2AD4913465B0013449B00CB
:1007F0000B440A3302461A70FA6BA84913465B0091
:1008000013449B000B440A331B7803F00803002BAE
:1008100012D0FA6BA14913465B0013449B000B44B2
:100820000A331B785BB2002B12DA07F13403002184
:100830001846FFF7B7F80BE097F83630FF2B07D0D4
:1008400097F836301846FEF7E5FEFF2387F8363076
:10085000FA6B924913465B0013449B000B440A3326
:1008600010221A70012387F85330122387F828309A
:10087000DCE2FA6B894913465B0013449B000B448E
:100880000B331B78FF2B36D17B681A8A07F13803AC
:1008900019460020FEF7DEFF78657B6D002B2AD11C
:1008A000FA6BBB6BD8B27D4913465B0013449B00C7
:1008B0000B440B3302461A70FA6BF96B77480B4600
:1008C0005B000B449B0003440A331B7843F008038E
:1008D000D8B2724913465B0013449B000B440A33A1
:1008E00002461A70BB6BDBB287F8363007F134036F
:1008F0001846FFF7ADFDFA6B684913465B001344D9
:100900009B000B440B331B78FF2B07D0FA6B13466D
:10091000DB009B1A9B00624A1344BB647B68988887
:10092000FA6B1346DB009B1A9B005E4A1A440023B5
:10093000B96CFEF7D3FD786578E2132387F8283089
:10094000FA6BF96B55480B465B000B449B00034464
:100950000A331B7843F00403D8B2504913465B00B6
:1009600013449B000B440A3302461A70012387F894
:100970005330FA6B494913465B0013449B000B4408
:100980000B331B78FF2B5ED1FA6B13465B001344CD
:100990009B00424A1A4407F1380311461846FEF7F5
:1009A000C9FE78657B6D002B10D1BB6BDBB287F87D
:1009B0003630FA6BBB6BD8B2384913465B00134430
:1009C0009B000B440B3302461A7004E07B6DFB6402
:1009D000012387F853300023BB61FA6B2F4913467C
:1009E0005B0013449B000B440B331B781A461346E1
:1009F000DB009B1A9B002B4A1344FB6100233B62E4
:100A000000237B62FA6B1346DB009B1A9B00244A8F
:100A10001344BB600023FB6000233B6100237B6128
:100A20007B68988807F108031F4A0021FEF752FDF2
:100A300078657B6D002B00F0F6817B6DFB640023F5
:100A400087F85330EFE1FA6BF96B14480B465B0003
:100A50000B449B0003440A331B7843F04003D8B295
:100A60000E4913465B0013449B000B440A330246B5
:100A70001A70162387F828307B6898880023002294
:100A80008521FEF727FD78657B6D002B00F0CB817B
:100A90007B6DFB64002387F85330C4E120270020DE
:100AA000E02600201C26002030270020B54B5B7A72
:100AB00023F00103DAB2B34B5A72FA6BF96BB24806
:100AC0000B465B000B449B0003440A331B7823F066
:100AD0000403D8B2AC4913465B0013449B000B449B
:100AE0000A3302461A70142387F82830012387F846
:100AF00053307B681B7A002B1ED0FA6BA249134639
:100B00005B0013449B000B440A331B7803F0400343
:100B1000002B40F08A81FA6B9B4913465B0013441B
:100B20009B000B440B331B781846FEF76FFE3864AE
:100B30007B681B7AFB6478E17B685B7A03F00403D3
:100B4000DBB2002B00F0718197F83630FF2B00F0FC
:100B50006C81FA6BF96B8C480B465B000B449B0075
:100B600003440A331B7843F00803D8B2864913467E
:100B70005B0013449B000B440A3302461A707B68E7
:100B80005B7B03F00203DBB2002B19D097F8363001
:100B9000194697F8363018467C4A0346DB001B1A84
:100BA0009B0013441A331B7823F00103D8B2774A11
:100BB0000B46DB005B1A9B0013441A3302461A7083
:100BC000FA6B714913465B0013449B000B440B33D3
:100BD0001B78FF2B00F02981FA6B6B4913465B00F1
:100BE00013449B000B441B78022B35D097F836300A
:100BF0001846FA6B65490346DB001B1A9B000B4441
:100C000003F11000604913465B0013449B00CA18AF
:100C1000034692E8030018600433198002330A0C7B
:100C20001A7097F83630194697F836301846574AF2
:100C30000346DB001B1A9B0013441A331B7823F076
:100C40000203D8B2514A0B46DB005B1A9B001344E7
:100C50001A3302461A702EE097F836301846FA6BAF
:100C60004B491346DB009B1A9B000B441233198837
:100C7000464A0346DB001B1A9B00134418330A46FE
:100C80001A8097F83630194697F8363018463F4A9A
:100C90000346DB001B1A9B0013441A331B7823F016
:100CA0000103D8B2394A0B46DB005B1A9B001344A0
:100CB0001A3302461A7007F1340301211846FEF771
:100CC00071FEB2E07B681B7A23F00F03DBB2102BBE
:100CD00062D17B681B7A03F00F03DBB2012B5BD17F
:100CE000FA6B294913465B0013449B000B440A33FB
:100CF0001B7803F00803002B4ED0FA6B1346DB0081
:100D000013449B000833234A13441A220021184637
:100D1000FAF718FC162387F82830FA6BF96B1A4893
:100D20000B465B000B449B0003440A331B7843F0E3
:100D30002003D8B2144913465B0013449B000B44B4
:100D40000A3302461A70FA6BF96B0F480B465B00C8
:100D50000B449B0003440A331B7843F04003D8B292
:100D6000094913465B0013449B000B440A330246B7
:100D70001A70044B5B7A43F00203DAB2014B5A72E9
:100D800034E000BF2C270020202700201C26002054
:100D9000E0260020FC260020FA6BF96B31480B4658
:100DA0005B000B449B0003440A331B7863F07F0312
