:020000021000EC
:10B0000000800020A1970200E1970200E397020070
:10B010000000000000000000000000000000000030
:10B02000000000000000000000000000E5970200A2
:10B030000000000000000000E7970200E99702000E
:10B04000EB970200EB970200E13D0200D96E02008F
:10B05000EB97020000000000F13602001197020099
:10B06000EB970200EB970200EB970200EB970200D0
:10B07000EB970200EB970200EB970200EB970200C0
:10B08000EB970200097F0200EB970200EB970200AA
:10B09000597F0200EB97020009920200EB97020031
:10B0A000EB970200EB970200000000000000000098
:10B0B0000000000000000000000000000000000090
:10B0C00010B5064C2378002B07D1054B002B02D07E
:10B0D000044800E000BF0123237010BDAC21002014
:10B0E00000000000E8D10200084B10B5002B03D08F
:10B0F0000749084800E000BF07480368002B00D15B
:10B1000010BD064B002BFBD09847F9E7000000006C
:10B11000B0210020E8D10200A8210020000000009A
:10B12000164B002B00D1144B9D46402292029A1AD6
:10B13000924600218B460F461348144A121A00F01B
:10B1400067F80F4B002B00D098470E4B002B00D018
:10B1500098470020002104000D000D48002802D06F
:10B160000C4800E000BF00F02DF82000290002F09C
:10B17000FDFC00F011F8C04600000800008000202F
:10B180000000000000000000AC210020303300204F
:10B190000000000000000000084B10B50400002B68
:10B1A00002D0002100E000BF054B1868836A002B25
:10B1B00000D09847200001F0FDFEC04600000000CE
:10B1C00098C002000E4B70B500251E000D4CE41A0D
:10B1D000A410A54204D0AB00F35898470135F8E716
:10B1E00010F04CFF084B00251E00084CE41AA41078
:10B1F000A54204D0AB00F35898470135F8E770BD7D
:10B20000A0210020A0210020A0210020A4210020B6
:10B2100003008218934202D019700133FAE7704795
:10B22000F0B58BB014001D1E129906DA8024240696
:10B230001B191D0014002D2300E000230B70202398
:10B24000149E03229E43462E07D03300453B5942AD
:10B250004B411099013ACB18109309AB049308ABFA
:10B260000393139B00920293109B220001932B00E7
:10B2700000F0DAFC0700472E02D1119BDB072DD529
:10B28000109BFB180793462E14D13B78302B0CD122
:10B2900000220023200029000EF00CFD002804D11C
:10B2A0000123109A9B1A139A1360139B079A1B6829
:10B2B000D318079300220023200029000EF0FAFC87
:10B2C0003022002802D0079B099307E0099B0799C9
:10B2D000994203D9591C09911A70F7E73800099B64
:10B2E000159ADB1B13600BB0F0BDF7B52B230700DD
:10B2F0000C000270861C002901DA2D234C427B7061
:10B30000092C1CDD6B46DD1D20000A210EF0BCFC63
:10B31000013D3031297020000A210EF0CFFB0400DE
:10B320000928F1DC013D30342C706B4607333000C6
:10B33000AB4209D92B78013533700136F5E730235C
:10B34000E4183370B01C7470C01BFEBDF0B595B02E
:10B350000C000A920B931A9D099001F02BFA0368D6
:10B3600018000D9300F0D2FB0023129323680E9077
:10B370000C930C99277E2B680722C90501D59B18D1
:10B3800000E0073393431A0008322A601A685B68AA
:10B39000A264E3640122E56CA66C6B005B080F936A
:10B3A0005242C04B30000F9910F046FB002819D1D3
:10B3B0000122BC4B524230000F990EF08BFC00284A
:10B3C00010D100220023300029000EF079FC002863
:10B3D00003D023002D2243331A70B34D472F0ED8CC
:10B3E000B24D0CE032002B003000290010F024FB9D
:10B3F000002800D19AE1AE4D472F00D8AD4D032370
:10B400000C9A236101339A432260002642E0672FA1
:10B4100000D193E1472F00D190E10C9A0021134312
:10B4200012AA059211AA0392232223600691019386
:10B4300008A9636852180292009332002B00049707
:10B440000998FFF7EDFE20233A0005009A43472AAA
:10B4500000D18EE11199652F00D996E120000139C4
:10B460003A0050301191FFF740FF129A06008318FE
:10B470002361012A00DD85E12268D20700D581E140
:10B48000232308AA9B181B78002B03D023002D220E
:10B4900043331A700B9B13AA009321000A9B09984F
:10B4A00000F0A4F9431C02D1012040429BE1226834
:10B4B000530501D4236964E0652F00D8CCE0A06C6B
:10B4C000E16C002200230EF0F5FB00282CD00123B4
:10B4D000794A0A9909980B9DA847431CE4D0119B0F
:10B4E000129A934208DB2368DB0705D42368002502
:10B4F0009B0700D50FE113E10B9D0E9B0D9A0A9956
:10B500000998A8470025431CCED0129B013B9D42C1
:10B51000ECDA220001231A320A9909980B9EB047EF
:10B52000431CC1D00135F0E7119B002B2BDC01231C
:10B53000614A0A9909980B9EB047431CB4D0119BED
:10B54000002B05D1129B002B02D12368DB07CDD540
:10B550000B9E0E9B0D9A0A990998B0470026431C32
:10B56000A2D0119B5B429E420ADA220001231A32CA
:10B570000A9909980B9FB847431C95D00136F0E70C
:10B58000129B2A00ACE0A36D129E9E4200DD1E00BD
:10B59000002E05DC00230C93F343DB170F9315E01B
:10B5A00033002A000A9909980B9FB847431CF1D130
:10B5B0007AE7220001231A320A9909980B9FB847AB
:10B5C000431C00D170E70C9B01330C930F9BA26DC1
:10B5D0000C993340D31A9942EBDBAE18119B129AA7
:10B5E00093420DDB2368DB070AD4129B119AED18F6
:10B5F000AD1B9B1A9D4200DD1D00002D09DC11E0F2
:10B600000E9B0D9A0A9909980B9FB847431CECD1E1
:10B610004AE72B0032000A9909980B9EB047431C59
:10B6200000D141E7EF43FB1700260C930AE022000C
:10B6300001231A320A9909980B9FB847431C00D17D
:10B6400032E70136119A129B0C999B1A2A000A4084
:10B650009B1A9E42EBDB49E7129B012B02DC012384
:10B660001A4245D001232A000A9909980B9FB8472E
:10B67000431C00D118E70E9B0D9A0A9909980B9F5D
:10B68000B847431C00D10FE7A06CE16C00220023F7
:10B690000EF010FB002801D000251AE0129B6A1C56
:10B6A000013B26E0FFFFEF7FA0C002009CC002002C
:10B6B000A8C00200A4C00200ACC002002200012306
:10B6C0001A320A9909980B9FB847431C00D1EBE640
:10B6D0000135129B013B9D42F0DB220033005032CA
:10B6E0000A9909980B9DA847431C00D0FEE6DBE6AB
:10B6F0002A000A9909980B9DA847431CEDD1D3E66F
:10B700002200012319320A9909980B9EB047431C65
:10B7100000D1C9E60135E368139A9B1A9D42EFDB1D
:10B72000139BE06898425EDA18005CE08023626850
:10B73000DB00511C00D06AE6073202E0002A02D189
:10B740000122626069E60C9908A80B43002106916A
:10B7500012A9059111A903912321091823600193CE
:10B7600000922B000497029132000998FFF758FDD0
:10B770000500119BDA1C02DB626893421CDD023F6C
:10B78000FFB267E6013323617AE6662F15D163685D
:10B79000002909DD2161002B02D12268D2071ED5C4
:10B7A0000133591821611AE0002B03D101222168CD
:10B7B000114213D09A1C11E06727119B129A9342F1
:10B7C00006DB22682361D20709D50133236106E035
:10B7D0000121002B01DC4918C91A8A182261119B2A
:10B7E0000026A3654CE615B0F0BDC046F7B51700BE
:10B7F00001938A680B6900900C00934200DA1300F1
:10B8000022003B6043321278002A01D001333B60B2
:10B8100023689B0602D53B6802333B6006252368FC
:10B820001D401ED0230043331B785A1E93412268CB
:10B8300092061CD53020E1184331087021005A1CB3
:10B8400045310978A2184332023311700FE022000B
:10B850000123193201990098089EB047431C0ED06D
:10B860000135E3683A689B1A9D42F0DBDAE7220073
:10B87000019943320098089DA847431C02D101203A
:10B88000404220E006232068E1683A680340002532
:10B89000042B03D18D1AEB43DB171D40A3682269EB
:10B8A000934201DD9B1AED180027BD420AD0220009
:10B8B00001231A3201990098089EB047431CDED03C
:10B8C0000137F2E70020FEBDF0B58BB006920A000A
:10B8D00043320793059004920A7E0C00109B6E2A57
:10B8E00000D1ABE011D8632A22D009D8002A00D1B8
:10B8F000B5E0582A00D0C5E045310A70814A4FE0D2
:10B90000642A1DD0692A1BD0BCE0732A00D1AAE0AA
:10B9100009D86F2A29D0702A00D0B3E02022096804
:10B920000A43226037E0752A1FD0782A33D0A9E075
:10B930000E001A684236111D196013683370A4E0B6
:10B9400021681A68080606D4490604D5111D196035
:10B950000023D55E02E0111D19601568002D3BDA49
:10B960002D23049A6D42137036E021681A68080688
:10B9700006D4490604D51568111D1960ADB202E060
:10B98000111D196015685F4B227E039308276F2AEB
:10B990001DD00A271BE022007821453211705A4A37
:10B9A00019680392081D226818600D68100602D4F9
:10B9B000500600D5ADB2D30702D520231A4322602A
:10B9C0001027002D03D1202322689A4322602300F0
:10B9D000002243331A7002E00A274A4B039363683C
:10B9E000A360002B09DB0422216891432160002D14
:10B9F00005D1049E002B11D07BE0002D79D0049E50
:10BA0000280039000EF056F8039B013E5B5C2800CD
:10BA1000337039000DF0C8FF051EF1D1082F09D190
:10BA20002368DB0706D563682269934202DC302372
:10BA3000013E3370049B9B1B23612BE009681A684D
:10BA4000080607D4490605D5111D19601368A28A96
:10BA50001A8004E0111D1960136862691A600023DE
:10BA6000049E236116E01A68111D196016680021F2
:10BA70006268300000F0ACFE002801D0801B6060DE
:10BA8000636803E0260042363270012323610023FD
:10BA9000049A1370079B09AA00932100069B05983E
:10BAA000FFF7A4FE431C02D10120404227E0236996
:10BAB000320006990598079DA847431CF4D02368D7
:10BAC00000259B070FD4099BE068984217DA1800FD
:10BAD00015E022000123193206990598079EB04708
:10BAE000431CE1D00135E368099A9B1A9D42F0DBC3
:10BAF000E9E72600039B42361B7833708EE70BB0D4
:10BB0000F0BDC046AEC00200BFC002000023C25C50
:10BB10000133002AFBD1581E7047F0B503690C6948
:10BB200089B00700059100269C4279DC0B00013C9E
:10BB30001433A50003935B19049303001433029399
:10BB40005D19049B28681B68591C01930DF02CFF9C
:10BB50000190B04233D0039B02989C460696634600
:10BB600004CB9C46019B91B25943120C5A4389194C
:10BB70000B0CD3180793069A1E0C038889B29B18E6
:10BB800002685B1A110C6A46928B8A1A19145218B1
:10BB900011149BB21204134308C0049B0691634521
:10BBA000DDD22B68002B0AD1029B043DAB4201D3AE
:10BBB0003C6104E02B68002BFAD1013CF4E70599C5
:10BBC000380001F029F8002829DB0020019B0299A8
:10BBD0000133039A019340CA0B881818B3B2C31AF1
:10BBE0000868360C000C801B1D14451928149BB2E4
:10BBF0002D042B4308C1049B9342ECD2029AA3006C
:10BC0000D3181A68002A0AD1029A043B9A4201D337
:10BC10003C6104E01A68002AFAD1013CF4E7019E75
:10BC2000300009B0F0BD0000F0B516001F00446AF6
:10BC30009DB00490259D06960797002C08D11020F2
:10BC400000F0BCFD049B5862446084600460C460E2
:10BC5000049B5B6A196800290BD05A680123934042
:10BC60004A608B60049800F0FFFD0022049B5B6A31
:10BC70001A60079B002B05DA01232B607B005B0811
:10BC8000079301E000232B60079CC84B2200199307
:10BC90001A409A4219D1C64B249A1360069AC54B92
:10BCA000002A02D1240300D1C34B269A1800002A8F
:10BCB00001D100F07DFDD978DA1C002900D00532D1
:10BCC000269918000A6000F073FD069E079F002267
:10BCD0000023300039000DF0EDFF051E0ED00123CA
:10BCE000249A1360B54B269A1800002A01D100F05F
:10BCF0005FFDB34A26990A6000F05AFD1AAB019322
:10BD00001BAB009332003B00049801F00BF863007A
:10BD100005905B0D09D03A03AA4C120B1443AA4AB2
:10BD2000300021009E1817951AE01A9B1B9A9E1846
:10BD3000A64BF318202B08DDA54A0698B218D04070
:10BD40004022D31A9C40204303E020220698D31AB5
:10BD500098400FF009FF01239E4C013E09191793EB
:10BD600000229D4B0FF014FB9C4A9D4B0FF096F860
:10BD70009C4A9D4B0EF042F9040030000D000FF07C
:10BD8000B1FE9A4A9A4B0FF089F802000B0020008E
:10BD900029000EF033F904000D000FF06DFE0022B3
:10BDA00003900023200029000DF08AFF00280DD009
:10BDB00003980FF097FE02000B00200029000DF001
:10BDC00079FF43424341039AD31A03930123169305
:10BDD000039B162B11D88749DB00C91808684968EE
:10BDE000069A079B0DF080FF002805D0039B013BBE
:10BDF00003930023169300E016901A9B9E1B0023CA
:10BE00000B93013E0C9604D50C9B5B420B930023D5
:10BE10000C93039B002B08DB039A0C9B9446634412
:10BE20000C9300231192089307E00B9B039A9B1A33
:10BE30000B935342089300231193229B0125092B56
:10BE400025D8052B02DD0025043B2293229B981E5A
:10BE5000032824D80DF09EFD060E0204012302E003
:10BE6000012308E000231093239B002B20DD1F00FB
:10BE70000A9321E00023239A1093039B9F187B1CB5
:10BE80000A930123FA18002A16DD130014E0012793
:10BE900000237F42229310950A97123305E0012771
:10BEA00001237F4210930A9711330022239203E06B
:10BEB00001273B000A972397049A546A0022626084
:10BEC000043211001431994204D8616852000131E2
:10BED0006160F6E76168049800F08EFC049B2060C6
:10BEE0005B6A1B680D930A9B0E2B00D981E1002D24
:10BEF00000D17EE1069B079C14931594039B002BB5
:10BF000031DD0F223B491340DB00CB185C681B6816
:10BF10000E930F94039B02241D11EB060AD514986F
:10BF20001599354B15401A6A5B6A0EF093FB069023
:10BF300007910134304E002D0ED001231D4208D050
:10BF40000E980F99E418326873680EF0A7FF0E90F0
:10BF50000F916D100836EEE70E9A0F9B0698079921
:10BF60000EF078FB4CE0039B02245D42002D49D08B
:10BF7000149815990F231F4A2B40DB00D3181A6819
:10BF80005B680EF08BFF0023069007911A4E2D116F
:10BF9000002D33D00122154205D0A41832687368F1
:10BFA0000EF07CFF01236D100836F1E70000F07FF2
:10BFB0000F270000D9C00200D0C00200ACC00200B0
:10BFC000ADC002000000F03F01FCFFFF32040000A2
:10BFD00012040000000010FE0000F83F61436F6390
:10BFE000A787D23FB3C8608B288AC63FFB799F5092
:10BFF0001344D33FE8C00200C0C10200002B01D0AF
:10C0000006900791169B002B1DD0069D079E0022CF
:10C01000C74B280031000DF053FE002813D00A9BB7
:10C02000002B10D0002F00DCDFE0039B3100013B30
:10C030000E930022BF4B28000EF030FF0134069013
:10C0400007913E0002E0039B0A9E0E9320000FF032
:10C0500049FD069A079B0EF021FF0022B64B0DF01A
:10C06000CDFFB64A12901391129C139D9446139BD8
:10C07000634418931D00002E1CD1069807990022D6
:10C08000AF4B0FF085F92200189B069007910DF039
:10C090002BFE002800D054E2AA481399844661443C
:10C0A0000B000698079922000DF00AFE002800D028
:10C0B0003DE29AE0109A731EA349DB00002A49D0A2
:10C0C000CB181A685B680020A0490EF0C3FA2B0059
:10C0D00022000FF05DF9129013910D9D06980799BB
:10C0E0000FF0CAFC04000FF0FDFC02000B000698E4
:10C0F00007990FF04DF901356B1E30341C70129A00
:10C10000139B069007910DF0DBFD002800D02EE375
:10C11000069A079B002086490FF03AF9129A139B62
:10C120000DF0CEFD002800D0C7E00D9BEB1AB34206
:10C130005BDA1298139900227E4B0EF0AFFE0022BC
:10C1400012901391069807997A4B0EF0A7FE06906D
:10C150000791C3E7C9182200086849682B000EF050
:10C160009DFE0D9C12901391A519069807990FF04A
:10C1700083FC06000FF0B6FC02000B00069807993E
:10C180000FF006F930362670013406900791002230
:10C19000A54222D16D4B129813990DF02FFF02008A
:10C1A0000B00069807990DF09FFD002800D084E051
:10C1B000129A139B002065490FF0EAF802000B0069
:10C1C000069807990DF07CFD00280ED06B1E1A789A
:10C1D000302A00D0CBE21D00F8E706980799554BAE
:10C1E0000EF05CFE06900791BFE7149B159C06932A
:10C1F00007941B9B002B00DA81E0039A0E2A00DDD6
:10C200007DE0D300504AD3185C681B6808930994FA
:10C21000239B002B15DA0A9B002B12DC00D088E14F
:10C22000089809990022464B0EF038FE069A079BA3
:10C230000DF064FD0A9B08931E00002800D07BE1EE
:10C2400082E10D9D069E079F089A099B30003900E8
:10C250000EF000FA0FF010FC04000FF043FC089AF7
:10C26000099B0EF01BFE02000B00300039000FF09E
:10C270008FF8220001356B1E30321A700D9B0A9A1E
:10C28000EB1A9A422ED102000B000DF0B7FE060009
:10C290000F0002000B00089809990DF011FD00280D
:10C2A0000FD10898099932003B000DF003FD0028DA
:10C2B00000D15EE2E30704D45BE20E9B039300E04F
:10C2C0001D006B1E1A78392A08D10D9A9A42F7D1AF
:10C2D000039A0D990132039230220A701A780132C2
:10C2E0001A7046E20022134B0EF0D8FD0022002304
:10C2F00006000F000DF0DEFC0028A5D039E2109AF0
:10C30000002A44D0229A012A0BDC179A002A02D074
:10C310000F4A9B1802E036231A9A9B1A089D0B9C21
:10C3200029E00A9B5D1E089BAB4213DB5D1B18E0F6
:10C330000000F03F0000244000001C400000C0FC52
:10C34000000014400000C07CE8C002000000E03F94
:10C3500033040000089B0895EA1A0025119B9B18DE
:10C3600011930A9B002B04DA0B9B0A9A9C1A002358
:10C3700001E00B9C0A9B0B9A0121D2180B920C9A9C
:10C380000498D3180C9300F00FFB060002E0089D00
:10C390000B9C109E002C0ED00C9B002B0BDD0C9ADE
:10C3A0002300944200DD13000B9AE41AD21A0B9278
:10C3B0000C9AD31A0C93089B002B20DD109B002BAA
:10C3C00017D0002D11D031002A00049800F07EFB18
:10C3D000059A01000600049800F0EFFA05990E9006
:10C3E000049800F041FA0E9B0593089B5A1B06D057
:10C3F00000E0089A0599049800F068FB0590012177
:10C40000049800F0D1FA119B0890002B00D1C0E1F4
:10C410001A000100049800F059FB229B0890012BA0
:10C4200017DC0025069BAB420ED1079B1B03AB42DA
:10C430000AD1199B079A134206D00B9B0135013391
:10C440000B930C9B01330C93119B0120002B0DD0FF
:10C4500000E00025089B089A1B690E9303339B009C
:10C46000D318586800F056FA2023181A0C9BC018ED
:10C470001F23184009D001331B1A042B02DD1C2393
:10C48000181A03E0042B08D018001C300B9B24184A
:10C490001B180B930C9B1B180C930B9B002B05DD9F
:10C4A0001A000599049800F065FB05900C9B002B81
:10C4B00005DD1A000899049800F05CFB0890169BB3
:10C4C000002B1DD00899059800F0A6FB002817DA6C
:10C4D000039B0A22013B039305990023049800F073
:10C4E000DCF9109B0590002B00D159E131000023AD
:10C4F0000A22049800F0D1F90600002F37DC33E05F
:10C500000A9B0A9F002B2ADC229B022B27DD002F8F
:10C5100012D108993B000522049800F0BEF908905A
:10C520000100059800F078FB00280DDC04E0089677
:10C5300002E000231E000893239B0D9DDB43039321
:10C540000AE00E9B089603930D9B0D9A5D1C312308
:10C550001370039B013303930A960026F3E0109BAC
:10C56000002B04D10D9DB5E0229B022BCFDC002CCB
:10C5700005DD31002200049800F0FCFA06000A965E
:10C58000002D12D07168049800F036F931000400D3
:10C5900033690C319A1C92000C3000F024F901220E
:10C5A0002100049800F0E6FA0A900D9B7D1E0B9383
:10C5B0005B190E9308990598FFF7AFFA31001090B8
:10C5C0000400059800F028FB0A9A050008990498D1
:10C5D00000F03DFB01230C93C36830340700002BAF
:10C5E00004D10100059800F017FB0C903900049865
:10C5F00000F03AF90C9B229A134308D1069A0133B2
:10C60000134204D1392C2AD0002D1CDC1DE0002D52
:10C6100006DB229B1D431BD10123069A134217D12F
:10C620000C9B002B11DD05990122049800F0A2FA61
:10C630000899059000F0F0FA002802DC05D1E30724
:10C6400003D5392C0BD0109C31340B9B5D1C0FE0B3
:10C650000B9B5F1C0C9B002B0CDD392C05D10B9B1D
:10C660000B9A5D1C3923137057E03D000B9B01347E
:10C670001C7068E00B9B0E9A3D001C7093423CD0EE
:10C6800000230A220599049800F007F90A9B0590F7
:10C690009E4208D1310000230A22049800F0FDF8E0
:10C6A00006000A900DE0310000230A22049800F0F1
:10C6B000F4F8002306000A220A99049800F0EDF825
:10C6C0000A900B9776E700230A220599049800F058
:10C6D000E4F8059008990598FFF71FFA0D9B303094
:10C6E000287001350400EB1ABB42ECDB3D1E00DC78
:10C6F00001250A9600260D9B5D19059901220498D3
:10C7000000F038FA0899059000F086FA002804DC59
:10C7100013D1E30701D410E01D006B1E1A78392AEB
:10C7200008D10D9A9A42F7D1039B01330393312329
:10C73000137008E001321A7005E06B1E1A78302A77
:10C7400001D11D00F9E70899049800F08DF80A9BC3
:10C75000002B0ED0002E05D09E4203D0310004984D
:10C7600000F082F80A99049800F07EF801E00E9B30
:10C7700003930498059900F077F800232B70039B2E
:10C78000249A01331360269B0D98002B10D01D6056
:10C790000EE0229B012B00DC43E6119D012065E6A3
:10C7A000002F00DDDEE6229B022B00DCDAE6AEE69F
:10C7B0001DB0F0BD00487047E420002010B5034BC9
:10C7C0000100186800F05CFB10BDC046E0200020AE
:10C7D000C9B28218904204D003788B4202D0013053
:10C7E000F8E700207047002310B59A4203D0CC5CD4
:10C7F000C4540133F9E710BD70B5466A04000D005A
:10C80000002E07D11020FFF7D9FF606246608660D6
:10C810000660C660666AF368002B09D0636AAA00E6
:10C82000DB689B18186800280ED002681A6017E0B1
:10C8300021220421200000F0C9FA636AF060DB685D
:10C84000002BEBD100200EE001210E00AE40721D46
:10C850009200200000F0BAFA0028F3D0456086600C
:10C8600000230361C36070BD70B5456A06000C000B
:10C87000002D07D11020FFF7A1FF70624560856091
:10C880000560C560002C07D0726A6368D2689B009F
:10C89000D3181A6822601C6070BDF7B50700080045
:10C8A0000C000D691E00002101921430019A0388CA
:10C8B000013153439B190668360C56431A0C9446B3
:10C8C000B4446246160C120494469BB2634408C0FA
:10C8D0008D42EBDC002E1BD0A3689D4212DB636807
:10C8E0003800591CFFF788FF2100236901909A1C2A
:10C8F00092000C310C30FFF776FF21003800FFF773
:10C90000B3FF019C2B1D9B00E31801355E60256180
:10C910002000FEBD00220300010C914201D103045E
:10C920001032190E01D108321B02190F01D1043245
:10C930001B01990F01D102329B001000002B03DB79
:10C9400020205B0000D5501C70470722036810B5FB
:10C9500001001A400CD001240020234223D10222DE
:10C96000134203D0E34020000B601CE09B0818E05A
:10C9700098B2002801D110221B0CD8B2002801D196
:10C9800008321B0A180701D104321B09980701D18C
:10C9900002329B08D80704D45B082020002B02D069
:10C9A000013210000B6010BD10B50C000121FFF723
:10C9B00023FF01234461036110BDF0B50B6914002E
:10C9C000126989B00D00934201DA25000C002F692D
:10C9D0002669AA68BB1969680193934200DD013199
:10C9E000FFF70AFF0200BB1914329B00D3189C46C4
:10C9F000002113000290634501D202C3FBE7143506
:10CA0000BF00EB191434B6000593A31903950793DF
:10CA1000079B9C4251D2208800281ED0150000267A
:10CA2000039F08CF069504936B461B8A4343190066
:10CA30002B88CB1804999B19090C41432E68360C9E
:10CA400089191E0C89190E0C9BB209040B4308C5E9
:10CA5000059BBB42E5D8069B5E6023681D0C1FD07A
:10CA6000002110001368039F04913E8801686E4303
:10CA7000090C7118049E9BB289190E04334303609C
:10CA800008CF86881B0C6B43090C9B195B18190C8B
:10CA90000491059906900430B942E6D806994B6096
:10CAA00004340432B4E704235B429C4463461B68AD
:10CAB000002B05D1019B013B0193019B002BF2DC74
:10CAC000029B019A18001A6109B0F0BD0323F7B563
:10CAD000134005000E001400002B08D02349013B31
:10CAE0009A00525800233100FFF7D7FE0600A3102A
:10CAF000019338D06C6A002C07D11020FFF75EFE3E
:10CB00006862446084600460C4606F6ABC68002C22
:10CB100010D117492800FFF747FF0023B860040031
:10CB2000036007E0019B5B1001931CD02068002884
:10CB300010D004000122019B1342F3D031002200E7
:10CB40002800FFF73AFF070031002800FFF78CFEAE
:10CB50003E00E7E7220021002800FFF72EFF002318
:10CB600020600360E5E73000FEBDC046B0C10200B2
:10CB700071020000F0B50C0017002369551185B053
:10CB8000EB180193013300934968A3680290009A5F
:10CB9000934202DA01315B00F9E70298FFF72CFEBD
:10CBA00000230200060019001432AB4203DA980099
:10CBB00011500133F9E7EB43DB171D402300AD00B3
:10CBC00055192269143392009A1894461F2217406F
:10CBD00014D00132D21B0392002219682800B940F8
:10CBE0000A4304C504CB0399CA409C45F5D842606A
:10CBF000002A07D0019B0233009303E004CB04C555
:10CC00009C45FBD8009B0298013B33612100FFF754
:10CC10002BFE300005B0F0BD03690A6910B59B1A00
:10CC20000400181E12D1930014341431E218C918EC
:10CC3000043A043913680868834204D083429B4154
:10CC40000120184302E09442F2D3002010BDF0B559
:10CC50000C0085B00700110020001500FFF7DCFF75
:10CC6000061E07D101003800FFF7C6FD012346610B
:10CC7000036155E000230193984204DA23002C005D
:10CC80001D000123019361683800FFF7B5FD019B8A
:10CC900026692F00C3601434B300E3180200029326
:10CCA0002B69002514379B00FB180393143208CC22
:10CCB00069469C4608CF0432009363468B808B887C
:10CCC0005D19009B9BB2EB1A65460193009B2D0CEE
:10CCD000190C019B691A1D14131F9C466B464919B8
:10CCE0009B880D1409040B4361460B60039BBB42F8
:10CCF000DDD8029913008C420BD202CC8BB25B19A7
:10CD00001D14090C49190D149BB209040B4308C2E8
:10CD1000EFE7043B1A68002A01D1013EF9E70661FA
:10CD200005B0F0BDF7B51D000121089F1400FFF705
:10CD300063FD2B036D0006001B0B6D0D02D08022DE
:10CD4000520313430193002C18D068460094FFF758
:10CD5000FCFD009C002809D0019B20211A00091A23
:10CD60008A40C34022437261019300E07461019CD8
:10CD7000B461631E9C410134346107E001A8FFF7F0
:10CD8000E4FD0124019B346173612030002D06D045
:10CD90000B4BED1835232D183D60181A0BE0094B8D
:10CDA000C018094B3860E3189B00F3185869FFF767
:10CDB000B1FD6401201A099B18603000FEBDC04619
:10CDC000CDFBFFFFCEFBFFFFFFFFFF3F4A4370B5E8
:10CDD0001100140000F054F8051E03D022000021B9
:10CDE000FEF716FA280070BD70B50500002944D082
:10CDF0000C1F2368002B00DAE418280000F0B2F8BA
:10CE00001E4A13681100002B02D16360146031E0E8
:10CE1000A3420DD92268A018834203D118685B6829
:10CE20008218226063600C6024E0A24203D81300E1
:10CE30005A68002AF9D11E689819A0420BD12168BE
:10CE4000711858181960824214D11068526841183C
:10CE500019605A600EE0A04202D90C232B6009E051
:10CE600021686018824203D110685268411821601D
:10CE700062605C60280000F076F870BDCC21002074
:10CE8000032370B5CD1C9D43083506000C2D01D23F
:10CE90000C2501E0002D01DBA94202D90C233360EF
:10CEA00048E0300000F05EF8234B1C681A002100B7
:10CEB000002913D00B685B1B0DD40B2B02D90B6020
:10CEC000CC181EE08C4202D1636813601AE04B68F4
:10CED00063600C0016E00C004968E9E7174C236812
:10CEE000002B03D1300000F02BF820602900300027
:10CEF00000F026F8431C18D00323C41C9C43A04216
:10CF00000DD12560300000F02EF8200007220B30F4
:10CF1000231D9043C31A0ED05A42E2500BE0211A4F
:10CF2000300000F00DF8431CEBD10C2330003360CF
:10CF300000F019F8002070BDCC210020C82100208D
:10CF4000002370B5064C05000800236000F00CF8C3
:10CF5000431C03D12368002B00D02B6070BDC0465A
:10CF600050320020704770470E4B10B51A68002AE7
:10CF700001D10D4A1A6069461A681018884206D80D
:10CF80000A490B4C0968A14208D0884206D900F032
:10CF900029F80C2303600120404201E018601000D2
:10CFA00010BDC046D0210020303300201C210020BD
:10CFB000ADDEFECA012110B5494200F001F810BDF6
:10CFC00030B51824062901D1044D00E0044D201C81
:10CFD000291CABBE041C200030BDC046230002004B
:10CFE00026000200014B18687047C046E020002070
:10CFF00076DF7047C04618007ADF7047C0461800D9
:10D000007CDF7047C0461800A9DF7047C046180093
:10D010003CDF7047C046180048DF7047C046180024
:10D0200080B588B002AFF860B9607A607B687B61D8
:10D030000D4B190000200BF0D3FE7B699A687B69C9
:10D040001B889BB218007B695B680849009303004A
:10D0500000200BF0C5FE064B190000200BF0C0FEAF
:10D060000C2002F0D1F8FEE750C2020058C20200C4
:10D070007CC2020080B58AB000AF78601423FB1830
:10D08000180008F09BFC03007B627B6A3B623B6AF2
:10D09000002B05D0374A3B6A9D2118000AF094F80E
:10D0A0001023FB18180008F0B7FC03007B627B6AB2
:10D0B000FB61FB69002B05D02E4AFB699F211800FC
:10D0C0000AF082F80C23FB18180008F049FC030052
:10D0D0007B627B6ABB61BB69002B05D0254ABB69BB
:10D0E000A12118000AF070F87A69234B1B689A4254
:10D0F0000FD07B69180008F069FD02001F4B1A6011
:10D100001E4A1F4B1100180001F098F97A691A4B5A
:10D110001A603A691B4B1B689A420FD03B69180092
:10D1200008F02AFE0200184B1A60174A144B11002F
:10D13000180001F0D1F93A69124B1A60FA68134BE2
:10D140001B689A420FD0FB68180008F077FD0200B8
:10D150000F4B1A600E4A0A4B1100180001F00AFA30
:10D16000FA680A4B1A600B4B01221A70C046BD4682
:10D170000AB080BD84C202001C22002028210020A9
:10D1800054320020202200202C21002024220020C4
:10D19000302100201822002080B582B000AF7860D6
:10D1A000034B01221A70C046BD4602B080BDC04686
:10D1B0001922002080B586B000AF1E4A0023052149
:10D1C00000200AF0D1FE03007B617B693B613B6973
:10D1D000002B05D0184A3B69CB21180009F0F4FF59
:10D1E000164A174B012118000AF042FF0300FB60AA
:10D1F000FB68BB60BB68002B05D00F4ABB68CF2122
:10D20000180009F0E1FF0F4A0F4B012118000AF046
:10D210002FFF0300FB60FB687B607B68002B05D061
:10D22000054A7B68D221180009F0CEFFC046BD46F2
:10D2300006B080BD2822002084C2020075D0010003
:10D2400048C2020099D101004CC2020080B586B0EC
:10D2500000AF3B001A780F218A43111C01220A43B8
:10D260001A703B001A780F210A40111C10220A4341
:10D270001A70204B1800FEF749FC03009AB21D49B2
:10D280003B001800FFF7BCFE03007B617B693B613C
:10D290003B69002B05D0184A3B69E621180009F0CC
:10D2A00093FF3B1D082200211800FDF7B1FF3B1D35
:10D2B00010221A803B1D28225A803B1D00229A8092
:10D2C0003B1DC8225200DA803B1D1800FFF794FE78
:10D2D00003007B617B69FB60FB68002B05D0064A7D
:10D2E000FB68F421180009F06FFFC046BD4606B088
:10D2F00080BDC046C0C2020084C2020080B500AF3B
:10D30000054B180001F042F8044B180008F028FF04
:10D31000C046BD4680BDC046543200207032002059
:10D3200080B584B000AF78607B681B78002B14D187
:10D330000C4B1B883B211800FFF75AFE0300FB60D3
:10D34000FB68BB60BB68002B07D0074A1423FF3380
:10D350001900BB68180009F037FFC046BD4604B08D
:10D3600080BDC0462021002084C2020080B582B06A
:10D3700000AF7860054A8F2359007B68180009F0D8
:10D3800023FFC046BD4602B080BDC04684C2020035
:10D3900080B58AB000AF3B1D1C2200211800FDF7AC
:10D3A00037FF3B1D00221A603B1DA02292025A60EB
:10D3B0003B1DF02212039A603B1D03221A733B1D92
:10D3C0000022DA813B1D00221A743B1D0D4A5A616E
:10D3D0003B1D0D4A9A613B1D180003F03DFE030002
:10D3E0007B627B6A3B623B6A002B07D0074A36238D
:10D3F000FF3319003B6A180009F0E6FEC046BD463F
:10D400000AB080BD21D301006DD3010084C20200A7
:10D4100080B584B000AF174880235B02002219005A
:10D420000AF076FE0300FB60FB68BB60BB68002B64
:10D4300006D0114AA0235900BB68180009F0C4FEA9
:10D440000E4880235B02002219000AF061FE0300EF
:10D45000FB60FB687B607B68002B07D0064A442397
:10D46000FF3319007B68180009F0AEFEC046BD46C8
:10D4700004B080BDD821002084C20200F821002021
:10D4800080B584B000AF002001F0BEFE0300FB6059
:10D49000FB68BB60BB68002B06D0154AA723590068
:10D4A000BB68180009F090FE02F096F80300FB60DC
:10D4B000FB687B607B68002B06D00D4AA9235900CE
:10D4C0007B68180009F080FEFFF7A2FD0300FB60F7
:10D4D000FB683B603B68002B06D0054AAB23590034
:10D4E0003B68180009F070FEC046BD4604B080BD20
:10D4F00084C2020080B584B000AF0200FB1D1A7028
:10D50000FB1D1B78002B14D0032B00D015E002204C
:10D5100001F07AFE0300FB60FB68BB60BB68002B78
:10D520000AD0084AB4235900BB68180009F04CFE21
:10D5300002E0FFF7A5FF00E0C046C046BD4604B0CC
:10D5400080BDC04684C2020080B586B000AF78605E
:10D550007B68180001F05EF97B681B88112B30D0C6
:10D56000522B33D0102B00D04AE0072001F04CFEA4
:10D5700003007B617B693B613B69002B07D0224A3A
:10D580008223FF3319003B69180009F01DFE7B68F8
:10D590009A881E4B1A801D4B1888002300220021F8
:10D5A000FFF732FD03007B617B69FB60FB68002BAA
:10D5B00023D0154AC2235900FB68180009F004FE65
:10D5C0001BE0124B012252421A8019E00F4B1888BF
:10D5D000002300220021FFF717FD03007B617B6918
:10D5E000BB60BB68002B0AD0074A8E23FF331900AB
:10D5F000BB68180009F0E8FD01E0C04600E0C04645
:10D60000C046BD4606B080BD84C202002021002075
:10D6100080B582B000AF78607B68180004F010FF1E
:10D620007B68180003F05AFE7B68180001F0EAFFDF
:10D630007B681800FFF788FF7B68180003F026FB63
:10D640007A68074B1100180000F01EFC7A68054B41
:10D650001100180008F098FCC046BD4602B080BD1D
:10D66000543200207032002080B582B000AF786064
:10D670007B68180007F0C6F97B68180003F0B2FB5E
:10D68000C046BD4602B080BD80B590B000AF182343
:10D69000FA18414B1000190004231A00FFF7A3F8F1
:10D6A0003E491823F818002348220BF03DFD0300E3
:10D6B000FB63FB6BBB63BB6B002B06D0384AE223DA
:10D6C0005900BB6B180009F07FFD3B1D1A000121BA
:10D6D00000200BF0BDFD03007B637B6B3B633B6B6A
:10D6E000002B06D02E4AE52359003B6B180009F0A9
:10D6F0006BFD2C4BFB62FB6A18000BF0FFFD030077
:10D700007B637B6BBB62BB6A002B07D0244ACE23B2
:10D71000FF331900BB6A180009F056FD3B1D1800C5
:10D720000BF018FE03007B637B6B7B627B6A002B34
:10D7300007D01B4AD223FF3319007B6A180009F077
:10D7400043FD194B18000BF037FD03007B637B6B27
:10D750003B623B6A002B07D0114AD623FF331900E6
:10D760003B6A180009F030FD104B18000BF038FD33
:10D7700003007B637B6BFB61FB69002B07D0084ACE
:10D78000DA23FF331900FB69180009F01DFDC046BC
:10D79000BD4610B080BDC046C4C20200F0230020C8
:10D7A00084C20200E81F002011D6010069D60100E2
:10D7B00080B586B000AF0200FB1D1A70FB1D1B7800
:10D7C000072B1FD00A2B02D0042B03D031E0FFF728
:10D7D00057FE2EE0194B1B8813211800FFF708FC99
:10D7E00003007B617B69082B20D07B693B613B692F
:10D7F000002B1BD0124AF72359003B69180009F08F
:10D80000E3FC13E003F020FB03007B617B69082B42
:10D810000ED07B69FB60FB68002B09D0084AFB2314
:10D820005900FB68180009F0CFFC01E0C04600E099
:10D83000C046C046BD4606B080BDC046202100207F
:10D8400084C2020080B586B000AFF860B9607A602B
:10D850007B687B617B69002B06D0064A8223990096
:10D860007B69180009F0B0FC00231800BD4606B023
:10D8700080BDC04684C2020080B58AB000AF0200FD
:10D88000FB1D1A701423FB18FA1D12781A7007F08A
:10D8900035FA03007B627B6A3B623B6A002B05D052
:10D8A000374A38493B6A180009F08EFC1423FB18EC
:10D8B000180004F055FC03007B627B6AFB61FB6986
:10D8C000002B05D02E4A3049FB69180009F07CFC7A
:10D8D0000823FB180533052200211800FDF798FCEA
:10D8E0000823FB185A7901210A435A710823FB18AF
:10D8F0005A7902218A435A710823FB185A79042164
:10D900008A435A710823FB185A7908218A435A71AD
:10D910000823FB185A7970218A43111C30220A43CC
:10D920005A710823FB185A797F210A405A7108233B
:10D93000FB1807229A710823FB181022DA710823BA
:10D94000FB18124A1A600823FB1801221A710823D7
:10D95000FA180F4B1100180004F0B2FC03007B62B0
:10D960007B6ABB61BB69002B05D0054A0949BB69CD
:10D97000180009F029FCC046BD460AB080BDC0466B
:10D9800084C20200220200002502000045D80100E6
:10D99000D42100203502000080B59CB002AF2823BE
:10D9A000FB18382200211800FDF732FC2823FB1851
:10D9B00002221A702823FB1801229A702823FB18D0
:10D9C0000622DA702823FB1801221A822823FB186A
:10D9D000164A5A613B1D180024231A000021FDF746
:10D9E00017FC3B1D01221A733B1D962252001A613F
:10D9F0003B1D00225A610E493A1D2823F8180023C6
:10DA000000930B00002102F061FE03007B667B6E39
:10DA10003B663B6E002B05D0064A07493B6E18005B
:10DA200009F0D2FBC046BD461AB080BD24210020BB
:10DA3000F5D4010084C202004F02000080B586B018
:10DA400000AF7860194B1A491A00032001F0F8FB67
:10DA500003007B617B693B613B69002B05D0154A64
:10DA600015493B69180009F0AFFB0B23FB1819009F
:10DA7000002001F00FFE03007B617B69FB60FB6807
:10DA8000002B05D00B4A0D49FB68180009F09CFBE0
:10DA90000B23FB181B78023B5A425341DAB27B68D6
:10DAA0001A70C046BD4606B080BDC046B1D7010061
:10DAB000CD0C000084C202005E0200006102000082
:10DAC00080B582B000AFFFF7A7FA03007B607B68E8
:10DAD0003B603B68002B06D0054A9B2399003B68BE
:10DAE000180009F071FBC046BD4602B080BDC046BB
:10DAF00084C2020080B582B000AF786039607B6874
:10DB0000180007F0EFFDC046BD4602B080BDC0461C
:10DB100090B587B000AF3B00104A13CA13C3126818
:10DB20001A600F4A39000F48002308F02FFD030048
:10DB30007B617B693B613B69002B06D00A4AA223CB
:10DB400099003B69180009F03FFB064B180008F0EC
:10DB500099FDC046BD4607B090BDC046C8C2020090
:10DB6000F5DA01003421002084C20200B0B59AB079
:10DB700004AFFFF71FFB372308229446BC446344DD
:10DB80001800FFF75BFFFFF77FFD3723082294465D
:10DB9000BC4463441B781800FFF76EFEFFF756FB8A
:10DBA000FFF7FAFEFFF7AAFBFFF7F2FB524A534BCF
:10DBB000190000200BF014F9FFF7AAFF504B1800D2
:10DBC00007F07AFE03007B657B6D3B653B6D002BA8
:10DBD00005D04C4A4C493B6D180009F0F5FA032377
:10DBE00001220121012007F075FE03007B657B6D9A
:10DBF000FB64FB6C002B06D0424AAA239900FB6C05
:10DC0000180009F0E1FA07F02BFF03007B657B6D3C
:10DC1000BB64BB6C002B05D03A4A3C49BB6C180076
:10DC200009F0D2FAFFF7F4FB032002F07BFE0300B9
:10DC30007B647B6C3B643B6C002B05D0314A3449E0
:10DC40003B6C180009F0C0FA324B1B78DBB2002B9A
:10DC500044D0314B1B6818000CF092F9031C2F497B
:10DC6000181C0CF073F8031C181C0DF0B5FF38607D
:10DC700079602B4B1B6818000CF082F9031C89217A
:10DC8000C905181C0CF062F8031C181C0DF0A4FF49
:10DC900004000D00234B1B6818000CF071F9031CE5
:10DCA0001E49181C0CF052F8031C181C0DF094FFB0
:10DCB00002000B001C490C203818029203930094B8
:10DCC00001953A687B680EF009F80C23FB181900DF
:10DCD00000200BF085F80F4B00221A70FFF7F0FEC2
:10DCE000124B1B78DBB2002BAED008F0B7F80F4B0D
:10DCF00000221A70A8E7C046D8C20200E4C202009F
:10DD00003421002084C20200A5020000AB02000002
:10DD1000B102000018220020282100200000C84283
:10DD20002C21002030210020F8C2020019220020FE
:10DD3000A0DF7047C0461800A2DF7047C046180039
:10DD4000A5DF7047C0461800A6DF7047C046180020
:10DD500063DF7047C046180080B58AB000AF7860B6
:10DD600039601023FB1802221A801023FB180022AE
:10DD70005A801023FB180E22BA185A603B68DA88C2
:10DD80007B681B899A4222D17B6818887B681B8933
:10DD90001022BA181900FFF7D3FF03007B627B6AD9
:10DDA0003B623B6A002B05D0334A3B6A27211800AF
:10DDB00009F00AFA0E23FB181B88012B03D12F4B05
:10DDC00001221A7054E02D4B00221A7050E03B687B
:10DDD000DA887B681B8A9A4222D17B6818887B6824
:10DDE0001B8A1022BA181900FFF7AAFF03007B62F2
:10DDF0007B6AFB61FB69002B05D01F4AFB6934215C
:10DE0000180009F0E1F90E23FB181B88012B03D140
:10DE10001B4B01221A702BE0194B00221A7027E0CD
:10DE20003B68DA887B681B8B9A4221D17B68188813
:10DE30007B681B8B1022BA181900FFF781FF0300C3
:10DE40007B627B6ABB61BB69002B05D00A4ABB6958
:10DE50004121180009F0B8F90E23FB181B88012B8B
:10DE600003D1084B01221A7002E0064B00221A70FF
:10DE7000C046BD460AB080BD20C302007E320020ED
:10DE80007F3200208032002080B582B000AF786001
:10DE900039603B681B88112B09D0502B0CD0102BFC
:10DEA00000D010E03B689A887B681A800BE07B68A2
:10DEB000012252421A8006E03A687B68110018007D
:10DEC000FFF74AFFC046C046BD4602B080BDC0460F
:10DED00080B594B000AF78600023FB644423FB1846
:10DEE00001229A704423FB185C4A1A802823FB18ED
:10DEF0001C2200211800FDF78BF92823FB181A7843
:10DF000002210A431A702423FB180322002118005F
:10DF1000FDF77EF92423FB181A780F218A43111C80
:10DF200001220A431A702423FB181A780F210A4091
:10DF3000111C10220A431A702423FB185A780F214F
:10DF40008A43111C01220A435A702423FB185A7871
:10DF50000F210A40111C10220A435A702423FB1877
:10DF60009A7806218A43111C02220A439A702823B8
:10DF7000FB182422BA185A612823FB181A7810219A
:10DF80000A431A702023FB18032200211800FDF712
:10DF90003FF92023FB189A7806218A43111C02229C
:10DFA0000A439A702023FB181A780F218A43111C08
:10DFB00001220A431A702023FB181A780F210A4005
:10DFC000111C10220A431A702023FB185A780F21C3
:10DFD0008A435A702023FB185A780F210A405A703E
:10DFE0000C23FB18142200211800FDF711F90C2353
:10DFF000FB184422BA181A600C23FB182022BA1806
:10E000005A600C23FB1804229A810C23FB1804226B
:10E010001A810823FB1800221A600C23FB1808221F
:10E02000BA181A617B6858887B6814330C22BA18B6
:10E0300028217918FFF780FE0300FB64FB6CBB64AA
:10E04000BB6C002B05D0064ABB6C8D21180009F073
:10E05000BBF800231800BD4614B080BD5EE5FFFF8D
:10E0600020C3020080B594B000AF78600023FB6449
:10E070004423FB1801229A704423FB18D222FF325A
:10E080001A802823FB181C2200211800FDF7C0F875
:10E090002823FB181A7802210A431A702423FB183C
:10E0A000032200211800FDF7B3F82423FB181A7887
:10E0B0000F218A43111C01220A431A702423FB18E2
:10E0C0001A780F210A40111C10220A431A702423C7
:10E0D000FB185A780F218A43111C01220A435A70F7
:10E0E0002423FB185A780F210A40111C10220A43DE
:10E0F0005A702423FB189A7806218A43111C0222A5
:10E100000A439A702823FB182422BA185A6128233C
:10E11000FB181A7810210A431A702023FB180322D7
:10E1200000211800FDF774F82023FB189A780621C7
:10E130008A43111C02220A439A702023FB181A7882
:10E140000F218A43111C01220A431A702023FB1855
:10E150001A780F210A40111C10220A431A7020233A
:10E16000FB185A780F218A435A702023FB185A78DB
:10E170000F210A405A700C23FB18142200211800AA
:10E18000FDF746F80C23FB184422BA181A600C233A
:10E19000FB182022BA185A600C23FB1804229A811B
:10E1A0000C23FB1804221A810823FB1800221A6092
:10E1B0000C23FB180822BA181A617B6858887B6800
:10E1C0000C330C22BA1828217918FFF7B5FD03008B
:10E1D000FB64FB6CBB64BB6C002B05D0054ABB6CBD
:10E1E000C121180008F0F0FF00231800BD4614B04C
:10E1F00080BDC04620C3020080B594B000AF7860F7
:10E200000023FB644423FB1801229A704423FB186B
:10E210005C4A1A802823FB181C2200211800FCF7F6
:10E22000F7FF2823FB181A7802210A431A702423C7
:10E23000FB18032200211800FCF7EAFF2423FB1837
:10E240001A780F218A43111C01220A431A702423D1
:10E25000FB181A780F210A40111C10220A431A7069
:10E260002423FB185A780F218A43111C01220A43E8
:10E270005A702423FB185A780F210A40111C1022CF
:10E280000A435A702423FB189A7806218A43111CEA
:10E2900002220A439A702823FB182422BA185A61D2
:10E2A0002823FB181A7810210A431A702023FB1820
:10E2B000032200211800FCF7ABFF2023FB189A78FB
:10E2C00006218A43111C02220A439A702023FB185C
:10E2D0001A780F218A43111C01220A431A70202345
:10E2E000FB181A780F210A40111C10220A431A70D9
:10E2F0002023FB185A780F218A435A702023FB18D9
:10E300005A780F210A405A700C23FB18142200215E
:10E310001800FCF77DFF0C23FB184422BA181A6082
:10E320000C23FB182022BA185A600C23FB18042275
:10E330009A810C23FB1804221A810823FB1800225F
:10E340001A600C23FB180822BA181A617B685888D7
:10E350007B6804330C22BA1828217918FFF7ECFCEB
:10E360000300FB64FB6CBB64BB6C002B05D0064A4E
:10E37000BB6CF521180008F027FF00231800BD46EC
:10E3800014B080BDAEEEFFFF20C3020080B58AB09E
:10E3900000AF78600823FA18254B100019001023ED
:10E3A0001A00FEF720FA1823FB18224A1A801823B5
:10E3B000FB189A1C0823FB1811001800FFF7C8FC73
:10E3C00003007B627B6A3B623B6A002B06D01A4AE1
:10E3D000842359003B6A180008F0F6FE7B6801228E
:10E3E00052421A807B689A1C1823FB1819000120DE
:10E3F000FFF79EFC03007B627B6AFB61FB69002BDD
:10E4000006D00D4A88235900FB69180008F0DCFE8D
:10E410007B681800FFF7F0FE7B681800FFF722FE0C
:10E420007B681800FFF754FDC046BD460AB080BDAA
:10E4300064C302000DF0FFFF20C3020080B588B066
:10E4400000AF786039607B681B88204A934238D0DF
:10E450001F4B1B78DBB2002B33D01A23FB1804228E
:10E460001A800823FB18102200211800FCF7D0FEA8
:10E470007B689A880823FB181A800823FB1801225E
:10E480009A700823FB1800229A800823FB181A228E
:10E49000BA189A600823FB183A68DA607B681B8810
:10E4A0000822BA1811001800FFF74EFC0300FB61A8
:10E4B000FB69002B05D0FA69064B190000200AF011
:10E4C0008FFCC046BD4608B080BDC046FFFF0000BF
:10E4D0007E32002074C3020080B588B000AF78603F
:10E4E00039607B681B88204A934238D01F4B1B78C9
:10E4F000DBB2002B33D01A23FB1804221A80082326
:10E50000FB18102200211800FCF782FE7B689A8914
:10E510000823FB181A800823FB1801229A7008238D
:10E52000FB1800229A800823FB181A22BA189A6056
:10E530000823FB183A68DA607B681B880822BA183F
:10E5400011001800FFF700FC0300FB61FB69002BC2
:10E5500005D0FA69064B190000200AF041FCC046BC
:10E56000BD4608B080BDC046FFFF00007F320020DE
:10E570008CC3020080B588B000AF786039607B68DA
:10E580001B88204A934238D01F4B1B78DBB2002BEC
:10E5900033D01A23FB1804221A800823FB181022F8
:10E5A00000211800FCF734FE7B689A8A0823FB18C8
:10E5B0001A800823FB1801229A700823FB180022F6
:10E5C0009A800823FB181A22BA189A600823FB18AD
:10E5D0003A68DA607B681B880822BA1811001800B4
:10E5E000FFF7B2FB0300FB61FB69002B05D0FA6962
:10E5F000064B190000200AF0F3FBC046BD4608B0E8
:10E6000080BDC046FFFF000080320020A4C302008E
:10E6100090B583B000AF78607B681B88103B1A0010
:10E62000414B9200D258414B190000200AF0D8FB10
:10E630007B689B881A003E4B190000200AF0D0FB33
:10E640007B681B88112B5ED0122B2FD0102B00D093
:10E6500066E07B681B8B18000DF044FA0022354BF6
:10E660000CF01CFC03000C00180021000BF050FB08
:10E6700003009BB21A00304B190000200AF0B0FBD7
:10E680007B68DB8B1A0013009B009B185B001A0051
:10E690002A4B190000200AF0A3FB7B689B8B1A0011
:10E6A000274B190000200AF09BFB39E07B681B898F
:10E6B00018000DF017FA00221E4B0CF0EFFB0300C0
:10E6C0000C00180021000BF023FB03009BB21A0082
:10E6D000194B190000200AF083FB7B68DB891A00C4
:10E6E00013009B009B185B001A00144B19000020BC
:10E6F0000AF076FB7B689B891A00114B19000020F9
:10E700000AF06EFB0CE07B681B7A123B1A000D4B83
:10E710009200D2580C4B190000200AF061FBC04651
:10E72000C046BD4603B090BD3C210020ECCA0200AB
:10E73000FCCA02000000F43F14CB02002CCB020004
:10E7400044CB02008021002058CB020090B58BB052
:10E7500002AF78601E23FB187A6892881A8008231B
:10E76000FA187B68043313CB13C2196811609B88B5
:10E7700093801C23FB187A6812881A801C23FB18CC
:10E780001B88512B04D0522B2ED0502B1DD034E09F
:10E790000823FB189B78012B0BD10823FB189B88BF
:10E7A0001A000823FB18DB88164900200AF018FB22
:10E7B00023E00823FB189B881A000823FB18DB883A
:10E7C000114900200AF00CFB17E07B68DB881A0077
:10E7D0007B681B8918007B6812330C490093030087
:10E7E00000200AF0FDFA08E07B689B791A00084BCC
:10E7F000190000200AF0F4FAC046C046BD4609B030
:10E8000090BDC04660CB020084CB0200A8CB0200C2
:10E81000D8CB020080B584B000AF78607B681B88DD
:10E82000FB60FA68244B190000200AF0D9FAFB6853
:10E830000F2B07D9FB682F2B04D87B681800FFF734
:10E84000E7FE35E0FB684F2B07D9FB686F2B04D838
:10E850007B681800FFF77AFF2AE0FB682F2B0FD99F
:10E86000FB684F2B0CD87B681B88303B1A00134B7E
:10E870009200D258124B190000200AF0B1FA17E0AA
:10E88000FB68002B0ED0FB680F2B0BD87B681B8816
:10E890005A1E0C4B9200D2580B4B190000200AF064
:10E8A0009FFA05E0FA68094B190000200AF098FA6F
:10E8B000C046BD4604B080BDE8CB020078210020F0
:10E8C000F8CB02007C21002004CC020010CC020016
:10E8D00080B584B000AF786039607B68032B16D8B0
:10E8E000A023DA05A223DB00D358DB43FB600C4BEB
:10E8F0007A689200D35801229A4013001A00FB68EC
:10E9000013405A1E9341DAB23B681A7002E03B682A
:10E9100000221A7000231800BD4604B080BDC04616
:10E9200034CC020080B586B000AF0200FB1D1A7027
:10E93000BB1D0A1C1A701723FB1800221A70002333
:10E940003B6102E03B6901333B613B69032B07D824
:10E95000444B3A699200D258FB1D1B789A42F1D180
:10E960003B69032B69D8BB1D1B78012B04D0022BFC
:10E9700056D0002B36D060E01723F9183A483A6990
:10E9800013005B009B181B5C0B7037493A6913003E
:10E990005B009B18CB1801331B78002B14D0334835
:10E9A000334B1A6813009B009B185B001900314B16
:10E9B0001A0009F0ADFB0300FB60FB68002B03D1DC
:10E9C0002C4BFA1D12781A7027493A6913005B0024
:10E9D0009B18CB1802331978274A3B69D3180A1CB5
:10E9E0001A702AE0214B180009F0CCFB224A3B693F
:10E9F000D31819781C483A6913005B009B18C31898
:10EA000002331B78994217D11723F91816483A692F
:10EA100013005B009B18C31802331B780B700BE0CC
:10EA20001723F91810483A6913005B009B18C318A4
:10EA300001331B780B7000E0C0461723FB181B78CE
:10EA4000002B0AD00D4B1B68002B06D00B4B1B680C
:10EA50001722BA18127810009847C046BD4606B073
:10EA600080BDC04634CC02008C24002098240020B5
:10EA70003C240020B8240020BC240020882400204E
:10EA800080B582B000AF78607B681B7802211800E7
:10EA9000FFF748FFC046BD4602B080BD90B589B0C3
:10EAA00000AF0200FB1D1A700023FB610023BB6155
:10EAB000FB1D1B78172B00D958E39A00E24BD318A3
:10EAC0001B689F46A023DA05E04B1B68D943F0235F
:10EAD0005B041940A123DB00D150A023DB05DC4AF5
:10EAE00000219950DB4BFA1D12781A703FE3A023E6
:10EAF000DA05D64B1B68D943E0235B041940A123F8
:10EB0000DB00D150A023DB05D14A00219950A0237E
:10EB1000DB05D14A9B58F02252045A4080239B03C4
:10EB2000134016D0A023DA05A123DB00802189033E
:10EB3000D150A023DB05C64A00219950FB1D1B784C
:10EB4000022B02D1E123DB0001E0FA231B01BB61B0
:10EB500014E0A023DB05BE49802292035A50A02373
:10EB6000DA05A123DB000021D150FB1D1B78022B0D
:10EB700001D1C82301E0C8235B00BB61B54BFA1D7E
:10EB800012781A70B54CBB69642118000AF00CFFAA
:10EB900003001A00B24B1B685343002219002000E7
:10EBA00009F0B6FA0300FB61E1E2A023DA05A74B06
:10EBB0001B68D943E0235B041940A123DB00D1503B
:10EBC000A023DB05A24A00219950A023DB05A24A1D
:10EBD0009B58F02252045A4080239B03134016D0C6
:10EBE000A023DA05A123DB0080218903D150A023D3
:10EBF000DB05974A00219950FB1D1B78032B02D19E
:10EC0000C8239B0001E0FA231B01BB6114E0A02391
:10EC1000DB058F49802292035A50A023DA05A123F5
:10EC2000DB000021D150FB1D1B78032B01D1C82331
:10EC300001E0C8235B00BB61864BFA1D12781A7095
:10EC4000864CBB69642118000AF0AEFE03001A006E
:10EC5000834B1B68534300221900200009F058FA27
:10EC60000300FB6183E2A023DA05784B1B68D943DC
:10EC7000E0235B041940A123DB00D150A023DB0576
:10EC8000734A00219950A023DB05734A9B58F02258
:10EC900052045A4080239B0313400FD0A023DA056F
:10ECA000A123DB0080218903D150A023DB05684A22
:10ECB00000219950FA231B01BB610EE0A023DB0564
:10ECC0006349802292035A50A023DA05A123DB0076
:10ECD0000021D150C8235B00BB615E4BFA1D127846
:10ECE0001A705E4CBB69642118000AF05DFE0300D7
:10ECF0001A005B4B1B68534300221900200009F0E7
:10ED000007FA0300FB6132E2A023DA054F4B1B68D0
:10ED1000D943E0235B041940A123DB00D150A02399
:10ED2000DB054B4A00219950A023DB054A4A9B583A
:10ED3000F02252045A4080239B03134015D0A02395
:10ED4000DA05A123DB0080218903D150A023DB0554
:10ED50003F4A00219950FB1D1B78052B01D1C82388
:10ED600001E0FA231B01BB6114E0A023DB05384955
:10ED7000802292035A50A023DA05A123DB00002150
:10ED8000D150FB1D1B78052B01D1C82301E0C823FE
:10ED90005B00BB612F4BFA1D12781A702F4CBB69B8
:10EDA000642118000AF000FE03001A002C4B1B68B7
:10EDB000534300221900200009F0AAF90300FB6167
:10EDC000D5E1A023DA05214B1B68D943E0235B047E
:10EDD0001940A123DB00D150A023DB051C4A0021F0
:10EDE0009950A023DB051C4A9B58F02252045A403C
:10EDF00080239B0313400CD0A023DA05A123DB0062
:10EE000080218903D150A023DB05114A00219950AC
:10EE10000BE0A023DB050E49802292035A50A02369
:10EE2000DA05A123DB000021D1500A4BFA1D12782C
:10EE30001A700A480A4B1B680022190009F068F989
:10EE40000300FB6193E1C04664CC0200442400202F
:10EE50000C05000038240020040500004824002090
:10EE60003C240020A023DA05C34B1B68D943E023D0
:10EE70005B041940A123DB00D150A023DB05BF4A6E
:10EE800000219950A023DB05BC49802292035A50EF
:10EE9000A023DA05A123DB000021D150B84BFA1DD5
:10EEA00012781A7063E1A023DB05B64A9B587B6198
:10EEB000A023DA057B69D9438023DB031940A12312
:10EEC000DB00D150A023DB0579698022D2030A4000
:10EED000AA495A50AC48AD4B1B680022190009F0F2
:10EEE00017F90300FB6142E1A023DB05A54A9B580B
:10EEF0003B61A023DA053B69D9438023DB0319403A
:10EF0000A123DB00D150A023DB0539698022D20385
:10EF10000A409A495A509C489C4B1A6813009B001F
:10EF20009B180022190009F0F3F80300FB611EE1B1
:10EF3000A023DB05934A9B58FB60A023DA05FB68FE
:10EF4000D9438023DB031940A123DB00D150A02348
:10EF5000DB05F9688022D2030A4088495A508A4862
:10EF60008A4B1B680022190009F0D2F80300FB61EC
:10EF7000FDE0A023DB05834A9B58BB60A023DA0594
:10EF8000BB68D9438023DB031940A123DB00D150A8
:10EF9000A023DB05B9688022D2030A4077495A5082
:10EFA00079487A4B1A6813009B009B1800221900BD
:10EFB00009F0AEF80300FB61D9E0A023DB056F493F
:10EFC000F02252045A50A023DA05A123DB000021CD
:10EFD000D1506B4BFA1D12781A70C8E06C4B1800B8
:10EFE00009F0D0F80300FB61FB1D1B781122D31A36
:10EFF000BB61BB69002B2DD0FB69002B2AD15E4B76
:10F00000802212041A60BB69012B13D9604CBB69C2
:10F01000C8225343642118000AF0C6FC03001A00FA
:10F020005A4B1B68534300221900200009F070F866
:10F030000300FB61A023DA054F4B1968F0235B0442
:10F040000B404E495350A023DA05A123DB000021D9
:10F05000D1508CE0A023DA05474B1968F0235B04FC
:10F060001940A123DB00D150A023DB05434A002136
:10F070009950414B00221A6079E0A023DA05A123C0
:10F08000DB00F0214904D150A023DB053B4A0021DD
:10F0900099503B4BFA1D12781A7068E0A023DA05EC
:10F0A000A123DB00E0214904D150A023DB05334A32
:10F0B00000219950A023DB053049802292035A5049
:10F0C000A023DA05A123DB000021D1502C4BFA1D2F
:10F0D00012781A704BE0A023DA05A123DB00D021BF
:10F0E0004904D150A023DB05244A00219950A023D4
:10F0F000DB0522498022D2035A50A023DA05A1233E
:10F10000DB000021D1501E4BFA1D12781A702EE040
:10F11000A023DA05A123DB00C0214904D150A0239C
:10F12000DB05164A00219950A023DB051349C022B4
:10F13000D2035A50A023DA05A123DB000021D150CD
:10F140000F4BFA1D12781A7011E0A023DB050B4952
:10F15000F02252045A50A023DA05A123DB0000213B
:10F16000D150074BFA1D12781A7000E0C046FB69B7
:10F170001800BD4609B090BD442400200C050000D5
:10F180003824002004050000482400203C240020EE
:10F190006824002080B582B000AF7860064B1B6801
:10F1A0000122134004D0054B1B781800FFF776FCB2
:10F1B000C046BD4602B080BD402400203824002057
:10F1C00080B584B000AF7860A023DB050C4A9B5863
:10F1D000FB60A023DA05FB68D94380231B04194098
:10F1E000A123DB00D150A023DB05F96880221204A3
:10F1F0000A4004495A50C046BD4604B080BDC046CE
:10F20000040500000C05000080B584B000AF0200CA
:10F21000FB1D1A700023FB60084B1B680122134082
:10F2200006D0FB1D1B781800FFF738FC0300FB60BD
:10F23000FB681800BD4604B080BDC04640240020D5
:10F2400080B586B000AFF860B9607A6000237B615A
:10F25000384BBA681A60384BFA681A60374B7A68CC
:10F260001A60FB680222134031D000233B610AE0A0
:10F270003B6901220121180000F072F803007B6154
:10F280003B6901333B613B69032B02D87B69002B4F
:10F29000EED07B69002B08D1BB685A08284B0421AB
:10F2A000180007F0EDFE03007B617B69002B03D1A2
:10F2B00007F068FF03007B617B69002B07D1214ABF
:10F2C000214B0021180008F0D3FE03007B61FB688E
:10F2D0000122134012D0A023DA05A123DB00F02184
:10F2E0004904D150A023DB05184A00219950A023DE
:10F2F000DA05A323DB00F0214904D1507B69002B00
:10F3000007D1134A134B0021180008F0B1FE030087
:10F310007B617B69002B07D10F4A104B012118003C
:10F3200008F0A6FE03007B617B691800BD4606B0AD
:10F3300080BDC0463C2400204024002088240020BA
:10F3400044CC020081EA010030CC02000C05000030
:10F3500095F1010028CC0200C1F101002CCC020083
:10F3600080B584B000AF786008001100FB1C021C5F
:10F370001A70BB1C0A1C1A700023FB607B68032BED
:10F380003BD8BB1C1B78012B0BD1FB1C1B78012B22
:10F3900004D17B68DBB20D33DAB200E00022BB1C83
:10F3A0001A70FB1C1B78012B04D0022B0BD0002BF6
:10F3B00014D01EE014497A6813005B009B18BA1C35
:10F3C00012785A541BE010497A6813005B009B18AE
:10F3D000CB180133BA1C12781A7010E00A497A6807
:10F3E00013005B009B18CB180233BA1C12781A70FA
:10F3F00005E00723FB60C04601E00723FB60FB68D4
:10F400001800BD4604B080BD8C24002080B586B0B5
:10F4100000AF786000237B612DE0A023DB051A4A52
:10F42000796989008A58C132FF329200D3583B6112
:10F4300001227B699A4013001A007B68134001D0B7
:10F44000032300E00023FB603B69104A13403B614B
:10F45000FB681B043A6913433B61A023DB050A4A9E
:10F46000796989008A58C132FF3292003969D150D6
:10F470007B6901337B617B69032BCED900231800A4
:10F48000BD4606B080BDC04634CC0200FFFFFCFF85
:10F4900080B582B000AF012200210020FFF760FF9D
:10F4A00003007B607B68002B04D07B68072B01D0B6
:10F4B0007B681EE0072202210120FFF751FF0300B5
:10F4C0007B607B68002B04D07B68072B01D07B68B6
:10F4D0000FE0042202210020FFF742FF03007B60BF
:10F4E0007B68002B04D07B68072B01D07B6800E091
:10F4F00000231800BD4602B080BDC04680B582B072
:10F5000000AF012202210020FFF72AFF03007B60E9
:10F510007B68002B04D07B68072B01D07B681EE042
:10F52000072202210120FFF71BFF03007B607B689D
:10F53000002B04D07B68072B01D07B680FE00A22E8
:10F5400000210020FFF70CFF03007B607B68002B8D
:10F5500004D07B68072B01D07B6800E000231800F3
:10F56000BD4602B080BDC04680B584B000AF7860B3
:10F570000B23FB1819000020FFF7AAF90300FB601A
:10F58000FB68002B01D0FB6822E00A23FB1819005E
:10F590000120FFF79DF90300FB60FB68002B01D001
:10F5A000FB6815E00A23FB181B78002B03D07B684F
:10F5B00002221A700BE00B23FB181B78002B03D0E0
:10F5C0007B680B221A7002E07B6800221A7000230D
:10F5D0001800BD4604B080BD80B582B000AF0320E6
:10F5E000FFF714FF03007B607B68002B04D07B686F
:10F5F000062B01D07B6800E000231800BD4602B056
:10F6000080BDC04680B584B000AF78607B681B8841
:10F61000102B02D0112B1AD033E01C4B1B68002B8F
:10F620000FD1FFF735FF0300FB60FB68002B08D00C
:10F63000174B1B68002B04D0154B1B68FA68100091
:10F640009847124B1B685A1C104B1A6019E00F4B5D
:10F650001B685A1E0D4B1A600C4B1B68002B0FD1F8
:10F66000FFF74CFF0300FB60FB68002B08D0084B42
:10F670001B68002B04D0064B1B68FA6810009847E3
:10F68000C046C046BD4604B080BDC046C42400206C
:10F69000C024002080B584B000AF786039600023BA
:10F6A000FB600F4B7A681A603B68002B0AD03B68FE
:10F6B0001800FFF759FF0300FB60FB68002B01D027
:10F6C000FB6808E0074B1B68002B03D1FFF716FF10
:10F6D0000300FB60FB681800BD4604B080BDC04657
:10F6E000C0240020C424002071DF7047C0461800E9
:10F6F00072DF7047C046180079DF7047C0461800B7
:10F700007DDF7047C046180065DF7047C0461800AF
:10F7100080B582B000AF02003960BB1D1A80BB1DEE
:10F720001B88DAB23B681A703B680133BA1D128835
:10F73000120A92B2D2B21A7002231800BD4602B069
:10F7400080BDC04680B586B000AFF860B9607A6011
:10F750001A00BB1C1A807B681B8812331A00BB1C62
:10F760001B889A4201D90C2340E07B681B881A0051
:10F77000BB689B1811221A707B681B8801339AB2F0
:10F780007B681A807B681B881A00BB689B18102254
:10F790001A707B681B8801339AB27B681A80172322
:10F7A000FB180F221A701BE07B681B881A00BB68CD
:10F7B0009B181722BA18127852B2F9688A5C1A702C
:10F7C0001723FB181B785BB2DBB2013BDAB21723BD
:10F7D000FB181A707B681B8801339AB27B681A8009
:10F7E0001723FB181B787F2BDED900231800BD469A
:10F7F00006B080BD80B584B000AFB9607A601900F2
:10F800000F23FB18021C1A700C23FB180A1C1A8009
:10F810007B681B88DA1C0C23FB181B889A4201D9D1
:10F820000C2350E07B681B881A00BB689B180222DF
:10F830001A707B681B8801339AB27B681A807B68D8
:10F840001B881A00BB689B181C221A707B681B88D7
:10F8500001339AB27B681A800F23FB181B78022BA6
:10F8600010D002DC012B05D024E0032B12D0042B96
:10F8700018D01FE07B681B881A00BB689B18002209
:10F880001A7019E07B681B881A00BB689B1801225C
:10F890001A7011E07B681B881A00BB689B18022253
:10F8A0001A7009E07B681B881A00BB689B1803224A
:10F8B0001A7001E0072306E07B681B8801339AB2C7
:10F8C0007B681A8000231800BD4604B080BDC04686
:10F8D00080B588B000AFF860B960BB1D1A80BB6806
:10F8E0001B8809331A00BB1D1B889A4201D90C23BF
:10F8F00052E01423FB181800FFF7F6FE0300FB612B
:10F90000FB69002B01D0FB6946E0BB681B881A002D
:10F91000FB689B1808221A70BB681B8801339AB2D7
:10F92000BB681A80BB681B881A00FB689B181B22E7
:10F930001A70BB681B8801339AB2BB681A80BB6817
:10F940001B881A00FB6898181423FB180133062241
:10F950001900FCF748FFBB681B8806339AB2BB68E6
:10F960001A801423FB181B78002B07D1BB681B8857
:10F970001A00FB689B1800221A7006E0BB681B88FF
:10F980001A00FB689B1801221A70BB681B880133A0
:10F990009AB2BB681A8000231800BD4608B080BD2B
:10F9A00080B588B000AFF860B9607A601A00BB1CFF
:10F9B0001A80FB681B78012B05D1FB685B78002B54
:10F9C00001D1072399E07B681B889A1CBB1C1B880C
:10F9D0009A420ED8FB681B78012B0CD17B681B88E0
:10F9E0001A00FB685B78D3189A1CBB1C1B889A42D0
:10F9F00001D90C2381E07B681B88BA1C1288D31ABA
:10FA00009AB21C23FB18023A1A801623FB181C22F8
:10FA1000BA1812881A807B681B880233BA68D31818
:10FA20001622BA1811001800FFF76AFE0300BB6126
:10FA3000BB69002B01D0BB695FE0FB681B78022B20
:10FA40000CD11623FB181B881C22BA1812889A4264
:10FA500004D31F23FB1809221A701CE01F23FB1874
:10FA600008221A70FB681B78012B0ED1FB685B78AB
:10FA70009BB21C22BA1812889A4206D3FB685B78A4
:10FA80009AB21623FB181A8005E01623FB181C22D5
:10FA9000BA1812881A801623FB181B88FE2B01D96E
:10FAA0000C232AE07B681B881A00BB689B1816226F
:10FAB000BA181288D2B20132D2B21A707B681B888F
:10FAC00001339AB27B681A807B681B881A00BB6876
:10FAD0009B181F22BA1812781A707B681B88013392
:10FAE0009AB27B681A807B681A881623FB181B88D9
:10FAF000D3189AB27B681A8000231800BD4608B05C
:10FB000080BDC04680B586B000AFF860B960BB1D4F
:10FB10001A80BB681B881A1DBB1D1B889A4201D91D
:10FB20000C233BE01223FB181800FFF7E5FD030050
:10FB30007B617B69002B01D07B692FE0BB681B8850
:10FB40001A00FB689B1803221A70BB681B880133DC
:10FB50009AB2BB681A80BB681B881A00FB689B18A6
:10FB600019221A70BB681B8801339AB2BB681A80CD
:10FB70001223FB181A88BB681B881900FB685B18E6
:10FB800019001000FFF7C4FD03001900BB681A88B4
:10FB90008BB2D3189AB2BB681A8000231800BD46F6
:10FBA00006B080BD80B584B000AFB9607A6019003E
:10FBB0000F23FB18021C1A700C23FB180A1C1A8056
:10FBC0007B681B88DA1C0C23FB181B889A4201D91E
:10FBD0000C2329E07B681B881A00BB689B18022253
:10FBE0001A707B681B8801339AB27B681A807B6825
:10FBF0001B881A00BB689B1801221A707B681B883F
:10FC000001339AB27B681A807B681B881A00BB6834
:10FC10009B180F22BA1812781A707B681B88013360
:10FC20009AB27B681A8000231800BD4604B080BDDC
:10FC300080B584B000AFB9607A6019000F23FB185B
:10FC4000021C1A700C23FB180A1C1A807B681B8884
:10FC5000DA1C0C23FB181B889A4201D90C2329E0DB
:10FC60007B681B881A00BB689B1802221A707B688D
:10FC70001B8801339AB27B681A807B681B881A0044
:10FC8000BB689B1811221A707B681B8801339AB2DB
:10FC90007B681A807B681B881A00BB689B180F2240
:10FCA000BA1812781A707B681B8801339AB27B6885
:10FCB0001A8000231800BD4604B080BD80B584B012
:10FCC00000AFB9607A6019000F23FB18021C1A708C
:10FCD0000C23FB180A1C1A807B681B88DA1C0C2377
:10FCE000FB181B889A4201D90C2329E07B681B88EA
:10FCF0001A00BB689B1802221A707B681B880133AC
:10FD00009AB27B681A807B681B881A00BB689B18B4
:10FD10000A221A707B681B8801339AB27B681A80AA
:10FD20007B681B881A00BB689B180F22BA181278D0
:10FD30001A707B681B8801339AB27B681A80002393
:10FD40001800BD4604B080BD80B58AB000AFF86031
:10FD5000080011007B600B23FB18021C1A700A2399
:10FD6000FB180A1C1A702323FB1800221A70202388
:10FD7000FB183A6B12881A8000237B6281E0FB68D3
:10FD80005A687B6A9B00D3181022BA181000190019
:10FD900004231A00FCF727FD1723F9181023FB187A
:10FDA00000221800FFF7B0FC0300FB61FB69002B89
:10FDB00001D0FB698EE01723FB181B780A22BA18C2
:10FDC00012789A425AD12323FB181B78002B01D0BA
:10FDD000002200E002221B23FB181A703B6B1B88D9
:10FDE0001A001723FB181B78D2181B23FB181B784B
:10FDF000D2183423FB181B889A4201DD0C2369E0DA
:10FE00002323FB181B7801225340DBB2002B18D0B0
:10FE10003B6B1B8801339AB23B6B1A803B6B1B8890
:10FE20001A007B689B180B22BA1812781A703B6B69
:10FE30001B8801339AB23B6B1A802323FB180122E3
:10FE40001A703B6B1B881A007B689A181723F918E5
:10FE50001023FB181800FFF757FC0300FB61FB6938
:10FE6000002B01D0FB6935E03B6B1A881723FB1888
:10FE70001B789BB2D3189AB23B6B1A807B6A013312
:10FE80007B62FB681B881A007B6A9A4200DD76E77A
:10FE90002323FB181B78002B1BD03B6B1A882023D5
:10FEA000FB181B88D31A9AB21823FB18013A1A8040
:10FEB0001823FB181B88FF2B01D90C230AE02023F1
:10FEC000FB181B887A68D3181822BA181288D2B285
:10FED0001A7000231800BD460AB080BD80B588B0F6
:10FEE00002AFF860080011007B600B23FB18021CB6
:10FEF0001A700A23FB180A1C1A707A680B23FB1865
:10FF00001978F8682423FB181B8801933B6A009337
:10FF100013000222FFF718FF03007B617B69002BAF
:10FF200001D07B6916E07A680A23FB181978F86813
:10FF30002423FB181B8801933B6A009313001022B3
:10FF4000FFF702FF03007B617B69002B01D07B6917
:10FF500000E000231800BD4606B080BD80B582B029
:10FF600000AF78607B681B88052B0AD97B681A88EC
:10FF7000C8231B019A4206D97B681B88164A934204
:10FF800001D0072323E07B685B88052B0AD97B68B7
:10FF90005A88C8231B019A4206D97B685B880E4A9F
:10FFA000934201D0072312E07B681B880A4A9342E0
:10FFB0000CD07B685B88084A934207D07B681A881C
:10FFC0007B685B889A4201D9072300E00023180070
:10FFD000BD4602B080BDC046FFFF000080B586B0C0
:10FFE00000AFF860B9607A601A00BB1C1A807B68A9
:10FFF0001B889A1DBB1C1B889A4201D90C234DE01B
:020000022000DC
:10000000FB681800FFF7AAFF03007B617B69002BE8
:1000100001D07B6942E07B681B881A00BB689B1893
:1000200005221A707B681B8801339AB27B681A809C
:100030007B681B881A00BB689B1812221A707B68A9
:100040001B8801339AB27B681A80FB681A887B6828
:100050001B881900BB685B1819001000FFF758FBDC
:10006000030019007B681A888BB2D3189AB27B6898
:100070001A80FB685A887B681B881900BB685B186C
:1000800019001000FFF744FB030019007B681A8871
:100090008BB2D3189AB27B681A8000231800BD4631
:1000A00006B080BD80B586B000AFF860B9607A60F8
:1000B0001A00BB1C1A80FB689B8802337B617B683B
:1000C0001B881A007B69D3189A1CBB1C1B889A4298
:1000D00001D90C2354E07B69FE2B01D90C234FE09E
:1000E0007B681B881A00BB689B187A69D2B2013200
:1000F000D2B21A707B681B8801339AB27B681A806F
:100100007B681B881A00BB689B18FF221A707B68EB
:100110001B8801339AB27B681A80FB681A887B6857
:100120001B881900BB685B1819001000FFF7F0FA74
:10013000030019007B681A888BB2D3189AB27B68C7
:100140001A80FB689B88002B19D0FB689B68002BEA
:1001500001D1072314E07B681B881A00BB6898183C
:10016000FB689968FB689B881A00FCF73CFB7B687E
:100170001A88FB689B88D3189AB27B681A80002380
:100180001800BD4606B080BD80B588B000AFF860ED
:10019000B9607A601A00BB1C1A80FB689B6A002B4E
:1001A00001D1072377E01F23FB1800221A7069E0B2
:1001B000FB68996A1F23FB181A7813005B009B18D1
:1001C0009B00CB18BB61BB699B8802337B617B6959
:1001D000FE2B01D90C235EE07B681B881A00BB68EC
:1001E0009B187A69D2B20132D2B21A707B681B882E
:1001F00001339AB27B681A807B681B881A00BB683F
:100200009B1816221A707B681B8801339AB27B6890
:100210001A80BB691A887B681B881900BB685B1849
:1002200019001000FFF774FA030019007B681A88A0
:100230008BB2D3189AB27B681A80BB699B88002B5B
:1002400019D0BB699B68002B01D1072323E07B6891
:100250001B881A00BB689818BB699968BB699B88A2
:100260001A00FCF7C0FA7B681A88BB699B88D31810
:100270009AB27B681A801F23FB181A781F23FB1879
:1002800001321A70FB682C229B5C1F22BA1812786C
:100290009A428DD300231800BD4608B080BDC046E9
:1002A00080B588B002AFF860B9607A6000237B61E6
:1002B0001223FB187A6812881A807B6800221A8041
:1002C000FB685B6B002B10D0FB685B6B187812230C
:1002D000FB181B887A68B968FFF7AAFC03007B61EA
:1002E0007B69002B01D07B6919E1FB681B6B002B3C
:1002F0000FD0FB68186B1223FB181B887A68B9684B
:10030000FFF720FA03007B617B69002B01D07B693A
:1003100005E1FB682E229B5C002B10D0FB682E228F
:10032000985C1223FB181B887A68B968FFF762FA99
:1003300003007B617B69002B01D07B69EFE0FB68E8
:100340002D229B5C002B0ED01223FB181A88796893
:10035000BB681800FFF7BCFA03007B617B69002BC8
:1003600001D07B69DBE0FB689B78002B0ED0122369
:10037000FB181A887968BB681800FFF7C3FB0300F5
:100380007B617B69002B01D07B69C8E0FB68DB786F
:10039000002B10D0FB68DB7858B21223FB181B88A7
:1003A0007A68B968FFF7FEFB03007B617B69002B6D
:1003B00001D07B69B3E0FB685B68002B11D0FB6860
:1003C0005B68002018561223FB181B887A68B968EE
:1003D000FFF774FC03007B617B69002B01D07B6914
:1003E0009DE0FB681B89002B15D0FB6808331800C3
:1003F000BA681223FB181B8801937B6800931300D3
:1004000006220221FFF76AFD03007B617B69002B56
:1004100001D07B6983E0FB681B8A002B15D0FB6849
:1004200010331800BA681223FB181B8801937B68ED
:100430000093130007220321FFF750FD03007B61A7
:100440007B69002B01D07B6969E0FB681B8B002B6B
:1004500015D0FB6818331800BA681223FB181B88E4
:1004600001937B680093130015221421FFF736FDDA
:1004700003007B617B69002B01D07B694FE0FB6847
:100480001B6A002B0FD0FB68186A1223FB181B880D
:100490007A68B968FFF7A2FD03007B617B69002BD6
:1004A00001D07B693BE0FB685B6A002B0FD0FB68E7
:1004B000586A1223FB181B887A68B968FFF7F2FDA7
:1004C00003007B617B69002B01D07B6927E0FB681F
:1004D0002C229B5C002B0ED01223FB181B887A6801
:1004E000B968F868FFF750FE03007B617B69002B59
:1004F00001D07B6913E0FB681B78002B0ED0122320
:10050000FB181B887A68B968F868FFF749FA030096
:100510007B617B69002B01D07B6900E07B6918005F
:10052000BD4606B080BDC04680B582B000AF7860E1
:100530007B68DB781A000423134001D1072300E015
:1005400000231800BD4602B080BDC04680B582B011
:1005500000AF78607B68DB78002B01D0072300E0D8
:1005600000231800BD4602B080BDC04680B596B0DD
:1005700000AF786039604A23FB181F221A80482395
:10058000FB181F221A807B68002B1DD07B68180087
:10059000FFF7CAFF0300FB64FB6C002B01D0FB6C70
:1005A0004CE04A23FA182823F9187B681800FFF753
:1005B00077FE0300FB64FB6C002B01D0FB6C3DE07D
:1005C0002823FB187B6505E000237B654A23FB1885
:1005D00000221A803B68002B1DD03B681800FFF7F3
:1005E000B5FF0300FB64FB6C002B01D0FB6C25E026
:1005F0004823FA180823F9183B681800FFF750FE43
:100600000300FB64FB6C002B01D0FB6C16E008239D
:10061000FB183B6505E000233B654823FB180022DF
:100620001A804A23FB181B88D9B24823FB181B8861
:10063000DBB23A6D786DFFF75BF803001800BD463A
:1006400016B080BD73DF7047C046180074DF704776
:10065000C046180080B582B000AF78607B681B7917
:10066000002B03D17B681B7B002B01D0012300E012
:1006700000231800BD4602B080BDC04680B500AF63
:10068000044B072200211800FAF7C2FDC046BD4600
:1006900080BDC046CC24002080B584B000AF786017
:1006A0000023FB600AE07A68FB68D3181B78002BF4
:1006B00001D0012306E0FB680133FB60FB68052BDA
:1006C000F1D900231800BD4604B080BD90B589B0B3
:1006D00000AFF860B9607A603B60FB68002B01D125
:1006E0000E23D2E07B68002B01D10E23CDE0694BB5
:1006F00000221A70684B3A681A60684B3A6B1A60AD
:10070000674B7A6813CA13C313CA13C313CA13C33C
:10071000FFF7B4FF634B644A1A60624B634A9A6006
:10072000634B382200211800FAF772FDFB681A7833
:100730005F4B1A70FB689A785D4B9A70FB68DA78A9
:100740005B4BDA70FB685A78594B5A70584BFA6811
:100750001033103203CA03C3554BFA68083308320A
:1007600003CA03C3524BFA681833183203CA03C3CF
:10077000FB685B6A002B29D04D4B4E4A5A624D4BA9
:100780004D4A9A604A4B5A6AFB685B6A1B88138021
:10079000474B5A6AFB685B6A9B8893800023FB6126
:1007A0000DE0FB685B6A9A68FB69D3181978424AC6
:1007B000FB69D3180A1C1A70FB690133FB613C4BBF
:1007C0005B6A9B881A00FB699A42EAD8FB689B6ABD
:1007D000002B33D0394B3A4A9A60354B374A9A62EC
:1007E000334B9B6A364A9A60314B9A6AFB689B6A24
:1007F0009B8893802E4B9A6AFB689B6A1B881380A8
:100800000023BB610DE0FB689B6A9A68BB69D31843
:1008100019782B4ABB69D3180A1C1A70BB690133BB
:10082000BB61234B9B6A9B881A00BB699A42EAD83A
:10083000FB682C22995C1E4B2C229954FB681B6A86
:10084000002B0ED01A4B1F4A1A62194B1A6AFB680A
:100850001B6A5B885380164B1A6AFB681B6A1B88ED
:100860001380FB685B68002B06D0114B164A5A6058
:10087000FB685A680E4B5A60BA680D4B110018009D
:10088000FFF774FE03007B617B691800BD4609B069
:1008900090BDC046182500201025002014250020FA
:1008A0001C25002040250020502500207025002018
:1008B000D424002094250020A0250020C02500205D
:1008C000CC250020EC250020F025002080B582B04A
:1008D00000AF00233B603B00180004F0B3FE0300B0
:1008E0007B607B68082B04D07B68002B01D0012340
:1008F00013E07B68082B0AD13B00180007F06AFC64
:1009000003007B607B68002B01D0002305E03B687F
:10091000002B01D0012300E000231800BD4602B0E7
:1009200080BDC04680B58AB000AF0200FB1D1A70C2
:10093000C04BFA1D12781A70FFF7C8FF031E04D0CF
:10094000BD4B01221A70002397E1FFF797FEBB4BC6
:100950005B78002B03D0B74B1B78012B0FD0B74B24
:100960009B78002B03D0B34B1B78012B07D0B34BE4
:100970009B78002B12D0AF4B1B78022B0ED1B04BC3
:100980001B68002B07D0AF4B01221A70AC4B1B68C1
:100990000820984702E0AB4B00221A70A54B1B7849
:1009A000012B14D1A54B5B7801225340DBB2002B05
:1009B0000AD1A54B1800FFF76FFE03001A000123B0
:1009C0005340DBB2002B02D09A4B02221A70994B93
:1009D0001B78022B14D1994B9B7801225340DBB238
:1009E000002B0AD1984B1800FFF756FE03001A009F
:1009F00001235340DBB2002B02D08E4B03221A702E
:100A00008E4B1B7B01225340DBB2002B06D0894B5F
:100A10001B78032B02D1874B04221A70874B1B7E55
:100A200001225340DBB2002B09D0824B1B78042BF0
:100A300005D1804B00221A70844B00221A70804B23
:100A40001B68002B1AD07B4B1B78032B03D0794BF0
:100A50001B78042B12D1794B1B78002B0ED07C4BCA
:100A60001B7801225340DBB2002B07D0794B0122C7
:100A70001A70734B1B680720984702E0754B0022E1
:100A80001A700C23FB18182200211800FAF7C0FB7B
:100A90000C23FB1800221A700C23FB1800225A604A
:100AA0000C23FB1800221A720C23FB180022DA60B8
:100AB000604B1B78022B1CD002DC012B05D0A8E078
:100AC000032B2ED0042B68D0A3E00C23FB18624A22
