:020000021000EC
:10C0000000000120D9970200019802000398020065
:10C01000059802000798020009980200000000003D
:10C020000000000000000000000000000B9802006B
:10C030000D980200000000000F9802001198020005
:10C040001398020013980200B548020075740200AC
:10C050001398020013980200B940020013980200DE
:10C06000139802001398020013980200139802001C
:10C07000139802001398020013980200139802000C
:10C0800013980200598402001398020013980200CA
:10C090009984020013980200399602001398020056
:10C0A00013980200139802001398020013980200DC
:10C0B0001398020013980200000000000000000026
:10C0C00013980200139802001398020013980200BC
:10C0D0001398020013980200139802000000000059
:10C0E0000000000000000000000000000000000050
:10C0F0000000000000000000000000000000000040
:10C10000000000000000000000000000000000002F
:10C11000000000000000000000000000000000001F
:10C4000010B5054C237833B9044B13B10448AFF38E
:10C4100000800123237010BDA8210020000000002F
:10C4200084BB0200084B10B51BB108490848AFF3A4
:10C4300000800848036803B910BD074B002BFBD0F0
:10C44000BDE81040184700BF00000000AC210020EC
:10C4500084BB0200A421002000000000154B002B2B
:10C4600008BF134B9D46A3F5803A00218B460F462B
:10C470001348144A121A00F065F80F4B002B00D035
:10C4800098470E4B002B00D0984700200021040055
:10C490000D000D48002802D00C48AFF3008000F0DA
:10C4A0002BF82000290002F043FC00F011F800BF37
:10C4B0000000080000000120000000000000000053
:10C4C000A821002028330020000000000000000008
:10C4D00008B5074B044613B10021AFF30080054BAC
:10C4E0001868836A03B19847204601F00BFF00BF2C
:10C4F0000000000000AD020070B50E4B0E4CE41AB7
:10C50000A41000251E46A54204D056F825309847B1
:10C510000135F8E70EF0E6FB084C094BE41AA410CD
:10C5200000251E46A54204D056F82530984701350F
:10C53000F8E770BD9C2100209C210020A021002054
:10C540009C21002002440346934202D003F8011BC1
:10C55000FAE770472DE9F04788B0002B149F129935
:10C56000109DDDF84CA01E4627F02007BBBF03F14D
:10C5700000431E4600232D23462F14460B7003D084
:10C58000452F03D1013501E0032300E0022307AA70
:10C59000049206AA03928DE828042246334600F04E
:10C5A000E3FC472F804602D1119BDB0728D5462F9D
:10C5B00008EB050911D198F80030302B0AD1002280
:10C5C0000023204631460DF0C9FE18B9C5F101051A
:10C5D000CAF80050DAF800309944002200232046BF
:10C5E00031460DF0BBFE08B9302202E0CDF81C90B8
:10C5F00006E0079B994503D9591C07911A70F8E783
:10C60000079B159AC8EB03034046136008B0BDE8CA
:10C61000F08773B503460029B8BF494203F8022BDF
:10C62000B4BF2D222B220929427019DD0DF107021A
:10C6300016460A2591FBF5F405FB14113031092C3F
:10C6400002F8011D2146F5DC3031541E02F8011CB0
:10C65000B4421A460AD214F8012B03F8012BF7E76B
:10C6600030241A46214402F8024B5970101A02B0C5
:10C6700070BD00002DE9F04F91B00C46DDF86880E8
:10C6800016461F46054601F00BFA03680993184643
:10C6900000F0D0FB00230E93D8F800300A90073347
:10C6A00023F0070303F1080294F81890D4F800B0BF
:10C6B000C8F80020D3E90023C4E91223D4F84CA021
:10C6C000D4F848802AF000430B934FF0FF32A74B79
:10C6D0000B9940460DF074FEA0B94FF0FF32A34B0A
:10C6E0000B9940460DF04EFE60B9002200234046F3
:10C6F00051460DF03DFE10B12D2384F843309C4B84
:10C700009C4A0AE042465346404651460DF058FEC8
:10C71000002800F09281984B984AB9F1470F8CBFDE
:10C7200090469846032323612BF0040323604FF0C7
:10C73000000A3DE0B9F1670F00F08A81B9F1470FB7
:10C7400000F08681236000210DF1330201936368BC
:10C75000059002920093424653460691CDF8109000
:10C76000CDF80CE02846FFF7F5FE09F0DF03472B74
:10C77000804600F08481B9F1650F0D9900F28D813A
:10C7800001394A4604F150000D91FFF742FF0E9A1D
:10C790008318012A8246236100F37C812268D10735
:10C7A00000F178819DF8333013B12D2384F84330A4
:10C7B000009733460FAA2146284600F09FF9013022
:10C7C00002D14FF0FF3096E123685A0501D4236966
:10C7D00065E0B9F1650F40F2D58000220023D4E96D
:10C7E00012010DF0BBFD78B30123654A314628469E
:10C7F000B8470130E5D00E9B0D9A9A420BDB2368B7
:10C80000D80708D423689B0740F111814FF0000836
:10C8100004F1190906E10A9B099A31462846B847EE
:10C820000130CED04FF0000804F11A090E9B013BF5
:10C830009845E7DA01234A4631462846B847013091
:10C84000BFD008F10108F1E70D9B002B29DC012383
:10C850004B4A31462846B8470130B2D00D9B23B928
:10C860000E9B13B92368D907CCD50A9B099A314688
:10C870002846B8470130A4D04FF0000904F11A0A45
:10C880000D9B5B42994509DA012352463146284601
:10C89000B847013095D009F10109F1E70E9B4246F6
:10C8A000A7E00E9AA36D9A42A8BF1A46002A9146A5
:10C8B00006DC4FF0000A29EAE97904F11A0B11E0CD
:10C8C0001346314642462846B8470130F1D178E751
:10C8D00001235A4631462846B84701303FF471AF2C
:10C8E0000AF1010AA36DC9EB03029245F0DB08EBE4
:10C8F00003090D9A0E9B9A420FDB2368DA070CD4CA
:10C900000E9B0D9A9844C9EB08089B1A9845A8BF3E
:10C910009846B8F1000F08DC0FE00A9B099A3146EF
:10C920002846B8470130EBD14BE743464A463146EB
:10C930002846B84701303FF444AF4FF0000928EAD9
:10C94000E87804F11A0A09E00123524631462846E4
:10C95000B84701303FF435AF09F101090D9A0E9B3C
:10C960009B1AC8EB03039945EEDB4BE7FFFFEF7F14
:10C9700004AD020008AD02000CAD020010AD0200D3
:10C9800014AD02000E9A012A01DCDB0738D5012321
:10C99000424631462846B84701303FF412AF0A9B61
:10C9A000099A31462846B84701303FF40AAF0022C1
:10C9B0000023D4E912010DF0D1FC20B14FF00008A2
:10C9C00004F11A090EE00E9B08F10102013B19E087
:10C9D00001234A4631462846B84701303FF4F1AEBC
:10C9E00008F101080E9B013B9845F1DB534604F129
:10C9F000500231462846B84701307FF403AFE0E6E5
:10CA00000123424631462846B8470130EED1D8E6E8
:10CA100001234A4631462846B84701303FF4D1AE9B
:10CA200008F10108E3680F9A9B1A9845F0DBE0686B
:10CA30000F9B9842B8BF18465DE06268531C0EA871
:10CA40004BF480630DF1340E7FF474AE062201E0E6
:10CA500012B90122626075E6002106910DF13301E1
:10CA60008DE80C00236005904246CDF81090CDF87B
:10CA70000CE0029153462846FFF76CFD80460D9B63
:10CA8000D81C02DB626893421DDDA9F102095FFA3E
:10CA900089F970E60133236184E6B9F1660F14D198
:10CAA0000029636807DD216113B92268D2071DD50B
:10CAB00001330B4419E013B92268D00701D50233C2
:10CAC00013E0012311E04FF067090D9B0E9A93428A
:10CAD00005DB22682361D10708D5013305E0002B6F
:10CAE000D4BFC3F102030123134423610D9BA3654B
:10CAF0004FF0000A56E611B0BDE8F08F2DE9F0477F
:10CB000091461F460A698B68DDF820809342B8BFC2
:10CB10001346C9F8003091F8432006460C4612B17E
:10CB20000133C9F800302368990642BFD9F80030B4
:10CB30000233C9F80030256815F0060510D104F15C
:10CB4000190A07E00123524639463046C0470130F2
:10CB50001AD00135E368D9F800209B1A9D42F1DB19
:10CB600094F843302268003318BF012392060FD592
:10CB7000E1185A1C302081F84300224494F84510F3
:10CB800082F84310023303E04FF0FF30BDE8F08736
:10CB900004F1430239463046C0470130F4D02268E0
:10CBA000D9F80050E36802F00602042A08BF5D1BB2
:10CBB0002269A3680CBF25EAE57500259342C4BF2E
:10CBC0009B1AED184FF000091A344D4509D0012386
:10CBD000224639463046C0470130D5D009F1010917
:10CBE000F3E70020BDE8F0872DE9F04317460A7E01
:10CBF00085B06E2A984606460C460C9B01F1430E02
:10CC000000F0AE8011D8632A22D009D8002A00F0A3
:10CC1000BB80582A40F0CA8081F84520834955E0FE
:10CC2000642A1ED0692A1CD0C0E0732A00F0B080AC
:10CC300009D86F2A2ED0702A40F0B8800A6842F0D6
:10CC400020020A603EE0752A24D0782A3AD0ADE06E
:10CC50001A6801F14205111D1960136884F8423009
:10CC6000A8E021681A6811F0800F02D0111D196028
:10CC700008E011F0400F02F10401196002D0B2F98E
:10CC8000003000E01368002B3CDA2D225B4284F870
:10CC9000432037E021681A6811F0800F02D0111D7F
:10CCA000196007E011F0400F02F10401196001D092
:10CCB000138800E01368227E5C496F2A14BF0A22A1
:10CCC00008221BE078225A4984F845202268186817
:10CCD00012F0800F00F104051D6003D1550601D547
:10CCE000038800E00368D00744BF42F020022260BE
:10CCF0001BB9226822F0200222601022002084F852
:10CD0000430001E049490A226568A560002D08DB5F
:10CD1000206820F0040020602BB9002D7DD17546DD
:10CD20000CE0002B79D07546B3FBF2F002FB103318
:10CD3000CB5C05F8013D03460028F5D1082A0BD14C
:10CD40002368DA0708D5236962689A42DEBF302378
:10CD500005F8013C05F1FF35C5EB0E0323612EE01C
:10CD600008681A68496910F0800F03D0101D186018
:10CD7000136808E010F0400F02F104001860136817
:10CD800001D0198000E0196000232361754616E088
:10CD90001A68111D1960156862680021284600F0A4
:10CDA0008FFE08B1401B6060636804E004F1420537
:10CDB00084F8422001232361002384F84330CDF816
:10CDC00000803B4603AA21463046FFF797FE01301C
:10CDD00002D14FF0FF3026E023692A46394630461B
:10CDE000C0470130F5D023689B0710D5002504F11A
:10CDF000190907E001234A4639463046C047013049
:10CE0000E7D00135E368039A9B1A9D42F2DBE068A4
:10CE1000039B9842B8BF184605E00B7884F842306F
:10CE200004F142058AE705B0BDE8F08316AD0200C3
:10CE300027AD0200034613F8012B002AFBD1181A74
:10CE4000013870472DE9F74F03690C699C42804611
:10CE500000F38380013C01F114074FEA840E00F1D6
:10CE6000140657F8245006EB0E030193013556F8CB
:10CE70002430B3FBF5F507EB0E09002D39D04FF048
:10CE8000000A3846B446D34650F8042B93B205FB4B
:10CE900003A34FEA134A9BB2C3EB0B03120CBCF87B
:10CEA00000B005FB02A213FA8BF34FEA124A1FFAF5
:10CEB00082FBDCF80020CBEB124202EB23429BB258
:10CEC00043EA024381454FEA224B4CF8043BDBD254
:10CED00056F80E306BB9019B043B9E421A4602D3B2
:10CEE000C8F8104005E01268043B002AF8D1013C64
:10CEF000F3E7404601F04DF800282CDB01353046C1
:10CF00004FF0000E57F8041BD0F800C08AB2C2EBF5
:10CF10000E03090C13FA8CF3C1EB1C4202EB234203
:10CF20009BB243EA0243B9454FEA224E40F8043B24
:10CF3000E8D256F8242006EB840362B9043B9E42F3
:10CF40001A4602D3C8F8104005E01268043B002AD4
:10CF5000F8D1013CF3E7284600E0002003B0BDE82B
:10CF6000F08F0000000000002DE9F04F456A95B0F9
:10CF70008246219CCDE9022345B9102000F094FDA2
:10CF8000CAF82400456085600560C560DAF8243081
:10CF9000196859B15A684A60012393408B60504622
:10CFA00000F01EFEDAF8243000221A60039BA04A2B
:10CFB000002BBFBF01232360039B23F00043B8BFB6
:10CFC0000393DDF80C80A4BF0023236028F0004306
:10CFD0001B0D1B0593421DD1209A42F20F73136063
:10CFE000029B43B9934A944BC8F31300002814BF23
:10CFF0001846104600E09048229B002B00F04A851E
:10D00000C37813B100F1080300E0C31C229A136037
:10D0100000F040BDDDE902450022002320462946FC
:10D020000DF09CF9074658B1209A01231360229B0A
:10D03000002B00F0228581481860013800F02ABDDD
:10D0400012AB019313AB009322462B46504601F0DE
:10D050001BF8C8F30A56049056B1C5F3130343F006
:10D060007F51204641F44011A6F2FF3611971DE092
:10D07000139B129E1E4406F23243202B0ADD029AB5
:10D0800006F21240C3F1400322FA00F008FA03F35B
:10D09000184304E0C3F12000029B03FA00F00CF0F7
:10D0A0007FFE0123A1F1F871013E11930022644B30
:10D0B0000CF038FD58A3D3E900230CF0E7FE58A389
:10D0C000D3E900230CF030FD044630460D460CF049
:10D0D00077FE55A3D3E900230CF0D8FE02460B4699
:10D0E000204629460CF020FD04460D460DF07EF941
:10D0F000002283460023204629460DF039F958B115
:10D1000058460CF05DFE02460B46204629460DF0BF
:10D1100025F908B90BF1FF3BBBF1160F0DD84949B2
:10D1200001EBCB01DDE90223D1E900010DF03EF96D
:10D1300030B10BF1FF3B002300E00123109300E02E
:10D140001090129B9E1B731E079343BFC3F10008F0
:10D15000002307934FF00008BBF1000F06DB079B8D
:10D16000CDF82CB05B440793002705E00023CBEB00
:10D170000808CBF100070B931E9B092B27D8052B22
:10D18000C4BF043B1E931E9BA3F10203CCBF00252A
:10D190000125032B20D8DFE803F0060E020401234B
:10D1A00002E0012308E000230A931F9B002B1DDDF2
:10D1B0009946059321E000230A931F9B0BEB03097B
:10D1C00009F10103012B0593B8BF012315E00125E7
:10D1D00000231E930A9501E001230A934FF0FF39C3
:10D1E0000022CDF8149012231F9206E04FF001099F
:10D1F000CDF814904B46CDF87C90DAF8244000220C
:10D200006260042101F114029A421DD86268013261
:10D2100062604900F6E700BF61436F63A787D23FB2
:10D22000B3C8608B288AC63FFB799F501344D33F15
:10D230000000F07F38AD020041AD020015AD0200E4
:10D240000000F83F50AD02006168504600F093FCCA
:10D25000DAF8243020601B680693059B0E2B00F241
:10D260005D81002D00F05A81DDE90234BBF1000F31
:10D27000CDE90E3431DDA04A0BF00F0302EBC303FE
:10D28000D3E900344FEA2B15E806CDE908340CD574
:10D290009A4BDDE90E01D3E908230CF021FF05F0DC
:10D2A0000F05CDE90201032400E00224934E6DB185
:10D2B000E90708D5DDE90801D6E900230CF0E6FD11
:10D2C000CDE9080101346D100836F0E7DDE90823E7
:10D2D000DDE902010CF004FF20E0CBF1000505B30D
:10D2E000854B864E05F00F0203EBC203D3E9002302
:10D2F000DDE90E010CF0CAFDCDE902012D1100237C
:10D30000022455B1EA0705D5D6E900230CF0BEFD8D
:10D31000013401236D100836F3E71BB1CDE902019A
:10D3200000E00224109BE3B1DDE902560022744BB9
:10D33000284631460DF01CF898B1059B8BB1B9F128
:10D34000000F40F3E7800BF1FF33089331460022D2
:10D350006C4B28460CF09AFD0134CDE902014E4693
:10D3600002E0059ECDF820B020460CF029FDDDE955
:10D3700002230CF08BFD644B00220CF0D5FBA1F1D5
:10D38000507304460C931D46D6B900225F4BDDE96D
:10D3900002010CF0C7FB22460C9BCDE902010DF007
:10D3A00005F8002840F040820C99224601F1004324
:10D3B000DDE902010CF0DCFF002840F02C82A9E03E
:10D3C0000A9A4D4B711E002A49D003EBC103D3E9E1
:10D3D000002300204E490CF083FE22462B460CF021
:10D3E000A1FBCDE90C01069CDDE902010CF0FEFF7A
:10D3F00005460CF0E5FC02460B46DDE902010CF0A7
:10D4000091FB303504F8015BDDE90C23CDE9020125
:10D410000CF0AEFF002840F02083DDE9022300205D
:10D4200037490CF07FFBDDE90C230CF0A1FF00284D
:10D4300040F0D280069BE31AB3426BDA0022314BF4
:10D44000DDE90C010CF022FD0022CDE90C012D4B91
:10D45000DDE902010CF01AFDCDE90201C4E703EB9E
:10D46000C10122462B46D1E900010CF00FFD069BBD
:10D47000CDE90C019C191D46DDE902010CF0B6FF57
:10D4800006460CF09DFC303602460B46DDE90201F3
:10D490000CF048FB05F8016BAC42CDE902014FF0FE
:10D4A000000223D11A4BDDE90C010CF03DFB0246D2
:10D4B0000B46DDE902010CF079FF002840F08C807A
:10D4C000DDE90C23002012490CF02CFB02460B4630
:10D4D000DDE902010CF04CFFE0B114F8013C302B07
:10D4E00004F1FF3240F0B9821446F6E7054B0CF028
:10D4F000CDFCCDE90201BFE750AD020028AE02002D
:10D500000000F03F0000244000001C4000001440D8
:10D510000000E03FDDE90E34CDE90234139B002B1F
:10D520007DDBBBF10E0F7ADCAB4B03EBCB03D3E916
:10D5300000671F9B002B14DA059B002B11DC40F0C9
:10D540006C810022A54B304639460CF09FFCDDE98A
:10D5500002230CF021FF059D2E46002840F05F813C
:10D5600065E1DDE90289069C32463B464046494674
:10D570000CF0B6FD0CF03AFF05460CF021FC3246EB
:10D580003B460CF083FC0B460246494640460CF0F5
:10D59000C9FA05F1300E069B04F801EBC3EB040E4B
:10D5A000059B73452ED102460B460CF0BDFA804612
:10D5B000894602460B46304639460CF0D9FE78B90A
:10D5C00042464B46304639460CF0C8FE002800F073
:10D5D0004682EB0704D442E2DDF820B000E01C46AE
:10D5E00014F8012C392A04F1FF3307D1069A9A4224
:10D5F000F5D1069930220BF1010B0A701A7801322D
:10D600001A702CE20022764B0CF040FC0022002322
:10D61000804689460CF0A2FE0028A5D01FE20A9A97
:10D62000002A2BD01E9A012A0ADC119A12B103F2A9
:10D63000334302E0129BC3F136033D46444613E0F8
:10D64000059B5D1EAF42BFBF0B9BEA1B9B180B9354
:10D65000059BB6BF2F467D1B0025002BABBF059B4E
:10D66000C3EB080444460023079A01211A4450469C
:10D670009844079200F053FB064602E00A9E3D469E
:10D6800044465CB1079B002B08DDA342079AA8BF64
:10D690002346C3EB0808E41AD31A0793002F1DDDB5
:10D6A0000A9BABB18DB131462A46504600F0D2FB01
:10D6B000049A01460646504600F03AFB0499089049
:10D6C000504600F08DFA089B04937A1B06D000E0C8
:10D6D0003A460499504600F0BDFB049001215046A3
:10D6E00000F01DFB0B9B05465BB31A4601465046F6
:10D6F00000F0B0FB1E9B012B054618DC029B83B992
:10D70000039BC3F3130373B9039B23F000473F0D3F
:10D710003F054FB1079B013308F10108079301272B
:10D7200002E0002700E0029F0B9B73B100E000279E
:10D730002B6905EB8303186900F0A4FAC0F12000FF
:10D7400004E01E9B012BD9DD0B9F0120079B184491
:10D7500010F01F0008D0C0F12003042B02DDC0F13F
:10D760001C0002E006D018461C30079B034480448E
:10D7700004440793B8F1000F05DD42460499504672
:10D7800000F0B6FB0490079B002B05DD29461A46E6
:10D79000504600F0ADFB0546109B1BB3294604988C
:10D7A00000F0F7FB00281DDA00230A2204995046F6
:10D7B00000F02DFA0A9B04900BF1FF3B002B00F0C8
:10D7C0006081314600230A22504600F020FAB9F168
:10D7D000000F06463EDC3AE050AD02000000144067
:10D7E00000002440059B002B2BDC1E9B022B28DD18
:10D7F000DDF81490B9F1000F11D129464B460522EE
:10D80000504600F004FA01460546049800F0C1FBBA
:10D8100000280CDC03E0354600E000252E461F9B67
:10D82000069C6FEA030B09E0DDF820B03546069B45
:10D83000069A5C1C312313700BF1010B0596002630
:10D84000F9E00A9BDDF8149023B9069CB2E01E9B18
:10D85000022BCFDC002C05DD31462246504600F07D
:10D8600047FB06469FB17168504600F084F9326963
:10D8700002320446920006F10C010C3000F070F9FF
:10D8800001222146504600F033FB059000E005964A
:10D89000029B069F03F00103079329460498FFF7B4
:10D8A000D1FA3146044600F13008049800F071FBCB
:10D8B000059A02902946504600F087FBC36802464D
:10D8C0003BB901460A90049800F063FB0A9A0346AC
:10D8D00000E00123114650460A9300F081F90A9BAB
:10D8E00053B91E9A42B9079A32B9B8F1390F2AD002
:10D8F000029B002B1CDC1DE0029A002A04DB1BD1DA
:10D900001E9ACAB9079ABAB9002B13DD01220499ED
:10D91000504600F0EDFA2946049000F03AFB00284A
:10D9200003DC07D118F0010F04D0B8F1390F0AD089
:10D9300004F131087C1C0CE0002B07F101040BDD25
:10D94000B8F1390F03D139233B70013756E008F1A4
:10D95000010887F800806EE0069B04F8018CE31A4A
:10D960004B4527463BD000230A220499504600F03D
:10D970004EF9059B04909E424FF00A024FF00003BF
:10D980003146504604D100F042F90646059084E73E
:10D9900000F03DF9002306460A220599504600F0A2
:10D9A00036F9059079E700230A220499504600F0E1
:10D9B0002EF9049029460498FFF744FA00F1300844
:10D9C00004F8018B069BE31A4B45ECDB069B05969E
:10D9D000B9F1010FACBF4B4401331F4600260122B1
:10D9E0000499504600F084FA2946049000F0D1FAD8
:10D9F000002803DC16D118F0010F13D03C4614F8B0
:10DA0000013C392B04F1FF3209D1069B934204D12A
:10DA10000BF1010B3123069A02E01446EFE70133C4
:10DA2000137008E03C4614F8013C302B04F1FF323F
:10DA300001D11446F7E72946504600F0D1F8059B7E
:10DA40006BB12EB19E4203D03146504600F0C8F86B
:10DA50000599504600F0C4F801E0DDF820B00499C3
:10DA6000504600F0BDF80023209A23700BF101030B
:10DA70001360229B1BB11C6001E008480AE0069875
:10DA800008E0B9F1000F3FF7E0AE1E9B022B7FF7D5
:10DA9000DCAEAFE615B0BDE8F08F00BF14AD0200FC
:10DAA00000487047E4200020024B0146186800F04F
:10DAB00095BB00BFE0200020000000000000000037
:10DAC00001F0FF01102A2BDB10F0070F08D010F82F
:10DAD000013B013A8B422DD010F0070F42B3F6D133
:10DAE000F0B441EA012141EA014122F007047FF04C
:10DAF00000070023F0E80256083C85EA010586EAA3
:10DB0000010685FA47F5A3FA87F586FA47F6A5FADE
:10DB100087F68EB9EED1F0BC01F0FF0102F00702EA
:10DB200032B110F8013B013A83EA010313B1F8D195
:10DB30000020704701387047002D06BF3546033876
:10DB4000073815F0010F07D1013015F4807F02BFAF
:10DB5000013015F4C03F0130F0BC0138704700BF00
:10DB600010B5431E0A44914204D011F8014B03F84A
:10DB7000014FF8E710BD70B5456A04460E463DB941
:10DB80001020FFF791FF6062456085600560C56009
:10DB9000656AEB6843B1636ADB6853F8260078B1C5
:10DBA000026843F8262017E021220421204600F0D5
:10DBB000B9FA636AE860DB68002BECD1002070BD25
:10DBC000012101FA06F56A1D9200204600F0AAFA2A
:10DBD0000028F3D04660856000230361C36070BDF8
:10DBE00070B5446A06460D463CB91020FFF75CFF4D
:10DBF0007062446084600460C4603DB1736A6A68A6
:10DC0000DB6853F82210296043F8225070BD2DE9DB
:10DC1000F0410D691F4606460C4601F1140E002323
:10DC2000DEF8000081B202FB01710F0C000C02FB58
:10DC3000007089B2013301EB00419D424FEA104769
:10DC40004EF8041BECDCD7B1A3689D4212DB61687F
:10DC500030460131FFF78FFF2269023204F10C01D7
:10DC6000804692000C30FFF77BFF21463046FFF7DD
:10DC7000B7FF444604EB850301355F61256120460B
:10DC8000BDE8F081030C1B0413B90004102300E06D
:10DC9000002310F07F4F04BF0002083310F0704FD4
:10DCA00004BF0001043310F0404F04BF8000023372
:10DCB000002803DB420003D5581C70471846704704
:10DCC00020207047036813F007020BD0D90722D435
:10DCD0009A074BBF5B089B08036003604CBF0120A1
:10DCE0000220704799B209B91B0C102213F0FF0FE4
:10DCF00004BF1B0A0832190704BF1B090432990725
:10DD000004BF9B080232D90702D45B0805D0013258
:10DD1000036010467047002070472020704710B500
:10DD20000C460121FFF727FF01224461026110BD6B
:10DD30002DE9F74F14460A6923699A42B8BF0B468A
:10DD40008846BCBFA0461C46D8F81070D4F8109086
:10DD5000D8F80830D8F8041007EB09069E42C8BF6F
:10DD60000131FFF708FF00F1140505EB860C2B4687
:10DD70000022634502D243F8042BFAE704F11402AF
:10DD800008F1140102EB890301EB87070093009B64
:10DD90000192934257D9B2F800B0BBF1000F23D0E3
:10DDA0008946AE464FF0000859F8044BBEF800A073
:10DDB000A3B20BFB03A34FEA144ADEF8004043442E
:10DDC0004FEA14480BFB0A8404EB1344F2469BB25F
:10DDD00043EA04434F454FEA14484AF8043B01D94B
:10DDE000D646E1E7CEF80480019BB3F802A00432E6
:10DDF000BAF1000F21D02B682C4689464FF000085D
:10DE0000B9F800E0B4F802B00AFB0EBEF044A34635
:10DE10009BB243EA08434BF8043B59F8043BB4F87F
:10DE200004E01B0C0AFB03E303EB18434F454FEAE6
:10DE3000134801D95C46E3E763600435A7E75CF863
:10DE4000043D13B9013E002EF9DC066103B0BDE8C4
:10DE5000F08F00002DE9F843154612F00302064644
:10DE60000F4607D0013A214C002354F82220FFF737
:10DE7000CEFE0746AD1036D0746A3CB91020FFF7CD
:10DE800013FE7062446084600460C460D6F824802D
:10DE9000D8F808404CB940F271213046FFF73FFFF7
:10DEA0000023C8F80800044603604FF00008EB07A1
:10DEB0000AD5394622463046FFF73AFF39468146B1
:10DEC0003046FFF78DFE4F466D100CD0206808B12C
:10DED0000446ECE7224621463046FFF729FF206042
:10DEE000C0F80080F4E73846BDE8F88318AE0200B9
:10DEF0002DE9F0470C464FEA621A26694968A36883
:10DF0000564407469146751CAB4202DA01315B006C
:10DF1000FAE73846FFF72FFE0023804600F1140190
:10DF20001A46534503DA41F823200133F9E72AEA78
:10DF3000EA73206901EB830319F01F0904F114014E
:10DF400001EB800E14D0C9F1200C0022086800FA01
:10DF500009F002439A4643F8042B51F8042B8E45EE
:10DF600022FA0CF2F2D8CAF8042042B1B51C06E03D
:10DF7000043B51F8042B43F8042F8E45F9D8013D9A
:10DF80003846C8F810502146FFF72AFE4046BDE843
:10DF9000F08703690A699B1A10B511D192001430F9
:10DFA000143183180A4453F8044D52F8041D8C426E
:10DFB00002D007D3012010BD9842F4D3002010BD39
:10DFC000184610BD4FF0FF3010BD2DE9F8430C4648
:10DFD0000746114620461546FFF7DBFF061E08D10F
:10DFE00031463846FFF7C7FD012303614661BDE8AE
:10DFF000F883BCBF23462C4638466168BABF1D462D
:10E0000001260026FFF7B7FD2B69C660266905F1DA
:10E010001409143404EB860709EB830800F1140596
:10E020004FF0000C54F8043B59F8042B1CFA83F110
:10E030001FFA82FE120CCEEB0101C2EB134303EB7D
:10E04000214389B24FEA234CC84541EA0343A6461F
:10E0500045F8043BE6D8BE450ED25EF8041B1CFA18
:10E0600081F2131403EB114392B242EA03424FEAE6
:10E07000234C45F8042BEEE755F8043D0BB9013E5F
:10E08000FAE70661BDE8F8832DE9F34101211C465A
:10E090009046089E099DFFF76EFDC4F31302C4F37A
:10E0A0000A5407460CB142F480120192B8F1000FF5
:10E0B00019D002A840F8088DFFF704FE009B48B174
:10E0C000019AC0F1200102FA01F10B43C2407B61C9
:10E0D000019200E07B61019BBB61002B14BF022118
:10E0E0000121396107E001A8FFF7ECFD019B7B618D
:10E0F00001213961203034B1A4F233440444346046
:10E10000C0F1350009E007EB8103A0F23240306036
:10E110001869FFF7B7FDC0EB41102860384602B020
:10E12000BDE8F08138B502FB01F4214600F056F855
:10E13000054618B122460021FEF704FA284638BDEC
:10E1400038B50546002946D051F8043C0C1F002B79
:10E15000B8BFE41800F0B0F81F4A1368114613B9AD
:10E160006360146032E0A3420ED92268A018834293
:10E1700004BF18685B68636004BF121822600C60FB
:10E1800024E0A24203D813465A68002AF9D118683D
:10E190001918A1420BD12168014458188242196014
:10E1A00014D1106852685A60014419600EE002D917
:10E1B0000C232B600AE021686018824204BF1068BB
:10E1C0005268626004BF091821605C602846BDE89F
:10E1D000384000F072B838BDC821002070B5CD1CA1
:10E1E00025F0030508350C2D38BF0C25002D0646FB
:10E1F00001DBA94202D90C23336046E000F05CF851
:10E20000234B1C681A462146A1B10B685B1B0ED438
:10E210000B2B03D90B60CC18CD501EE08C420DBFE8
:10E2200063684B686360136018BF0C4615E00C46CA
:10E230004968E9E7174C23681BB9304600F02CF811
:10E2400020602946304600F027F8431C18D0C41C33
:10E2500024F00304A0420DD12560304600F02DF8D3
:10E2600004F10B00231D20F00700C31A0ED05A4200
:10E27000E25070BD211A304600F00EF80130EBD1AB
:10E280000C233360304600F018F8002070BD00BF4A
:10E29000C8210020C421002038B5064C00230546C3
:10E2A0000846236000F00AF8431C02D1236803B13A
:10E2B0002B6038BD48320020704770470D4B1A68FC
:10E2C00010B50AB90C4A1A601A68694610448842A7
:10E2D00006D80A490A4C0968A14208D0884206D9E2
:10E2E00000F024F80C2303604FF0FF3010BD1860DD
:10E2F000104610BDCC210020283300201C21002016
:10E30000ADDEFECA4FF0FF3100F000B8062930B58F
:10E310000CBF044D044D182420462946ABBE0446CC
:10E32000204630BD2300020026000200014B186881
:10E33000704700BFE020002076DF704700BF18461E
:10E340007ADF704700BF18467CDF704700BF184671
:10E35000A9DF704700BF18463CDF704700BF184672
:10E3600048DF704700BF184600B589B0059004919A
:10E370000392039B0793104900200AF075FF079B47
:10E380009A68079B1B889BB21946079B5B680093A2
:10E390000B460A4900200AF067FF094900200AF0ED
:10E3A00063FF00238DF81B3003238DF81B300C20F6
:10E3B00001F0C4FEFEE700BFB8AE0200C0AE02002E
:10E3C000E4AE020000B58BB0019005AB184607F033
:10E3D000C3FF0990099B0893089B002B04D0314A86
:10E3E0009F21089809F0A2F904AB184607F0DAFF5C
:10E3F0000990099B0793079B002B04D0294AA12170
:10E40000079809F093F903AB184607F07FFF0990CE
:10E41000099B0693069B002B04D0224AA321069851
:10E4200009F084F9059A204B1B689A420DD0059B90
:10E43000184608F083F802461C4B1A601B491C481A
:10E4400001F012F8059B184A1360049A194B1B68D7
:10E450009A420DD0049B184608F042F90246164B2A
:10E460001A601549124801F03FF8049B114A1360E5
:10E47000039A124B1B689A420DD0039B184608F072
:10E4800095F802460E4B1A600D49094801F06CF8E8
:10E49000039B0A4A13600B4B01221A7000BF0BB09A
:10E4A0005DF804FBECAE02001822002028210020B9
:10E4B0004C3200201C2200202C2100202022002091
:10E4C000302100201422002082B00190024B012252
:10E4D0001A7000BF02B070471522002000B587B047
:10E4E00000231A4A0521002009F0DCFF0590059B56
:10E4F0000493049B002B04D0154ACD21049809F005
:10E5000015F9144A012114480AF04AF80390039BB4
:10E510000293029B002B04D00D4AD121029809F0EE
:10E5200005F90E4A01210E480AF03AF80390039BC0
:10E530000193019B002B04D0054AD421019809F0D6
:10E54000F5F800BF07B05DF804FB00BF24220020EF
:10E55000ECAE0200C5E30100B0AE0200C9E4010068
:10E56000B4AE020000B587B09DF80030012262F31E
:10E5700003038DF800309DF80030012262F3071389
:10E580008DF800301D48FEF755FC03469AB26B46E5
:10E590001A491846FFF7D8FE0590059B0493049B83
:10E5A000002B04D0164AE821049809F0BFF801AB0B
:10E5B000082200211846FDF7C5FF1023ADF80430EE
:10E5C0002823ADF806300023ADF808304FF4C873A7
:10E5D000ADF80A3001AB1846FFF7B2FE0590059B77
:10E5E0000393039B002B04D0054AF621039809F0FE
:10E5F0009DF800BF07B05DF804FB00BF28AF020024
:10E60000ECAE020008B5024800F0E6FE00BF08BD0F
:10E610004C32002000B585B00190019B1B78002B87
:10E6200011D10B4B1B883B211846FFF785FE039049
:10E63000039B0293029B002B05D0064A40F2151162
:10E64000029809F073F800BF05B05DF804FB00BF45
:10E6500020210020ECAE020000B583B00190054AF5
:10E660004FF49071019809F061F800BF03B05DF8B4
:10E6700004FB00BFECAE020000B58BB001AB1C2266
:10E6800000211846FDF75EFF002301934FF420336D
:10E6900002934FF47023039303238DF8103000236B
:10E6A000ADF8123000238DF814300C4B06930C4B50
:10E6B000079301AB184603F033FB0990099B0893BD
:10E6C000089B002B05D0074A40F23711089809F043
:10E6D0002DF800BF0BB05DF804FB00BF15E601008C
:10E6E00059E60100ECAE020000B585B0144B0022E3
:10E6F0004FF48031184609F09BFF0390039B02936F
:10E70000029B002B05D00F4A4FF4A171029809F02B
:10E710000DF80D4B00224FF48031184609F088FFA8
:10E720000390039B0193019B002B05D0054A40F207
:10E730004511019808F0FAFF00BF05B05DF804FB31
:10E74000D4210020ECAE0200F421002000B585B0F9
:10E75000002001F0F3FC0390039B0293029B002B2B
:10E7600005D0134A4FF4A871029808F0DFFF01F0BA
:10E77000A9FE0390039B0193019B002B05D00C4A3B
:10E780004FF4AA71019808F0D1FFFFF7E5FD03905F
:10E79000039B0093009B002B05D0054A4FF4AC71FE
:10E7A000009808F0C3FF00BF05B05DF804FB00BF90
:10E7B000ECAE020000B585B003468DF807309DF839
:10E7C0000730002B12D0032B00D013E0022001F001
:10E7D000B5FC0390039B0293029B002B09D0074AD0
:10E7E0004FF4B571029808F0A1FF02E0FFF7AEFF09
:10E7F00000E000BF00BF05B05DF804FBECAE020016
:10E8000000B587B00190019800F0DAFF019B1B88EA
:10E81000112B2BD0522B2ED0102B00D042E00720F2
:10E8200001F08CFC0590059B0493049B002B05D004
:10E830001E4A40F28311049808F078FF019B9A88E1
:10E840001B4B1A801A4B1888002300220021FFF767
:10E850007FFD0590059B0393039B002B1FD0134A5C
:10E860004FF4C371039808F061FF18E0104B4FF6A6
:10E87000FF721A8016E00E4B188800230022002138
:10E88000FFF766FD0590059B0293029B002B08D0C5
:10E89000064A40F28F11029808F048FF01E000BFDD
:10E8A00000E000BF00BF07B05DF804FBECAE020063
:10E8B0002021002000B583B00190019804F03CFBBA
:10E8C000019803F05FFB019801F010FE0198FFF73B
:10E8D00097FF019803F062F80199034800F082FB6A
:10E8E00000BF03B05DF804FB4C32002000B583B0DC
:10E8F0000190019806F098FD019803F0F1F800BF2F
:10E9000003B05DF804FB00BF00B591B0354A06AB1B
:10E910001068186006A80023482233490AF028FE30
:10E920000F900F9B0E930E9B002B05D02F4A40F2A9
:10E93000C5110E9808F0FAFE01AB1A46012100201D
:10E940000AF09AFE0D900D9B0C930C9B002B05D0AA
:10E95000264A40F2CB110C9808F0E8FE244B0B93AA
:10E960000B980AF0CFFE0D900D9B0A930A9B002B8B
:10E9700005D01E4A4FF4E7710A9808F0D7FE01ABA4
:10E9800018460AF0E7FE0D900D9B0993099B002B9A
:10E9900005D0164A4FF4E971099808F0C7FE1548EA
:10E9A0000AF02AFE0D900D9B0893089B002B05D0C2
:10E9B0000E4A4FF4EB71089808F0B8FE0E480AF0C2
:10E9C0002BFE0D900D9B0793079B002B05D0074A4C
:10E9D0004FF4ED71079808F0A9FE00BF11B05DF883
:10E9E00004FB00BF2CAF0200EC230020ECAE0200C1
:10E9F000E81F0020B5E80100EDE8010000B587B090
:10EA000003468DF807309DF80730072B1DD00A2BE1
:10EA100002D0042B03D02DE0FFF798FE2AE0174B1D
:10EA20001B8813211846FFF787FC0590059B082BD0
:10EA30001DD0059B0493049B002B18D0104A40F274
:10EA4000EF11049808F072FE11E003F079F80590D8
:10EA5000059B082B0DD0059B0393039B002B08D02F
:10EA6000074A40F2F711039808F060FE01E000BF8A
:10EA700000E000BF00BF07B05DF804FB20210020CC
:10EA8000ECAE020000B587B0039002910192019BA9
:10EA90000593059B002B05D0054A40F209210598F6
:10EAA00008F044FE0023184607B05DF804FB00BFE1
:10EAB000ECAE020000B58BB003468DF807309DF830
:10EAC00007308DF8143006F017FE0990099B089363
:10EAD000089B002B05D0314A40F22321089808F00A
:10EAE00025FE05AB184604F0D9F80990099B079359
:10EAF000079B002B05D0294A40F22621079808F0F1
:10EB000015FE02AB0533052200211846FDF71AFD5C
:10EB10009DF80D3043F001038DF80D309DF80D3058
:10EB20006FF341038DF80D309DF80D306FF38203C4
:10EB30008DF80D309DF80D306FF3C3038DF80D3057
:10EB40009DF80D30032262F306138DF80D309DF809
:10EB50000D306FF3C7138DF80D3007238DF80E308D
:10EB600010238DF80F300E4B029301238DF80C30DB
:10EB700002AB19460B4804F02DF90990099B069346
:10EB8000069B002B05D0054A40F23621069808F076
:10EB9000CDFD00BF0BB05DF804FB00BFECAE020082
:10EBA00085EA0100D021002000B59DB00CAB3822D1
:10EBB00000211846FDF7C6FC02238DF830300123F2
:10EBC0008DF8323006238DF833300123ADF8403014
:10EBD000134B119303AB242200211846FDF7B2FC1E
:10EBE00001238DF818304FF4967307930023089390
:10EBF00003AA0CA8002300930A4B002102F00EFC8C
:10EC00001B901B9B1A931A9B002B05D0064A4FF4AE
:10EC100014711A9808F08AFD00BF1DB05DF804FB5E
:10EC200024210020B5E70100ECAE020000B587B05A
:10EC30000190184A40F6CD41032001F099FA059061
:10EC4000059B0493049B002B05D0134A40F25F21DF
:10EC5000049808F06BFD0DF10B031946002001F03C
:10EC600087FC0590059B0393039B002B05D00A4A64
:10EC700040F26221039808F059FD9DF80B30022BF9
:10EC80000CBF01230023DAB2019B1A7000BF07B04A
:10EC90005DF804FBFDE90100ECAE020000B583B0B5
:10ECA000FFF75EFB0190019B0093009B002B05D0BA
:10ECB000044A40F26D21009808F038FD00BF03B00F
:10ECC0005DF804FBECAE020000B583B0019000914A
:10ECD000019807F0EDF900BF03B05DF804FB00BF39
:10ECE00010B586B00E4B6C460FCB84E80F0069461A
:10ECF00000230C4A0C4807F091FF0590059B0493F4
:10ED0000049B002B05D0094A40F28921049808F0A1
:10ED10000DFD054807F0FAFF00BF06B010BD00BFAB
:10ED200030AF0200C9EC010034210020ECAE02003B
:10ED3000F0B597B0FFF7D2FB0DF13F031846FFF790
:10ED400075FFFFF7E1FD9DF83F301846FFF7B2FE73
:10ED5000FFF708FCFFF728FFFFF754FCFFF78CFCD8
:10ED6000484A494900200AF07FFAFFF7B9FF4748AF
:10ED700007F082FA1590159B1493149B002B05D075
:10ED8000434A40F2A621149808F0D0FC0323012244
:10ED90000121012007F07CFA1590159B1393139B1A
:10EDA000002B05D03A4A40F2A921139808F0BEFC86
:10EDB00007F016FB1590159B1293129B002B05D0A4
:10EDC000334A4FF42B71129808F0B0FCFFF78CFC1B
:10EDD000032002F04FFC1190119B1093109B002B0D
:10EDE00005D02B4A40F2B221109808F09FFC294B25
:10EDF0001B78DBB2002B42D0274B1B6818460BF068
:10EE0000F3FB0346254918460BF0FAFC0346184667
:10EE10000AF0E8FF06460F46214B1B6818460BF028
:10EE2000E3FB03464FF0894118460BF0E9FC03462B
:10EE300018460AF0D7FF04460D461A4B1B681846C1
:10EE40000BF0D2FB0346154918460BF0D9FC0346DC
:10EE500018460AF0C7FF02460B4605A8CDE9022373
:10EE6000CDE9004532463B460F490BF075FD05AB39
:10EE7000194600200AF0F8F9064B00221A70FFF735
:10EE80000DFFB4E740AF02004CAF02003421002078
:10EE9000ECAE020014220020282100200000C8420D
:10EEA0002C2100203021002060AF0200A0DF70473D
:10EEB00000BF1846A2DF704700BF1846A5DF7047A5
:10EEC00000BF1846A6DF704700BF184663DF7047D3
:10EED00000BF184600B58BB0019000910223ADF839
:10EEE00010300023ADF812300DF10E030593009B96
:10EEF000DA88019B1B899A421ED1019B1888019BCD
:10EF00001B8904AA1946FFF7D9FF0990099B0893AA
:10EF1000089B002B04D02F4A2721089808F006FCF4
:10EF2000BDF80E30012B03D12B4B01221A704CE09F
:10EF3000294B00221A7048E0009BDA88019B1B8A4B
:10EF40009A421ED1019B1888019B1B8A04AA19466C
:10EF5000FFF7B4FF0990099B0793079B002B04D090
:10EF60001C4A3421079808F0E1FBBDF80E30012B54
:10EF700003D11A4B01221A7027E0184B00221A7095
:10EF800023E0009BDA88019B1B8B9A421DD1019BD9
:10EF90001888019B1B8B04AA1946FFF78FFF099065
:10EFA000099B0693069B002B04D00A4A4121069830
:10EFB00008F0BCFBBDF80E30012B03D1084B012239
:10EFC0001A7002E0064B00221A7000BF0BB05DF809
:10EFD00004FB00BF88AF02007632002077320020A9
:10EFE0007832002000B583B001900091009B1B880F
:10EFF000112B09D0502B0CD0102B00D00EE0009B11
:10F000009A88019B1A8009E0019B4FF6FF721A80D3
:10F0100004E000990198FFF75DFF00BF00BF03B057
:10F020005DF804FB00B595B0019000231393012314
:10F030008DF846304EF25E53ADF844300AAB1C22D8
:10F0400000211846FDF77EFA9DF8283043F00203B0
:10F050008DF8283009AB032200211846FDF772FA1B
:10F060009DF82430012262F303038DF824309DF8CB
:10F070002430012262F307138DF824309DF82530E7
:10F08000012262F303038DF825309DF8253001221B
:10F0900062F307138DF825309DF82630012262F3C4
:10F0A00042038DF8263009AB0F939DF8283043F0CA
:10F0B00010038DF8283008AB032200211846FDF715
:10F0C00041FA9DF82230012262F342038DF822308A
:10F0D0009DF82030012262F303038DF820309DF863
:10F0E0002030012262F307138DF820309DF8213083
:10F0F0006FF303038DF821309DF821306FF3071370
:10F100008DF8213003AB142200211846FDF71AFABE
:10F1100011AB039308AB04930423ADF81830042318
:10F12000ADF814300023029302AB0793019B58887B
:10F13000019B143303AA0AA9FFF7BCFE1390139B8B
:10F140001293129B002B04D0044A8D21129808F0D0
:10F15000EDFA0023184615B05DF804FB88AF0200F5
:10F1600000B595B001900023139301238DF846302C
:10F1700040F2D113ADF844300AAB1C2200211846EE
:10F18000FDF7E0F99DF8283043F002038DF82830B0
:10F1900009AB032200211846FDF7D4F99DF824306D
:10F1A000012262F303038DF824309DF824300122FC
:10F1B00062F307138DF824309DF82530012262F3A5
:10F1C00003038DF825309DF82530012262F30713E3
:10F1D0008DF825309DF82630012262F342038DF828
:10F1E000263009AB0F939DF8283043F010038DF8BB
:10F1F000283008AB032200211846FDF7A3F99DF83B
:10F200002230012262F342038DF822309DF8203033
:10F21000012262F303038DF820309DF82030012293
:10F2200062F307138DF820309DF821306FF303034C
:10F230008DF821309DF821306FF307138DF82130C0
:10F2400003AB142200211846FDF77CF911AB0393A0
:10F2500008AB04930423ADF818300423ADF8143040
:10F260000023029302AB0793019B5888019B0C3348
:10F2700003AA0AA9FFF71EFE1390139B1293129B79
:10F28000002B04D0044AC121129808F04FFA002341
:10F29000184615B05DF804FB88AF020000B595B0C4
:10F2A00001900023139301238DF846304EF6AE6390
:10F2B000ADF844300AAB1C2200211846FDF742F994
:10F2C0009DF8283043F002038DF8283009AB032263
:10F2D00000211846FDF736F99DF82430012262F32B
:10F2E00003038DF824309DF82430012262F30713C4
:10F2F0008DF824309DF82530012262F303038DF848
:10F3000025309DF82530012262F307138DF8253052
:10F310009DF82630012262F342038DF8263009ABB6
:10F320000F939DF8283043F010038DF8283008AB78
:10F33000032200211846FDF705F99DF8223001222D
:10F3400062F342038DF822309DF82030012262F3EF
:10F3500003038DF820309DF82030012262F307135B
:10F360008DF820309DF821306FF303038DF82130A4
:10F370009DF821306FF307138DF8213003AB142271
:10F3800000211846FDF7DEF811AB039308AB049398
:10F390000423ADF818300423ADF814300023029391
:10F3A00002AB0793019B5888019B043303AA0AA967
:10F3B000FFF780FD1390139B1293129B002B04D038
:10F3C000044AF521129808F0B1F90023184615B047
:10F3D0005DF804FB88AF020010B58AB00190204BA5
:10F3E00002AC186859689A68DB680FC44FF20D03C5
:10F3F000ADF8183006AB9A1C02AB11461846FFF761
:10F4000065FD0990099B0893089B002B05D0154AC0
:10F410004FF48471089808F089F9019B4FF6FF7248
:10F420001A80019B9A1C06AB19460120FFF73EFD8E
:10F430000990099B0793079B002B05D0094A4FF4BD
:10F440008871079808F072F90198FFF727FF019873
:10F45000FFF786FE0198FFF7E5FD00BF0AB010BD7B
:10F46000CCAF020088AF020000B589B001900091D6
:10F47000019B1B884FF6FF7293422CD0184B1B78D0
:10F48000DBB2002B27D00423ADF81A3002AB1022D8
:10F4900000211846FDF756F8019B9B88ADF808300F
:10F4A00001238DF80A300023ADF80C300DF11A035A
:10F4B0000493009B0593019B1B8802AA11461846E2
:10F4C000FFF700FD0790079B002B04D0079A054922
:10F4D000002009F0C9FE00BF09B05DF804FB00BFC1
:10F4E00076320020DCAF020000B589B001900091B7
:10F4F000019B1B884FF6FF7293422CD0184B1B7850
:10F50000DBB2002B27D00423ADF81A3002AB102257
:10F5100000211846FDF716F8019B9B89ADF80830CD
:10F5200001238DF80A300023ADF80C300DF11A03D9
:10F530000493009B0593019B1B8802AA1146184661
:10F54000FFF7C0FC0790079B002B04D0079A0549E2
:10F55000002009F089FE00BF09B05DF804FB00BF80
:10F5600077320020F4AF020000B589B0019000911D
:10F57000019B1B884FF6FF7293422CD0184B1B78CF
:10F58000DBB2002B27D00423ADF81A3002AB1022D7
:10F5900000211846FCF7D6FF019B9B8AADF8083086
:10F5A00001238DF80A300023ADF80C300DF11A0359
:10F5B0000493009B0593019B1B8802AA11461846E1
:10F5C000FFF780FC0790079B002B04D0079A0549A2
:10F5D000002009F049FE00BF09B05DF804FB00BF40
:10F5E000783200200CB0020010B582B00190019B6F
:10F5F0001B88103B3E4A52F823301A463D490020F2
:10F6000009F032FE019B9B881A463B49002009F015
:10F610002BFE019B1B88112B5AD0122B2DD0102BA7
:10F6200000D061E0019B1B8B18460AF0C9FB4FF02C
:10F630000002324B0AF02AFC03460C4618462146CB
:10F640000AF0FCFE03469BB21A462D49002009F041
:10F650000BFE019BDB8B1A4613469B0013445B0099
:10F660001A462849002009F0FFFD019B9B8B1A4692
:10F670002549002009F0F8FD36E0019B1B8918465A
:10F680000AF09EFB4FF000021C4B0AF0FFFB034602
:10F690000C46184621460AF0D1FE03469BB21A4694
:10F6A0001749002009F0E0FD019BDB891A4613464B
:10F6B0009B0013445B001A461249002009F0D4FD58
:10F6C000019B9B891A461049002009F0CDFD0BE0F3
:10F6D000019B1B7A123B0D4A52F823301A460C4903
:10F6E000002009F0C1FD00BF00BF02B010BD00BF87
:10F6F0003C21002054B7020064B702000000F43F30
:10F700007CB7020094B70200ACB702008021002051
:10F71000C0B7020030B58BB00390039B9B88ADF857
:10F720002630039B04AC1D1D0FCD0FC42B68238016
:10F73000039B1B88ADF82430BDF82430512B04D036
:10F74000522B29D0502B18D02EE09DF81230012BCF
:10F7500009D1BDF814301A46BDF8163014490020FE
:10F7600009F082FD20E0BDF814301A46BDF81630CD
:10F770001049002009F078FD16E0039BDB881A464B
:10F78000039B1B891946039B123300930B460A49BE
:10F79000002009F069FD07E0039B9B791A460749A1
:10F7A000002009F061FD00BF00BF0BB030BD00BFFD
:10F7B000C8B70200ECB7020010B8020040B802005F
:10F7C00000B585B00190019B1B880393039A2249E1
:10F7D000002009F049FD039B0F2B06D9039B2F2B1B
:10F7E00003D80198FFF700FF32E0039B4F2B06D9A7
:10F7F000039B6F2B03D80198FFF78CFF28E0039B36
:10F800002F2B0ED9039B4F2B0BD8019B1B88303B12
:10F81000124A52F823301A461149002009F024FDFB
:10F8200016E0039B002B0ED0039B0F2B0BD8019BE4
:10F830001B88013B0B4A52F823301A460A49002024
:10F8400009F012FD04E0039A0849002009F00CFDBC
:10F8500000BF05B05DF804FB50B80200782100201D
:10F8600060B802007C2100206CB8020078B8020069
:10F8700084B001900091019B032B17D84FF0A04357
:10F88000D3F81035DB4303930C4A019B52F8233025
:10F89000012202FA03F31A46039B1340002B14BF04
:10F8A00001230023DAB2009B1A7002E0009B0022C1
:10F8B0001A700023184604B0704700BF9CB80200BD
:10F8C00000B587B003460A468DF8073013468DF819
:10F8D000063000238DF817300023049302E0049BC8
:10F8E00001330493049B032B07D8414A049B52F82D
:10F8F00023209DF807309A42F1D1049B032B65D851
:10F900009DF80630012B04D0022B53D0002B34D0AD
:10F910005CE03849049A13465B0013440B441B789F
:10F920008DF817303349049A13465B0013440B4497
:10F9300001331B78002B12D02F48304B1A68134626
:10F940009B0013445B002E4A194608F071FE039099
:10F95000039B002B03D12A4A9DF8073013702549D9
:10F96000049A13465B0013440B4402331978254A6A
:10F97000049B13440A461A7028E01F4B184608F0EF
:10F980008DFE204A049B134419781A48049A1346A2
:10F990005B001344034402331B78994215D1154987
:10F9A000049A13465B0013440B4402331B788DF812
:10F9B00017300AE00F49049A13465B0013440B44C6
:10F9C00001331B788DF8173000E000BF9DF8173029
:10F9D000002B09D00C4B1B68002B05D00A4B1B6871
:10F9E0009DF817201046984700BF07B05DF804FB4C
:10F9F0009CB8020088240020942400203824002091
:10FA0000B4240020B82400208424002000B583B052
:10FA10000190019B1B7802211846FFF751FF00BFA0
:10FA200003B05DF804FB00BF00B589B003468DF854
:10FA3000073000230793002306939DF80730172B08
:10FA400000F2398301A252F823F000BFADFA0100A1
:10FA5000D3FA0100D3FA01007FFB01002BFC010067
:10FA6000BDFC010067FD0100F5FD010031FE010054
:10FA70006BFE0100ABFE0100E5FE010025FF010069
:10FA800045FF010045FF010045FF010045FF010062
:10FA900045FF0100D5FF0100F5FF01002B0002002A
:10FAA0006100020097000200970002004FF0A042A0
:10FAB000CB4B1B68DB4303F4F013C2F808354FF05F
:10FAC000A0430022C3F80C25C64A9DF807301370E6
:10FAD000F2E24FF0A042C24B1B68DB4303F4E01399
:10FAE000C2F808354FF0A0430022C3F80C254FF0B0
:10FAF000A043D3F8043583F4F01303F40033002B50
:10FB000015D04FF0A0434FF40032C3F808254FF052
:10FB1000A0430022C3F80C259DF80730022B02D128
:10FB20004FF4E16301E04FF47A63069313E04FF082
:10FB3000A0434FF40032C3F80C254FF0A04300223D
:10FB4000C3F808259DF80730022B01D1C82301E036
:10FB50004FF4C8730693A34A9DF807301370A24868
:10FB6000069BA24AA2FB03235B09A14A126802FB7F
:10FB700003F30022194608F05BFD07909CE24FF06A
:10FB8000A042974B1B68DB4303F4E013C2F808352F
:10FB90004FF0A0430022C3F80C254FF0A043D3F848
:10FBA000043583F4F01303F40033002B15D04FF029
:10FBB000A0434FF40032C3F808254FF0A0430022C1
:10FBC000C3F80C259DF80730032B02D14FF448737E
:10FBD00001E04FF47A63069313E04FF0A0434FF433
:10FBE0000032C3F80C254FF0A0430022C3F80825CB
:10FBF0009DF80730032B01D1C82301E04FF4C873EF
:10FC00000693784A9DF8073013707748069B774A29
:10FC1000A2FB03235B09764A126802FB03F300226E
:10FC2000194608F005FD079046E24FF0A0426C4BE4
:10FC30001B68DB4303F4E013C2F808354FF0A04320
:10FC40000022C3F80C254FF0A043D3F8043583F409
:10FC5000F01303F40033002B0ED04FF0A0434FF409
:10FC60000032C3F808254FF0A0430022C3F80C254A
:10FC70004FF47A6306930DE04FF0A0434FF4003247
:10FC8000C3F80C254FF0A0430022C3F808254FF419
:10FC9000C8730693534A9DF8073013705248069B69
:10FCA000524AA2FB03235B09514A126802FB03F389
:10FCB0000022194608F0BCFC0790FDE14FF0A0427D
:10FCC000474B1B68DB4303F4E013C2F808354FF0E1
:10FCD000A0430022C3F80C254FF0A043D3F804350D
:10FCE00083F4F01303F40033002B14D04FF0A0433F
:10FCF0004FF40032C3F808254FF0A0430022C3F8A8
:10FD00000C259DF80730052B01D1C82301E04FF4E5
:10FD10007A63069313E04FF0A0434FF40032C3F828
:10FD20000C254FF0A0430022C3F808259DF80730AA
:10FD3000052B01D1C82301E04FF4C8730693294A6B
:10FD40009DF8073013702848069B284AA2FB03231E
:10FD50005B09274A126802FB03F30022194608F0E8
:10FD600067FC0790A8E14FF0A0421D4B1B68DB43E6
:10FD700003F4E013C2F808354FF0A0430022C3F8A3
:10FD80000C254FF0A043D3F8043583F4F01303F4AB
:10FD90000033002B0BD04FF0A0434FF40032C3F8D8
:10FDA00008254FF0A0430022C3F80C250AE04FF0CD
:10FDB000A0434FF40032C3F80C254FF0A0430022BB
:10FDC000C3F80825074A9DF8073013700648084B0A
:10FDD0001B680022194608F02BFC07906CE100BF5D
:10FDE0004024002034240020442400201F85EB51AF
:10FDF000382400204FF0A042B24B1B68DB4303F4D1
:10FE0000E013C2F808354FF0A0430022C3F80C25D8
:10FE10004FF0A0434FF40032C3F80C254FF0A0433D
:10FE20000022C3F80825A84A9DF80730137043E163
:10FE30004FF0A043D3F8043505934FF0A042059B43
:10FE4000DB4303F48023C2F808354FF0A042059B42
:10FE500003F48023C2F80C359C489D4B1B6800229C
:10FE6000194608F0E5FB079026E14FF0A043D3F8D0
:10FE7000043504934FF0A042049BDB4303F480233A
:10FE8000C2F808354FF0A042049B03F48023C2F867
:10FE90000C358E488E4B1A6813469B001344002283
:10FEA000194608F0C5FB079006E14FF0A043D3F8D0
:10FEB000043503934FF0A042039BDB4303F48023FC
:10FEC000C2F808354FF0A042039B03F48023C2F828
:10FED0000C357E487E4B1B680022194608F0A8FBB3
:10FEE0000790E9E04FF0A043D3F8043502934FF0B8
:10FEF000A042029BDB4303F48023C2F808354FF095
:10FF0000A042029B03F48023C2F80C356F48704B6B
:10FF10001A6813469B0013440022194608F088FB18
:10FF20000790C9E04FF0A0434FF4F012C3F80C253E
:10FF30004FF0A0430022C3F80825634A9DF807301C
:10FF40001370B9E0634B184608F0A8FB07909DF8C2
:10FF50000730C3F111030693069B002B29D0079BA2
:10FF6000002B26D1574B4FF400221A60069B012B21
:10FF700011D95848069BC82202FB03F3564AA2FB3C
:10FF800003235B09524A126802FB03F3002219465D
:10FF900008F04EFB07904FF0A0424A4B1B6803F459
:10FFA000F013C2F80C354FF0A0430022C3F8082527
:10FFB00082E04FF0A042434B1B6803F4F013C2F8F9
:10FFC00008354FF0A0430022C3F80C253D4B00221A
:10FFD0001A6071E04FF0A0434FF4F012C3F8082507
:10FFE0004FF0A0430022C3F80C25374A9DF8073094
:10FFF000137061E04FF0A0434FF4E012C3F80825FE
:020000022000DC
:100000004FF0A0430022C3F80C254FF0A0434FF45B
:100010000032C3F80C254FF0A0430022C3F8082596
:10002000294A9DF80730137046E04FF0A0434FF483
:10003000D012C3F808254FF0A0430022C3F80C25C6
:100040004FF0A0434FF48022C3F80C254FF0A0439B
:100050000022C3F808251C4A9DF8073013702BE0D6
:100060004FF0A0434FF4C012C3F808254FF0A0434F
:100070000022C3F80C254FF0A0434FF4C022C3F870
:100080000C254FF0A0430022C3F808250E4A9DF826
:100090000730137010E04FF0A0434FF4F012C3F894
:1000A0000C254FF0A0430022C3F80825064A9DF80E
:1000B0000730137000E000BF079B184609B05DF8D9
:1000C00004FB00BF402400203424002044240020EE
:1000D00038240020642400201F85EB5100B583B034
:1000E0000190074B1B6803F00103002B04D0054B64
:1000F0001B781846FFF798FC00BF03B05DF804FBBF
:100100003C2400203424002084B001904FF0A04310
:10011000D3F8043503934FF0A042039BDB4303F471
:100120000023C2F808354FF0A042039B03F40023DC
:10013000C2F80C3500BF04B0704700BF00B585B0F1
:1001400003468DF8073000230393084B1B6803F028
:100150000103002B05D09DF807301846FFF764FC1B
:100160000390039B184605B05DF804FB3C24002077
:1001700000B587B003900291019200230593334AA2
:10018000029B1360324A039B1360324A019B136047
:10019000039B03F00203002B2BD00023049308E001
:1001A00001220121049800F065F80590049B0133B9
:1001B0000493049B032B02D8059B002BF0D0059BD6
:1001C000002B07D1029B5B081A460421224807F046
:1001D00019FA0590059B002B02D107F085FA0590CE
:1001E000059B002B05D11D4A00211D4808F0D8F9B8
:1001F0000590039B03F00103002B10D04FF0A043A8
:100200004FF4F012C3F808254FF0A0430022C3F8C2
:100210000C254FF0A0434FF4F012C3F81825059BAE
:10022000002B05D10F4A00210F4808F0B9F90590BD
:10023000059B002B05D10D4A01210D4808F0B0F9AE
:100240000590059B184607B05DF804FB3824002094
:100250003C24002084240020ACB802000DFA0100E8
:1002600098B80200DD00020090B802000901020007
:1002700094B8020084B001900B468DF80330134609
:100280008DF8023000230393019B032B3CD89DF88B
:100290000230012B0BD19DF80330012B04D1019BBF
:1002A000DBB20D33DBB200E000238DF802309DF8A5
:1002B0000330012B04D0022B0CD0002B15D01FE0F3
:1002C0001449019A13465B0013440B449DF8022025
:1002D0001A701BE00F49019A13465B0013440B444C
:1002E00001339DF802201A7010E00A49019A134662
:1002F0005B0013440B4402339DF802201A7005E0A2
:100300000723039300BF01E007230393039B1846D1
:1003100004B070478824002086B001900023059324
:100320002EE04FF0A0421A49059B51F8233003F507
:10033000E07352F8233004930122059B02FA03F381
:100340001A46019B1340002B01D0032300E0002339
:100350000393049B23F440330493039B1B04049AEC
:10036000134304934FF0A041094A059B52F82330F0
:1003700003F5E073049A41F82320059B01330593AC
:10038000059B032BCDD90023184606B0704700BF4C
:100390009CB8020000B583B0012200210020FFF7C5
:1003A00069FF0190019B002B04D0019B072B01D01A
:1003B000019B1CE0072202210120FFF75BFF019057
:1003C000019B002B04D0019B072B01D0019B0EE069
:1003D000042202210020FFF74DFF0190019B002B1A
:1003E00004D0019B072B01D0019B00E0002318469D
:1003F00003B05DF804FB00BF00B583B00122022109
:100400000020FFF737FF0190019B002B04D0019BD8
:10041000072B01D0019B1CE0072202210120FFF7DE
:1004200029FF0190019B002B04D0019B072B01D0D9
:10043000019B0EE00A2200210020FFF71BFF019024
:10044000019B002B04D0019B072B01D0019B00E0F6
:100450000023184603B05DF804FB00BF00B585B06B
:1004600001900DF10B0319460020FFF701FA0390EC
:10047000039B002B01D0039B1FE00DF10A031946DB
:100480000120FFF7F5F90390039B002B01D0039B9C
:1004900013E09DF80A30002B03D0019B02221A7052
:1004A0000AE09DF80B30002B03D0019B0B221A7041
:1004B00002E0019B00221A700023184605B05DF887
:1004C00004FB00BF00B583B00320FFF725FF0190B8
:1004D000019B002B04D0019B062B01D0019B00E067
:1004E0000023184603B05DF804FB00BF00B585B0DB
:1004F0000190019B1B88102B02D0112B18D02FE0EC
:10050000194B1B68002B0DD1FFF744FF0390039B91
:10051000002B07D0154B1B68002B03D0134B1B6817
:1005200003989847104B1B6801330F4A136017E07C
:100530000D4B1B68013B0C4A13600B4B1B68002BD7
:100540000DD1FFF759FF0390039B002B07D0074BFA
:100550001B68002B03D0054B1B680398984700BF0E
:1005600000BF05B05DF804FBC0240020BC240020BF
:1005700000B585B001900091002303930D4A019BC3
:100580001360009B002B08D00098FFF767FF0390D3
:10059000039B002B01D0039B07E0074B1B68002B3C
:1005A00002D1FFF729FF0390039B184605B05DF8C1
:1005B00004FB00BFBC240020C024002071DF704772
:1005C00000BF184672DF704700BF184679DF7047DA
:1005D00000BF18467DDF704700BF184665DF7047D3
:1005E00000BF184682B003460091ADF80630BDF852
:1005F0000630DAB2009B1A70009B0133BDF806206A
:10060000120A92B2D2B21A700223184602B0704790
:1006100086B0039002910192ADF80230019B1B88D5
:1006200003F11202BDF802309A4201D90C2339E0DD
:10063000019B1B881A46029B134411221A70019BCE
:100640001B8801339AB2019B1A80019B1B881A46B2
:10065000029B134410221A70019B1B8801339AB22B
:10066000019B1A800F238DF8173016E0019B1B8821
:100670001A46029B13449DF9172003998A5C1A704D
:100680009DF91730DBB2013BDBB28DF81730019BCF
:100690001B8801339AB2019B1A809DF91730002BF9
:1006A000E4DA0023184606B0704700BF84B0029118
:1006B00001921A4603468DF80F301346ADF80C3000
:1006C000019B1B88DA1CBDF80C309A4201D90C231F
:1006D00053E0019B1B881A46029B134402221A70A6
:1006E000019B1B8801339AB2019B1A80019B1B88D6
:1006F0001A46029B13441C221A70019B1B8801336B
:100700009AB2019B1A809DF80F30013B032B2BD826
:1007100001A252F823F000BF2907020039070200A6
:100720004907020059070200019B1B881A46029BD9
:10073000134400221A7019E0019B1B881A46029B81
:10074000134401221A7011E0019B1B881A46029B78
:10075000134402221A7009E0019B1B881A46029B6F
:10076000134403221A7001E0072306E0019B1B8853
:1007700001339AB2019B1A800023184604B07047D7
:1007800000B589B0039002911346ADF80630029B84
:100790001B8803F10902BDF806309A4201D90C23E7
:1007A0004EE005AB1846FFF709FF0790079B002BAB
:1007B00001D0079B44E0029B1B881A46039B13440D
:1007C00008221A70029B1B8801339AB2029B1A807E
:1007D000029B1B881A46039B13441B221A70029B20
:1007E0001B8801339AB2029B1A80029B1B881A460F
:1007F000039B981805AB013306221946FDF7B0F9A3
:10080000029B1B8806339AB2029B1A809DF8143013
:10081000002B07D1029B1B881A46039B134400221E
:100820001A7006E0029B1B881A46039B13440122A0
:100830001A70029B1B8801339AB2029B1A80002314
:10084000184609B05DF804FB00B589B00390029129
:100850000192ADF80230039B1B78012B05D1039B5D
:100860005B78002B01D1072389E0019B1B889A1C30
:10087000BDF802309A420ED8039B1B78012B0CD195
:10088000019B1B881A46039B5B7813449A1CBDF896
:1008900002309A4201D90C2371E0019B1B88BDF8FC
:1008A0000220D31A9BB2023BADF81C30BDF81C30BD
:1008B000ADF81630019B1B880233029A13440DF1E8
:1008C000160211461846FFF785FE0690069B002B80
:1008D00001D0069B53E0039B1B78022B09D1BDF886
:1008E0001630BDF81C209A4203D309238DF81F301F
:1008F00017E008238DF81F30039B1B78012B0CD1C8
:10090000039B5B789BB2BDF81C209A4205D3039BE6
:100910005B789BB2ADF8163003E0BDF81C30ADF843
:100920001630BDF81630FE2B01D90C2327E0019BB1
:100930001B881A46029B1344BDF81620D2B201321E
:10094000D2B21A70019B1B8801339AB2019B1A80A4
:10095000019B1B881A46029B13449DF81F201A70A6
:10096000019B1B8801339AB2019B1A80019B1A8854
:10097000BDF8163013449AB2019B1A800023184622
:1009800009B05DF804FB00BF00B587B00390029189
:100990001346ADF80630029B1B881A1DBDF80630C1
:1009A0009A4201D90C2339E00DF112031846FFF7E2
:1009B0000DFE0590059B002B01D0059B2EE0029BB0
:1009C0001B881A46039B134403221A70029B1B8840
:1009D00001339AB2029B1A80029B1B881A46039B22
:1009E000134419221A70029B1B8801339AB2029B8E
:1009F0001A80BDF81220029B1B881946039B0B44EA
:100A000019461046FFF7EEFD03461946029B1A8869
:100A10008BB213449AB2029B1A800023184607B087
:100A20005DF804FB84B0029101921A4603468DF8EA
:100A30000F301346ADF80C30019B1B88DA1CBDF853
:100A40000C309A4201D90C2328E0019B1B881A46DE
:100A5000029B134402221A70019B1B8801339AB235
:100A6000019B1A80019B1B881A46029B134401229A
:100A70001A70019B1B8801339AB2019B1A80019B5B
:100A80001B881A46029B13449DF80F201A70019B85
:100A90001B8801339AB2019B1A800023184604B0C8
:100AA000704700BF84B0029101921A4603468DF848
:100AB0000F301346ADF80C30019B1B88DA1CBDF8D3
:100AC0000C309A4201D90C2328E0019B1B881A465E
:100AD000029B134402221A70019B1B8801339AB2B5
:100AE000019B1A80019B1B881A46029B134411220A
:100AF0001A70019B1B8801339AB2019B1A80019BDB
:100B00001B881A46029B13449DF80F201A70019B04
:100B10001B8801339AB2019B1A800023184604B047
:100B2000704700BF84B0029101921A4603468DF8C7
:100B30000F301346ADF80C30019B1B88DA1CBDF852
:100B40000C309A4201D90C2328E0019B1B881A46DD
:100B5000029B134402221A70019B1B8801339AB234
:100B6000019B1A80019B1B881A46029B13440A2290
:100B70001A70019B1B8801339AB2019B1A80019B5A
:100B80001B881A46029B13449DF80F201A70019B84
:100B90001B8801339AB2019B1A800023184604B0C7
:100BA000704700BF00B58BB0039001930B468DF8E2
:100BB0000B3013468DF80A3000238DF823300C9B40
:100BC0001B88ADF82030002309936DE0039B5A6821
:100BD000099B9B001A4404AB106818600DF11701C3
:100BE00004AB00221846FFF7F9FC0790079B002B87
:100BF00001D0079B7AE09DF817309DF80A209A42B1
:100C00004FD19DF82330002B01D0002300E00223B8
:100C10008DF81B300C9B1B881A469DF817301A4420
:100C20009DF81B301A44BDF834309A4201DD0C2384
:100C30005CE09DF8233083F00103DBB2002B16D07B
:100C40000C9B1B8801339AB20C9B1A800C9B1B884F
:100C50001A46019B13449DF80B201A700C9B1B88AD
:100C600001339AB20C9B1A8001238DF823300C9B20
:100C70001B881A46019B1A440DF1170104AB184654
:100C8000FFF7ACFC0790079B002B01D0079B2DE0E2
:100C90000C9B1A889DF817309BB213449AB20C9B98
:100CA0001A80099B01330993039B1B881A46099BF1
:100CB0009A428BDC9DF82330002B16D00C9B1A88AF
:100CC000BDF82030D31A9BB2013BADF81830BDF807
:100CD0001830FF2B01D90C2308E0BDF82030019A11
:100CE0001344BDF81820D2B21A70002318460BB076
:100CF0005DF804FB00B589B0059003930B468DF8B1
:100D0000133013468DF812309DF81310BDF82C30B7
:100D100001930A9B0093039B02220598FFF742FF71
:100D20000790079B002B01D0079B12E09DF8121043
:100D3000BDF82C3001930A9B0093039B1022059869
:100D4000FFF730FF0790079B002B01D0079B00E0C7
:100D50000023184609B05DF804FB00BF82B0019083
:100D6000019B1B88052B0AD9019B1B88B3F5486F93
:100D700007D9019B1B884FF6FF72934201D00723CE
:100D800025E0019B5B88052B0AD9019B5B88B3F5A5
:100D9000486F07D9019B5B884FF6FF72934201D0E1
:100DA000072314E0019B1B884FF6FF7293420DD07E
:100DB000019B5B884FF6FF72934207D0019B1A8814
:100DC000019B5B889A4201D9072300E00023184663
:100DD00002B0704700B587B0039002910192ADF860
:100DE0000230019B1B889A1DBDF802309A4201D93E
:100DF0000C234BE00398FFF7B1FF0590059B002BF8
:100E000001D0059B42E0019B1B881A46029B1344BC
:100E100005221A70019B1B8801339AB2019B1A802C
:100E2000019B1B881A46029B134412221A70019BD5
:100E30001B8801339AB2019B1A80039B1A88019B7D
:100E40001B881946029B0B4419461046FFF7CAFB44
:100E500003461946019B1A888BB213449AB2019B30
:100E60001A80039B5A88019B1B881946029B0B44DE
:100E700019461046FFF7B6FB03461946019B1A8830
:100E80008BB213449AB2019B1A800023184607B014
:100E90005DF804FB00B587B0039002910192ADF8B4
:100EA0000230039B9B8802330593019B1B881A46E3
:100EB000059B13449A1CBDF802309A4201D90C23B9
:100EC00054E0059BFE2B01D90C234FE0019B1B88AE
:100ED0001A46029B1344059AD2B20132D2B21A705A
:100EE000019B1B8801339AB2019B1A80019B1B88CE
:100EF0001A46029B1344FF221A70019B1B88013380
:100F00009AB2019B1A80039B1A88019B1B88194681
:100F1000029B0B4419461046FFF764FB0346194633
:100F2000019B1A888BB213449AB2019B1A80039BCF
:100F30009B88002B19D0039B9B68002B01D10723B2
:100F400014E0019B1B881A46029B9818039B996822
:100F5000039B9B881A46FCF703FE019B1A88039BA0
:100F60009B8813449AB2019B1A800023184607B04D
:100F70005DF804FB00B589B0039002910192ADF8D1
:100F80000230039B9B6A002B01D1072372E00023F0
:100F90008DF81F3066E0039B996A9DF81F20134669
:100FA0005B0013449B000B440693069B9B88023313
:100FB0000593059BFE2B01D90C235BE0019B1B884D
:100FC0001A46029B1344059AD2B20132D2B21A7069
:100FD000019B1B8801339AB2019B1A80019B1B88DD
:100FE0001A46029B134416221A70019B1B88013378
:100FF0009AB2019B1A80069B1A88019B1B8819468E
:10100000029B0B4419461046FFF7ECFA03461946BB
:10101000019B1A888BB213449AB2019B1A80069BDB
:101020009B88002B19D0069B9B68002B01D10723BE
:1010300020E0019B1B881A46029B9818069B996822
:10104000069B9B881A46FCF78BFD019B1A88069B22
:101050009B8813449AB2019B1A809DF81F3001337C
:101060008DF81F30039B93F82C309DF81F209A4277
:1010700091D30023184609B05DF804FB00B589B090
:1010800005900491039200230793039B1B88ADF8FE
:101090001A30039B00221A80059B5B6B002B0ED03D
:1010A000059B5B6B1878BDF81A30039A0499FFF71B
:1010B000F9FC0790079B002B01D0079BFCE0059BE8
:1010C0001B6B002B0DD0059B186BBDF81A30039AD3
:1010D0000499FFF79DFA0790079B002B01D0079B0F
:1010E000EAE0059B93F82E30002B0ED0059B93F879
:1010F0002E00BDF81A30039A0499FFF7D7FA07902B
:10110000079B002B01D0079BD6E0059B93F82D3061
:10111000002B0CD0BDF81A301A4603990498FFF73B
:101120002FFB0790079B002B01D0079BC4E0059B7A
:101130009B78002B0CD0BDF81A301A4603990498FE
:10114000FFF722FC0790079B002B01D0079BB3E021
:10115000059BDB78002B0ED0059BDB7858B2BDF8E1
:101160001A30039A0499FFF75DFC0790079B002B48
:1011700001D0079BA0E0059B5B68002B0FD0059B6F
:101180005B6893F90000BDF81A30039A0499FFF7E1
:10119000C9FC0790079B002B01D0079B8CE0059BA7
:1011A0001B89002B12D0059B03F10800BDF81A30F3
:1011B0000193039B0093049B06220221FFF79AFDF3
:1011C0000790079B002B01D0079B75E0059B1B8AAE
:1011D000002B12D0059B03F11000BDF81A300193CB
:1011E000039B0093049B07220321FFF783FD0790D5
:1011F000079B002B01D0079B5EE0059B1B8B002B00
:1012000012D0059B03F11800BDF81A300193039B1F
:101210000093049B15221421FFF76CFD0790079B98
:10122000002B01D0079B47E0059B1B6A002B0DD0CC
:10123000059B186ABDF81A30039A0499FFF7CAFD96
:101240000790079B002B01D0079B35E0059B5B6A4D
:10125000002B0DD0059B586ABDF81A30039A0499EB
:10126000FFF718FE0790079B002B01D0079B23E098
:10127000059B93F82C30002B0CD0BDF81A30039A44
:1012800004990598FFF776FE0790079B002B01D085
:10129000079B11E0059B1B78002B0CD0BDF81A3082
:1012A000039A04990598FFF7CFFA0790079B002B44
:1012B00001D0079B00E0079B184609B05DF804FBCE
:1012C00082B00190019BDB7803F00403002B01D175
:1012D000072300E00023184602B0704782B0019057
:1012E000019BDB78002B01D0072300E00023184688
:1012F00002B0704700B597B0019000911F23ADF880
:101300004A301F23ADF84830019B002B18D00198BC
:10131000FFF7D6FF1390139B002B01D0139B3FE0E8
:101320000DF14A020AAB19460198FFF7A7FE139088
:10133000139B002B01D0139B32E00AAB159304E002
:10134000002315930023ADF84A30009B002B17D0E3
:101350000098FFF7C3FF1390139B002B01D0139B42
:101360001EE012AA02AB19460098FFF787FE139001
:10137000139B002B01D0139B12E002AB149304E0EB
:10138000002314930023ADF84830BDF84A30D9B299
:10139000BDF84830DBB2149A1598FFF713F90346ED
:1013A000184617B05DF804FB73DF704700BF18469E
:1013B00074DF704700BF184682B00190019B1B7913
:1013C000002B03D1019B1B7B002B01D0012300E0EC
:1013D0000023184602B0704708B5072200210248D2
:1013E000FBF7B0F800BF08BDC824002084B001900E
:1013F000002303930AE0019A039B13441B78002BFC
:1014000001D0012306E0039B01330393039B052BCB
:10141000F1D90023184604B0704700BF30B589B039
:101420000390029101920093039B002B01D10E23A4
:10143000D6E0019B002B01D10E23D1E06A4B0022A4
:101440001A706A4A009B1360694A0C9B1360694AD0
:10145000019B14461D460FCD0FC40FCD0FC42B6842
:101460002360FFF7B9FF644B644A1A60624B644A19
:101470009A60382200216348FBF764F8039B1A78CE
:10148000604B1A70039B9A785E4B9A70039BDA78D4
:101490005C4BDA70039B5A785A4B5A70594B039A3B
:1014A0001033103292E8030083E80300554B039A8F
:1014B0000833083292E8030083E80300514B039A93
:1014C0001833183292E8030083E80300039B5B6A39
:1014D000002B29D04B4B4C4A5A624B4B4B4A9A60DB
:1014E000484B5B6A039A526A12881A80454B5B6AC2
:1014F000039A526A92889A80002307930DE0039B17
:101500005B6A9A68079B13441978404A079B134407
:101510000A461A70079B013307933A4B5B6A9B8814
:101520001A46079B9A42EAD8039B9B6A002B33D04A
:10153000374B384A9A60334B354A9A62314B9B6A33
:10154000344A9A602F4B9B6A039A926A92889A80D7
:101550002C4B9B6A039A926A12881A800023069386
:101560000DE0039B9B6A9A68069B13441978294AED
:10157000069B13440A461A70069B01330693214BBF
:101580009B6A9B881A46069B9A42EAD8039B93F86B
:101590002C201C4B83F82C20039B1B6A002B0ED0A5
:1015A000184B1D4A1A62174B1B6A039A126A52881B
:1015B0005A80144B1B6A039A126A12881A80039B82
:1015C0005B68002B06D00F4B144A5A60039B5B6884
:1015D0000C4A536002990B48FFF78CFE0590059B5F
:1015E000184609B030BD00BF142500200C2500208E
:1015F00010250020182500203C2500204C25002027
:101600006C250020D0240020902500209C2500205F
:10161000BC250020C8250020E8250020EC2500205E
:1016200000B583B0002300936B46184604F0FCFC21
:101630000190019B082B04D0019B002B01D00123BA
:1016400013E0019B082B0AD16B46184607F04CF8B3
:1016500003460193019B002B01D0002305E0009B72
:10166000002B01D0012300E00023184603B05DF8F1
:1016700004FB00BF00B58BB003468DF80730A74AC6
:101680009DF807301370FFF7CBFF0346002B04D003
:10169000A34B01221A70002376E1FFF79DFEA14BB8
:1016A0005B78002B03D09D4B1B78012B0FD09D4BFB
:1016B0009B78002B03D0994B1B78012B07D0994BBB
:1016C0009B78002B12D0954B1B78022B0ED1964B9A
:1016D0001B68002B07D0954B01221A70924B1B6898
:1016E0000820984702E0914B00221A708B4B1B7820
:1016F000012B12D18B4B5B7883F00103DBB2002B03
:1017000008D18B48FFF772FE034683F00103DBB27A
:10171000002B02D0814B02221A70804B1B78022BC7
:1017200012D1804B9B7883F00103DBB2002B08D1F0
:101730007F48FFF75BFE034683F00103DBB2002B1B
:1017400002D0764B03221A70764B1B7B83F0010389
:10175000DBB2002B06D0714B1B78032B02D16F4BF1
:1017600004221A706F4B1B7E83F00103DBB2002B47
:1017700009D06A4B1B78042B05D1684B00221A70E4
:101780006C4B00221A70684B1B68002B1AD0634BFD
:101790001B78032B03D0614B1B78042B12D1614BB8
:1017A0001B78002B0ED0644B1B7883F00103DBB257
:1017B000002B07D0614B01221A705B4B1B6807207E
:1017C000984702E05D4B00221A7003AB18220021FB
:1017D0001846FAF7B7FE00238DF80C300023049367
:1017E00000238DF81430002306934C4B1B78013BEB
:1017F000032B00F2AF8001A252F823F00D18020073
:101800002B18020051180200BB1802004C4B049325
:1018100001238DF80C300023ADF81E300023ADF805
:101820001C30444B01221A7095E0454B0493012370
:101830008DF80C303B4B9B689BB2ADF81E30394B9A
:101840005B689BB2ADF81C303A4B02221A7082E002
:10185000344B5B699BB2ADF81E30324B1B699BB2B7
:10186000ADF81C303748FFF7A7FD0346002B20D00A
:101870002C4B1B78002B1CD02F4B1B7883F00103C3
:10188000DBB2002B15D002238DF814302D4B0693BC
:101890002D4B0422DA7000212B48FFF72BFD099015
:1018A000099B002B01D0099B6EE0224B05221A7088
:1018B00051E0204B03221A704DE01A4BDB699BB2BA
:1018C000ADF81C30174B1B6A9BB2ADF81E301D489B
:1018D000FFF772FD0346002B38D0124B1B78002B0C
:1018E00034D0154B1B7883F00103DBB2002B2DD0D5
:1018F00002238DF81430134B0693134B0422DA7035
:1019000000211148FFF7F6FC0990099B002B01D03C
:10191000099B39E0074B06221A701CE014250020B1
:10192000C4240020182500200C2500208E2500202E
:10193000C9240020082500208C2500208D250020AA
:10194000C82400203C250020D0240020104B042275
:101950001A7000E000BF0F4B1B78002B09D003ABBF
:101960001846FFF721FD0990099B002B01D0099B28
:101970000AE0094B1B68002B05D0074B1B68044A83
:10198000127810469847002318460BB05DF804FB08
:1019900008250020142500200C25002000B587B064
:1019A0000190019B1B88112B0DD01B2B24D0102BD9
:1019B00000D085E0019B9B7D012B7CD1019B9A8807
:1019C000414B1A8077E0414B00221A70019B9A88A4
:1019D0003D4B1B889A4270D10120FFF74BFE0590CA
:1019E000059B002B69D03A4B1B68002B65D0384B08
:1019F0001B680598984760E0019B1B7A002B5ED11D
:101A0000344B1B78013B032B4BD801A252F823F037
:101A1000211A0200411A0200611A0200871A02000C
:101A20000220FFF727FE0490049B002B3BD0284B9D
:101A30001B68002B37D0264B1B680498984732E070
:101A40000320FFF717FE0390039B002B2DD0204BA4
:101A50001B68002B29D01E4B1B680398984724E075
:101A60001D4B03221A700420FFF704FE0290029B14
:101A7000002B1CD0164B1B68002B18D0144B1B6876
:101A80000298984713E0144B00221A70134B1B68FE
:101A9000002B0ED0114B1B680F4A12781046984746
:101AA00007E000BF0BE000BF09E000BF07E000BF98
:101AB00005E000BF03E000BF02E000BF00E000BFA0
:101AC00000BF07B05DF804FB942100208C250020A6
:101AD0001025002014250020082500200C250020BA
:101AE00000B585B0019000230393019B023B012BBD
:101AF00018D8104B1B78002B16D00E4B00221A70F2
:101B00000D4B1B781846FFF7B5FD0390039B002B88
:101B10000AD00A4B1B68002B06D0084B1B680398A1
:101B2000984701E000BF00E000BF00BF05B05DF8CE
:101B300004FB00BFC4240020142500201025002031
:101B400000B583B01E4B1B78002B33D01D4B1B7888
:101B500083F00103DBB2002B2CD01B4B1B78002B36
:101B600007D0FFF725FC0190019B002B01D0019BC2
:101B700021E0144B01221A70144B0622DA70002166
:101B80001248FFF7B7FB0190019B002B01D0019B8E
:101B900011E00D4B1B781846FFF76CFD0190019B7F
:101BA000002B07D00A4B1B68002B03D0084B1B6887
:101BB000019898470023184603B05DF804FB00BF66
:101BC000182500208C25002014250020D02400207A
:101BD0001025002075DF704700BF184676DF70477C
:101BE00000BF18467ADF704700BF18467BDF70479A
:101BF00000BF184682B00190019B1B781AB2019B6E
:101C000001331B781B021BB213431BB29BB2184655
:101C100002B0704700B585B001900198FFF7EAFF68
:101C20000346ADF80E30BDF80E3003F00103002B73
:101C300014BF01230023DBB2184605B05DF804FB96
:101C400082B00190019B5A88074B1B889A4207D3A8
:101C5000019B5A88044B5B889A4201D8012300E01B
:101C60000023184602B070470C26002000B587B04C
:101C70000190274B1B884FF6FF72934243D0254BB0
:101C80001B780133DAB2234B1A70234B1A7B214B9A
:101C90001B789A4212D31E4B1B8820491846FFF727
:101CA00099FF0590059B002B2DD01B4B9B69002BAA
:101CB00029D0194B9B690598984724E0154B0022C1
:101CC0001A70154B1B7C002B11D0114B1B883B212C
:101CD0001846FFF783FF0490049B002B07D00E4BA0
:101CE0009B69002B03D00C4B9B69049898470A4BC7
:101CF0005B69002B07D000238DF80C30064B5B6925
:101D000003AA1046984700BF07B05DF804FB00BF68
:101D10001626002014260020F02500200C26002086
:101D200030B585B001901C4A019B14461D460FCD6D
:101D30000FC495E8070084E80700184B00221A70CA
:101D4000019B1B68002B0ED0019B1A68144B106876
:101D5000516803C31248FFF745FF0390039B002B14
:101D60000AD0039B15E00E48FFF740FF0390039B4A
:101D7000002B01D0039B0CE00A4B4FF6FF721A8038
:101D8000094B00221A70094A0021094806F008FC94
:101D90000346184605B030BDF0250020402600203F
:101DA0000C26002016260020142600206D1C0200A0
