:020000021000EC
:10B0000000800020A1850200E1850200E3850200A6
:10B010000000000000000000000000000000000030
:10B02000000000000000000000000000E5850200B4
:10B030000000000000000000E7850200E985020032
:10B04000EB850200EB850200E53F0200615E020035
:10B05000EB85020000000000353902001D8502006A
:10B06000EB850200EB850200EB850200EB85020018
:10B07000EB850200EB850200EB850200EB85020008
:10B08000EB8502000D6E0200EB850200EB850200ED
:10B09000596E0200EB85020069800200EB85020018
:10B0A000EB850200EB8502000000000000000000BC
:10B0B0000000000000000000000000000000000090
:10B0C00010B5064C2378002B07D1054B002B02D07E
:10B0D000044800E000BF0123237010BDA42100201C
:10B0E00000000000D0C00200084B10B5002B03D0B8
:10B0F0000749084800E000BF07480368002B00D15B
:10B1000010BD064B002BFBD09847F9E7000000006C
:10B11000A8210020D0C00200A021002000000000D3
:10B12000164B002B00D1144B9D46402292029A1AD6
:10B13000924600218B460F461348144A121A00F01B
:10B1400067F80F4B002B00D098470E4B002B00D018
:10B1500098470020002104000D000D48002802D06F
:10B160000C4800E000BF00F02DF82000290002F09C
:10B17000A1FC00F011F8C04600000800008000208B
:10B180000000000000000000A42100202033002067
:10B190000000000000000000084B10B50400002B68
:10B1A00002D0002100E000BF054B1868836A002B25
:10B1B00000D09847200001F0FDFEC04600000000CE
:10B1C00010AF02000E4B70B500251E000D4CE41AA6
:10B1D000A410A54204D0AB00F35898470135F8E716
:10B1E0000FF088FE084B00251E00084CE41AA4103E
:10B1F000A54204D0AB00F35898470135F8E770BD7D
:10B200009821002098210020982100209C210020D6
:10B2100003008218934202D019700133FAE7704795
:10B22000F0B58BB014001D1E129906DA8024240696
:10B230001B191D0014002D2300E000230B70202398
:10B24000149E03229E43462E07D03300453B5942AD
:10B250004B411099013ACB18109309AB049308ABFA
:10B260000393139B00920293109B220001932B00E7
:10B2700000F0DAFC0700472E02D1119BDB072DD529
:10B28000109BFB180793462E14D13B78302B0CD122
:10B2900000220023200029000DF000FC002804D12A
:10B2A0000123109A9B1A139A1360139B079A1B6829
:10B2B000D318079300220023200029000DF0EEFB95
:10B2C0003022002802D0079B099307E0099B0799C9
:10B2D000994203D9591C09911A70F7E73800099B64
:10B2E000159ADB1B13600BB0F0BDF7B52B230700DD
:10B2F0000C000270861C002901DA2D234C427B7061
:10B30000092C1CDD6B46DD1D20000A210DF0B0FB71
:10B31000013D3031297020000A210DF0C3FA0400EC
:10B320000928F1DC013D30342C706B4607333000C6
:10B33000AB4209D92B78013533700136F5E730235C
:10B34000E4183370B01C7470C01BFEBDF0B595B02E
:10B350000C000A920B931A9D099001F02BFA0368D6
:10B3600018000D9300F0D2FB0023129323680E9077
:10B370000C930C99277E2B680722C90501D59B18D1
:10B3800000E0073393431A0008322A601A685B68AA
:10B39000A264E3640122E56CA66C6B005B080F936A
:10B3A0005242C04B30000F990FF082FA002819D199
:10B3B0000122BC4B524230000F990DF07FFB002858
:10B3C00010D100220023300029000DF06DFB002871
:10B3D00003D023002D2243331A70B34D472F0ED8CC
:10B3E000B24D0CE032002B00300029000FF060FA63
:10B3F000002800D19AE1AE4D472F00D8AD4D032370
:10B400000C9A236101339A432260002642E0672FA1
:10B4100000D193E1472F00D190E10C9A0021134312
:10B4200012AA059211AA0392232223600691019386
:10B4300008A9636852180292009332002B00049707
:10B440000998FFF7EDFE20233A0005009A43472AAA
:10B4500000D18EE11199652F00D996E120000139C4
:10B460003A0050301191FFF740FF129A06008318FE
:10B470002361012A00DD85E12268D20700D581E140
:10B48000232308AA9B181B78002B03D023002D220E
:10B4900043331A700B9B13AA009321000A9B09984F
:10B4A00000F0A4F9431C02D1012040429BE1226834
:10B4B000530501D4236964E0652F00D8CCE0A06C6B
:10B4C000E16C002200230DF0E9FA00282CD00123C2
:10B4D000794A0A9909980B9DA847431CE4D0119B0F
:10B4E000129A934208DB2368DB0705D42368002502
:10B4F0009B0700D50FE113E10B9D0E9B0D9A0A9956
:10B500000998A8470025431CCED0129B013B9D42C1
:10B51000ECDA220001231A320A9909980B9EB047EF
:10B52000431CC1D00135F0E7119B002B2BDC01231C
:10B53000614A0A9909980B9EB047431CB4D0119BED
:10B54000002B05D1129B002B02D12368DB07CDD540
:10B550000B9E0E9B0D9A0A990998B0470026431C32
:10B56000A2D0119B5B429E420ADA220001231A32CA
:10B570000A9909980B9FB847431C95D00136F0E70C
:10B58000129B2A00ACE0A36D129E9E4200DD1E00BD
:10B59000002E05DC00230C93F343DB170F9315E01B
:10B5A00033002A000A9909980B9FB847431CF1D130
:10B5B0007AE7220001231A320A9909980B9FB847AB
:10B5C000431C00D170E70C9B01330C930F9BA26DC1
:10B5D0000C993340D31A9942EBDBAE18119B129AA7
:10B5E00093420DDB2368DB070AD4129B119AED18F6
:10B5F000AD1B9B1A9D4200DD1D00002D09DC11E0F2
:10B600000E9B0D9A0A9909980B9FB847431CECD1E1
:10B610004AE72B0032000A9909980B9EB047431C59
:10B6200000D141E7EF43FB1700260C930AE022000C
:10B6300001231A320A9909980B9FB847431C00D17D
:10B6400032E70136119A129B0C999B1A2A000A4084
:10B650009B1A9E42EBDB49E7129B012B02DC012384
:10B660001A4245D001232A000A9909980B9FB8472E
:10B67000431C00D118E70E9B0D9A0A9909980B9F5D
:10B68000B847431C00D10FE7A06CE16C00220023F7
:10B690000DF004FA002801D000251AE0129B6A1C64
:10B6A000013B26E0FFFFEF7F18AF020014AF02005E
:10B6B00020AF02001CAF020024AF020022000123D1
:10B6C0001A320A9909980B9FB847431C00D1EBE640
:10B6D0000135129B013B9D42F0DB220033005032CA
:10B6E0000A9909980B9DA847431C00D0FEE6DBE6AB
:10B6F0002A000A9909980B9DA847431CEDD1D3E66F
:10B700002200012319320A9909980B9EB047431C65
:10B7100000D1C9E60135E368139A9B1A9D42EFDB1D
:10B72000139BE06898425EDA18005CE08023626850
:10B73000DB00511C00D06AE6073202E0002A02D189
:10B740000122626069E60C9908A80B43002106916A
:10B7500012A9059111A903912321091823600193CE
:10B7600000922B000497029132000998FFF758FDD0
:10B770000500119BDA1C02DB626893421CDD023F6C
:10B78000FFB267E6013323617AE6662F15D163685D
:10B79000002909DD2161002B02D12268D2071ED5C4
:10B7A0000133591821611AE0002B03D101222168CD
:10B7B000114213D09A1C11E06727119B129A9342F1
:10B7C00006DB22682361D20709D50133236106E035
:10B7D0000121002B01DC4918C91A8A182261119B2A
:10B7E0000026A3654CE615B0F0BDC046F7B51700BE
:10B7F00001938A680B6900900C00934200DA1300F1
:10B8000022003B6043321278002A01D001333B60B2
:10B8100023689B0602D53B6802333B6006252368FC
:10B820001D401ED0230043331B785A1E93412268CB
:10B8300092061CD53020E1184331087021005A1CB3
:10B8400045310978A2184332023311700FE022000B
:10B850000123193201990098089EB047431C0ED06D
:10B860000135E3683A689B1A9D42F0DBDAE7220073
:10B87000019943320098089DA847431C02D101203A
:10B88000404220E006232068E1683A680340002532
:10B89000042B03D18D1AEB43DB171D40A3682269EB
:10B8A000934201DD9B1AED180027BD420AD0220009
:10B8B00001231A3201990098089EB047431CDED03C
:10B8C0000137F2E70020FEBDF0B58BB006920A000A
:10B8D00043320793059004920A7E0C00109B6E2A57
:10B8E00000D1ABE011D8632A22D009D8002A00D1B8
:10B8F000B5E0582A00D0C5E045310A70814A4FE0D2
:10B90000642A1DD0692A1BD0BCE0732A00D1AAE0AA
:10B9100009D86F2A29D0702A00D0B3E02022096804
:10B920000A43226037E0752A1FD0782A33D0A9E075
:10B930000E001A684236111D196013683370A4E0B6
:10B9400021681A68080606D4490604D5111D196035
:10B950000023D55E02E0111D19601568002D3BDA49
:10B960002D23049A6D42137036E021681A68080688
:10B9700006D4490604D51568111D1960ADB202E060
:10B98000111D196015685F4B227E039308276F2AEB
:10B990001DD00A271BE022007821453211705A4A37
:10B9A00019680392081D226818600D68100602D4F9
:10B9B000500600D5ADB2D30702D520231A4322602A
:10B9C0001027002D03D1202322689A4322602300F0
:10B9D000002243331A7002E00A274A4B039363683C
:10B9E000A360002B09DB0422216891432160002D14
:10B9F00005D1049E002B11D07BE0002D79D0049E50
:10BA0000280039000CF04AFF039B013E5B5C2800D4
:10BA1000337039000CF0BCFE051EF1D1082F09D19E
:10BA20002368DB0706D563682269934202DC302372
:10BA3000013E3370049B9B1B23612BE009681A684D
:10BA4000080607D4490605D5111D19601368A28A96
:10BA50001A8004E0111D1960136862691A600023DE
:10BA6000049E236116E01A68111D196016680021F2
:10BA70006268300000F0ACFE002801D0801B6060DE
:10BA8000636803E0260042363270012323610023FD
:10BA9000049A1370079B09AA00932100069B05983E
:10BAA000FFF7A4FE431C02D10120404227E0236996
:10BAB000320006990598079DA847431CF4D02368D7
:10BAC00000259B070FD4099BE068984217DA1800FD
:10BAD00015E022000123193206990598079EB04708
:10BAE000431CE1D00135E368099A9B1A9D42F0DBC3
:10BAF000E9E72600039B42361B7833708EE70BB0D4
:10BB0000F0BDC04626AF020037AF02000023C25C82
:10BB10000133002AFBD1581E7047F0B503690C6948
:10BB200089B00700059100269C4279DC0B00013C9E
:10BB30001433A50003935B19049303001433029399
:10BB40005D19049B28681B68591C01930CF020FEAA
:10BB50000190B04233D0039B02989C460696634600
:10BB600004CB9C46019B91B25943120C5A4389194C
:10BB70000B0CD3180793069A1E0C038889B29B18E6
:10BB800002685B1A110C6A46928B8A1A19145218B1
:10BB900011149BB21204134308C0049B0691634521
:10BBA000DDD22B68002B0AD1029B043DAB4201D3AE
:10BBB0003C6104E02B68002BFAD1013CF4E70599C5
:10BBC000380001F029F8002829DB0020019B0299A8
:10BBD0000133039A019340CA0B881818B3B2C31AF1
:10BBE0000868360C000C801B1D14451928149BB2E4
:10BBF0002D042B4308C1049B9342ECD2029AA3006C
:10BC0000D3181A68002A0AD1029A043B9A4201D337
:10BC10003C6104E01A68002AFAD1013CF4E7019E75
:10BC2000300009B0F0BD0000F0B516001F00446AF6
:10BC30009DB00490259D06960797002C08D11020F2
:10BC400000F0BCFD049B5862446084600460C460E2
:10BC5000049B5B6A196800290BD05A680123934042
:10BC60004A608B60049800F0FFFD0022049B5B6A31
:10BC70001A60079B002B05DA01232B607B005B0811
:10BC8000079301E000232B60079CC84B2200199307
:10BC90001A409A4219D1C64B249A1360069AC54B92
:10BCA000002A02D1240300D1C34B269A1800002A8F
:10BCB00001D100F07DFDD978DA1C002900D00532D1
:10BCC000269918000A6000F073FD069E079F002267
:10BCD0000023300039000CF0E1FE051E0ED00123D8
:10BCE000249A1360B54B269A1800002A01D100F05F
:10BCF0005FFDB34A26990A6000F05AFD1AAB019322
:10BD00001BAB009332003B00049801F00BF863007A
:10BD100005905B0D09D03A03AA4C120B1443AA4AB2
:10BD2000300021009E1817951AE01A9B1B9A9E1846
:10BD3000A64BF318202B08DDA54A0698B218D04070
:10BD40004022D31A9C40204303E020220698D31AB5
:10BD500098400EF045FE01239E4C013E09191793B1
:10BD600000229D4B0EF050FA9C4A9D4B0DF0D2FFE5
:10BD70009C4A9D4B0DF07EF8040030000D000EF043
:10BD8000EDFD9A4A9A4B0DF0C5FF02000B00200012
:10BD900029000DF06FF804000D000EF0A9FD00223F
:10BDA00003900023200029000CF07EFE00280DD017
:10BDB00003980EF0D3FD02000B00200029000CF0C8
:10BDC0006DFE43424341039AD31A03930123169312
:10BDD000039B162B11D88749DB00C91808684968EE
:10BDE000069A079B0CF074FE002805D0039B013BCC
:10BDF00003930023169300E016901A9B9E1B0023CA
:10BE00000B93013E0C9604D50C9B5B420B930023D5
:10BE10000C93039B002B08DB039A0C9B9446634412
:10BE20000C9300231192089307E00B9B039A9B1A33
:10BE30000B935342089300231193229B0125092B56
:10BE400025D8052B02DD0025043B2293229B981E5A
:10BE5000032824D80CF092FC060E0204012302E011
:10BE6000012308E000231093239B002B20DD1F00FB
:10BE70000A9321E00023239A1093039B9F187B1CB5
:10BE80000A930123FA18002A16DD130014E0012793
:10BE900000237F42229310950A97123305E0012771
:10BEA00001237F4210930A9711330022239203E06B
:10BEB00001273B000A972397049A546A0022626084
:10BEC000043211001431994204D8616852000131E2
:10BED0006160F6E76168049800F08EFC049B2060C6
:10BEE0005B6A1B680D930A9B0E2B00D981E1002D24
:10BEF00000D17EE1069B079C14931594039B002BB5
:10BF000031DD0F223B491340DB00CB185C681B6816
:10BF10000E930F94039B02241D11EB060AD514986F
:10BF20001599354B15401A6A5B6A0DF0CFFA0690E9
:10BF300007910134304E002D0ED001231D4208D050
:10BF40000E980F99E418326873680DF0E3FE0E90B6
:10BF50000F916D100836EEE70E9A0F9B0698079921
:10BF60000DF0B4FA4CE0039B02245D42002D49D051
:10BF7000149815990F231F4A2B40DB00D3181A6819
:10BF80005B680DF0C7FE0023069007911A4E2D1135
:10BF9000002D33D00122154205D0A41832687368F1
:10BFA0000DF0B8FE01236D100836F1E70000F07FB8
:10BFB0000F27000051AF020048AF020024AF02007B
:10BFC00025AF02000000F03F01FCFFFF320400003B
:10BFD00012040000000010FE0000F83F61436F6390
:10BFE000A787D23FB3C8608B288AC63FFB799F5092
:10BFF0001344D33F60AF020038B00200002B01D0E1
:10C0000006900791169B002B1DD0069D079E0022CF
:10C01000C74B280031000CF047FD002813D00A9BC5
:10C02000002B10D0002F00DCDFE0039B3100013B30
:10C030000E930022BF4B28000DF06CFE01340690D9
:10C0400007913E0002E0039B0A9E0E9320000EF033
:10C0500085FC069A079B0DF05DFE0022B64B0CF0A6
:10C0600009FFB64A12901391129C139D9446139B9C
:10C07000634418931D00002E1CD1069807990022D6
:10C08000AF4B0EF0C1F82200189B069007910CF000
:10C090001FFD002800D054E2AA4813998446614449
:10C0A0000B000698079922000CF0FEFC002800D037
:10C0B0003DE29AE0109A731EA349DB00002A49D0A2
:10C0C000CB181A685B680020A0490DF0FFF92B001F
:10C0D00022000EF099F8129013910D9D0698079981
:10C0E0000EF006FC04000EF039FC02000B0006986E
:10C0F00007990EF089F801356B1E30341C70129AC6
:10C10000139B069007910CF0CFFC002800D02EE383
:10C11000069A079B002086490EF076F8129A139B28
:10C120000CF0C2FC002800D0C7E00D9BEB1AB34214
:10C130005BDA1298139900227E4B0DF0EBFD002282
:10C1400012901391069807997A4B0DF0E3FD069033
:10C150000791C3E7C9182200086849682B000DF051
:10C16000D9FD0D9C12901391A519069807990EF010
:10C17000BFFB06000EF0F2FB02000B0006980799C9
:10C180000EF042F8303626700134069007910022F6
:10C19000A54222D16D4B129813990CF06BFE020050
:10C1A0000B00069807990CF093FC002800D084E05F
:10C1B000129A139B002065490EF026F802000B002E
:10C1C000069807990CF070FC00280ED06B1E1A78A8
:10C1D000302A00D0CBE21D00F8E706980799554BAE
:10C1E0000DF098FD06900791BFE7149B159C0693F0
:10C1F00007941B9B002B00DA81E0039A0E2A00DDD6
:10C200007DE0D300504AD3185C681B6808930994FA
:10C21000239B002B15DA0A9B002B12DC00D088E14F
:10C22000089809990022464B0DF074FD069A079B69
:10C230000CF058FC0A9B08931E00002800D07BE1FC
:10C2400082E10D9D069E079F089A099B30003900E8
:10C250000DF03CF90EF04CFB04000EF07FFB089A49
:10C26000099B0DF057FD02000B00300039000DF066
:10C27000CBFF220001356B1E30321A700D9B0A9ADB
:10C28000EB1A9A422ED102000B000CF0F3FD0600CF
:10C290000F0002000B00089809990CF005FC00281B
:10C2A0000FD10898099932003B000CF0F7FB0028E9
:10C2B00000D15EE2E30704D45BE20E9B039300E04F
:10C2C0001D006B1E1A78392A08D10D9A9A42F7D1AF
:10C2D000039A0D990132039230220A701A780132C2
:10C2E0001A7046E20022134B0DF014FD00220023C9
:10C2F00006000F000CF0D2FB0028A5D039E2109AFE
:10C30000002A44D0229A012A0BDC179A002A02D074
:10C310000F4A9B1802E036231A9A9B1A089D0B9C21
:10C3200029E00A9B5D1E089BAB4213DB5D1B18E0F6
:10C330000000F03F0000244000001C400000C0FC52
:10C34000000014400000C07C60AF02000000E03F2D
:10C3500033040000089B0895EA1A0025119B9B18DE
:10C3600011930A9B002B04DA0B9B0A9A9C1A002358
:10C3700001E00B9C0A9B0B9A0121D2180B920C9A9C
:10C380000498D3180C9300F00FFB060002E0089D00
:10C390000B9C109E002C0ED00C9B002B0BDD0C9ADE
:10C3A0002300944200DD13000B9AE41AD21A0B9278
:10C3B0000C9AD31A0C93089B002B20DD109B002BAA
:10C3C00017D0002D11D031002A00049800F07EFB18
:10C3D000059A01000600049800F0EFFA05990E9006
:10C3E000049800F041FA0E9B0593089B5A1B06D057
:10C3F00000E0089A0599049800F068FB0590012177
:10C40000049800F0D1FA119B0890002B00D1C0E1F4
:10C410001A000100049800F059FB229B0890012BA0
:10C4200017DC0025069BAB420ED1079B1B03AB42DA
:10C430000AD1199B079A134206D00B9B0135013391
:10C440000B930C9B01330C93119B0120002B0DD0FF
:10C4500000E00025089B089A1B690E9303339B009C
:10C46000D318586800F056FA2023181A0C9BC018ED
:10C470001F23184009D001331B1A042B02DD1C2393
:10C48000181A03E0042B08D018001C300B9B24184A
:10C490001B180B930C9B1B180C930B9B002B05DD9F
:10C4A0001A000599049800F065FB05900C9B002B81
:10C4B00005DD1A000899049800F05CFB0890169BB3
:10C4C000002B1DD00899059800F0A6FB002817DA6C
:10C4D000039B0A22013B039305990023049800F073
:10C4E000DCF9109B0590002B00D159E131000023AD
:10C4F0000A22049800F0D1F90600002F37DC33E05F
:10C500000A9B0A9F002B2ADC229B022B27DD002F8F
:10C5100012D108993B000522049800F0BEF908905A
:10C520000100059800F078FB00280DDC04E0089677
:10C5300002E000231E000893239B0D9DDB43039321
:10C540000AE00E9B089603930D9B0D9A5D1C312308
:10C550001370039B013303930A960026F3E0109BAC
:10C56000002B04D10D9DB5E0229B022BCFDC002CCB
:10C5700005DD31002200049800F0FCFA06000A965E
:10C58000002D12D07168049800F036F931000400D3
:10C5900033690C319A1C92000C3000F024F901220E
:10C5A0002100049800F0E6FA0A900D9B7D1E0B9383
:10C5B0005B190E9308990598FFF7AFFA31001090B8
:10C5C0000400059800F028FB0A9A050008990498D1
:10C5D00000F03DFB01230C93C36830340700002BAF
:10C5E00004D10100059800F017FB0C903900049865
:10C5F00000F03AF90C9B229A134308D1069A0133B2
:10C60000134204D1392C2AD0002D1CDC1DE0002D52
:10C6100006DB229B1D431BD10123069A134217D12F
:10C620000C9B002B11DD05990122049800F0A2FA61
:10C630000899059000F0F0FA002802DC05D1E30724
:10C6400003D5392C0BD0109C31340B9B5D1C0FE0B3
:10C650000B9B5F1C0C9B002B0CDD392C05D10B9B1D
:10C660000B9A5D1C3923137057E03D000B9B01347E
:10C670001C7068E00B9B0E9A3D001C7093423CD0EE
:10C6800000230A220599049800F007F90A9B0590F7
:10C690009E4208D1310000230A22049800F0FDF8E0
:10C6A00006000A900DE0310000230A22049800F0F1
:10C6B000F4F8002306000A220A99049800F0EDF825
:10C6C0000A900B9776E700230A220599049800F058
:10C6D000E4F8059008990598FFF71FFA0D9B303094
:10C6E000287001350400EB1ABB42ECDB3D1E00DC78
:10C6F00001250A9600260D9B5D19059901220498D3
:10C7000000F038FA0899059000F086FA002804DC59
:10C7100013D1E30701D410E01D006B1E1A78392AEB
:10C7200008D10D9A9A42F7D1039B01330393312329
:10C73000137008E001321A7005E06B1E1A78302A77
:10C7400001D11D00F9E70899049800F08DF80A9BC3
:10C75000002B0ED0002E05D09E4203D0310004984D
:10C7600000F082F80A99049800F07EF801E00E9B30
:10C7700003930498059900F077F800232B70039B2E
:10C78000249A01331360269B0D98002B10D01D6056
:10C790000EE0229B012B00DC43E6119D012065E6A3
:10C7A000002F00DDDEE6229B022B00DCDAE6AEE69F
:10C7B0001DB0F0BD00487047E420002010B5034BC9
:10C7C0000100186800F05CFB10BDC046E0200020AE
:10C7D000C9B28218904204D003788B4202D0013053
:10C7E000F8E700207047002310B59A4203D0CC5CD4
:10C7F000C4540133F9E710BD70B5466A04000D005A
:10C80000002E07D11020FFF7D9FF606246608660D6
:10C810000660C660666AF368002B09D0636AAA00E6
:10C82000DB689B18186800280ED002681A6017E0B1
:10C8300021220421200000F0C9FA636AF060DB685D
:10C84000002BEBD100200EE001210E00AE40721D46
:10C850009200200000F0BAFA0028F3D0456086600C
:10C8600000230361C36070BD70B5456A06000C000B
:10C87000002D07D11020FFF7A1FF70624560856091
:10C880000560C560002C07D0726A6368D2689B009F
:10C89000D3181A6822601C6070BDF7B50700080045
:10C8A0000C000D691E00002101921430019A0388CA
:10C8B000013153439B190668360C56431A0C9446B3
:10C8C000B4446246160C120494469BB2634408C0FA
:10C8D0008D42EBDC002E1BD0A3689D4212DB636807
:10C8E0003800591CFFF788FF2100236901909A1C2A
:10C8F00092000C310C30FFF776FF21003800FFF773
:10C90000B3FF019C2B1D9B00E31801355E60256180
:10C910002000FEBD00220300010C914201D103045E
:10C920001032190E01D108321B02190F01D1043245
:10C930001B01990F01D102329B001000002B03DB79
:10C9400020205B0000D5501C70470722036810B5FB
:10C9500001001A400CD001240020234223D10222DE
:10C96000134203D0E34020000B601CE09B0818E05A
:10C9700098B2002801D110221B0CD8B2002801D196
:10C9800008321B0A180701D104321B09980701D18C
:10C9900002329B08D80704D45B082020002B02D069
:10C9A000013210000B6010BD10B50C000121FFF723
:10C9B00023FF01234461036110BDF0B50B6914002E
:10C9C000126989B00D00934201DA25000C002F692D
:10C9D0002669AA68BB1969680193934200DD013199
:10C9E000FFF70AFF0200BB1914329B00D3189C46C4
:10C9F000002113000290634501D202C3FBE7143506
:10CA0000BF00EB191434B6000593A31903950793DF
:10CA1000079B9C4251D2208800281ED0150000267A
:10CA2000039F08CF069504936B461B8A4343190066
:10CA30002B88CB1804999B19090C41432E68360C9E
:10CA400089191E0C89190E0C9BB209040B4308C5E9
:10CA5000059BBB42E5D8069B5E6023681D0C1FD07A
:10CA6000002110001368039F04913E8801686E4303
:10CA7000090C7118049E9BB289190E04334303609C
:10CA800008CF86881B0C6B43090C9B195B18190C8B
:10CA90000491059906900430B942E6D806994B6096
:10CAA00004340432B4E704235B429C4463461B68AD
:10CAB000002B05D1019B013B0193019B002BF2DC74
:10CAC000029B019A18001A6109B0F0BD0323F7B563
:10CAD000134005000E001400002B08D02349013B31
:10CAE0009A00525800233100FFF7D7FE0600A3102A
:10CAF000019338D06C6A002C07D11020FFF75EFE3E
:10CB00006862446084600460C4606F6ABC68002C22
:10CB100010D117492800FFF747FF0023B860040031
:10CB2000036007E0019B5B1001931CD02068002884
:10CB300010D004000122019B1342F3D031002200E7
:10CB40002800FFF73AFF070031002800FFF78CFEAE
:10CB50003E00E7E7220021002800FFF72EFF002318
:10CB600020600360E5E73000FEBDC04628B002004B
:10CB700071020000F0B50C0017002369551185B053
:10CB8000EB180193013300934968A3680290009A5F
:10CB9000934202DA01315B00F9E70298FFF72CFEBD
:10CBA00000230200060019001432AB4203DA980099
:10CBB00011500133F9E7EB43DB171D402300AD00B3
:10CBC00055192269143392009A1894461F2217406F
:10CBD00014D00132D21B0392002219682800B940F8
:10CBE0000A4304C504CB0399CA409C45F5D842606A
:10CBF000002A07D0019B0233009303E004CB04C555
:10CC00009C45FBD8009B0298013B33612100FFF754
:10CC10002BFE300005B0F0BD03690A6910B59B1A00
:10CC20000400181E12D1930014341431E218C918EC
:10CC3000043A043913680868834204D083429B4154
:10CC40000120184302E09442F2D3002010BDF0B559
:10CC50000C0085B00700110020001500FFF7DCFF75
:10CC6000061E07D101003800FFF7C6FD012346610B
:10CC7000036155E000230193984204DA23002C005D
:10CC80001D000123019361683800FFF7B5FD019B8A
:10CC900026692F00C3601434B300E3180200029326
:10CCA0002B69002514379B00FB180393143208CC22
:10CCB00069469C4608CF0432009363468B808B887C
:10CCC0005D19009B9BB2EB1A65460193009B2D0CEE
:10CCD000190C019B691A1D14131F9C466B464919B8
:10CCE0009B880D1409040B4361460B60039BBB42F8
:10CCF000DDD8029913008C420BD202CC8BB25B19A7
:10CD00001D14090C49190D149BB209040B4308C2E8
:10CD1000EFE7043B1A68002A01D1013EF9E70661FA
:10CD200005B0F0BDF7B51D000121089F1400FFF705
:10CD300063FD2B036D0006001B0B6D0D02D08022DE
:10CD4000520313430193002C18D068460094FFF758
:10CD5000FCFD009C002809D0019B20211A00091A23
:10CD60008A40C34022437261019300E07461019CD8
:10CD7000B461631E9C410134346107E001A8FFF7F0
:10CD8000E4FD0124019B346173612030002D06D045
:10CD90000B4BED1835232D183D60181A0BE0094B8D
:10CDA000C018094B3860E3189B00F3185869FFF767
:10CDB000B1FD6401201A099B18603000FEBDC04619
:10CDC000CDFBFFFFCEFBFFFFFFFFFF3F4A4370B5E8
:10CDD0001100140000F054F8051E03D022000021B9
:10CDE000FEF716FA280070BD70B50500002944D082
:10CDF0000C1F2368002B00DAE418280000F0B2F8BA
:10CE00001E4A13681100002B02D16360146031E0E8
:10CE1000A3420DD92268A018834203D118685B6829
:10CE20008218226063600C6024E0A24203D81300E1
:10CE30005A68002AF9D11E689819A0420BD12168BE
:10CE4000711858181960824214D11068526841183C
:10CE500019605A600EE0A04202D90C232B6009E051
:10CE600021686018824203D110685268411821601D
:10CE700062605C60280000F076F870BDC42100207C
:10CE8000032370B5CD1C9D43083506000C2D01D23F
:10CE90000C2501E0002D01DBA94202D90C233360EF
:10CEA00048E0300000F05EF8234B1C681A002100B7
:10CEB000002913D00B685B1B0DD40B2B02D90B6020
:10CEC000CC181EE08C4202D1636813601AE04B68F4
:10CED00063600C0016E00C004968E9E7174C236812
:10CEE000002B03D1300000F02BF820602900300027
:10CEF00000F026F8431C18D00323C41C9C43A04216
:10CF00000DD12560300000F02EF8200007220B30F4
:10CF1000231D9043C31A0ED05A42E2500BE0211A4F
:10CF2000300000F00DF8431CEBD10C2330003360CF
:10CF300000F019F8002070BDC4210020C02100209D
:10CF4000002370B5064C05000800236000F00CF8C3
:10CF5000431C03D12368002B00D02B6070BDC0465A
:10CF600060320020704770470E4B10B51A68002AD7
:10CF700001D10D4A1A6069461A681018884206D80D
:10CF80000A490B4C0968A14208D0884206D900F032
:10CF900029F80C2303600120404201E018601000D2
:10CFA00010BDC046C8210020203300201C210020D5
:10CFB000ADDEFECA012110B5494200F001F810BDF6
:10CFC00030B51824062901D1044D00E0044D201C81
:10CFD000291CABBE041C200030BDC046230002004B
:10CFE00026000200014B18687047C046E020002070
:10CFF00076DF7047C04618007ADF7047C0461800D9
:10D000007CDF7047C0461800A9DF7047C046180093
:10D010003CDF7047C046180048DF7047C046180024
:10D0200000B589B0059004910392039B0793124BBE
:10D03000190000200AF010FE079B9A68079B1B88C6
:10D040009BB21800079B5B680C490093030000200B
:10D050000AF002FE0A4B190000200AF0FDFD1B2316
:10D060006B4400221A701B236B4403221A700C209D
:10D0700002F0E4FAFEE7C046C8B00200D0B00200F9
:10D08000F4B0020082B00190024B01221A70C04637
:10D0900002B070471022002082B00190024B0122A2
:10D0A0001A70C04602B070471122002000B587B048
:10D0B0001D4A00230521002009F0D4FE030005933A
:10D0C000059B0493049B002B05D0184A049B9E21CA
:10D0D000180009F02FF8164A164B0121180009F024
:10D0E00043FF03000393039B0293029B002B05D095
:10D0F0000E4A029BA221180009F01CF80E4A0F4BA1
:10D100000121180009F030FF03000393039B0193F2
:10D11000019B002B05D0054A019BA521180009F0B1
:10D1200009F8C04607B000BD14220020FCB0020080
:10D1300085D00100C0B0020099D00100C4B0020047
:10D1400000B587B06B461A780F218A43111C012263
:10D150000A431A706B461A780F210A40111C1022DC
:10D160000A431A701F4B1800FEF7D0FC03009AB256
:10D170001C496B461800FFF743FF03000593059B0E
:10D180000493049B002B05D0174A049BB921180077
:10D1900008F0D0FF01AB082200211800FEF738F894
:10D1A00001AB10221A8001AB28225A8001AB002269
:10D1B0009A8001ABC8225200DA8001AB1800FFF759
:10D1C0001BFF03000593059B0393039B002B05D0D6
:10D1D000054A039BC321180008F0ACFFC04607B006
:10D1E00000BDC04638B10200FCB0020000B585B0F9
:10D1F00003900291029B1B781A00114B190000202A
:10D200000AF02AFD029B1B78042B13D89A000D4BC1
:10D21000D3181B689F46029B1B7A1A00029B5B7AFD
:10D220001800029B9B7A08490093030000200AF033
:10D2300013FD02E0C04600E0C046C04605B000BD98
:10D240003CB10200DCB1020048B1020000B583B07D
:10D250000190019A034B190000200AF0FDFCC04622
:10D2600003B000BD5CB1020000B583B00B4B1800E9
:10D2700000F094FF0A4B180001F026FB6B46094AA8
:10D280001A606B46084A5A606A46084B110018003B
:10D2900001F0F0FCC04603B000BDC046643200207F
:10D2A00090320020EDD101004DD2010080320020EB
:10D2B00000B585B00190019B1B78002B14D10C4B5D
:10D2C0001B883B211800FFF793FE03000393039B89
:10D2D0000293029B002B07D0064A0423FF33190058
:10D2E000029B180008F026FFC04605B000BDC046EE
:10D2F00020210020FCB0020000B583B00190054A57
:10D3000087235900019B180008F014FFC04603B0A2
:10D3100000BDC046FCB0020000B58BB001AB1C22C2
:10D3200000211800FDF774FF01AB00221A6001AB69
:10D33000A02292025A6001ABF02212039A6001AB64
:10D3400003221A7301AB0022DA8101AB00221A74A6
:10D3500001AB0D4A5A6101AB0C4A9A6101AB18004E
:10D3600004F080F803000993099B0893089B002BA5
:10D3700007D0074A2623FF331900089B180008F03E
:10D38000D9FEC0460BB000BDB1D20100F9D20100F8
:10D39000FCB0020000B585B0164880235B02002275
:10D3A000190009F02BFE03000393039B0293029BD9
:10D3B000002B06D0104A98235900029B180008F051
:10D3C000B9FE0E4880235B020022190009F016FE08
:10D3D00003000393039B0193019B002B07D0064A94
:10D3E0003423FF331900019B180008F0A3FEC04648
:10D3F00005B000BDD0210020FCB00200F0210020CB
:10D4000000B585B0002002F019F903000393039BD7
:10D410000293029B002B06D0144A9F235900029BC3
:10D42000180008F087FE02F0EBFA03000393039B59
:10D430000193019B002B06D00C4AA1235900019BAC
:10D44000180008F077FEFFF7E3FD03000393039B4A
:10D450000093009B002B06D0044AA3235900009B95
:10D46000180008F067FEC04605B000BDFCB0020021
:10D4700000B585B002006B4607331A706B46073360
:10D480001B78002B14D0032B00D015E0022002F0F3
:10D49000D5F803000393039B0293029B002B0AD051
:10D4A000074AAC235900029B180008F043FE02E033
:10D4B000FFF7A6FF00E0C046C04605B000BDC0466D
:10D4C000FCB0020000B587B00190019B180001F08C
:10D4D00075FB019B1B88112B30D0522B33D0102BA6
:10D4E00000D04AE0072002F0A9F803000593059B4D
:10D4F0000493049B002B07D0214A7223FF331900A9
:10D50000049B180008F016FE019B9A881D4B1A8098
:10D510001C4B1888002300220021FFF775FD030033
:10D520000593059B0393039B002B23D0144ABA2336
:10D530005900039B180008F0FDFD1BE0114B012270
:10D5400052421A8019E00F4B188800230022002154
:10D55000FFF75AFD03000593059B0293029B002BE6
:10D560000AD0074A7E23FF331900029B180008F0F7
:10D57000E1FD01E0C04600E0C046C04607B000BD86
:10D58000FCB002002021002000B583B00190019B77
:10D59000180005F0D1F8019B180004F099F8019BE0
:10D5A000180002F041FA019B1800FFF78BFF019B66
:10D5B000180003F085FD019A064B1100180000F0D9
:10D5C000CFFB019A044B1100180001F0B3F8C046DC
:10D5D00003B000BD643200209032002000B583B05B
:10D5E0000190019B180007F0B5FA019B180003F0A9
:10D5F00011FEC04603B000BD00B591B006AA3F4B76
:10D600001000190004231A00FFF7EDF83C4906A8A2
:10D61000002348220AF0C0FC03000F930F9B0E93D7
:10D620000E9B002B07D0374AB423FF3319000E9B03
:10D63000180008F07FFD01AB1A00012100200AF05C
:10D6400035FD03000D930D9B0C930C9B002B07D015
:10D650002C4ABA23FF3319000C9B180008F06AFD0E
:10D66000294B0B930B9B18000AF074FD03000D93DC
:10D670000D9B0A930A9B002B06D0224ADE235900F9
:10D680000A9B180008F056FD01AB18000AF08CFD4B
:10D6900003000D930D9B0993099B002B06D0194A9B
:10D6A000E0235900099B180008F044FD174B1800AF
:10D6B0000AF0BAFC03000D930D9B0893089B002B06
:10D6C00006D0104AE2235900089B180008F032FDEA
:10D6D0000F4B18000AF0B8FC03000D930D9B079345
:10D6E000079B002B06D0074AE4235900079B18002C
:10D6F00008F020FDC04611B000BDC04668B1020070
:10D70000DC230020FCB00200E81F002089D50100C6
:10D71000DDD5010000B587B002006B4607331A70F3
:10D720006B4607331B78072B20D00A2B02D0042B23
:10D7300003D033E0FFF764FE30E01A4B1B8813215F
:10D740001800FFF755FC03000593059B082B22D01A
:10D75000059B0493049B002B1DD0134ADE23FF334B
:10D760001900049B180008F0E5FC14E003F082FDAA
:10D7700003000593059B082B0FD0059B0393039B88
:10D78000002B0AD0084AE623FF331900039B180038
:10D7900008F0D0FC01E0C04600E0C046C04607B03B
:10D7A00000BDC04620210020FCB0020000B587B0BB
:10D7B000039002910192019B0593059B002B07D0DA
:10D7C000054AF823FF331900059B180008F0B2FC46
:10D7D0000023180007B000BDFCB0020000B58BB0FC
:10D7E00002006B4607331A7005AB6A46073212789F
:10D7F0001A7007F023FB03000993099B0893089B09
:10D80000002B05D0314A3249089B180008F092FCE1
:10D8100005AB180004F032FE03000993099B07933F
:10D82000079B002B06D0294A85239900079B1800E7
:10D8300008F080FC02AB0533052200211800FDF73B
:10D84000E7FC02AB5A7901210A435A7102AB5A79BB
:10D8500002218A435A7102AB5A7904218A435A71D0
:10D8600002AB5A7908218A435A7102AB5A79702166
:10D870008A43111C30220A435A7102AB5A797F2124
:10D880000A405A7102AB07229A7102AB1022DA7178
:10D8900002AB104A1A6002AB01221A7102AA0E4BA7
:10D8A0001100180004F090FE03000993099B0693F1
:10D8B000069B002B06D0054A89239900069B180079
:10D8C00008F038FCC0460BB000BDC046FCB00200FA
:10D8D00011020000ADD70100CC21002000B59DB0A1
:10D8E0000CAB382200211800FDF792FC0CAB022291
:10D8F0001A700CAB01229A700CAB0622DA700CABDA
:10D9000001221A820CAB164A5A6103AB1800242379
:10D910001A000021FDF77CFC03AB01221A7303AB54
:10D92000962252001A6103AB00225A610D4903AAE4
:10D930000CA8002300930B00002103F001F9030061
:10D940001B931B9B1A931A9B002B05D0064A074971
:10D950001A9B180008F0EEFBC0461DB000BDC04683
:10D960002421002071D40100FCB002003E0200001E
:10D9700000B587B00190194B19491A00032001F036
:10D9800079FE03000593059B0493049B002B05D0AF
:10D99000144A1549049B180008F0CCFB0B236B4478
:10D9A0001900002002F086F803000593059B0393FD
:10D9B000039B002B06D00B4A94239900039B18006D
:10D9C00008F0B8FB0B236B441B78023B5A425341CF
:10D9D000DAB2019B1A70C04607B000BD15D701002E
:10D9E000CD0C0000FCB002004D02000000B583B079
:10D9F000FFF712FB03000193019B0093009B002B98
:10DA000005D0044A0449009B180008F093FBC04667
:10DA100003B000BDFCB002005B02000082B00190C8
:10DA20001C4B1B6811331A001A4B1A60194B1B68E8
:10DA3000194A934203D9174BFA22D2001A60174BA6
:10DA40001B6825331A00154B1A60144B1B68144AC7
:10DA5000934202D9114B134A1A60134B1B680D33C2
:10DA60001A00114B1A60104B1B68104A934202D9DE
:10DA70000D4B0F4A1A60074B1A68019B9A600A4BBC
:10DA80001A68019B5A60054B1A68019B1A60C046D0
:10DA900002B0704728210020EF0A00002C2100204E
:10DAA0001FA10700801A060030210020878A01008C
:10DAB000A0860100F0B595B0FFF7F8FA47236B4454
:10DAC0001800FFF755FFFFF797FD47236B441B78BE
:10DAD0001800FFF783FEFFF733FBFFF7FFFEFFF7AA
:10DAE000C3FBFFF719FC434A434B190000200AF01F
:10DAF000B3F8FFF74FFC032003F04AF90300139338
:10DB0000139B1293129B002B05D03C4A3C49129B5D
:10DB1000180008F00FFB3B4B1B78DBB2002B5BD0EF
:10DB20000EAB1800FFF77AFF0EAB08331A00364B26
:10DB30001100180000F084FB0EAA334B11001800EE
:10DB400000F0C2FB0EAB1A1D2F4B1100180000F0A5
:10DB5000FFFB0EAB9B6818000BF04EF9031C2B4922
:10DB6000181C0AF0E7FF031C181C0CF071FF0600DC
:10DB70000F000EAB1B6818000BF03EF9031C892147
:10DB8000C905181C0AF0D6FF031C181C0CF060FF16
:10DB900004000D000EAB5B6818000BF02DF9031CA0
:10DBA0001A49181C0AF0C6FF031C181C0CF050FF81
:10DBB00002000B00164904A80292039300940195F9
:10DBC00032003B000CF0C6FF04AB190000200AF045
:10DBD00043F80C4B00221A70FFF708FF0D4B1B781F
:10DBE000DBB2002B97D000F0FFFC0A4B00221A702A
:10DBF00091E7C0467CB1020088B10200FCB002008F
:10DC0000BA02000010220020643200200000C84246
:10DC1000B4B1020011220020A0DF7047C0461800F6
:10DC2000A2DF7047C0461800A5DF7047C046180045
:10DC3000A6DF7047C046180063DF7047C046180073
:10DC400000B58BB00190009104AB02221A8004ABA6
:10DC500000225A8004AB0E226A445A60009BDA8884
:10DC6000019B1B899A4221D1019B1888019B1B892A
:10DC700004AA1900FFF7D8FF03000993099B089332
:10DC8000089B002B05D0324A089B2921180008F078
:10DC900051FA0E236B441B88012B03D12D4B01221B
:10DCA0001A7052E02B4B00221A704EE0009BDA886B
:10DCB000019B1B8A9A4221D1019B1888019B1B8AD8
:10DCC00004AA1900FFF7B0FF03000993099B07930B
:10DCD000079B002B05D01E4A079B3621180008F031
:10DCE00029FA0E236B441B88012B03D11A4B012206
:10DCF0001A702AE0184B00221A7026E0009BDA887E
:10DD0000019B1B8B9A4220D1019B1888019B1B8B86
:10DD100004AA1900FFF788FF03000993099B0693E3
:10DD2000069B002B05D00A4A069B4321180008F0E9
:10DD300001FA0E236B441B88012B03D1074B0122F0
:10DD40001A7002E0054B00221A70C0460BB000BDED
:10DD5000F0B10200242400202624002025240020E5
:10DD600000B583B001900091009B1B88112B09D056
:10DD7000502B0CD0102B00D010E0009B9A88019BF8
:10DD80001A800BE0019B012252421A8006E0009AA1
:10DD9000019B11001800FFF753FFC046C04603B0B7
:10DDA00000BDC04600B595B001900023139311ABA0
:10DDB00001229A7011AB4E4A1A800AAB1C22002134
:10DDC0001800FDF725FA0AAB1A7802210A431A70E7
:10DDD00009AB032200211800FDF71AFA09AB1A78E3
:10DDE0000F218A43111C01220A431A7009AB1A78C9
:10DDF0000F210A40111C10220A431A7009AB5A78ED
:10DE00000F218A43111C01220A435A7009AB5A7828
:10DE10000F210A40111C10220A435A7009AB9A784C
:10DE200006218A43111C02220A439A700AAB09AAEE
:10DE30005A610AAB1A7810210A431A7008AB032200
:10DE400000211800FDF7E4F908AB9A7806218A430F
:10DE5000111C02220A439A7008AB1A780F218A43D8
:10DE6000111C01220A431A7008AB1A780F210A40CC
:10DE7000111C10220A431A7008AB5A780F218A43EA
:10DE80005A7008AB5A780F210A405A7003AB14221B
:10DE900000211800FDF7BCF903AB11AA1A6003AB0F
:10DEA00008AA5A6003AB04229A8103AB04221A81A8
:10DEB00002AB00221A6003AB02AA1A61019B5888C8
:10DEC000019B143303AA0AA9FFF7AAFE03001393C8
:10DED000139B1293129B002B05D0064A129B8F2195
:10DEE000180008F027F90023180015B000BDC0463F
:10DEF0005EE5FFFFF0B1020000B595B00190002390
:10DF0000139311AB01229A7011ABD222FF321A8007
:10DF10000AAB1C2200211800FDF77AF90AAB1A7827
:10DF200002210A431A7009AB032200211800FDF7F1
:10DF30006FF909AB1A780F218A43111C01220A4399
:10DF40001A7009AB1A780F210A40111C10220A43DB
:10DF50001A7009AB5A780F218A43111C01220A4317
:10DF60005A7009AB5A780F210A40111C10220A433B
:10DF70005A7009AB9A7806218A43111C02220A437F
:10DF80009A700AAB09AA5A610AAB1A7810210A439F
:10DF90001A7008AB032200211800FDF739F908AB0D
:10DFA0009A7806218A43111C02220A439A7008AB10
:10DFB0001A780F218A43111C01220A431A7008ABF8
:10DFC0001A780F210A40111C10220A431A7008AB5C
:10DFD0005A780F218A435A7008AB5A780F210A40A9
:10DFE0005A7003AB142200211800FDF711F903AB9E
:10DFF00011AA1A6003AB08AA5A6003AB04229A81E3
:10E0000003AB04221A8102AB00221A6003AB02AAFE
:10E010001A61019B5888019B0C3303AA0AA9FFF7D8
:10E02000FFFD03001393139B1293129B002B05D04B
:10E03000044A129BC321180008F07CF80023180042
:10E0400015B000BDF0B1020000B595B001900023FD
:10E05000139311AB01229A7011AB4E4A1A800AAB8E
:10E060001C2200211800FDF7D3F80AAB1A78022110
:10E070000A431A7009AB032200211800FDF7C8F803
:10E0800009AB1A780F218A43111C01220A431A7026
:10E0900009AB1A780F210A40111C10220A431A708A
:10E0A00009AB5A780F218A43111C01220A435A7086
:10E0B00009AB5A780F210A40111C10220A435A70EA
:10E0C00009AB9A7806218A43111C02220A439A70EE
:10E0D0000AAB09AA5A610AAB1A7810210A431A70CE
:10E0E00008AB032200211800FDF792F808AB9A78DC
:10E0F00006218A43111C02220A439A7008AB1A783F
:10E100000F218A43111C01220A431A7008AB1A78A6
:10E110000F210A40111C10220A431A7008AB5A78CA
:10E120000F218A435A7008AB5A780F210A405A705F
:10E1300003AB142200211800FDF76AF803AB11AA03
:10E140001A6003AB08AA5A6003AB04229A8103AB9E
:10E1500004221A8102AB00221A6003AB02AA1A61E0
:10E16000019B5888019B043303AA0AA9FFF758FDB5
:10E1700003001393139B1293129B002B05D0064AA6
:10E18000129BF721180007F0D5FF0023180015B0E7
:10E1900000BDC046AEEEFFFFF0B1020000B58BB08F
:10E1A000019002AA234B1000190010231A00FEF759
:10E1B0001AFB06AB204A1A8006AB9A1C02AB110070
:10E1C0001800FFF739FD03000993099B0893089B8A
:10E1D000002B06D0194A85235900089B180007F028
:10E1E000A9FF019B012252421A80019B9A1C06AB97
:10E1F00019000120FFF710FD03000993099B079305
:10E20000079B002B06D00D4A89235900079B180055
:10E2100007F090FF019B1800FFF716FF019B180005
:10E22000FFF76AFE019B1800FFF7BCFDC0460BB06C
:10E2300000BDC04638B202000DF0FFFFF0B1020091
:10E2400000B589B001900091019B1B881B4A934245
:10E2500031D01B4B1B78DBB2002B2CD01A236B4424
:10E2600004221A8002AB102200211800FCF7D0FF14
:10E27000019B9A8802AB1A8002AB01229A7002AB12
:10E2800000229A8002AB1A226A449A6002AB009A7A
:10E29000DA60019B1B8802AA11001800FFF7C8FC76
:10E2A00003000793079B002B05D0079A054B190025
:10E2B000002009F0D1FCC04609B000BDFFFF0000FE
:10E2C0002424002048B2020000B589B001900091DA
:10E2D000019B1B881B4A934231D01B4B1B78DBB23E
:10E2E000002B2CD01A236B4404221A8002AB10227C
:10E2F00000211800FCF78CFF019B9A8902AB1A8061
:10E3000002AB01229A7002AB00229A8002AB1A2261
:10E310006A449A6002AB009ADA60019B1B8802AAE9
:10E3200011001800FFF784FC03000793079B002BE4
:10E3300005D0079A054B1900002009F08DFCC04656
:10E3400009B000BDFFFF00002624002060B20200DB
:10E3500000B589B001900091019B1B881B4A934234
:10E3600031D01B4B1B78DBB2002B2CD01A236B4413
:10E3700004221A8002AB102200211800FCF748FF8B
:10E38000019B9A8A02AB1A8002AB01229A7002ABFF
:10E3900000229A8002AB1A226A449A6002AB009A69
:10E3A000DA60019B1B8802AA11001800FFF740FCED
:10E3B00003000793079B002B05D0079A054B190014
:10E3C000002009F049FCC04609B000BDFFFF000075
:10E3D0002524002078B20200A0DF7047C046180054
:10E3E000A2DF7047C0461800A5DF7047C04618007E
:10E3F000A6DF7047C046180000B585B002006B4626
:10E4000006331A806B4606331B88404A934204D970
:10E410000F236B4464221A7071E06B4606331B882D
:10E420003B4A934212D96B4606331B88394AD31AAA
:10E430003A225343642118000AF034FA0300DAB296
:10E440000F236B4464218A1A1A7058E06B46063316
:10E450001B88314A934214D96B4606331B882C4AD9
:10E46000D21A13005B009B18DB00A02118000AF0F1
:10E4700019FA0300DAB20F236B442A218A1A1A70A0
:10E480003DE06B4606331B88244A934216D96B46FF
:10E4900006331B88204AD21A13005B009B189B008E
:10E4A0001A009623590010000AF0FCF90300DAB2B2
:10E4B0000F236B4412218A1A1A7020E06B46063330
:10E4C0001B88174A934216D96B4606331B88134A9A
:10E4D000D21A13005B009B185B001A00AA23590094
:10E4E00010000AF0DFF90300DAB20F236B440621B3
:10E4F0008A1A1A7003E00F236B4400221A700F234C
:10E500006B441B78180005B000BDC046B70B000077
:10E51000540B0000B80B0000B40A0000880900008A
:10E520003408000010B586B002000E236B441A8038
:10E530000E236B4400229B5E18000AF015FC031C9E
:10E540002349181C0AF0F6FA031C181C0CF080FA78
:10E55000204A214B0BF0DEFB03000C0018002100C9
:10E5600000221E4B0BF0D6FB03000C00180021000C
:10E5700000221B4B0BF0CEFB03000C001A00230003
:10E5800016246C44100019000AF0B6FA0300238028
:10E5900015246C4416236B441B881800FFF72CFFCE
:10E5A000030023700E236B4400229A5E16236B44F3
:10E5B000188815236B441B780A4900930300002038
:10E5C00009F04AFB15236B441B78180006B010BDF8
:10E5D00000C07F44333333333333F33F000008400C
:10E5E00000408F4090B2020000B583B06B4602330A
:10E5F0000121180009F042FF03000193019B112B38
:10E6000001D1112301E009F0E3FE180003B000BDC1
:10E6100000B583B00190019B1B78002B02D0012B29
:10E6200015D015E0019B5B6800229B5E1800FFF788
:10E6300079FF03001A00084B1A70084B1A68064B42
:10E640001B78DBB21900100000F072F900E0C04640
:10E65000C04603B000BDC0469E32002028240020E2
:10E6600000B585B001AB03221A70114B1A781C213A
:10E670008A43111C18220A431A700E4A01AB11007A
:10E68000180009F059FE03000393039B0293029BB9
:10E69000002B05D0084A029B4921180007F04AFDCB
:10E6A000034B180009F074FEC04605B000BDC0461B
:10E6B0003421002011E60100B0B2020000B589B09B
:10E6C0000190009104AB02221A8004AB00225A8010
:10E6D00004AB0E226A445A60009BDA88019B1B89B6
:10E6E0009A4220D1019B1888019B1B8904AA19001A
:10E6F000FFF77AFE03000793079B0693069B002B08
:10E7000005D00A4A069B5D21180007F013FD0E2371
:10E710006B441B88012B03D1054B01221A7002E0C8
:10E72000034B00221A70C04609B000BDB0B202000F
:10E730009F32002000B583B001900091009B1B88A0
:10E74000112B09D0502B0CD0102B00D010E0009BC7
:10E750009A88019B1A800BE0019B012252421A8089
:10E7600006E0009A019B11001800FFF7A7FFC046C2
:10E77000C04603B000BDC04600B595B0019000236F
:10E78000139311AB01229A7011AB4D4A1A800AAB58
:10E790001C2200211800FCF73BFD0AAB1A7802216D
:10E7A0000A431A7009AB032200211800FCF730FD60
:10E7B00009AB1A780F218A43111C01220A431A70EF
:10E7C00009AB1A780F210A40111C10220A431A7053
:10E7D00009AB5A780F218A43111C01220A435A704F
:10E7E00009AB5A780F210A40111C10220A435A70B3
:10E7F00009AB9A7806218A43111C02220A439A70B7
:10E800000AAB09AA5A610AAB1A7810210A431A7096
:10E8100008AB032200211800FCF7FAFC08AB9A7839
:10E8200006218A43111C02220A439A7008AB1A7807
:10E830000F218A43111C01220A431A7008AB1A786F
:10E840000F210A40111C10220A431A7008AB5A7893
:10E850000F218A435A7008AB5A780F210A405A7028
:10E8600003AB142200211800FCF7D2FC03AB11AA61
:10E870001A6003AB08AA5A6003AB01229A8103AB6A
:10E8800001221A81019B0C331A0003AB1A61019B10
:10E890005888019B043303AA0AA9FFF7A1FD0300CE
:10E8A0001393139B1293129B002B05D0054A129BC6
:10E8B000A921180007F03EFC0023180015B000BD88
:10E8C000192A0000B0B2020000B587B00190154BC4
:10E8D000019A1A60FFF7C4FE03AB01229A7003ABE2
:10E8E000114A1A80019B012252421A80019B9A1CF4
:10E8F00003AB19000120FFF76FFD03000593059B93
:10E900000493049B002B05D0084A049BC7211800E0
:10E9100007F010FC019B1800FFF72EFFC04607B060
:10E9200000BDC046282400200F180000B0B202002D
:10E9300000B589B001900A006B4603331A70019B41
:10E940001B881F4A934232D01E4B1B78DBB2002B30
:10E950002DD01A236B4401221A8002AB1022002111
:10E960001800FCF755FC019B9A8802AB1A8002AB99
:10E9700001229A7002AB00229A8002AB1A226A44EA
:10E980009A6002AB6A460332DA60019B1B8802AAD6
:10E9900011001800FFF72CFD03000793079B002BC5
:10E9A00005D0079A084B1900002009F055F96B466D
:10E9B00003331A78054B1A70C04609B000BDC04633
:10E9C000FFFF00009F320020F8B202002C2400203C
:10E9D00010B582B00190019B1B88103B1A00414B7F
:10E9E0009200D258404B1900002009F035F9019BE4
:10E9F0009B881A003D4B1900002009F02DF9019B5E
:10EA00001B88112B5ED0122B2FD0102B00D066E06C
:10EA1000019B1B8B18000BF0A1FF0022344B0BF065
:10EA200079F903000C00180021000AF065F80300D2
:10EA30009BB21A002F4B1900002009F00DF9019B21
:10EA4000DB8B1A0013009B009B185B001A002A4BFB
:10EA50001900002009F000F9019B9B8B1A00274B3D
:10EA60001900002009F0F8F839E0019B1B89180013
:10EA70000BF074FF00221E4B0BF04CF903000C004E
:10EA8000180021000AF038F803009BB21A00194B55
:10EA90001900002009F0E0F8019BDB891A0013003F
:10EAA0009B009B185B001A00134B1900002009F013
:10EAB000D3F8019B9B891A00104B1900002009F024
:10EAC000CBF80CE0019B1B7A123B1A000C4B920016
:10EAD000D2580C4B1900002009F0BEF8C046C046C1
:10EAE00002B010BD3C21002040BA020050BA020022
:10EAF0000000F43F68BA020080BA020098BA02002F
:10EB000080210020ACBA020010B58AB00390262301
:10EB10006B44039A92881A8004AA039B043313CB94
:10EB200013C2196811609B88938009AB039A1288FD
:10EB30001A8009AB1B88512B04D0522B29D0502BA3
:10EB400018D02FE004AB9B78012B09D104AB9B8834
:10EB50001A0004ABDB881549002009F07DF821E09C
:10EB600004AB9B881A0004ABDB881149002009F034
:10EB700073F817E0039BDB881A00039B1B891800BE
:10EB8000039B12330B4900930300002009F064F843
:10EB900008E0039B9B791A00074B1900002009F03D
:10EBA0005BF8C046C0460AB010BDC046B4BA020009
:10EBB000D8BA0200FCBA02002CBB020000B585B036
:10EBC0000190019B1B880393039A244B190000209A
:10EBD00009F042F8039B0F2B07D9039B2F2B04D876
:10EBE000019B1800FFF7F4FE35E0039B4F2B07D97C
:10EBF000039B6F2B04D8019B1800FFF785FF2AE0C9
:10EC0000039B2F2B0FD9039B4F2B0CD8019B1B88E9
:10EC1000303B1A00124B9200D258124B19000020C0
:10EC200009F01AF817E0039B002B0ED0039B0F2B63
:10EC30000BD8019B1B885A1E0B4B9200D2580B4BD2
:10EC40001900002009F008F805E0039A084B1900A4
:10EC5000002009F001F8C04605B000BD3CBB020031
:10EC6000782100204CBB02007C21002058BB020010
:10EC700064BB020000B583B001900091019B002BA2
:10EC800001D10E232DE0009B002B01D10E2328E0A3
:10EC9000009B5B68002B01D10E2322E0009B1B68C8
:10ECA000002B01D10E231CE00F4B01229A700E4B5A
:10ECB0000E4A1A80009B1A68019B1A60009B5A68D2
:10ECC000019B5A60019B012252429A81019B0022C2
:10ECD0001A81019B00225A81034B180001F0D4FED7
:10ECE0000300180003B000BD302400200518000008
:10ECF00084B001900091019B032B16D8A023DA0564
:10ED0000A223DB00D358DB4303930B4B019A920001
:10ED1000D35801229A4013001A00039B13405A1E35
:10ED20009341DAB2009B1A7002E0009B00221A7035
:10ED30000023180004B0704788BB020000B587B0FC
:10ED400002006B4607331A706B4606330A1C1A70B2
:10ED500017236B4400221A700023049302E0049BE3
:10ED600001330493049B032B08D8454B049A92006B
:10ED7000D2586B4607331B789A42F0D1049B032B81
:10ED80006BD86B4606331B78012B04D0022B57D06F
:10ED9000002B37D061E0172169443A48049A1300E8
:10EDA0005B009B181B5C0B703649049A13005B00D8
:10EDB0009B18CB1801331B78002B15D03248334BEE
:10EDC0001A6813009B009B185B001900304B1A0057
:10EDD00008F014F903000393039B002B04D12C4B80
:10EDE0006A46073212781A702649049A13005B00AB
:10EDF0009B18CB1802331978264A049BD3180A1C97
:10EE00001A702AE0204B180008F030F9214A049BC0
:10EE1000D31819781B48049A13005B009B18C31879
:10EE200002331B78994217D1172169441548049A77
:10EE300013005B009B18C31802331B780B700BE0A8
:10EE4000172169440F48049A13005B009B18C318EC
:10EE500001331B780B7000E0C04617236B441B780E
:10EE6000002B0AD00C4B1B68002B06D00A4B1B68EA
:10EE700017226A44127810009847C04607B000BDB8
:10EE800088BB02008824002094240020382400201D
:10EE9000B4240020B82400208424002000B583B0CE
:10EEA0000190019B1B7802211800FFF747FFC04625
:10EEB00003B000BD10B588B002006B4607331A706E
:10EEC00000230793002306936B4607331B78172B09
:10EED00000D96CE39A00DB4BD3181B689F46A02334
:10EEE000DA05D94B1B68D943F0235B041940A123F1
:10EEF000DB00D150A023DB05D44A00219950D44B2C
:10EF00006A46073212781A7052E3A023DA05CE4B14
:10EF10001B68D943E0235B041940A123DB00D150D7
:10EF2000A023DB05C94A00219950A023DB05C94A6B
:10EF30009B58F02252045A4080239B03134017D061
:10EF4000A023DA05A123DB0080218903D150A0236F
:10EF5000DB05BE4A002199506B4607331B78022B14
:10EF600002D1E123DB0001E0FA231B01069315E047
:10EF7000A023DB05B549802292035A50A023DA056D
:10EF8000A123DB000021D1506B4607331B78022BF5
:10EF900001D1C82301E0C8235B000693AC4B6A464D
:10EFA000073212781A70AC4C069B6421180009F0E5
:10EFB000EFFB03001A00A94B1B6853430022190002
:10EFC000200008F01BF803000793F1E2A023DA0504
:10EFD0009D4B1B68D943E0235B041940A123DB0050
:10EFE000D150A023DB05994A00219950A023DB05CD
:10EFF000984A9B58F02252045A4080239B031340A6
:10F0000017D0A023DA05A123DB0080218903D1508A
:10F01000A023DB058D4A002199506B4607331B78EE
:10F02000032B02D1C8239B0001E0FA231B010693A6
:10F0300015E0A023DB058549802292035A50A023C6
:10F04000DA05A123DB000021D1506B4607331B7882
:10F05000032B01D1C82301E0C8235B0006937C4B3E
:10F060006A46073212781A707B4C069B642118009E
:10F0700009F08EFB03001A00784B1B6853430022F3
:10F080001900200007F0BAFF0300079390E2A023C5
:10F09000DA056D4B1B68D943E0235B041940A123BB
:10F0A000DB00D150A023DB05684A00219950A02342
:10F0B000DB05684A9B58F02252045A4080239B0388
:10F0C00013400FD0A023DA05A123DB0080218903A0
:10F0D000D150A023DB055D4A00219950FA231B0182
:10F0E00006930EE0A023DB055849802292035A5074
:10F0F000A023DA05A123DB000021D150C8235B0047
:10F100000693534B6A46073212781A70524C069B8C
:10F110006421180009F03CFB03001A004F4B1B68E8
:10F12000534300221900200007F068FF03000793F3
:10F130003EE2A023DA05444B1B68D943E0235B047D
:10F140001940A123DB00D150A023DB053F4A002159
:10F150009950A023DB053F4A9B58F02252045A40A5
:10F1600080239B03134016D0A023DA05A123DB00E4
:10F1700080218903D150A023DB05344A0021995016
:10F180006B4607331B78052B01D1C82301E0FA2316
:10F190001B01069315E0A023DB052C498022920376
:10F1A0005A50A023DA05A123DB000021D1506B4681
:10F1B00007331B78052B01D1C82301E0C8235B006E
:10F1C0000693234B6A46073212781A70224C069B2C
:10F1D0006421180009F0DCFA03001A001F4B1B68B9
:10F1E000534300221900200007F008FF0300079393
:10F1F000DEE1A023DA05144B1B68D943E0235B044E
:10F200001940A123DB00D150A023DB050F4A0021C8
:10F210009950A023DB050F4A9B58F02252045A4014
:10F2200080239B0313401BD0A023DA05A123DB001E
:10F2300080218903D150A023DB05044A0021995085
:10F240001AE0C046B8BB0200402400200C050000B4
:10F250003424002004050000442400203824002029
:10F26000A023DB05D449802292035A50A023DA055B
:10F27000A123DB000021D150D04B6A46073212781F
:10F280001A70CF48CF4B1B680022190007F0B6FE5A
:10F29000030007938CE1A023DA05CB4B1B68D9430D
:10F2A000E0235B041940A123DB00D150A023DB0540
:10F2B000C14A00219950A023DB05BF498022920357
:10F2C0005A50A023DA05A123DB000021D150BB4B0B
:10F2D0006A46073212781A706AE1A023DB05BB4A3E
:10F2E0009B580593A023DA05059BD9438023DB03B4
:10F2F0001940A123DB00D150A023DB050599802212
:10F30000D2030A40AC495A50AD48AE4B1B680022AC
:10F31000190007F073FE0300079349E1A023DB0502
:10F32000AA4A9B580493A023DA05049BD94380235F
:10F33000DB031940A123DB00D150A023DB05049996
:10F340008022D2030A409C495A509D489D4B1A681E
:10F3500013009B009B180022190007F04FFE0300CA
:10F36000079325E1A023DB05984A9B580393A0232C
:10F37000DA05039BD9438023DB031940A123DB007B
:10F38000D150A023DB0503998022D2030A408A4989
:10F390005A508B488B4B1B680022190007F02EFE39
:10F3A0000300079304E1A023DB05884A9B580293DE
:10F3B000A023DA05029BD9438023DB031940A12354
:10F3C000DB00D150A023DB0502998022D2030A4042
:10F3D00079495A507A487B4B1A6813009B009B1856
:10F3E0000022190007F00AFE03000793E0E0A023C3
:10F3F000DB057149F02252045A50A023DA05A123FB
:10F40000DB000021D1506D4B6A46073212781A702A
:10F41000CEE06F4B180007F029FE030007936B4600
:10F4200007331B781122D31A0693069B002B2DD08D
:10F43000079B002B2AD1644B802212041A60069B82
:10F44000012B13D9624C069BC82253436421180038
:10F4500009F09EF903001A005A4B1B68534300221F
:10F460001900200007F0CAFD03000793A023DA0566
:10F47000554B1968F0235B040B404F495350A023B0
:10F48000DA05A123DB000021D15091E0A023DA05A9
:10F490004D4B1968F0235B041940A123DB00D150C8
:10F4A000A023DB05444A00219950474B00221A60F3
:10F4B0007EE0A023DA05A123DB00F0214904D1502E
:10F4C000A023DB053C4A002199503C4B6A46073299
:10F4D00012781A706CE0A023DA05A123DB00E0218A
:10F4E0004904D150A023DB05334A00219950A023C1
:10F4F000DB053149802292035A50A023DA05A1236B
:10F50000DB000021D1502D4B6A46073212781A7069
:10F510004EE0A023DA05A123DB00D0214904D1501D
:10F52000A023DB05244A00219950A023DB052249B2
:10F530008022D2035A50A023DA05A123DB00002148
:10F54000D1501E4B6A46073212781A7030E0A02361
:10F55000DA05A123DB00C0214904D150A023DB053B
:10F56000154A00219950A023DB051349C022D2037C
:10F570005A50A023DA05A123DB000021D1500F4B04
:10F580006A46073212781A7012E0A023DB050A4996
:10F59000F02252045A50A023DA05A123DB000021F7
:10F5A000D150064B6A46073212781A7000E0C04606
:10F5B000079B180008B010BD0C0500003424002083
:10F5C00044240020382400204024002004050000AA
:10F5D0006424002000B583B00190064B1B68012213
:10F5E000134004D0044B1B781800FFF763FCC0469F
:10F5F00003B000BD3C2400203424002084B00190DE
:10F60000A023DB050B4A9B580393A023DA05039B39
:10F61000D94380231B041940A123DB00D150A02330
:10F62000DB050399802212040A4003495A50C04660
:10F6300004B07047040500000C05000000B585B05B
:10F6400002006B4607331A7000230393084B1B68B4
:10F650000122134007D06B4607331B781800FFF7D1
:10F6600029FC03000393039B180005B000BDC046AE
:10F670003C24002000B587B0039002910192002342
:10F680000593384B029A1A60374B039A1A60374B2E
:10F69000019A1A60039B0222134031D00023049385
:10F6A0000AE0049B01220121180000F071F8030018
:10F6B0000593049B01330493049B032B02D8059B01
:10F6C000002BEED0059B002B08D1029B5A08284B3B
:10F6D0000421180006F094FC03000593059B002B01
:10F6E00003D106F007FD03000593059B002B07D10E
:10F6F000204A214B0021180007F036FC0300059337
:10F70000039B0122134012D0A023DA05A123DB00C2
:10F71000F0214904D150A023DB05184A002199505B
:10F72000A023DA05A323DB00F0214904D150059B77
:10F73000002B07D1124A134B0021180007F014FCCC
:10F7400003000593059B002B07D10F4A0F4B0121A6
:10F75000180007F009FC03000593059B180007B08B
:10F7600000BDC046382400203C2400208424002012
:10F7700098BB02009DEE010084BB02000C05000056
:10F78000D5F501007CBB0200FDF5010080BB020045
:10F7900084B00190080011006B460333021C1A70FC
:10F7A0006B4602330A1C1A7000230393019B032B40
:10F7B00042D86B4602331B78012B0DD16B460333C5
:10F7C0001B78012B04D1019BDBB20D33DAB200E0D0
:10F7D00000226B4602331A706B4603331B78012BF1
:10F7E00004D0022B0CD0002B16D021E01549019A31
:10F7F00013005B009B186A46023212785A541DE0CF
:10F800001049019A13005B009B18CB1801336A461C
:10F81000023212781A7011E00A49019A13005B0053
:10F820009B18CB1802336A46023212781A7005E030
:10F8300007230393C04601E007230393039B1800AB
:10F8400004B070478824002086B0019000230593FF
:10F850002DE0A023DB05194A059989008A58C13299
:10F86000FF329200D35804930122059B9A40130063
:10F870001A00019B134001D0032300E000230393EF
:10F88000049B0F4A13400493039B1B04049A1343E5
:10F890000493A023DB05094A059989008A58C132DF
:10F8A000FF3292000499D150059B01330593059BCB
:10F8B000032BCED90023180006B0704788BB020086
:10F8C000FFFFFCFF00B583B0012200210020FFF7FD
:10F8D0005FFF03000193019B002B04D0019B072BCA
:10F8E00001D0019B1EE0072202210120FFF750FFFB
:10F8F00003000193019B002B04D0019B072B01D037
:10F90000019B0FE0042202210020FFF741FF0300CA
:10F910000193019B002B04D0019B072B01D0019B7D
:10F9200000E00023180003B000BDC04600B583B05E
:10F93000012202210020FFF72BFF03000193019B0E
:10F94000002B04D0019B072B01D0019B1EE0072256
:10F9500002210120FFF71CFF03000193019B002BF4
:10F9600004D0019B072B01D0019B0FE00A2200214C
:10F970000020FFF70DFF03000193019B002B04D033
:10F98000019B072B01D0019B00E00023180003B06E
:10F9900000BDC04600B585B001900B236B44190033
:10F9A0000020FFF7A5F903000393039B002B01D070
:10F9B000039B22E00A236B4419000120FFF798F90A
:10F9C00003000393039B002B01D0039B15E00A2344
:10F9D0006B441B78002B03D0019B02221A700BE0B2
:10F9E0000B236B441B78002B03D0019B0B221A7056
:10F9F00002E0019B00221A700023180005B000BD30
:10FA000000B583B00320FFF71FFF03000193019BA4
:10FA1000002B04D0019B062B01D0019B00E00023AA
:10FA2000180003B000BDC04600B585B00190019B31
:10FA30001B88102B02D0112B1AD033E01B4B1B68F4
:10FA4000002B0FD1FFF73EFF03000393039B002B16
:10FA500008D0174B1B68002B04D0154B1B68039A6A
:10FA600010009847114B1B685A1C104B1A6019E084
:10FA70000E4B1B685A1E0D4B1A600C4B1B68002B5B
:10FA80000FD1FFF753FF03000393039B002B08D014
:10FA9000074B1B68002B04D0054B1B68039A100012
:10FAA0009847C046C04605B000BDC046C0240020EF
:10FAB000BC24002000B585B0019000910023039381
:10FAC0000E4B019A1A60009B002B0AD0009B180075
:10FAD000FFF760FF03000393039B002B01D0039B00
:10FAE00008E0074B1B68002B03D1FFF71FFF030043
:10FAF0000393039B180005B000BDC046BC24002042
:10FB0000C024002071DF7047C046180072DF7047C4
:10FB1000C046180079DF7047C04618007DDF704787
:10FB2000C046180065DF7047C046180082B002006A
:10FB300000916B4606331A806B4606331B88DAB297
:10FB4000009B1A70009B01336A4606321288120A23
:10FB500092B2D2B21A700223180002B07047C046A7
:10FB600086B00390029101921A006B4602331A800C
:10FB7000019B1B8812331A006B4602331B889A4282
:10FB800001D90C2340E0019B1B881A00029B9B18A3
:10FB900011221A70019B1B8801339AB2019B1A80B3
:10FBA000019B1B881A00029B9B1810221A70019B54
:10FBB0001B8801339AB2019B1A8017236B440F22D2
:10FBC0001A701BE0019B1B881A00029B9B181722CE
:10FBD0006A44127852B203998A5C1A7017236B44F4
:10FBE0001B785BB2DBB2013BDAB217236B441A70AD
:10FBF000019B1B8801339AB2019B1A8017236B4427
:10FC00001B787F2BDED90023180006B07047C04652
:10FC100084B00291019219000F236B44021C1A70E8
:10FC200003AB0A1C1A80019B1B88DA1C03AB1B88E0
:10FC30009A4201D90C2350E0019B1B881A00029BB9
:10FC40009B1802221A70019B1B8801339AB2019BF8
:10FC50001A80019B1B881A00029B9B181C221A7099
:10FC6000019B1B8801339AB2019B1A800F236B44BE
:10FC70001B78022B10D002DC012B05D024E0032BD3
:10FC800012D0042B18D01FE0019B1B881A00029B86
:10FC90009B1800221A7019E0019B1B881A00029B16
:10FCA0009B1801221A7011E0019B1B881A00029B0D
:10FCB0009B1802221A7009E0019B1B881A00029B04
:10FCC0009B1803221A7001E0072306E0019B1B88A2
:10FCD00001339AB2019B1A800023180004B07047C8
:10FCE00000B589B0039002916B4606331A80029BDF
:10FCF0001B8809331A006B4606331B889A4201D9C8
:10FD00000C234FE005AB1800FFF7FCFE0300079340
:10FD1000079B002B01D0079B44E0029B1B881A0025
:10FD2000039B9B1808221A70029B1B8801339AB20E
:10FD3000029B1A80029B1B881A00039B9B181B22A4
:10FD40001A70029B1B8801339AB2029B1A80029B95
:10FD50001B881A00039B981805AB01330622190073
:10FD6000FCF741FD029B1B8806339AB2029B1A8066
:10FD700005AB1B78002B07D1029B1B881A00039B45
:10FD80009B1800221A7006E0029B1B881A00039B36
:10FD90009B1801221A70029B1B8801339AB2029BA6
:10FDA0001A800023180009B000BDC04600B589B014
:10FDB0000390029101921A006B4602331A80039B52
:10FDC0001B78012B05D1039B5B78002B01D1072306
:10FDD00097E0019B1B889A1C6B4602331B889A4252
:10FDE0000FD8039B1B78012B0DD1019B1B881A0098
:10FDF000039B5B78D3189A1C6B4602331B889A428C
:10FE000001D90C237DE0019B1B886A4602321288CF
:10FE1000D31A9AB207AB023A1A8016236B4407AA88
:10FE200012881A80019B1B880233029AD31816226B
:10FE30006A4411001800FFF771FE03000693069B49
:10FE4000002B01D0069B5CE0039B1B78022B0BD19F
:10FE500016236B441B8807AA12889A4204D31F23D7
:10FE60006B4409221A701AE01F236B4408221A708F
:10FE7000039B1B78012B0DD1039B5B789BB207AAD8
:10FE800012889A4206D3039B5B789AB216236B447E
:10FE90001A8004E016236B4407AA12881A801623DE
:10FEA0006B441B88FE2B01D90C232AE0019B1B8885
:10FEB0001A00029B9B1816226A441288D2B20132A1
:10FEC000D2B21A70019B1B8801339AB2019B1A802F
:10FED000019B1B881A00029B9B181F226A44127800
:10FEE0001A70019B1B8801339AB2019B1A80019BF7
:10FEF0001A8816236B441B88D3189AB2019B1A8068
:10FF00000023180009B000BD00B587B0039002912E
:10FF10006B4606331A80029B1B881A1D6B460633FC
:10FF20001B889A4201D90C233BE012236B44180032
:10FF3000FFF7F0FD03000593059B002B01D0059B07
:10FF40002FE0029B1B881A00039B9B1803221A7048
:10FF5000029B1B8801339AB2029B1A80029B1B886A
:10FF60001A00039B9B1819221A70029B1B880133ED
:10FF70009AB2029B1A8012236B441A88029B1B8838
:10FF80001900039B5B1819001000FFF7CFFD030059
:10FF90001900029B1A888BB2D3189AB2029B1A805E
:10FFA0000023180007B000BD84B00291019219002F
:10FFB0000F236B44021C1A7003AB0A1C1A80019BAE
:10FFC0001B88DA1C03AB1B889A4201D90C2329E059
:10FFD000019B1B881A00029B9B1802221A70019B2E
:10FFE0001B8801339AB2019B1A80019B1B881A005F
:10FFF000029B9B1801221A70019B1B8801339AB245
:020000022000DC
:10000000019B1A80019B1B881A00029B9B180F22E0
:100010006A4412781A70019B1B8801339AB2019BC3
:100020001A800023180004B07047C04684B00291C3
:10003000019219000F236B44021C1A7003AB0A1CB7
:100040001A80019B1B88DA1C03AB1B889A4201D9DA
:100050000C2329E0019B1B881A00029B9B1802229B
:100060001A70019B1B8801339AB2019B1A80019B75
:100070001B881A00029B9B1811221A70019B1B8877
:1000800001339AB2019B1A80019B1B881A00029BC4
:100090009B180F226A4412781A70019B1B88013347
:1000A0009AB2019B1A800023180004B07047C04622
:1000B00084B00291019219000F236B44021C1A7044
:1000C00003AB0A1C1A80019B1B88DA1C03AB1B883C
:1000D0009A4201D90C2329E0019B1B881A00029B3C
:1000E0009B1802221A70019B1B8801339AB2019B54
:1000F0001A80019B1B881A00029B9B180A221A7007
:10010000019B1B8801339AB2019B1A80019B1B88BB
:100110001A00029B9B180F226A4412781A70019BE6
:100120001B8801339AB2019B1A800023180004B087
:100130007047C04600B58BB00390080011000193D2
:100140000B236B44021C1A700A236B440A1C1A709E
:1001500023236B4400221A7008AB0C9A12881A8071
:10016000002309937DE0039B5A68099B9B00D318E9
:1001700004AA1000190004231A00FCF734FB17210D
:10018000694404AB00221800FFF7CCFC030007937E
:10019000079B002B01D0079B87E017236B441B783C
:1001A0000A226A4412789A4258D123236B441B785E
:1001B000002B01D0002200E002221B236B441A70A6
:1001C0000C9B1B881A0017236B441B78D2181B2327
:1001D0006B441B78D2180DAB1B889A4201DD0C23AF
:1001E00063E023236B441B7801225340DBB2002BD6
:1001F00018D00C9B1B8801339AB20C9B1A800C9B65
:100200001B881A00019B9B180B226A4412781A70F3
:100210000C9B1B8801339AB20C9B1A8023236B44DE
:1002200001221A700C9B1B881A00019B9A18172137
:10023000694404AB1800FFF775FC03000793079BA4
:10024000002B01D0079B30E00C9B1A8817236B44CE
:100250001B789BB2D3189AB20C9B1A80099B01336E
:100260000993039B1B881A00099B9A4200DD7AE7D9
:1002700023236B441B78002B16D00C9B1A8808ABE9
:100280001B88D31A9AB206AB013A1A8006AB1B88B8
:10029000FF2B01D90C2308E008AB1B88019AD31867
:1002A00006AA1288D2B21A70002318000BB000BD43
:1002B00000B589B0059008001100039313236B4427
:1002C000021C1A7012236B440A1C1A70039A13231F
:1002D0006B44197805980BAB1B8801930A9B00931C
:1002E00013000222FFF726FF03000793079B002B52
:1002F00001D0079B15E0039A12236B4419780598E7
:100300000BAB1B8801930A9B009313001022FFF78D
:1003100011FF03000793079B002B01D0079B00E010
:100320000023180009B000BD82B00190019B1B881A
:10033000052B0AD9019B1A88C8231B019A4206D9AA
:10034000019B1B88154A934201D0072323E0019BA0
:100350005B88052B0AD9019B5A88C8231B019A4246
:1003600006D9019B5B880D4A934201D0072312E016
:10037000019B1B88094A93420CD0019B5B88074A6A
:10038000934207D0019B1A88019B5B889A4201D94E
:10039000072300E00023180002B07047FFFF0000B1
:1003A00000B587B00390029101921A006B460233A8
:1003B0001A80019B1B889A1D6B4602331B889A4248
:1003C00001D90C234DE0039B1800FFF7ADFF03009C
:1003D0000593059B002B01D0059B42E0019B1B88E8
:1003E0001A00029B9B1805221A70019B1B8801337F
:1003F0009AB2019B1A80019B1B881A00029B9B18D2
:1004000012221A70019B1B8801339AB2019B1A8039
:10041000039B1A88019B1B881900029B5B1819001B
:100420001000FFF783FB03001900019B1A888BB2B1
:10043000D3189AB2019B1A80039B5A88019B1B8890
:100440001900029B5B1819001000FFF76FFB0300F7
:100450001900019B1A888BB2D3189AB2019B1A809B
:100460000023180007B000BD00B587B003900291CB
:1004700001921A006B4602331A80039B9B88023359
:100480000593019B1B881A00059BD3189A1C6B4689
:1004900002331B889A4201D90C2354E0059BFE2BA2
:1004A00001D90C234FE0019B1B881A00029B9B186B
:1004B000059AD2B20132D2B21A70019B1B88013365
:1004C0009AB2019B1A80019B1B881A00029B9B1801
:1004D000FF221A70019B1B8801339AB2019B1A807C
:1004E000039B1A88019B1B881900029B5B1819004B
:1004F0001000FFF71BFB03001900019B1A888BB249
:10050000D3189AB2019B1A80039B9B88002B19D0A9
:10051000039B9B68002B01D1072314E0019B1B88E0
:100520001A00029B9818039B9968039B9B881A00EA
:10053000FCF759F9019B1A88039B9B88D3189AB240
:10054000019B1A800023180007B000BD00B589B0D8
:100550000390029101921A006B4602331A80039BAA
:100560009B6A002B01D1072377E01F236B440022F5
:100570001A7069E0039B996A1F236B441A78130071
:100580005B009B189B00CB180693069B9B8802334D
:100590000593059BFE2B01D90C235EE0019B1B8874
:1005A0001A00029B9B18059AD2B20132D2B21A707D
:1005B000019B1B8801339AB2019B1A80019B1B8807
:1005C0001A00029B9B1816221A70019B1B8801338C
:1005D0009AB2019B1A80069B1A88019B1B881900FE
:1005E000029B5B1819001000FFF7A0FA0300190026
:1005F000019B1A888BB2D3189AB2019B1A80069B72
:100600009B88002B19D0069B9B68002B01D10723E8
:1006100023E0019B1B881A00029B9818069B99688F
:10062000069B9B881A00FCF7DEF8019B1A88069B44
:100630009B88D3189AB2019B1A801F236B441A78A7
:100640001F236B4401321A70039B2C229B5C1F22D8
:100650006A4412789A428DD30023180009B000BD75
:1006600000B589B0059004910392002307931A23E3
:100670006B44039A12881A80039B00221A80059B00
:100680005B6B002B10D0059B5B6B18781A236B44B7
:100690001B88039A0499FFF7C9FC03000793079B83
:1006A000002B01D0079B19E1059B1B6B002B0FD082
:1006B000059B186B1A236B441B88039A0499FFF758
:1006C0004FFA03000793079B002B01D0079B05E11E
:1006D000059B2E229B5C002B10D0059B2E22985C44
:1006E0001A236B441B88039A0499FFF791FA0300BD
:1006F0000793079B002B01D0079BEFE0059B2D2262
:100700009B5C002B0ED01A236B441A880399049B20
:100710001800FFF7E5FA03000793079B002B01D0B1
:10072000079BDBE0059B9B78002B0ED01A236B44C4
:100730001A880399049B1800FFF7E6FB0300079350
:10074000079B002B01D0079BC8E0059BDB78002BA3
:1007500010D0059BDB7858B21A236B441B88039A90
:100760000499FFF721FC03000793079B002B01D09E
:10077000079BB3E0059B5B68002B11D0059B5B6872
:10078000002018561A236B441B88039A0499FFF71C
:100790008FFC03000793079B002B01D0079B9DE074
:1007A000059B1B89002B15D0059B08331800049A64
:1007B0001A236B441B880193039B009313000622AA
:1007C0000221FFF775FD03000793079B002B01D063
:1007D000079B83E0059B1B8A002B15D0059B1033DC
:1007E0001800049A1A236B441B880193039B0093FF
:1007F000130007220321FFF75BFD03000793079B0C
:10080000002B01D0079B69E0059B1B8B002B15D0AB
:10081000059B18331800049A1A236B441B88019314
:10082000039B0093130015221421FFF741FD0300E1
:100830000793079B002B01D0079B4FE0059B1B6A8A
:10084000002B0FD0059B186A1A236B441B88039A50
:100850000499FFF7A5FD03000793079B002B01D028
:10086000079B3BE0059B5B6A002B0FD0059B586AFA
:100870001A236B441B88039A0499FFF7F5FD0300C4
:100880000793079B002B01D0079B27E0059B2C2299
:100890009B5C002B0ED01A236B441B88039A04998F
:1008A0000598FFF753FE03000793079B002B01D029
:1008B000079B13E0059B1B78002B0ED01A236B447B
:1008C0001B88039A04990598FFF770FA03000793B1
:1008D000079B002B01D0079B00E0079B180009B085
:1008E00000BDC04682B00190019BDB781A00042352
:1008F000134001D1072300E00023180002B0704725
:1009000082B00190019BDB78002B01D0072300E02F
:100910000023180002B0704700B597B00190009115
:100920004A236B441F221A8012AB1F221A80019B9C
:10093000002B1BD0019B1800FFF7D4FF030013937B
:10094000139B002B01D0139B45E04A226A440AA95D
:10095000019B1800FFF784FE03001393139B002BE9
:1009600001D0139B37E00AAB159305E000231593E4
:100970004A236B4400221A80009B002B1AD0009B54
:100980001800FFF7BDFF03001393139B002B01D04A
:10099000139B20E012AA02A9009B1800FFF760FE3B
:1009A00003001393139B002B01D0139B13E002ABA6
:1009B000149304E00023149312AB00221A804A23FC
:1009C0006B441B88D9B212AB1B88DBB2149A159802
:1009D000FFF79CF80300180017B000BD84B0019029
:1009E0000023039317E0104A039B9B00D3180233A4
:1009F0001A78019B9B789A420AD10B4B039A92007A
:100A0000D25A019B1B889A4202D1084B1B6808E00E
:100A1000039B01330393064B1B68039A9A42E2D36C
:100A20000023180004B07047C4240020DC240020F8
:100A3000E024002000B583B001900091019B1800D4
:100A4000FFF7CCFF031E01D0002315E00C4B1B6801
:100A5000052B10D80A4B1B680A4A9B000199D31832
:100A600004221800FBF7BFFE054B1B685A1C044B01
:100A70001A60002300E00423180003B000BDC04644
:100A8000E0240020C424002000B583B00190019B25
:100A9000002B01D10E2310E0094B1B78012253409B
:100AA000DBB2002B01D0082307E0064B1A68019B3C
:100AB00011001800FFF7BEFF0300180003B000BDCF
:100AC000E4240020DC24002073DF7047C0461800B7
