:10000000008000208D0D0000CD0D0000CF0D000000
:1000100000000000000000000000000000000000E0
:10002000000000000000000000000000D10D0000F2
:100030000000000000000000D30D0000D50D0000FE
:10004000D70D0000D70D0000E16F00002D9D0000CE
:10005000D70D000000000000F1680000D70D00007F
:10006000D70D0000D70D0000D70D0000D70D000000
:10007000D70D0000D70D0000D70D0000D70D0000F0
:10008000D70D00004DAD0000D70D0000D70D0000CA
:100090009DAD0000D70D00003DC00000D70D000051
:1000A000D70D0000D70D0000000000000000000088
:1000B0000000000000000000000000000000000040
:1000C00010B5064C2378002B07D1054B002B02D02E
:1000D000044800E000BF0123237010BDE8000020A9
:1000E0000000000068EE0000084B10B5002B03D0A4
:1000F0000749084800E000BF07480368002B00D10B
:1001000010BD064B002BFBD09847F9E7000000001C
:10011000EC00002068EE0000E40000200000000079
:10012000164B002B00D1144B9D46402292029A1A86
:10013000924600218B460F461348144A121A00F0CB
:1001400067F80F4B002B00D098470E4B002B00D0C8
:1001500098470020002104000D000D48002802D01F
:100160000C4800E000BF00F02DF82000290000F04E
:1001700049FD00F011F8C046000008000080002092
:100180000000000000000000E80000202012002015
:100190000000000000000000084B10B50400002B18
:1001A00002D0002100E000BF054B1868836A002BD5
:1001B00000D09847200000F033F8C046000000004F
:1001C000C0E000000E4B70B500251E000D4CE41A77
:1001D000A410A54204D0AB00F35898470135F8E7C6
:1001E0000DF060FF084B00251E00084CE41AA41017
:1001F000A54204D0AB00F35898470135F8E770BD2D
:10020000DC000020DC000020DC000020E0000020FA
:1002100003008218934202D019700133FAE7704745
:10022000FEE7C04680B500AFBFF34F8F034B044AD3
:10023000DA60BFF34F8FC046FDE7C04600ED00E037
:100240000400FA0576DF7047C04618007ADF704771
:10025000C04618007CDF7047C0461800A9DF704711
:10026000C04618003CDF7047C046180048DF7047A2
:10027000C046180080B588B002AFF860B9607A60F7
:100280007B687B610E4B190000200BF0CBFC7B6977
:100290009A687B691B8818007B695B680949009331
:1002A000030000200BF0BEFC074B190000200BF0F0
:1002B000B9FCFFF7B7FFC046BD4606B080BDC046DB
:1002C000C8E00000D0E00000F4E0000080B58AB093
:1002D00000AF78601423FB18180008F06FFC0300CF
:1002E0007B627B6A3B623B6A002B03D03B6A18004F
:1002F00009F094FE1023FB18180008F08DFC030091
:100300007B627B6AFB61FB69002B03D0FB691800F1
:1003100009F084FE0C23FB18180008F021FC0300F0
:100320007B627B6ABB61BB69002B03D0BB69180091
:1003300009F074FE7A69224B1B689A420FD07B69E0
:10034000180008F043FD02001E4B1A601D4A1E4BA8
:100350001100180001F07EF97A69194B1A603A69A8
:100360001A4B1B689A420FD03B69180008F004FE34
:100370000200174B1A60164A134B1100180001F0C7
:10038000B7F93A69114B1A60FA68124B1B689A4226
:100390000FD0FB68180008F051FD02000E4B1A60E8
:1003A0000D4A094B1100180001F0F0F9FA68094BE9
:1003B0001A600A4B01221A70C046BD460AB080BDC1
:1003C0002C0100206C00002054110020300100207E
:1003D000700000203401002074000020280100205B
:1003E00080B584B000AF134A0023052100200AF035
:1003F000DDFC0300FB60FB68BB60BB68002B03D027
:10040000BB68180009F00AFE0B4A0C4B01211800CA
:100410000AF050FD03007B607B683B603B68002B6B
:1004200003D03B68180009F0F9FDC046BD4604B092
:1004300080BDC04638010020CD020000C4E00000AD
:1004400080B586B000AF3B001A780F218A43111C9B
:1004500001220A431A703B001A780F210A40111C2E
:1004600010220A431A701E4B18000DF003FA030005
:100470009AB21B493B001800FFF7ECFE03007B61BA
:100480007B693B613B69002B03D03B69180009F095
:10049000C5FD3B1D082200211800FFF7B9FE3B1DDA
:1004A00010221A803B1D28225A803B1D00229A8070
:1004B0003B1DC8225200DA803B1D1800FFF7C6FE24
:1004C00003007B617B69FB60FB68002B03D0FB684A
:1004D000180009F0A3FDC046BD4606B080BDC04669
:1004E000FCE0000080B500AF034B180001F062F89B
:1004F000C046BD4680BDC0465411002080B584B0C2
:1005000000AF78607B681B78002B10D10A4B1B88EA
:100510003B211800FFF796FE0300FB60FB68BB6001
:10052000BB68002B03D0BB68180009F077FDC046FC
:10053000BD4604B080BDC0466400002080B582B0D6
:1005400000AF78607B68180009F068FDC046BD46C2
:1005500002B080BD80B58AB000AF3B1D1C220021D7
:100560001800FFF755FE3B1D00221A603B1DA0221C
:1005700092025A603B1DF02212039A603B1D032237
:100580001A733B1D0022DA813B1D00221A743B1DA9
:100590000B4A5A613B1D0B4A9A613B1D180003F040
:1005A00067FE03007B627B6A3B623B6A002B03D0E1
:1005B0003B6A180009F032FDC046BD460AB080BD56
:1005C000FD0400003D05000080B582B000AF0B487F
:1005D00080235B02002219000AF0BCFC03007B6050
:1005E0007B683B603B68002B03D03B68180009F038
:1005F00015FDC046BD4602B080BDC04608010020C2
:1006000080B584B000AF002001F00AFF0300FB605A
:10061000FB68BB60BB68002B03D0BB68180009F007
:10062000FDFC02F0E5F80300FB60FB687B607B6883
:10063000002B03D07B68180009F0F0FCFFF712FED6
:100640000300FB60FB683B603B68002B03D03B680A
:10065000180009F0E3FCC046BD4604B080BDC046AA
:1006600080B584B000AF0200FB1D1A70FB1D1B7823
:10067000002B11D0032B00D012E0022001F0D0FE9D
:100680000300FB60FB68BB60BB68002B07D0BB6846
:10069000180009F0C3FC02E0FFF7B2FF00E0C0461B
:1006A000C046BD4604B080BD80B586B000AF78605E
:1006B0007B68180001F0BAF97B681B88112B29D0E0
:1006C000522B2CD0102B00D03FE0072001F0A8FEC9
:1006D00003007B617B693B613B69002B03D03B6975
:1006E000180009F09BFC7B689A881A4B1A80194BFA
:1006F0001888002300220021FFF7B0FD03007B6172
:100700007B69FB60FB68002B1CD0FB68180009F0BC
:1007100085FC17E00F4B012252421A8015E00D4B69
:100720001888002300220021FFF798FD03007B6159
:100730007B69BB60BB68002B06D0BB68180009F062
:100740006DFC01E0C04600E0C046C046BD4606B0B4
:1007500080BDC0466400002080B582B000AF7860E4
:100760007B68180004F072FF7B68180003F0C2FE7B
:100770007B68180002F052F87B681800FFF794FFBE
:100780007B68180003F08EFB7A68044B1100180098
:1007900000F09AFCC046BD4602B080BD5411002056
:1007A00080B582B000AF78607B68180007F02AFA45
:1007B0007B68180003F022FCC046BD4602B080BD35
:1007C00080B590B000AF1823FA18364B100019000E
:1007D00004231A000DF01BF833491823F8180023DE
:1007E00048220BF0BBFB0300FB63FB6BBB63BB6BE3
:1007F000002B03D0BB6B180009F010FC3B1D1A0046
:10080000012100200BF038FC03007B637B6B3B6312
:100810003B6B002B03D03B6B180009F0FFFB234B15
:10082000FB62FB6A18000BF07DFC03007B637B6BB3
:10083000BB62BB6A002B03D0BB6A180009F0EEFB59
:100840003B1D18000BF09AFC03007B637B6B7B6203
:100850007B6A002B03D07B6A180009F0DFFB144B86
:1008600018000BF0C3FB03007B637B6B3B623B6AAE
:10087000002B03D03B6A180009F0D0FB0D4B180089
:100880000BF0C8FB03007B637B6BFB61FB69002BF8
:1008900003D0FB69180009F0C1FBC046BD4610B08B
:1008A00080BDC04600E1000000030020E81F0020DA
:1008B00059070000A107000080B586B000AF020014
:1008C000FB1D1A70FB1D1B78072B1CD00A2B02D0B6
:1008D000042B03D02BE0FFF793FE28E0164B1B8878
:1008E00013211800FFF7AEFC03007B617B69082B26
:1008F0001AD07B693B613B69002B15D03B6918001E
:1009000009F08CFB10E003F0ABFB03007B617B691B
:10091000082B0BD07B69FB60FB68002B06D0FB68C3
:10092000180009F07BFB01E0C04600E0C046C0466D
:10093000BD4606B080BDC0466400002080B586B0CC
:1009400000AFF860B9607A607B687B617B69002BDF
:1009500003D07B69180009F061FB00231800BD4635
:1009600006B080BD80B58AB000AF0200FB1D1A70D2
:100970001423FB18FA1D12781A7007F0BFFA03004F
:100980007B627B6A3B623B6A002B03D03B6A1800A8
:1009900009F044FB1423FB18180004F0E7FC0300E3
:1009A0007B627B6AFB61FB69002B03D0FB6918004B
:1009B00009F034FB0823FB18053305220021180039
:1009C000FFF726FC0823FB185A7901210A435A71C4
:1009D0000823FB185A7902218A435A710823FB180D
:1009E0005A7904218A435A710823FB185A7908213D
:1009F0008A435A710823FB185A7970218A43111CC3
:100A000030220A435A710823FB185A797F210A4081
:100A10005A710823FB1807229A710823FB18102229
:100A2000DA710823FB180E4A1A600823FB1801220A
:100A30001A710823FA180B4B1100180004F046FD38
:100A400003007B627B6ABB61BB69002B03D0BB697F
:100A5000180009F0E3FAC046BD460AB080BDC046A2
:100A60003D0900000401002080B59CB002AF28239E
:100A7000FB18382200211800FFF7CAFB2823FB18B7
:100A800002221A702823FB1801229A702823FB18CF
:100A90000622DA702823FB1801221A822823FB1869
:100AA000154A5A613B1D180024231A000021FFF744
:100AB000AFFB3B1D01221A733B1DAF2252001A618E
:100AC0003B1D00225A610D493A1D2823F8180023C6
:100AD00000930B00002102F005FF03007B667B6E94
:100AE0003B663B6E002B03D03B6E180009F096FA74
:100AF000C046BD461AB080BD6800002061060000F7
:100B000080B586B000AF7860174B18491A000320F3
:100B100001F0A2FC03007B617B693B613B69002B18
:100B200003D03B69180009F079FA0B23FB18190070
:100B3000002001F0BBFE03007B617B69FB60FB686A
:100B4000002B03D0FB68180009F068FA0B23FB1890
:100B50001B78023B5A425341DAB27B681A70C04696
:100B6000BD4606B080BDC046B9080000CD0C0000EF
:100B700080B582B000AFFFF779FB03007B607B6834
:100B80003B603B68002B03D03B68180009F046FA35
:100B9000C046BD4602B080BD80B582B000AF78606F
:100BA00039607B68180007F09DFEC046BD4602B064
:100BB00080BDC04690B587B000AF3B000E4A13CA57
:100BC00013C312681A600D4A39000D48002308F05B
:100BD00007FC03007B617B693B613B69002B03D011
:100BE0003B69180009F01AFA054B180008F074FC6C
:100BF000C046BD4607B090BD04E10000990B00005F
:100C000078000020B0B598B004AF574A574B190090
:100C100000200BF007F8FFF7CDFF554B180007F049
:100C20004BFF0300FB64FB6CBB64BB6C002B03D06D
:100C3000BB6C180009F0F2F9032301220121012005
:100C400007F048FF0300FB64FB6C7B647B6C002BAC
:100C500003D07B6C180009F0E1F908F001F80300FB
:100C6000FB64FB6C3B643B6C002B03D03B6C1800BB
:100C700009F0D4F9FFF7B4FB2F2308229446BC44B3
:100C800063441800FFF73CFFFFF79AFD2F2308226B
:100C90009446BC4463441B781800FFF763FEFFF7DB
:100CA000CFFBFFF7E1FEFFF71DFCFFF753FCFFF75B
:100CB0008BFC032002F042FF0300FB63FB6BBB6372
:100CC000BB6B002B03D0BB6B180009F0A7F9294BB5
:100CD0001B78DBB2002B44D0274B1B6818000BF0AD
:100CE00045FD031C2549181C0BF026FC031C181C91
:100CF0000CF0C0FB38607960214B1B6818000BF0CA
:100D000035FD031C8921C905181C0BF015FC031CBB
:100D1000181C0CF0AFFB04000D001A4B1B681800E8
:100D20000BF024FD031C1549181C0BF005FC031CDB
:100D3000181C0CF09FFB02000B0013490C20381804
:100D400002920393009401953A687B680CF068FD69
:100D50000C23FB18190000200AF064FF054B002249
:100D60001A70FFF705FFB2E714E1000020E1000070
:100D700078000020280100206C0000200000C842FC
:100D8000700000207400002034E1000003210A48B4
:100D900002680A430260094802680A43026008497F
:100DA000084A094B9B1A03DD043BC858D050FBDCB2
:100DB00000F012F8FFF7B4F9240500405405004094
:100DC00074EE000000000020E8000020FEE7FEE7CF
:100DD000FEE7FEE7FEE7FEE780B500AF00F036F87D
:100DE000031E06D0134B144A1A60144B80221202C1
:100DF0001A6000F06BF8031E05D08023DA05C123CA
:100E0000DB000121D15000F087F8031E0ED00C4BFF
:100E10001B68012B07D00A4B0A4A1A60C046084BD0
:100E20001B68012BFBD1084BC0221A60C046BD468F
:100E300080BDC04604050040DFFF07C0186C0040BD
:100E400000EC06407593000014EC064080B500AF3E
:100E50001A4B1B68FF221340012B2AD1184B1B6829
:100E60000F22134025D1174B1B68F022134006D1E7
:100E7000154B1B68F022134001D101231AE0114BDE
:100E80001B68F0221340102B06D10F4B1B68F02279
:100E9000134001D101230DE00A4B1B68F0221340DF
:100EA000302B06D1084B1B68F022134001D10123DF
:100EB00000E000231800BD4680BDC046E00F00F0F2
:100EC000E40F00F0E80F00F0EC0F00F080B500AF89
:100ED0000D4B1B68FF221340012B11D10B4B1B68DC
:100EE0000F2213400CD10A4B1B68F0221340402BF9
:100EF00006D1084B1B68F022134001D1012300E00A
:100F000000231800BD4680BDE00F00F0E40F00F0A4
:100F1000E80F00F0EC0F00F080B500AF144B1B6839
:100F2000FF221340012B1ED1124B1B680F221340CE
:100F300019D1114B1B68F0221340A02B06D10F4B87
:100F40001B68F022134001D101230DE00A4B1B68FE
:100F5000F0221340D02B06D1084B1B68F02213401F
:100F600001D1012300E000231800BD4680BDC0462A
:100F7000E00F00F0E40F00F0E80F00F0EC0F00F0DD
:100F8000A0DF7047C0461800A2DF7047C0461800B7
:100F9000A5DF7047C0461800A6DF7047C04618009E
:100FA00063DF7047C046180080B58AB000AF786034
:100FB00039601023FB1802221A801023FB1800222C
:100FC0005A801023FB180E22BA185A603B68DA8840
:100FD0007B681B899A4220D17B6818887B681B89B3
:100FE0001022BA181900FFF7D3FF03007B627B6A57
:100FF0003B623B6A002B03D03B6A180009F00EF8F5
:101000000E23FB181B88012B03D12C4B01221A70D5
:1010100050E02A4B00221A704CE03B68DA887B686B
:101020001B8A9A4220D17B6818887B681B8A102211
:10103000BA181900FFF7ACFF03007B627B6AFB6103
:10104000FB69002B03D0FB69180008F0E7FF0E23B3
:10105000FB181B88012B03D1194B01221A7029E0C0
:10106000174B00221A7025E03B68DA887B681B8BDF
:101070009A421FD17B6818887B681B8B1022BA1894
:101080001900FFF785FF03007B627B6ABB61BB69C8
:10109000002B03D0BB69180008F0C0FF0E23FB181B
:1010A0001B88012B03D1074B01221A7002E0054B6C
:1010B00000221A70C046BD460AB080BD70110020E3
:1010C000711100207211002080B582B000AF7860ED
:1010D00039603B681B88112B09D0502B0CD0102B8A
:1010E00000D010E03B689A887B681A800BE07B6830
:1010F000012252421A8006E03A687B68110018000B
:10110000FFF752FFC046C046BD4602B080BDC04694
:1011100080B594B000AF78600023FB644423FB18D3
:1011200001229A704423FB185B4A1A802823FB187B
:101130001C2200211800FFF76BF82823FB181A78EF
:1011400002210A431A702423FB18032200211800ED
:10115000FFF75EF82423FB181A780F218A43111C2D
:1011600001220A431A702423FB181A780F210A401F
:10117000111C10220A431A702423FB185A780F21DD
:101180008A43111C01220A435A702423FB185A78FF
:101190000F210A40111C10220A435A702423FB1805
:1011A0009A7806218A43111C02220A439A70282346
:1011B000FB182422BA185A612823FB181A78102128
:1011C0000A431A702023FB18032200211800FFF79E
:1011D0001FF82023FB189A7806218A43111C02224B
:1011E0000A439A702023FB181A780F218A43111C96
:1011F00001220A431A702023FB181A780F210A4093
:10120000111C10220A431A702023FB185A780F2150
:101210008A435A702023FB185A780F210A405A70CB
:101220000C23FB18142200211800FEF7F1FF0C23F9
:10123000FB184422BA181A600C23FB182022BA1893
:101240005A600C23FB1804229A810C23FB180422F9
:101250001A810823FB1800221A600C23FB180822AD
:10126000BA181A617B6858887B6814330C22BA1844
:1012700028217918FFF788FE0300FB64FB6CBB6430
:10128000BB6C002B03D0BB6C180008F0C7FE00231A
:101290001800BD4614B080BD5EE5FFFF80B594B078
:1012A00000AF78600023FB644423FB1801229A708E
:1012B0004423FB18D222FF321A802823FB181C2259
:1012C00000211800FEF7A4FF2823FB181A7802213A
:1012D0000A431A702423FB18032200211800FEF78A
:1012E00097FF2423FB181A780F218A43111C01222F
:1012F0000A431A702423FB181A780F210A40111C84
:1013000010220A431A702423FB185A780F218A43AB
:10131000111C01220A435A702423FB185A780F210A
:101320000A40111C10220A435A702423FB189A7891
:1013300006218A43111C02220A439A702823FB18B3
:101340002422BA185A612823FB181A7810210A435C
:101350001A702023FB18032200211800FEF758FF03
:101360002023FB189A7806218A43111C02220A4383
:101370009A702023FB181A780F218A43111C01222E
:101380000A431A702023FB181A780F210A40111CF7
:1013900010220A431A702023FB185A780F218A431F
:1013A0005A702023FB185A780F210A405A700C23D8
:1013B000FB18142200211800FEF72AFF0C23FB184B
:1013C0004422BA181A600C23FB182022BA185A605B
:1013D0000C23FB1804229A810C23FB1804221A8187
:1013E0000823FB1800221A600C23FB180822BA18E5
:1013F0001A617B6858887B680C330C22BA18282144
:101400007918FFF7C1FD0300FB64FB6CBB64BB6C88
:10141000002B03D0BB6C180008F000FE002318005E
:10142000BD4614B080BDC04680B594B000AF7860B2
:101430000023FB644423FB1801229A704423FB1809
:101440005B4A1A802823FB181C2200211800FEF793
:10145000DFFE2823FB181A7802210A431A7024237E
:10146000FB18032200211800FEF7D2FE2423FB18EC
:101470001A780F218A43111C01220A431A7024236F
:10148000FB181A780F210A40111C10220A431A7007
:101490002423FB185A780F218A43111C01220A4386
:1014A0005A702423FB185A780F210A40111C10226D
:1014B0000A435A702423FB189A7806218A43111C88
:1014C00002220A439A702823FB182422BA185A6170
:1014D0002823FB181A7810210A431A702023FB18BE
:1014E000032200211800FEF793FE2023FB189A78B0
:1014F00006218A43111C02220A439A702023FB18FA
:101500001A780F218A43111C01220A431A702023E2
:10151000FB181A780F210A40111C10220A431A7076
:101520002023FB185A780F218A435A702023FB1876
:101530005A780F210A405A700C23FB1814220021FC
:101540001800FEF765FE0C23FB184422BA181A6037
:101550000C23FB182022BA185A600C23FB18042213
:101560009A810C23FB1804221A810823FB180022FD
:101570001A600C23FB180822BA181A617B68588875
:101580007B6804330C22BA1828217918FFF7FCFC79
:101590000300FB64FB6CBB64BB6C002B03D0BB6C17
:1015A000180008F03BFD00231800BD4614B080BDB4
:1015B000AEEEFFFF80B58AB000AF78600823FA185E
:1015C000224B1000190010231A000CF020F91823E8
:1015D000FB181F4A1A801823FB189A1C0823FB18B3
:1015E00011001800FFF7DCFC03007B627B6A3B62A2
:1015F0003B6A002B03D03B6A180008F00FFD7B68A4
:10160000012252421A807B689A1C1823FB18190089
:101610000120FFF7B5FC03007B627B6AFB61FB697D
:10162000002B03D0FB69180008F0F8FC7B68180059
:10163000FFF7FAFE7B681800FFF730FE7B681800A2
:10164000FFF766FDC046BD460AB080BD5CE1000004
:101650000DF0FFFF80B588B000AF786039607B681F
:101660001B88204A934238D01F4B1B78DBB2002BDB
:1016700033D01A23FB1804221A800823FB181022E7
:1016800000211800FEF7C4FD7B689A880823FB1828
:101690001A800823FB1801229A700823FB180022E5
:1016A0009A800823FB181A22BA189A600823FB189C
:1016B0003A68DA607B681B880822BA1811001800A3
:1016C000FFF76AFC0300FB61FB69002B05D0FA6998
:1016D000064B190000200AF0A5FAC046BD4608B026
:1016E00080BDC046FFFF0000701100206CE10000CB
:1016F00080B588B000AF786039607B681B88204A6D
:10170000934238D01F4B1B78DBB2002B33D01A2307
:10171000FB1804221A800823FB181022002118004D
:10172000FEF776FD7B689A890823FB181A80082348
:10173000FB1801229A700823FB1800229A800823C4
:10174000FB181A22BA189A600823FB183A68DA6064
:101750007B681B880822BA1811001800FFF71CFCD0
:101760000300FB61FB69002B05D0FA69064B1900E9
:1017700000200AF057FAC046BD4608B080BDC046FA
:10178000FFFF00007111002084E1000080B588B0E7
:1017900000AF786039607B681B88204A934238D05C
:1017A0001F4B1B78DBB2002B33D01A23FB1804220B
:1017B0001A800823FB18102200211800FEF728FDCC
:1017C0007B689A8A0823FB181A800823FB180122D9
:1017D0009A700823FB1800229A800823FB181A220B
:1017E000BA189A600823FB183A68DA607B681B888D
:1017F0000822BA1811001800FFF7CEFB0300FB61A6
:10180000FB69002B05D0FA69064B190000200AF08D
:1018100009FAC046BD4608B080BDC046FFFF0000C3
:10182000721100209CE1000090B583B000AF786099
:101830007B681B88103B1A00414B9200D258414BE9
:10184000190000200AF0EEF97B689B881A003E4BD5
:10185000190000200AF0E6F97B681B88112B5ED086
:10186000122B2FD0102B00D066E07B681B8B18004A
:101870000BF0BEFD0022354B0AF0B6FF03000C0052
:10188000180021000AF03AFE03009BB21A00304B08
:10189000190000200AF0C6F97B68DB8B1A001300E0
:1018A0009B009B185B001A002A4B190000200AF0CD
:1018B000B9F97B689B8B1A00274B190000200AF0AE
:1018C000B1F939E07B681B8918000BF091FD00220B
:1018D0001E4B0AF089FF03000C00180021000AF0DB
:1018E0000DFE03009BB21A00194B190000200AF0EC
:1018F00099F97B68DB891A0013009B009B185B0039
:101900001A00144B190000200AF08CF97B689B899F
:101910001A00114B190000200AF084F90CE07B68D2
:101920001B7A123B1A000D4B9200D2580C4B190037
:1019300000200AF077F9C046C046BD4603B090BD0E
:1019400080000020E4E80000F4E800000000F43F1C
:101950000CE9000024E900003CE90000C40000207C
:1019600050E9000090B58BB002AF78601E23FB18E1
:101970007A6892881A800823FA187B68043313CB9C
:1019800013C2196811609B8893801C23FB187A6826
:1019900012881A801C23FB181B88512B04D0522B51
:1019A0002ED0502B1DD034E00823FB189B78012B40
:1019B0000BD10823FB189B881A000823FB18DB882F
:1019C000164900200AF02EF923E00823FB189B8813
:1019D0001A000823FB18DB88114900200AF022F9BD
:1019E00017E07B68DB881A007B681B8918007B681E
:1019F00012330C490093030000200AF013F908E0A9
:101A00007B689B791A00084B190000200AF00AF93C
:101A1000C046C046BD4609B090BDC04658E900006A
:101A20007CE90000A0E90000D0E9000080B584B0A6
:101A300000AF78607B681B88FB60FA68244B190054
:101A400000200AF0EFF8FB680F2B07D9FB682F2B5B
:101A500004D87B681800FFF7E7FE35E0FB684F2BE2
:101A600007D9FB686F2B04D87B681800FFF77AFF53
:101A70002AE0FB682F2B0FD9FB684F2B0CD87B6813
:101A80001B88303B1A00134B9200D258124B19009E
:101A900000200AF0C7F817E0FB68002B0ED0FB68A7
:101AA0000F2B0BD87B681B885A1E0C4B9200D25808
:101AB0000B4B190000200AF0B5F805E0FA68094B55
:101AC000190000200AF0AEF8C046BD4604B080BD43
:101AD000E0E90000BC000020F0E90000C0000020A8
:101AE000FCE9000008EA000080B584B000AF78602F
:101AF00039607B68032B16D8A023DA05A223DB000C
:101B0000D358DB43FB600C4B7A689200D358012218
:101B10009A4013001A00FB6813405A1E9341DAB230
:101B20003B681A7002E03B6800221A70002318001C
:101B3000BD4604B080BDC0462CEA000080B586B02A
:101B400000AF0200FB1D1A70BB1D0A1C1A70172380
:101B5000FB1800221A7000233B6102E03B6901334D
:101B60003B613B69032B07D8444B3A699200D2583A
:101B7000FB1D1B789A42F1D13B69032B69D8BB1D31
:101B80001B78012B04D0022B56D0002B36D060E0FE
:101B90001723F9183A483A6913005B009B181B5C3D
:101BA0000B7037493A6913005B009B18CB1801335F
:101BB0001B78002B14D03348334B1A6813009B005A
:101BC0009B185B001900314B1A0009F0C3F90300A0
:101BD000FB60FB68002B03D12C4BFA1D12781A70A6
:101BE00027493A6913005B009B18CB180233197818
:101BF000274A3B69D3180A1C1A702AE0214B1800A7
:101C000009F0E2F9224A3B69D31819781C483A696D
:101C100013005B009B18C31802331B78994217D13D
:101C20001723F91816483A6913005B009B18C3186C
:101C300002331B780B700BE01723F91810483A6930
:101C400013005B009B18C31801331B780B7000E076
:101C5000C0461723FB181B78002B0AD00D4B1B68BE
:101C6000002B06D00B4B1B681722BA1812781000F5
:101C70009847C046BD4606B080BDC0462CEA00006D
:101C80009C030020A80300204C030020C803002070
:101C9000CC0300209803002080B582B000AF7860AC
:101CA0007B681B7802211800FFF748FFC046BD463D
:101CB00002B080BD90B589B000AF0200FB1D1A7064
:101CC0000023FB610023BB61FB1D1B78172B00D990
:101CD00058E39A00E24BD3181B689F46A023DA050D
:101CE000E04B1B68D943F0235B041940A123DB00C0
:101CF000D150A023DB05DC4A00219950DB4BFA1DB3
:101D000012781A703FE3A023DA05D64B1B68D9433B
:101D1000E0235B041940A123DB00D150A023DB05A5
:101D2000D14A00219950A023DB05D14A9B58F022CB
:101D300052045A4080239B03134016D0A023DA0597
:101D4000A123DB0080218903D150A023DB05C64AF3
:101D500000219950FB1D1B78022B02D1E123DB00EF
:101D600001E0FA231B01BB6114E0A023DB05BE499F
:101D7000802292035A50A023DA05A123DB00002120
:101D8000D150FB1D1B78022B01D1C82301E0C823D1
:101D90005B00BB61B54BFA1D12781A70B54CBB697C
:101DA000642118000AF034FA03001A00B24B1B68D1
:101DB000534300221900200009F0CCF80300FB6116
:101DC000E1E2A023DA05A74B1B68D943E0235B04BB
:101DD0001940A123DB00D150A023DB05A24A00213A
:101DE0009950A023DB05A24A9B58F02252045A4086
:101DF00080239B03134016D0A023DA05A123DB0028
:101E000080218903D150A023DB05974A00219950F6
:101E1000FB1D1B78032B02D1C8239B0001E0FA2392
:101E20001B01BB6114E0A023DB058F4980229203D4
:101E30005A50A023DA05A123DB000021D150FB1D5D
:101E40001B78032B01D1C82301E0C8235B00BB61D1
:101E5000864BFA1D12781A70864CBB6964211800F3
:101E60000AF0D6F903001A00834B1B685343002283
:101E70001900200009F06EF80300FB6183E2A02343
:101E8000DA05784B1B68D943E0235B041940A12392
:101E9000DB00D150A023DB05734A00219950A02319
:101EA000DB05734A9B58F02252045A4080239B035F
:101EB00013400FD0A023DA05A123DB008021890382
:101EC000D150A023DB05684A00219950FA231B0159
:101ED000BB610EE0A023DB056349802292035A50C8
:101EE000A023DA05A123DB000021D150C8235B0029
:101EF000BB615E4BFA1D12781A705E4CBB6964219F
:101F000018000AF085F903001A005B4B1B68534365
:101F100000221900200009F01DF80300FB6132E2E5
:101F2000A023DA054F4B1B68D943E0235B0419401B
:101F3000A123DB00D150A023DB054B4A002199509F
:101F4000A023DB054A4A9B58F02252045A408023C2
:101F50009B03134015D0A023DA05A123DB008021C9
:101F60008903D150A023DB053F4A00219950FB1D76
:101F70001B78052B01D1C82301E0FA231B01BB61AB
:101F800014E0A023DB053849802292035A50A02395
:101F9000DA05A123DB000021D150FB1D1B78052BA6
:101FA00001D1C82301E0C8235B00BB612F4BFA1DA0
:101FB00012781A702F4CBB69642118000AF028F9B6
:101FC00003001A002C4B1B68534300221900200009
:101FD00008F0C0FF0300FB61D5E1A023DA05214B27
:101FE0001B68D943E0235B041940A123DB00D150D7
:101FF000A023DB051C4A00219950A023DB051C4AC5
:102000009B58F02252045A4080239B0313400CD06B
:10201000A023DA05A123DB0080218903D150A0236E
:10202000DB05114A002199500BE0A023DB050E4986
:10203000802292035A50A023DA05A123DB0000215D
:10204000D1500A4BFA1D12781A700A480A4B1B68C5
:102050000022190008F07EFF0300FB6193E1C046F7
:102060005CEA0000540300200C0500004803002037
:1020700004050000580300204C030020A023DA05CB
:10208000C34B1B68D943E0235B041940A123DB0049
:10209000D150A023DB05BF4A00219950A023DB05C6
:1020A000BC49802292035A50A023DA05A123DB0009
:1020B0000021D150B84BFA1D12781A7063E1A023A9
:1020C000DB05B64A9B587B61A023DA057B69D943BF
:1020D0008023DB031940A123DB00D150A023DB05C3
:1020E00079698022D2030A40AA495A50AC48AD4BC4
:1020F0001B680022190008F02DFF0300FB6142E17C
:10210000A023DB05A54A9B583B61A023DA053B6968
:10211000D9438023DB031940A123DB00D150A02346
:10212000DB0539698022D2030A409A495A509C48FB
:102130009C4B1A6813009B009B180022190008F0A2
:1021400009FF0300FB611EE1A023DB05934A9B58B6
:10215000FB60A023DA05FB68D9438023DB03194029
:10216000A123DB00D150A023DB05F9688022D20334
:102170000A4088495A508A488A4B1B680022190035
:1021800008F0E8FE0300FB61FDE0A023DB05834AC5
:102190009B58BB60A023DA05BB68D9438023DB03CF
:1021A0001940A123DB00D150A023DB05B9688022B0
:1021B000D2030A4077495A5079487A4B1A6813007B
:1021C0009B009B180022190008F0C4FE0300FB616D
:1021D000D9E0A023DB056F49F02252045A50A02316
:1021E000DA05A123DB000021D1506B4BFA1D1278D8
:1021F0001A70C8E06C4B180008F0E6FE0300FB61A3
:10220000FB1D1B781122D31ABB61BB69002B2DD09B
:10221000FB69002B2AD15E4B802212041A60BB6935
:10222000012B13D9604CBB69C822534364211800A9
:1022300009F0EEFF03001A005A4B1B6853430022BB
:102240001900200008F086FE0300FB61A023DA05D8
:102250004F4B1968F0235B040B404E495350A023A9
:10226000DA05A123DB000021D1508CE0A023DA05A0
:10227000474B1968F0235B041940A123DB00D150C0
:10228000A023DB05434A00219950414B00221A60EC
:1022900079E0A023DA05A123DB00F0214904D15025
:1022A000A023DB053B4A002199503B4BFA1D1278D5
:1022B0001A7068E0A023DA05A123DB00E0214904BD
:1022C000D150A023DB05334A00219950A023DB0520
:1022D0003049802292035A50A023DA05A123DB0063
:1022E0000021D1502C4BFA1D12781A704BE0A0231C
:1022F000DA05A123DB00D0214904D150A023DB055E
:10230000244A00219950A023DB0522498022D203D0
:102310005A50A023DA05A123DB000021D1501E4B27
:10232000FA1D12781A702EE0A023DA05A123DB0033
:10233000C0214904D150A023DB05164A0021995041
:10234000A023DB051349C022D2035A50A023DA058B
:10235000A123DB000021D1500F4BFA1D12781A7017
:1023600011E0A023DB050B49F02252045A50A023B0
:10237000DA05A123DB000021D150074BFA1D1278AA
:102380001A7000E0C046FB691800BD4609B090BD58
:10239000540300200C050000480300200405000041
:1023A000580300204C0300207803002080B582B041
:1023B00000AF7860064B1B680122134004D0054B28
:1023C0001B781800FFF776FCC046BD4602B080BD02
:1023D000500300204803002080B584B000AF78602F
:1023E000A023DB050C4A9B58FB60A023DA05FB68A1
:1023F000D94380231B041940A123DB00D150A02323
:10240000DB05F968802212040A4004495A50C0468C
:10241000BD4604B080BDC046040500000C050000A8
:1024200080B584B000AF0200FB1D1A700023FB6072
:10243000084B1B680122134006D0FB1D1B781800B7
:10244000FFF738FC0300FB60FB681800BD4604B0D2
:1024500080BDC0465003002080B586B000AFF86054
:10246000B9607A6000237B61384BBA681A60384BD8
:10247000FA681A60374B7A681A60FB6802221340C8
:1024800031D000233B610AE03B69012201211800A1
:1024900000F072F803007B613B6901333B613B69EB
:1024A000032B02D87B69002BEED07B69002B08D16F
:1024B000BB685A08284B0421180007F00BFD0300E5
:1024C0007B617B69002B03D107F086FD03007B61F4
:1024D0007B69002B07D1214A214B0021180008F00D
:1024E000E9FC03007B61FB680122134012D0A023AA
:1024F000DA05A123DB00F0214904D150A023DB053C
:10250000184A00219950A023DA05A323DB00F0210B
:102510004904D1507B69002B07D1134A134B00218A
:10252000180008F0C7FC03007B617B69002B07D112
:102530000F4A104B0121180008F0BCFC03007B611E
:102540007B691800BD4606B080BDC0464C03002024
:1025500050030020980300203CEA0000991C000072
:1025600028EA00000C050000AD23000020EA00006E
:10257000D923000024EA000080B584B000AF786061
:1025800008001100FB1C021C1A70BB1C0A1C1A70EC
:102590000023FB607B68032B3BD8BB1C1B78012B03
:1025A0000BD1FB1C1B78012B04D17B68DBB20D33F4
:1025B000DAB200E00022BB1C1A70FB1C1B78012B56
:1025C00004D0022B0BD0002B14D01EE014497A68E3
:1025D00013005B009B18BA1C12785A541BE0104978
:1025E0007A6813005B009B18CB180133BA1C127871
:1025F0001A7010E00A497A6813005B009B18CB1828
:102600000233BA1C12781A7005E00723FB60C0463B
:1026100001E00723FB60FB681800BD4604B080BDE5
:102620009C03002080B586B000AF786000237B61FA
:102630002DE0A023DB051A4A796989008A58C13246
:10264000FF329200D3583B6101227B699A4013000C
:102650001A007B68134001D0032300E00023FB60D5
:102660003B69104A13403B61FB681B043A69134302
:102670003B61A023DB050A4A796989008A58C13287
:10268000FF3292003969D1507B6901337B617B69EC
:10269000032BCED900231800BD4606B080BDC0462E
:1026A0002CEA0000FFFFFCFF80B582B000AF0122E2
:1026B00000210020FFF760FF03007B607B68002B98
:1026C00004D07B68072B01D07B681EE00722022123
:1026D0000120FFF751FF03007B607B68002B04D0D3
:1026E0007B68072B01D07B680FE0042202210020C9
:1026F000FFF742FF03007B607B68002B04D07B6800
:10270000072B01D07B6800E000231800BD4602B013
:1027100080BDC04680B582B000AF012202210020FA
:10272000FFF72AFF03007B607B68002B04D07B68E7
:10273000072B01D07B681EE0072202210120FFF752
:102740001BFF03007B607B68002B04D07B68072B9A
:1027500001D07B680FE00A2200210020FFF70CFF68
:1027600003007B607B68002B04D07B68072B01D0C3
:102770007B6800E000231800BD4602B080BDC04663
:1027800080B584B000AF78600B23FB1819000020DF
:10279000FFF7AAF90300FB60FB68002B01D0FB6880
:1027A00022E00A23FB1819000120FFF79DF903001E
:1027B000FB60FB68002B01D0FB6815E00A23FB18C7
:1027C0001B78002B03D07B6802221A700BE00B23CE
:1027D000FB181B78002B03D07B680B221A7002E0D9
:1027E0007B6800221A7000231800BD4604B080BD2B
:1027F00080B582B000AF0320FFF714FF03007B60B9
:102800007B68002B04D07B68062B01D07B6800E03E
:1028100000231800BD4602B080BDC04680B584B01C
:1028200000AF78607B681B88102B02D0112B1AD068
:1028300033E01C4B1B68002B0FD1FFF735FF030063
:10284000FB60FB68002B08D0174B1B68002B04D0E3
:10285000154B1B68FA6810009847124B1B685A1CEE
:10286000104B1A6019E00F4B1B685A1E0D4B1A6073
:102870000C4B1B68002B0FD1FFF74CFF0300FB60D4
:10288000FB68002B08D0084B1B68002B04D0064BBC
:102890001B68FA6810009847C046C046BD4604B0A1
:1028A00080BDC046D4030020D003002080B584B092
:1028B00000AF786039600023FB600F4B7A681A60C4
:1028C0003B68002B0AD03B681800FFF759FF030054
:1028D000FB60FB68002B01D0FB6808E0074B1B681E
:1028E000002B03D1FFF716FF0300FB60FB68180005
:1028F000BD4604B080BDC046D0030020D4030020F4
:1029000071DF7047C046180072DF7047C04618007C
:1029100079DF7047C04618007DDF7047C046180059
:1029200065DF7047C046180080B582B000AF020076
:102930003960BB1D1A80BB1D1B88DAB23B681A7058
:102940003B680133BA1D1288120A92B2D2B21A70D1
:1029500002231800BD4602B080BDC04680B586B0D7
:1029600000AFF860B9607A601A00BB1C1A807B68FF
:102970001B8812331A00BB1C1B889A4201D90C23F6
:1029800040E07B681B881A00BB689B1811221A70F4
:102990007B681B8801339AB27B681A807B681B882E
:1029A0001A00BB689B1810221A707B681B880133C1
:1029B0009AB27B681A801723FB180F221A701BE04B
:1029C0007B681B881A00BB689B181722BA181278FC
:1029D00052B2F9688A5C1A701723FB181B785BB235
:1029E000DBB2013BDAB21723FB181A707B681B8835
:1029F00001339AB27B681A801723FB181B787F2B50
:102A0000DED900231800BD4606B080BD80B584B075
:102A100000AFB9607A6019000F23FB18021C1A700E
:102A20000C23FB180A1C1A807B681B88DA1C0C23F9
:102A3000FB181B889A4201D90C2350E07B681B8845
:102A40001A00BB689B1802221A707B681B8801332E
:102A50009AB27B681A807B681B881A00BB689B1837
:102A60001C221A707B681B8801339AB27B681A801B
:102A70000F23FB181B78022B10D002DC012B05D092
:102A800024E0032B12D0042B18D01FE07B681B8896
:102A90001A00BB689B1800221A7019E07B681B881B
:102AA0001A00BB689B1801221A7011E07B681B8812
:102AB0001A00BB689B1802221A7009E07B681B8809
:102AC0001A00BB689B1803221A7001E0072306E076
:102AD0007B681B8801339AB27B681A800023180038
:102AE000BD4604B080BDC04680B588B000AFF86078
:102AF000B960BB1D1A80BB681B8809331A00BB1D57
:102B00001B889A4201D90C2352E01423FB181800A9
:102B1000FFF7F6FE0300FB61FB69002B01D0FB69A8
:102B200046E0BB681B881A00FB689B1808221A70D5
:102B3000BB681B8801339AB2BB681A80BB681B88CC
:102B40001A00FB689B181B221A70BB681B88013394
:102B50009AB2BB681A80BB681B881A00FB68981879
:102B60001423FB180133062219000AF050FEBB683B
:102B70001B8806339AB2BB681A801423FB181B7893
:102B8000002B07D1BB681B881A00FB689B1800222A
:102B90001A7006E0BB681B881A00FB689B180122AC
:102BA0001A70BB681B8801339AB2BB681A80002375
:102BB0001800BD4608B080BD80B588B000AFF86091
:102BC000B9607A601A00BB1C1A80FB681B78012B65
:102BD00005D1FB685B78002B01D1072399E07B6866
:102BE0001B889A1CBB1C1B889A420ED8FB681B785A
:102BF000012B0CD17B681B881A00FB685B78D3180B
:102C00009A1CBB1C1B889A4201D90C2381E07B686B
:102C10001B88BA1C1288D31A9AB21C23FB18023ADA
:102C20001A801623FB181C22BA1812881A807B6897
:102C30001B880233BA68D3181622BA18110018007C
:102C4000FFF76AFE0300BB61BB69002B01D0BB69C3
:102C50005FE0FB681B78022B0CD11623FB181B8846
:102C60001C22BA1812889A4204D31F23FB18092287
:102C70001A701CE01F23FB1808221A70FB681B78CF
:102C8000012B0ED1FB685B789BB21C22BA1812880C
:102C90009A4206D3FB685B789AB21623FB181A8017
:102CA00005E01623FB181C22BA1812881A80162376
:102CB000FB181B88FE2B01D90C232AE07B681B889C
:102CC0001A00BB689B181622BA181288D2B20132B9
:102CD000D2B21A707B681B8801339AB27B681A8063
:102CE0007B681B881A00BB689B181F22BA181278D1
:102CF0001A707B681B8801339AB27B681A807B68E4
:102D00001A881623FB181B88D3189AB27B681A807E
:102D100000231800BD4608B080BDC04680B586B00F
:102D200000AFF860B960BB1D1A80BB681B881A1D14
:102D3000BB1D1B889A4201D90C233BE01223FB18D0
:102D40001800FFF7E5FD03007B617B69002B01D0D4
:102D50007B692FE0BB681B881A00FB689B18032265
:102D60001A70BB681B8801339AB2BB681A80BB68B3
:102D70001B881A00FB689B1819221A70BB681B88F5
:102D800001339AB2BB681A801223FB181A88BB68F9
:102D90001B881900FB685B1819001000FFF7C4FDC1
:102DA00003001900BB681A888BB2D3189AB2BB68AB
:102DB0001A8000231800BD4606B080BD80B584B0DF
:102DC00000AFB9607A6019000F23FB18021C1A705B
:102DD0000C23FB180A1C1A807B681B88DA1C0C2346
:102DE000FB181B889A4201D90C2329E07B681B88B9
:102DF0001A00BB689B1802221A707B681B8801337B
:102E00009AB27B681A807B681B881A00BB689B1883
:102E100001221A707B681B8801339AB27B681A8082
:102E20007B681B881A00BB689B180F22BA1812789F
:102E30001A707B681B8801339AB27B681A80002362
:102E40001800BD4604B080BD80B584B000AFB96045
:102E50007A6019000F23FB18021C1A700C23FB1850
:102E60000A1C1A807B681B88DA1C0C23FB181B8841
:102E70009A4201D90C2329E07B681B881A00BB68A1
:102E80009B1802221A707B681B8801339AB27B68F8
:102E90001A807B681B881A00BB689B1811221A7065
:102EA0007B681B8801339AB27B681A807B681B8819
:102EB0001A00BB689B180F22BA1812781A707B6828
:102EC0001B8801339AB27B681A8000231800BD4624
:102ED00004B080BD80B584B000AFB9607A601900DD
:102EE0000F23FB18021C1A700C23FB180A1C1A80F3
:102EF0007B681B88DA1C0C23FB181B889A4201D9BB
:102F00000C2329E07B681B881A00BB689B180222EF
:102F10001A707B681B8801339AB27B681A807B68C1
:102F20001B881A00BB689B180A221A707B681B88D2
:102F300001339AB27B681A807B681B881A00BB68D1
:102F40009B180F22BA1812781A707B681B880133FD
:102F50009AB27B681A8000231800BD4604B080BD79
:102F600080B58AB000AFF860080011007B600B23C9
:102F7000FB18021C1A700A23FB180A1C1A70232360
:102F8000FB1800221A702023FB183A6B12881A8053
:102F900000237B6281E0FB685A687B6A9B00D31840
:102FA0001022BA181000190004231A000AF02FFC8E
:102FB0001723F9181023FB1800221800FFF7B0FCA4
:102FC0000300FB61FB69002B01D0FB698EE0172336
:102FD000FB181B780A22BA1812789A425AD1232376
:102FE000FB181B78002B01D0002200E002221B23DB
:102FF000FB181A703B6B1B881A001723FB181B78F1
:10300000D2181B23FB181B78D2183423FB181B88FB
:103010009A4201DD0C2369E02323FB181B7801226F
:103020005340DBB2002B18D03B6B1B8801339AB2A4
:103030003B6B1A803B6B1B881A007B689B180B222A
:10304000BA1812781A703B6B1B8801339AB23B6B2B
:103050001A802323FB1801221A703B6B1B881A006D
:103060007B689A181723F9181023FB181800FFF72C
:1030700057FC0300FB61FB69002B01D0FB6935E0C5
:103080003B6B1A881723FB181B789BB2D3189AB294
:103090003B6B1A807B6A01337B62FB681B881A00DA
:1030A0007B6A9A4200DD76E72323FB181B78002B0E
:1030B0001BD03B6B1A882023FB181B88D31A9AB2AB
:1030C0001823FB18013A1A801823FB181B88FF2BC2
:1030D00001D90C230AE02023FB181B887A68D31837
:1030E0001822BA181288D2B21A7000231800BD46EE
:1030F0000AB080BD80B588B002AFF860080011004A
:103100007B600B23FB18021C1A700A23FB180A1C95
:103110001A707A680B23FB181978F8682423FB18B7
:103120001B8801933B6A009313000222FFF718FFEC
:1031300003007B617B69002B01D07B6916E07A6814
:103140000A23FB181978F8682423FB181B880193BD
:103150003B6A009313001022FFF702FF03007B611C
:103160007B69002B01D07B6900E000231800BD467D
:1031700006B080BD80B582B000AF78607B681B88E8
:10318000052B0AD97B681A88C8231B019A4206D9E5
:103190007B681B88164A934201D0072323E07B6893
:1031A0005B88052B0AD97B685A88C8231B019A4281
:1031B00006D97B685B880E4A934201D0072312E050
:1031C0007B681B880A4A93420CD07B685B88084A5C
:1031D000934207D07B681A887B685B889A4201D942
:1031E000072300E000231800BD4602B080BDC046A2
:1031F000FFFF000080B586B000AFF860B9607A606C
:103200001A00BB1C1A807B681B889A1DBB1C1B887C
:103210009A4201D90C234DE0FB681800FFF7AAFF82
:1032200003007B617B69002B01D07B6942E07B68F6
:103230001B881A00BB689B1805221A707B681B88C4
:1032400001339AB27B681A807B681B881A00BB68BE
:103250009B1812221A707B681B8801339AB27B6814
:103260001A80FB681A887B681B881900BB685B188A
:1032700019001000FFF758FB030019007B681A883B
:103280008BB2D3189AB27B681A80FB685A887B6825
:103290001B881900BB685B1819001000FFF744FB7E
:1032A000030019007B681A888BB2D3189AB27B6826
:1032B0001A8000231800BD4606B080BD80B586B0D8
:1032C00000AFF860B9607A601A00BB1C1A80FB6816
:1032D0009B8802337B617B681B881A007B69D3184B
:1032E0009A1CBB1C1B889A4201D90C2354E07B69B1
:1032F000FE2B01D90C234FE07B681B881A00BB68AA
:103300009B187A69D2B20132D2B21A707B681B88DC
:1033100001339AB27B681A807B681B881A00BB68ED
:103320009B18FF221A707B681B8801339AB27B6856
:103330001A80FB681A887B681B881900BB685B18B9
:1033400019001000FFF7F0FA030019007B681A88D3
:103350008BB2D3189AB27B681A80FB689B88002BCB
:1033600019D0FB689B68002B01D1072314E07B6810
:103370001B881A00BB689818FB689968FB689B88D3
:103380001A000AF044FA7B681A88FB689B88D318F5
:103390009AB27B681A8000231800BD4606B080BD33
:1033A00080B588B000AFF860B9607A601A00BB1CC5
:1033B0001A80FB689B6A002B01D1072377E01F234B
:1033C000FB1800221A7069E0FB68996A1F23FB183A
:1033D0001A7813005B009B189B00CB18BB61BB697C
:1033E0009B8802337B617B69FE2B01D90C235EE055
:1033F0007B681B881A00BB689B187A69D2B20132BD
:10340000D2B21A707B681B8801339AB27B681A802B
:103410007B681B881A00BB689B1816221A707B6891
:103420001B8801339AB27B681A80BB691A887B6853
:103430001B881900BB685B1819001000FFF774FAAD
:10344000030019007B681A888BB2D3189AB27B6884
:103450001A80BB699B88002B19D0BB699B68002B25
:1034600001D1072323E07B681B881A00BB689818EA
:10347000BB699968BB699B881A000AF0C8F97B6828
:103480001A88BB699B88D3189AB27B681A801F235D
:10349000FB181A781F23FB1801321A70FB682C22C4
:1034A0009B5C1F22BA1812789A428DD30023180011
:1034B000BD4608B080BDC04680B588B002AFF86098
:1034C000B9607A6000237B611223FB187A68128846
:1034D0001A807B6800221A80FB685B6B002B10D07F
:1034E000FB685B6B18781223FB181B887A68B96835
:1034F000FFF7AAFC03007B617B69002B01D07B698D
:1035000019E1FB681B6B002B0FD0FB68186B1223B3
:10351000FB181B887A68B968FFF720FA03007B6103
:103520007B69002B01D07B6905E1FB682E229B5C47
:10353000002B10D0FB682E22985C1223FB181B88EE
:103540007A68B968FFF762FA03007B617B69002B38
:1035500001D07B69EFE0FB682D229B5C002B0ED035
:103560001223FB181A887968BB681800FFF7BCFAA9
:1035700003007B617B69002B01D07B69DBE0FB688A
:103580009B78002B0ED01223FB181A887968BB6831
:103590001800FFF7C3FB03007B617B69002B01D0A0
:1035A0007B69C8E0FB68DB78002B10D0FB68DB7818
:1035B00058B21223FB181B887A68B968FFF7FEFB24
:1035C00003007B617B69002B01D07B69B3E0FB6862
:1035D0005B68002B11D0FB685B6800201856122333
:1035E000FB181B887A68B968FFF774FC03007B61DD
:1035F0007B69002B01D07B699DE0FB681B89002B58
:1036000015D0FB6808331800BA681223FB181B8812
:1036100001937B680093130006220221FFF76AFDE5
:1036200003007B617B69002B01D07B6983E0FB6831
:103630001B8A002B15D0FB6810331800BA681223C0
:10364000FB181B8801937B6800931300072203215A
:10365000FFF750FD03007B617B69002B01D07B6984
:1036600069E0FB681B8B002B15D0FB681833180032
:10367000BA681223FB181B8801937B680093130020
:1036800015221421FFF736FD03007B617B69002BB7
:1036900001D07B694FE0FB681B6A002B0FD0FB68F1
:1036A000186A1223FB181B887A68B968FFF7A2FD15
:1036B00003007B617B69002B01D07B693BE0FB68E9
:1036C0005B6A002B0FD0FB68586A1223FB181B881B
:1036D0007A68B968FFF7F2FD03007B617B69002B14
:1036E00001D07B6927E0FB682C229B5C002B0ED06D
:1036F0001223FB181B887A68B968F868FFF750FE38
:1037000003007B617B69002B01D07B6913E0FB68C0
:103710001B78002B0ED01223FB181B887A68B9681F
:10372000F868FFF749FA03007B617B69002B01D041
:103730007B6900E07B691800BD4606B080BDC046CD
:1037400080B582B000AF78607B68DB781A00042314
:10375000134001D1072300E000231800BD4602B04A
:1037600080BDC04680B582B000AF78607B68DB78F2
:10377000002B01D0072300E000231800BD4602B053
:1037800080BDC04680B596B000AF786039604A23EE
:10379000FB181F221A804823FB181F221A807B68FF
:1037A000002B1DD07B681800FFF7CAFF0300FB64E5
:1037B000FB6C002B01D0FB6C4CE04A23FA18282349
:1037C000F9187B681800FFF777FE0300FB64FB6CB9
:1037D000002B01D0FB6C3DE02823FB187B6505E046
:1037E00000237B654A23FB1800221A803B68002BCC
:1037F0001DD03B681800FFF7B5FF0300FB64FB6CAE
:10380000002B01D0FB6C25E04823FA180823F91897
:103810003B681800FFF750FE0300FB64FB6C002BB5
:1038200001D0FB6C16E00823FB183B6505E0002384
:103830003B654823FB1800221A804A23FB181B888B
:10384000D9B24823FB181B88DBB23A6D786DFFF7BD
:103850005BF803001800BD4616B080BD73DF7047EB
:10386000C046180074DF7047C046180080B582B0AB
:1038700000AF78607B681B79002B03D17B681B7BD2
:10388000002B01D0012300E000231800BD4602B048
:1038900080BDC04680B500AF044B07220021180050
:1038A000FCF7B6FCC046BD4680BDC046DC03002028
:1038B00080B584B000AF78600023FB600AE07A68CE
:1038C000FB68D3181B78002B01D0012306E0FB68AE
:1038D0000133FB60FB68052BF1D900231800BD46BE
:1038E00004B080BD90B589B000AFF860B9607A606F
:1038F0003B60FB68002B01D10E23D2E07B68002BDC
:1039000001D10E23CDE0694B00221A70684B3A6852
:103910001A60684B3A6B1A60674B7A6813CA13C314
:1039200013CA13C313CA13C3FFF7B4FF634B644A2C
:103930001A60624B634A9A60634B38220021180078
:10394000FCF766FCFB681A785F4B1A70FB689A7884
:103950005D4B9A70FB68DA785B4BDA70FB685A78DB
:10396000594B5A70584BFA681033103203CA03C3CC
:10397000554BFA680833083203CA03C3524BFA683E
:103980001833183203CA03C3FB685B6A002B29D0C3
:103990004D4B4E4A5A624D4B4D4A9A604A4B5A6AB9
:1039A000FB685B6A1B881380474B5A6AFB685B6A3B
:1039B0009B8893800023FB610DE0FB685B6A9A683B
:1039C000FB69D3181978424AFB69D3180A1C1A708C
:1039D000FB690133FB613C4B5B6A9B881A00FB6906
:1039E0009A42EAD8FB689B6A002B33D0394B3A4A9B
:1039F0009A60354B374A9A62334B9B6A364A9A60D3
:103A0000314B9A6AFB689B6A9B8893802E4B9A6A1B
:103A1000FB689B6A1B8813800023BB610DE0FB6879
:103A20009B6A9A68BB69D31819782B4ABB69D3186B
:103A30000A1C1A70BB690133BB61234B9B6A9B88CC
:103A40001A00BB699A42EAD8FB682C22995C1E4B8B
:103A50002C229954FB681B6A002B0ED01A4B1F4A6C
:103A60001A62194B1A6AFB681B6A5B885380164BF3
:103A70001A6AFB681B6A1B881380FB685B68002B53
:103A800006D0114B164A5A60FB685A680E4B5A60B2
:103A9000BA680D4B11001800FFF774FE03007B613C
:103AA0007B691800BD4609B090BDC04628040020BF
:103AB00020040020240400202C04002050040020B6
:103AC0006004002080040020E4030020A4040020FF
:103AD000B0040020D0040020DC040020FC040020FE
:103AE0000005002080B582B000AF00233B603B00A2
:103AF000180004F0A7FE03007B607B68082B04D04D
:103B00007B68002B01D0012313E07B68082B0AD1CE
:103B10003B00180007F080FA03007B607B68002BF5
:103B200001D0002305E03B68002B01D0012300E019
:103B300000231800BD4602B080BDC04680B58AB0E3
:103B400000AF0200FB1D1A70C04BFA1D12781A70EC
:103B5000FFF7C8FF031E04D0BD4B01221A700023DB
:103B600097E1FFF797FEBB4B5B78002B03D0B74B79
:103B70001B78012B0FD0B74B9B78002B03D0B34B96
:103B80001B78012B07D0B34B9B78002B12D0AF4B87
:103B90001B78022B0ED1B04B1B68002B07D0AF4B0C
:103BA00001221A70AC4B1B680820984702E0AB4B0F
:103BB00000221A70A54B1B78012B14D1A54B5B7802
:103BC00001225340DBB2002B0AD1A54B1800FFF7AE
:103BD0006FFE03001A0001235340DBB2002B02D01A
:103BE0009A4B02221A70994B1B78022B14D1994BD5
:103BF0009B7801225340DBB2002B0AD1984B18006E
:103C0000FFF756FE03001A0001235340DBB2002BDE
:103C100002D08E4B03221A708E4B1B7B0122534025
:103C2000DBB2002B06D0894B1B78032B02D1874BCC
:103C300004221A70874B1B7E01225340DBB2002BFB
:103C400009D0824B1B78042B05D1804B00221A70BF
:103C5000844B00221A70804B1B68002B1AD07B4BC0
:103C60001B78032B03D0794B1B78042B12D1794B93
:103C70001B78002B0ED07C4B1B7801225340DBB20B
:103C8000002B07D0794B01221A70734B1B68072059
:103C9000984702E0754B00221A700C23FB1818227B
:103CA00000211800FCF7B4FA0C23FB1800221A704C
:103CB0000C23FB1800225A600C23FB1800221A72F6
:103CC0000C23FB180022DA60604B1B78022B1CD0FF
:103CD00002DC012B05D0A8E0032B2ED0042B68D0EA
:103CE000A3E00C23FB18624A5A600C23FB18012244
:103CF0001A700C23FB1800225A820C23FB18002296
:103D00001A82584B01221A708FE00C23FB18584A74
:103D10005A600C23FB1801221A704E4B9B689AB212
:103D20000C23FB185A824B4B5B689AB20C23FB188E
:103D30001A824C4B02221A7077E0464B5B699AB2AA
:103D40000C23FB185A82434B1B699AB20C23FB18B5
:103D50001A82484B1800FFF789FD031E25D03D4B02
:103D60001B78002B21D0404B1B7801225340DBB243
:103D7000002B1AD00C23FB1802221A720C23FB18FA
:103D80003C4ADA603C4B0422DA703B4B00211800BD
:103D9000FFF7F8FC03007B627B6A002B01D07B6A93
:103DA00077E0304B05221A703FE02E4B03221A7049
:103DB0003BE0284BDB699AB20C23FB181A82254B97
:103DC0001B6A9AB20C23FB185A822A4B1800FFF781
:103DD0004DFD031E25D01F4B1B78002B21D0224BFD
:103DE0001B7801225340DBB2002B1AD00C23FB18A6
:103DF00002221A720C23FB181E4ADA601E4B0422A0
:103E0000DA701D4B00211800FFF7BCFC03007B6239
:103E10007B6A002B01D07B6A3BE0124B06221A70B2
:103E200002E0104B04221A70C046084B1B78002B8E
:103E300024D00C23FB181800FFF710FD03007B6251
:103E40007B6A002B1AD07B6A23E0C046280400203E
:103E5000D80300202C04002020040020A20400200D
:103E6000DD0300201C040020A0040020A104002089
:103E7000DC03002050040020E4030020074B1B68F3
:103E8000002B05D0054B1B68054A12781000984797
:103E900000231800BD460AB080BDC04620040020A3
:103EA0001C04002080B586B000AF78607B681B885A
:103EB000112B0ED01B2B2AD0102B00D08DE07B684D
:103EC0009B7D012B00D083E07B689A88454B1A804C
:103ED0007EE0454B00221A707B689A88414B1B8814
:103EE0009A4200D076E00120FFF728FE03007B61B4
:103EF0007B69002B00D16DE03C4B1B68002B00D18F
:103F000068E03A4B1B687A691000984762E07B686A
:103F10001B7A002B00D05FE0354B1B78022B1AD0A8
:103F200002DC012B05D052E0032B26D0042B39D024
:103F30004DE00220FFF702FE03003B613B69002BCE
:103F40003ED02A4B1B68002B3AD0284B1B683A699D
:103F50001000984734E00320FFF7F0FD0300FB60FA
:103F6000FB68002B2ED0214B1B68002B2AD01F4B47
:103F70001B68FA681000984724E01E4B03221A7051
:103F80000420FFF7DBFD0300BB60BB68002B1BD0E8
:103F9000164B1B68002B17D0144B1B68BA68100017
:103FA000984711E0134B00221A70134B1B68002B2B
:103FB0000CD0114B1B680F4A12781000984705E08F
:103FC000C04609E0C04607E0C04605E0C04603E041
:103FD000C04602E0C04600E0C046C046BD4606B04E
:103FE00080BDC046D8000020A0040020240400208A
:103FF000280400201C0400202004002080B584B088
:1040000000AF78600023FB607B68023B012B1AD86D
:10401000104B1B78002B18D00E4B00221A700E4B41
:104020001B781800FFF78AFD0300FB60FB68002B7C
:104030000BD00A4B1B68002B07D0084B1B68FA6893
:104040001000984701E0C04600E0C046C046BD46AB
:1040500004B080BDD80300202804002024040020E0
:1040600080B582B000AF214B1B78002B38D0204B9D
:104070001B7801225340DBB2002B31D01D4B1B7843
:10408000002B08D0FFF7EEFB03007B607B68002B62
:1040900001D07B6825E0164B01221A70164B0622D0
:1040A000DA70154B00211800FFF76CFB03007B60F2
:1040B0007B68002B01D07B6813E00E4B1B78180047
:1040C000FFF73CFD03007B607B68002B08D00B4BA7
:1040D0001B68002B04D0094B1B687A6810009847B6
:1040E00000231800BD4602B080BDC0462C0400204D
:1040F000A004002028040020E40300202404002061
:1041000075DF7047C046180076DF7047C04618005C
:104110007ADF7047C04618007BDF7047C046180042
:1041200080B582B000AF78607B681B781AB27B687C
:1041300001331B781B021BB213431BB29BB2180046
:10414000BD4602B080BDC04690B585B000AF786076
:104150000E23FC187B681800FFF7E2FF03002380A2
:104160000E23FB181B88012213405A1E9341DBB219
:104170001800BD4605B090BD80B582B000AF786034
:104180007B685A88084B1B889A4207D37B685A88F9
:10419000054B5B889A4201D8012300E000231800F8
:1041A000BD4602B080BDC0462005002080B586B067
:1041B00000AF7860294B1B88294A93424AD0294B8B
:1041C0001B780133DAB2274B1A70274B1A7B254B29
:1041D0001B789A4215D3214B1B88244A11001800E2
:1041E000FFF78EFF03007B617B69002B32D01E4BF3
:1041F0009B69002B2ED01C4B9B697A691000984755
:1042000028E0184B00221A70174B1B7C002B13D090
:10421000124B1B883B211800FFF776FF03003B6120
:104220003B69002B08D0104B9B69002B04D00E4B30
:104230009B693A69100098470B4B5B69002B09D0CA
:104240000C23FB1800221A70074B5B690C22BA186A
:1042500010009847C046BD4606B080BD2A05002024
:10426000FFFF000028050020040500202005002095
:1042700090B585B000AF78601F4B7A6813CA13C33E
:1042800013CA13C312681A601C4B00221A707B6891
:104290001B68002B13D07B681B68194A100019009B
:1042A00008231A0009F0B3FA154B1800FFF730FF86
:1042B0000300FB60FB68002B0CD0FB6818E0104B80
:1042C0001800FFF729FF0300FB60FB68002B01D0FB
:1042D000FB680DE00B4B012252421A800A4B002270
:1042E0001A700A4A0A4B0021180006F0E3FD030089
:1042F0001800BD4605B090BD0405002054050020FF
:10430000200500202A05002028050020AD410000DE
:10431000BCEA000080B584B000AF274B1800FFF75F
:104320002BFF03001A0001235340DBB2002B30D0D7
:10433000224B1B78002B0CD0214B5B69002B34D017
:104340003B1D00221A701E4B5B693A1D10009847F6
:104350002BE01C4B1B78002B03D1194B5B68FB60D7
:1043600002E0174B9B68FB60174BF96800221800AE
:1043700006F0F0FD0300BB60BB68002B15D0104BAE
:104380009B69002B11D00E4B9B69BA6810009847AF
:104390000BE00B4B5B69002B07D03B0001221A702E
:1043A000074B5B693A0010009847044B00221A70D3
:1043B000C046BD4604B080BD2C0500205405002039
:1043C00004050020280500203405002080B582B0B7
:1043D00000AF78607B689A88094B1A80094A7B682D
:1043E000183303CB03C2084B00221A70074BDB893A
:1043F000002B01D1FFF78EFFC046BD4602B080BD45
:104400002A0500202C050020280500200405002096
:1044100080B584B000AF78600E4B012252421A8002
:104420000D4B00221A700D4B180006F0CDFD030055
:10443000FB60FB68002B08D0094B9B69002B04D064
:10444000074B9B69FA6810009847C046BD4604B008
:1044500080BDC0462A050020280500203405002024
:104460000405002080B584B000AF78607B68063317
:10447000FB60FB681A88144BDB899A421FD1FB68EA
:104480005B89022B1BD1FB680C331800FFF75CFE25
:10449000031E02D0FFF73EFF11E00C4B180006F0A0
:1044A00093FD0300BB60BB68002B08D0064B9B69E3
:1044B000002B04D0044B9B69BA6810009847C04693
:1044C000BD4604B080BDC046040500203405002070
:1044D00080B582B000AF7860054A7B68083303CBB3
:1044E00003C2FFF717FFC046BD4602B080BDC046FD
:1044F0002C05002080B582B000AF78607B681B88F7
:10450000112B0DD002DC102B05D018E0122B11D08E
:10451000502B0AD013E07B681800FFF757FF0EE01E
:104520007B681800FFF774FF09E07B681800FFF74D
:1045300099FF04E07B681800FFF7CAFFC046C04639
:10454000BD4602B080BDC0467FDF7047C046180040
:1045500086DF7047C0461800A7DF7047C0461800C6
:10456000A9DF7047C0461800AADF7047C046180090
:1045700080B582B000AF786001227B689A4013005A
:10458000DA43044B1B681A40024B1A60C046BD4612
:1045900002B080BD9806002080B582B000AF786080
:1045A00001227B689A4013001A00054B1B681340D8
:1045B0005A1E9341DBB21800BD4602B080BDC04612
:1045C0009806002080B582B000AF78600F497A6805
:1045D00013005B009B189B0000225A500B497A681D
:1045E00013005B009B189B00CB18093300221A7044
:1045F00006497A6813005B009B189B00CB180A33AE
:1046000000221A70C046BD4602B080BD840600205C
:1046100080B582B000AF786017497A6813005B00FC
:104620009B189B00CB180A3301221A7012497A6832
:1046300013005B009B189B00CB18083301225242E9
:104640001A800D497A6813005B009B189B00CB18F9
:104650000B33FF221A707A6813005B009B189B00D3
:10466000054A9B18072200211800FBF7D1FDC04620
:10467000BD4602B080BDC0467806002080B582B03D
:1046800000AF78607A681300DB009B1A9B00103340
:104690001A00204BD3180133062200211800FBF723
:1046A000B7FD7A681300DB009B1A9B00194A9B1820
:1046B000102200211800FBF7ABFD16497A681300A1
:1046C000DB009B1A9B00CB181033FF221A70114994
:1046D0007A681300DB009B1A9B00CB181A33FF2269
:1046E0001A700C497A681300DB009B1A9B00CB18E8
:1046F0001833012252421A807B681800FFF738FFF6
:10470000054B7A6892000021D150C046BD4602B0E8
:1047100080BDC046740500205805002080B584B0D7
:1047200000AF3A60BB1D021C1A807B1D0A1C1A7068
:104730000823FB600023BB602BE01A49BA68130012
:104740005B009B189B00CB180A331B787A1D1278EC
:104750001340DBB2002B19D0BB1D1B88124A9342B9
:104760000CD01049BA6813005B009B189B00CB1853
:1047700008331B88BA1D12889A4205D13B68BA6873
:104780001A600023FB6007E00523FB60BB68013370
:10479000BB60BB68002BD0D0FB681800BD4604B0DE
:1047A00080BDC04678060020FFFF000080B584B0C1
:1047B00000AF78603960314BFB600023BB6055E08F
:1047C0002F49BA681300DB009B1A9B00CB181A33E1
:1047D0001B78FF2B47D13B681B78022B26D028493A
:1047E000BA681300DB009B1A9B00CB181A331B78A6
:1047F00002229343D8B22249BA681300DB009B1A05
:104800009B00CB181A33021C1A701D49BA6810207D
:104810001300DB009B1A9B00CB181A183B68100092
:10482000190007231A0008F0F2FF15E01449BA68CE
:104830001300DB009B1A9B00CB181A331B78012254
:104840009343D8B20E49BA681300DB009B1A9B0051
:10485000CB181A33021C1A70BB68DAB27B681A7064
:104860000023FB6005E0BB680133BB60BB68062B1F
:10487000A6D9FB681800BD4604B080BD4380000087
:104880007405002080B586B000AF78607B6899B26F
:104890000C23FA180E4B180003F054FC03007B6144
:1048A0007B69002B0ED10C23FB187421180003F038
:1048B000F5FE03007B617B69002B03D17B68180048
:1048C000FFF7DCFE7B691800BD4606B080BDC04620
:1048D0009006002080B586B000AFF860B960BB1DBF
:1048E0001A8005237B6100233B612BE0FB68002BD2
:1048F0000CD118493A691300DB009B1A9B00CB18B6
:1049000018331B88BA1D12889A4212D0FB68002BFC
:1049100015D03A691300DB009B1A9B0010331A0074
:104920000C4BD318F9680722180008F061FF031E2A
:1049300005D1BB683A691A6000237B6105E03B69D9
:1049400001333B613B69062BD0D97B691800BD461A
:1049500006B080BD7405002080B586B000AFF86059
:10496000B9607A60054B1B687B617A68B968F86842
:104970007B699847C046BD4606B080BD84060020CE
:1049800080B584B000AF78607B680E481A000121C2
:10499000FFF7C4FE0300FB60FB68002B0BD17B68B4
:1049A0001A68094913005B009B189B00CB180A3357
:1049B00002221A7001E00423FB60FB681800BD4668
:1049C00004B080BDFFFF00007806002080B582B0F3
:1049D00000AF78607B681A68094913005B009B1878
:1049E0009B00CB180A331B78012B04D07B681B6813
:1049F0001800FFF70DFEC046BD4602B080BDC046A0
:104A00007806002080B584B000AFF860B960190066
:104A1000BB1D1A803B1D0A1C1A8000231800BD46CE
:104A200004B080BD90B587B000AF78600A00FB1C71
:104A30001A707B689B7899B20823FA18444B1800C7
:104A400003F080FB03003B613B69002B00D07BE05F
:104A50007B685B7819003F4A0B005B005B189B008A
:104A6000D3180A331B781A004023134003D1FB1CD0
:104A70001B78022B02D1384B7B6108E0FB1C1B78B2
:104A8000012B02D1354B7B6101E0354B7B617B68AB
:104A90009B781A001300DB009B1A9B00314A99187F
:104AA0000823F8187C6900231C22A04703003B61FF
:104AB0003B69002B2ED1FB1C1B78022B2AD07B6874
:104AC0005B7819007B685B781800224A03005B0062
:104AD0001B189B00D3180A331B7840229343D8B28B
:104AE0001C4A0B005B005B189B00D3180A33021CA6
:104AF0001A707B685B781A001300DB009B1A9B001E
:104B0000194A99180823F8187C691C231C22A0470D
:104B100003003B61FB1C1B78022B15D07B681B78C4
:104B20001900124A0B005B005B189B00D3180A3374
:104B30001B781A000E4B9200D35879680822BA18D5
:104B40001000984703003B61C046BD4607B090BDCA
:104B50009006002078060020A98300004182000012
:104B6000054A000074050020380600208406002055
:104B7000C0EA000080B582B000AF786039600023E1
:104B80001800BD4602B080BD90B58DB000AF786012
:104B900039600323BB622223FB181A221A803B6868
:104BA0005B7819004E4A0B005B005B189B00D31822
:104BB00008331888BB6A2222BA1808217918FFF72F
:104BC000D3FC03007B627B6A002B00D082E03B6851
:104BD0005B781A001300DB009B189B0008331A0057
:104BE000404BD0182223FB181B881A000823FB18FF
:104BF000190008F0FDFD031E1DD13B685B7819000C
:104C0000374A0B005B005B189B00D3180A331B78F4
:104C10001A00022313405DD13B685B781A00130031
:104C2000DB009B189B002F4A9B18242200211800B0
:104C3000FBF7EEFA4EE03B685B781900294A0B005F
:104C4000DB005B189B00D31804331B68002B02D0D9
:104C5000254BFB6201E0254BFB623B685B7819004A
:104C6000204A0B00DB005B189B00B96A99503B6837
:104C70005B7819002223FB181B881800194A0B00C7
:104C8000DB005B189B00D318043318603B685B782B
:104C90001A001300DB009B189B0008331A00114B0D
:104CA000D0182223FB181B881A000823FB181900B0
:104CB00008F0ADFD3B685B781A001300DB009B1821
:104CC0009B00084A99187868FC6A38232422A04778
:104CD00003007B6200231800BD460DB090BDC046A6
:104CE0007806002054060020A983000041820000BD
:104CF00080B582B000AF7860396000231800BD46EF
:104D000002B080BD80B584B000AF786039603A6889
:104D10007B6811001800FFF737FF0300FB60FB689A
:104D2000002B07D13A687B6811001800FFF7E0FFFD
:104D30000300FB60FB681800BD4604B080BDC046A0
:104D400080B582B000AF7860396000231800BD469E
:104D500002B080BD80B584B000AF786039603B6838
:104D60005B781A001300DB009B189B00144A98180C
:104D700079683823242203F0CBFB0300FB60FB6837
:104D8000002B18D13B685B7819000D4A0B00DB0043
:104D90005B189B00D31804331B6801330BD13B68AD
:104DA0005B781900064A0B00DB005B189B00D318E8
:104DB000043300221A60FB681800BD4604B080BDB1
:104DC0005406002080B582B000AF786039600023BF
:104DD0001800BD4602B080BD80B584B000AF7860D9
:104DE00039603A687B6811001800FFF7B3FF0300D1
:104DF000FB60FB68002B07D13A687B681100180044
:104E0000FFF7E0FF0300FB60FB681800BD4604B03D
:104E100080BDC04680B582B000AF78600023180026
:104E2000BD4602B080BDC04690B587B000AF786087
:104E300000233B610E23FB1800221A800023BB6075
:104E40007B685B781900574A0B00DB005B189B00FE
:104E5000D31804331B68002B40D07B685B781900A3
:104E6000514A0B005B005B189B00D3180A331B7878
:104E70005BB2002B32DA7B685B7819004A4A0B0080
:104E80005B005B189B00D3180A331B781A00402381
:104E9000134023D17B685B781A001300DB009B185A
:104EA0009B0008331A003F4BD3183B617B685B784B
:104EB00019003C4A0B00DB005B189B00D31804333D
:104EC0001A680E23FB181A807B685B781900354A34
:104ED0000B00DB005B189B009B58BB607B685B781A
:104EE0001900314A0B005B005B189B00D318083394
:104EF0001888BC680E23FB181A8839692300FFF74D
:104F00002FFB03007B617B690B2B16D10123BB6058
:104F10007B685B781900244A0B005B005B189B00E0
:104F2000D31808331888BC680E23FB181A8839690F
:104F30002300FFF715FB03007B617B69002B01D089
:104F40001A4B7B61BB68012B27D17B685B7819000A
:104F5000154A0B005B005B189B00D31808331B88B5
:104F6000134A0C211800FFF7F7FA03007B617B69F5
:104F7000002B12D07B690F4A93420CD07B69082B1F
:104F800009D07B690C4A934205D07B69112B02D072
:104F900000237B6101E0054B7B617B691800BD4606
:104FA00007B090BD54060020780600204180000024
:104FB000FFFF0000023000000430000080B582B026
:104FC00000AF786000231800BD4602B080BDC04627
:104FD00080B584B000AF78607B681800FFF724FFCD
:104FE0000300FB60FB68002B05D17B681800FFF70E
:104FF000E5FF0300FB60FB681800BD4604B080BD00
:1050000080B59CB000AFF8607A603B600B23FB1862
:105010000A1C1A70CC4B1B68002B00D18DE1BB6FB2
:10502000742B00D98BE16F23FB1801221A704823DF
:10503000FB18180000F0B2FA03003B663B6EFB65FC
:10504000FB6D002B03D0FB6D180004F0E7FF482335
:10505000FB1800221A704C23FB1800221A703C2304
:10506000FB183A689A603C23FB18BA6F5A60002319
:10507000BB661EE0BB6E99B23423FA18B34B18001E
:1050800003F060F803003B663B6E002B0ED1342327
:10509000F918FB680822180008F0AAFB031E05D1C6
:1050A000BB6EDAB24823FB189A7005E0BB6E013381
:1050B000BB66BB6E062BDDD94823FB189B78FF2B04
:1050C00000D13DE10B23FB181B78032B0CD1BB6FE8
:1050D000742B04D14C23FB1820221A70F3E04C23CC
:1050E000FB1840221A70EEE03A68994BD31A1C2143
:1050F000180007F08DF80300BB65BB6D062B24D8A4
:105100004C23FB183C22BA185A607B68002B11D143
:105110004823FB189B781800FFF73EFA03001A009B
:1051200001235340DBB2002B04D06F23FB18002275
:105130001A70C8E04823FB189B781800FFF718FA8C
:105140004C23FB1820221A70BDE03A68814BD31A19
:105150001C21180007F05CF80300BB65BB6D002B39
:1051600036D14C23FB183C22BA185A604C23FB184A
:1051700020221A70BB6DDAB24823FB185A70142330
:10518000FB1800221A611423FB18734A5A61BA6D86
:105190001300DB009B1A9B006E4A9A181423FB181D
:1051A0001A604823FB189B781A001300DB009B1A37
:1051B0009B00674A9A181423FB185A603C23FB187B
:1051C0001422BA189A603C23FB1820225A607AE015
:1051D0003A68624BD31A2421180007F019F803002B
:1051E000BB65BB6D002B29D14C23FB1830221A70F4
:1051F000BB6DDAB24823FB185A704823FB18012212
:10520000DA705749BA6D13005B009B189B00CB18EE
:105210000A331B781A000223134054D14823FB1889
:105220005B781A001300DB009B189B004B4A9B180D
:10523000242200211800FAF7EBFF44E06F23FB184B
:1052400000221A704C23FB1840221A703A68454B12
:105250009A4208D10B23FB1803221A706F23FB1804
:1052600001221A702FE04823FB189B781A003E4B4E
:105270009200D2583B689A4225D16F23FB18012235
:105280001A704C23FB183C22BA185A6000237B6624
:1052900016E04823FB18997831487A6E13005B00BA
:1052A0009B189B00C3180B331B78994205D17B6E6A
:1052B000DAB24823FB185A7005E07B6E01337B6637
:1052C0007B6E002BE5D06F23FB181B78002B37D0AB
:1052D0000B23FB181B78032B09D14C23FB181B78DD
:1052E00003221343DAB24C23FB181A7017E00B2386
:1052F000FB181B78022B09D14C23FB181B780122C9
:105300001343DAB24C23FB181A7008E04C23FB1845
:105310001B7802221343DAB24C23FB181A704C2379
:10532000FB183C22BA185A607A684C23F9184823B3
:10533000FB181800FFF710FB02E0C04600E0C04673
:10534000BD461CB080BDC0468406002090060020EB
:1053500074050020380600209C060020540600201A
:1053600078060020F0EA00005805002080B588B0DB
:1053700000AF78607B68002B01D14D4B94E0002397
:10538000BB6106E0BB691800FFF71CF9BB6901337C
:10539000BB61BB69002BF5D00023BB6106E0BB6994
:1053A0001800FFF735F9BB690133BB61BB69002BFE
:1053B000F5D0404B242200211800FAF729FF0023E2
:1053C000BB610BE0BB691800FFF758F93A4ABB69AB
:1053D000D318FF221A70BB690133BB61BB69062B6E
:1053E000F0D91023FB1874229A801023FB1807228F
:1053F000DA801023FB18314A1A60314A1023FB1857
:105400001100180002F0DCFD0300FB61FB69002BBA
:1054100049D12C4B01221A707B681B780122534022
:10542000DBB2002B30D00023BB6129E0BB6999B20D
:105430000823FA18224B180002F084FE0300FB61D7
:10544000FB69002B15D1BA691300DB009B1A9B0086
:105450001D4A98180823F91800231C2203F058F855
:105460000300FB61FB69002B07D0164B00221A706A
:1054700019E0144B00221A7015E0BB690133BB61BF
:10548000BB69062BD2D90EE01023FB189B88102293
:10549000BA18D28853439AB2094B1100180003F08E
:1054A000FDF80300FB61FB691800BD4608B080BD34
:1054B0000E80000054060020B406002001500000B9
:1054C00090060020B30600207405002080B584B04B
:1054D00000AF786039602C4B1B7801225340DBB25F
:1054E000002B01D0294B4BE07B68002B01D1284BCE
:1054F00046E03B68002B01D1254B41E03B681B682F
:10550000002B01D1224B3BE0224B1B68002B34D1F6
:105510003B681A681F4B1A601E4A3B680521101D24
:105520005B180522190008F072F93B681A79194BCB
:105530009A72184B1A7A01218A431A72154B1A7AF9
:1055400002210A431A72134B1A7A04218A431A72EF
:10555000104BDA7901210A43DA710E4BDA79022114
:105560000A43DA710B4BDA7904218A43DA717B68DA
:1055700000221A700023FB6001E0074BFB60FB6810
:105580001800BD4604B080BDB306002008800000AE
:105590000E800000840600200480000080B582B0E8
:1055A00000AF78607B68002B01D1094B0CE07B6871
:1055B000FF221A707B68FF225A707B68FF229A7064
:1055C0007B68FF22DA7000231800BD4602B080BD60
:1055D0000E80000080B586B000AF78607B689B7855
:1055E00099B20C23FA18154B180002F0ABFD03001A
:1055F0007B617B69002B1DD17B685B781A001300EF
:10560000DB009B1A9B000E4A98180C23F9181C23E8
:105610001C2202F07DFF03007B610A4B9B7A1A007B
:10562000094B9200D35879680C22BA181000984799
:1056300003007B61C046BD4606B080BD90060020D9
:105640003806002084060020D0EA000090B597B00C
:1056500000AF7860FF23BB635323FB1800221A704E
:105660000023BB64DC4B1B7801225340DBB2002BD0
:1056700001D000F074FCD94B1B68002B01D100F065
:1056800070FC3423FB181800FFF788FF03007B65CC
:105690007B6D7B647B6C002B03D07B6C180004F06B
:1056A000BDFC0023FB6400237B657B681A1D282357
:1056B000FB185A602823FB182C221A813423FB186C
:1056C000FF229A703423FB1800221A700023FB6318
:1056D0007B681B88102B1DD07B689B883C22BA18E6
:1056E00002211800FFF71AF803007B657B6D002B81
:1056F00010D1FA6BBA4913005B009B189B00CB18C2
:105700000B331A783423FB189A70FB6BDAB234230C
:10571000FB185A707B681B88103B422B01D900F0A4
:10572000FFFB9A00AF4BD3181B689F463C23FB1826
:105730001800FFF725F903007B657B6D002B01D076
:1057400000F0F0FB5323FB1801221A702823FB18EA
:1057500011221A70FB6BDAB23423FB185A70FA6B01
:105760007B6898889E4913005B009B189B00CB18B0
:105770000833021C1A80FA6B994913005B009B18CE
:105780009B00CB180A3302221A70FA6B944913005B
:105790005B009B189B007A68CB180832116819606F
:1057A0009188998092799A717B68DB7D0122134000
:1057B000DBB2002B15D07B68DB7D1B065B0EDBB2FA
:1057C0001A00894B9B5CFF2B15D07B68DB7D1B0689
:1057D0005B0EDBB21A00844B9B5CBB6300237B65D2
:1057E00009E07B680833814A382179181800FFF7EF
:1057F00071F803007B657B6D002B00D092E3FA6BA0
:10580000BB6BD8B2764913005B009B189B00CB188A
:105810000B33021C1A70FA6BF96B71480B005B00BA
:105820005B189B00C3180A331B7808210B43D8B2BE
:105830006B4913005B009B189B00CB180A33021CBA
:105840001A70BB6BDAB23423FB189A703423FB183E
:105850001800FFF7BFFE65E3FA6BF96B60480B00B9
:105860005B005B189B00C3180A331B7802218B4333
:10587000D8B25B4913005B009B189B00CB180A331E
:10588000021C1A70FA6B564913005B009B189B00B0
:10589000CB180A331B781A000823134012D0FA6B76
:1058A0004F4913005B009B189B00CB180A331B78F1
:1058B0005BB2002B15DA3423FB1800211800FFF728
:1058C000B1F80EE03423FB189B78FF2B09D034236A
:1058D000FB189B781800FEF7D1FE3423FB18FF223B
:1058E0009A70FA6B3E4913005B009B189B00CB1823
:1058F0000A3310221A705323FB1801221A7028232E
:10590000FB1812221A7012E3FA6B354913005B0080
:105910009B189B00CB180B331B78FF2B38D17B686F
:105920001A8A3823FB1819000020FEF7D3FF030062
:105930007B657B6D002B2BD1FA6BBB6BD8B22849F2
:1059400013005B009B189B00CB180B33021C1A70D2
:10595000FA6BF96B22480B005B005B189B00C318C5
:105960000A331B7808210B43D8B21D4913005B0092
:105970009B189B00CB180A33021C1A70BB6BDAB25F
:105980003423FB189A703423FB181800FFF722FE0B
:10599000FA6B134913005B009B189B00CB180B3369
:1059A0001B78FF2B07D0FA6B1300DB009B1A9B00C0
:1059B0000F4A9B18BB647B689888FA6B1300DB0066
:1059C0009B1A9B000B4A9A18B96C0023FEF7C0FD86
:1059D00003007B65ABE2C046B306002084060020CE
:1059E00078060020F4EA0000B4060020FFFF000063
:1059F00038060020740500202823FB1813221A7093
:105A0000FA6BF96BEC480B005B005B189B00C3184A
:105A10000A331B7804210B43D8B2E74913005B001B
:105A20009B189B00CB180A33021C1A705323FB18D7
:105A300001221A70FA6BE04913005B009B189B006F
:105A4000CB180B331B78FF2B73D1FA6B13005B0061
:105A50009B189B00D84A9A183823FB18110018008D
:105A6000FEF7A4FE03007B657B6D002B11D1BB6BA1
:105A7000DAB23423FB189A70FA6BBB6BD8B2CE49FA
:105A800013005B009B189B00CB180B33021C1A7091
:105A900005E07B6DFB645323FB1801221A70082379
:105AA000FB1800221A61FA6BC34913005B009B18B4
:105AB0009B00CB180B331B781A001300DB009B1ADA
:105AC0009B00BE4A9A180823FB185A610823FB184A
:105AD00000229A610823FB180022DA61FA6B130096
