:020000021000EC
:10B0000000800020E59002002591020027910200B7
:10B010000000000000000000000000000000000030
:10B020000000000000000000000000002991020064
:10B0300000000000000000002B9102002D91020092
:10B040002F9102002F91020011390200A569020020
:10B050002F910200000000006132020061900200A6
:10B060002F9102002F9102002F9102002F910200D8
:10B070002F9102002F9102002F9102002F910200C8
:10B080002F910200517902002F9102002F910200AE
:10B090009D7902002F910200AD8B02002F910200DA
:10B0A0002F9102002F91020000000000000000001C
:10B0B0000000000000000000000000000000000090
:10B0C00010B5064C2378002B07D1054B002B02D07E
:10B0D000044800E000BF0123237010BDAC21002014
:10B0E00000000000A8CB0200084B10B5002B03D0D5
:10B0F0000749084800E000BF07480368002B00D15B
:10B1000010BD064B002BFBD09847F9E7000000006C
:10B11000B0210020A8CB0200A821002000000000E0
:10B12000164B002B00D1144B9D46402292029A1AD6
:10B13000924600218B460F461348144A121A00F01B
:10B1400067F80F4B002B00D098470E4B002B00D018
:10B1500098470020002104000D000D48002802D06F
:10B160000C4800E000BF00F02DF82000290002F09C
:10B17000C1FC00F011F8C04600000800008000206B
:10B180000000000000000000AC210020303300204F
:10B190000000000000000000084B10B50400002B68
:10B1A00002D0002100E000BF054B1868836A002B25
:10B1B00000D09847200001F0FDFEC04600000000CE
:10B1C00054BA02000E4B70B500251E000D4CE41A57
:10B1D000A410A54204D0AB00F35898470135F8E716
:10B1E00010F02AFC084B00251E00084CE41AA4109D
:10B1F000A54204D0AB00F35898470135F8E770BD7D
:10B20000A0210020A0210020A0210020A4210020B6
:10B2100003008218934202D019700133FAE7704795
:10B22000F0B58BB014001D1E129906DA8024240696
:10B230001B191D0014002D2300E000230B70202398
:10B24000149E03229E43462E07D03300453B5942AD
:10B250004B411099013ACB18109309AB049308ABFA
:10B260000393139B00920293109B220001932B00E7
:10B2700000F0DAFC0700472E02D1119BDB072DD529
:10B28000109BFB180793462E14D13B78302B0CD122
:10B2900000220023200029000EF0A2F9002804D18A
:10B2A0000123109A9B1A139A1360139B079A1B6829
:10B2B000D318079300220023200029000EF090F9F4
:10B2C0003022002802D0079B099307E0099B0799C9
:10B2D000994203D9591C09911A70F7E73800099B64
:10B2E000159ADB1B13600BB0F0BDF7B52B230700DD
:10B2F0000C000270861C002901DA2D234C427B7061
:10B30000092C1CDD6B46DD1D20000A210EF052F9D0
:10B31000013D3031297020000A210EF065F804004B
:10B320000928F1DC013D30342C706B4607333000C6
:10B33000AB4209D92B78013533700136F5E730235C
:10B34000E4183370B01C7470C01BFEBDF0B595B02E
:10B350000C000A920B931A9D099001F02BFA0368D6
:10B3600018000D9300F0D2FB0023129323680E9077
:10B370000C930C99277E2B680722C90501D59B18D1
:10B3800000E0073393431A0008322A601A685B68AA
:10B39000A264E3640122E56CA66C6B005B080F936A
:10B3A0005242C04B30000F9910F024F8002819D1F8
:10B3B0000122BC4B524230000F990EF021F90028B7
:10B3C00010D100220023300029000EF00FF90028D0
:10B3D00003D023002D2243331A70B34D472F0ED8CC
:10B3E000B24D0CE032002B003000290010F002F8C2
:10B3F000002800D19AE1AE4D472F00D8AD4D032370
:10B400000C9A236101339A432260002642E0672FA1
:10B4100000D193E1472F00D190E10C9A0021134312
:10B4200012AA059211AA0392232223600691019386
:10B4300008A9636852180292009332002B00049707
:10B440000998FFF7EDFE20233A0005009A43472AAA
:10B4500000D18EE11199652F00D996E120000139C4
:10B460003A0050301191FFF740FF129A06008318FE
:10B470002361012A00DD85E12268D20700D581E140
:10B48000232308AA9B181B78002B03D023002D220E
:10B4900043331A700B9B13AA009321000A9B09984F
:10B4A00000F0A4F9431C02D1012040429BE1226834
:10B4B000530501D4236964E0652F00D8CCE0A06C6B
:10B4C000E16C002200230EF08BF800282CD0012321
:10B4D000794A0A9909980B9DA847431CE4D0119B0F
:10B4E000129A934208DB2368DB0705D42368002502
:10B4F0009B0700D50FE113E10B9D0E9B0D9A0A9956
:10B500000998A8470025431CCED0129B013B9D42C1
:10B51000ECDA220001231A320A9909980B9EB047EF
:10B52000431CC1D00135F0E7119B002B2BDC01231C
:10B53000614A0A9909980B9EB047431CB4D0119BED
:10B54000002B05D1129B002B02D12368DB07CDD540
:10B550000B9E0E9B0D9A0A990998B0470026431C32
:10B56000A2D0119B5B429E420ADA220001231A32CA
:10B570000A9909980B9FB847431C95D00136F0E70C
:10B58000129B2A00ACE0A36D129E9E4200DD1E00BD
:10B59000002E05DC00230C93F343DB170F9315E01B
:10B5A00033002A000A9909980B9FB847431CF1D130
:10B5B0007AE7220001231A320A9909980B9FB847AB
:10B5C000431C00D170E70C9B01330C930F9BA26DC1
:10B5D0000C993340D31A9942EBDBAE18119B129AA7
:10B5E00093420DDB2368DB070AD4129B119AED18F6
:10B5F000AD1B9B1A9D4200DD1D00002D09DC11E0F2
:10B600000E9B0D9A0A9909980B9FB847431CECD1E1
:10B610004AE72B0032000A9909980B9EB047431C59
:10B6200000D141E7EF43FB1700260C930AE022000C
:10B6300001231A320A9909980B9FB847431C00D17D
:10B6400032E70136119A129B0C999B1A2A000A4084
:10B650009B1A9E42EBDB49E7129B012B02DC012384
:10B660001A4245D001232A000A9909980B9FB8472E
:10B67000431C00D118E70E9B0D9A0A9909980B9F5D
:10B68000B847431C00D10FE7A06CE16C00220023F7
:10B690000DF0A6FF002801D000251AE0129B6A1CBD
:10B6A000013B26E0FFFFEF7F5CBA020058BA0200C0
:10B6B00064BA020060BA020068BA020022000123E4
:10B6C0001A320A9909980B9FB847431C00D1EBE640
:10B6D0000135129B013B9D42F0DB220033005032CA
:10B6E0000A9909980B9DA847431C00D0FEE6DBE6AB
:10B6F0002A000A9909980B9DA847431CEDD1D3E66F
:10B700002200012319320A9909980B9EB047431C65
:10B7100000D1C9E60135E368139A9B1A9D42EFDB1D
:10B72000139BE06898425EDA18005CE08023626850
:10B73000DB00511C00D06AE6073202E0002A02D189
:10B740000122626069E60C9908A80B43002106916A
:10B7500012A9059111A903912321091823600193CE
:10B7600000922B000497029132000998FFF758FDD0
:10B770000500119BDA1C02DB626893421CDD023F6C
:10B78000FFB267E6013323617AE6662F15D163685D
:10B79000002909DD2161002B02D12268D2071ED5C4
:10B7A0000133591821611AE0002B03D101222168CD
:10B7B000114213D09A1C11E06727119B129A9342F1
:10B7C00006DB22682361D20709D50133236106E035
:10B7D0000121002B01DC4918C91A8A182261119B2A
:10B7E0000026A3654CE615B0F0BDC046F7B51700BE
:10B7F00001938A680B6900900C00934200DA1300F1
:10B8000022003B6043321278002A01D001333B60B2
:10B8100023689B0602D53B6802333B6006252368FC
:10B820001D401ED0230043331B785A1E93412268CB
:10B8300092061CD53020E1184331087021005A1CB3
:10B8400045310978A2184332023311700FE022000B
:10B850000123193201990098089EB047431C0ED06D
:10B860000135E3683A689B1A9D42F0DBDAE7220073
:10B87000019943320098089DA847431C02D101203A
:10B88000404220E006232068E1683A680340002532
:10B89000042B03D18D1AEB43DB171D40A3682269EB
:10B8A000934201DD9B1AED180027BD420AD0220009
:10B8B00001231A3201990098089EB047431CDED03C
:10B8C0000137F2E70020FEBDF0B58BB006920A000A
:10B8D00043320793059004920A7E0C00109B6E2A57
:10B8E00000D1ABE011D8632A22D009D8002A00D1B8
:10B8F000B5E0582A00D0C5E045310A70814A4FE0D2
:10B90000642A1DD0692A1BD0BCE0732A00D1AAE0AA
:10B9100009D86F2A29D0702A00D0B3E02022096804
:10B920000A43226037E0752A1FD0782A33D0A9E075
:10B930000E001A684236111D196013683370A4E0B6
:10B9400021681A68080606D4490604D5111D196035
:10B950000023D55E02E0111D19601568002D3BDA49
:10B960002D23049A6D42137036E021681A68080688
:10B9700006D4490604D51568111D1960ADB202E060
:10B98000111D196015685F4B227E039308276F2AEB
:10B990001DD00A271BE022007821453211705A4A37
:10B9A00019680392081D226818600D68100602D4F9
:10B9B000500600D5ADB2D30702D520231A4322602A
:10B9C0001027002D03D1202322689A4322602300F0
:10B9D000002243331A7002E00A274A4B039363683C
:10B9E000A360002B09DB0422216891432160002D14
:10B9F00005D1049E002B11D07BE0002D79D0049E50
:10BA0000280039000DF0ECFC039B013E5B5C280034
:10BA1000337039000DF05EFC051EF1D1082F09D1FD
:10BA20002368DB0706D563682269934202DC302372
:10BA3000013E3370049B9B1B23612BE009681A684D
:10BA4000080607D4490605D5111D19601368A28A96
:10BA50001A8004E0111D1960136862691A600023DE
:10BA6000049E236116E01A68111D196016680021F2
:10BA70006268300000F0ACFE002801D0801B6060DE
:10BA8000636803E0260042363270012323610023FD
:10BA9000049A1370079B09AA00932100069B05983E
:10BAA000FFF7A4FE431C02D10120404227E0236996
:10BAB000320006990598079DA847431CF4D02368D7
:10BAC00000259B070FD4099BE068984217DA1800FD
:10BAD00015E022000123193206990598079EB04708
:10BAE000431CE1D00135E368099A9B1A9D42F0DBC3
:10BAF000E9E72600039B42361B7833708EE70BB0D4
:10BB0000F0BDC0466ABA02007BBA02000023C25CE4
:10BB10000133002AFBD1581E7047F0B503690C6948
:10BB200089B00700059100269C4279DC0B00013C9E
:10BB30001433A50003935B19049303001433029399
:10BB40005D19049B28681B68591C01930DF0C2FB0A
:10BB50000190B04233D0039B02989C460696634600
:10BB600004CB9C46019B91B25943120C5A4389194C
:10BB70000B0CD3180793069A1E0C038889B29B18E6
:10BB800002685B1A110C6A46928B8A1A19145218B1
:10BB900011149BB21204134308C0049B0691634521
:10BBA000DDD22B68002B0AD1029B043DAB4201D3AE
:10BBB0003C6104E02B68002BFAD1013CF4E70599C5
:10BBC000380001F029F8002829DB0020019B0299A8
:10BBD0000133039A019340CA0B881818B3B2C31AF1
:10BBE0000868360C000C801B1D14451928149BB2E4
:10BBF0002D042B4308C1049B9342ECD2029AA3006C
:10BC0000D3181A68002A0AD1029A043B9A4201D337
:10BC10003C6104E01A68002AFAD1013CF4E7019E75
:10BC2000300009B0F0BD0000F0B516001F00446AF6
:10BC30009DB00490259D06960797002C08D11020F2
:10BC400000F0BCFD049B5862446084600460C460E2
:10BC5000049B5B6A196800290BD05A680123934042
:10BC60004A608B60049800F0FFFD0022049B5B6A31
:10BC70001A60079B002B05DA01232B607B005B0811
:10BC8000079301E000232B60079CC84B2200199307
:10BC90001A409A4219D1C64B249A1360069AC54B92
:10BCA000002A02D1240300D1C34B269A1800002A8F
:10BCB00001D100F07DFDD978DA1C002900D00532D1
:10BCC000269918000A6000F073FD069E079F002267
:10BCD0000023300039000DF083FC051E0ED0012337
:10BCE000249A1360B54B269A1800002A01D100F05F
:10BCF0005FFDB34A26990A6000F05AFD1AAB019322
:10BD00001BAB009332003B00049801F00BF863007A
:10BD100005905B0D09D03A03AA4C120B1443AA4AB2
:10BD2000300021009E1817951AE01A9B1B9A9E1846
:10BD3000A64BF318202B08DDA54A0698B218D04070
:10BD40004022D31A9C40204303E020220698D31AB5
:10BD500098400FF0E7FB01239E4C013E0919179311
:10BD600000229D4B0EF0F2FF9C4A9D4B0EF074FD9D
:10BD70009C4A9D4B0DF020FE040030000D000FF09A
:10BD80008FFB9A4A9A4B0EF067FD02000B002000D1
:10BD900029000DF011FE04000D000FF04BFB0022F6
:10BDA00003900023200029000DF020FC00280DD076
:10BDB00003980FF075FB02000B00200029000DF026
:10BDC0000FFC43424341039AD31A03930123169372
:10BDD000039B162B11D88749DB00C91808684968EE
:10BDE000069A079B0DF016FC002805D0039B013B2B
:10BDF00003930023169300E016901A9B9E1B0023CA
:10BE00000B93013E0C9604D50C9B5B420B930023D5
:10BE10000C93039B002B08DB039A0C9B9446634412
:10BE20000C9300231192089307E00B9B039A9B1A33
:10BE30000B935342089300231193229B0125092B56
:10BE400025D8052B02DD0025043B2293229B981E5A
:10BE5000032824D80DF034FA060E0204012302E070
:10BE6000012308E000231093239B002B20DD1F00FB
:10BE70000A9321E00023239A1093039B9F187B1CB5
:10BE80000A930123FA18002A16DD130014E0012793
:10BE900000237F42229310950A97123305E0012771
:10BEA00001237F4210930A9711330022239203E06B
:10BEB00001273B000A972397049A546A0022626084
:10BEC000043211001431994204D8616852000131E2
:10BED0006160F6E76168049800F08EFC049B2060C6
:10BEE0005B6A1B680D930A9B0E2B00D981E1002D24
:10BEF00000D17EE1069B079C14931594039B002BB5
:10BF000031DD0F223B491340DB00CB185C681B6816
:10BF10000E930F94039B02241D11EB060AD514986F
:10BF20001599354B15401A6A5B6A0EF071F8069048
:10BF300007910134304E002D0ED001231D4208D050
:10BF40000E980F99E418326873680EF085FC0E9015
:10BF50000F916D100836EEE70E9A0F9B0698079921
:10BF60000EF056F84CE0039B02245D42002D49D0B0
:10BF7000149815990F231F4A2B40DB00D3181A6819
:10BF80005B680EF069FC0023069007911A4E2D1194
:10BF9000002D33D00122154205D0A41832687368F1
:10BFA0000EF05AFC01236D100836F1E70000F07F17
:10BFB0000F27000095BA02008CBA020068BA02008E
:10BFC00069BA02000000F03F01FCFFFF32040000EC
:10BFD00012040000000010FE0000F83F61436F6390
:10BFE000A787D23FB3C8608B288AC63FFB799F5092
:10BFF0001344D33FA8BA020080BB0200002B01D03B
:10C0000006900791169B002B1DD0069D079E0022CF
:10C01000C74B280031000DF0E9FA002813D00A9B25
:10C02000002B10D0002F00DCDFE0039B3100013B30
:10C030000E930022BF4B28000EF00EFC0134069038
:10C0400007913E0002E0039B0A9E0E9320000FF032
:10C0500027FA069A079B0EF0FFFB0022B64B0DF065
:10C06000ABFCB64A12901391129C139D9446139BFD
:10C07000634418931D00002E1CD1069807990022D6
:10C08000AF4B0EF063FE2200189B069007910DF057
:10C09000C1FA002800D054E2AA48139984466144AA
:10C0A0000B000698079922000DF0A0FA002800D096
:10C0B0003DE29AE0109A731EA349DB00002A49D0A2
:10C0C000CB181A685B680020A0490DF0A1FF2B0077
:10C0D00022000EF03BFE129013910D9D06980799D9
:10C0E0000FF0A8F904000FF0DBF902000B0006982E
:10C0F00007990EF02BFE01356B1E30341C70129A1E
:10C10000139B069007910DF071FA002800D02EE3E2
:10C11000069A079B002086490EF018FE129A139B80
:10C120000DF064FA002800D0C7E00D9BEB1AB34273
:10C130005BDA1298139900227E4B0EF08DFB0022E1
:10C1400012901391069807997A4B0EF085FB069092
:10C150000791C3E7C9182200086849682B000EF050
:10C160007BFB0D9C12901391A519069807990FF06F
:10C1700061F906000FF094F902000B000698079988
:10C180000EF0E4FD3036267001340690079100224F
:10C19000A54222D16D4B129813990DF00DFC0200AF
:10C1A0000B00069807990DF035FA002800D084E0BE
:10C1B000129A139B002065490EF0C8FD02000B0087
:10C1C000069807990DF012FA00280ED06B1E1A7807
:10C1D000302A00D0CBE21D00F8E706980799554BAE
:10C1E0000EF03AFB06900791BFE7149B159C06934F
:10C1F00007941B9B002B00DA81E0039A0E2A00DDD6
:10C200007DE0D300504AD3185C681B6808930994FA
:10C21000239B002B15DA0A9B002B12DC00D088E14F
:10C22000089809990022464B0EF016FB069A079BC8
:10C230000DF0FAF90A9B08931E00002800D07BE15C
:10C2400082E10D9D069E079F089A099B30003900E8
:10C250000DF0DEFE0FF0EEF804000FF021F9089A61
:10C26000099B0EF0F9FA02000B00300039000EF0C5
:10C270006DFD220001356B1E30321A700D9B0A9A3B
:10C28000EB1A9A422ED102000B000DF095FB06002E
:10C290000F0002000B00089809990DF0A7F900287B
:10C2A0000FD10898099932003B000DF099F9002848
:10C2B00000D15EE2E30704D45BE20E9B039300E04F
:10C2C0001D006B1E1A78392A08D10D9A9A42F7D1AF
:10C2D000039A0D990132039230220A701A780132C2
:10C2E0001A7046E20022134B0EF0B6FA0022002329
:10C2F00006000F000DF074F90028A5D039E2109A5D
:10C30000002A44D0229A012A0BDC179A002A02D074
:10C310000F4A9B1802E036231A9A9B1A089D0B9C21
:10C3200029E00A9B5D1E089BAB4213DB5D1B18E0F6
:10C330000000F03F0000244000001C400000C0FC52
:10C34000000014400000C07CA8BA02000000E03FDA
:10C3500033040000089B0895EA1A0025119B9B18DE
:10C3600011930A9B002B04DA0B9B0A9A9C1A002358
:10C3700001E00B9C0A9B0B9A0121D2180B920C9A9C
:10C380000498D3180C9300F00FFB060002E0089D00
:10C390000B9C109E002C0ED00C9B002B0BDD0C9ADE
:10C3A0002300944200DD13000B9AE41AD21A0B9278
:10C3B0000C9AD31A0C93089B002B20DD109B002BAA
:10C3C00017D0002D11D031002A00049800F07EFB18
:10C3D000059A01000600049800F0EFFA05990E9006
:10C3E000049800F041FA0E9B0593089B5A1B06D057
:10C3F00000E0089A0599049800F068FB0590012177
:10C40000049800F0D1FA119B0890002B00D1C0E1F4
:10C410001A000100049800F059FB229B0890012BA0
:10C4200017DC0025069BAB420ED1079B1B03AB42DA
:10C430000AD1199B079A134206D00B9B0135013391
:10C440000B930C9B01330C93119B0120002B0DD0FF
:10C4500000E00025089B089A1B690E9303339B009C
:10C46000D318586800F056FA2023181A0C9BC018ED
:10C470001F23184009D001331B1A042B02DD1C2393
:10C48000181A03E0042B08D018001C300B9B24184A
:10C490001B180B930C9B1B180C930B9B002B05DD9F
:10C4A0001A000599049800F065FB05900C9B002B81
:10C4B00005DD1A000899049800F05CFB0890169BB3
:10C4C000002B1DD00899059800F0A6FB002817DA6C
:10C4D000039B0A22013B039305990023049800F073
:10C4E000DCF9109B0590002B00D159E131000023AD
:10C4F0000A22049800F0D1F90600002F37DC33E05F
:10C500000A9B0A9F002B2ADC229B022B27DD002F8F
:10C5100012D108993B000522049800F0BEF908905A
:10C520000100059800F078FB00280DDC04E0089677
:10C5300002E000231E000893239B0D9DDB43039321
:10C540000AE00E9B089603930D9B0D9A5D1C312308
:10C550001370039B013303930A960026F3E0109BAC
:10C56000002B04D10D9DB5E0229B022BCFDC002CCB
:10C5700005DD31002200049800F0FCFA06000A965E
:10C58000002D12D07168049800F036F931000400D3
:10C5900033690C319A1C92000C3000F024F901220E
:10C5A0002100049800F0E6FA0A900D9B7D1E0B9383
:10C5B0005B190E9308990598FFF7AFFA31001090B8
:10C5C0000400059800F028FB0A9A050008990498D1
:10C5D00000F03DFB01230C93C36830340700002BAF
:10C5E00004D10100059800F017FB0C903900049865
:10C5F00000F03AF90C9B229A134308D1069A0133B2
:10C60000134204D1392C2AD0002D1CDC1DE0002D52
:10C6100006DB229B1D431BD10123069A134217D12F
:10C620000C9B002B11DD05990122049800F0A2FA61
:10C630000899059000F0F0FA002802DC05D1E30724
:10C6400003D5392C0BD0109C31340B9B5D1C0FE0B3
:10C650000B9B5F1C0C9B002B0CDD392C05D10B9B1D
:10C660000B9A5D1C3923137057E03D000B9B01347E
:10C670001C7068E00B9B0E9A3D001C7093423CD0EE
:10C6800000230A220599049800F007F90A9B0590F7
:10C690009E4208D1310000230A22049800F0FDF8E0
:10C6A00006000A900DE0310000230A22049800F0F1
:10C6B000F4F8002306000A220A99049800F0EDF825
:10C6C0000A900B9776E700230A220599049800F058
:10C6D000E4F8059008990598FFF71FFA0D9B303094
:10C6E000287001350400EB1ABB42ECDB3D1E00DC78
:10C6F00001250A9600260D9B5D19059901220498D3
:10C7000000F038FA0899059000F086FA002804DC59
:10C7100013D1E30701D410E01D006B1E1A78392AEB
:10C7200008D10D9A9A42F7D1039B01330393312329
:10C73000137008E001321A7005E06B1E1A78302A77
:10C7400001D11D00F9E70899049800F08DF80A9BC3
:10C75000002B0ED0002E05D09E4203D0310004984D
:10C7600000F082F80A99049800F07EF801E00E9B30
:10C7700003930498059900F077F800232B70039B2E
:10C78000249A01331360269B0D98002B10D01D6056
:10C790000EE0229B012B00DC43E6119D012065E6A3
:10C7A000002F00DDDEE6229B022B00DCDAE6AEE69F
:10C7B0001DB0F0BD00487047E420002010B5034BC9
:10C7C0000100186800F05CFB10BDC046E0200020AE
:10C7D000C9B28218904204D003788B4202D0013053
:10C7E000F8E700207047002310B59A4203D0CC5CD4
:10C7F000C4540133F9E710BD70B5466A04000D005A
:10C80000002E07D11020FFF7D9FF606246608660D6
:10C810000660C660666AF368002B09D0636AAA00E6
:10C82000DB689B18186800280ED002681A6017E0B1
:10C8300021220421200000F0C9FA636AF060DB685D
:10C84000002BEBD100200EE001210E00AE40721D46
:10C850009200200000F0BAFA0028F3D0456086600C
:10C8600000230361C36070BD70B5456A06000C000B
:10C87000002D07D11020FFF7A1FF70624560856091
:10C880000560C560002C07D0726A6368D2689B009F
:10C89000D3181A6822601C6070BDF7B50700080045
:10C8A0000C000D691E00002101921430019A0388CA
:10C8B000013153439B190668360C56431A0C9446B3
:10C8C000B4446246160C120494469BB2634408C0FA
:10C8D0008D42EBDC002E1BD0A3689D4212DB636807
:10C8E0003800591CFFF788FF2100236901909A1C2A
:10C8F00092000C310C30FFF776FF21003800FFF773
:10C90000B3FF019C2B1D9B00E31801355E60256180
:10C910002000FEBD00220300010C914201D103045E
:10C920001032190E01D108321B02190F01D1043245
:10C930001B01990F01D102329B001000002B03DB79
:10C9400020205B0000D5501C70470722036810B5FB
:10C9500001001A400CD001240020234223D10222DE
:10C96000134203D0E34020000B601CE09B0818E05A
:10C9700098B2002801D110221B0CD8B2002801D196
:10C9800008321B0A180701D104321B09980701D18C
:10C9900002329B08D80704D45B082020002B02D069
:10C9A000013210000B6010BD10B50C000121FFF723
:10C9B00023FF01234461036110BDF0B50B6914002E
:10C9C000126989B00D00934201DA25000C002F692D
:10C9D0002669AA68BB1969680193934200DD013199
:10C9E000FFF70AFF0200BB1914329B00D3189C46C4
:10C9F000002113000290634501D202C3FBE7143506
:10CA0000BF00EB191434B6000593A31903950793DF
:10CA1000079B9C4251D2208800281ED0150000267A
:10CA2000039F08CF069504936B461B8A4343190066
:10CA30002B88CB1804999B19090C41432E68360C9E
:10CA400089191E0C89190E0C9BB209040B4308C5E9
:10CA5000059BBB42E5D8069B5E6023681D0C1FD07A
:10CA6000002110001368039F04913E8801686E4303
:10CA7000090C7118049E9BB289190E04334303609C
:10CA800008CF86881B0C6B43090C9B195B18190C8B
:10CA90000491059906900430B942E6D806994B6096
:10CAA00004340432B4E704235B429C4463461B68AD
:10CAB000002B05D1019B013B0193019B002BF2DC74
:10CAC000029B019A18001A6109B0F0BD0323F7B563
:10CAD000134005000E001400002B08D02349013B31
:10CAE0009A00525800233100FFF7D7FE0600A3102A
:10CAF000019338D06C6A002C07D11020FFF75EFE3E
:10CB00006862446084600460C4606F6ABC68002C22
:10CB100010D117492800FFF747FF0023B860040031
:10CB2000036007E0019B5B1001931CD02068002884
:10CB300010D004000122019B1342F3D031002200E7
:10CB40002800FFF73AFF070031002800FFF78CFEAE
:10CB50003E00E7E7220021002800FFF72EFF002318
:10CB600020600360E5E73000FEBDC04670BB0200F8
:10CB700071020000F0B50C0017002369551185B053
:10CB8000EB180193013300934968A3680290009A5F
:10CB9000934202DA01315B00F9E70298FFF72CFEBD
:10CBA00000230200060019001432AB4203DA980099
:10CBB00011500133F9E7EB43DB171D402300AD00B3
:10CBC00055192269143392009A1894461F2217406F
:10CBD00014D00132D21B0392002219682800B940F8
:10CBE0000A4304C504CB0399CA409C45F5D842606A
:10CBF000002A07D0019B0233009303E004CB04C555
:10CC00009C45FBD8009B0298013B33612100FFF754
:10CC10002BFE300005B0F0BD03690A6910B59B1A00
:10CC20000400181E12D1930014341431E218C918EC
:10CC3000043A043913680868834204D083429B4154
:10CC40000120184302E09442F2D3002010BDF0B559
:10CC50000C0085B00700110020001500FFF7DCFF75
:10CC6000061E07D101003800FFF7C6FD012346610B
:10CC7000036155E000230193984204DA23002C005D
:10CC80001D000123019361683800FFF7B5FD019B8A
:10CC900026692F00C3601434B300E3180200029326
:10CCA0002B69002514379B00FB180393143208CC22
:10CCB00069469C4608CF0432009363468B808B887C
:10CCC0005D19009B9BB2EB1A65460193009B2D0CEE
:10CCD000190C019B691A1D14131F9C466B464919B8
:10CCE0009B880D1409040B4361460B60039BBB42F8
:10CCF000DDD8029913008C420BD202CC8BB25B19A7
:10CD00001D14090C49190D149BB209040B4308C2E8
:10CD1000EFE7043B1A68002A01D1013EF9E70661FA
:10CD200005B0F0BDF7B51D000121089F1400FFF705
:10CD300063FD2B036D0006001B0B6D0D02D08022DE
:10CD4000520313430193002C18D068460094FFF758
:10CD5000FCFD009C002809D0019B20211A00091A23
:10CD60008A40C34022437261019300E07461019CD8
:10CD7000B461631E9C410134346107E001A8FFF7F0
:10CD8000E4FD0124019B346173612030002D06D045
:10CD90000B4BED1835232D183D60181A0BE0094B8D
:10CDA000C018094B3860E3189B00F3185869FFF767
:10CDB000B1FD6401201A099B18603000FEBDC04619
:10CDC000CDFBFFFFCEFBFFFFFFFFFF3F4A4370B5E8
:10CDD0001100140000F054F8051E03D022000021B9
:10CDE000FEF716FA280070BD70B50500002944D082
:10CDF0000C1F2368002B00DAE418280000F0B2F8BA
:10CE00001E4A13681100002B02D16360146031E0E8
:10CE1000A3420DD92268A018834203D118685B6829
:10CE20008218226063600C6024E0A24203D81300E1
:10CE30005A68002AF9D11E689819A0420BD12168BE
:10CE4000711858181960824214D11068526841183C
:10CE500019605A600EE0A04202D90C232B6009E051
:10CE600021686018824203D110685268411821601D
:10CE700062605C60280000F076F870BDCC21002074
:10CE8000032370B5CD1C9D43083506000C2D01D23F
:10CE90000C2501E0002D01DBA94202D90C233360EF
:10CEA00048E0300000F05EF8234B1C681A002100B7
:10CEB000002913D00B685B1B0DD40B2B02D90B6020
:10CEC000CC181EE08C4202D1636813601AE04B68F4
:10CED00063600C0016E00C004968E9E7174C236812
:10CEE000002B03D1300000F02BF820602900300027
:10CEF00000F026F8431C18D00323C41C9C43A04216
:10CF00000DD12560300000F02EF8200007220B30F4
:10CF1000231D9043C31A0ED05A42E2500BE0211A4F
:10CF2000300000F00DF8431CEBD10C2330003360CF
:10CF300000F019F8002070BDCC210020C82100208D
:10CF4000002370B5064C05000800236000F00CF8C3
:10CF5000431C03D12368002B00D02B6070BDC0465A
:10CF600050320020704770470E4B10B51A68002AE7
:10CF700001D10D4A1A6069461A681018884206D80D
:10CF80000A490B4C0968A14208D0884206D900F032
:10CF900029F80C2303600120404201E018601000D2
:10CFA00010BDC046D0210020303300201C210020BD
:10CFB000ADDEFECA012110B5494200F001F810BDF6
:10CFC00030B51824062901D1044D00E0044D201C81
:10CFD000291CABBE041C200030BDC046230002004B
:10CFE00026000200014B18687047C046E020002070
:10CFF00076DF7047C04618007ADF7047C0461800D9
:10D000007CDF7047C0461800A9DF7047C046180093
:10D010003CDF7047C046180048DF7047C046180024
:10D0200000B589B0059004910392039B0793124BBE
:10D03000190000200BF0B2FB079B9A68079B1B8826
:10D040009BB21800079B5B680C490093030000200B
:10D050000BF0A4FB0A4B190000200BF09FFB1B23D5
:10D060006B4400221A701B236B4403221A700C209D
:10D0700001F0F0FFFEE7C04610BC020018BC020041
:10D080003CBC020000B58BB0019005AB180008F065
:10D09000B7F903000993099B0893089B002B05D05F
:10D0A000364A089B9F21180009F0E6FD04AB1800E2
:10D0B00008F0CEF903000993099B0793079B002B07
:10D0C00005D02E4A079BA121180009F0D5FD03AB1E
:10D0D000180008F06DF903000993099B0693069B5D
:10D0E000002B05D0254A069BA321180009F0C4FD9A
:10D0F000059A234B1B689A420FD0059B180008F035
:10D1000079FA02001F4B1A601E4A1F4B11001800CB
:10D1100001F0DCF8059A1A4B1A60049A1B4B1B6845
:10D120009A420FD0049B180008F036FB0200184BFF
:10D130001A60174A144B1100180001F00BF9049AF9
:10D14000124B1A60039A134B1B689A420FD0039B31
:10D15000180008F085FA02000F4B1A600E4A0A4BBD
:10D160001100180001F03AF9039A0A4B1A600B4BB0
:10D1700001221A70C0460BB000BDC04644BC02007C
:10D180001C220020282100205432002020220020D0
:10D190002C210020242200203021002018220020F1
:10D1A00082B00190024B01221A70C04602B0704753
:10D1B0001922002000B587B01D4A00230521002058
:10D1C0000AF0F2FB03000593059B0493049B002BDC
:10D1D00005D0184A049BCD21180009F04DFD164AD0
:10D1E000164B012118000AF061FC03000393039B16
:10D1F0000293029B002B05D00E4A029BD1211800FE
:10D2000009F03AFD0E4A0F4B012118000AF04EFCBE
:10D2100003000393039B0193019B002B05D0054A58
:10D22000019BD421180009F027FDC04607B000BDBE
:10D230002822002044BC020085D0010008BC020066
:10D24000A1D101000CBC020000B587B06B461A7872
:10D250000F218A43111C01220A431A706B461A7867
:10D260000F210A40111C10220A431A701F4B18008C
:10D27000FEF74CFC03009AB21C496B461800FFF7FE
:10D28000BFFE03000593059B0493049B002B05D070
:10D29000174A049BE821180009F0EEFC01AB0822B4
:10D2A00000211800FDF7B4FF01AB10221A8001AB7A
:10D2B00028225A8001AB00229A8001ABC82252007A
:10D2C000DA8001AB1800FFF797FE03000593059B7A
:10D2D0000393039B002B05D0054A039BF6211800FE
:10D2E00009F0CAFCC04607B000BDC04680BC0200C1
:10D2F00044BC020010B5054B180000F095FF044B2C
:10D30000180008F0F5FCC04610BDC046543200209D
:10D310007032002000B585B00190019B1B78002B76
:10D3200014D10C4B1B883B211800FFF761FE030052
:10D330000393039B0293029B002B07D0064A1623FC
:10D34000FF331900029B180009F096FCC04605B097
:10D3500000BDC0462021002044BC020000B583B0BF
:10D360000190054A90235900019B180009F084FCA4
:10D37000C04603B000BDC04644BC020000B58BB03F
:10D3800001AB1C2200211800FDF742FF01AB002277
:10D390001A6001ABA02292025A6001ABF022120384
:10D3A0009A6001AB03221A7301AB0022DA8101AB50
:10D3B00000221A7401AB0D4A5A6101AB0C4A9A6102
:10D3C00001AB180003F0E4FC03000993099B0893E8
:10D3D000089B002B07D0074A3823FF331900089B0E
:10D3E000180009F049FCC0460BB000BD15D3010080
:10D3F0005DD3010044BC020000B585B0164880230F
:10D400005B02002219000AF09BFB03000393039BBD
:10D410000293029B002B06D0104AA1235900029BC5
:10D42000180009F029FC0E4880235B020022190035
:10D430000AF086FB03000393039B0193019B002BDF
:10D4400007D0064A4623FF331900019B180009F054
:10D4500013FCC04605B000BDD821002044BC02002A
:10D46000F821002000B585B0002001F0F3FD030095
:10D470000393039B0293029B002B06D0144AA8231C
:10D480005900029B180009F0F7FB01F0C5FF0300EB
:10D490000393039B0193019B002B06D00C4AAA2304
:10D4A0005900019B180009F0E7FBFFF7B1FD0300ED
:10D4B0000393039B0093009B002B06D0044AAC23EC
:10D4C0005900009B180009F0D7FBC04605B000BD0D
:10D4D00044BC020000B585B002006B4607331A70E9
:10D4E0006B4607331B78002B14D0032B00D015E0BC
:10D4F000022001F0AFFD03000393039B0293029B04
:10D50000002B0AD0074AB5235900029B180009F0E6
:10D51000B3FB02E0FFF7A6FF00E0C046C04605B03F
:10D5200000BDC04644BC020000B587B00190019B1D
:10D53000180001F08DF8019B1B88112B30D0522B65
:10D5400033D0102B00D04AE0072001F083FD030008
:10D550000593059B0493049B002B07D0214A842349
:10D56000FF331900049B180009F086FB019B9A8881
:10D570001D4B1A801C4B1888002300220021FFF746
:10D5800043FD03000593059B0393039B002B23D0CE
:10D59000144AC3235900039B180009F06DFB1BE0DC
:10D5A000114B012252421A8019E00F4B18880023B8
:10D5B00000220021FFF728FD03000593059B02933D
:10D5C000029B002B0AD0074A9023FF331900029BCD
:10D5D000180009F051FB01E0C04600E0C046C0461B
:10D5E00007B000BD44BC02002021002000B583B07C
:10D5F0000190019B180004F035FD019B180003F019
:10D60000FDFC019B180001F01BFF019B1800FFF7B8
:10D610008BFF019B180003F0E9F9019A064B1100FA
:10D62000180000F0E3FB019A044B1100180008F009
:10D6300095FAC04603B000BD54320020703200207D
:10D6400000B583B00190019B180006F019FF019B03
:10D65000180003F075FAC04603B000BD00B591B0E4
:10D6600006AA3F4B1000190004231A00FFF7BBF86D
:10D670003C4906A8002348220BF030FA03000F9320
:10D680000F9B0E930E9B002B07D0374AC623FF3308
:10D6900019000E9B180009F0EFFA01AB1A000121E6
:10D6A00000200BF0A5FA03000D930D9B0C930C9B2F
:10D6B000002B07D02C4ACC23FF3319000C9B1800F9
:10D6C00009F0DAFA294B0B930B9B18000BF0E4FAE4
:10D6D00003000D930D9B0A930A9B002B06D0224A50
:10D6E000E72359000A9B180009F0C6FA01AB18009D
:10D6F0000BF0FCFA03000D930D9B0993099B002B83
:10D7000006D0194AE9235900099B180009F0B4FA18
:10D71000174B18000BF02AFA03000D930D9B08938A
:10D72000089B002B06D0104AEB235900089B1800D9
:10D7300009F0A2FA0F4B18000BF028FA03000D9322
:10D740000D9B0793079B002B06D0074AED2359003A
:10D75000079B180009F090FAC04611B000BDC04602
:10D7600084BC0200F023002044BC0200E81F00201B
:10D77000EDD5010041D6010000B587B002006B462F
:10D7800007331A706B4607331B78072B20D00A2B00
:10D7900002D0042B03D033E0FFF764FE30E01A4BD5
:10D7A0001B8813211800FFF723FC03000593059B3A
:10D7B000082B22D0059B0493049B002B1DD0134AF9
:10D7C000F023FF331900049B180009F055FA14E008
:10D7D00003F0E6F903000593059B082B0FD0059B8A
:10D7E0000393039B002B0AD0084AF823FF33190048
:10D7F000039B180009F040FA01E0C04600E0C04673
:10D80000C04607B000BDC0462021002044BC020035
:10D8100000B587B0039002910192019B0593059B8F
:10D82000002B05D0044A0549059B180009F024FA8D
:10D830000023180007B000BD44BC0200090200002C
:10D8400000B58BB002006B4607331A7005AB6A4611
:10D85000073212781A7006F087FF03000993099BBC
:10D860000893089B002B05D0304A3149089B1800CB
:10D8700009F002FA05AB180004F096FA03000993C8
:10D88000099B0793079B002B05D0284A2949079B32
:10D89000180009F0F1F902AB053305220021180048
:10D8A000FDF7B6FC02AB5A7901210A435A7102AB6B
:10D8B0005A7902218A435A7102AB5A7904218A4368
:10D8C0005A7102AB5A7908218A435A7102AB5A79CC
:10D8D00070218A43111C30220A435A7102AB5A79D3
:10D8E0007F210A405A7102AB07229A7102AB1022C3
:10D8F000DA7102AB104A1A6002AB01221A7102AA55
:10D900000E4B1100180004F0F5FA03000993099B6F
:10D910000693069B002B05D0044A0949069B180074
:10D9200009F0AAF9C0460BB000BDC04644BC0200D5
:10D93000230200002602000011D80100D42100209B
:10D940003602000000B59DB00CAB38220021180053
:10D95000FDF75EFC0CAB02221A700CAB01229A7030
:10D960000CAB0622DA700CAB01221A820CAB164A01
:10D970005A6103AB180024231A000021FDF748FC6C
:10D9800003AB01221A7303AB962252001A6103AB58
:10D9900000225A610D4903AA0CA8002300930B0032
:10D9A000002102F063FD03001B931B9B1A931A9B3B
:10D9B000002B06D0064A942399001A9B180009F000
:10D9C0005BF9C0461DB000BD24210020D5D4010064
:10D9D00044BC020000B587B00190194B19491A00E8
:10D9E000032001F053FB03000593059B0493049B64
:10D9F000002B05D0144A1549049B180009F03CF986
:10DA00000B236B441900002001F060FD0300059317
:10DA1000059B0393039B002B05D00B4A0C49039BEA
:10DA2000180009F029F90B236B441B78023B5A427A
:10DA30005341DAB2019B1A70C04607B000BDC04620
:10DA400079D70100CD0C000044BC02005F02000049
:10DA50006202000000B583B0FFF7DEFA0300019315
:10DA6000019B0093009B002B05D0044A0449009BB6
:10DA7000180009F001F9C04603B000BD44BC020023
:10DA80006D02000000B583B001900091019B180069
:10DA900007F052FBC04603B000BDC04610B586B0CB
:10DAA0006B460F4A13CA13C312681A600D4A6946BF
:10DAB0000D48002308F0F0FA03000593059B04933A
:10DAC000049B002B05D0094A0949049B180009F062
:10DAD000D3F8054B180008F059FBC04606B010BD3E
:10DAE00088BC020085DA01003421002044BC020019
:10DAF00089020000F0B597B0FFF75CFB3F236B4451
:10DB00001800FFF767FFFFF7A9FD3F236B441B7861
:10DB10001800FFF795FEFFF797FBFFF713FFFFF7DE
:10DB2000E9FBFFF72BFC514A514B190000200AF08A
:10DB300035FEFFF7B3FF4F4B180007F0E3FB030080
:10DB40001593159B1493149B002B05D04A4A4B49FF
:10DB5000149B180009F090F80323012201210120F1
:10DB600007F0DCFB03001593159B1393139B002B0D
:10DB700005D0414A4249139B180009F07DF807F08F
:10DB800085FC03001593159B1293129B002B06D066
:10DB9000394AAB239900129B180009F06DF8FFF782
:10DBA0002BFC032002F08AFD03001193119B1093BC
:10DBB000109B002B05D0304A3249109B180009F009
:10DBC0005BF8314B1B78DBB2002B42D02F4B1B682C
:10DBD00018000BF0B3FE031C2D49181C0BF04CFD74
:10DBE000031C181C0DF0D6FC06000F00294B1B6807
:10DBF00018000BF0A3FE031C8921C905181C0BF0AB
:10DC00003BFD031C181C0DF0C5FC04000D00224B4D
:10DC10001B6818000BF092FE031C1D49181C0BF02A
:10DC20002BFD031C181C0DF0B5FC02000B001B495A
:10DC300005A8029203930094019532003B000DF079
:10DC40002BFD05AB190000200AF0A8FD0E4B0022A9
:10DC50001A70FFF7FFFE124B1B78DBB2002BB0D01F
:10DC600007F0E6FE0E4B00221A70AAE798BC0200ED
:10DC7000A4BC02003421002044BC0200A602000023
:10DC8000A9020000B2020000182200202821002072
:10DC90000000C8422C21002030210020B8BC020026
:10DCA00019220020A0DF7047C0461800A2DF70478D
:10DCB000C0461800A5DF7047C0461800A6DF7047B1
:10DCC000C046180063DF7047C046180000B58BB02F
:10DCD0000190009104AB02221A8004AB00225A800A
:10DCE00004AB0E226A445A60009BDA88019B1B89B0
:10DCF0009A4221D1019B1888019B1B8904AA190013
:10DD0000FFF7D8FF03000993099B0893089B002B9A
:10DD100005D0324A089B2721180008F0ADFF0E23DA
:10DD20006B441B88012B03D12D4B01221A7052E04A
:10DD30002B4B00221A704EE0009BDA88019B1B8A55
:10DD40009A4221D1019B1888019B1B8A04AA1900C1
:10DD5000FFF7B0FF03000993099B0793079B002B74
:10DD600005D01E4A079B3421180008F085FF0E23BA
:10DD70006B441B88012B03D11A4B01221A702AE035
:10DD8000184B00221A7026E0009BDA88019B1B8B3F
:10DD90009A4220D1019B1888019B1B8B04AA190071
:10DDA000FFF788FF03000993099B0693069B002B4E
:10DDB00005D00A4A069B4121180008F05DFF0E239A
:10DDC0006B441B88012B03D1074B01221A7002E020
:10DDD000054B00221A70C0460BB000BDE0BC02002B
:10DDE0007E3200207F3200208032002000B583B0D8
:10DDF00001900091009B1B88112B09D0502B0CD057
:10DE0000102B00D010E0009B9A88019B1A800BE039
:10DE1000019B012252421A8006E0009A019B1100E8
:10DE20001800FFF753FFC046C04603B000BDC04610
:10DE300000B595B001900023139311AB01229A70A5
:10DE400011AB4E4A1A800AAB1C2200211800FDF7C4
:10DE5000DFF90AAB1A7802210A431A7009AB0322D0
:10DE600000211800FDF7D4F909AB1A780F218A4375
:10DE7000111C01220A431A7009AB1A780F210A40BB
:10DE8000111C10220A431A7009AB5A780F218A43D9
:10DE9000111C01220A435A7009AB5A780F210A401B
:10DEA000111C10220A435A7009AB9A7806218A4342
:10DEB000111C02220A439A700AAB09AA5A610AABE2
:10DEC0001A7810210A431A7008AB032200211800A7
:10DED000FDF79EF908AB9A7806218A43111C0222AD
:10DEE0000A439A7008AB1A780F218A43111C012249
:10DEF0000A431A7008AB1A780F210A40111C10222D
:10DF00000A431A7008AB5A780F218A435A7008AB3B
:10DF10005A780F210A405A7003AB142200211800CE
:10DF2000FDF776F903AB11AA1A6003AB08AA5A6091
:10DF300003AB04229A8103AB04221A8102AB0022B4
:10DF40001A6003AB02AA1A61019B5888019B143323
:10DF500003AA0AA9FFF7AAFE03001393139B1293C7
:10DF6000129B002B05D0064A129B8D21180008F049
:10DF700083FE0023180015B000BDC0465EE5FFFF1C
:10DF8000E0BC020000B595B001900023139311ABE3
:10DF900001229A7011ABD222FF321A800AAB1C22E6
:10DFA00000211800FDF734F90AAB1A7802210A4360
:10DFB0001A7009AB032200211800FDF729F909ABFB
:10DFC0001A780F218A43111C01220A431A7009ABE7
:10DFD0001A780F210A40111C10220A431A7009AB4B
:10DFE0005A780F218A43111C01220A435A7009AB47
:10DFF0005A780F210A40111C10220A435A7009ABAB
:10E000009A7806218A43111C02220A439A700AABAD
:10E0100009AA5A610AAB1A7810210A431A7008AB90
:10E02000032200211800FDF7F3F808AB9A780621C7
:10E030008A43111C02220A439A7008AB1A780F21F6
:10E040008A43111C01220A431A7008AB1A780F2167
:10E050000A40111C10220A431A7008AB5A780F218B
:10E060008A435A7008AB5A780F210A405A7003ABA2
:10E07000142200211800FDF7CBF803AB11AA1A6097
:10E0800003AB08AA5A6003AB04229A8103AB0422B3
:10E090001A8102AB00221A6003AB02AA1A61019B2B
:10E0A0005888019B0C3303AA0AA9FFF7FFFD030060
:10E0B0001393139B1293129B002B05D0044A129BBF
:10E0C000C121180008F0D8FD0023180015B000BDCC
:10E0D000E0BC020000B595B001900023139311AB92
:10E0E00001229A7011AB4E4A1A800AAB1C22002101
:10E0F0001800FDF78DF80AAB1A7802210A431A704E
:10E1000009AB032200211800FDF782F809AB1A7849
:10E110000F218A43111C01220A431A7009AB1A7895
:10E120000F210A40111C10220A431A7009AB5A78B9
:10E130000F218A43111C01220A435A7009AB5A78F5
:10E140000F210A40111C10220A435A7009AB9A7819
:10E1500006218A43111C02220A439A700AAB09AABB
:10E160005A610AAB1A7810210A431A7008AB0322CD
:10E1700000211800FDF74CF808AB9A7806218A4375
:10E18000111C02220A439A7008AB1A780F218A43A5
:10E19000111C01220A431A7008AB1A780F210A4099
:10E1A000111C10220A431A7008AB5A780F218A43B7
:10E1B0005A7008AB5A780F210A405A7003AB1422E8
:10E1C00000211800FDF724F803AB11AA1A6003AB75
:10E1D00008AA5A6003AB04229A8103AB04221A8175
:10E1E00002AB00221A6003AB02AA1A61019B588895
:10E1F000019B043303AA0AA9FFF758FD03001393F8
:10E20000139B1293129B002B05D0064A129BF521FB
:10E21000180008F031FD0023180015B000BDC046FD
:10E22000AEEEFFFFE0BC020000B58BB0019002AA89
:10E23000234B1000190010231A00FEF7D4FA06AB86
:10E24000204A1A8006AB9A1C02AB11001800FFF797
:10E2500039FD03000993099B0893089B002B06D006
:10E26000194A84235900089B180008F005FD019BFA
:10E27000012252421A80019B9A1C06AB1900012010
:10E28000FFF710FD03000993099B0793079B002BE1
:10E2900006D00D4A88235900079B180008F0ECFCB3
:10E2A000019B1800FFF716FF019B1800FFF76AFE9D
:10E2B000019B1800FFF7BCFDC0460BB000BDC04677
:10E2C00024BD02000DF0FFFFE0BC020000B589B0E4
:10E2D00001900091019B1B881B4A934231D01B4B3C
:10E2E0001B78DBB2002B2CD01A236B4404221A803B
:10E2F00002AB102200211800FCF78AFF019B9A88CC
:10E3000002AB1A8002AB01229A7002AB00229A8003
:10E3100002AB1A226A449A6002AB009ADA60019B4F
:10E320001B8802AA11001800FFF7C8FC030007931E
:10E33000079B002B05D0079A054B190000200AF017
:10E340002DFAC04609B000BDFFFF00007E3200205C
:10E3500034BD020000B589B001900091019B1B887B
:10E360001B4A934231D01B4B1B78DBB2002B2CD0C5
:10E370001A236B4404221A8002AB102200211800D9
:10E38000FCF746FF019B9A8902AB1A8002AB01227F
:10E390009A7002AB00229A8002AB1A226A449A60F9
:10E3A00002AB009ADA60019B1B8802AA11001800D8
:10E3B000FFF784FC03000793079B002B05D0079A07
:10E3C000054B190000200AF0E9F9C04609B000BD6C
:10E3D000FFFF00007F3200204CBD020000B589B075
:10E3E00001900091019B1B881B4A934231D01B4B2B
:10E3F0001B78DBB2002B2CD01A236B4404221A802A
:10E4000002AB102200211800FCF702FF019B9A8A40
:10E4100002AB1A8002AB01229A7002AB00229A80F2
:10E4200002AB1A226A449A6002AB009ADA60019B3E
:10E430001B8802AA11001800FFF740FC0300079395
:10E44000079B002B05D0079A054B190000200AF006
:10E45000A5F9C04609B000BDFFFF000080320020D2
:10E4600064BD020010B582B00190019B1B88103B77
:10E470001A00414B9200D258404B190000200AF07C
:10E480008DF9019B9B881A003D4B190000200AF072
:10E4900085F9019B1B88112B5ED0122B2FD0102BDE
:10E4A00000D066E0019B1B8B18000CF0F9FF0022E6
:10E4B000344B0CF0D1F903000C00180021000BF0D4
:10E4C000BDF803009BB21A002F4B190000200AF080
:10E4D00065F9019BDB8B1A0013009B009B185B0006
:10E4E0001A002A4B190000200AF058F9019B9B8B57
:10E4F0001A00274B190000200AF050F939E0019B5F
:10E500001B8918000CF0CCFF00221E4B0CF0A4F964
:10E5100003000C00180021000BF090F803009BB2E0
:10E520001A00194B190000200AF038F9019BDB8909
:10E530001A0013009B009B185B001A00134B190074
:10E5400000200AF02BF9019B9B891A00104B19003F
:10E5500000200AF023F90CE0019B1B7A123B1A0001
:10E560000C4B9200D2580C4B190000200AF016F9FF
:10E57000C046C04602B010BD3C210020ACC4020021
:10E58000BCC402000000F43FD4C40200ECC402008A
:10E5900004C502008021002018C5020010B58AB011
:10E5A000039026236B44039A92881A8004AA039B43
:10E5B000043313CB13C2196811609B88938009AB95
:10E5C000039A12881A8009AB1B88512B04D0522B56
:10E5D00029D0502B18D02FE004AB9B78012B09D108
:10E5E00004AB9B881A0004ABDB88154900200AF0B5
:10E5F000D5F821E004AB9B881A0004ABDB881149F5
:10E6000000200AF0CBF817E0039BDB881A00039B7D
:10E610001B891800039B12330B4900930300002051
:10E620000AF0BCF808E0039B9B791A00074B19001D
:10E6300000200AF0B3F8C046C0460AB010BDC0467C
:10E6400020C5020044C5020068C5020098C502004A
:10E6500000B585B00190019B1B880393039A244B5E
:10E66000190000200AF09AF8039B0F2B07D9039B8F
:10E670002F2B04D8019B1800FFF7F4FE35E0039B15
:10E680004F2B07D9039B6F2B04D8019B1800FFF772
:10E6900085FF2AE0039B2F2B0FD9039B4F2B0CD810
:10E6A000019B1B88303B1A00124B9200D258124B30
:10E6B000190000200AF072F817E0039B002B0ED01F
:10E6C000039B0F2B0BD8019B1B885A1E0B4B9200F0
:10E6D000D2580B4B190000200AF060F805E0039AAD
:10E6E000084B190000200AF059F8C04605B000BDDB
:10E6F000A8C5020078210020B8C502007C210020B6
:10E70000C4C50200D0C5020084B001900091019BF5
:10E71000032B16D8A023DA05A223DB00D358DB4352
:10E7200003930B4B019A9200D35801229A40130095
:10E730001A00039B13405A1E9341DAB2009B1A70D1
:10E7400002E0009B00221A700023180004B07047FA
:10E75000F4C5020000B587B002006B4607331A709B
:10E760006B4606330A1C1A7017236B4400221A707A
:10E770000023049302E0049B01330493049B032BC6
:10E7800008D8454B049A9200D2586B4607331B7841
:10E790009A42F0D1049B032B6BD86B4606331B784F
:10E7A000012B04D0022B57D0002B37D061E017216A
:10E7B00069443A48049A13005B009B181B5C0B7079
:10E7C0003649049A13005B009B18CB1801331B7861
:10E7D000002B15D03248334B1A6813009B009B184E
:10E7E0005B001900304B1A0009F0AAF903000393EB
:10E7F000039B002B04D12C4B6A46073212781A7007
:10E800002649049A13005B009B18CB180233197831
:10E81000264A049BD3180A1C1A702AE0204B1800C1
:10E8200009F0C6F9214A049BD31819781B48049AA9
:10E8300013005B009B18C31802331B78994217D151
:10E84000172169441548049A13005B009B18C318EC
:10E8500002331B780B700BE0172169440F48049AB0
:10E8600013005B009B18C31801331B780B7000E08A
:10E87000C04617236B441B78002B0AD00C4B1B6837
:10E88000002B06D00A4B1B6817226A44127810002E
:10E890009847C04607B000BDF4C502008C24002094
:10E8A000982400203C240020B8240020BC24002010
:10E8B0008824002000B583B00190019B1B780221C1
:10E8C0001800FFF747FFC04603B000BD10B588B081
:10E8D00002006B4607331A70002307930023069348
:10E8E0006B4607331B78172B00D96CE39A00DB4B80
:10E8F000D3181B689F46A023DA05D94B1B68D94360
:10E90000F0235B041940A123DB00D150A023DB05D9
:10E91000D44A00219950D44B6A46073212781A70B3
:10E9200052E3A023DA05CE4B1B68D943E0235B04F6
:10E930001940A123DB00D150A023DB05C94A0021E7
:10E940009950A023DB05C94A9B58F02252045A4033
:10E9500080239B03134017D0A023DA05A123DB00FB
:10E9600080218903D150A023DB05BE4A00219950A4
:10E970006B4607331B78022B02D1E123DB0001E059
:10E98000FA231B01069315E0A023DB05B54980227D
:10E9900092035A50A023DA05A123DB000021D150B5
:10E9A0006B4607331B78022B01D1C82301E0C82333
:10E9B0005B000693AC4B6A46073212781A70AC4C77
:10E9C000069B642118000AF085FC03001A00A94B7D
:10E9D0001B68534300221900200009F0B1F803001E
:10E9E0000793F1E2A023DA059D4B1B68D943E0238E
:10E9F0005B041940A123DB00D150A023DB05994A19
:10EA000000219950A023DB05984A9B58F02252041C
:10EA10005A4080239B03134017D0A023DA05A1237B
:10EA2000DB0080218903D150A023DB058D4A002122
:10EA300099506B4607331B78032B02D1C8239B00E8
:10EA400001E0FA231B01069315E0A023DB058549AD
:10EA5000802292035A50A023DA05A123DB00002173
:10EA6000D1506B4607331B78032B01D1C82301E03B
:10EA7000C8235B0006937C4B6A46073212781A70F3
:10EA80007B4C069B642118000AF024FC03001A004A
:10EA9000784B1B68534300221900200009F050F8FE
:10EAA0000300079390E2A023DA056D4B1B68D9435E
:10EAB000E0235B041940A123DB00D150A023DB0538
:10EAC000684A00219950A023DB05684A9B58F02230
:10EAD00052045A4080239B0313400FD0A023DA0531
:10EAE000A123DB0080218903D150A023DB055D4AEF
:10EAF00000219950FA231B0106930EE0A023DB05A9
:10EB00005849802292035A50A023DA05A123DB0042
:10EB10000021D150C8235B000693534B6A4607324D
:10EB200012781A70524C069B642118000AF0D2FB2E
:10EB300003001A004F4B1B685343002219002000AA
:10EB400008F0FEFF030007933EE2A023DA05444BE2
:10EB50001B68D943E0235B041940A123DB00D1509B
:10EB6000A023DB053F4A00219950A023DB053F4A43
:10EB70009B58F02252045A4080239B03134016D026
:10EB8000A023DA05A123DB0080218903D150A02333
:10EB9000DB05344A002199506B4607331B78052B5F
:10EBA00001D1C82301E0FA231B01069315E0A0233D
:10EBB000DB052C49802292035A50A023DA05A123B9
:10EBC000DB000021D1506B4607331B78052B01D1A8
:10EBD000C82301E0C8235B000693234B6A46073233
:10EBE00012781A70224C069B642118000AF072FBFE
:10EBF00003001A001F4B1B6853430022190020001A
:10EC000008F09EFF03000793DEE1A023DA05144B12
:10EC10001B68D943E0235B041940A123DB00D150DA
:10EC2000A023DB050F4A00219950A023DB050F4AE2
:10EC30009B58F02252045A4080239B0313401BD060
:10EC4000A023DA05A123DB0080218903D150A02372
:10EC5000DB05044A002199501AE0C04624C6020090
:10EC6000442400200C050000382400200405000086
:10EC7000482400203C240020A023DB05D449802226
:10EC800092035A50A023DA05A123DB000021D150C2
:10EC9000D04B6A46073212781A70CF48CF4B1B68A8
:10ECA0000022190008F04CFF030007938CE1A02319
:10ECB000DA05CB4B1B68D943E0235B041940A12341
:10ECC000DB00D150A023DB05C14A00219950A023CD
:10ECD000DB05BF49802292035A50A023DA05A12305
:10ECE000DB000021D150BB4B6A46073212781A7004
:10ECF0006AE1A023DB05BB4A9B580593A023DA05F4
:10ED0000059BD9438023DB031940A123DB00D150AD
:10ED1000A023DB0505998022D2030A40AC495A5052
:10ED2000AD48AE4B1B680022190008F009FF030034
:10ED3000079349E1A023DB05AA4A9B580493A0232B
:10ED4000DA05049BD9438023DB031940A123DB00B0
:10ED5000D150A023DB0504998022D2030A409C49AC
:10ED60005A509D489D4B1A6813009B009B18002227
:10ED7000190008F0E5FE0300079325E1A023DB0559
:10ED8000984A9B580393A023DA05039BD943802319
:10ED9000DB031940A123DB00D150A023DB0503993D
:10EDA0008022D2030A408A495A508B488B4B1B68F9
:10EDB0000022190008F0C4FE0300079304E1A02319
:10EDC000DB05884A9B580293A023DA05029BD943AE
:10EDD0008023DB031940A123DB00D150A023DB05F6
:10EDE00002998022D2030A4079495A507A487B4BD3
:10EDF0001A6813009B009B180022190008F0A0FE5F
:10EE000003000793E0E0A023DB057149F0225204E0
:10EE10005A50A023DA05A123DB000021D1506D4B0D
:10EE20006A46073212781A70CEE06F4B180008F06D
:10EE3000BFFE030007936B4607331B781122D31ADA
:10EE40000693069B002B2DD0079B002B2AD1644BE9
:10EE5000802212041A60069B012B13D9624C069B78
:10EE6000C8225343642118000AF034FA03001A0040
:10EE70005A4B1B68534300221900200008F060FE23
:10EE800003000793A023DA05554B1968F0235B04B0
:10EE90000B404F495350A023DA05A123DB0000218A
:10EEA000D15091E0A023DA054D4B1968F0235B04A3
:10EEB0001940A123DB00D150A023DB05444A0021E7
:10EEC0009950474B00221A607EE0A023DA05A12367
:10EED000DB00F0214904D150A023DB053C4A00218E
:10EEE00099503C4B6A46073212781A706CE0A023A6
:10EEF000DA05A123DB00E0214904D150A023DB0582
:10EF0000334A00219950A023DB0531498022920326
:10EF10005A50A023DA05A123DB000021D1502D4B4C
:10EF20006A46073212781A704EE0A023DA05A12350
:10EF3000DB00D0214904D150A023DB05244A002165
:10EF40009950A023DB0522498022D2035A50A023E6
:10EF5000DA05A123DB000021D1501E4B6A4607329F
:10EF600012781A7030E0A023DA05A123DB00C0215B
:10EF70004904D150A023DB05154A00219950A02354
:10EF8000DB051349C022D2035A50A023DA05A1237E
:10EF9000DB000021D1500F4B6A46073212781A70FD
:10EFA00012E0A023DB050A49F02252045A50A023A4
:10EFB000DA05A123DB000021D150064B6A46073257
:10EFC00012781A7000E0C046079B180008B010BD08
:10EFD0000C05000038240020482400203C24002098
:10EFE00044240020040500006824002000B583B0FC
:10EFF0000190064B1B680122134004D0044B1B7880
:10F000001800FFF763FCC04603B000BD4024002099
:10F010003824002084B00190A023DB050B4A9B58C4
:10F020000393A023DA05039BD94380231B041940D3
:10F03000A123DB00D150A023DB0503998022120419
:10F040000A4003495A50C04604B070470405000006
:10F050000C05000000B585B002006B4607331A703E
:10F0600000230393084B1B680122134007D06B4613
:10F0700007331B781800FFF729FC03000393039B59
:10F08000180005B000BDC0464024002000B587B080
:10F0900003900291019200230593384B029A1A6063
:10F0A000374B039A1A60374B019A1A60039B02226E
:10F0B000134031D0002304930AE0049B0122012174
:10F0C000180000F071F803000593049B01330493CA
:10F0D000049B032B02D8059B002BEED0059B002B35
:10F0E00008D1029B5A08284B0421180007F02AFD7A
:10F0F00003000593059B002B03D107F09DFD030042
:10F100000593059B002B07D1204A214B00211800B5
:10F1100008F0CCFC03000593039B0122134012D09E
:10F12000A023DA05A123DB00F0214904D150A0235C
:10F13000DB05184A00219950A023DA05A323DB0040
:10F14000F0214904D150059B002B07D1124A134BE3
:10F150000021180008F0AAFC03000593059B002B72
:10F1600007D10F4A0F4B0121180008F09FFC030044
:10F170000593059B180007B000BDC0463C24002045
:10F18000402400208824002004C60200B5E80100C5
:10F19000F0C502000C050000EDEF0100E8C502001B
:10F1A00015F00100ECC5020084B0019008001100C8
:10F1B0006B460333021C1A706B4602330A1C1A702A
:10F1C00000230393019B032B42D86B4602331B7829
:10F1D000012B0DD16B4603331B78012B04D1019B0E
:10F1E000DBB20D33DAB200E000226B4602331A7054
:10F1F0006B4603331B78012B04D0022B0CD0002B61
:10F2000016D021E01549019A13005B009B186A464D
:10F21000023212785A541DE01049019A13005B0023
:10F220009B18CB1801336A46023212781A7011E02B
:10F230000A49019A13005B009B18CB1802336A46F7
:10F24000023212781A7005E007230393C04601E0EA
:10F2500007230393039B180004B070478C240020FD
:10F2600086B00190002305932DE0A023DB05194A09
:10F27000059989008A58C132FF329200D35804930D
:10F280000122059B9A4013001A00019B134001D0F4
:10F29000032300E000230393049B0F4A13400493CD
:10F2A000039B1B04049A13430493A023DB05094A20
:10F2B000059989008A58C132FF3292000499D150D1
:10F2C000059B01330593059B032BCED90023180022
:10F2D00006B07047F4C50200FFFFFCFF00B583B025
:10F2E000012200210020FFF75FFF03000193019B33
:10F2F000002B04D0019B072B01D0019B1EE00722AD
:10F3000002210120FFF750FF03000193019B002B16
:10F3100004D0019B072B01D0019B0FE004220221A6
:10F320000020FFF741FF03000193019B002B04D055
:10F33000019B072B01D0019B00E00023180003B0C4
:10F3400000BDC04600B583B0012202210020FFF7B6
:10F350002BFF03000193019B002B04D0019B072B83
:10F3600001D0019B1EE0072202210120FFF71CFFB4
:10F3700003000193019B002B04D0019B072B01D0BC
:10F38000019B0FE00A2200210020FFF70DFF030080
:10F390000193019B002B04D0019B072B01D0019B03
:10F3A00000E00023180003B000BDC04600B585B0E2
:10F3B00001900B236B4419000020FFF7A5F903000F
:10F3C0000393039B002B01D0039B22E00A236B4491
:10F3D00019000120FFF798F903000393039B002B0A
:10F3E00001D0039B15E00A236B441B78002B03D04C
:10F3F000019B02221A700BE00B236B441B78002B3D
:10F4000003D0019B0B221A7002E0019B00221A70AC
:10F410000023180005B000BD00B583B00320FFF73E
:10F420001FFF03000193019B002B04D0019B062BBF
:10F4300001D0019B00E00023180003B000BDC046CE
:10F4400000B585B00190019B1B88102B02D0112BB9
:10F450001AD033E01B4B1B68002B0FD1FFF73EFF88
:10F4600003000393039B002B08D0174B1B68002B52
:10F4700004D0154B1B68039A10009847114B1B686A
:10F480005A1C104B1A6019E00E4B1B685A1E0D4B8C
:10F490001A600C4B1B68002B0FD1FFF753FF0300C2
:10F4A0000393039B002B08D0074B1B68002B04D051
:10F4B000054B1B68039A10009847C046C04605B02C
:10F4C00000BDC046C4240020C024002000B585B083
:10F4D00001900091002303930E4B019A1A60009B48
:10F4E000002B0AD0009B1800FFF760FF0300039376
:10F4F000039B002B01D0039B08E0074B1B68002BEC
:10F5000003D1FFF71FFF03000393039B180005B00F
:10F5100000BDC046C0240020C424002071DF704715
:10F52000C046180072DF7047C046180079DF704788
:10F53000C04618007DDF7047C046180065DF704781
:10F54000C046180082B0020000916B4606331A8054
:10F550006B4606331B88DAB2009B1A70009B01339E
:10F560006A4606321288120A92B2D2B21A70022386
:10F57000180002B07047C04686B003900291019215
:10F580001A006B4602331A80019B1B8812331A0043
:10F590006B4602331B889A4201D90C2340E0019B41
:10F5A0001B881A00029B9B1811221A70019B1B8852
:10F5B00001339AB2019B1A80019B1B881A00029B9F
:10F5C0009B1810221A70019B1B8801339AB2019B71
:10F5D0001A8017236B440F221A701BE0019B1B88B3
:10F5E0001A00029B9B1817226A44127852B20399A0
:10F5F0008A5C1A7017236B441B785BB2DBB2013B49
:10F60000DAB217236B441A70019B1B8801339AB23C
:10F61000019B1A8017236B441B787F2BDED90023B4
:10F62000180006B07047C04684B0029101921900DC
:10F630000F236B44021C1A7003AB0A1C1A80019B37
:10F640001B88DA1C03AB1B889A4201D90C2350E0BB
:10F65000019B1B881A00029B9B1802221A70019BB7
:10F660001B8801339AB2019B1A80019B1B881A00E8
:10F67000029B9B181C221A70019B1B8801339AB2B3
:10F68000019B1A800F236B441B78022B10D002DCE5
:10F69000012B05D024E0032B12D0042B18D01FE03F
:10F6A000019B1B881A00029B9B1800221A7019E00C
:10F6B000019B1B881A00029B9B1801221A7011E003
:10F6C000019B1B881A00029B9B1802221A7009E0FA
:10F6D000019B1B881A00029B9B1803221A7001E0F1
:10F6E000072306E0019B1B8801339AB2019B1A8015
:10F6F0000023180004B0704700B589B00390029150
:10F700006B4606331A80029B1B8809331A006B462E
:10F7100006331B889A4201D90C234FE005AB180031
:10F72000FFF7FCFE03000793079B002B01D0079B0C
:10F7300044E0029B1B881A00039B9B1808221A7046
:10F74000029B1B8801339AB2029B1A80029B1B8882
:10F750001A00039B9B181B221A70029B1B88013303
:10F760009AB2029B1A80029B1B881A00039B98186E
:10F7700005AB013306221900FDF735F8029B1B8803
:10F7800006339AB2029B1A8005AB1B78002B07D177
:10F79000029B1B881A00039B9B1800221A7006E02C
:10F7A000029B1B881A00039B9B1801221A70029B64
:10F7B0001B8801339AB2029B1A800023180009B0FB
:10F7C00000BDC04600B589B00390029101921A00B5
:10F7D0006B4602331A80039B1B78012B05D1039BD8
:10F7E0005B78002B01D1072397E0019B1B889A1CB3
:10F7F0006B4602331B889A420FD8039B1B78012B60
:10F800000DD1019B1B881A00039B5B78D3189A1CAF
:10F810006B4602331B889A4201D90C237DE0019B81
:10F820001B886A4602321288D31A9AB207AB023A90
:10F830001A8016236B4407AA12881A80019B1B8822
:10F840000233029AD31816226A4411001800FFF7F7
:10F8500071FE03000693069B002B01D0069B5CE023
:10F86000039B1B78022B0BD116236B441B8807AA22
:10F8700012889A4204D31F236B4409221A701AE09B
:10F880001F236B4408221A70039B1B78012B0DD198
:10F89000039B5B789BB207AA12889A4206D3039B0C
:10F8A0005B789AB216236B441A8004E016236B44EB
:10F8B00007AA12881A8016236B441B88FE2B01D9D5
:10F8C0000C232AE0019B1B881A00029B9B1816221E
:10F8D0006A441288D2B20132D2B21A70019B1B88DC
:10F8E00001339AB2019B1A80019B1B881A00029B6C
:10F8F0009B181F226A4412781A70019B1B880133DF
:10F900009AB2019B1A80019B1A8816236B441B88AC
:10F91000D3189AB2019B1A800023180009B000BDC9
:10F9200000B587B0039002916B4606331A80029BA4
:10F930001B881A1D6B4606331B889A4201D90C237B
:10F940003BE012236B441800FFF7F0FD0300059322
:10F95000059B002B01D0059B2FE0029B1B881A0002
:10F96000039B9B1803221A70029B1B8801339AB2D7
:10F97000029B1A80029B1B881A00039B9B1819226A
:10F980001A70029B1B8801339AB2029B1A801223C1
:10F990006B441A88029B1B881900039B5B18190093
:10F9A0001000FFF7CFFD03001900029B1A888BB2ED
:10F9B000D3189AB2029B1A800023180007B000BD2A
:10F9C00084B00291019219000F236B44021C1A703B
:10F9D00003AB0A1C1A80019B1B88DA1C03AB1B8833
:10F9E0009A4201D90C2329E0019B1B881A00029B33
:10F9F0009B1802221A70019B1B8801339AB2019B4B
:10FA00001A80019B1B881A00029B9B1801221A7006
:10FA1000019B1B8801339AB2019B1A80019B1B88B2
:10FA20001A00029B9B180F226A4412781A70019BDD
:10FA30001B8801339AB2019B1A800023180004B07E
:10FA40007047C04684B00291019219000F236B44A5
:10FA5000021C1A7003AB0A1C1A80019B1B88DA1C5B
:10FA600003AB1B889A4201D90C2329E0019B1B8818
:10FA70001A00029B9B1802221A70019B1B880133FB
:10FA80009AB2019B1A80019B1B881A00029B9B184B
:10FA900011221A70019B1B8801339AB2019B1A80B4
:10FAA000019B1B881A00029B9B180F226A44127844
:10FAB0001A70019B1B8801339AB2019B1A800023A4
:10FAC000180004B07047C04684B00291019219003A
:10FAD0000F236B44021C1A7003AB0A1C1A80019B93
:10FAE0001B88DA1C03AB1B889A4201D90C2329E03E
:10FAF000019B1B881A00029B9B1802221A70019B13
:10FB00001B8801339AB2019B1A80019B1B881A0043
:10FB1000029B9B180A221A70019B1B8801339AB220
:10FB2000019B1A80019B1B881A00029B9B180F22C5
:10FB30006A4412781A70019B1B8801339AB2019BA8
:10FB40001A800023180004B07047C04600B58BB07F
:10FB500003900800110001930B236B44021C1A70E0
:10FB60000A236B440A1C1A7023236B4400221A7068
:10FB700008AB0C9A12881A80002309937DE0039B3E
:10FB80005A68099B9B00D31804AA1000190004238B
:10FB90001A00FCF728FE1721694404AB0022180064
:10FBA000FFF7CCFC03000793079B002B01D0079BBA
:10FBB00087E017236B441B780A226A4412789A4222
:10FBC00058D123236B441B78002B01D0002200E086
:10FBD00002221B236B441A700C9B1B881A001723EC
:10FBE0006B441B78D2181B236B441B78D2180DABC7
:10FBF0001B889A4201DD0C2363E023236B441B78AE
:10FC000001225340DBB2002B18D00C9B1B88013320
:10FC10009AB20C9B1A800C9B1B881A00019B9B18A4
:10FC20000B226A4412781A700C9B1B8801339AB21B
:10FC30000C9B1A8023236B4401221A700C9B1B8897
:10FC40001A00019B9A181721694404AB1800FFF7AA
:10FC500075FC03000793079B002B01D0079B30E046
:10FC60000C9B1A8817236B441B789BB2D3189AB24B
:10FC70000C9B1A80099B01330993039B1B881A0074
:10FC8000099B9A4200DD7AE723236B441B78002B03
:10FC900016D00C9B1A8808AB1B88D31A9AB206ABF5
:10FCA000013A1A8006AB1B88FF2B01D90C2308E010
:10FCB00008AB1B88019AD31806AA1288D2B21A7010
:10FCC000002318000BB000BD00B589B005900800F6
:10FCD0001100039313236B44021C1A7012236B440C
:10FCE0000A1C1A70039A13236B44197805980BABFE
:10FCF0001B8801930A9B009313000222FFF726FF43
:10FD000003000793079B002B01D0079B15E0039A84
:10FD100012236B44197805980BAB1B8801930A9B3F
:10FD2000009313001022FFF711FF03000793079BB6
:10FD3000002B01D0079B00E00023180009B000BD94
:10FD400082B00190019B1B88052B0AD9019B1A8860
:10FD5000C8231B019A4206D9019B1B88154A93426E
:10FD600001D0072323E0019B5B88052B0AD9019B67
:10FD70005A88C8231B019A4206D9019B5B880D4A09
:10FD8000934201D0072312E0019B1B88094A93424A
:10FD90000CD0019B5B88074A934207D0019B1A88CD
:10FDA000019B5B889A4201D9072300E000231800D9
:10FDB00002B07047FFFF000000B587B003900291CA
:10FDC00001921A006B4602331A80019B1B889A1D10
:10FDD0006B4602331B889A4201D90C234DE0039BEA
:10FDE0001800FFF7ADFF03000593059B002B01D022
:10FDF000059B42E0019B1B881A00029B9B18052271
:10FE00001A70019B1B8801339AB2019B1A80019BD7
:10FE10001B881A00029B9B1812221A70019B1B88D8
:10FE200001339AB2019B1A80039B1A88019B1B889D
:10FE30001900029B5B1819001000FFF783FB0300F9
:10FE40001900019B1A888BB2D3189AB2019B1A80B1
:10FE5000039B5A88019B1B881900029B5B181900A1
:10FE60001000FFF76FFB03001900019B1A888BB28B
:10FE7000D3189AB2019B1A800023180007B000BD66
:10FE800000B587B00390029101921A006B460233CD
:10FE90001A80039B9B8802330593019B1B881A00E1
:10FEA000059BD3189A1C6B4602331B889A4201D9D2
:10FEB0000C2354E0059BFE2B01D90C234FE0019B42
:10FEC0001B881A00029B9B18059AD2B20132D2B24B
:10FED0001A70019B1B8801339AB2019B1A80019B07
:10FEE0001B881A00029B9B18FF221A70019B1B881B
:10FEF00001339AB2019B1A80039B1A88019B1B88CD
:10FF00001900029B5B1819001000FFF71BFB030090
:10FF10001900019B1A888BB2D3189AB2019B1A80E0
:10FF2000039B9B88002B19D0039B9B68002B01D15E
:10FF3000072314E0019B1B881A00029B9818039B5F
:10FF40009968039B9B881A00FCF74DFC019B1A885B
:10FF5000039B9B88D3189AB2019B1A800023180038
:10FF600007B000BD00B589B00390029101921A005C
:10FF70006B4602331A80039B9B6A002B01D1072337
:10FF800077E01F236B4400221A7069E0039B996A93
:10FF90001F236B441A7813005B009B189B00CB183F
:10FFA0000693069B9B8802330593059BFE2B01D984
:10FFB0000C235EE0019B1B881A00029B9B18059A8C
:10FFC000D2B20132D2B21A70019B1B8801339AB2AD
:10FFD000019B1A80019B1B881A00029B9B1816220A
:10FFE0001A70019B1B8801339AB2019B1A80069BF1
:10FFF0001A88019B1B881900029B5B1819001000CE
:020000022000DC
:10000000FFF7A0FA03001900019B1A888BB2D318DE
:100010009AB2019B1A80069B9B88002B19D0069BE5
:100020009B68002B01D1072323E0019B1B881A004A
:10003000029B9818069B9968069B9B881A00FCF700
:10004000D2FB019B1A88069B9B88D3189AB2019B0E
:100050001A801F236B441A781F236B4401321A70D5
:10006000039B2C229B5C1F226A4412789A428DD3F8
:100070000023180009B000BD00B589B005900491B7
:100080000392002307931A236B44039A12881A8061
:10009000039B00221A80059B5B6B002B10D0059BF5
:1000A0005B6B18781A236B441B88039A0499FFF73B
:1000B000C9FC03000793079B002B01D0079B19E1A4
:1000C000059B1B6B002B0FD0059B186B1A236B44F1
:1000D0001B88039A0499FFF74FFA03000793079BC5
:1000E000002B01D0079B05E1059B2E229B5C002B7A
:1000F00010D0059B2E22985C1A236B441B88039A10
:100100000499FFF791FA03000793079B002B01D096
:10011000079BEFE0059B2D229B5C002B0ED01A2342
:100120006B441A880399049B1800FFF7E5FA030053
:100130000793079B002B01D0079BDBE0059B9B7877
:10014000002B0ED01A236B441A880399049B1800C5
:10015000FFF7E6FB03000793079B002B01D0079BEB
:10016000C8E0059BDB78002B10D0059BDB7858B2EC
:100170001A236B441B88039A0499FFF721FC0300A0
:100180000793079B002B01D0079BB3E0059B5B689F
:10019000002B11D0059B5B68002018561A236B4476
:1001A0001B88039A0499FFF78FFC03000793079BB2
:1001B000002B01D0079B9DE0059B1B89002B15D0D0
:1001C000059B08331800049A1A236B441B8801937B
:1001D000039B0093130006220221FFF775FD030025
:1001E0000793079B002B01D0079B83E0059B1B8A8D
:1001F000002B15D0059B10331800049A1A236B446A
:100200001B880193039B0093130007220321FFF730
:100210005BFD03000793079B002B01D0079B69E060
:10022000059B1B8B002B15D0059B18331800049AD7
:100230001A236B441B880193039B00931300152220
:100240001421FFF741FD03000793079B002B01D00A
:10025000079B4FE0059B1B6A002B0FD0059B186A7C
:100260001A236B441B88039A0499FFF7A5FD03002A
:100270000793079B002B01D0079B3BE0059B5B6A24
:10028000002B0FD0059B586A1A236B441B88039AD6
:100290000499FFF7F5FD03000793079B002B01D09E
:1002A000079B27E0059B2C229B5C002B0ED01A237A
:1002B0006B441B88039A04990598FFF753FE0300CB
:1002C0000793079B002B01D0079B13E0059B1B782E
:1002D000002B0ED01A236B441B88039A04990598AF
:1002E000FFF770FA03000793079B002B01D0079BD1
:1002F00000E0079B180009B000BDC04682B0019025
:10030000019BDB781A000423134001D1072300E08E
:100310000023180002B0704782B00190019BDB7887
:10032000002B01D0072300E00023180002B0704723
:1003300000B597B0019000914A236B441F221A80A8
:1003400012AB1F221A80019B002B1BD0019B1800AF
:10035000FFF7D4FF03001393139B002B01D0139BD3
:1003600045E04A226A440AA9019B1800FFF784FE6F
:1003700003001393139B002B01D0139B37E00AABB0
:10038000159305E0002315934A236B4400221A803D
:10039000009B002B1AD0009B1800FFF7BDFF030045
:1003A0001393139B002B01D0139B20E012AA02A9E8
:1003B000009B1800FFF760FE03001393139B002BB4
:1003C00001D0139B13E002AB149304E000231493B9
:1003D00012AB00221A804A236B441B88D9B212AB9D
:1003E0001B88DBB2149A1598FFF79CF803001800DD
:1003F00017B000BD73DF7047C046180074DF704748
:10040000C046180082B00190019B1B79002B03D1DC
:10041000019B1B7B002B01D0012300E0002318006F
:1004200002B0704710B5044B072200211800FAF7FC
:10043000EFFEC04610BDC046CC24002084B0019021
:10044000002303930AE0019A039BD3181B78002B27
:1004500001D0012306E0039B01330393039B052B8B
:10046000F1D90023180004B07047C04610B588B019
:100470000390029101920093039B002B01D10E2364
:10048000D2E0019B002B01D10E23CDE0684B00226E
:100490001A70684B009A1A60674B0A9A1A60674B89
:1004A000019A13CA13C313CA13C313CA13C3FFF7A2
:1004B000B9FF634B634A1A60614B634A9A60634BAE
:1004C000382200211800FAF7A3FE039B1A785F4B2D
:1004D0001A70039B9A785D4B9A70039BDA785B4B9A
:1004E000DA70039B5A78594B5A70584B039A103361
:1004F000103203CA03C3554B039A0833083203CAA8
:1005000003C3524B039A1833183203CA03C3039B25
:100510005B6A002B29D04D4B4D4A5A624C4B4D4AD9
:100520009A604A4B5A6A039B5B6A1B881380474B4D
:100530005A6A039B5B6A9B889380002307930DE0B4
:10054000039B5B6A9A68079BD3181978414A079BFB
:10055000D3180A1C1A70079B013307933B4B5B6A45
:100560009B881A00079B9A42EAD8039B9B6A002B40
:1005700033D0394B394A9A60344B374A9A62334BFD
:100580009B6A364A9A60314B9A6A039B9B6A9B88A6
:1005900093802E4B9A6A039B9B6A1B8813800023CF
:1005A00006930DE0039B9B6A9A68069BD318197803
:1005B0002A4A069BD3180A1C1A70069B013306931D
:1005C000224B9B6A9B881A00069B9A42EAD8039B9F
:1005D0002C22995C1D4B2C229954039B1B6A002BE7
:1005E0000ED01A4B1E4A1A62184B1A6A039B1B6ADA
:1005F0005B885380154B1A6A039B1B6A1B88138008
:10060000039B5B68002B06D0104B164A5A60039B75
:100610005A680E4B5A60029A0C4B11001800FFF7F3
:1006200087FE03000593059B180008B010BDC04667
:100630001825002010250020142500201C2500204E
:10064000402500205025002070250020D4240020C3
:1006500094250020A0250020C0250020CC250020C6
:10066000EC250020F025002000B583B00023009386
:100670006B46180004F018FD03000193019B082B42
:1006800004D0019B002B01D0012313E0019B082B18
:100690000AD16B46180007F0B1FA03000193019BE1
:1006A000002B01D0002305E0009B002B01D001238B
:1006B00000E00023180003B000BDC04600B58BB0B9
:1006C00002006B4607331A70BC4B6A460732127839
:1006D0001A70FFF7C9FF031E04D0B94B01221A702C
:1006E000002368E1FFF79EFEB64B5B78002B03D03A
:1006F000B24B1B78012B0FD0B24B9B78002B03D051
:10070000AE4B1B78012B07D0AE4B9B78002B12D041
:10071000AA4B1B78022B0ED1AB4B1B68002B07D0CA
:10072000AA4B01221A70A84B1B680820984702E0C8
:10073000A64B00221A70A14B1B78012B14D1A14BA0
:100740005B7801225340DBB2002B0AD1A04B18008A
:10075000FFF774FE03001A0001235340DBB2002BA5
:1007600002D0964B02221A70944B1B78022B14D1A4
:10077000944B9B7801225340DBB2002B0AD1944B5F
:100780001800FFF75BFE03001A0001235340DBB2A1
:10079000002B02D0894B03221A708A4B1B7B01224B
:1007A0005340DBB2002B06D0844B1B78032B02D1C5
:1007B000824B04221A70834B1B7E01225340DBB212
:1007C000002B09D07D4B1B78042B05D17B4B0022DD
:1007D0001A70804B00221A707B4B1B68002B1AD0BA
:1007E000764B1B78032B03D0744B1B78042B12D150
:1007F000744B1B78002B0ED0774B1B780122534093
:10080000DBB2002B07D0754B01221A706E4B1B68B0
:100810000720984702E0714B00221A7003AB1822A0
:1008200000211800FAF7F4FC03AB00221A7003ABA6
:1008300000225A6003AB00221A7203AB0022DA6076
:100840005E4B1B78022B18D002DC012B05D098E000
:10085000032B26D0042B5CD093E003AB604A5A6094
:1008600003AB01221A7003AB00225A8203AB0022B1
:100870001A82584B01221A7083E003AB584A5A601F
:1008800003AB01221A704F4B9B689AB203AB5A829A
:100890004C4B5B689AB203AB1A824E4B02221A7021
:1008A0006FE0484B5B699AB203AB5A82454B1B69B8
:1008B0009AB203AB1A824B4B1800FFF7A3FD031E3D
:1008C00023D0404B1B78002B1FD0434B1B780122B9
:1008D0005340DBB2002B18D003AB02221A7203ABD9
:1008E000404ADA60404B0422DA703F4B0021180086
:1008F000FFF71EFD03000993099B002B01D0099B04
:1009000059E0344B05221A703BE0324B03221A7037
:1009100037E02C4BDB699AB203AB1A82294B1B6A76
:100920009AB203AB5A822F4B1800FFF76BFD031EE0
:1009300023D0244B1B78002B1FD0274B1B78012280
:100940005340DBB2002B18D003AB02221A7203AB68
:10095000244ADA60244B0422DA70234B0021180069
:10096000FFF7E6FC03000993099B002B01D0099BCC
:1009700021E0184B06221A7002E0164B04221A706E
:10098000C0460E4B1B78002B0AD003AB1800FFF7B4
:1009900031FD03000993099B002B01D0099B0AE05C
:1009A000094B1B68002B05D0074B1B68094A1278BE
:1009B00010009847002318000BB000BD1825002038
:1009C000C82400201C25002010250020922500208E
:1009D000CD2400200C25002090250020912500200A
:1009E000CC24002040250020D424002000B587B06E
:1009F0000190019B1B88112B0ED01B2B2AD0102B92
:100A000000D08DE0019B9B7D012B00D083E0019BFA
:100A10009A88454B1A807EE0444B00221A70019B55
:100A20009A88414B1B889A4200D076E00120FFF75C
:100A300045FE03000593059B002B00D16DE03C4B68
:100A40001B68002B00D168E0394B1B68059A100029
:100A5000984762E0019B1B7A002B00D05FE0354B8A
:100A60001B78022B1AD002DC012B05D052E0032B9D
:100A700026D0042B39D04DE00220FFF71FFE0300E3
:100A80000493049B002B3ED0294B1B68002B3AD0CB
:100A9000274B1B68049A1000984734E00320FFF7A7
:100AA0000DFE03000393039B002B2ED0204B1B68ED
:100AB000002B2AD01E4B1B68039A1000984724E095
:100AC0001D4B03221A700420FFF7F8FD0300029368
