:020000021000EC
:10B000000080002029910200699102006B910200EA
:10B010000000000000000000000000000000000030
:10B020000000000000000000000000006D91020020
:10B0300000000000000000006F910200719102000A
:10B040007391020073910200CD450200E96902008C
:10B0500073910200000000001D3F0200A590020055
:10B0600073910200739102007391020073910200C8
:10B0700073910200739102007391020073910200B8
:10B08000739102009579020073910200739102009E
:10B09000E179020073910200F18B020073910200CA
:10B0A0007391020073910200000000000000000094
:10B0B0000000000000000000000000000000000090
:10B0C00010B5064C2378002B07D1054B002B02D07E
:10B0D000044800E000BF0123237010BDA021002020
:10B0E0000000000028CC0200084B10B5002B03D054
:10B0F0000749084800E000BF07480368002B00D15B
:10B1000010BD064B002BFBD09847F9E7000000006C
:10B11000A421002028CC02009C2100200000000077
:10B12000164B002B00D1144B9D46402292029A1AD6
:10B13000924600218B460F461348144A121A00F01B
:10B1400067F80F4B002B00D098470E4B002B00D018
:10B1500098470020002104000D000D48002802D06F
:10B160000C4800E000BF00F02DF82000290002F09C
:10B1700055FC00F011F8C0460000080000800020D7
:10B180000000000000000000A02100201833002073
:10B190000000000000000000084B10B50400002B68
:10B1A00002D0002100E000BF054B1868836A002B25
:10B1B00000D09847200001F0FDFEC04600000000CE
:10B1C00098BA02000E4B70B500251E000D4CE41A13
:10B1D000A410A54204D0AB00F35898470135F8E716
:10B1E00010F04CFC084B00251E00084CE41AA4107B
:10B1F000A54204D0AB00F35898470135F8E770BD7D
:10B2000094210020942100209421002098210020E6
:10B2100003008218934202D019700133FAE7704795
:10B22000F0B58BB014001D1E129906DA8024240696
:10B230001B191D0014002D2300E000230B70202398
:10B24000149E03229E43462E07D03300453B5942AD
:10B250004B411099013ACB18109309AB049308ABFA
:10B260000393139B00920293109B220001932B00E7
:10B2700000F0DAFC0700472E02D1119BDB072DD529
:10B28000109BFB180793462E14D13B78302B0CD122
:10B2900000220023200029000EF0C4F9002804D168
:10B2A0000123109A9B1A139A1360139B079A1B6829
:10B2B000D318079300220023200029000EF0B2F9D2
:10B2C0003022002802D0079B099307E0099B0799C9
:10B2D000994203D9591C09911A70F7E73800099B64
:10B2E000159ADB1B13600BB0F0BDF7B52B230700DD
:10B2F0000C000270861C002901DA2D234C427B7061
:10B30000092C1CDD6B46DD1D20000A210EF074F9AE
:10B31000013D3031297020000A210EF087F8040029
:10B320000928F1DC013D30342C706B4607333000C6
:10B33000AB4209D92B78013533700136F5E730235C
:10B34000E4183370B01C7470C01BFEBDF0B595B02E
:10B350000C000A920B931A9D099001F02BFA0368D6
:10B3600018000D9300F0D2FB0023129323680E9077
:10B370000C930C99277E2B680722C90501D59B18D1
:10B3800000E0073393431A0008322A601A685B68AA
:10B39000A264E3640122E56CA66C6B005B080F936A
:10B3A0005242C04B30000F9910F046F8002819D1D6
:10B3B0000122BC4B524230000F990EF043F9002895
:10B3C00010D100220023300029000EF031F90028AE
:10B3D00003D023002D2243331A70B34D472F0ED8CC
:10B3E000B24D0CE032002B003000290010F024F8A0
:10B3F000002800D19AE1AE4D472F00D8AD4D032370
:10B400000C9A236101339A432260002642E0672FA1
:10B4100000D193E1472F00D190E10C9A0021134312
:10B4200012AA059211AA0392232223600691019386
:10B4300008A9636852180292009332002B00049707
:10B440000998FFF7EDFE20233A0005009A43472AAA
:10B4500000D18EE11199652F00D996E120000139C4
:10B460003A0050301191FFF740FF129A06008318FE
:10B470002361012A00DD85E12268D20700D581E140
:10B48000232308AA9B181B78002B03D023002D220E
:10B4900043331A700B9B13AA009321000A9B09984F
:10B4A00000F0A4F9431C02D1012040429BE1226834
:10B4B000530501D4236964E0652F00D8CCE0A06C6B
:10B4C000E16C002200230EF0ADF800282CD00123FF
:10B4D000794A0A9909980B9DA847431CE4D0119B0F
:10B4E000129A934208DB2368DB0705D42368002502
:10B4F0009B0700D50FE113E10B9D0E9B0D9A0A9956
:10B500000998A8470025431CCED0129B013B9D42C1
:10B51000ECDA220001231A320A9909980B9EB047EF
:10B52000431CC1D00135F0E7119B002B2BDC01231C
:10B53000614A0A9909980B9EB047431CB4D0119BED
:10B54000002B05D1129B002B02D12368DB07CDD540
:10B550000B9E0E9B0D9A0A990998B0470026431C32
:10B56000A2D0119B5B429E420ADA220001231A32CA
:10B570000A9909980B9FB847431C95D00136F0E70C
:10B58000129B2A00ACE0A36D129E9E4200DD1E00BD
:10B59000002E05DC00230C93F343DB170F9315E01B
:10B5A00033002A000A9909980B9FB847431CF1D130
:10B5B0007AE7220001231A320A9909980B9FB847AB
:10B5C000431C00D170E70C9B01330C930F9BA26DC1
:10B5D0000C993340D31A9942EBDBAE18119B129AA7
:10B5E00093420DDB2368DB070AD4129B119AED18F6
:10B5F000AD1B9B1A9D4200DD1D00002D09DC11E0F2
:10B600000E9B0D9A0A9909980B9FB847431CECD1E1
:10B610004AE72B0032000A9909980B9EB047431C59
:10B6200000D141E7EF43FB1700260C930AE022000C
:10B6300001231A320A9909980B9FB847431C00D17D
:10B6400032E70136119A129B0C999B1A2A000A4084
:10B650009B1A9E42EBDB49E7129B012B02DC012384
:10B660001A4245D001232A000A9909980B9FB8472E
:10B67000431C00D118E70E9B0D9A0A9909980B9F5D
:10B68000B847431C00D10FE7A06CE16C00220023F7
:10B690000DF0C8FF002801D000251AE0129B6A1C9B
:10B6A000013B26E0FFFFEF7FA0BA02009CBA020038
:10B6B000A8BA0200A4BA0200ACBA02002200012318
:10B6C0001A320A9909980B9FB847431C00D1EBE640
:10B6D0000135129B013B9D42F0DB220033005032CA
:10B6E0000A9909980B9DA847431C00D0FEE6DBE6AB
:10B6F0002A000A9909980B9DA847431CEDD1D3E66F
:10B700002200012319320A9909980B9EB047431C65
:10B7100000D1C9E60135E368139A9B1A9D42EFDB1D
:10B72000139BE06898425EDA18005CE08023626850
:10B73000DB00511C00D06AE6073202E0002A02D189
:10B740000122626069E60C9908A80B43002106916A
:10B7500012A9059111A903912321091823600193CE
:10B7600000922B000497029132000998FFF758FDD0
:10B770000500119BDA1C02DB626893421CDD023F6C
:10B78000FFB267E6013323617AE6662F15D163685D
:10B79000002909DD2161002B02D12268D2071ED5C4
:10B7A0000133591821611AE0002B03D101222168CD
:10B7B000114213D09A1C11E06727119B129A9342F1
:10B7C00006DB22682361D20709D50133236106E035
:10B7D0000121002B01DC4918C91A8A182261119B2A
:10B7E0000026A3654CE615B0F0BDC046F7B51700BE
:10B7F00001938A680B6900900C00934200DA1300F1
:10B8000022003B6043321278002A01D001333B60B2
:10B8100023689B0602D53B6802333B6006252368FC
:10B820001D401ED0230043331B785A1E93412268CB
:10B8300092061CD53020E1184331087021005A1CB3
:10B8400045310978A2184332023311700FE022000B
:10B850000123193201990098089EB047431C0ED06D
:10B860000135E3683A689B1A9D42F0DBDAE7220073
:10B87000019943320098089DA847431C02D101203A
:10B88000404220E006232068E1683A680340002532
:10B89000042B03D18D1AEB43DB171D40A3682269EB
:10B8A000934201DD9B1AED180027BD420AD0220009
:10B8B00001231A3201990098089EB047431CDED03C
:10B8C0000137F2E70020FEBDF0B58BB006920A000A
:10B8D00043320793059004920A7E0C00109B6E2A57
:10B8E00000D1ABE011D8632A22D009D8002A00D1B8
:10B8F000B5E0582A00D0C5E045310A70814A4FE0D2
:10B90000642A1DD0692A1BD0BCE0732A00D1AAE0AA
:10B9100009D86F2A29D0702A00D0B3E02022096804
:10B920000A43226037E0752A1FD0782A33D0A9E075
:10B930000E001A684236111D196013683370A4E0B6
:10B9400021681A68080606D4490604D5111D196035
:10B950000023D55E02E0111D19601568002D3BDA49
:10B960002D23049A6D42137036E021681A68080688
:10B9700006D4490604D51568111D1960ADB202E060
:10B98000111D196015685F4B227E039308276F2AEB
:10B990001DD00A271BE022007821453211705A4A37
:10B9A00019680392081D226818600D68100602D4F9
:10B9B000500600D5ADB2D30702D520231A4322602A
:10B9C0001027002D03D1202322689A4322602300F0
:10B9D000002243331A7002E00A274A4B039363683C
:10B9E000A360002B09DB0422216891432160002D14
:10B9F00005D1049E002B11D07BE0002D79D0049E50
:10BA0000280039000DF00EFD039B013E5B5C280011
:10BA1000337039000DF080FC051EF1D1082F09D1DB
:10BA20002368DB0706D563682269934202DC302372
:10BA3000013E3370049B9B1B23612BE009681A684D
:10BA4000080607D4490605D5111D19601368A28A96
:10BA50001A8004E0111D1960136862691A600023DE
:10BA6000049E236116E01A68111D196016680021F2
:10BA70006268300000F0ACFE002801D0801B6060DE
:10BA8000636803E0260042363270012323610023FD
:10BA9000049A1370079B09AA00932100069B05983E
:10BAA000FFF7A4FE431C02D10120404227E0236996
:10BAB000320006990598079DA847431CF4D02368D7
:10BAC00000259B070FD4099BE068984217DA1800FD
:10BAD00015E022000123193206990598079EB04708
:10BAE000431CE1D00135E368099A9B1A9D42F0DBC3
:10BAF000E9E72600039B42361B7833708EE70BB0D4
:10BB0000F0BDC046AEBA0200BFBA02000023C25C5C
:10BB10000133002AFBD1581E7047F0B503690C6948
:10BB200089B00700059100269C4279DC0B00013C9E
:10BB30001433A50003935B19049303001433029399
:10BB40005D19049B28681B68591C01930DF0E4FBE8
:10BB50000190B04233D0039B02989C460696634600
:10BB600004CB9C46019B91B25943120C5A4389194C
:10BB70000B0CD3180793069A1E0C038889B29B18E6
:10BB800002685B1A110C6A46928B8A1A19145218B1
:10BB900011149BB21204134308C0049B0691634521
:10BBA000DDD22B68002B0AD1029B043DAB4201D3AE
:10BBB0003C6104E02B68002BFAD1013CF4E70599C5
:10BBC000380001F029F8002829DB0020019B0299A8
:10BBD0000133039A019340CA0B881818B3B2C31AF1
:10BBE0000868360C000C801B1D14451928149BB2E4
:10BBF0002D042B4308C1049B9342ECD2029AA3006C
:10BC0000D3181A68002A0AD1029A043B9A4201D337
:10BC10003C6104E01A68002AFAD1013CF4E7019E75
:10BC2000300009B0F0BD0000F0B516001F00446AF6
:10BC30009DB00490259D06960797002C08D11020F2
:10BC400000F0BCFD049B5862446084600460C460E2
:10BC5000049B5B6A196800290BD05A680123934042
:10BC60004A608B60049800F0FFFD0022049B5B6A31
:10BC70001A60079B002B05DA01232B607B005B0811
:10BC8000079301E000232B60079CC84B2200199307
:10BC90001A409A4219D1C64B249A1360069AC54B92
:10BCA000002A02D1240300D1C34B269A1800002A8F
:10BCB00001D100F07DFDD978DA1C002900D00532D1
:10BCC000269918000A6000F073FD069E079F002267
:10BCD0000023300039000DF0A5FC051E0ED0012315
:10BCE000249A1360B54B269A1800002A01D100F05F
:10BCF0005FFDB34A26990A6000F05AFD1AAB019322
:10BD00001BAB009332003B00049801F00BF863007A
:10BD100005905B0D09D03A03AA4C120B1443AA4AB2
:10BD2000300021009E1817951AE01A9B1B9A9E1846
:10BD3000A64BF318202B08DDA54A0698B218D04070
:10BD40004022D31A9C40204303E020220698D31AB5
:10BD500098400FF009FC01239E4C013E09191793EE
:10BD600000229D4B0FF014F89C4A9D4B0EF096FD5F
:10BD70009C4A9D4B0DF042FE040030000D000FF078
:10BD8000B1FB9A4A9A4B0EF089FD02000B0020008D
:10BD900029000DF033FE04000D000FF06DFB0022B2
:10BDA00003900023200029000DF042FC00280DD054
:10BDB00003980FF097FB02000B00200029000DF004
:10BDC00031FC43424341039AD31A03930123169350
:10BDD000039B162B11D88749DB00C91808684968EE
:10BDE000069A079B0DF038FC002805D0039B013B09
:10BDF00003930023169300E016901A9B9E1B0023CA
:10BE00000B93013E0C9604D50C9B5B420B930023D5
:10BE10000C93039B002B08DB039A0C9B9446634412
:10BE20000C9300231192089307E00B9B039A9B1A33
:10BE30000B935342089300231193229B0125092B56
:10BE400025D8052B02DD0025043B2293229B981E5A
:10BE5000032824D80DF056FA060E0204012302E04E
:10BE6000012308E000231093239B002B20DD1F00FB
:10BE70000A9321E00023239A1093039B9F187B1CB5
:10BE80000A930123FA18002A16DD130014E0012793
:10BE900000237F42229310950A97123305E0012771
:10BEA00001237F4210930A9711330022239203E06B
:10BEB00001273B000A972397049A546A0022626084
:10BEC000043211001431994204D8616852000131E2
:10BED0006160F6E76168049800F08EFC049B2060C6
:10BEE0005B6A1B680D930A9B0E2B00D981E1002D24
:10BEF00000D17EE1069B079C14931594039B002BB5
:10BF000031DD0F223B491340DB00CB185C681B6816
:10BF10000E930F94039B02241D11EB060AD514986F
:10BF20001599354B15401A6A5B6A0EF093F8069026
:10BF300007910134304E002D0ED001231D4208D050
:10BF40000E980F99E418326873680EF0A7FC0E90F3
:10BF50000F916D100836EEE70E9A0F9B0698079921
:10BF60000EF078F84CE0039B02245D42002D49D08E
:10BF7000149815990F231F4A2B40DB00D3181A6819
:10BF80005B680EF08BFC0023069007911A4E2D1172
:10BF9000002D33D00122154205D0A41832687368F1
:10BFA0000EF07CFC01236D100836F1E70000F07FF5
:10BFB0000F270000D9BA0200D0BA0200ACBA0200C2
:10BFC000ADBA02000000F03F01FCFFFF32040000A8
:10BFD00012040000000010FE0000F83F61436F6390
:10BFE000A787D23FB3C8608B288AC63FFB799F5092
:10BFF0001344D33FE8BA0200C0BB0200002B01D0BB
:10C0000006900791169B002B1DD0069D079E0022CF
:10C01000C74B280031000DF00BFB002813D00A9B02
:10C02000002B10D0002F00DCDFE0039B3100013B30
:10C030000E930022BF4B28000EF030FC0134069016
:10C0400007913E0002E0039B0A9E0E9320000FF032
:10C0500049FA069A079B0EF021FC0022B64B0DF020
:10C06000CDFCB64A12901391129C139D9446139BDB
:10C07000634418931D00002E1CD1069807990022D6
:10C08000AF4B0EF085FE2200189B069007910DF035
:10C09000E3FA002800D054E2AA4813998446614488
:10C0A0000B000698079922000DF0C2FA002800D074
:10C0B0003DE29AE0109A731EA349DB00002A49D0A2
:10C0C000CB181A685B680020A0490DF0C3FF2B0055
:10C0D00022000EF05DFE129013910D9D06980799B7
:10C0E0000FF0CAF904000FF0FDF902000B000698EA
:10C0F00007990EF04DFE01356B1E30341C70129AFC
:10C10000139B069007910DF093FA002800D02EE3C0
:10C11000069A079B002086490EF03AFE129A139B5E
:10C120000DF086FA002800D0C7E00D9BEB1AB34251
:10C130005BDA1298139900227E4B0EF0AFFB0022BF
:10C1400012901391069807997A4B0EF0A7FB069070
:10C150000791C3E7C9182200086849682B000EF050
:10C160009DFB0D9C12901391A519069807990FF04D
:10C1700083F906000FF0B6F902000B000698079944
:10C180000EF006FE3036267001340690079100222C
:10C19000A54222D16D4B129813990DF02FFC02008D
:10C1A0000B00069807990DF057FA002800D084E09C
:10C1B000129A139B002065490EF0EAFD02000B0065
:10C1C000069807990DF034FA00280ED06B1E1A78E5
:10C1D000302A00D0CBE21D00F8E706980799554BAE
:10C1E0000EF05CFB06900791BFE7149B159C06932D
:10C1F00007941B9B002B00DA81E0039A0E2A00DDD6
:10C200007DE0D300504AD3185C681B6808930994FA
:10C21000239B002B15DA0A9B002B12DC00D088E14F
:10C22000089809990022464B0EF038FB069A079BA6
:10C230000DF01CFA0A9B08931E00002800D07BE139
:10C2400082E10D9D069E079F089A099B30003900E8
:10C250000DF000FF0FF010F904000FF043F9089AF9
:10C26000099B0EF01BFB02000B00300039000EF0A2
:10C270008FFD220001356B1E30321A700D9B0A9A19
:10C28000EB1A9A422ED102000B000DF0B7FB06000C
:10C290000F0002000B00089809990DF0C9F9002859
:10C2A0000FD10898099932003B000DF0BBF9002826
:10C2B00000D15EE2E30704D45BE20E9B039300E04F
:10C2C0001D006B1E1A78392A08D10D9A9A42F7D1AF
:10C2D000039A0D990132039230220A701A780132C2
:10C2E0001A7046E20022134B0EF0D8FA0022002307
:10C2F00006000F000DF096F90028A5D039E2109A3B
:10C30000002A44D0229A012A0BDC179A002A02D074
:10C310000F4A9B1802E036231A9A9B1A089D0B9C21
:10C3200029E00A9B5D1E089BAB4213DB5D1B18E0F6
:10C330000000F03F0000244000001C400000C0FC52
:10C34000000014400000C07CE8BA02000000E03F9A
:10C3500033040000089B0895EA1A0025119B9B18DE
:10C3600011930A9B002B04DA0B9B0A9A9C1A002358
:10C3700001E00B9C0A9B0B9A0121D2180B920C9A9C
:10C380000498D3180C9300F00FFB060002E0089D00
:10C390000B9C109E002C0ED00C9B002B0BDD0C9ADE
:10C3A0002300944200DD13000B9AE41AD21A0B9278
:10C3B0000C9AD31A0C93089B002B20DD109B002BAA
:10C3C00017D0002D11D031002A00049800F07EFB18
:10C3D000059A01000600049800F0EFFA05990E9006
:10C3E000049800F041FA0E9B0593089B5A1B06D057
:10C3F00000E0089A0599049800F068FB0590012177
:10C40000049800F0D1FA119B0890002B00D1C0E1F4
:10C410001A000100049800F059FB229B0890012BA0
:10C4200017DC0025069BAB420ED1079B1B03AB42DA
:10C430000AD1199B079A134206D00B9B0135013391
:10C440000B930C9B01330C93119B0120002B0DD0FF
:10C4500000E00025089B089A1B690E9303339B009C
:10C46000D318586800F056FA2023181A0C9BC018ED
:10C470001F23184009D001331B1A042B02DD1C2393
:10C48000181A03E0042B08D018001C300B9B24184A
:10C490001B180B930C9B1B180C930B9B002B05DD9F
:10C4A0001A000599049800F065FB05900C9B002B81
:10C4B00005DD1A000899049800F05CFB0890169BB3
:10C4C000002B1DD00899059800F0A6FB002817DA6C
:10C4D000039B0A22013B039305990023049800F073
:10C4E000DCF9109B0590002B00D159E131000023AD
:10C4F0000A22049800F0D1F90600002F37DC33E05F
:10C500000A9B0A9F002B2ADC229B022B27DD002F8F
:10C5100012D108993B000522049800F0BEF908905A
:10C520000100059800F078FB00280DDC04E0089677
:10C5300002E000231E000893239B0D9DDB43039321
:10C540000AE00E9B089603930D9B0D9A5D1C312308
:10C550001370039B013303930A960026F3E0109BAC
:10C56000002B04D10D9DB5E0229B022BCFDC002CCB
:10C5700005DD31002200049800F0FCFA06000A965E
:10C58000002D12D07168049800F036F931000400D3
:10C5900033690C319A1C92000C3000F024F901220E
:10C5A0002100049800F0E6FA0A900D9B7D1E0B9383
:10C5B0005B190E9308990598FFF7AFFA31001090B8
:10C5C0000400059800F028FB0A9A050008990498D1
:10C5D00000F03DFB01230C93C36830340700002BAF
:10C5E00004D10100059800F017FB0C903900049865
:10C5F00000F03AF90C9B229A134308D1069A0133B2
:10C60000134204D1392C2AD0002D1CDC1DE0002D52
:10C6100006DB229B1D431BD10123069A134217D12F
:10C620000C9B002B11DD05990122049800F0A2FA61
:10C630000899059000F0F0FA002802DC05D1E30724
:10C6400003D5392C0BD0109C31340B9B5D1C0FE0B3
:10C650000B9B5F1C0C9B002B0CDD392C05D10B9B1D
:10C660000B9A5D1C3923137057E03D000B9B01347E
:10C670001C7068E00B9B0E9A3D001C7093423CD0EE
:10C6800000230A220599049800F007F90A9B0590F7
:10C690009E4208D1310000230A22049800F0FDF8E0
:10C6A00006000A900DE0310000230A22049800F0F1
:10C6B000F4F8002306000A220A99049800F0EDF825
:10C6C0000A900B9776E700230A220599049800F058
:10C6D000E4F8059008990598FFF71FFA0D9B303094
:10C6E000287001350400EB1ABB42ECDB3D1E00DC78
:10C6F00001250A9600260D9B5D19059901220498D3
:10C7000000F038FA0899059000F086FA002804DC59
:10C7100013D1E30701D410E01D006B1E1A78392AEB
:10C7200008D10D9A9A42F7D1039B01330393312329
:10C73000137008E001321A7005E06B1E1A78302A77
:10C7400001D11D00F9E70899049800F08DF80A9BC3
:10C75000002B0ED0002E05D09E4203D0310004984D
:10C7600000F082F80A99049800F07EF801E00E9B30
:10C7700003930498059900F077F800232B70039B2E
:10C78000249A01331360269B0D98002B10D01D6056
:10C790000EE0229B012B00DC43E6119D012065E6A3
:10C7A000002F00DDDEE6229B022B00DCDAE6AEE69F
:10C7B0001DB0F0BD00487047E420002010B5034BC9
:10C7C0000100186800F05CFB10BDC046E0200020AE
:10C7D000C9B28218904204D003788B4202D0013053
:10C7E000F8E700207047002310B59A4203D0CC5CD4
:10C7F000C4540133F9E710BD70B5466A04000D005A
:10C80000002E07D11020FFF7D9FF606246608660D6
:10C810000660C660666AF368002B09D0636AAA00E6
:10C82000DB689B18186800280ED002681A6017E0B1
:10C8300021220421200000F0C9FA636AF060DB685D
:10C84000002BEBD100200EE001210E00AE40721D46
:10C850009200200000F0BAFA0028F3D0456086600C
:10C8600000230361C36070BD70B5456A06000C000B
:10C87000002D07D11020FFF7A1FF70624560856091
:10C880000560C560002C07D0726A6368D2689B009F
:10C89000D3181A6822601C6070BDF7B50700080045
:10C8A0000C000D691E00002101921430019A0388CA
:10C8B000013153439B190668360C56431A0C9446B3
:10C8C000B4446246160C120494469BB2634408C0FA
:10C8D0008D42EBDC002E1BD0A3689D4212DB636807
:10C8E0003800591CFFF788FF2100236901909A1C2A
:10C8F00092000C310C30FFF776FF21003800FFF773
:10C90000B3FF019C2B1D9B00E31801355E60256180
:10C910002000FEBD00220300010C914201D103045E
:10C920001032190E01D108321B02190F01D1043245
:10C930001B01990F01D102329B001000002B03DB79
:10C9400020205B0000D5501C70470722036810B5FB
:10C9500001001A400CD001240020234223D10222DE
:10C96000134203D0E34020000B601CE09B0818E05A
:10C9700098B2002801D110221B0CD8B2002801D196
:10C9800008321B0A180701D104321B09980701D18C
:10C9900002329B08D80704D45B082020002B02D069
:10C9A000013210000B6010BD10B50C000121FFF723
:10C9B00023FF01234461036110BDF0B50B6914002E
:10C9C000126989B00D00934201DA25000C002F692D
:10C9D0002669AA68BB1969680193934200DD013199
:10C9E000FFF70AFF0200BB1914329B00D3189C46C4
:10C9F000002113000290634501D202C3FBE7143506
:10CA0000BF00EB191434B6000593A31903950793DF
:10CA1000079B9C4251D2208800281ED0150000267A
:10CA2000039F08CF069504936B461B8A4343190066
:10CA30002B88CB1804999B19090C41432E68360C9E
:10CA400089191E0C89190E0C9BB209040B4308C5E9
:10CA5000059BBB42E5D8069B5E6023681D0C1FD07A
:10CA6000002110001368039F04913E8801686E4303
:10CA7000090C7118049E9BB289190E04334303609C
:10CA800008CF86881B0C6B43090C9B195B18190C8B
:10CA90000491059906900430B942E6D806994B6096
:10CAA00004340432B4E704235B429C4463461B68AD
:10CAB000002B05D1019B013B0193019B002BF2DC74
:10CAC000029B019A18001A6109B0F0BD0323F7B563
:10CAD000134005000E001400002B08D02349013B31
:10CAE0009A00525800233100FFF7D7FE0600A3102A
:10CAF000019338D06C6A002C07D11020FFF75EFE3E
:10CB00006862446084600460C4606F6ABC68002C22
:10CB100010D117492800FFF747FF0023B860040031
:10CB2000036007E0019B5B1001931CD02068002884
:10CB300010D004000122019B1342F3D031002200E7
:10CB40002800FFF73AFF070031002800FFF78CFEAE
:10CB50003E00E7E7220021002800FFF72EFF002318
:10CB600020600360E5E73000FEBDC046B0BB0200B8
:10CB700071020000F0B50C0017002369551185B053
:10CB8000EB180193013300934968A3680290009A5F
:10CB9000934202DA01315B00F9E70298FFF72CFEBD
:10CBA00000230200060019001432AB4203DA980099
:10CBB00011500133F9E7EB43DB171D402300AD00B3
:10CBC00055192269143392009A1894461F2217406F
:10CBD00014D00132D21B0392002219682800B940F8
:10CBE0000A4304C504CB0399CA409C45F5D842606A
:10CBF000002A07D0019B0233009303E004CB04C555
:10CC00009C45FBD8009B0298013B33612100FFF754
:10CC10002BFE300005B0F0BD03690A6910B59B1A00
:10CC20000400181E12D1930014341431E218C918EC
:10CC3000043A043913680868834204D083429B4154
:10CC40000120184302E09442F2D3002010BDF0B559
:10CC50000C0085B00700110020001500FFF7DCFF75
:10CC6000061E07D101003800FFF7C6FD012346610B
:10CC7000036155E000230193984204DA23002C005D
:10CC80001D000123019361683800FFF7B5FD019B8A
:10CC900026692F00C3601434B300E3180200029326
:10CCA0002B69002514379B00FB180393143208CC22
:10CCB00069469C4608CF0432009363468B808B887C
:10CCC0005D19009B9BB2EB1A65460193009B2D0CEE
:10CCD000190C019B691A1D14131F9C466B464919B8
:10CCE0009B880D1409040B4361460B60039BBB42F8
:10CCF000DDD8029913008C420BD202CC8BB25B19A7
:10CD00001D14090C49190D149BB209040B4308C2E8
:10CD1000EFE7043B1A68002A01D1013EF9E70661FA
:10CD200005B0F0BDF7B51D000121089F1400FFF705
:10CD300063FD2B036D0006001B0B6D0D02D08022DE
:10CD4000520313430193002C18D068460094FFF758
:10CD5000FCFD009C002809D0019B20211A00091A23
:10CD60008A40C34022437261019300E07461019CD8
:10CD7000B461631E9C410134346107E001A8FFF7F0
:10CD8000E4FD0124019B346173612030002D06D045
:10CD90000B4BED1835232D183D60181A0BE0094B8D
:10CDA000C018094B3860E3189B00F3185869FFF767
:10CDB000B1FD6401201A099B18603000FEBDC04619
:10CDC000CDFBFFFFCEFBFFFFFFFFFF3F4A4370B5E8
:10CDD0001100140000F054F8051E03D022000021B9
:10CDE000FEF716FA280070BD70B50500002944D082
:10CDF0000C1F2368002B00DAE418280000F0B2F8BA
:10CE00001E4A13681100002B02D16360146031E0E8
:10CE1000A3420DD92268A018834203D118685B6829
:10CE20008218226063600C6024E0A24203D81300E1
:10CE30005A68002AF9D11E689819A0420BD12168BE
:10CE4000711858181960824214D11068526841183C
:10CE500019605A600EE0A04202D90C232B6009E051
:10CE600021686018824203D110685268411821601D
:10CE700062605C60280000F076F870BDC021002080
:10CE8000032370B5CD1C9D43083506000C2D01D23F
:10CE90000C2501E0002D01DBA94202D90C233360EF
:10CEA00048E0300000F05EF8234B1C681A002100B7
:10CEB000002913D00B685B1B0DD40B2B02D90B6020
:10CEC000CC181EE08C4202D1636813601AE04B68F4
:10CED00063600C0016E00C004968E9E7174C236812
:10CEE000002B03D1300000F02BF820602900300027
:10CEF00000F026F8431C18D00323C41C9C43A04216
:10CF00000DD12560300000F02EF8200007220B30F4
:10CF1000231D9043C31A0ED05A42E2500BE0211A4F
:10CF2000300000F00DF8431CEBD10C2330003360CF
:10CF300000F019F8002070BDC0210020BC210020A5
:10CF4000002370B5064C05000800236000F00CF8C3
:10CF5000431C03D12368002B00D02B6070BDC0465A
:10CF60003C320020704770470E4B10B51A68002AFB
:10CF700001D10D4A1A6069461A681018884206D80D
:10CF80000A490B4C0968A14208D0884206D900F032
:10CF900029F80C2303600120404201E018601000D2
:10CFA00010BDC046C4210020183300201C210020E1
:10CFB000ADDEFECA012110B5494200F001F810BDF6
:10CFC00030B51824062901D1044D00E0044D201C81
:10CFD000291CABBE041C200030BDC046230002004B
:10CFE00026000200014B18687047C046E020002070
:10CFF00076DF7047C04618007ADF7047C0461800D9
:10D000007CDF7047C0461800A9DF7047C046180093
:10D010003CDF7047C046180048DF7047C046180024
:10D0200000B589B0059004910392039B0793124BBE
:10D03000190000200BF0D4FB079B9A68079B1B8804
:10D040009BB21800079B5B680C490093030000200B
:10D050000BF0C6FB0A4B190000200BF0C1FB1B2391
:10D060006B4400221A701B236B4403221A700C209D
:10D0700002F04EFEFEE7C04650BC020058BC020063
:10D080007CBC020082B00190024B01221A70C046A3
:10D0900002B070470C22002082B00190024B0122A6
:10D0A0001A70C04602B070470D22002000B587B04C
:10D0B0001D4A0023052100200AF098FC0300059377
:10D0C000059B0493049B002B05D0184A049B9A21CE
:10D0D000180009F0F3FD164A164B012118000AF05A
:10D0E00007FD03000393039B0293029B002B05D0D3
:10D0F0000E4A029B9E21180009F0E0FD0E4A0F4BDC
:10D10000012118000AF0F4FC03000393039B019330
:10D11000019B002B05D0054A019BA121180009F0B5
:10D12000CDFDC04607B000BD1022002084BC020027
:10D1300085D0010048BC020099D001004CBC02001F
:10D1400000B587B06B461A780F218A43111C012263
:10D150000A431A706B461A780F210A40111C1022DC
:10D160000A431A701F4B1800FEF7D0FC03009AB256
:10D170001C496B461800FFF743FF03000593059B0E
:10D180000493049B002B05D0174A049BB52118007B
:10D1900009F094FD01AB082200211800FEF738F8D1
:10D1A00001AB10221A8001AB28225A8001AB002269
:10D1B0009A8001ABC8225200DA8001AB1800FFF759
:10D1C0001BFF03000593059B0393039B002B05D0D6
:10D1D000054A039BBF21180009F070FDC04607B047
:10D1E00000BDC046C0BC020084BC020010B5054BA7
:10D1F000180000F0C3FF044B180001F0FBFEC0460E
:10D2000010BDC046403200205C32002000B585B021
:10D210000190019B1B78002B12D10B4B1B883B21EB
:10D220001800FFF7E5FE03000393039B0293029BA4
:10D23000002B05D0054A029BDE21180009F03EFDB7
:10D24000C04605B000BDC0462021002084BC0200BD
:10D2500000B583B00190044A019BE921180009F050
:10D260002DFDC04603B000BD84BC020000B58BB0EC
:10D2700001AB1C2200211800FDF7CAFF01AB002200
:10D280001A6001ABA02292025A6001ABF022120395
:10D290009A6001AB03221A7301AB0022DA8101AB61
:10D2A00000221A7401AB0D4A5A6101AB0C4A9A6113
:10D2B00001AB180004F0CAFB03000993099B089313
:10D2C000089B002B06D0074A80235900089B1800B2
:10D2D00009F0F4FCC0460BB000BDC0460DD2010001
:10D2E00051D2010084BC020000B585B016488023ED
:10D2F0005B02002219000AF045FC03000393039B24
:10D300000293029B002B07D0104A0C23FF33190015
:10D31000029B180009F0D2FC0D4880235B0200221A
:10D3200019000AF02FFC03000393039B0193019B58
:10D33000002B06D0054A87235900019B180009F0ED
:10D34000BDFCC04605B000BDCC21002084BC02005D
:10D35000EC21002000B585B0002002F0D9FC0300CC
:10D360000393039B0293029B002B07D0164A1A23B8
:10D37000FF331900029B180009F0A0FC02F0AAFE7E
:10D3800003000393039B0193019B002B07D00E4ADC
:10D390001E23FF331900019B180009F08FFCFFF7D3
:10D3A00037FE03000393039B0093009B002B07D0E1
:10D3B000054A2223FF331900009B180009F07EFC68
:10D3C000C04605B000BDC04684BC020000B585B0B3
:10D3D00002006B4607331A706B4607331B78002B2D
:10D3E00015D0032B00D016E0022002F091FC0300C0
:10D3F0000393039B0293029B002B0BD0074A342319
:10D40000FF331900029B180009F058FC02E0FFF7F7
:10D41000A1FF00E0C046C04605B000BD84BC0200CC
:10D4200000B587B00190019B180001F06FFF019BD0
:10D430001B88112B30D0522B33D0102B00D049E059
:10D44000072002F065FC03000593059B0493049BF1
:10D45000002B06D0214AA6235900049B180009F08E
:10D460002DFC019B9A881E4B1A801D4B18880023A7
:10D4700000220021FFF7C8FD03000593059B0393DD
:10D48000039B002B23D0154A5023FF331900039B25
:10D49000180009F013FC1AE0114B012252421A80C5
:10D4A00018E00F4B1888002300220021FFF7ACFD85
:10D4B00003000593059B0293029B002B09D0074AAA
:10D4C000AC235900029B180009F0F8FB01E0C046AC
:10D4D00000E0C046C04607B000BDC04684BC0200A4
:10D4E0002021002000B583B00190019B180005F0B9
:10D4F00017FC019B180004F0DFFB019B180002F0F1
:10D50000FDFD019B1800FFF78BFF019B180004F045
:10D51000CBF8019A064B1100180000F011FC019A9B
:10D52000044B1100180001F09BFCC04603B000BD85
:10D53000403200205C32002000B583B00190019B96
:10D54000180007F0FBFD019B180004F057F9C046D6
:10D5500003B000BD00B591B006AA404B1000190001
:10D5600004231A00FFF73FF93D4906A8002348228B
:10D570000BF0D6FA03000F930F9B0E930E9B002B1C
:10D5800006D0384AC72359000E9B180009F096FBB5
:10D5900001AB1A00012100200BF04CFB03000D939E
:10D5A0000D9B0C930C9B002B06D02E4ACA235900CE
:10D5B0000C9B180009F082FB2B4B0B930B9B180064
:10D5C0000BF08CFB03000D930D9B0A930A9B002B21
:10D5D00007D0244A9823FF3319000A9B180009F04A
:10D5E0006DFB01AB18000BF0A3FB03000D930D9B2B
:10D5F0000993099B002B07D01A4A9C23FF3319007B
:10D60000099B180009F05AFB184B18000BF0D0FAD0
:10D6100003000D930D9B0893089B002B07D0114A24
:10D62000A023FF331900089B180009F047FB104B9B
:10D6300018000BF0CDFA03000D930D9B0793079B89
:10D64000002B07D0074AA423FF331900079B1800BB
:10D6500009F034FBC04611B000BDC046C4BC020096
:10D66000D823002084BC0200E81F0020E5D401007C
:10D6700039D5010000B587B002006B4607331A7038
:10D680006B4607331B78072B1FD00A2B02D0042BC5
:10D6900003D031E0FFF75EFE2EE0194B1B8813210B
:10D6A0001800FFF7A5FC03000593059B082B20D06D
:10D6B000059B0493049B002B1BD0124ADC235900CA
:10D6C000049B180009F0FAFA13E004F0C7F803000D
:10D6D0000593059B082B0ED0059B0393039B002B02
:10D6E00009D0084AE0235900039B180009F0E6FA24
:10D6F00001E0C04600E0C046C04607B000BDC046DD
:10D700002021002084BC020000B587B00390029164
:10D710000192019B0593059B002B06D0054AE92346
:10D720005900059B180009F0C9FA0023180007B03A
:10D7300000BDC04684BC020000B58BB002006B4641
:10D7400007331A7005AB6A46073212781A7007F071
:10D7500069FE03000993099B0893089B002B06D0E0
:10D76000314AF6235900089B180009F0A7FA05ABC7
:10D77000180005F077F903000993099B0793079BAD
:10D78000002B07D0284AF023FF331900079B18000D
:10D7900009F094FA02AB0533052200211800FDF7C9
:10D7A00037FD02AB5A7901210A435A7102AB5A790B
:10D7B00002218A435A7102AB5A7904218A435A7171
:10D7C00002AB5A7908218A435A7102AB5A79702107
:10D7D0008A43111C30220A435A7102AB5A797F21C5
:10D7E0000A405A7102AB07229A7102AB1022DA7119
:10D7F00002AB0E4A1A6002AB01221A7102AA0C4B4C
:10D800001100180005F0D4F903000993099B069351
:10D81000069B002B05D0044A0649069B180009F018
:10D820004DFAC0460BB000BD84BC020009D7010010
:10D83000C8210020FF01000000B59DB00CAB3822CC
:10D8400000211800FDF7E4FC0CAB02221A700CABAF
:10D8500001229A700CAB0622DA700CAB01221A82FC
:10D860000CAB164A5A6103AB180024231A0000219E
:10D87000FDF7CEFC03AB01221A7303AB96225200D4
:10D880001A6103AB00225A610D4903AA0CA80023B8
:10D8900000930B00002103F047FC03001B931B9B2C
:10D8A0001A931A9B002B05D0064A07491A9B1800A9
:10D8B00009F004FAC0461DB000BDC0462421002076
:10D8C000CDD3010084BC02001902000000B587B06E
:10D8D0000190194B19491A00032002F035FA030090
:10D8E0000593059B0493049B002B06D0144A8A23BE
:10D8F0009900049B180009F0E1F90B236B4419000F
:10D90000002002F041FC03000593059B0393039B59
:10D91000002B05D00A4A0B49039B180009F0CEF9E9
:10D920000B236B441B78023B5A425341DAB2019BF2
:10D930001A70C04607B000BD75D60100CD0C0000BE
:10D9400084BC02002B02000000B583B0FFF764FB2B
:10D9500003000193019B0093009B002B05D0044A18
:10D960000449009B180009F0A9F9C04603B000BDA6
:10D9700084BC02003602000000B583B00190009123
:10D98000019B180000F044FDC04603B000BDC04636
:10D9900010B586B06B460F4A13CA13C312681A60DB
:10D9A0000D4A69460D48002308F098FB03000593D3
:10D9B000059B0493049B002B05D0094A0949049B4D
:10D9C000180009F07BF9054B180008F001FCC0466F
:10D9D00006B010BDC8BC020079D901002821002082
:10D9E00084BC02005202000000B585B00190019B8A
:10D9F000180000F049FE03000393039B0293029B6F
:10DA0000002B06D0044A9B239900029B180009F0C2
:10DA100055F9C04605B000BD84BC0200F0B599B010
:10DA2000FFF744FB47236B441800FFF74FFFFFF756
:10DA300091FD47236B441B781800FFF77DFEFFF72D
:10DA40007FFBFFF7F9FEFFF7D1FBFFF70FFC5E4A04
:10DA50005E4B190000200AF0C3FEFFF799FF5C4BF4
:10DA6000180000F0BBFD03001793179B1693169B3D
:10DA7000002B05D0574A5849169B180009F01EF98B
:10DA8000032301220121012000F0B4FD03001793BC
:10DA9000179B1593159B002B06D04E4AA323990084
:10DAA000159B180009F00AF900F042FE03001793D5
:10DAB000179B1493149B002B05D0464A4749149B8F
:10DAC000180009F0FBF8FFF70FFC032003F054FCEB
:10DAD00003001393139B1293129B002B05D03D4A16
:10DAE0003F49129B180009F0E9F83E4B1B78DBB266
:10DAF000002B5BD00EAB1800FFF776FF0EAB0833A0
:10DB00001A00394B1100180000F08AFB0EAA364BA0
:10DB10001100180000F0C8FB0EAB1A1D324B1100AB
:10DB2000180000F005FC0EAB9B6818000BF028FFF6
:10DB3000031C2E49181C0BF0C1FD031C181C0DF012
:10DB40004BFD06000F000EAB1B6818000BF018FF12
:10DB5000031C8921C905181C0BF0B0FD031C181CFF
:10DB60000DF03AFD04000D000EAB5B6818000BF0E1
:10DB700007FF031C1D49181C0BF0A0FD031C181CFB
:10DB80000DF02AFD02000B00194905A8029203932B
:10DB90000094019532003B000DF0A0FD05AB19008B
:10DBA00000200AF01DFE0F4B00221A70FFF7CCFE7A
:10DBB000104B1B78DBB2002B97D001F0ABF80D4B6C
:10DBC00000221A7091E7C046D8BC0200E4BC0200F3
:10DBD0002821002084BC0200890200008F0200007E
:10DBE000950200000C220020403200200000C842B4
:10DBF000F8BC02000D220020A0DF7047C0461800CC
:10DC0000A2DF7047C0461800A5DF7047C046180065
:10DC1000A6DF7047C046180063DF7047C046180093
:10DC200000B58BB00190009104AB02221A8004ABC6
:10DC300000225A8004AB0E226A445A60009BDA88A4
:10DC4000019B1B899A4221D1019B1888019B1B894A
:10DC500004AA1900FFF7D8FF03000993099B089352
:10DC6000089B002B05D0324A089B2921180009F097
:10DC700025F80E236B441B88012B03D12D4B012269
:10DC80001A7052E02B4B00221A704EE0009BDA888B
:10DC9000019B1B8A9A4221D1019B1888019B1B8AF8
:10DCA00004AA1900FFF7B0FF03000993099B07932B
:10DCB000079B002B05D01E4A079B3621180008F051
:10DCC000FDFF0E236B441B88012B03D11A4B01224D
:10DCD0001A702AE0184B00221A7026E0009BDA889E
:10DCE000019B1B8B9A4220D1019B1888019B1B8BA7
:10DCF00004AA1900FFF788FF03000993099B069304
:10DD0000069B002B05D00A4A069B4321180008F009
:10DD1000D5FF0E236B441B88012B03D1074B012237
:10DD20001A7002E0054B00221A70C0460BB000BD0D
:10DD300020BD0200202400202224002021240020D5
:10DD400000B583B001900091009B1B88112B09D076
:10DD5000502B0CD0102B00D010E0009B9A88019B18
:10DD60001A800BE0019B012252421A8006E0009AC1
:10DD7000019B11001800FFF753FFC046C04603B0D7
:10DD800000BDC04600B595B001900023139311ABC0
:10DD900001229A7011AB4E4A1A800AAB1C22002154
:10DDA0001800FDF735FA0AAB1A7802210A431A70F7
:10DDB00009AB032200211800FDF72AFA09AB1A78F3
:10DDC0000F218A43111C01220A431A7009AB1A78E9
:10DDD0000F210A40111C10220A431A7009AB5A780D
:10DDE0000F218A43111C01220A435A7009AB5A7849
:10DDF0000F210A40111C10220A435A7009AB9A786D
:10DE000006218A43111C02220A439A700AAB09AA0E
:10DE10005A610AAB1A7810210A431A7008AB032220
:10DE200000211800FDF7F4F908AB9A7806218A431F
:10DE3000111C02220A439A7008AB1A780F218A43F8
:10DE4000111C01220A431A7008AB1A780F210A40EC
:10DE5000111C10220A431A7008AB5A780F218A430A
:10DE60005A7008AB5A780F210A405A7003AB14223B
:10DE700000211800FDF7CCF903AB11AA1A6003AB1F
:10DE800008AA5A6003AB04229A8103AB04221A81C8
:10DE900002AB00221A6003AB02AA1A61019B5888E8
:10DEA000019B143303AA0AA9FFF7AAFE03001393E8
:10DEB000139B1293129B002B05D0064A129B8F21B5
:10DEC000180008F0FBFE0023180015B000BDC04686
:10DED0005EE5FFFF20BD020000B595B00190002374
:10DEE000139311AB01229A7011ABD222FF321A8028
:10DEF0000AAB1C2200211800FDF78AF90AAB1A7838
:10DF000002210A431A7009AB032200211800FDF711
:10DF10007FF909AB1A780F218A43111C01220A43A9
:10DF20001A7009AB1A780F210A40111C10220A43FB
:10DF30001A7009AB5A780F218A43111C01220A4337
:10DF40005A7009AB5A780F210A40111C10220A435B
:10DF50005A7009AB9A7806218A43111C02220A439F
:10DF60009A700AAB09AA5A610AAB1A7810210A43BF
:10DF70001A7008AB032200211800FDF749F908AB1D
:10DF80009A7806218A43111C02220A439A7008AB30
:10DF90001A780F218A43111C01220A431A7008AB18
:10DFA0001A780F210A40111C10220A431A7008AB7C
:10DFB0005A780F218A435A7008AB5A780F210A40C9
:10DFC0005A7003AB142200211800FDF721F903ABAE
:10DFD00011AA1A6003AB08AA5A6003AB04229A8103
:10DFE00003AB04221A8102AB00221A6003AB02AA1F
:10DFF0001A61019B5888019B0C3303AA0AA9FFF7F9
:10E00000FFFD03001393139B1293129B002B05D06B
:10E01000044A129BC321180008F050FE0023180088
:10E0200015B000BD20BD020000B595B001900023E1
:10E03000139311AB01229A7011AB4E4A1A800AABAE
:10E040001C2200211800FDF7E3F80AAB1A78022120
:10E050000A431A7009AB032200211800FDF7D8F813
:10E0600009AB1A780F218A43111C01220A431A7046
:10E0700009AB1A780F210A40111C10220A431A70AA
:10E0800009AB5A780F218A43111C01220A435A70A6
:10E0900009AB5A780F210A40111C10220A435A700A
:10E0A00009AB9A7806218A43111C02220A439A700E
:10E0B0000AAB09AA5A610AAB1A7810210A431A70EE
:10E0C00008AB032200211800FDF7A2F808AB9A78EC
:10E0D00006218A43111C02220A439A7008AB1A785F
:10E0E0000F218A43111C01220A431A7008AB1A78C7
:10E0F0000F210A40111C10220A431A7008AB5A78EB
:10E100000F218A435A7008AB5A780F210A405A707F
:10E1100003AB142200211800FDF77AF803AB11AA13
:10E120001A6003AB08AA5A6003AB04229A8103ABBE
:10E1300004221A8102AB00221A6003AB02AA1A6100
:10E14000019B5888019B043303AA0AA9FFF758FDD5
:10E1500003001393139B1293129B002B05D0064AC6
:10E16000129BF721180008F0A9FD0023180015B034
:10E1700000BDC046AEEEFFFF20BD020000B58BB073
:10E18000019002AA234B1000190010231A00FEF779
:10E190002AFB06AB204A1A8006AB9A1C02AB110080
:10E1A0001800FFF739FD03000993099B0893089BAA
:10E1B000002B06D0194A85235900089B180008F047
:10E1C0007DFD019B012252421A80019B9A1C06ABE5
:10E1D00019000120FFF710FD03000993099B079325
:10E1E000079B002B06D00D4A89235900079B180076
:10E1F00008F064FD019B1800FFF716FF019B180053
:10E20000FFF76AFE019B1800FFF7BCFDC0460BB08C
:10E2100000BDC04668BD02000DF0FFFF20BD02003A
:10E2200000B589B001900091019B1B881B4A934265
:10E2300031D01B4B1B78DBB2002B2CD01A236B4444
:10E2400004221A8002AB102200211800FCF7E0FF24
:10E25000019B9A8802AB1A8002AB01229A7002AB32
:10E2600000229A8002AB1A226A449A6002AB009A9A
:10E27000DA60019B1B8802AA11001800FFF7C8FC96
:10E2800003000793079B002B05D0079A054B190045
:10E2900000200AF0A5FAC04609B000BDFFFF00004B
:10E2A0002024002078BD020000B589B001900091C3
:10E2B000019B1B881B4A934231D01B4B1B78DBB25E
:10E2C000002B2CD01A236B4404221A8002AB10229C
:10E2D00000211800FCF79CFF019B9A8902AB1A8071
:10E2E00002AB01229A7002AB00229A8002AB1A2282
:10E2F0006A449A6002AB009ADA60019B1B8802AA0A
:10E3000011001800FFF784FC03000793079B002B04
:10E3100005D0079A054B190000200AF061FAC046A3
:10E3200009B000BDFFFF00002224002090BD0200C4
:10E3300000B589B001900091019B1B881B4A934254
:10E3400031D01B4B1B78DBB2002B2CD01A236B4433
:10E3500004221A8002AB102200211800FCF758FF9B
:10E36000019B9A8A02AB1A8002AB01229A7002AB1F
:10E3700000229A8002AB1A226A449A6002AB009A89
:10E38000DA60019B1B8802AA11001800FFF740FC0D
:10E3900003000793079B002B05D0079A054B190034
:10E3A00000200AF01DFAC04609B000BDFFFF0000C2
:10E3B00021240020A8BD020000B583B001900122F5
:10E3C000019B9A401300180000F004F8C04603B007
:10E3D00000BDC04684B00190A023DB050A4A9B58CB
:10E3E0000393A023DA05039BDB4301991940A12382
:10E3F000DB00D150A023DB05039A01990A400349B1
:10E400005A50C04604B07047040500000C050000D7
:10E4100000B583B00190019B1B78012B25D0022B06
:10E4200025D0002B00D023E01820FFF7C5FF019B6B
:10E430001B79012B10D002DC002B05D014E0022B3D
:10E440000ED0032B04D00FE00B4B01221A700BE00F
:10E45000094B01221A7007E0084B01221A7003E0F1
:10E46000064B01221A70C04602E0C04600E0C046DA
:10E47000C04603B000BDC046282400202924002047
:10E4800000B589B002000F236B441A700E236B4451
:10E490000A1C1A701B4B079305AB0F226A441278B3
:10E4A0001A7005AB0E226A4412785A70164B18681F
:10E4B00005AA002300930223762108F095F90300B2
:10E4C0000693069B002B01D0069B17E0C0460F4B1E
:10E4D0001B78DBB201225340DBB2002B05D0079B37
:10E4E000013B0793079B002BF1D1079B002B01D128
:10E4F0000D2303E0054B00221A70069B180009B09B
:10E5000000BDC04660E3160024240020282400201B
:10E5100000B589B00491039217236B44021C1A7052
:10E520002A4B07932A4B186817226A44002300934A
:10E530000123762108F058F903000693069B002B6F
:10E5400001D0069B3FE0C046224B1B78DBB2012284
:10E550005340DBB2002B05D0079B013B0793079B81
:10E56000002BF1D1079B002B01D10D232BE0194B80
:10E5700000221A70164B1868039BDBB2049A7621AE
:10E5800008F064F903000693069B002B01D0069B5C
:10E5900019E00E4B0793C0460F4B1B78DBB20122EC
:10E5A0005340DBB2002B05D0079B013B0793079B31
:10E5B000002BF1D1079B002B01D10D2303E0064B6B
:10E5C00000221A70069B180009B000BD60E3160017
:10E5D00024240020282400202924002082B0019037
:10E5E000034B019A1A600023180002B07047C0461E
:10E5F0002424002030B585B005000C00100019005F
:10E600006B4607332A1C1A706B460633221C1A709D
:10E610006B460533021C1A7001AB0A1C1A706B465C
:10E6200006331B781900F220FFF72AFF030003933B
:10E63000039B002B01D0039B22E06B4607331B7822
:10E640005B015AB26B4605331B789B005BB21343E8
:10E650005AB201AB1B785BB213435AB20B236B4423
:10E660001A700B236B441B781900F420FFF708FF86
:10E6700003000393039B002B01D0039B00E00023C6
:10E68000180005B030BDC04600B589B0019005AB9B
:10E69000180008231A000021FCF7BAFD05AB082278
:10E6A0001900F720FFF734FF0300079305AB1B7831
:10E6B0001A0405AB5B781B02134305AA9278134337
:10E6C0001B111A0002AB5A6005ABDB781A0405ABCC
:10E6D0001B791B02134305AA527913431B111A001D
:10E6E00002AB9A6005AB9B791B0205AAD279134352
:10E6F0001A0002AB1A6002AB5B68180000F002F966
:10E700000200019B5A6002AB9B68180000F0C4F83D
:10E710000200019B9A6002AB1B68180000F08EF9A2
:10E720000200019B1A60079B180009B000BDC0469B
:10E7300000B59FB06F236B4460221A706F236B4447
:10E740001A7801AB19008820FFF7E2FE03001A9344
:10E750001A9B002B01D01A9B98E067236B446F2211
:10E760006A441278013A1A7067236B441B7801AA35
:10E77000D35C5AB2474B1A7667236B4467226A44CC
:10E780001278013A1A7067236B441B7801AAD35C94
:10E790001B011AB267236B44672169440978013968
:10E7A000197067236B441B7801A9CB5C1B09DBB292
:10E7B0001BB213431AB2374B5A8367236B441B783F
:10E7C00001AAD35C1BB20F2213401AB267236B4419
:10E7D0006721694409780139197067236B441B78F4
:10E7E00001A9CB5C1B011BB213431AB2294B9A83BC
:10E7F00067236B4467226A441278013A1A706723D0
:10E800006B441B7801AAD25C224B9A7767236B4436
:10E8100067226A441278013A1A7067236B441B78A6
:10E8200001AAD35C1B021AB267236B4467216944B7
:10E8300009780139197067236B441B7801A9CB5CF7
:10E840001BB213431AB2134B1A8467236B44192269
:10E850001A7067236B441B7801AAD15C0D4B2222EE
:10E8600099540C4B1D9388231C930BE01C9B883BF5
:10E8700001AAD25C1D9B1A701D9B01331D931C9B2A
:10E8800001331C931C9B9F2BF0DD002318001FB04D
:10E8900000BDC0466C32002086B00190019BDA10AA
:10E8A000164B1B885B00D31A144A0221525E534355
:10E8B000DB120593019B1B11104A12889B1A019AC7
:10E8C00012110E490988521A53431B130B4A042193
:10E8D000525E53439B130493059A049BD218084B32
:10E8E0001A60074B1A6813009B009B1880331B1299
:10E8F0000393039B180006B07047C0466C3200209B
:10E900009032002000B587B00190474B1B685B1028
:10E91000464A944663440493049B9B10049A9210C5
:10E920005343DB12424A1021525E53430393404B40
:10E930000E229B5E1A00049B53435B00039AD3187C
:10E940000393039B9A103A4B0C215B5E1B04D31874
:10E950000393374B0A229B5E1900049B9B10049A79
:10E96000921053435B134B43DA10314B08215B5E2B
:10E970001900049B4B435B10D3189B140493049B16
:10E980008022120294466344294AD2885343DB13FF
:10E990000493049B002B01D1002341E0019B5B42C7
:10E9A000039A12139B1A234A5343234A94466344FF
:10E9B0000593059B002B09DB059B5B00049A110066
:10E9C00018000AF0A9FC0300059307E0049B190056
:10E9D00005980AF0A1FC03005B000593144B162276
:10E9E0009B5E1900059BDB08059AD20853435B0B1D
:10E9F0004B431B130493059B9B081A000C4B1421DB
:10EA00005B5E53435B130393049A039BD318084A3A
:10EA10001221525E9B181A11059BD3180593059B72
:10EA2000180007B000BDC046903200200006FFFF6E
:10EA30006C320020350C0000000050C384B00190FF
:10EA40002D4B1B682D4A944663440393019B9A0304
:10EA50002B4B1C215B5E1B05D21A294B1A215B5ED6
:10EA60001900039B4B43D31A8022D201944663447E
:10EA7000DB13234A127E52B21100039A4A439212C8
:10EA80001F49897F080003994143C9128020000271
:10EA9000844661444A439212802189038C46624431
:10EAA00017492020095E4A43802189018C4662442F
:10EAB000921353430393039BDB13039AD2135343E1
:10EAC000DB110F4A2221525C53431B11039AD31AC4
:10EAD0000393039B002B00DA00230393039BC822BC
:10EAE0005205934201DDC8235B050393039B1B136F
:10EAF000180004B07047C0469032002000D4FEFFDA
:10EB00006C320020A0DF7047C0461800A2DF7047BB
:10EB1000C0461800A5DF7047C0461800A6DF704742
:10EB2000C046180000B585B002006B4606331A8057
:10EB30006B4606331B88404A934204D90F236B442B
:10EB400064221A7071E06B4606331B883B4A93427D
:10EB500012D96B4606331B88394AD31A3A225343DB
:10EB6000642118000AF062FC0300DAB20F236B4440
:10EB700064218A1A1A7058E06B4606331B88314AA2
:10EB8000934214D96B4606331B882C4AD21A1300C1
:10EB90005B009B18DB00A02118000AF047FC030073
:10EBA000DAB20F236B442A218A1A1A703DE06B46B1
:10EBB00006331B88244A934216D96B4606331B88BA
:10EBC000204AD21A13005B009B189B001A00962360
:10EBD000590010000AF02AFC0300DAB20F236B443C
:10EBE00012218A1A1A7020E06B4606331B88174AD6
:10EBF000934216D96B4606331B88134AD21A130068
:10EC00005B009B185B001A00AA23590010000AF051
:10EC10000DFC0300DAB20F236B4406218A1A1A7026
:10EC200003E00F236B4400221A700F236B441B7800
:10EC3000180005B000BDC046B70B0000540B000023
:10EC4000B80B0000B40A0000880900003408000076
:10EC500010B586B002000E236B441A800E236B445D
:10EC600000229B5E18000AF043FE031C2349181C77
:10EC70000AF024FD031C181C0CF0AEFC204A214BAA
:10EC80000BF00CFE03000C001800210000221E4BAC
:10EC90000BF004FE03000C001800210000221B4BA7
:10ECA0000BF0FCFD03000C001A00230016246C443A
:10ECB000100019000AF0E4FC0300238015246C44C2
:10ECC00016236B441B881800FFF72CFF03002370EA
:10ECD0000E236B4400229A5E16236B44188815237A
:10ECE0006B441B780A4900930300002009F078FD6B
:10ECF00015236B441B78180006B010BD00C07F447C
:10ED0000333333333333F33F0000084000408F4048
:10ED1000C0BD020000B583B06B460233012118006C
:10ED20000AF070F903000193019B112B01D111230B
:10ED300001E00AF011F9180003B000BD00B583B07E
:10ED40000190019B1B78002B02D0012B15D015E000
:10ED5000019B5B6800229B5E1800FFF779FF0300B0
:10ED60001A00084B1A70084B1A68064B1B78DBB266
:10ED70001900100000F072F900E0C046C04603B070
:10ED800000BDC046943200202C24002000B585B080
:10ED900001AB03221A70114B1A781C218A43111CF3
:10EDA00018220A431A700E4A01AB110018000AF02B
:10EDB00087F803000393039B0293029B002B05D06B
:10EDC000084A029B4921180007F078FF034B1800FE
:10EDD0000AF0A2F8C04605B000BDC04630210020B0
:10EDE0003DED0100E0BD020000B589B00190009149
:10EDF00004AB02221A8004AB00225A8004AB0E221C
:10EE00006A445A60009BDA88019B1B899A4220D190
:10EE1000019B1888019B1B8904AA1900FFF77AFE41
:10EE200003000793079B0693069B002B05D00A4A15
:10EE3000069B5D21180007F041FF0E236B441B88E1
:10EE4000012B03D1054B01221A7002E0034B002273
:10EE50001A70C04609B000BDE0BD02009532002026
:10EE600000B583B001900091009B1B88112B09D045
:10EE7000502B0CD0102B00D010E0009B9A88019BE7
:10EE80001A800BE0019B012252421A8006E0009A90
:10EE9000019B11001800FFF7A7FFC046C04603B052
:10EEA00000BDC04600B595B001900023139311AB8F
:10EEB00001229A7011AB4D4A1A800AAB1C22002124
:10EEC0001800FCF7A5F90AAB1A7802210A431A7058
:10EED00009AB032200211800FCF79AF909AB1A7854
:10EEE0000F218A43111C01220A431A7009AB1A78B8
:10EEF0000F210A40111C10220A431A7009AB5A78DC
:10EF00000F218A43111C01220A435A7009AB5A7817
:10EF10000F210A40111C10220A435A7009AB9A783B
:10EF200006218A43111C02220A439A700AAB09AADD
:10EF30005A610AAB1A7810210A431A7008AB0322EF
:10EF400000211800FCF764F908AB9A7806218A437F
:10EF5000111C02220A439A7008AB1A780F218A43C7
:10EF6000111C01220A431A7008AB1A780F210A40BB
:10EF7000111C10220A431A7008AB5A780F218A43D9
:10EF80005A7008AB5A780F210A405A7003AB14220A
:10EF900000211800FCF73CF903AB11AA1A6003AB7F
:10EFA00008AA5A6003AB01229A8103AB01221A819D
:10EFB000019B0C331A0003AB1A61019B5888019B1B
:10EFC000043303AA0AA9FFF7A1FD03001393139BBF
:10EFD0001293129B002B05D0054A129BA921180001
:10EFE00007F06CFE0023180015B000BD192A0000C0
:10EFF000E0BD020000B587B00190154B019A1A6080
:10F00000FFF7C4FE03AB01229A7003AB114A1A80CA
:10F01000019B012252421A80019B9A1C03AB1900EA
:10F020000120FFF76FFD03000593059B0493049BEC
:10F03000002B05D0084A049BC721180007F03EFEAC
:10F04000019B1800FFF72EFFC04607B000BDC04669
:10F050002C2400200F180000E0BD020000B589B08C
:10F0600001900A006B4603331A706B4603331B781A
:10F070001A00254B1900002009F0B2FB019B1B88E8
:10F08000224A934237D0224B1B78DBB2002B32D07E
:10F090001A236B4401221A8002AB102200211800AF
:10F0A000FCF7B6F8019B9A8802AB1A8002AB0122EA
:10F0B0009A7002AB00229A8002AB1A226A449A60CC
:10F0C00002AB6A460332DA60019B1B8802AA110078
:10F0D0001800FFF723FD03000793079B002B05D0C3
:10F0E000079A0C4B1900002009F07AFB0A4B190013
:10F0F000002009F075FB6B4603331A78074B1A7032
:10F10000C04609B000BDC04628BE0200FFFF000097
:10F110009532002038BE020050BE0200302400208C
:10F1200010B582B00190019B1B88103B1A00414B27
:10F130009200D258404B1900002009F051FB019B6E
:10F140009B881A003D4B1900002009F049FB019BE8
:10F150001B88112B5ED0122B2FD0102B00D066E015
:10F16000019B1B8B18000CF0BDF90022344B0BF0F7
:10F1700095FB03000C00180021000AF081FA03003F
:10F180009BB21A002F4B1900002009F029FB019BAC
:10F19000DB8B1A0013009B009B185B001A002A4BA4
:10F1A0001900002009F01CFB019B9B8B1A00274BC8
:10F1B0001900002009F014FB39E0019B1B8918009D
:10F1C0000CF090F900221E4B0BF068FB03000C00C2
:10F1D000180021000AF054FA03009BB21A00194BE0
:10F1E0001900002009F0FCFA019BDB891A001300CA
:10F1F0009B009B185B001A00134B1900002009F0BC
:10F20000EFFA019B9B891A00104B1900002009F0AE
:10F21000E7FA0CE0019B1B7A123B1A000C4B9200A0
:10F22000D2580C4B1900002009F0DAFAC046C0464B
:10F2300002B010BD3821002088C5020098C5020028
:10F240000000F43FB0C50200C8C50200E0C50200DE
:10F250007C210020F4C5020010B58AB0039026235B
:10F260006B44039A92881A8004AA039B043313CB3D
:10F2700013C2196811609B88938009AB039A1288A6
:10F280001A8009AB1B88512B04D0522B29D0502B4C
:10F2900018D02FE004AB9B78012B09D104AB9B88DD
:10F2A0001A0004ABDB881549002009F099FA21E027
:10F2B00004AB9B881A0004ABDB881149002009F0DD
:10F2C0008FFA17E0039BDB881A00039B1B89180049
:10F2D000039B12330B4900930300002009F080FACE
:10F2E00008E0039B9B791A00074B1900002009F0E6
:10F2F00077FAC046C0460AB010BDC046FCC5020041
:10F3000020C6020044C6020074C6020000B585B0E3
:10F310000190019B1B880393039A244B1900002042
:10F3200009F05EFA039B0F2B07D9039B2F2B04D800
:10F33000019B1800FFF7F4FE35E0039B4F2B07D924
:10F34000039B6F2B04D8019B1800FFF785FF2AE071
:10F35000039B2F2B0FD9039B4F2B0CD8019B1B8892
:10F36000303B1A00124B9200D258124B1900002069
:10F3700009F036FA17E0039B002B0ED0039B0F2BEE
:10F380000BD8019B1B885A1E0B4B9200D2580B4B7B
:10F390001900002009F024FA05E0039A084B19002F
:10F3A000002009F01DFAC04605B000BD84C6020069
:10F3B0007421002094C6020078210020A0C602001B
:10F3C000ACC6020084B001900091019B032B16D8BB
:10F3D000A023DA05A223DB00D358DB4303930B4BB6
:10F3E000019A9200D35801229A4013001A00039BFD
:10F3F00013405A1E9341DAB2009B1A7002E0009B40
:10F4000000221A700023180004B07047D0C6020012
:10F4100000B587B002006B4607331A706B4606339F
:10F420000A1C1A7017236B4400221A7000230493DD
:10F4300002E0049B01330493049B032B08D8454B43
:10F44000049A9200D2586B4607331B789A42F0D147
:10F45000049B032B6BD86B4606331B78012B04D01F
:10F46000022B57D0002B37D061E0172169443A486E
:10F47000049A13005B009B181B5C0B703649049ABE
:10F4800013005B009B18CB1801331B78002B15D0A1
:10F490003248334B1A6813009B009B185B0019001D
:10F4A000304B1A0008F06EFB03000393039B002B04
:10F4B00004D12C4B6A46073212781A702649049AF6
:10F4C00013005B009B18CB1802331978264A049B63
:10F4D000D3180A1C1A702AE0204B180008F08AFB87
:10F4E000214A049BD31819781B48049A13005B0027
:10F4F0009B18C31802331B78994217D1172169440E
:10F500001548049A13005B009B18C31802331B783C
:10F510000B700BE0172169440F48049A13005B003D
:10F520009B18C31801331B780B7000E0C0461723EB
:10F530006B441B78002B0AD00C4B1B68002B06D0A9
:10F540000A4B1B6817226A44127810009847C0467D
:10F5500007B000BDD0C60200842400209024002003
:10F5600034240020B0240020B42400208024002073
:10F5700000B583B00190019B1B7802211800FFF7B2
:10F5800047FFC04603B000BD10B588B002006B460F
:10F5900007331A7000230793002306936B46073343
:10F5A0001B78172B00D96CE39A00DB4BD3181B6830
:10F5B0009F46A023DA05D94B1B68D943F0235B048F
:10F5C0001940A123DB00D150A023DB05D44A002140
:10F5D0009950D44B6A46073212781A7052E3A0232E
:10F5E000DA05CE4B1B68D943E0235B041940A12305
:10F5F000DB00D150A023DB05C94A00219950A0238C
:10F60000DB05C94A9B58F02252045A4080239B03D1
:10F61000134017D0A023DA05A123DB008021890342
:10F62000D150A023DB05BE4A002199506B46073319
:10F630001B78022B02D1E123DB0001E0FA231B013E
:10F64000069315E0A023DB05B549802292035A50AA
:10F65000A023DA05A123DB000021D1506B4607333C
:10F660001B78022B01D1C82301E0C8235B0006935D
:10F67000AC4B6A46073212781A70AC4C069B642178
:10F68000180009F049FE03001A00A94B1B685343F8
:10F6900000221900200008F075FA03000793F1E238
:10F6A000A023DA059D4B1B68D943E0235B04194076
:10F6B000A123DB00D150A023DB05994A00219950FA
:10F6C000A023DB05984A9B58F02252045A4080231D
:10F6D0009B03134017D0A023DA05A123DB00802170
:10F6E0008903D150A023DB058D4A002199506B4638
:10F6F00007331B78032B02D1C8239B0001E0FA23B8
:10F700001B01069315E0A023DB05854980229203A7
:10F710005A50A023DA05A123DB000021D1506B460B
:10F7200007331B78032B01D1C82301E0C8235B00FA
:10F7300006937C4B6A46073212781A707B4C069B04
:10F740006421180009F0E8FD03001A00784B1B68DB
:10F75000534300221900200008F014FA0300079315
:10F7600090E2A023DA056D4B1B68D943E0235B04CC
:10F770001940A123DB00D150A023DB05684A0021FA
:10F780009950A023DB05684A9B58F02252045A4046
:10F7900080239B0313400FD0A023DA05A123DB00B5
:10F7A00080218903D150A023DB055D4A00219950B7
:10F7B000FA231B0106930EE0A023DB0558498022A3
:10F7C00092035A50A023DA05A123DB000021D15077
:10F7D000C8235B000693534B6A46073212781A70AF
:10F7E000524C069B6421180009F096FD03001A0094
:10F7F0004F4B1B68534300221900200008F0C2F948
:10F80000030007933EE2A023DA05444B1B68D9436B
:10F81000E0235B041940A123DB00D150A023DB05CA
:10F820003F4A00219950A023DB053F4A9B58F02214
:10F8300052045A4080239B03134016D0A023DA05BC
:10F84000A123DB0080218903D150A023DB05344AAA
:10F85000002199506B4607331B78052B01D1C82333
:10F8600001E0FA231B01069315E0A023DB052C49D8
:10F87000802292035A50A023DA05A123DB00002145
:10F88000D1506B4607331B78052B01D1C82301E00B
:10F89000C8235B000693234B6A46073212781A701E
:10F8A000224C069B6421180009F036FD03001A0063
:10F8B0001F4B1B68534300221900200008F062F917
:10F8C00003000793DEE1A023DA05144B1B68D9433C
:10F8D000E0235B041940A123DB00D150A023DB050A
:10F8E0000F4A00219950A023DB050F4A9B58F022B4
:10F8F00052045A4080239B0313401BD0A023DA05F7
:10F90000A123DB0080218903D150A023DB05044A19
:10F91000002199501AE0C04600C702003C24002094
:10F920000C050000312400200405000040240020C4
:10F9300034240020A023DB05D449802292035A50AE
:10F94000A023DA05A123DB000021D150D04B6A4669
:10F95000073212781A70CF48CF4B1B68002219006B
:10F9600008F010F9030007938CE1A023DA05CB4BD4
:10F970001B68D943E0235B041940A123DB00D1506D
:10F98000A023DB05C14A00219950A023DB05BF4914
:10F99000802292035A50A023DA05A123DB00002124
:10F9A000D150BB4B6A46073212781A706AE1A02325
:10F9B000DB05BB4A9B580593A023DA05059BD94379
:10F9C0008023DB031940A123DB00D150A023DB05FA
:10F9D00005998022D2030A40AC495A50AD48AE4B3B
:10F9E0001B680022190008F0CDF80300079349E1D5
:10F9F000A023DB05AA4A9B580493A023DA05049BA5
:10FA0000D9438023DB031940A123DB00D150A0237D
:10FA1000DB0504998022D2030A409C495A509D4834
:10FA20009D4B1A6813009B009B180022190008F0D8
:10FA3000A9F80300079325E1A023DB05984A9B580A
:10FA40000393A023DA05039BD9438023DB031940EA
:10FA5000A123DB00D150A023DB0503998022D20330
:10FA60000A408A495A508B488B4B1B680022190068
:10FA700008F088F80300079304E1A023DB05884A17
:10FA80009B580293A023DA05029BD9438023DB0312
:10FA90001940A123DB00D150A023DB05029980226D
:10FAA000D2030A4079495A507A487B4B1A681300AE
:10FAB0009B009B180022190008F064F803000793CC
:10FAC000E0E0A023DB057149F02252045A50A02344
:10FAD000DA05A123DB000021D1506D4B6A460732C5
:10FAE00012781A70CEE06F4B180008F083F803000C
:10FAF00007936B4607331B781122D31A0693069B94
:10FB0000002B2DD0079B002B2AD1644B802212049E
:10FB10001A60069B012B13D9624C069BC8225343E3
:10FB20006421180009F0F8FB03001A005A4B1B6807
:10FB3000534300221900200008F024F80300079323
:10FB4000A023DA05554B1968F0235B040B404F499D
:10FB50005350A023DA05A123DB000021D15091E00E
:10FB6000A023DA054D4B1968F0235B041940A1234B
:10FB7000DB00D150A023DB05444A00219950474BBC
:10FB800000221A607EE0A023DA05A123DB00F02129
:10FB90004904D150A023DB053C4A002199503C4B3D
:10FBA0006A46073212781A706CE0A023DA05A123A6
:10FBB000DB00E0214904D150A023DB05334A0021BA
:10FBC0009950A023DB053149802292035A50A0238B
:10FBD000DA05A123DB000021D1502D4B6A46073204
:10FBE00012781A704EE0A023DA05A123DB00D021A1
:10FBF0004904D150A023DB05244A00219950A023B9
:10FC0000DB0522498022D2035A50A023DA05A12322
:10FC1000DB000021D1501E4B6A46073212781A7061
:10FC200030E0A023DA05A123DB00C0214904D15034
:10FC3000A023DB05154A00219950A023DB051349B9
:10FC4000C022D2035A50A023DA05A123DB000021F1
:10FC5000D1500F4B6A46073212781A7012E0A02377
:10FC6000DB050A49F02252045A50A023DA05A123E9
:10FC7000DB000021D150064B6A46073212781A7019
:10FC800000E0C046079B180008B010BD0C0500003E
:10FC90003124002040240020342400203C24002073
:10FCA000040500006024002000B583B00190064BDD
:10FCB0001B680122134004D0044B1B781800FFF787
:10FCC00063FCC04603B000BD38240020312400206E
:10FCD00084B00190A023DB050B4A9B580393A0231B
:10FCE000DA05039BD94380231B041940A123DB00C1
:10FCF000D150A023DB050399802212040A40034956
:10FD00005A50C04604B07047040500000C050000BE
:10FD100000B585B002006B4607331A7000230393C9
:10FD2000084B1B680122134007D06B4607331B7832
:10FD30001800FFF729FC03000393039B180005B08C
:10FD400000BDC0463824002000B587B00390029162
:10FD5000019200230593384B029A1A60374B039A9D
:10FD60001A60374B019A1A60039B0222134031D06C
:10FD7000002304930AE0049B01220121180000F0F3
:10FD800071F803000593049B01330493049B032B38
:10FD900002D8059B002BEED0059B002B08D1029BBF
:10FDA0005A08284B0421180006F0EEFE03000593C4
:10FDB000059B002B03D106F061FF03000593059B13
:10FDC000002B07D1204A214B0021180007F090FE9C
:10FDD00003000593039B0122134012D0A023DA05F0
:10FDE000A123DB00F0214904D150A023DB05184AF0
:10FDF00000219950A023DA05A323DB00F021490458
:10FE0000D150059B002B07D1124A134B002118003B
:10FE100007F06EFE03000593059B002B07D10F4AE8
:10FE20000F4B0121180007F063FE03000593059BAB
:10FE3000180007B000BDC04634240020382400203C
:10FE400080240020E0C6020071F50100CCC602004B
:10FE50000C050000A9FC0100C4C60200D1FC010091
:10FE6000C8C6020084B00190080011006B4603333D
:10FE7000021C1A706B4602330A1C1A70002303938B
:10FE8000019B032B42D86B4602331B78012B0DD10B
:10FE90006B4603331B78012B04D1019BDBB20D337E
:10FEA000DAB200E000226B4602331A706B4603336D
:10FEB0001B78012B04D0022B0CD0002B16D021E094
:10FEC0001549019A13005B009B186A4602321278AA
:10FED0005A541DE01049019A13005B009B18CB187F
:10FEE00001336A46023212781A7011E00A49019A07
:10FEF00013005B009B18CB1802336A46023212785B
:10FF00001A7005E007230393C04601E0072303931B
:10FF1000039B180004B070478424002086B0019031
:10FF2000002305932DE0A023DB05194A05998900DC
:10FF30008A58C132FF329200D35804930122059BA4
:10FF40009A4013001A00019B134001D0032300E0E4
:10FF500000230393049B0F4A13400493039B1B0449
:10FF6000049A13430493A023DB05094A05998900E9
:10FF70008A58C132FF3292000499D150059B013357
:10FF80000593059B032BCED90023180006B07047BC
:10FF9000D0C60200FFFFFCFF00B583B001220021A4
:10FFA0000020FFF75FFF03000193019B002B04D0AB
:10FFB000019B072B01D0019B1EE00722022101209B
:10FFC000FFF750FF03000193019B002B04D0019B1E
:10FFD000072B01D0019B0FE0042202210020FFF734
:10FFE00041FF03000193019B002B04D0019B072BD1
:10FFF00001D0019B00E00023180003B000BDC04603
:020000022000DC
:1000000000B583B0012202210020FFF72BFF03007F
:100010000193019B002B04D0019B072B01D0019B76
:100020001EE0072202210120FFF71CFF03000193BD
:10003000019B002B04D0019B072B01D0019B0FE0FB
:100040000A2200210020FFF70DFF03000193019B0E
:10005000002B04D0019B072B01D0019B00E0002363
:10006000180003B000BDC04600B585B001900B2359
:100070006B4419000020FFF7A5F903000393039BCD
:10008000002B01D0039B22E00A236B4419000120BE
:10009000FFF798F903000393039B002B01D0039B08
:1000A00015E00A236B441B78002B03D0019B02222E
:1000B0001A700BE00B236B441B78002B03D0019BC1
:1000C0000B221A7002E0019B00221A700023180014
:1000D00005B000BD00B583B00320FFF71FFF03008C
:1000E0000193019B002B04D0019B062B01D0019BA7
:1000F00000E00023180003B000BDC04600B585B085
:100100000190019B1B88102B02D0112B1AD033E0D9
:100110001B4B1B68002B0FD1FFF73EFF030003931F
:10012000039B002B08D0174B1B68002B04D0154BEA
:100130001B68039A10009847114B1B685A1C104B00
:100140001A6019E00E4B1B685A1E0D4B1A600C4BBF
:100150001B68002B0FD1FFF753FF03000393039B92
:10016000002B08D0074B1B68002B04D0054B1B68E5
:10017000039A10009847C046C04605B000BDC0466F
:10018000BC240020B824002000B585B00190009167
:10019000002303930E4B019A1A60009B002B0AD098
:1001A000009B1800FFF760FF03000393039B002BE5
:1001B00001D0039B08E0074B1B68002B03D1FFF71E
:1001C0001FFF03000393039B180005B000BDC0464A
:1001D000B8240020BC24002071DF7047C0461800FE
:1001E00072DF7047C046180079DF7047C0461800BC
:1001F0007DDF7047C046180065DF7047C0461800B5
:1002000082B0020000916B4606331A806B460633BB
:100210001B88DAB2009B1A70009B01336A460632D3
:100220001288120A92B2D2B21A700223180002B0D7
:100230007047C04686B00390029101921A006B4647
:1002400002331A80019B1B8812331A006B4602335B
:100250001B889A4201D90C2340E0019B1B881A009D
:10026000029B9B1811221A70019B1B8801339AB2C2
:10027000019B1A80019B1B881A00029B9B1810226D
:100280001A70019B1B8801339AB2019B1A801723B5
:100290006B440F221A701BE0019B1B881A00029B03
:1002A0009B1817226A44127852B203998A5C1A701A
:1002B00017236B441B785BB2DBB2013BDAB2172326
:1002C0006B441A70019B1B8801339AB2019B1A8000
:1002D00017236B441B787F2BDED90023180006B050
:1002E0007047C04684B00291019219000F236B44FD
:1002F000021C1A7003AB0A1C1A80019B1B88DA1CB3
:1003000003AB1B889A4201D90C2350E0019B1B8848
:100310001A00029B9B1802221A70019B1B88013352
:100320009AB2019B1A80019B1B881A00029B9B18A2
:100330001C221A70019B1B8801339AB2019B1A8000
:100340000F236B441B78022B10D002DC012B05D04D
:1003500024E0032B12D0042B18D01FE0019B1B8834
:100360001A00029B9B1800221A7019E0019B1B883F
:100370001A00029B9B1801221A7011E0019B1B8836
:100380001A00029B9B1802221A7009E0019B1B882D
:100390001A00029B9B1803221A7001E0072306E053
:1003A000019B1B8801339AB2019B1A80002318001D
:1003B00004B0704700B589B0039002916B460633D4
:1003C0001A80029B1B8809331A006B4606331B8870
:1003D0009A4201D90C234FE005AB1800FFF7FCFE51
:1003E00003000793079B002B01D0079B44E0029B6F
:1003F0001B881A00039B9B1808221A70029B1B88FB
:1004000001339AB2029B1A80029B1B881A00039B3D
:100410009B181B221A70029B1B8801339AB2029B05
:100420001A80029B1B881A00039B981805AB0133A6
:1004300006221900FCF7D7F9029B1B8806339AB2F3
:10044000029B1A8005AB1B78002B07D1029B1B88EF
:100450001A00039B9B1800221A7006E0029B1B885F
:100460001A00039B9B1801221A70029B1B88013300
:100470009AB2029B1A800023180009B000BDC04642
:1004800000B589B00390029101921A006B460233C5
:100490001A80039B1B78012B05D1039B5B78002BF3
:1004A00001D1072397E0019B1B889A1C6B460233FE
:1004B0001B889A420FD8039B1B78012B0DD1019BFF
:1004C0001B881A00039B5B78D3189A1C6B46023377
:1004D0001B889A4201D90C237DE0019B1B886A4648
:1004E00002321288D31A9AB207AB023A1A80162344
:1004F0006B4407AA12881A80019B1B880233029A58
:10050000D31816226A4411001800FFF771FE030089
:100510000693069B002B01D0069B5CE0039B1B7897
:10052000022B0BD116236B441B8807AA12889A4210
:1005300004D31F236B4409221A701AE01F236B4453
:1005400008221A70039B1B78012B0DD1039B5B784B
:100550009BB207AA12889A4206D3039B5B789AB291
:1005600016236B441A8004E016236B4407AA1288F2
:100570001A8016236B441B88FE2B01D90C232AE01A
:10058000019B1B881A00029B9B1816226A44128842
:10059000D2B20132D2B21A70019B1B8801339AB2D7
:1005A000019B1A80019B1B881A00029B9B181F222B
:1005B0006A4412781A70019B1B8801339AB2019B1E
:1005C0001A80019B1A8816236B441B88D3189AB291
:1005D000019B1A800023180009B000BD00B587B048
:1005E000039002916B4606331A80029B1B881A1DEA
:1005F0006B4606331B889A4201D90C233BE0122339
:100600006B441800FFF7F0FD03000593059B002BDA
:1006100001D0059B2FE0029B1B881A00039B9B18AF
:1006200003221A70029B1B8801339AB2029B1A8024
:10063000029B1B881A00039B9B1819221A70029BAD
:100640001B8801339AB2029B1A8012236B441A88CA
:10065000029B1B881900039B5B1819001000FFF711
:10066000CFFD03001900029B1A888BB2D3189AB2EF
:10067000029B1A800023180007B000BD84B00291CD
:10068000019219000F236B44021C1A7003AB0A1C61
:100690001A80019B1B88DA1C03AB1B889A4201D984
:1006A0000C2329E0019B1B881A00029B9B18022245
:1006B0001A70019B1B8801339AB2019B1A80019B1F
:1006C0001B881A00029B9B1801221A70019B1B8831
:1006D00001339AB2019B1A80019B1B881A00029B6E
:1006E0009B180F226A4412781A70019B1B880133F1
:1006F0009AB2019B1A800023180004B07047C046CC
:1007000084B00291019219000F236B44021C1A70ED
:1007100003AB0A1C1A80019B1B88DA1C03AB1B88E5
:100720009A4201D90C2329E0019B1B881A00029BE5
:100730009B1802221A70019B1B8801339AB2019BFD
:100740001A80019B1B881A00029B9B1811221A70A9
:10075000019B1B8801339AB2019B1A80019B1B8865
:100760001A00029B9B180F226A4412781A70019B90
:100770001B8801339AB2019B1A800023180004B031
:100780007047C04684B00291019219000F236B4458
:10079000021C1A7003AB0A1C1A80019B1B88DA1C0E
:1007A00003AB1B889A4201D90C2329E0019B1B88CB
:1007B0001A00029B9B1802221A70019B1B880133AE
:1007C0009AB2019B1A80019B1B881A00029B9B18FE
:1007D0000A221A70019B1B8801339AB2019B1A806E
:1007E000019B1B881A00029B9B180F226A441278F7
:1007F0001A70019B1B8801339AB2019B1A80002357
:10080000180004B07047C04600B58BB003900800D4
:10081000110001930B236B44021C1A700A236B44D2
:100820000A1C1A7023236B4400221A7008AB0C9A1E
:1008300012881A80002309937DE0039B5A68099B64
:100840009B00D31804AA1000190004231A00FBF718
:10085000CAFF1721694404AB00221800FFF7CCFC43
:1008600003000793079B002B01D0079B87E017230A
:100870006B441B780A226A4412789A4258D1232387
:100880006B441B78002B01D0002200E002221B23C6
:100890006B441A700C9B1B881A0017236B441B783F
:1008A000D2181B236B441B78D2180DAB1B889A42BD
:1008B00001DD0C2363E023236B441B7801225340AA
:1008C000DBB2002B18D00C9B1B8801339AB20C9B17
:1008D0001A800C9B1B881A00019B9B180B226A44F0
:1008E00012781A700C9B1B8801339AB20C9B1A80E9
:1008F00023236B4401221A700C9B1B881A00019B56
:100900009A181721694404AB1800FFF775FC03001F
:100910000793079B002B01D0079B30E00C9B1A88A4
:1009200017236B441B789BB2D3189AB20C9B1A8086
:10093000099B01330993039B1B881A00099B9A4268
:1009400000DD7AE723236B441B78002B16D00C9B29
:100950001A8808AB1B88D31A9AB206AB013A1A80E0
:1009600006AB1B88FF2B01D90C2308E008AB1B88C2
:10097000019AD31806AA1288D2B21A70002318005E
:100980000BB000BD00B589B00590080011000393BD
:1009900013236B44021C1A7012236B440A1C1A7036
:1009A000039A13236B44197805980BAB1B880193AA
:1009B0000A9B009313000222FFF726FF0300079310
:1009C000079B002B01D0079B15E0039A12236B4471
:1009D000197805980BAB1B8801930A9B00931300B1
:1009E0001022FFF711FF03000793079B002B01D094
:1009F000079B00E00023180009B000BD82B0019001
:100A0000019B1B88052B0AD9019B1A88C8231B014F
:100A10009A4206D9019B1B88154A934201D00723AD
:100A200023E0019B5B88052B0AD9019B5A88C823C8
:100A30001B019A4206D9019B5B880D4A934201D063
:100A4000072312E0019B1B88094A93420CD0019BAB
:100A50005B88074A934207D0019B1A88019B5B88F9
:100A60009A4201D9072300E00023180002B0704722
:100A7000FFFF000000B587B00390029101921A00B9
:100A80006B4602331A80019B1B889A1D6B4602330A
:100A90001B889A4201D90C234DE0039B1800FFF7F5
:100AA000ADFF03000593059B002B01D0059B42E0A1
:100AB000019B1B881A00029B9B1805221A70019B40
:100AC0001B8801339AB2019B1A80019B1B881A0074
