:020000021000EC
:10B0000000800020D9950200199602001B960200CC
:10B010000000000000000000000000000000000030
:10B020000000000000000000000000001D9602006B
:10B0300000000000000000001F96020021960200A0
:10B04000239602002396020051490200996E0200E5
:10B050002396020000000000A14202005595020064
:10B0600023960200239602002396020023960200F4
:10B0700023960200239602002396020023960200E4
:10B0800023960200457E02002396020023960200CA
:10B09000917E020023960200A190020023960200F6
:10B0A000239602002396020000000000000000002A
:10B0B0000000000000000000000000000000000090
:10B0C00010B5064C2378002B07D1054B002B02D07E
:10B0D000044800E000BF0123237010BDA021002020
:10B0E0000000000054D10200084B10B5002B03D023
:10B0F0000749084800E000BF07480368002B00D15B
:10B1000010BD064B002BFBD09847F9E7000000006C
:10B11000A421002054D102009C2100200000000046
:10B12000164B002B00D1144B9D46402292029A1AD6
:10B13000924600218B460F461348144A121A00F01B
:10B1400067F80F4B002B00D098470E4B002B00D018
:10B1500098470020002104000D000D48002802D06F
:10B160000C4800E000BF00F02DF82000290002F09C
:10B170009DFD00F011F8C04600000800008000208E
:10B180000000000000000000A0210020803300200B
:10B190000000000000000000084B10B50400002B68
:10B1A00002D0002100E000BF054B1868836A002B25
:10B1B00000D09847200001F0FDFEC04600000000CE
:10B1C00048BF02000E4B70B500251E000D4CE41A5E
:10B1D000A410A54204D0AB00F35898470135F8E716
:10B1E00010F0A4FE084B00251E00084CE41AA41021
:10B1F000A54204D0AB00F35898470135F8E770BD7D
:10B2000094210020942100209421002098210020E6
:10B2100003008218934202D019700133FAE7704795
:10B22000F0B58BB014001D1E129906DA8024240696
:10B230001B191D0014002D2300E000230B70202398
:10B24000149E03229E43462E07D03300453B5942AD
:10B250004B411099013ACB18109309AB049308ABFA
:10B260000393139B00920293109B220001932B00E7
:10B2700000F0DAFC0700472E02D1119BDB072DD529
:10B28000109BFB180793462E14D13B78302B0CD122
:10B2900000220023200029000EF01CFC002804D10D
:10B2A0000123109A9B1A139A1360139B079A1B6829
:10B2B000D318079300220023200029000EF00AFC77
:10B2C0003022002802D0079B099307E0099B0799C9
:10B2D000994203D9591C09911A70F7E73800099B64
:10B2E000159ADB1B13600BB0F0BDF7B52B230700DD
:10B2F0000C000270861C002901DA2D234C427B7061
:10B30000092C1CDD6B46DD1D20000A210EF0CCFB54
:10B31000013D3031297020000A210EF0DFFA0400CF
:10B320000928F1DC013D30342C706B4607333000C6
:10B33000AB4209D92B78013533700136F5E730235C
:10B34000E4183370B01C7470C01BFEBDF0B595B02E
:10B350000C000A920B931A9D099001F02BFA0368D6
:10B3600018000D9300F0D2FB0023129323680E9077
:10B370000C930C99277E2B680722C90501D59B18D1
:10B3800000E0073393431A0008322A601A685B68AA
:10B39000A264E3640122E56CA66C6B005B080F936A
:10B3A0005242C04B30000F9910F09EFA002819D17C
:10B3B0000122BC4B524230000F990EF09BFB00283B
:10B3C00010D100220023300029000EF089FB002854
:10B3D00003D023002D2243331A70B34D472F0ED8CC
:10B3E000B24D0CE032002B003000290010F07CFA46
:10B3F000002800D19AE1AE4D472F00D8AD4D032370
:10B400000C9A236101339A432260002642E0672FA1
:10B4100000D193E1472F00D190E10C9A0021134312
:10B4200012AA059211AA0392232223600691019386
:10B4300008A9636852180292009332002B00049707
:10B440000998FFF7EDFE20233A0005009A43472AAA
:10B4500000D18EE11199652F00D996E120000139C4
:10B460003A0050301191FFF740FF129A06008318FE
:10B470002361012A00DD85E12268D20700D581E140
:10B48000232308AA9B181B78002B03D023002D220E
:10B4900043331A700B9B13AA009321000A9B09984F
:10B4A00000F0A4F9431C02D1012040429BE1226834
:10B4B000530501D4236964E0652F00D8CCE0A06C6B
:10B4C000E16C002200230EF005FB00282CD00123A4
:10B4D000794A0A9909980B9DA847431CE4D0119B0F
:10B4E000129A934208DB2368DB0705D42368002502
:10B4F0009B0700D50FE113E10B9D0E9B0D9A0A9956
:10B500000998A8470025431CCED0129B013B9D42C1
:10B51000ECDA220001231A320A9909980B9EB047EF
:10B52000431CC1D00135F0E7119B002B2BDC01231C
:10B53000614A0A9909980B9EB047431CB4D0119BED
:10B54000002B05D1129B002B02D12368DB07CDD540
:10B550000B9E0E9B0D9A0A990998B0470026431C32
:10B56000A2D0119B5B429E420ADA220001231A32CA
:10B570000A9909980B9FB847431C95D00136F0E70C
:10B58000129B2A00ACE0A36D129E9E4200DD1E00BD
:10B59000002E05DC00230C93F343DB170F9315E01B
:10B5A00033002A000A9909980B9FB847431CF1D130
:10B5B0007AE7220001231A320A9909980B9FB847AB
:10B5C000431C00D170E70C9B01330C930F9BA26DC1
:10B5D0000C993340D31A9942EBDBAE18119B129AA7
:10B5E00093420DDB2368DB070AD4129B119AED18F6
:10B5F000AD1B9B1A9D4200DD1D00002D09DC11E0F2
:10B600000E9B0D9A0A9909980B9FB847431CECD1E1
:10B610004AE72B0032000A9909980B9EB047431C59
:10B6200000D141E7EF43FB1700260C930AE022000C
:10B6300001231A320A9909980B9FB847431C00D17D
:10B6400032E70136119A129B0C999B1A2A000A4084
:10B650009B1A9E42EBDB49E7129B012B02DC012384
:10B660001A4245D001232A000A9909980B9FB8472E
:10B67000431C00D118E70E9B0D9A0A9909980B9F5D
:10B68000B847431C00D10FE7A06CE16C00220023F7
:10B690000EF020FA002801D000251AE0129B6A1C47
:10B6A000013B26E0FFFFEF7F50BF02004CBF0200CE
:10B6B00058BF020054BF02005CBF020022000123F9
:10B6C0001A320A9909980B9FB847431C00D1EBE640
:10B6D0000135129B013B9D42F0DB220033005032CA
:10B6E0000A9909980B9DA847431C00D0FEE6DBE6AB
:10B6F0002A000A9909980B9DA847431CEDD1D3E66F
:10B700002200012319320A9909980B9EB047431C65
:10B7100000D1C9E60135E368139A9B1A9D42EFDB1D
:10B72000139BE06898425EDA18005CE08023626850
:10B73000DB00511C00D06AE6073202E0002A02D189
:10B740000122626069E60C9908A80B43002106916A
:10B7500012A9059111A903912321091823600193CE
:10B7600000922B000497029132000998FFF758FDD0
:10B770000500119BDA1C02DB626893421CDD023F6C
:10B78000FFB267E6013323617AE6662F15D163685D
:10B79000002909DD2161002B02D12268D2071ED5C4
:10B7A0000133591821611AE0002B03D101222168CD
:10B7B000114213D09A1C11E06727119B129A9342F1
:10B7C00006DB22682361D20709D50133236106E035
:10B7D0000121002B01DC4918C91A8A182261119B2A
:10B7E0000026A3654CE615B0F0BDC046F7B51700BE
:10B7F00001938A680B6900900C00934200DA1300F1
:10B8000022003B6043321278002A01D001333B60B2
:10B8100023689B0602D53B6802333B6006252368FC
:10B820001D401ED0230043331B785A1E93412268CB
:10B8300092061CD53020E1184331087021005A1CB3
:10B8400045310978A2184332023311700FE022000B
:10B850000123193201990098089EB047431C0ED06D
:10B860000135E3683A689B1A9D42F0DBDAE7220073
:10B87000019943320098089DA847431C02D101203A
:10B88000404220E006232068E1683A680340002532
:10B89000042B03D18D1AEB43DB171D40A3682269EB
:10B8A000934201DD9B1AED180027BD420AD0220009
:10B8B00001231A3201990098089EB047431CDED03C
:10B8C0000137F2E70020FEBDF0B58BB006920A000A
:10B8D00043320793059004920A7E0C00109B6E2A57
:10B8E00000D1ABE011D8632A22D009D8002A00D1B8
:10B8F000B5E0582A00D0C5E045310A70814A4FE0D2
:10B90000642A1DD0692A1BD0BCE0732A00D1AAE0AA
:10B9100009D86F2A29D0702A00D0B3E02022096804
:10B920000A43226037E0752A1FD0782A33D0A9E075
:10B930000E001A684236111D196013683370A4E0B6
:10B9400021681A68080606D4490604D5111D196035
:10B950000023D55E02E0111D19601568002D3BDA49
:10B960002D23049A6D42137036E021681A68080688
:10B9700006D4490604D51568111D1960ADB202E060
:10B98000111D196015685F4B227E039308276F2AEB
:10B990001DD00A271BE022007821453211705A4A37
:10B9A00019680392081D226818600D68100602D4F9
:10B9B000500600D5ADB2D30702D520231A4322602A
:10B9C0001027002D03D1202322689A4322602300F0
:10B9D000002243331A7002E00A274A4B039363683C
:10B9E000A360002B09DB0422216891432160002D14
:10B9F00005D1049E002B11D07BE0002D79D0049E50
:10BA0000280039000DF066FF039B013E5B5C2800B7
:10BA1000337039000DF0D8FE051EF1D1082F09D181
:10BA20002368DB0706D563682269934202DC302372
:10BA3000013E3370049B9B1B23612BE009681A684D
:10BA4000080607D4490605D5111D19601368A28A96
:10BA50001A8004E0111D1960136862691A600023DE
:10BA6000049E236116E01A68111D196016680021F2
:10BA70006268300000F0ACFE002801D0801B6060DE
:10BA8000636803E0260042363270012323610023FD
:10BA9000049A1370079B09AA00932100069B05983E
:10BAA000FFF7A4FE431C02D10120404227E0236996
:10BAB000320006990598079DA847431CF4D02368D7
:10BAC00000259B070FD4099BE068984217DA1800FD
:10BAD00015E022000123193206990598079EB04708
:10BAE000431CE1D00135E368099A9B1A9D42F0DBC3
:10BAF000E9E72600039B42361B7833708EE70BB0D4
:10BB0000F0BDC0465EBF02006FBF02000023C25CF2
:10BB10000133002AFBD1581E7047F0B503690C6948
:10BB200089B00700059100269C4279DC0B00013C9E
:10BB30001433A50003935B19049303001433029399
:10BB40005D19049B28681B68591C01930DF03CFE8D
:10BB50000190B04233D0039B02989C460696634600
:10BB600004CB9C46019B91B25943120C5A4389194C
:10BB70000B0CD3180793069A1E0C038889B29B18E6
:10BB800002685B1A110C6A46928B8A1A19145218B1
:10BB900011149BB21204134308C0049B0691634521
:10BBA000DDD22B68002B0AD1029B043DAB4201D3AE
:10BBB0003C6104E02B68002BFAD1013CF4E70599C5
:10BBC000380001F029F8002829DB0020019B0299A8
:10BBD0000133039A019340CA0B881818B3B2C31AF1
:10BBE0000868360C000C801B1D14451928149BB2E4
:10BBF0002D042B4308C1049B9342ECD2029AA3006C
:10BC0000D3181A68002A0AD1029A043B9A4201D337
:10BC10003C6104E01A68002AFAD1013CF4E7019E75
:10BC2000300009B0F0BD0000F0B516001F00446AF6
:10BC30009DB00490259D06960797002C08D11020F2
:10BC400000F0BCFD049B5862446084600460C460E2
:10BC5000049B5B6A196800290BD05A680123934042
:10BC60004A608B60049800F0FFFD0022049B5B6A31
:10BC70001A60079B002B05DA01232B607B005B0811
:10BC8000079301E000232B60079CC84B2200199307
:10BC90001A409A4219D1C64B249A1360069AC54B92
:10BCA000002A02D1240300D1C34B269A1800002A8F
:10BCB00001D100F07DFDD978DA1C002900D00532D1
:10BCC000269918000A6000F073FD069E079F002267
:10BCD0000023300039000DF0FDFE051E0ED00123BB
:10BCE000249A1360B54B269A1800002A01D100F05F
:10BCF0005FFDB34A26990A6000F05AFD1AAB019322
:10BD00001BAB009332003B00049801F00BF863007A
:10BD100005905B0D09D03A03AA4C120B1443AA4AB2
:10BD2000300021009E1817951AE01A9B1B9A9E1846
:10BD3000A64BF318202B08DDA54A0698B218D04070
:10BD40004022D31A9C40204303E020220698D31AB5
:10BD500098400FF061FE01239E4C013E0919179394
:10BD600000229D4B0FF06CFA9C4A9D4B0EF0EEFFAB
:10BD70009C4A9D4B0EF09AF8040030000D000FF025
:10BD800009FE9A4A9A4B0EF0E1FF02000B002000D8
:10BD900029000EF08BF804000D000FF0C5FD002205
:10BDA00003900023200029000DF09AFE00280DD0FA
:10BDB00003980FF0EFFD02000B00200029000DF0AA
:10BDC00089FE43424341039AD31A039301231693F6
:10BDD000039B162B11D88749DB00C91808684968EE
:10BDE000069A079B0DF090FE002805D0039B013BAF
:10BDF00003930023169300E016901A9B9E1B0023CA
:10BE00000B93013E0C9604D50C9B5B420B930023D5
:10BE10000C93039B002B08DB039A0C9B9446634412
:10BE20000C9300231192089307E00B9B039A9B1A33
:10BE30000B935342089300231193229B0125092B56
:10BE400025D8052B02DD0025043B2293229B981E5A
:10BE5000032824D80DF0AEFC060E0204012302E0F4
:10BE6000012308E000231093239B002B20DD1F00FB
:10BE70000A9321E00023239A1093039B9F187B1CB5
:10BE80000A930123FA18002A16DD130014E0012793
:10BE900000237F42229310950A97123305E0012771
:10BEA00001237F4210930A9711330022239203E06B
:10BEB00001273B000A972397049A546A0022626084
:10BEC000043211001431994204D8616852000131E2
:10BED0006160F6E76168049800F08EFC049B2060C6
:10BEE0005B6A1B680D930A9B0E2B00D981E1002D24
:10BEF00000D17EE1069B079C14931594039B002BB5
:10BF000031DD0F223B491340DB00CB185C681B6816
:10BF10000E930F94039B02241D11EB060AD514986F
:10BF20001599354B15401A6A5B6A0EF0EBFA0690CC
:10BF300007910134304E002D0ED001231D4208D050
:10BF40000E980F99E418326873680EF0FFFE0E9099
:10BF50000F916D100836EEE70E9A0F9B0698079921
:10BF60000EF0D0FA4CE0039B02245D42002D49D034
:10BF7000149815990F231F4A2B40DB00D3181A6819
:10BF80005B680EF0E3FE0023069007911A4E2D1118
:10BF9000002D33D00122154205D0A41832687368F1
:10BFA0000EF0D4FE01236D100836F1E70000F07F9B
:10BFB0000F27000089BF020080BF02005CBF0200A3
:10BFC0005DBF02000000F03F01FCFFFF32040000F3
:10BFD00012040000000010FE0000F83F61436F6390
:10BFE000A787D23FB3C8608B288AC63FFB799F5092
:10BFF0001344D33F98BF020070C00200002B01D051
:10C0000006900791169B002B1DD0069D079E0022CF
:10C01000C74B280031000DF063FD002813D00A9BA8
:10C02000002B10D0002F00DCDFE0039B3100013B30
:10C030000E930022BF4B28000EF088FE01340690BC
:10C0400007913E0002E0039B0A9E0E9320000FF032
:10C05000A1FC069A079B0EF079FE0022B64B0DF06C
:10C0600025FFB64A12901391129C139D9446139B80
:10C07000634418931D00002E1CD1069807990022D6
:10C08000AF4B0FF0DDF82200189B069007910DF0E2
:10C090003BFD002800D054E2AA481399844661442D
:10C0A0000B000698079922000DF01AFD002800D019
:10C0B0003DE29AE0109A731EA349DB00002A49D0A2
:10C0C000CB181A685B680020A0490EF01BFA2B0001
:10C0D00022000FF0B5F8129013910D9D0698079964
:10C0E0000FF022FC04000FF055FC02000B00069834
:10C0F00007990FF0A5F801356B1E30341C70129AA9
:10C10000139B069007910DF0EBFC002800D02EE366
:10C11000069A079B002086490FF092F8129A139B0B
:10C120000DF0DEFC002800D0C7E00D9BEB1AB342F7
:10C130005BDA1298139900227E4B0EF007FE002264
:10C1400012901391069807997A4B0EF0FFFD069016
:10C150000791C3E7C9182200086849682B000EF050
:10C16000F5FD0D9C12901391A519069807990FF0F3
:10C17000DBFB06000FF00EFC02000B00069807998F
:10C180000FF05EF8303626700134069007910022D9
:10C19000A54222D16D4B129813990DF087FE020033
:10C1A0000B00069807990DF0AFFC002800D084E042
:10C1B000129A139B002065490FF042F802000B0011
:10C1C000069807990DF08CFC00280ED06B1E1A788B
:10C1D000302A00D0CBE21D00F8E706980799554BAE
:10C1E0000EF0B4FD06900791BFE7149B159C0693D3
:10C1F00007941B9B002B00DA81E0039A0E2A00DDD6
:10C200007DE0D300504AD3185C681B6808930994FA
:10C21000239B002B15DA0A9B002B12DC00D088E14F
:10C22000089809990022464B0EF090FD069A079B4C
:10C230000DF074FC0A9B08931E00002800D07BE1DF
:10C2400082E10D9D069E079F089A099B30003900E8
:10C250000EF058F90FF068FB04000FF09BFB089AF2
:10C26000099B0EF073FD02000B00300039000EF048
:10C27000E7FF220001356B1E30321A700D9B0A9ABF
:10C28000EB1A9A422ED102000B000DF00FFE0600B1
:10C290000F0002000B00089809990DF021FC0028FE
:10C2A0000FD10898099932003B000DF013FC0028CB
:10C2B00000D15EE2E30704D45BE20E9B039300E04F
:10C2C0001D006B1E1A78392A08D10D9A9A42F7D1AF
:10C2D000039A0D990132039230220A701A780132C2
:10C2E0001A7046E20022134B0EF030FD00220023AC
:10C2F00006000F000DF0EEFB0028A5D039E2109AE1
:10C30000002A44D0229A012A0BDC179A002A02D074
:10C310000F4A9B1802E036231A9A9B1A089D0B9C21
:10C3200029E00A9B5D1E089BAB4213DB5D1B18E0F6
:10C330000000F03F0000244000001C400000C0FC52
:10C34000000014400000C07C98BF02000000E03FE5
:10C3500033040000089B0895EA1A0025119B9B18DE
:10C3600011930A9B002B04DA0B9B0A9A9C1A002358
:10C3700001E00B9C0A9B0B9A0121D2180B920C9A9C
:10C380000498D3180C9300F00FFB060002E0089D00
:10C390000B9C109E002C0ED00C9B002B0BDD0C9ADE
:10C3A0002300944200DD13000B9AE41AD21A0B9278
:10C3B0000C9AD31A0C93089B002B20DD109B002BAA
:10C3C00017D0002D11D031002A00049800F07EFB18
:10C3D000059A01000600049800F0EFFA05990E9006
:10C3E000049800F041FA0E9B0593089B5A1B06D057
:10C3F00000E0089A0599049800F068FB0590012177
:10C40000049800F0D1FA119B0890002B00D1C0E1F4
:10C410001A000100049800F059FB229B0890012BA0
:10C4200017DC0025069BAB420ED1079B1B03AB42DA
:10C430000AD1199B079A134206D00B9B0135013391
:10C440000B930C9B01330C93119B0120002B0DD0FF
:10C4500000E00025089B089A1B690E9303339B009C
:10C46000D318586800F056FA2023181A0C9BC018ED
:10C470001F23184009D001331B1A042B02DD1C2393
:10C48000181A03E0042B08D018001C300B9B24184A
:10C490001B180B930C9B1B180C930B9B002B05DD9F
:10C4A0001A000599049800F065FB05900C9B002B81
:10C4B00005DD1A000899049800F05CFB0890169BB3
:10C4C000002B1DD00899059800F0A6FB002817DA6C
:10C4D000039B0A22013B039305990023049800F073
:10C4E000DCF9109B0590002B00D159E131000023AD
:10C4F0000A22049800F0D1F90600002F37DC33E05F
:10C500000A9B0A9F002B2ADC229B022B27DD002F8F
:10C5100012D108993B000522049800F0BEF908905A
:10C520000100059800F078FB00280DDC04E0089677
:10C5300002E000231E000893239B0D9DDB43039321
:10C540000AE00E9B089603930D9B0D9A5D1C312308
:10C550001370039B013303930A960026F3E0109BAC
:10C56000002B04D10D9DB5E0229B022BCFDC002CCB
:10C5700005DD31002200049800F0FCFA06000A965E
:10C58000002D12D07168049800F036F931000400D3
:10C5900033690C319A1C92000C3000F024F901220E
:10C5A0002100049800F0E6FA0A900D9B7D1E0B9383
:10C5B0005B190E9308990598FFF7AFFA31001090B8
:10C5C0000400059800F028FB0A9A050008990498D1
:10C5D00000F03DFB01230C93C36830340700002BAF
:10C5E00004D10100059800F017FB0C903900049865
:10C5F00000F03AF90C9B229A134308D1069A0133B2
:10C60000134204D1392C2AD0002D1CDC1DE0002D52
:10C6100006DB229B1D431BD10123069A134217D12F
:10C620000C9B002B11DD05990122049800F0A2FA61
:10C630000899059000F0F0FA002802DC05D1E30724
:10C6400003D5392C0BD0109C31340B9B5D1C0FE0B3
:10C650000B9B5F1C0C9B002B0CDD392C05D10B9B1D
:10C660000B9A5D1C3923137057E03D000B9B01347E
:10C670001C7068E00B9B0E9A3D001C7093423CD0EE
:10C6800000230A220599049800F007F90A9B0590F7
:10C690009E4208D1310000230A22049800F0FDF8E0
:10C6A00006000A900DE0310000230A22049800F0F1
:10C6B000F4F8002306000A220A99049800F0EDF825
:10C6C0000A900B9776E700230A220599049800F058
:10C6D000E4F8059008990598FFF71FFA0D9B303094
:10C6E000287001350400EB1ABB42ECDB3D1E00DC78
:10C6F00001250A9600260D9B5D19059901220498D3
:10C7000000F038FA0899059000F086FA002804DC59
:10C7100013D1E30701D410E01D006B1E1A78392AEB
:10C7200008D10D9A9A42F7D1039B01330393312329
:10C73000137008E001321A7005E06B1E1A78302A77
:10C7400001D11D00F9E70899049800F08DF80A9BC3
:10C75000002B0ED0002E05D09E4203D0310004984D
:10C7600000F082F80A99049800F07EF801E00E9B30
:10C7700003930498059900F077F800232B70039B2E
:10C78000249A01331360269B0D98002B10D01D6056
:10C790000EE0229B012B00DC43E6119D012065E6A3
:10C7A000002F00DDDEE6229B022B00DCDAE6AEE69F
:10C7B0001DB0F0BD00487047E420002010B5034BC9
:10C7C0000100186800F05CFB10BDC046E0200020AE
:10C7D000C9B28218904204D003788B4202D0013053
:10C7E000F8E700207047002310B59A4203D0CC5CD4
:10C7F000C4540133F9E710BD70B5466A04000D005A
:10C80000002E07D11020FFF7D9FF606246608660D6
:10C810000660C660666AF368002B09D0636AAA00E6
:10C82000DB689B18186800280ED002681A6017E0B1
:10C8300021220421200000F0C9FA636AF060DB685D
:10C84000002BEBD100200EE001210E00AE40721D46
:10C850009200200000F0BAFA0028F3D0456086600C
:10C8600000230361C36070BD70B5456A06000C000B
:10C87000002D07D11020FFF7A1FF70624560856091
:10C880000560C560002C07D0726A6368D2689B009F
:10C89000D3181A6822601C6070BDF7B50700080045
:10C8A0000C000D691E00002101921430019A0388CA
:10C8B000013153439B190668360C56431A0C9446B3
:10C8C000B4446246160C120494469BB2634408C0FA
:10C8D0008D42EBDC002E1BD0A3689D4212DB636807
:10C8E0003800591CFFF788FF2100236901909A1C2A
:10C8F00092000C310C30FFF776FF21003800FFF773
:10C90000B3FF019C2B1D9B00E31801355E60256180
:10C910002000FEBD00220300010C914201D103045E
:10C920001032190E01D108321B02190F01D1043245
:10C930001B01990F01D102329B001000002B03DB79
:10C9400020205B0000D5501C70470722036810B5FB
:10C9500001001A400CD001240020234223D10222DE
:10C96000134203D0E34020000B601CE09B0818E05A
:10C9700098B2002801D110221B0CD8B2002801D196
:10C9800008321B0A180701D104321B09980701D18C
:10C9900002329B08D80704D45B082020002B02D069
:10C9A000013210000B6010BD10B50C000121FFF723
:10C9B00023FF01234461036110BDF0B50B6914002E
:10C9C000126989B00D00934201DA25000C002F692D
:10C9D0002669AA68BB1969680193934200DD013199
:10C9E000FFF70AFF0200BB1914329B00D3189C46C4
:10C9F000002113000290634501D202C3FBE7143506
:10CA0000BF00EB191434B6000593A31903950793DF
:10CA1000079B9C4251D2208800281ED0150000267A
:10CA2000039F08CF069504936B461B8A4343190066
:10CA30002B88CB1804999B19090C41432E68360C9E
:10CA400089191E0C89190E0C9BB209040B4308C5E9
:10CA5000059BBB42E5D8069B5E6023681D0C1FD07A
:10CA6000002110001368039F04913E8801686E4303
:10CA7000090C7118049E9BB289190E04334303609C
:10CA800008CF86881B0C6B43090C9B195B18190C8B
:10CA90000491059906900430B942E6D806994B6096
:10CAA00004340432B4E704235B429C4463461B68AD
:10CAB000002B05D1019B013B0193019B002BF2DC74
:10CAC000029B019A18001A6109B0F0BD0323F7B563
:10CAD000134005000E001400002B08D02349013B31
:10CAE0009A00525800233100FFF7D7FE0600A3102A
:10CAF000019338D06C6A002C07D11020FFF75EFE3E
:10CB00006862446084600460C4606F6ABC68002C22
:10CB100010D117492800FFF747FF0023B860040031
:10CB2000036007E0019B5B1001931CD02068002884
:10CB300010D004000122019B1342F3D031002200E7
:10CB40002800FFF73AFF070031002800FFF78CFEAE
:10CB50003E00E7E7220021002800FFF72EFF002318
:10CB600020600360E5E73000FEBDC04660C0020003
:10CB700071020000F0B50C0017002369551185B053
:10CB8000EB180193013300934968A3680290009A5F
:10CB9000934202DA01315B00F9E70298FFF72CFEBD
:10CBA00000230200060019001432AB4203DA980099
:10CBB00011500133F9E7EB43DB171D402300AD00B3
:10CBC00055192269143392009A1894461F2217406F
:10CBD00014D00132D21B0392002219682800B940F8
:10CBE0000A4304C504CB0399CA409C45F5D842606A
:10CBF000002A07D0019B0233009303E004CB04C555
:10CC00009C45FBD8009B0298013B33612100FFF754
:10CC10002BFE300005B0F0BD03690A6910B59B1A00
:10CC20000400181E12D1930014341431E218C918EC
:10CC3000043A043913680868834204D083429B4154
:10CC40000120184302E09442F2D3002010BDF0B559
:10CC50000C0085B00700110020001500FFF7DCFF75
:10CC6000061E07D101003800FFF7C6FD012346610B
:10CC7000036155E000230193984204DA23002C005D
:10CC80001D000123019361683800FFF7B5FD019B8A
:10CC900026692F00C3601434B300E3180200029326
:10CCA0002B69002514379B00FB180393143208CC22
:10CCB00069469C4608CF0432009363468B808B887C
:10CCC0005D19009B9BB2EB1A65460193009B2D0CEE
:10CCD000190C019B691A1D14131F9C466B464919B8
:10CCE0009B880D1409040B4361460B60039BBB42F8
:10CCF000DDD8029913008C420BD202CC8BB25B19A7
:10CD00001D14090C49190D149BB209040B4308C2E8
:10CD1000EFE7043B1A68002A01D1013EF9E70661FA
:10CD200005B0F0BDF7B51D000121089F1400FFF705
:10CD300063FD2B036D0006001B0B6D0D02D08022DE
:10CD4000520313430193002C18D068460094FFF758
:10CD5000FCFD009C002809D0019B20211A00091A23
:10CD60008A40C34022437261019300E07461019CD8
:10CD7000B461631E9C410134346107E001A8FFF7F0
:10CD8000E4FD0124019B346173612030002D06D045
:10CD90000B4BED1835232D183D60181A0BE0094B8D
:10CDA000C018094B3860E3189B00F3185869FFF767
:10CDB000B1FD6401201A099B18603000FEBDC04619
:10CDC000CDFBFFFFCEFBFFFFFFFFFF3F4A4370B5E8
:10CDD0001100140000F054F8051E03D022000021B9
:10CDE000FEF716FA280070BD70B50500002944D082
:10CDF0000C1F2368002B00DAE418280000F0B2F8BA
:10CE00001E4A13681100002B02D16360146031E0E8
:10CE1000A3420DD92268A018834203D118685B6829
:10CE20008218226063600C6024E0A24203D81300E1
:10CE30005A68002AF9D11E689819A0420BD12168BE
:10CE4000711858181960824214D11068526841183C
:10CE500019605A600EE0A04202D90C232B6009E051
:10CE600021686018824203D110685268411821601D
:10CE700062605C60280000F076F870BDC021002080
:10CE8000032370B5CD1C9D43083506000C2D01D23F
:10CE90000C2501E0002D01DBA94202D90C233360EF
:10CEA00048E0300000F05EF8234B1C681A002100B7
:10CEB000002913D00B685B1B0DD40B2B02D90B6020
:10CEC000CC181EE08C4202D1636813601AE04B68F4
:10CED00063600C0016E00C004968E9E7174C236812
:10CEE000002B03D1300000F02BF820602900300027
:10CEF00000F026F8431C18D00323C41C9C43A04216
:10CF00000DD12560300000F02EF8200007220B30F4
:10CF1000231D9043C31A0ED05A42E2500BE0211A4F
:10CF2000300000F00DF8431CEBD10C2330003360CF
:10CF300000F019F8002070BDC0210020BC210020A5
:10CF4000002370B5064C05000800236000F00CF8C3
:10CF5000431C03D12368002B00D02B6070BDC0465A
:10CF600060320020704770470E4B10B51A68002AD7
:10CF700001D10D4A1A6069461A681018884206D80D
:10CF80000A490B4C0968A14208D0884206D900F032
:10CF900029F80C2303600120404201E018601000D2
:10CFA00010BDC046C4210020803300201C21002079
:10CFB000ADDEFECA012110B5494200F001F810BDF6
:10CFC00030B51824062901D1044D00E0044D201C81
:10CFD000291CABBE041C200030BDC046230002004B
:10CFE00026000200014B18687047C046E020002070
:10CFF000BFF34F8F034B044ADA60BFF34F8FC04635
:10D00000FDE7C04600ED00E00400FA0576DF70475A
:10D01000C04618007ADF7047C04618007CDF7047B2
:10D02000C0461800A9DF7047C04618003CDF7047B3
:10D03000C046180048DF7047C046180000B583B0EE
:10D0400001900091019B180001F092FBC04603B0D3
:10D0500000BDC04610B586B06B460F4A13CA13C355
:10D0600012681A600D4A69460D48002309F03AFA21
:10D0700003000593059B0493049B002B05D0094AEC
:10D08000049B7B2118000AF071F8054B180009F089
:10D09000CBFAC04606B010BD3CC102003DD0010035
:10D0A0002421002000C1020000B585B01E4A1F4B9C
:10D0B000190000200BF0ECFDFFF7CCFF1C4B180013
:10D0C00001F05EFC03000393039B0293029B002B81
:10D0D00005D0184A029B8B2118000AF047F8032359
:10D0E00001220121012001F057FC03000393039B5F
:10D0F0000193019B002B05D00E4A019B8E21180045
:10D100000AF034F801F0E6FC03000393039B00935C
:10D11000009B002B05D0074A009B912118000AF0C4
:10D1200025F8C04605B000BD4CC1020058C1020040
:10D130002421002000C1020000B58BB005900491AD
:10D140000392039B08934B4B190000200BF0A0FDAA
:10D15000089B9A68089B1B889BB21800089B5B6819
:10D1600045490093030000200BF092FD434B19004A
:10D1700000200BF08DFDA023DA05A123DB00F021B8
:10D180004904D150A023DB053D4A00219950089B5A
:10D190009A68B8235B011A40B8235B019A4236D1E2
:10D1A00027236B4400221A7020E0A023DB05354AB8
:10D1B0009B580793A023DA05079BD94380235B0480
:10D1C0001940A123DB00D150A023DB050799802261
:10D1D00052040A402A495A50642000F09DFE272339
:10D1E0006B441A7827236B4401321A7027236B444F
:10D1F0001B78312BD9D9244B180009F0EDF96420A4
:10D2000000F08AFEFFF726FFFFF74EFF2EE02623F1
:10D210006B4400221A7022E0A023DB05194A9B58B8
:10D220000693A023DA05069BD943F0235B0419403B
:10D23000A123DB00D150A023DB050699F022520484
:10D240000A400F495A50FA239B00180000F064FE70
:10D2500026236B441A7826236B4401321A70262346
:10D260006B441B78092BD7D9FFF7C2FEC0460BB021
:10D2700000BDC0466CC1020074C1020098C102002A
:10D280000C050000040500002421002000B585B035
:10D290000190019B180001F0C9FB03000393039B5D
:10D2A0000293029B002B05D0294A029BDC21180027
:10D2B00009F05CFF019B1A68264B9B699A4208D2D1
:10D2C000019B1B68002B04D0019B1A68214B9A61BB
:10D2D00009E0019B1A681F4BDB689A4203D9019B46
:10D2E0001A681C4BDA60019B9A681A4B1B6A9A42B7
:10D2F00008D2019B9B68002B04D0019B9A68154BB8
:10D300001A6209E0019B9A68124B5B699A4203D941
:10D31000019B9A680F4B5A61019B5A680D4BDB6960
:10D320009A4208D2019B5B68002B04D0019B5A688B
:10D33000084BDA6109E0019B5A68064B1B699A4267
:10D3400003D9019B5A68034B1A61C04605B000BD62
:10D3500000C102001022002082B00190024B012285
:10D360001A70C04602B070470C22002082B00190B3
:10D37000024B01221A70C04602B070470D220020F5
:10D3800000B587B01F4A0023052100200AF086FD62
:10D3900003000593059B0493049B002B06D01A4AB7
:10D3A0008A235900049B180009F0E0FE174A184B25
:10D3B000012118000AF0F4FD03000393039B02937C
:10D3C000029B002B06D0104A8C235900029B1800A8
:10D3D00009F0CCFE0F4A104B012118000AF0E0FDC5
:10D3E00003000393039B0193019B002B07D0064A84
:10D3F0001C23FF331900019B180009F0B7FEC0463B
:10D4000007B000BD3422002000C1020059D3010042
:10D41000F8C002006DD30100FCC0020000B587B067
:10D420006B461A780F218A43111C01220A431A7095
:10D430006B461A780F210A40111C10220A431A70F9
:10D44000204B1800FEF762FB03009AB21D496B46A1
:10D450001800FFF7E3FD03000593059B0493049B6D
:10D46000002B06D0184A98235900049B180009F095
:10D470007DFE01AB082200211800FDF7C9FE01ABBB
:10D4800010221A8001AB28225A8001AB00229A8018
:10D4900001ABC8225200DA8001AB1800FFF7BAFDD9
:10D4A00003000593059B0393039B002B06D0064ABC
:10D4B0009D235900039B180009F058FEC04607B091
:10D4C00000BDC046A0C1020000C1020010B5054B5E
:10D4D000180001F003F8044B180001F05FFFC0468C
:10D4E00010BDC0469C320020C432002000B585B07B
:10D4F0000190019B1B78002B13D10B4B1B883B2108
:10D500001800FFF783FD03000393039B0293029B24
:10D51000002B06D0054AAD235900029B180009F0E4
:10D5200025FEC04605B000BD2021002000C102003C
:10D5300000B583B00190054A6623FF331900019BB3
:10D54000180009F013FEC04603B000BD00C1020080
:10D5500000B58BB001AB1C2200211800FDF758FE6E
:10D5600001AB00221A6001ABA02292025A6001AB0B
:10D57000F02212039A6001AB03221A7301AB00225E
:10D58000DA8101AB00221A7401AB0D4A5A6101AB7A
:10D590000C4A9A6101AB180004F01AFC03000993CD
:10D5A000099B0893089B002B06D0074ABE2359000D
:10D5B000089B180009F0DAFDC0460BB000BDC0465C
:10D5C000EDD4010031D5010000C1020000B585B0E5
:10D5D0001648C0235B02002219000AF02BFD03004D
:10D5E0000393039B0293029B002B07D0104A8823CE
:10D5F000FF331900029B180009F0B8FD0D48A02365
:10D60000DB02002219000AF015FD03000393039BBF
:10D610000193019B002B06D0054AC5235900019BAD
:10D62000180009F0A3FDC04605B000BDCC210020C4
:10D6300000C10200EC21002000B585B0002002F0FE
:10D6400029FD03000393039B0293029B002B07D049
:10D65000164A9623FF331900029B180009F086FD35
:10D6600002F0FAFE03000393039B0193019B002B3E
:10D6700007D00E4A9A23FF331900019B180009F0C6
:10D6800075FDFFF7D3FC03000393039B0093009BFE
:10D69000002B07D0054A9E23FF331900009B18007A
:10D6A00009F064FDC04605B000BDC04600C10200DF
:10D6B00000B585B002006B4607331A706B4607331E
:10D6C0001B78002B15D0032B00D016E0022002F0AF
:10D6D000E1FC03000393039B0293029B002B0BD0FE
:10D6E000074AB023FF331900029B180009F03EFDE2
:10D6F00002E0FFF7A1FF00E0C046C04605B000BD54
:10D7000000C1020000B587B00190019B180001F034
:10D71000BFFF019B1B88112B36D0522B39D0102B09
:10D7200000D04CE0072002F0B5FC03000593059BF8
:10D730000493049B002B06D0224AE4235900049B47
:10D74000180009F013FD019B9A881F4B1A801E4B8D
:10D750001888002300220021FFF764FC03000593D2
:10D76000059B0393039B002B07D0164ACC23FF3362
:10D770001900039B180009F0F9FC144B01221A70E0
:10D78000134B01221A701AE00F4B012252421A80E9
:10D7900015E00D4B1888002300220021FFF742FC02
:10D7A00003000593059B0293029B002B06D0054ABC
:10D7B000EB235900029B180009F0D8FCC046C04674
:10D7C00007B000BD00C10200202100200C22002073
:10D7D0000D22002000B583B00190019B180005F0D8
:10D7E00061FC019B180004F029FC019B180002F069
:10D7F00047FE019B1800FFF785FF019B180004F00E
:10D8000015F9019A064B1100180000F049FC019A25
:10D81000044B1100180001F0F7FCC04603B000BD36
:10D820009C320020C432002000B583B00190019BDF
:10D83000180007F045FE019B180004F0A1F9C0464E
:10D8400003B000BD00B591B006AA3B4B1000190013
:10D8500004231A00FEF7C7FF384906A80023482210
:10D860000BF0B6FB03000F930F9B0E930E9B002B48
:10D8700006D0334A832399000E9B180009F076FCEA
:10D8800001AB1A00012100200BF02CFC03000D93CA
:10D890000D9B0C930C9B002B05D0294A29490C9B0E
:10D8A000180009F063FC284B0B930B9B18000BF03E
:10D8B0006DFC03000D930D9B0A930A9B002B05D072
:10D8C0001F4A22490A9B180009F050FC01AB1800BE
:10D8D0000BF086FC03000D930D9B0993099B002B15
:10D8E00005D0174A1A49099B180009F03FFC194B4B
:10D8F00018000BF0B5FB03000D930D9B0893089BDC
:10D90000002B05D00E4A1449089B180009F02EFC84
:10D91000124B18000BF0B4FB03000D930D9B079303
:10D92000079B002B05D0064A0D49079B180009F0FC
:10D930001DFCC04611B000BDA4C10200FC230020A4
:10D9400000C1020012020000E81F002015020000C2
:10D9500019020000D5D701001D02000029D80100DE
:10D960002102000000B587B002006B4607331A7031
:10D970006B4607331B78072B1ED00A2B02D0042BD3
:10D9800003D02FE0FFF758FE2CE0184B1B88132123
:10D990001800FFF73BFB03000593059B082B1ED0E7
:10D9A000059B0493049B002B19D0114A1149049B39
:10D9B000180009F0DBFB12E004F012F903000593F4
:10D9C000059B082B0DD0059B0393039B002B08D0D0
:10D9D000074A0949039B180009F0C8FB01E0C0464B
:10D9E00000E0C046C04607B000BDC0462021002070
:10D9F00000C10200360200003E02000000B587B000
:10DA0000039002910192019B0593059B002B06D088
:10DA1000054A94239900059B180009F0A7FB0023F1
:10DA2000180007B000BDC04600C1020000B58BB0B1
:10DA300002006B4607331A7005AB6A46073212784C
:10DA40001A7007F0B1FE03000993099B0893089B25
:10DA5000002B05D0304A3149089B180009F086FB9D
:10DA600005AB180005F0C0F903000993099B079363
:10DA7000079B002B05D0284A2949079B180009F06D
:10DA800075FB02AB0533052200211800FDF7C0FB32
:10DA900002AB5A7901210A435A7102AB5A79022129
:10DAA0008A435A7102AB5A7904218A435A7102ABF4
:10DAB0005A7908218A435A7102AB5A7970218A43F4
:10DAC000111C30220A435A7102AB5A797F210A4055
:10DAD0005A7102AB07229A7102AB1022DA7102ABC3
:10DAE000104A1A6002AB01221A7102AA0E4B1100F1
:10DAF000180005F01FFA03000993099B0693069B83
:10DB0000002B05D0044A0949069B180009F02EFB9A
:10DB1000C0460BB000BDC04600C102006A02000052
:10DB20006D020000FDD90100C82100207D02000027
:10DB300000B58FB01F4B382200211800FDF768FB9D
:10DB40001C4B02221A701B4B01229A70194B0622A1
:10DB5000DA70184B01221A82164B174A5A6103AB2E
:10DB6000180024231A000021FDF752FB03AB012209
:10DB70001A7303AB962252001A6103AB00225A615A
:10DB80000E4903AA0B48002300930B00002103F069
:10DB90008DFC03000D930D9B0C930C9B002B05D06B
:10DBA000074A08490C9B180009F0E0FAC0460FB07C
:10DBB00000BDC046643200202C210020B1D60100F7
:10DBC00000C102009602000000B587B00190194B19
:10DBD00019491A00032002F079FA03000593059B06
:10DBE0000493049B002B05D0144A1549049B18008C
:10DBF00009F0BCFA0B236B441900002002F086FCEC
:10DC000003000593059B0393039B002B06D00B4A4F
:10DC1000AA239900039B180009F0A8FA0B236B4470
:10DC20001B78023B5A425341DAB2019B1A70C0463C
:10DC300007B000BD65D90100CD0C000000C1020095
:10DC4000A502000000B583B0FFF7F4F903000193CB
:10DC5000019B0093009B002B05D0044A0449009BC4
:10DC6000180009F083FAC04603B000BD00C10200ED
:10DC7000B302000000B585B001AB012252421A8008
:10DC800001AB0C229A8001AB064A9A60064B01AAAE
:10DC90005A62054B0021180003F06AFBC04605B02C
:10DCA00000BDC046B832002064320020F0B591B00B
:10DCB000FFF766FB37236B441800FFF785FFFFF77C
:10DCC000C1FD37236B441B781800FFF7AFFEFFF749
:10DCD000A5FBFFF72DFFFFF7F9FBFFF739FCFFF777
:10DCE000E3F9FFF773FC032003F008FD03000F9333
:10DCF0000F9B0E930E9B002B05D07A4A7A490E9B00
:10DD0000180009F033FA794B1B78DBB2002B00D1F5
:10DD1000DAE0774B1800FFF7B9FA764A764B110034
:10DD2000180000F02DFC724A734B1100180000F02F
:10DD30006BFC724A704B1100180000F0A9FC6C4B90
:10DD40009B6818000CF074F8031C6D49181C0BF04C
:10DD50000DFF031C181C0DF097FE06000F00694B09
:10DD60005B6918000CF064F8031C6549181C0BF083
:10DD7000FDFE031C181C0DF087FE04000D00614B16
:10DD80001B6A18000CF054F8031C5D49181C0BF0BA
:10DD9000EDFE031C181C0DF077FE02000B005A4923
:10DDA00005A8029203930094019532003B000DF008
:10DDB000EDFE05AB190000200AF06AFF4C4B1B6812
:10DDC00018000CF035F8031C8921C905181C0BF04C
:10DDD000CDFE031C181C0DF057FE06000F00494B2A
:10DDE000DB6818000CF024F8031C8921C905181CF5
:10DDF0000BF0BCFE031C181C0DF046FE04000D00C9
:10DE0000404B9B6918000CF013F8031C8921C905CD
:10DE1000181C0BF0ABFE031C181C0DF035FE0200A5
:10DE20000B003A4905A80292039300940195320031
:10DE30003B000DF0ABFE05AB190000200AF028FFF7
:10DE40002B4B5B6818000BF0F3FF031C2C49181CCC
:10DE50000BF08CFE031C181C0DF016FE06000F00C4
:10DE6000284B1B6918000BF0E3FF031C2449181C06
:10DE70000BF07CFE031C181C0DF006FE04000D00C8
:10DE8000204BDB6918000BF0D3FF031C1C49181C46
:10DE90000BF06CFE031C181C0DF0F6FD02000B00CD
:10DEA0001B4905A8029203930094019532003B00A0
:10DEB0000DF06CFE05AB190000200AF0E9FEFFF73B
:10DEC000D9FE0A4B00221A70124B1B78DBB2002BD2
:10DED00004D001F0F3F80F4B00221A70FFF7B2FEE6
:10DEE00011E7C04600C10200DA0200000C22002047
:10DEF000B8320020C03200209C320020BC3200200A
:10DF00000000C84210220020A8C10200D0C10200B7
:10DF1000F8C102000D22002084B0019014E0019BA2
:10DF2000013B01930B4B0393039B18000138C04640
:10DF3000C046C046C046C046C046C046C046C046B1
:10DF4000C046C046C046F1D1019B002BE7D1C04678
:10DF500004B07047E7030000A0DF7047C046180018
:10DF6000A2DF7047C0461800A5DF7047C046180002
:10DF7000A6DF7047C046180063DF7047C046180030
:10DF800000B58BB00190009104AB02221A8004AB63
:10DF900000225A8004AB0E226A445A60009BDA8841
:10DFA000019B1B899A4221D1019B1888019B1B89E7
:10DFB00004AA1900FFF7D8FF03000993099B0893EF
:10DFC000089B002B05D0324A089B2921180009F034
:10DFD000CDF80E236B441B88012B03D12D4B01225E
:10DFE0001A7052E02B4B00221A704EE0009BDA8828
:10DFF000019B1B8A9A4221D1019B1888019B1B8A95
:10E0000004AA1900FFF7B0FF03000993099B0793C7
:10E01000079B002B05D01E4A079B3621180009F0EC
:10E02000A5F80E236B441B88012B03D11A4B012248
:10E030001A702AE0184B00221A7026E0009BDA883A
:10E04000019B1B8B9A4220D1019B1888019B1B8B43
:10E0500004AA1900FFF788FF03000993099B0693A0
:10E06000069B002B05D00A4A069B4321180009F0A5
:10E070007DF80E236B441B88012B03D1074B012233
:10E080001A7002E0054B00221A70C0460BB000BDAA
:10E0900020C2020044240020462400204524002001
:10E0A00000B583B001900091009B1B88112B09D013
:10E0B000502B0CD0102B00D010E0009B9A88019BB5
:10E0C0001A800BE0019B012252421A8006E0009A5E
:10E0D000019B11001800FFF753FFC046C04603B074
:10E0E00000BDC04600B595B001900023139311AB5D
:10E0F00001229A7011AB4E4A1A800AAB1C220021F1
:10E100001800FDF785F80AAB1A7802210A431A7045
:10E1100009AB032200211800FDF77AF809AB1A7841
:10E120000F218A43111C01220A431A7009AB1A7885
:10E130000F210A40111C10220A431A7009AB5A78A9
:10E140000F218A43111C01220A435A7009AB5A78E5
:10E150000F210A40111C10220A435A7009AB9A7809
:10E1600006218A43111C02220A439A700AAB09AAAB
:10E170005A610AAB1A7810210A431A7008AB0322BD
:10E1800000211800FDF744F808AB9A7806218A436D
:10E19000111C02220A439A7008AB1A780F218A4395
:10E1A000111C01220A431A7008AB1A780F210A4089
:10E1B000111C10220A431A7008AB5A780F218A43A7
:10E1C0005A7008AB5A780F210A405A7003AB1422D8
:10E1D00000211800FDF71CF803AB11AA1A6003AB6D
:10E1E00008AA5A6003AB04229A8103AB04221A8165
:10E1F00002AB00221A6003AB02AA1A61019B588885
:10E20000019B143303AA0AA9FFF7AAFE0300139384
:10E21000139B1293129B002B05D0064A129B8F2151
:10E22000180008F0A3FF0023180015B000BDC04679
:10E230005EE5FFFF20C2020000B595B0019000230B
:10E24000139311AB01229A7011ABD222FF321A80C4
:10E250000AAB1C2200211800FCF7DAFF0AAB1A787F
:10E2600002210A431A7009AB032200211800FCF7AF
:10E27000CFFF09AB1A780F218A43111C01220A43F0
:10E280001A7009AB1A780F210A40111C10220A4398
:10E290001A7009AB5A780F218A43111C01220A43D4
:10E2A0005A7009AB5A780F210A40111C10220A43F8
:10E2B0005A7009AB9A7806218A43111C02220A433C
:10E2C0009A700AAB09AA5A610AAB1A7810210A435C
:10E2D0001A7008AB032200211800FCF799FF08AB65
:10E2E0009A7806218A43111C02220A439A7008ABCD
:10E2F0001A780F218A43111C01220A431A7008ABB5
:10E300001A780F210A40111C10220A431A7008AB18
:10E310005A780F218A435A7008AB5A780F210A4065
:10E320005A7003AB142200211800FCF771FF03ABF5
:10E3300011AA1A6003AB08AA5A6003AB04229A819F
:10E3400003AB04221A8102AB00221A6003AB02AABB
:10E350001A61019B5888019B0C3303AA0AA9FFF795
:10E36000FFFD03001393139B1293129B002B05D008
:10E37000044A129BC321180008F0F8FE002318007D
:10E3800015B000BD20C2020000B595B00190002379
:10E39000139311AB01229A7011AB4E4A1A800AAB4B
:10E3A0001C2200211800FCF733FF0AAB1A78022167
:10E3B0000A431A7009AB032200211800FCF728FF5A
:10E3C00009AB1A780F218A43111C01220A431A70E3
:10E3D00009AB1A780F210A40111C10220A431A7047
:10E3E00009AB5A780F218A43111C01220A435A7043
:10E3F00009AB5A780F210A40111C10220A435A70A7
:10E4000009AB9A7806218A43111C02220A439A70AA
:10E410000AAB09AA5A610AAB1A7810210A431A708A
:10E4200008AB032200211800FCF7F2FE08AB9A7833
:10E4300006218A43111C02220A439A7008AB1A78FB
:10E440000F218A43111C01220A431A7008AB1A7863
:10E450000F210A40111C10220A431A7008AB5A7887
:10E460000F218A435A7008AB5A780F210A405A701C
:10E4700003AB142200211800FCF7CAFE03AB11AA5B
:10E480001A6003AB08AA5A6003AB04229A8103AB5B
:10E4900004221A8102AB00221A6003AB02AA1A619D
:10E4A000019B5888019B043303AA0AA9FFF758FD72
:10E4B00003001393139B1293129B002B05D0064A63
:10E4C000129BF721180008F051FE0023180015B028
:10E4D00000BDC046AEEEFFFF20C2020000B58BB00B
:10E4E000019002AA234B1000190010231A00FEF716
:10E4F0007AF906AB204A1A8006AB9A1C02AB1100CF
:10E500001800FFF739FD03000993099B0893089B46
:10E51000002B06D0194A85235900089B180008F0E3
:10E5200025FE019B012252421A80019B9A1C06ABD8
:10E5300019000120FFF710FD03000993099B0793C1
:10E54000079B002B06D00D4A89235900079B180012
:10E5500008F00CFE019B1800FFF716FF019B180046
:10E56000FFF76AFE019B1800FFF7BCFDC0460BB029
:10E5700000BDC04668C202000DF0FFFF20C20200CD
:10E5800000B589B001900091019B1B881B4A934202
:10E5900031D01B4B1B78DBB2002B2CD01A236B44E1
:10E5A00004221A8002AB102200211800FCF730FE72
:10E5B000019B9A8802AB1A8002AB01229A7002ABCF
:10E5C00000229A8002AB1A226A449A6002AB009A37
:10E5D000DA60019B1B8802AA11001800FFF7C8FC33
:10E5E00003000793079B002B05D0079A054B1900E2
:10E5F00000200AF04DFBC04609B000BDFFFF00003F
:10E600004424002078C2020000B589B00190009136
:10E61000019B1B881B4A934231D01B4B1B78DBB2FA
:10E62000002B2CD01A236B4404221A8002AB102238
:10E6300000211800FCF7ECFD019B9A8902AB1A80BF
:10E6400002AB01229A7002AB00229A8002AB1A221E
:10E650006A449A6002AB009ADA60019B1B8802AAA6
:10E6600011001800FFF784FC03000793079B002BA1
:10E6700005D0079A054B190000200AF009FBC04697
:10E6800009B000BDFFFF00004624002090C2020038
:10E6900000B589B001900091019B1B881B4A9342F1
:10E6A00031D01B4B1B78DBB2002B2CD01A236B44D0
:10E6B00004221A8002AB102200211800FCF7A8FDEA
:10E6C000019B9A8A02AB1A8002AB01229A7002ABBC
:10E6D00000229A8002AB1A226A449A6002AB009A26
:10E6E000DA60019B1B8802AA11001800FFF740FCAA
:10E6F00003000793079B002B05D0079A054B1900D1
:10E7000000200AF0C5FAC04609B000BDFFFF0000B6
:10E7100045240020A8C2020000B583B00190012268
:10E72000019B9A401300180000F004F8C04603B0A3
:10E7300000BDC04684B00190A023DB050A4A9B5867
:10E740000393A023DA05039BDB4301991940A1231E
:10E75000DB00D150A023DB05039A01990A4003494D
:10E760005A50C04604B07047040500000C05000074
:10E7700000B585B00190019B1B78012B25D0022BA1
:10E780002FD0002B00D03BE01820FFF7C5FF019BE6
:10E790001B79012B10D002DC002B05D014E0022BDA
:10E7A0000ED0032B04D00FE0174B01221A700BE0A0
:10E7B000154B01221A7007E0144B01221A7003E076
:10E7C000124B01221A70C0461AE0114B0393039BAF
:10E7D000002B12D00F4A039B3121180008F0C6FC11
:10E7E0000BE00D4B0293029B002B08D0094A029BC1
:10E7F0003421180008F0BAFC01E0C04600E0C04631
:10E80000C04605B000BDC0464C2400204D24002069
:10E8100001170000C0C202000217000000B589B055
:10E8200002000F236B441A700E236B440A1C1A70EB
:10E830001B4B079305AB0F226A4412781A7005AB85
:10E840000E226A4412785A70164B186805AA0023E3
:10E8500000930223762108F01FFA03000693069B1B
:10E86000002B01D0069B17E0C0460F4B1B78DBB294
:10E8700001225340DBB2002B05D0079B013B0793DD
:10E88000079B002BF1D1079B002B01D1074B03E025
:10E89000054B00221A70069B180009B000BDC04647
:10E8A00060E31600482400204C2400200D170000CF
:10E8B00000B589B00491039217236B44021C1A70AF
:10E8C0002A4B07932A4B186817226A4400230093A7
:10E8D0000123762108F0E0F903000693069B002B44
:10E8E00001D0069B3FE0C046224B1B78DBB20122E1
:10E8F0005340DBB2002B05D0079B013B0793079BDE
:10E90000002BF1D1079B002B01D11B4B2BE0194BA6
:10E9100000221A70164B1868039BDBB2049A76210A
:10E9200008F0ECF903000693069B002B01D0069B30
:10E9300019E00E4B0793C046104B1B78DBB2012247
:10E940005340DBB2002B05D0079B013B0793079B8D
:10E95000002BF1D1079B002B01D1074B03E0074BA4
:10E9600000221A70069B180009B000BD60E3160073
:10E97000482400204C2400200D1700004D240020C6
:10E9800082B00190034B019A1A600023180002B074
:10E990007047C0464824002030B585B005000C0003
:10E9A000100019006B4607332A1C1A706B46063399
:10E9B000221C1A706B460533021C1A7001AB0A1C2C
:10E9C0001A706B4606331B781900F220FFF726FFFA
:10E9D00003000393039B002B01D0039B22E06B46B3
:10E9E00007331B785B015AB26B4605331B789B00DB
:10E9F0005BB213435AB201AB1B785BB213435AB2FA
:10EA00000B236B441A700B236B441B781900F42002
:10EA1000FFF704FF03000393039B002B01D0039B2C
:10EA200000E00023180005B030BDC04600B589B035
:10EA3000019005AB180008231A000021FCF7E8FB41
:10EA400005AB08221900F720FFF732FF03000793F8
:10EA500005AB1B781A0405AB5B781B02134305AAB0
:10EA6000927813431B111A0002AB5A6005ABDB7896
:10EA70001A0405AB1B791B02134305AA52791343F1
:10EA80001B111A0002AB9A6005AB9B791B0205AA09
:10EA9000D27913431A0002AB1A6002AB5B6818000C
:10EAA00000F002F90200019B5A6002AB9B6818005B
:10EAB00000F0C4F80200019B9A6002AB1B681800CA
:10EAC00000F08EF90200019B1A60079B180009B044
:10EAD00000BDC04600B59FB06F236B4460221A7022
:10EAE0006F236B441A7801AB19008820FFF7E0FE12
:10EAF00003001A931A9B002B01D01A9B98E06723FE
:10EB00006B446F226A441278013A1A7067236B448F
:10EB10001B7801AAD35C5AB2474B1A7667236B4421
:10EB200067226A441278013A1A7067236B441B7893
:10EB300001AAD35C1B011AB267236B4467216944A5
:10EB400009780139197067236B441B7801A9CB5CE4
:10EB50001B09DBB21BB213431AB2374B5A8367232C
:10EB60006B441B7801AAD35C1BB20F2213401AB26C
:10EB700067236B4467216944097801391970672359
:10EB80006B441B7801A9CB5C1B011BB213431AB267
:10EB9000294B9A8367236B4467226A441278013AAF
:10EBA0001A7067236B441B7801AAD25C224B9A77B8
:10EBB00067236B4467226A441278013A1A7067230C
:10EBC0006B441B7801AAD35C1B021AB267236B4407
:10EBD0006721694409780139197067236B441B78F0
:10EBE00001A9CB5C1BB213431AB2134B1A846723DF
:10EBF0006B4419221A7067236B441B7801AAD15CFD
:10EC00000D4B222299540C4B1D9388231C930BE02F
:10EC10001C9B883B01AAD25C1D9B1A701D9B013373
:10EC20001D931C9B01331C931C9B9F2BF0DD002329
:10EC300018001FB000BDC046D432002086B001903D
:10EC4000019BDA10164B1B885B00D31A144A022171
:10EC5000525E5343DB120593019B1B11104A12882D
:10EC60009B1A019A12110E490988521A53431B1319
:10EC70000B4A0421525E53439B130493059A049B51
:10EC8000D218084B1A60074B1A6813009B009B1898
:10EC900080331B120393039B180006B07047C046D5
:10ECA000D4320020F832002000B587B00190474BE5
:10ECB0001B685B10464A944663440493049B9B1074
:10ECC000049A92105343DB12424A1021525E53437E
:10ECD0000393404B0E229B5E1A00049B53435B0040
:10ECE000039AD3180393039B9A103A4B0C215B5E53
:10ECF0001B04D3180393374B0A229B5E1900049B15
:10ED00009B10049A921053435B134B43DA10314B20
:10ED100008215B5E1900049B4B435B10D3189B14C6
:10ED20000493049B8022120294466344294AD288A9
:10ED30005343DB130493049B002B01D1002341E0D8
:10ED4000019B5B42039A12139B1A234A5343234AA3
:10ED5000944663440593059B002B09DB059B5B00F0
:10ED6000049A110018000AF02FFD0300059307E034
:10ED7000049B190005980AF027FD03005B0005932A
:10ED8000144B16229B5E1900059BDB08059AD208DE
:10ED900053435B0B4B431B130493059B9B081A00C7
:10EDA0000C4B14215B5E53435B130393049A039B48
:10EDB000D318084A1221525E9B181A11059BD318CA
:10EDC0000593059B180007B000BDC046F83200202F
:10EDD0000006FFFFD4320020350C0000000050C3B5
:10EDE00084B001902D4B1B682D4A944663440393D5
:10EDF000019B9A032B4B1C215B5E1B05D21A294BEE
:10EE00001A215B5E1900039B4B43D31A8022D20167
:10EE100094466344DB13234A127E52B21100039AD4
:10EE20004A4392121F49897F080003994143C9123E
:10EE300080200002844661444A4392128021890363
:10EE40008C46624417492020095E4A43802189018B
:10EE50008C466244921353430393039BDB13039A40
:10EE6000D2135343DB110F4A2221525C53431B112F
:10EE7000039AD31A0393039B002B00DA0023039316
:10EE8000039BC8225205934201DDC8235B0503930F
:10EE9000039B1B13180004B07047C046F8320020D3
:10EEA00000D4FEFFD4320020A0DF7047C046180017
:10EEB000A2DF7047C0461800A5DF7047C0461800A3
:10EEC000A6DF7047C046180000B585B002006B464B
:10EED00006331A806B4606331B88404A934204D996
:10EEE0000F236B4464221A7071E06B4606331B8853
:10EEF0003B4A934212D96B4606331B88394AD31AD0
:10EF00003A225343642118000AF0E8FC0300DAB205
:10EF10000F236B4464218A1A1A7058E06B4606333B
:10EF20001B88314A934214D96B4606331B882C4AFE
:10EF3000D21A13005B009B18DB00A02118000AF016
:10EF4000CDFC0300DAB20F236B442A218A1A1A700F
:10EF50003DE06B4606331B88244A934216D96B4624
:10EF600006331B88204AD21A13005B009B189B00B3
:10EF70001A009623590010000AF0B0FC0300DAB220
:10EF80000F236B4412218A1A1A7020E06B46063355
:10EF90001B88174A934216D96B4606331B88134ABF
:10EFA000D21A13005B009B185B001A00AA235900B9
:10EFB00010000AF093FC0300DAB20F236B44062121
:10EFC0008A1A1A7003E00F236B4400221A700F2371
:10EFD0006B441B78180005B000BDC046B70B00009D
:10EFE000540B0000B80B0000B40A000088090000B0
:10EFF0003408000010B586B002000E236B441A805E
:10F000000E236B4400229B5E18000AF0C9FE031C0D
:10F010002449181C0AF0AAFD031C181C0CF034FD2E
:10F02000214A224B0BF092FE03000C001800210035
:10F0300000221F4B0BF08AFE03000C001800210079
:10F0400000221C4B0BF082FE03000C001800210074
:10F050000AF06EFD03009AB216236B442932FF3288
:10F060001A8015246C4416236B441B881800FFF784
:10F070002BFF030023700E236B4400229A5E16239D
:10F080006B44188815236B441B780B4900930300CD
:10F09000002009F0FDFD15236B441B78180006B015
:10F0A00010BDC04600C07F44333333333333F33FA6
:10F0B0000000084000408F4004C3020000B583B048
:10F0C0006B460233012118000AF0F4F903000193A2
:10F0D000019B112B01D1112301E00AF095F91800D1
:10F0E00003B000BD00B583B00190019B1B78002BDD
:10F0F00002D0012B15D015E0019B5B6800229B5EBE
:10F100001800FFF777FF03001A00084B1A70084B2E
:10F110001A68064B1B78DBB21900100000F072F978
:10F1200000E0C046C04603B000BDC046FC3200202F
:10F130005024002000B585B001AB03221A70114B9A
:10F140001A781C218A43111C18220A431A700E4A8D
:10F1500001AB110018000AF00BF903000393039BA5
:10F160000293029B002B05D0084A029B4A211800FB
:10F1700007F0FCFF034B18000AF026F9C04605B063
:10F1800000BDC04630210020E5F0010024C302008C
:10F1900000B589B00190009104AB02221A8004AB43
:10F1A00000225A8004AB0E226A445A60009BDA881F
:10F1B000019B1B899A4220D1019B1888019B1B89C6
:10F1C00004AA1900FFF778FE03000793079B069334
:10F1D000069B002B05D00A4A069B5E21180007F00B
:10F1E000C5FF0E236B441B88012B03D1054B012265
:10F1F0001A7002E0034B00221A70C04609B000BD2D
:10F2000024C30200FD32002000B583B001900091BC
:10F21000009B1B88112B09D0502B0CD0102B00D039
:10F2200010E0009B9A88019B1A800BE0019B012251
:10F2300052421A8006E0009A019B11001800FFF765
:10F24000A7FFC046C04603B000BDC04600B595B09C
:10F2500001900023139311AB01229A7011AB4D4A18
:10F260001A800AAB1C2200211800FBF7D1FF0AAB61
:10F270001A7802210A431A7009AB032200211800F0
:10F28000FBF7C6FF09AB1A780F218A43111C012234
:10F290000A431A7009AB1A780F210A40111C102278
:10F2A0000A431A7009AB5A780F218A43111C0122B4
:10F2B0000A435A7009AB5A780F210A40111C1022D8
:10F2C0000A435A7009AB9A7806218A43111C02221C
:10F2D0000A439A700AAB09AA5A610AAB1A7810213C
:10F2E0000A431A7008AB032200211800FBF790FFB5
:10F2F00008AB9A7806218A43111C02220A439A70AD
:10F3000008AB1A780F218A43111C01220A431A7094
:10F3100008AB1A780F210A40111C10220A431A70F8
:10F3200008AB5A780F218A435A7008AB5A780F21DC
:10F330000A405A7003AB142200211800FBF768FF43
:10F3400003AB11AA1A6003AB08AA5A6003AB0122EF
:10F350009A8103AB01221A81019B0C331A0003AB83
:10F360001A61019B5888019B043303AA0AA9FFF77D
:10F370009FFD03001393139B1293129B002B05D048
:10F38000054A129BAA21180007F0F0FE002318007E
:10F3900015B000BD192A000024C3020000B587B0D3
:10F3A0000190154B019A1A60FFF7C4FE03AB0122CE
:10F3B0009A7003AB114A1A80019B012252421A80B3
:10F3C000019B9A1C03AB19000120FFF76DFD0300A0
:10F3D0000593059B0493049B002B05D0084A049BCE
:10F3E000C821180007F0C2FE019B1800FFF72EFF8E
:10F3F000C04607B000BDC046502400200F180000D2
:10F4000024C3020000B589B001900A006B460333A3
:10F410001A70019B1B881F4A934232D01E4B1B78E7
:10F42000DBB2002B2DD01A236B4401221A8002ABD1
:10F43000102200211800FBF7EBFE019B9A8802AB1B
:10F440001A8002AB01229A7002AB00229A8002ABB2
:10F450001A226A449A6002AB6A460332DA60019B60
:10F460001B8802AA11001800FFF72AFD030007936A
:10F47000079B002B05D0079A084B1900002009F0C4
:10F4800007FC6B4603331A78054B1A70C04609B067
:10F4900000BDC046FFFF0000FD3200206CC302002B
:10F4A0005424002010B582B00190019B1B88103BB2
:10F4B0001A00414B9200D258404B1900002009F02D
:10F4C000E7FB019B9B881A003D4B1900002009F0C7
:10F4D000DFFB019B1B88112B5ED0122B2FD0102B32
:10F4E00000D066E0019B1B8B18000CF053FA002241
:10F4F000344B0BF02BFC03000C00180021000AF029
:10F5000017FB03009BB21A002F4B1900002009F0D3
:10F51000BFFB019BDB8B1A0013009B009B185B0059
:10F520001A002A4B1900002009F0B2FB019B9B8BAB
:10F530001A00274B1900002009F0AAFB39E0019BB3
:10F540001B8918000CF026FA00221E4B0BF0FEFB64
:10F5500003000C00180021000AF0EAFA03009BB235
:10F560001A00194B1900002009F092FB019BDB895E
:10F570001A0013009B009B185B001A00134B190024
:10F58000002009F085FB019B9B891A00104B190094
:10F59000002009F07DFB0CE0019B1B7A123B1A0056
:10F5A0000C4B9200D2580C4B1900002009F070FB54
:10F5B000C046C04602B010BD38210020B4CA0200C7
:10F5C000C4CA02000000F43FDCCA0200F4CA020010
:10F5D0000CCB02007C21002020CB020010B58AB0A9
:10F5E000039026236B44039A92881A8004AA039BF3
:10F5F000043313CB13C2196811609B88938009AB45
:10F60000039A12881A8009AB1B88512B04D0522B05
:10F6100029D0502B18D02FE004AB9B78012B09D1B7
:10F6200004AB9B881A0004ABDB881549002009F065
:10F630002FFB21E004AB9B881A0004ABDB88114947
:10F64000002009F025FB17E0039BDB881A00039BD1
:10F650001B891800039B12330B4900930300002001
:10F6600009F016FB08E0039B9B791A00074B190071
:10F67000002009F00DFBC046C0460AB010BDC046D0
:10F6800028CB02004CCB020070CB0200A0CB0200C2
:10F6900000B585B00190019B1B880393039A244B0E
:10F6A0001900002009F0F4FA039B0F2B07D9039BE4
:10F6B0002F2B04D8019B1800FFF7F4FE35E0039BC5
:10F6C0004F2B07D9039B6F2B04D8019B1800FFF722
:10F6D00085FF2AE0039B2F2B0FD9039B4F2B0CD8C0
:10F6E000019B1B88303B1A00124B9200D258124BE0
:10F6F0001900002009F0CCFA17E0039B002B0ED074
:10F70000039B0F2B0BD8019B1B885A1E0B4B92009F
:10F71000D2580B4B1900002009F0BAFA05E0039A01
:10F72000084B1900002009F0B3FAC04605B000BD2F
:10F73000B0CB020074210020C0CB02007821002051
:10F74000CCCB0200D8CB020084B001900091019B89
:10F75000032B16D8A023DA05A223DB00D358DB4302
:10F7600003930B4B019A9200D35801229A40130045
:10F770001A00039B13405A1E9341DAB2009B1A7081
:10F7800002E0009B00221A700023180004B07047AA
:10F79000FCCB020000B587B002006B4607331A703D
:10F7A0006B4606330A1C1A7017236B4400221A702A
:10F7B0000023049302E0049B01330493049B032B76
:10F7C00008D8454B049A9200D2586B4607331B78F1
:10F7D0009A42F0D1049B032B6BD86B4606331B78FF
:10F7E000012B04D0022B57D0002B37D061E017211A
:10F7F00069443A48049A13005B009B181B5C0B7029
:10F800003649049A13005B009B18CB1801331B7810
:10F81000002B15D03248334B1A6813009B009B18FD
:10F820005B001900304B1A0008F004FC030003933E
:10F83000039B002B04D12C4B6A46073212781A70B6
:10F840002649049A13005B009B18CB1802331978E1
:10F85000264A049BD3180A1C1A702AE0204B180071
:10F8600008F020FC214A049BD31819781B48049AFD
:10F8700013005B009B18C31802331B78994217D101
:10F88000172169441548049A13005B009B18C3189C
:10F8900002331B780B700BE0172169440F48049A60
:10F8A00013005B009B18C31801331B780B7000E03A
:10F8B000C04617236B441B78002B0AD00C4B1B68E7
:10F8C000002B06D00A4B1B6817226A4412781000DE
:10F8D0009847C04607B000BDFCCB0200A82400201A
:10F8E000B424002058240020D4240020D824002050
:10F8F000A424002000B583B00190019B1B78022155
:10F900001800FFF747FFC04603B000BD10B588B030
:10F9100002006B4607331A700023079300230693F7
:10F920006B4607331B78172B00D96CE39A00DB4B2F
:10F93000D3181B689F46A023DA05D94B1B68D9430F
:10F94000F0235B041940A123DB00D150A023DB0589
:10F95000D44A00219950D44B6A46073212781A7063
:10F9600052E3A023DA05CE4B1B68D943E0235B04A6
:10F970001940A123DB00D150A023DB05C94A002197
:10F980009950A023DB05C94A9B58F02252045A40E3
:10F9900080239B03134017D0A023DA05A123DB00AB
:10F9A00080218903D150A023DB05BE4A0021995054
:10F9B0006B4607331B78022B02D1E123DB0001E009
:10F9C000FA231B01069315E0A023DB05B54980222D
:10F9D00092035A50A023DA05A123DB000021D15065
:10F9E0006B4607331B78022B01D1C82301E0C823E3
:10F9F0005B000693AC4B6A46073212781A70AC4C27
:10FA0000069B6421180009F0DFFE03001A00A94BD1
:10FA10001B68534300221900200008F00BFB030071
:10FA20000793F1E2A023DA059D4B1B68D943E0233D
:10FA30005B041940A123DB00D150A023DB05994AC8
:10FA400000219950A023DB05984A9B58F0225204CC
:10FA50005A4080239B03134017D0A023DA05A1232B
:10FA6000DB0080218903D150A023DB058D4A0021D2
:10FA700099506B4607331B78032B02D1C8239B0098
:10FA800001E0FA231B01069315E0A023DB0585495D
:10FA9000802292035A50A023DA05A123DB00002123
:10FAA000D1506B4607331B78032B01D1C82301E0EB
:10FAB000C8235B0006937C4B6A46073212781A70A3
:10FAC0007B4C069B6421180009F07EFE03001A009F
:10FAD000784B1B68534300221900200008F0AAFA53
:10FAE0000300079390E2A023DA056D4B1B68D9430E
:10FAF000E0235B041940A123DB00D150A023DB05E8
:10FB0000684A00219950A023DB05684A9B58F022DF
:10FB100052045A4080239B0313400FD0A023DA05E0
:10FB2000A123DB0080218903D150A023DB055D4A9E
:10FB300000219950FA231B0106930EE0A023DB0558
:10FB40005849802292035A50A023DA05A123DB00F2
:10FB50000021D150C8235B000693534B6A460732FD
:10FB600012781A70524C069B6421180009F02CFE82
:10FB700003001A004F4B1B6853430022190020005A
:10FB800008F058FA030007933EE2A023DA05444B3D
:10FB90001B68D943E0235B041940A123DB00D1504B
:10FBA000A023DB053F4A00219950A023DB053F4AF3
:10FBB0009B58F02252045A4080239B03134016D0D6
:10FBC000A023DA05A123DB0080218903D150A023E3
:10FBD000DB05344A002199506B4607331B78052B0F
:10FBE00001D1C82301E0FA231B01069315E0A023ED
:10FBF000DB052C49802292035A50A023DA05A12369
:10FC0000DB000021D1506B4607331B78052B01D157
:10FC1000C82301E0C8235B000693234B6A460732E2
:10FC200012781A70224C069B6421180009F0CCFD52
:10FC300003001A001F4B1B685343002219002000C9
:10FC400008F0F8F903000793DEE1A023DA05144B6E
:10FC50001B68D943E0235B041940A123DB00D1508A
:10FC6000A023DB050F4A00219950A023DB050F4A92
:10FC70009B58F02252045A4080239B0313401BD010
:10FC8000A023DA05A123DB0080218903D150A02322
:10FC9000DB05044A002199501AE0C0462CCC020032
:10FCA000602400200C0500005524002004050000FD
:10FCB0006424002058240020A023DB05D44980229E
:10FCC00092035A50A023DA05A123DB000021D15072
:10FCD000D04B6A46073212781A70CF48CF4B1B6858
:10FCE0000022190008F0A6F9030007938CE1A02375
:10FCF000DA05CB4B1B68D943E0235B041940A123F1
:10FD0000DB00D150A023DB05C14A00219950A0237C
:10FD1000DB05BF49802292035A50A023DA05A123B4
:10FD2000DB000021D150BB4B6A46073212781A70B3
:10FD30006AE1A023DB05BB4A9B580593A023DA05A3
:10FD4000059BD9438023DB031940A123DB00D1505D
:10FD5000A023DB0505998022D2030A40AC495A5002
:10FD6000AD48AE4B1B680022190008F063F9030090
:10FD7000079349E1A023DB05AA4A9B580493A023DB
:10FD8000DA05049BD9438023DB031940A123DB0060
:10FD9000D150A023DB0504998022D2030A409C495C
:10FDA0005A509D489D4B1A6813009B009B180022D7
:10FDB000190008F03FF90300079325E1A023DB05B4
:10FDC000984A9B580393A023DA05039BD9438023C9
:10FDD000DB031940A123DB00D150A023DB050399ED
:10FDE0008022D2030A408A495A508B488B4B1B68A9
:10FDF0000022190008F01EF90300079304E1A02374
:10FE0000DB05884A9B580293A023DA05029BD9435D
:10FE10008023DB031940A123DB00D150A023DB05A5
:10FE200002998022D2030A4079495A507A487B4B82
:10FE30001A6813009B009B180022190008F0FAF8BA
:10FE400003000793E0E0A023DB057149F022520490
:10FE50005A50A023DA05A123DB000021D1506D4BBD
:10FE60006A46073212781A70CEE06F4B180008F01D
:10FE700019F9030007936B4607331B781122D31A35
:10FE80000693069B002B2DD0079B002B2AD1644B99
:10FE9000802212041A60069B012B13D9624C069B28
:10FEA000C82253436421180009F08EFC03001A0095
:10FEB0005A4B1B68534300221900200008F0BAF87F
:10FEC00003000793A023DA05554B1968F0235B0460
:10FED0000B404F495350A023DA05A123DB0000213A
:10FEE000D15091E0A023DA054D4B1968F0235B0453
:10FEF0001940A123DB00D150A023DB05444A002197
:10FF00009950474B00221A607EE0A023DA05A12316
:10FF1000DB00F0214904D150A023DB053C4A00213D
:10FF200099503C4B6A46073212781A706CE0A02355
:10FF3000DA05A123DB00E0214904D150A023DB0531
:10FF4000334A00219950A023DB05314980229203D6
:10FF50005A50A023DA05A123DB000021D1502D4BFC
:10FF60006A46073212781A704EE0A023DA05A12300
:10FF7000DB00D0214904D150A023DB05244A002115
:10FF80009950A023DB0522498022D2035A50A02396
:10FF9000DA05A123DB000021D1501E4B6A4607324F
:10FFA00012781A7030E0A023DA05A123DB00C0210B
:10FFB0004904D150A023DB05154A00219950A02304
:10FFC000DB051349C022D2035A50A023DA05A1232E
:10FFD000DB000021D1500F4B6A46073212781A70AD
:10FFE00012E0A023DB050A49F02252045A50A02354
:10FFF000DA05A123DB000021D150064B6A46073207
:020000022000DC
:1000000012781A7000E0C046079B180008B010BDB7
:100010000C050000552400206424002058240020F2
:1000200060240020040500008424002000B583B073
:100030000190064B1B680122134004D0044B1B782F
:100040001800FFF763FCC04603B000BD5C2400202D
:100050005524002084B00190A023DB050B4A9B5857
:100060000393A023DA05039BD94380231B04194083
:10007000A123DB00D150A023DB05039980221204C9
:100080000A4003495A50C04604B0704704050000B6
:100090000C05000000B585B002006B4607331A70EE
:1000A00000230393084B1B680122134007D06B46C3
:1000B00007331B781800FFF729FC03000393039B09
:1000C000180005B000BDC0465C24002000B587B014
:1000D00003900291019200230593384B029A1A6013
:1000E000374B039A1A60374B019A1A60039B02221E
:1000F000134031D0002304930AE0049B0122012124
:10010000180000F071F803000593049B0133049379
:10011000049B032B02D8059B002BEED0059B002BE4
:1001200008D1029B5A08284B0421180006F084FFCE
:1001300003000593059B002B03D106F0F7FF030096
:100140000593059B002B07D1204A214B0021180065
:1001500007F026FF03000593039B0122134012D0F2
:10016000A023DA05A123DB00F0214904D150A0230C
:10017000DB05184A00219950A023DA05A323DB00F0
:10018000F0214904D150059B002B07D1124A134B93
:100190000021180007F004FF03000593059B002BC6
:1001A00007D10F4A0F4B0121180007F0F9FE030099
:1001B0000593059B180007B000BDC04658240020D9
:1001C0005C240020A42400200CCC0200F5F80100DF
:1001D000F8CB02000C0500002D000200F0CB02005D
:1001E00055000200F4CB020084B001900800110019
:1001F0006B460333021C1A706B4602330A1C1A70DA
:1002000000230393019B032B42D86B4602331B78D8
:10021000012B0DD16B4603331B78012B04D1019BBD
:10022000DBB20D33DAB200E000226B4602331A7003
:100230006B4603331B78012B04D0022B0CD0002B10
:1002400016D021E01549019A13005B009B186A46FD
:10025000023212785A541DE01049019A13005B00D3
:100260009B18CB1801336A46023212781A7011E0DB
:100270000A49019A13005B009B18CB1802336A46A7
:10028000023212781A7005E007230393C04601E09A
:1002900007230393039B180004B07047A824002091
:1002A00086B00190002305932DE0A023DB05194AB9
:1002B000059989008A58C132FF329200D3580493BD
:1002C0000122059B9A4013001A00019B134001D0A4
:1002D000032300E000230393049B0F4A134004937D
:1002E000039B1B04049A13430493A023DB05094AD0
:1002F000059989008A58C132FF3292000499D15081
:10030000059B01330593059B032BCED900231800D1
:1003100006B07047FCCB0200FFFFFCFF00B583B0C6
:10032000012200210020FFF75FFF03000193019BE2
:10033000002B04D0019B072B01D0019B1EE007225C
:1003400002210120FFF750FF03000193019B002BC6
:1003500004D0019B072B01D0019B0FE00422022156
:100360000020FFF741FF03000193019B002B04D005
:10037000019B072B01D0019B00E00023180003B074
:1003800000BDC04600B583B0012202210020FFF766
:100390002BFF03000193019B002B04D0019B072B33
:1003A00001D0019B1EE0072202210120FFF71CFF64
:1003B00003000193019B002B04D0019B072B01D06C
:1003C000019B0FE00A2200210020FFF70DFF030030
:1003D0000193019B002B04D0019B072B01D0019BB3
:1003E00000E00023180003B000BDC04600B585B092
:1003F00001900B236B4419000020FFF7A5F90300BF
:100400000393039B002B01D0039B22E00A236B4440
:1004100019000120FFF798F903000393039B002BB9
:1004200001D0039B15E00A236B441B78002B03D0FB
:10043000019B02221A700BE00B236B441B78002BEC
:1004400003D0019B0B221A7002E0019B00221A705C
:100450000023180005B000BD00B583B00320FFF7EE
:100460001FFF03000193019B002B04D0019B062B6F
:1004700001D0019B00E00023180003B000BDC0467E
:1004800000B585B00190019B1B88102B02D0112B69
:100490001AD033E01B4B1B68002B0FD1FFF73EFF38
:1004A00003000393039B002B08D0174B1B68002B02
:1004B00004D0154B1B68039A10009847114B1B681A
:1004C0005A1C104B1A6019E00E4B1B685A1E0D4B3C
:1004D0001A600C4B1B68002B0FD1FFF753FF030072
:1004E0000393039B002B08D0074B1B68002B04D001
:1004F000054B1B68039A10009847C046C04605B0DC
:1005000000BDC046E0240020DC24002000B585B0FA
:1005100001900091002303930E4B019A1A60009BF7
:10052000002B0AD0009B1800FFF760FF0300039325
:10053000039B002B01D0039B08E0074B1B68002B9B
:1005400003D1FFF71FFF03000393039B180005B0BF
:1005500000BDC046DC240020E024002071DF70478D
:10056000C046180072DF7047C046180079DF704738
:10057000C04618007DDF7047C046180065DF704731
:10058000C046180082B0020000916B4606331A8004
:100590006B4606331B88DAB2009B1A70009B01334E
:1005A0006A4606321288120A92B2D2B21A70022336
:1005B000180002B07047C04686B0039002910192C5
:1005C0001A006B4602331A80019B1B8812331A00F3
:1005D0006B4602331B889A4201D90C2340E0019BF1
:1005E0001B881A00029B9B1811221A70019B1B8802
:1005F00001339AB2019B1A80019B1B881A00029B4F
:100600009B1810221A70019B1B8801339AB2019B20
:100610001A8017236B440F221A701BE0019B1B8862
:100620001A00029B9B1817226A44127852B203994F
:100630008A5C1A7017236B441B785BB2DBB2013BF8
:10064000DAB217236B441A70019B1B8801339AB2EC
:10065000019B1A8017236B441B787F2BDED9002364
:10066000180006B07047C04684B00291019219008C
:100670000F236B44021C1A7003AB0A1C1A80019BE7
:100680001B88DA1C03AB1B889A4201D90C2350E06B
:10069000019B1B881A00029B9B1802221A70019B67
:1006A0001B8801339AB2019B1A80019B1B881A0098
:1006B000029B9B181C221A70019B1B8801339AB263
:1006C000019B1A800F236B441B78022B10D002DC95
:1006D000012B05D024E0032B12D0042B18D01FE0EF
:1006E000019B1B881A00029B9B1800221A7019E0BC
:1006F000019B1B881A00029B9B1801221A7011E0B3
:10070000019B1B881A00029B9B1802221A7009E0A9
:10071000019B1B881A00029B9B1803221A7001E0A0
:10072000072306E0019B1B8801339AB2019B1A80C4
:100730000023180004B0704700B589B003900291FF
:100740006B4606331A80029B1B8809331A006B46DE
:1007500006331B889A4201D90C234FE005AB1800E1
:10076000FFF7FCFE03000793079B002B01D0079BBC
:1007700044E0029B1B881A00039B9B1808221A70F6
:10078000029B1B8801339AB2029B1A80029B1B8832
:100790001A00039B9B181B221A70029B1B880133B3
:1007A0009AB2029B1A80029B1B881A00039B98181E
:1007B00005AB013306221900FCF715F8029B1B88D4
:1007C00006339AB2029B1A8005AB1B78002B07D127
:1007D000029B1B881A00039B9B1800221A7006E0DC
:1007E000029B1B881A00039B9B1801221A70029B14
:1007F0001B8801339AB2029B1A800023180009B0AB
:1008000000BDC04600B589B00390029101921A0064
:100810006B4602331A80039B1B78012B05D1039B87
:100820005B78002B01D1072397E0019B1B889A1C62
:100830006B4602331B889A420FD8039B1B78012B0F
:100840000DD1019B1B881A00039B5B78D3189A1C5F
:100850006B4602331B889A4201D90C237DE0019B31
:100860001B886A4602321288D31A9AB207AB023A40
:100870001A8016236B4407AA12881A80019B1B88D2
:100880000233029AD31816226A4411001800FFF7A7
:1008900071FE03000693069B002B01D0069B5CE0D3
:1008A000039B1B78022B0BD116236B441B8807AAD2
:1008B00012889A4204D31F236B4409221A701AE04B
:1008C0001F236B4408221A70039B1B78012B0DD148
:1008D000039B5B789BB207AA12889A4206D3039BBC
:1008E0005B789AB216236B441A8004E016236B449B
:1008F00007AA12881A8016236B441B88FE2B01D985
:100900000C232AE0019B1B881A00029B9B181622CD
:100910006A441288D2B20132D2B21A70019B1B888B
:1009200001339AB2019B1A80019B1B881A00029B1B
:100930009B181F226A4412781A70019B1B8801338E
:100940009AB2019B1A80019B1A8816236B441B885C
:10095000D3189AB2019B1A800023180009B000BD79
:1009600000B587B0039002916B4606331A80029B54
:100970001B881A1D6B4606331B889A4201D90C232B
:100980003BE012236B441800FFF7F0FD03000593D2
:10099000059B002B01D0059B2FE0029B1B881A00B2
:1009A000039B9B1803221A70029B1B8801339AB287
:1009B000029B1A80029B1B881A00039B9B1819221A
:1009C0001A70029B1B8801339AB2029B1A80122371
:1009D0006B441A88029B1B881900039B5B18190043
:1009E0001000FFF7CFFD03001900029B1A888BB29D
:1009F000D3189AB2029B1A800023180007B000BDDA
:100A000084B00291019219000F236B44021C1A70EA
:100A100003AB0A1C1A80019B1B88DA1C03AB1B88E2
:100A20009A4201D90C2329E0019B1B881A00029BE2
:100A30009B1802221A70019B1B8801339AB2019BFA
:100A40001A80019B1B881A00029B9B1801221A70B6
:100A5000019B1B8801339AB2019B1A80019B1B8862
:100A60001A00029B9B180F226A4412781A70019B8D
:100A70001B8801339AB2019B1A800023180004B02E
:100A80007047C04684B00291019219000F236B4455
:100A9000021C1A7003AB0A1C1A80019B1B88DA1C0B
:100AA00003AB1B889A4201D90C2329E0019B1B88C8
:100AB0001A00029B9B1802221A70019B1B880133AB
:100AC0009AB2019B1A80019B1B881A00029B9B18FB
