:020000021000EC
:10C0000000000120E19C0200099D02000B9D02003E
:10C010000D9D02000F9D0200119D02000000000016
:10C02000000000000000000000000000139D02005E
:10C03000159D020000000000179D0200199D0200DE
:10C040001B9D02001B9D0200D5490200DD78020005
:10C050001B9D02001B9D0200B94102001B9D0200B6
:10C060001B9D02001B9D02001B9D02001B9D0200E8
:10C070001B9D02001B9D02001B9D02001B9D0200D8
:10C080001B9D0200F58802001B9D02001B9D020003
:10C09000358902001B9D0200319B02001B9D02009E
:10C0A0001B9D02001B9D02001B9D02001B9D0200A8
:10C0B0001B9D02001B9D020000000000000000000C
:10C0C0001B9D02001B9D02001B9D02001B9D020088
:10C0D0001B9D02001B9D02001B9D02000000000032
:10C0E0000000000000000000000000000000000050
:10C0F0000000000000000000000000000000000040
:10C10000000000000000000000000000000000002F
:10C11000000000000000000000000000000000001F
:10C4000010B5054C237833B9044B13B10448AFF38E
:10C4100000800123237010BDA8210020000000002F
:10C4200010C10200084B10B51BB108490848AFF312
:10C4300000800848036803B910BD074B002BFBD0F0
:10C44000BDE81040184700BF00000000AC210020EC
:10C4500010C10200A421002000000000154B002B99
:10C4600008BF134B9D46A3F5803A00218B460F462B
:10C470001348144A121A00F065F80F4B002B00D035
:10C4800098470E4B002B00D0984700200021040055
:10C490000D000D48002802D00C48AFF3008000F0DA
:10C4A0002BF82000290002F04FFC00F011F800BF2B
:10C4B0000000080000000120000000000000000053
:10C4C000A82100202C330020000000000000000004
:10C4D00008B5074B044613B10021AFF30080054BAC
:10C4E0001868836A03B19847204601F00BFF00BF2C
:10C4F0000000000044B2020070B50E4B0E4CE41A6E
:10C50000A41000251E46A54204D056F825309847B1
:10C510000135F8E70EF088FE084C094BE41AA41028
:10C5200000251E46A54204D056F82530984701350F
:10C53000F8E770BD9C2100209C210020A021002054
:10C540009C21002002440346934202D003F8011BC1
:10C55000FAE770472DE9F04788B0002B149F129935
:10C56000109DDDF84CA01E4627F02007BBBF03F14D
:10C5700000431E4600232D23462F14460B7003D084
:10C58000452F03D1013501E0032300E0022307AA70
:10C59000049206AA03928DE828042246334600F04E
:10C5A000E3FC472F804602D1119BDB0728D5462F9D
:10C5B00008EB050911D198F80030302B0AD1002280
:10C5C0000023204631460EF06BF918B9C5F101057C
:10C5D000CAF80050DAF800309944002200232046BF
:10C5E00031460EF05DF908B9302202E0CDF81C901A
:10C5F00006E0079B994503D9591C07911A70F8E783
:10C60000079B159AC8EB03034046136008B0BDE8CA
:10C61000F08773B503460029B8BF494203F8022BDF
:10C62000B4BF2D222B220929427019DD0DF107021A
:10C6300016460A2591FBF5F405FB14113031092C3F
:10C6400002F8011D2146F5DC3031541E02F8011CB0
:10C65000B4421A460AD214F8012B03F8012BF7E76B
:10C6600030241A46214402F8024B5970101A02B0C5
:10C6700070BD00002DE9F04F91B00C46DDF86880E8
:10C6800016461F46054601F00BFA03680993184643
:10C6900000F0D0FB00230E93D8F800300A90073347
:10C6A00023F0070303F1080294F81890D4F800B0BF
:10C6B000C8F80020D3E90023C4E91223D4F84CA021
:10C6C000D4F848802AF000430B934FF0FF32A74B79
:10C6D0000B9940460EF016F9A0B94FF0FF32A34B6C
:10C6E0000B9940460EF0F0F860B900220023404656
:10C6F00051460EF0DFF810B12D2384F843309C4BE7
:10C700009C4A0AE042465346404651460EF0FAF82B
:10C71000002800F09281984B984AB9F1470F8CBFDE
:10C7200090469846032323612BF0040323604FF0C7
:10C73000000A3DE0B9F1670F00F08A81B9F1470FB7
:10C7400000F08681236000210DF1330201936368BC
:10C75000059002920093424653460691CDF8109000
:10C76000CDF80CE02846FFF7F5FE09F0DF03472B74
:10C77000804600F08481B9F1650F0D9900F28D813A
:10C7800001394A4604F150000D91FFF742FF0E9A1D
:10C790008318012A8246236100F37C812268D10735
:10C7A00000F178819DF8333013B12D2384F84330A4
:10C7B000009733460FAA2146284600F09FF9013022
:10C7C00002D14FF0FF3096E123685A0501D4236966
:10C7D00065E0B9F1650F40F2D58000220023D4E96D
:10C7E00012010EF05DF878B30123654A3146284600
:10C7F000B8470130E5D00E9B0D9A9A420BDB2368B7
:10C80000D80708D423689B0740F111814FF0000836
:10C8100004F1190906E10A9B099A31462846B847EE
:10C820000130CED04FF0000804F11A090E9B013BF5
:10C830009845E7DA01234A4631462846B847013091
:10C84000BFD008F10108F1E70D9B002B29DC012383
:10C850004B4A31462846B8470130B2D00D9B23B928
:10C860000E9B13B92368D907CCD50A9B099A314688
:10C870002846B8470130A4D04FF0000904F11A0A45
:10C880000D9B5B42994509DA012352463146284601
:10C89000B847013095D009F10109F1E70E9B4246F6
:10C8A000A7E00E9AA36D9A42A8BF1A46002A9146A5
:10C8B00006DC4FF0000A29EAE97904F11A0B11E0CD
:10C8C0001346314642462846B8470130F1D178E751
:10C8D00001235A4631462846B84701303FF471AF2C
:10C8E0000AF1010AA36DC9EB03029245F0DB08EBE4
:10C8F00003090D9A0E9B9A420FDB2368DA070CD4CA
:10C900000E9B0D9A9844C9EB08089B1A9845A8BF3E
:10C910009846B8F1000F08DC0FE00A9B099A3146EF
:10C920002846B8470130EBD14BE743464A463146EB
:10C930002846B84701303FF444AF4FF0000928EAD9
:10C94000E87804F11A0A09E00123524631462846E4
:10C95000B84701303FF435AF09F101090D9A0E9B3C
:10C960009B1AC8EB03039945EEDB4BE7FFFFEF7F14
:10C9700048B202004CB2020050B2020054B20200AF
:10C9800058B202000E9A012A01DCDB0738D50123D8
:10C99000424631462846B84701303FF412AF0A9B61
:10C9A000099A31462846B84701303FF40AAF0022C1
:10C9B0000023D4E912010DF073FF20B14FF00008FD
:10C9C00004F11A090EE00E9B08F10102013B19E087
:10C9D00001234A4631462846B84701303FF4F1AEBC
:10C9E00008F101080E9B013B9845F1DB534604F129
:10C9F000500231462846B84701307FF403AFE0E6E5
:10CA00000123424631462846B8470130EED1D8E6E8
:10CA100001234A4631462846B84701303FF4D1AE9B
:10CA200008F10108E3680F9A9B1A9845F0DBE0686B
:10CA30000F9B9842B8BF18465DE06268531C0EA871
:10CA40004BF480630DF1340E7FF474AE062201E0E6
:10CA500012B90122626075E6002106910DF13301E1
:10CA60008DE80C00236005904246CDF81090CDF87B
:10CA70000CE0029153462846FFF76CFD80460D9B63
:10CA8000D81C02DB626893421DDDA9F102095FFA3E
:10CA900089F970E60133236184E6B9F1660F14D198
:10CAA0000029636807DD216113B92268D2071DD50B
:10CAB00001330B4419E013B92268D00701D50233C2
:10CAC00013E0012311E04FF067090D9B0E9A93428A
:10CAD00005DB22682361D10708D5013305E0002B6F
:10CAE000D4BFC3F102030123134423610D9BA3654B
:10CAF0004FF0000A56E611B0BDE8F08F2DE9F0477F
:10CB000091461F460A698B68DDF820809342B8BFC2
:10CB10001346C9F8003091F8432006460C4612B17E
:10CB20000133C9F800302368990642BFD9F80030B4
:10CB30000233C9F80030256815F0060510D104F15C
:10CB4000190A07E00123524639463046C0470130F2
:10CB50001AD00135E368D9F800209B1A9D42F1DB19
:10CB600094F843302268003318BF012392060FD592
:10CB7000E1185A1C302081F84300224494F84510F3
:10CB800082F84310023303E04FF0FF30BDE8F08736
:10CB900004F1430239463046C0470130F4D02268E0
:10CBA000D9F80050E36802F00602042A08BF5D1BB2
:10CBB0002269A3680CBF25EAE57500259342C4BF2E
:10CBC0009B1AED184FF000091A344D4509D0012386
:10CBD000224639463046C0470130D5D009F1010917
:10CBE000F3E70020BDE8F0872DE9F04317460A7E01
:10CBF00085B06E2A984606460C460C9B01F1430E02
:10CC000000F0AE8011D8632A22D009D8002A00F0A3
:10CC1000BB80582A40F0CA8081F84520834955E0FE
:10CC2000642A1ED0692A1CD0C0E0732A00F0B080AC
:10CC300009D86F2A2ED0702A40F0B8800A6842F0D6
:10CC400020020A603EE0752A24D0782A3AD0ADE06E
:10CC50001A6801F14205111D1960136884F8423009
:10CC6000A8E021681A6811F0800F02D0111D196028
:10CC700008E011F0400F02F10401196002D0B2F98E
:10CC8000003000E01368002B3CDA2D225B4284F870
:10CC9000432037E021681A6811F0800F02D0111D7F
:10CCA000196007E011F0400F02F10401196001D092
:10CCB000138800E01368227E5C496F2A14BF0A22A1
:10CCC00008221BE078225A4984F845202268186817
:10CCD00012F0800F00F104051D6003D1550601D547
:10CCE000038800E00368D00744BF42F020022260BE
:10CCF0001BB9226822F0200222601022002084F852
:10CD0000430001E049490A226568A560002D08DB5F
:10CD1000206820F0040020602BB9002D7DD17546DD
:10CD20000CE0002B79D07546B3FBF2F002FB103318
:10CD3000CB5C05F8013D03460028F5D1082A0BD14C
:10CD40002368DA0708D5236962689A42DEBF302378
:10CD500005F8013C05F1FF35C5EB0E0323612EE01C
:10CD600008681A68496910F0800F03D0101D186018
:10CD7000136808E010F0400F02F104001860136817
:10CD800001D0198000E0196000232361754616E088
:10CD90001A68111D1960156862680021284600F0A4
:10CDA0008FFE08B1401B6060636804E004F1420537
:10CDB00084F8422001232361002384F84330CDF816
:10CDC00000803B4603AA21463046FFF797FE01301C
:10CDD00002D14FF0FF3026E023692A46394630461B
:10CDE000C0470130F5D023689B0710D5002504F11A
:10CDF000190907E001234A4639463046C047013049
:10CE0000E7D00135E368039A9B1A9D42F2DBE068A4
:10CE1000039B9842B8BF184605E00B7884F842306F
:10CE200004F142058AE705B0BDE8F0835AB202007A
:10CE30006BB20200034613F8012B002AFBD1181A2B
:10CE4000013870472DE9F74F03690C699C42804611
:10CE500000F38380013C01F114074FEA840E00F1D6
:10CE6000140657F8245006EB0E030193013556F8CB
:10CE70002430B3FBF5F507EB0E09002D39D04FF048
:10CE8000000A3846B446D34650F8042B93B205FB4B
:10CE900003A34FEA134A9BB2C3EB0B03120CBCF87B
:10CEA00000B005FB02A213FA8BF34FEA124A1FFAF5
:10CEB00082FBDCF80020CBEB124202EB23429BB258
:10CEC00043EA024381454FEA224B4CF8043BDBD254
:10CED00056F80E306BB9019B043B9E421A4602D3B2
:10CEE000C8F8104005E01268043B002AF8D1013C64
:10CEF000F3E7404601F04DF800282CDB01353046C1
:10CF00004FF0000E57F8041BD0F800C08AB2C2EBF5
:10CF10000E03090C13FA8CF3C1EB1C4202EB234203
:10CF20009BB243EA0243B9454FEA224E40F8043B24
:10CF3000E8D256F8242006EB840362B9043B9E42F3
:10CF40001A4602D3C8F8104005E01268043B002AD4
:10CF5000F8D1013CF3E7284600E0002003B0BDE82B
:10CF6000F08F0000000000002DE9F04F456A95B0F9
:10CF70008246219CCDE9022345B9102000F094FDA2
:10CF8000CAF82400456085600560C560DAF8243081
:10CF9000196859B15A684A60012393408B60504622
:10CFA00000F01EFEDAF8243000221A60039BA04A2B
:10CFB000002BBFBF01232360039B23F00043B8BFB6
:10CFC0000393DDF80C80A4BF0023236028F0004306
:10CFD0001B0D1B0593421DD1209A42F20F73136063
:10CFE000029B43B9934A944BC8F31300002814BF23
:10CFF0001846104600E09048229B002B00F04A851E
:10D00000C37813B100F1080300E0C31C229A136037
:10D0100000F040BDDDE902450022002320462946FC
:10D020000DF03EFC074658B1209A01231360229B65
:10D03000002B00F0228581481860013800F02ABDDD
:10D0400012AB019313AB009322462B46504601F0DE
:10D050001BF8C8F30A56049056B1C5F3130343F006
:10D060007F51204641F44011A6F2FF3611971DE092
:10D07000139B129E1E4406F23243202B0ADD029AB5
:10D0800006F21240C3F1400322FA00F008FA03F35B
:10D09000184304E0C3F12000029B03FA00F00DF0F6
:10D0A00021F90123A1F1F871013E11930022644B93
:10D0B0000CF0DAFF58A3D3E900230DF089F958A347
:10D0C000D3E900230CF0D2FF044630460D460DF0A4
:10D0D00019F955A3D3E900230DF07AF902460B465E
:10D0E000204629460CF0C2FF04460D460DF020FCF8
:10D0F000002283460023204629460DF0DBFB58B171
:10D1000058460DF0FFF802460B46204629460DF022
:10D11000C7FB08B90BF1FF3BBBF1160F0DD849490E
:10D1200001EBCB01DDE90223D1E900010DF0E0FBC9
:10D1300030B10BF1FF3B002300E00123109300E02E
:10D140001090129B9E1B731E079343BFC3F10008F0
:10D15000002307934FF00008BBF1000F06DB079B8D
:10D16000CDF82CB05B440793002705E00023CBEB00
:10D170000808CBF100070B931E9B092B27D8052B22
:10D18000C4BF043B1E931E9BA3F10203CCBF00252A
:10D190000125032B20D8DFE803F0060E020401234B
:10D1A00002E0012308E000230A931F9B002B1DDDF2
:10D1B0009946059321E000230A931F9B0BEB03097B
:10D1C00009F10103012B0593B8BF012315E00125E7
:10D1D00000231E930A9501E001230A934FF0FF39C3
:10D1E0000022CDF8149012231F9206E04FF001099F
:10D1F000CDF814904B46CDF87C90DAF8244000220C
:10D200006260042101F114029A421DD86268013261
:10D2100062604900F6E700BF61436F63A787D23FB2
:10D22000B3C8608B288AC63FFB799F501344D33F15
:10D230000000F07F7CB2020085B2020059B2020009
:10D240000000F83F98B202006168504600F093FC7D
:10D25000DAF8243020601B680693059B0E2B00F241
:10D260005D81002D00F05A81DDE90234BBF1000F31
:10D27000CDE90E3431DDA04A0BF00F0302EBC303FE
:10D28000D3E900344FEA2B15E806CDE908340CD574
:10D290009A4BDDE90E01D3E908230DF0C3F905F03F
:10D2A0000F05CDE90201032400E00224934E6DB185
:10D2B000E90708D5DDE90801D6E900230DF088F873
:10D2C000CDE9080101346D100836F0E7DDE90823E7
:10D2D000DDE902010DF0A6F920E0CBF1000505B370
:10D2E000854B864E05F00F0203EBC203D3E9002302
:10D2F000DDE90E010DF06CF8CDE902012D110023DE
:10D30000022455B1EA0705D5D6E900230DF060F8EF
:10D31000013401236D100836F3E71BB1CDE902019A
:10D3200000E00224109BE3B1DDE902560022744BB9
:10D33000284631460DF0BEFA98B1059B8BB1B9F184
:10D34000000F40F3E7800BF1FF33089331460022D2
:10D350006C4B28460DF03CF80134CDE902014E46F5
:10D3600002E0059ECDF820B020460CF0CBFFDDE9B1
:10D3700002230DF02DF8644B00220CF077FEA1F192
:10D38000507304460C931D46D6B900225F4BDDE96D
:10D3900002010CF069FE22460C9BCDE902010DF062
:10D3A000A7FA002840F040820C99224601F1004380
:10D3B000DDE902010DF07EFA002840F02C82A9E0A0
:10D3C0000A9A4D4B711E002A49D003EBC103D3E9E1
:10D3D000002300204E490DF025F922462B460CF083
:10D3E00043FECDE90C01069CDDE902010DF0A0FA37
:10D3F00005460CF087FF02460B46DDE902010CF002
:10D4000033FE303504F8015BDDE90C23CDE9020180
:10D410000DF050FA002840F02083DDE902230020BF
:10D4200037490CF021FEDDE90C230DF043FA00280A
:10D4300040F0D280069BE31AB3426BDA0022314BF4
:10D44000DDE90C010CF0C4FF0022CDE90C012D4BED
:10D45000DDE902010CF0BCFFCDE90201C4E703EBFA
:10D46000C10122462B46D1E900010CF0B1FF069B19
:10D47000CDE90C019C191D46DDE902010DF058FAB9
:10D4800006460CF03FFF303602460B46DDE902014E
:10D490000CF0EAFD05F8016BAC42CDE902014FF05A
:10D4A000000223D11A4BDDE90C010CF0DFFD02462E
:10D4B0000B46DDE902010DF01BFA002840F08C80DC
:10D4C000DDE90C23002012490CF0CEFD02460B468C
:10D4D000DDE902010DF0EEF9E0B114F8013C302B6A
:10D4E00004F1FF3240F0B9821446F6E7054B0CF028
:10D4F0006FFFCDE90201BFE798B2020070B30200EE
:10D500000000F03F0000244000001C4000001440D8
:10D510000000E03FDDE90E34CDE90234139B002B1F
:10D520007DDBBBF10E0F7ADCAB4B03EBCB03D3E916
:10D5300000671F9B002B14DA059B002B11DC40F0C9
:10D540006C810022A54B304639460CF041FFDDE9E5
:10D5500002230DF0C3F9059D2E46002840F05F819F
:10D5600065E1DDE90289069C32463B464046494674
:10D570000DF058F80DF0DCF905460CF0C3FE32460C
:10D580003B460CF025FF0B460246494640460CF050
:10D590006BFD05F1300E069B04F801EBC3EB040EA6
:10D5A000059B73452ED102460B460CF05FFD80466D
:10D5B000894602460B46304639460DF07BF978B96C
:10D5C00042464B46304639460DF06AF9002800F0D5
:10D5D0004682EB0704D442E2DDF820B000E01C46AE
:10D5E00014F8012C392A04F1FF3307D1069A9A4224
:10D5F000F5D1069930220BF1010B0A701A7801322D
:10D600001A702CE20022764B0CF0E2FE002200237E
:10D61000804689460DF044F90028A5D01FE20A9AF9
:10D62000002A2BD01E9A012A0ADC119A12B103F2A9
:10D63000334302E0129BC3F136033D46444613E0F8
:10D64000059B5D1EAF42BFBF0B9BEA1B9B180B9354
:10D65000059BB6BF2F467D1B0025002BABBF059B4E
:10D66000C3EB080444460023079A01211A4450469C
:10D670009844079200F053FB064602E00A9E3D469E
:10D6800044465CB1079B002B08DDA342079AA8BF64
:10D690002346C3EB0808E41AD31A0793002F1DDDB5
:10D6A0000A9BABB18DB131462A46504600F0D2FB01
:10D6B000049A01460646504600F03AFB0499089049
:10D6C000504600F08DFA089B04937A1B06D000E0C8
:10D6D0003A460499504600F0BDFB049001215046A3
:10D6E00000F01DFB0B9B05465BB31A4601465046F6
:10D6F00000F0B0FB1E9B012B054618DC029B83B992
:10D70000039BC3F3130373B9039B23F000473F0D3F
:10D710003F054FB1079B013308F10108079301272B
:10D7200002E0002700E0029F0B9B73B100E000279E
:10D730002B6905EB8303186900F0A4FAC0F12000FF
:10D7400004E01E9B012BD9DD0B9F0120079B184491
:10D7500010F01F0008D0C0F12003042B02DDC0F13F
:10D760001C0002E006D018461C30079B034480448E
:10D7700004440793B8F1000F05DD42460499504672
:10D7800000F0B6FB0490079B002B05DD29461A46E6
:10D79000504600F0ADFB0546109B1BB3294604988C
:10D7A00000F0F7FB00281DDA00230A2204995046F6
:10D7B00000F02DFA0A9B04900BF1FF3B002B00F0C8
:10D7C0006081314600230A22504600F020FAB9F168
:10D7D000000F06463EDC3AE098B20200000014401A
:10D7E00000002440059B002B2BDC1E9B022B28DD18
:10D7F000DDF81490B9F1000F11D129464B460522EE
:10D80000504600F004FA01460546049800F0C1FBBA
:10D8100000280CDC03E0354600E000252E461F9B67
:10D82000069C6FEA030B09E0DDF820B03546069B45
:10D83000069A5C1C312313700BF1010B0596002630
:10D84000F9E00A9BDDF8149023B9069CB2E01E9B18
:10D85000022BCFDC002C05DD31462246504600F07D
:10D8600047FB06469FB17168504600F084F9326963
:10D8700002320446920006F10C010C3000F070F9FF
:10D8800001222146504600F033FB059000E005964A
:10D89000029B069F03F00103079329460498FFF7B4
:10D8A000D1FA3146044600F13008049800F071FBCB
:10D8B000059A02902946504600F087FBC36802464D
:10D8C0003BB901460A90049800F063FB0A9A0346AC
:10D8D00000E00123114650460A9300F081F90A9BAB
:10D8E00053B91E9A42B9079A32B9B8F1390F2AD002
:10D8F000029B002B1CDC1DE0029A002A04DB1BD1DA
:10D900001E9ACAB9079ABAB9002B13DD01220499ED
:10D91000504600F0EDFA2946049000F03AFB00284A
:10D9200003DC07D118F0010F04D0B8F1390F0AD089
:10D9300004F131087C1C0CE0002B07F101040BDD25
:10D94000B8F1390F03D139233B70013756E008F1A4
:10D95000010887F800806EE0069B04F8018CE31A4A
:10D960004B4527463BD000230A220499504600F03D
:10D970004EF9059B04909E424FF00A024FF00003BF
:10D980003146504604D100F042F90646059084E73E
:10D9900000F03DF9002306460A220599504600F0A2
:10D9A00036F9059079E700230A220499504600F0E1
:10D9B0002EF9049029460498FFF744FA00F1300844
:10D9C00004F8018B069BE31A4B45ECDB069B05969E
:10D9D000B9F1010FACBF4B4401331F4600260122B1
:10D9E0000499504600F084FA2946049000F0D1FAD8
:10D9F000002803DC16D118F0010F13D03C4614F8B0
:10DA0000013C392B04F1FF3209D1069B934204D12A
:10DA10000BF1010B3123069A02E01446EFE70133C4
:10DA2000137008E03C4614F8013C302B04F1FF323F
:10DA300001D11446F7E72946504600F0D1F8059B7E
:10DA40006BB12EB19E4203D03146504600F0C8F86B
:10DA50000599504600F0C4F801E0DDF820B00499C3
:10DA6000504600F0BDF80023209A23700BF101030B
:10DA70001360229B1BB11C6001E008480AE0069875
:10DA800008E0B9F1000F3FF7E0AE1E9B022B7FF7D5
:10DA9000DCAEAFE615B0BDE8F08F00BF58B20200B3
:10DAA00000487047E4200020024B0146186800F04F
:10DAB00095BB00BFE0200020000000000000000037
:10DAC00001F0FF01102A2BDB10F0070F08D010F82F
:10DAD000013B013A8B422DD010F0070F42B3F6D133
:10DAE000F0B441EA012141EA014122F007047FF04C
:10DAF00000070023F0E80256083C85EA010586EAA3
:10DB0000010685FA47F5A3FA87F586FA47F6A5FADE
:10DB100087F68EB9EED1F0BC01F0FF0102F00702EA
:10DB200032B110F8013B013A83EA010313B1F8D195
:10DB30000020704701387047002D06BF3546033876
:10DB4000073815F0010F07D1013015F4807F02BFAF
:10DB5000013015F4C03F0130F0BC0138704700BF00
:10DB600010B5431E0A44914204D011F8014B03F84A
:10DB7000014FF8E710BD70B5456A04460E463DB941
:10DB80001020FFF791FF6062456085600560C56009
:10DB9000656AEB6843B1636ADB6853F8260078B1C5
:10DBA000026843F8262017E021220421204600F0D5
:10DBB000B9FA636AE860DB68002BECD1002070BD25
:10DBC000012101FA06F56A1D9200204600F0AAFA2A
:10DBD0000028F3D04660856000230361C36070BDF8
:10DBE00070B5446A06460D463CB91020FFF75CFF4D
:10DBF0007062446084600460C4603DB1736A6A68A6
:10DC0000DB6853F82210296043F8225070BD2DE9DB
:10DC1000F0410D691F4606460C4601F1140E002323
:10DC2000DEF8000081B202FB01710F0C000C02FB58
:10DC3000007089B2013301EB00419D424FEA104769
:10DC40004EF8041BECDCD7B1A3689D4212DB61687F
:10DC500030460131FFF78FFF2269023204F10C01D7
:10DC6000804692000C30FFF77BFF21463046FFF7DD
:10DC7000B7FF444604EB850301355F61256120460B
:10DC8000BDE8F081030C1B0413B90004102300E06D
:10DC9000002310F07F4F04BF0002083310F0704FD4
:10DCA00004BF0001043310F0404F04BF8000023372
:10DCB000002803DB420003D5581C70471846704704
:10DCC00020207047036813F007020BD0D90722D435
:10DCD0009A074BBF5B089B08036003604CBF0120A1
:10DCE0000220704799B209B91B0C102213F0FF0FE4
:10DCF00004BF1B0A0832190704BF1B090432990725
:10DD000004BF9B080232D90702D45B0805D0013258
:10DD1000036010467047002070472020704710B500
:10DD20000C460121FFF727FF01224461026110BD6B
:10DD30002DE9F74F14460A6923699A42B8BF0B468A
:10DD40008846BCBFA0461C46D8F81070D4F8109086
:10DD5000D8F80830D8F8041007EB09069E42C8BF6F
:10DD60000131FFF708FF00F1140505EB860C2B4687
:10DD70000022634502D243F8042BFAE704F11402AF
:10DD800008F1140102EB890301EB87070093009B64
:10DD90000192934257D9B2F800B0BBF1000F23D0E3
:10DDA0008946AE464FF0000859F8044BBEF800A073
:10DDB000A3B20BFB03A34FEA144ADEF8004043442E
:10DDC0004FEA14480BFB0A8404EB1344F2469BB25F
:10DDD00043EA04434F454FEA14484AF8043B01D94B
:10DDE000D646E1E7CEF80480019BB3F802A00432E6
:10DDF000BAF1000F21D02B682C4689464FF000085D
:10DE0000B9F800E0B4F802B00AFB0EBEF044A34635
:10DE10009BB243EA08434BF8043B59F8043BB4F87F
:10DE200004E01B0C0AFB03E303EB18434F454FEAE6
:10DE3000134801D95C46E3E763600435A7E75CF863
:10DE4000043D13B9013E002EF9DC066103B0BDE8C4
:10DE5000F08F00002DE9F843154612F00302064644
:10DE60000F4607D0013A214C002354F82220FFF737
:10DE7000CEFE0746AD1036D0746A3CB91020FFF7CD
:10DE800013FE7062446084600460C460D6F824802D
:10DE9000D8F808404CB940F271213046FFF73FFFF7
:10DEA0000023C8F80800044603604FF00008EB07A1
:10DEB0000AD5394622463046FFF73AFF39468146B1
:10DEC0003046FFF78DFE4F466D100CD0206808B12C
:10DED0000446ECE7224621463046FFF729FF206042
:10DEE000C0F80080F4E73846BDE8F88360B302006C
:10DEF0002DE9F0470C464FEA621A26694968A36883
:10DF0000564407469146751CAB4202DA01315B006C
:10DF1000FAE73846FFF72FFE0023804600F1140190
:10DF20001A46534503DA41F823200133F9E72AEA78
:10DF3000EA73206901EB830319F01F0904F114014E
:10DF400001EB800E14D0C9F1200C0022086800FA01
:10DF500009F002439A4643F8042B51F8042B8E45EE
:10DF600022FA0CF2F2D8CAF8042042B1B51C06E03D
:10DF7000043B51F8042B43F8042F8E45F9D8013D9A
:10DF80003846C8F810502146FFF72AFE4046BDE843
:10DF9000F08703690A699B1A10B511D192001430F9
:10DFA000143183180A4453F8044D52F8041D8C426E
:10DFB00002D007D3012010BD9842F4D3002010BD39
:10DFC000184610BD4FF0FF3010BD2DE9F8430C4648
:10DFD0000746114620461546FFF7DBFF061E08D10F
:10DFE00031463846FFF7C7FD012303614661BDE8AE
:10DFF000F883BCBF23462C4638466168BABF1D462D
:10E0000001260026FFF7B7FD2B69C660266905F1DA
:10E010001409143404EB860709EB830800F1140596
:10E020004FF0000C54F8043B59F8042B1CFA83F110
:10E030001FFA82FE120CCEEB0101C2EB134303EB7D
:10E04000214389B24FEA234CC84541EA0343A6461F
:10E0500045F8043BE6D8BE450ED25EF8041B1CFA18
:10E0600081F2131403EB114392B242EA03424FEAE6
:10E07000234C45F8042BEEE755F8043D0BB9013E5F
:10E08000FAE70661BDE8F8832DE9F34101211C465A
:10E090009046089E099DFFF76EFDC4F31302C4F37A
:10E0A0000A5407460CB142F480120192B8F1000FF5
:10E0B00019D002A840F8088DFFF704FE009B48B174
:10E0C000019AC0F1200102FA01F10B43C2407B61C9
:10E0D000019200E07B61019BBB61002B14BF022118
:10E0E0000121396107E001A8FFF7ECFD019B7B618D
:10E0F00001213961203034B1A4F233440444346046
:10E10000C0F1350009E007EB8103A0F23240306036
:10E110001869FFF7B7FDC0EB41102860384602B020
:10E12000BDE8F08138B502FB01F4214600F056F855
:10E13000054618B122460021FEF704FA284638BDEC
:10E1400038B50546002946D051F8043C0C1F002B79
:10E15000B8BFE41800F0B0F81F4A1368114613B9AD
:10E160006360146032E0A3420ED92268A018834293
:10E1700004BF18685B68636004BF121822600C60FB
:10E1800024E0A24203D813465A68002AF9D118683D
:10E190001918A1420BD12168014458188242196014
:10E1A00014D1106852685A60014419600EE002D917
:10E1B0000C232B600AE021686018824204BF1068BB
:10E1C0005268626004BF091821605C602846BDE89F
:10E1D000384000F072B838BDC821002070B5CD1CA1
:10E1E00025F0030508350C2D38BF0C25002D0646FB
:10E1F00001DBA94202D90C23336046E000F05CF851
:10E20000234B1C681A462146A1B10B685B1B0ED438
:10E210000B2B03D90B60CC18CD501EE08C420DBFE8
:10E2200063684B686360136018BF0C4615E00C46CA
:10E230004968E9E7174C23681BB9304600F02CF811
:10E2400020602946304600F027F8431C18D0C41C33
:10E2500024F00304A0420DD12560304600F02DF8D3
:10E2600004F10B00231D20F00700C31A0ED05A4200
:10E27000E25070BD211A304600F00EF80130EBD1AB
:10E280000C233360304600F018F8002070BD00BF4A
:10E29000C8210020C421002038B5064C00230546C3
:10E2A0000846236000F00AF8431C02D1236803B13A
:10E2B0002B6038BD4C320020704770470D4B1A68F8
:10E2C00010B50AB90C4A1A601A68694610448842A7
:10E2D00006D80A490A4C0968A14208D0884206D9E2
:10E2E00000F024F80C2303604FF0FF3010BD1860DD
:10E2F000104610BDCC210020303300201C2100200E
:10E30000ADDEFECA4FF0FF3100F000B8062930B58F
:10E310000CBF044D044D182420462946ABBE0446CC
:10E32000204630BD2300020026000200014B186881
:10E33000704700BFE020002076DF704700BF18461E
:10E340007ADF704700BF18467CDF704700BF184671
:10E35000A9DF704700BF18463CDF704700BF184672
:10E3600048DF704700BF184680B588B002AFF8603C
:10E37000B9607A607B687B610C4900200BF0DEF9A4
:10E380007B699A687B691B889BB219467B695B68CD
:10E3900000930B46064900200BF0D0F905490020F8
:10E3A0000BF0CCF90C2001F0DDFEFEE700B402001A
:10E3B00008B402002CB4020080B58AB000AF7860C7
:10E3C00007F11403184608F07DF878627B6A3B6217
:10E3D0003B6A002B04D0324A9C21386A09F0CAFB00
:10E3E00007F11003184608F093F878627B6AFB6126
:10E3F000FB69002B04D02A4A9E21F86909F0BAFB78
:10E4000007F10C03184608F037F878627B6ABB61A5
:10E41000BB69002B04D0224AA021B86909F0AAFBED
:10E420007A69204B1B689A420DD07B69184608F028
:10E4300045F902461C4B1A601B491C4801F046F87E
:10E440007B69184A13603A69194B1B689A420DD0D0
:10E450003B69184608F00CFA0246164B1A6015493B
:10E46000124801F071F83B69114A1360FA68124BC7
:10E470001B689A420DD0FB68184608F05BF902460B
:10E480000E4B1A600D49094801F09CF8FB680A4AD6
:10E4900013600B4B01221A7000BF2837BD4680BDA8
:10E4A00034B402001822002028210020503200201D
:10E4B0001C2200202C2100202022002030210020BE
:10E4C0001422002080B582B000AF7860064B1B7824
:10E4D0005A1CD1B2044A11701946044808F026FBB0
:10E4E00000BF0837BD4680BD242200206C320020CA
:10E4F00080B586B000AF0023194A052100200AF03C
:10E500001FFA78617B693B613B69002B04D0154A97
:10E51000CB21386909F02EFB134A012113480AF078
:10E520008BFAF860FB68BB60BB68002B04D00D4A17
:10E53000CF21B86809F01EFB0D4A01210D480AF0F1
:10E540007BFAF860FB687B607B68002B04D0054A8F
:10E55000D221786809F00EFB00BF1837BD4680BD98
:10E560002822002034B40200B9E30100F8B302000D
:10E57000C5E40100FCB3020080B586B000AF3B7873
:10E58000012262F303033B703B78012262F307131D
:10E590003B701B48FEF74EFC03469AB23B461849B7
:10E5A0001846FFF7D1FE78617B693B613B69002B20
:10E5B00004D0144AE621386909F0DCFA3B1D082230
:10E5C00000211846FDF7BEFF1023BB802823FB80E7
:10E5D00000233B814FF4C8737B813B1D1846FFF736
:10E5E000AFFE78617B69FB60FB68002B04D0054AB5
:10E5F000F421F86809F0BEFA00BF1837BD4680BDA7
:10E6000068B4020034B4020080B500AF034800F0E3
:10E610000FFF034808F060FA00BF80BD50320020B1
:10E620006C32002080B584B000AF78607B681B78C6
:10E63000002B11D10A4B1B883B211846FFF77CFEAB
:10E64000F860FB68BB60BB68002B05D0054A40F250
:10E650001311B86809F08EFA00BF1037BD4680BDAF
:10E660002021002034B4020080B582B000AF786071
:10E67000044A4FF48F71786809F07CFA00BF0837BC
:10E68000BD4680BD34B4020080B58AB000AF3B1DEA
:10E690001C2200211846FDF755FF00237B604FF434
:10E6A0002033BB604FF47023FB6003233B740023D3
:10E6B0007B8200233B750C4BBB610C4BFB613B1D0C
:10E6C000184603F029FB78627B6A3B623B6A002BA9
:10E6D00005D0074A40F23511386A09F04BFA00BFFD
:10E6E0002837BD4680BD00BF25E6010069E6010070
:10E6F00034B4020080B584B000AF154B00224FF453
:10E70000803118460AF0E4F9F860FB68BB60BB682A
:10E71000002B05D00F4A4FF4A071B86809F02AFA0F
:10E720000D4B00224FF4803118460AF0D1F9F86001
:10E73000FB687B607B68002B05D0064A40F24311E2
:10E74000786809F017FA00BF1037BD4680BD00BFDA
:10E75000D421002034B40200F421002080B584B01C
:10E7600000AF002001F0FEFCF860FB68BB60BB68F6
:10E77000002B05D0124A4FF4A771B86809F0FAF9D6
:10E7800001F0B4FEF860FB687B607B68002B05D06D
:10E790000B4A4FF4A971786809F0ECF9FFF7DCFD3A
:10E7A000F860FB683B603B68002B05D0044A4FF4DF
:10E7B000AB71386809F0DEF900BF1037BD4680BD87
:10E7C00034B4020080B584B000AF0346FB71FB791E
:10E7D000002B12D0032B00D013E0022001F0C2FC6A
:10E7E000F860FB68BB60BB68002B09D0074A4FF498
:10E7F000B471B86809F0BEF902E0FFF7AFFF00E0BE
:10E8000000BF00BF1037BD4680BD00BF34B402005A
:10E8100080B586B000AF7860786800F0F9FF7B685B
:10E820001B88112B2BD0522B2ED0102B00D042E066
:10E83000072001F097FC78617B693B613B69002B05
:10E8400005D01F4A40F28111386909F093F97B68BD
:10E850009A881C4B1A801B4B188800230022002129
:10E86000FFF776FD78617B69FB60FB68002B1FD0AA
:10E87000134A4FF4C271F86809F07CF918E0114BA3
:10E880004FF6FF721A8016E00E4B18880023002204
:10E890000021FFF75DFD78617B69BB60BB68002BE1
:10E8A00008D0074A40F28D11B86809F063F901E019
:10E8B00000BF00E000BF00BF1837BD4680BD00BFED
:10E8C00034B402002021002080B582B000AF78600F
:10E8D000786804F075FB786803F054FB786801F001
:10E8E00019FE7868FFF794FF786803F049F87968B3
:10E8F000054800F083FB7968044808F027F800BF5A
:10E900000837BD4680BD00BF503200206C32002069
:10E9100080B582B000AF7860786806F04BFE78680A
:10E9200003F0D2F800BF0837BD4680BD80B590B077
:10E9300000AF364A07F118031068186007F1180095
:10E940000023482232490BF089F8F863FB6BBB6364
:10E95000BB6B002B05D02F4A4FF4E271B86B09F066
:10E9600009F93B1D1A46012100200BF003F97863D9
:10E970007B6B3B633B6B002B05D0264A4FF4E57164
:10E98000386B09F0F7F8244BFB62F86A0BF03AF9A0
:10E9900078637B6BBB62BB6A002B05D01D4A40F2DB
:10E9A000CD11B86A09F0E6F83B1D18460BF054F992
:10E9B00078637B6B7B627B6A002B05D0154A40F243
:10E9C000D111786A09F0D6F814480BF089F8786309
:10E9D0007B6B3B623B6A002B05D00E4A40F2D5119F
:10E9E000386A09F0C7F80E480BF08EF878637B6B35
:10E9F000FB61FB69002B05D0064A40F2D911F8698A
:10EA000009F0B8F800BF4037BD4680BD6CB40200C5
:10EA1000F023002034B40200E81F0020C9E8010000
:10EA200011E9010080B586B000AF0346FB71FB79A8
:10EA3000072B1DD00A2B02D0042B03D02DE0FFF7AB
:10EA40008DFE2AE0174B1B8813211846FFF774FC34
:10EA500078617B69082B1DD07B693B613B69002B8A
:10EA600018D0114A4FF4F771386909F083F811E0B2
:10EA700003F05AF878617B69082B0DD07B69FB6045
:10EA8000FB68002B08D0084A4FF4FB71F86809F0C6
:10EA900071F801E000BF00E000BF00BF1837BD46BD
:10EAA00080BD00BF2021002034B4020080B586B0B4
:10EAB00000AFF860B9607A607B687B617B69002B8E
:10EAC00005D0054A4FF40271786909F053F8002324
:10EAD00018461837BD4680BD34B4020080B58AB0F0
:10EAE00000AF0346FB71FB793B7506F0C5FE78620B
:10EAF0007B6A3B623B6A002B05D02B4A40F2222105
:10EB0000386A09F037F807F11403184604F0FEF8E4
:10EB100078627B6AFB61FB69002B05D0224A40F2D8
:10EB20002521F86909F026F807F1080305330522C5
:10EB300000211846FDF706FD7B7B43F001037B7344
:10EB40007B7B6FF341037B737B7B6FF382037B7370
:10EB50007B7B6FF3C3037B737B7B032262F3061320
:10EB60007B737B7B6FF3C7137B730723BB7310230C
:10EB7000FB730E4BBB6001233B7307F1080319467F
:10EB80000B4804F05FF978627B6ABB61BB69002BBC
:10EB900005D0054A40F23521B86908F0EBFF00BF07
:10EBA0002837BD4680BD00BF34B40200ADEA010085
:10EBB000D021002080B59CB002AF07F12803382295
:10EBC00000211846FDF7BEFC022387F828300123F8
:10EBD00087F82A30062387F82B3001233B87144B14
:10EBE000FB633B1D242200211846FDF7ABFC0123EB
:10EBF0003B744FF4AF737B610023BB613A1D07F197
:10EC00002800002300930B4B002102F003FC7866E0
:10EC10007B6E3B663B6E002B05D0074A40F24F21CE
:10EC2000386E08F0A7FF00BF6837BD4680BD00BF43
:10EC300024210020C5E7010034B4020080B586B06D
:10EC400000AF7860174A40F6CD41032001F0A4FAE6
:10EC500078617B693B613B69002B05D0124A40F229
:10EC60005E21386908F086FF07F10B031946002082
:10EC700001F094FC78617B69FB60FB68002B05D098
:10EC8000094A40F26121F86808F074FFFB7A022B10
:10EC90000CBF01230023DAB27B681A7000BF18375B
:10ECA000BD4680BD25EA010034B4020080B582B0C3
:10ECB00000AFFFF755FB78607B683B603B68002B3B
:10ECC00005D0054A4FF41B71386808F053FF00BFA8
:10ECD0000837BD4680BD00BF34B4020080B582B0A5
:10ECE00000AF78603960786807F09CFA00BF083799
:10ECF000BD4680BD90B587B000AF0F4B3C460FCBF3
:10ED000084E80F00394600230C4A0D4808F0C8F982
:10ED100078617B693B613B69002B05D0094A4FF460
:10ED20002271386908F026FF054808F033FA00BF61
:10ED30001C37BD4690BD00BF70B40200DDEC010081
:10ED40003421002034B402002DE9B0439EB004AF5A
:10ED500007F14F031846FFF771FF514A5149002050
:10ED60000AF0ECFCFFF7C6FF4F4807F03DFB786662
:10ED70007B6E3B663B6E002B05D04C4A4FF42771EF
:10ED8000386E08F0F7FE032301220121012007F06D
:10ED90003BFB78667B6EFB65FB6D002B05D0434A21
:10EDA00040F29F21F86D08F0E5FE07F0CFFB786692
:10EDB0007B6EBB65BB6D002B05D03C4A40F2A221A7
:10EDC000B86D08F0D7FEFFF793FBFFF7AFFD97F89C
:10EDD0004F301846FFF782FEFFF7CEFBFFF7EAFE43
:10EDE000FFF712FCFFF750FCFFF784FC032002F052
:10EDF0003FFC78657B6D3B653B6D002B05D02B4A56
:10EE000040F2B221386D08F0B5FE294B1B78DBB219
:10EE1000002B42D0274B1B6818460BF087FE034699
:10EE2000254918460BF08EFF034618460BF07CFA76
:10EE300080468946214B1B6818460BF077FE034637
:10EE40004FF0894118460BF07DFF034618460BF042
:10EE50006BFA04460D461A4B1B6818460BF066FE0B
:10EE60000346154918460BF06DFF034618460BF094
:10EE70005BFA02460B46381DCDE90223CDE9004579
:10EE800042464B460F490CF009F83B1D194600203D
:10EE90000AF054FC064B00221A70FFF707FFB4E794
:10EEA00080B402008CB402003421002034B402008B
:10EEB00014220020282100200000C8422C2100201C
:10EEC00030210020A0B40200A0DF704700BF184628
:10EED000A2DF704700BF1846A5DF704700BF184685
:10EEE000A6DF704700BF184663DF704700BF1846B3
:10EEF00080B58AB000AF7860396002233B8200237E
:10EF00007B8207F10E037B613B68DA887B681B8993
:10EF10009A421ED17B6818887B681B8907F1100212
:10EF20001946FFF7D9FF78627B6A3B623B6A002B88
:10EF300004D02E4A2721386A08F01CFEFB89012BD9
:10EF400003D12B4B01221A704CE0294B00221A707E
:10EF500048E03B68DA887B681B8A9A421ED17B684E
:10EF600018887B681B8A07F110021946FFF7B4FF67
:10EF700078627B6AFB61FB69002B04D01B4A342159
:10EF8000F86908F0F7FDFB89012B03D1194B012229
:10EF90001A7027E0174B00221A7023E03B68DA88CA
:10EFA0007B681B8B9A421DD17B6818887B681B8B02
:10EFB00007F110021946FFF78FFF78627B6ABB6189
:10EFC000BB69002B04D0094A4121B86908F0D2FD81
:10EFD000FB89012B03D1084B01221A7002E0064B7A
:10EFE00000221A7000BF2837BD4680BDC8B4020099
:10EFF00078320020793200207A32002080B582B049
:10F0000000AF786039603B681B88112B09D0502B0A
:10F010000CD0102B00D00EE03B689A887B681A80D9
:10F0200009E07B684FF6FF721A8004E0396878685F
:10F03000FFF75EFF00BF00BF0837BD4680BD00BFC1
:10F0400080B594B000AF78600023FB64012387F89B
:10F0500046304EF25E53A7F8443007F128031C22D5
:10F0600000211846FDF76EFA97F8283043F00203A6
:10F0700087F8283007F12403032200211846FDF702
:10F0800061FA97F82430012262F3030387F82430F1
:10F0900097F82430012262F3071387F8243097F899
:10F0A0002530012262F3030387F8253097F82530D5
:10F0B000012262F3071387F8253097F826300122E2
:10F0C00062F3420387F8263007F12403FB6397F8C5
:10F0D000283043F0100387F8283007F1200303227B
:10F0E00000211846FDF72EFA97F82230012262F32C
:10F0F000420387F8223097F82030012262F303039D
:10F1000087F8203097F82030012262F3071387F840
:10F11000203097F821306FF3030387F8213097F8F8
:10F1200021306FF3071387F8213007F10C03142205
:10F1300000211846FDF706FA07F14403FB6007F1CA
:10F1400020033B6104233B830423BB820023BB6079
:10F1500007F10803FB617B6858887B68143307F16B
:10F160000C0207F12801FFF7B3FEF864FB6CBB64E7
:10F17000BB6C002B04D0054A8D21B86C08F0FAFC5A
:10F18000002318465037BD4680BD00BFC8B40200FA
:10F1900080B594B000AF78600023FB64012387F84A
:10F1A000463040F2D113A7F8443007F128031C225F
:10F1B00000211846FDF7C6F997F8283043F00203FE
:10F1C00087F8283007F12403032200211846FDF7B1
:10F1D000B9F997F82430012262F3030387F8243049
:10F1E00097F82430012262F3071387F8243097F848
:10F1F0002530012262F3030387F8253097F8253084
:10F20000012262F3071387F8253097F82630012290
:10F2100062F3420387F8263007F12403FB6397F873
:10F22000283043F0100387F8283007F12003032229
:10F2300000211846FDF786F997F82230012262F383
:10F24000420387F8223097F82030012262F303034B
:10F2500087F8203097F82030012262F3071387F8EF
:10F26000203097F821306FF3030387F8213097F8A7
:10F2700021306FF3071387F8213007F10C031422B4
:10F2800000211846FDF75EF907F14403FB6007F122
:10F2900020033B6104233B830423BB820023BB6028
:10F2A00007F10803FB617B6858887B680C3307F122
:10F2B0000C0207F12801FFF70BFEF864FB6CBB643E
:10F2C000BB6C002B04D0054AC121B86C08F052FC7D
:10F2D000002318465037BD4680BD00BFC8B40200A9
:10F2E00080B594B000AF78600023FB64012387F8F9
:10F2F00046304EF6AE63A7F8443007F128031C22CF
:10F3000000211846FDF71EF997F8283043F0020354
:10F3100087F8283007F12403032200211846FDF75F
:10F3200011F997F82430012262F3030387F824309F
:10F3300097F82430012262F3071387F8243097F8F6
:10F340002530012262F3030387F8253097F8253032
:10F35000012262F3071387F8253097F8263001223F
:10F3600062F3420387F8263007F12403FB6397F822
:10F37000283043F0100387F8283007F120030322D8
:10F3800000211846FDF7DEF897F82230012262F3DB
:10F39000420387F8223097F82030012262F30303FA
:10F3A00087F8203097F82030012262F3071387F89E
:10F3B000203097F821306FF3030387F8213097F856
:10F3C00021306FF3071387F8213007F10C03142263
:10F3D00000211846FDF7B6F807F14403FB6007F17A
:10F3E00020033B6104233B830423BB820023BB60D7
:10F3F00007F10803FB617B6858887B68043307F1D9
:10F400000C0207F12801FFF763FDF864FB6CBB6495
:10F41000BB6C002B04D0054AF521B86C08F0AAFBA0
:10F42000002318465037BD4680BD00BFC8B4020057
:10F4300090B58BB000AF7860224B07F108041868D4
:10F4400059689A68DB680FC44FF20D033B8307F1DC
:10F4500018039A1C07F1080311461846FFF744FDEC
:10F4600078627B6A3B623B6A002B05D0164A4FF4F8
:10F470008471386A08F07EFB7B684FF6FF721A8051
:10F480007B689A1C07F1180319460120FFF71CFD41
:10F4900078627B6AFB61FB69002B05D00A4A4FF456
:10F4A0008871F86908F066FB7868FFF719FF7868DB
:10F4B000FFF76EFE7868FFF7C3FD00BF2C37BD462F
:10F4C00090BD00BF04B50200C8B4020080B588B08A
:10F4D00000AF786039607B681B884FF6FF729342FB
:10F4E0002AD0174B1B78DBB2002B25D004237B835B
:10F4F00007F10803102200211846FDF723F87B6866
:10F500009B883B810123BB720023BB8107F11A0357
:10F510003B613B687B617B681B8807F108021146F1
:10F520001846FFF7DDFCF861FB69002B04D0FA698F
:10F53000044900200AF002F900BF2037BD4680BD13
:10F540007832002014B5020080B588B000AF786032
:10F5500039607B681B884FF6FF7293422AD0174BA5
:10F560001B78DBB2002B25D004237B8307F1080333
:10F57000102200211846FCF7E5FF7B689B893B8140
:10F580000123BB720023BB8107F11A033B613B6877
:10F590007B617B681B8807F1080211461846FFF75C
:10F5A0009FFCF861FB69002B04D0FA690449002034
:10F5B0000AF0C4F800BF2037BD4680BD7932002074
:10F5C0002CB5020080B588B000AF786039607B68E8
:10F5D0001B884FF6FF7293422AD0174B1B78DBB281
:10F5E000002B25D004237B8307F108031022002180
:10F5F0001846FCF7A7FF7B689B8A3B810123BB72FF
:10F600000023BB8107F11A033B613B687B617B6888
:10F610001B8807F1080211461846FFF761FCF861E4
:10F62000FB69002B04D0FA69044900200AF086F82F
:10F6300000BF2037BD4680BD7A32002044B50200AD
:10F6400090B583B000AF78607B681B88103B3F4A61
:10F6500052F823301A463E4900200AF06FF87B68C2
:10F660009B881A463B4900200AF068F87B681B8893
:10F67000112B5AD0122B2DD0102B00D061E07B68BB
:10F680001B8B18460AF03EFE4FF00002324B0AF088
:10F690009FFE03460C46184621460BF071F90346BF
:10F6A0009BB21A462D4900200AF048F87B68DB8B94
:10F6B0001A4613469B0013445B001A462849002053
:10F6C0000AF03CF87B689B8B1A46264900200AF01A
:10F6D00035F836E07B681B8918460AF013FE4FF0B8
:10F6E00000021D4B0AF074FE03460C4618462146E4
:10F6F0000BF046F903469BB21A46184900200AF05F
:10F700001DF87B68DB891A4613469B0013445B0097
:10F710001A46134900200AF011F87B689B891A46A3
:10F72000104900200AF00AF80BE07B681B7A123BB4
:10F730000D4A52F823301A460C49002009F0FEFF0A
:10F7400000BF00BF0C37BD4690BD00BF3C2100206C
:10F750008CBC02009CBC02000000F43FB4BC020060
:10F76000CCBC0200E4BC020080210020F8BC0200F6
:10F77000B0B58AB002AF78607B689B88FB837B68FA
:10F7800007F108041D1D0FCD0FC42B6823807B6873
:10F790001B88BB83BB8B512B04D0522B24D0502B06
:10F7A00013D029E0BB7A012B07D1BB891A46FB890C
:10F7B0001349002009F0C2FF1EE0BB891A46FB89ED
:10F7C0001049002009F0BAFF16E07B68DB881A4672
:10F7D0007B681B8919467B68123300930B460A49E4
:10F7E000002009F0ABFF07E07B689B791A460749C8
:10F7F000002009F0A3FF00BF00BF2037BD46B0BD09
:10F8000000BD020024BD020048BD020078BD020018
:10F8100080B584B000AF78607B681B88FB60FA68B5
:10F820002249002009F08AFFFB680F2B06D9FB68EC
:10F830002F2B03D87868FFF703FF32E0FB684F2BCC
:10F8400006D9FB686F2B03D87868FFF791FF28E093
:10F85000FB682F2B0ED9FB684F2B0BD87B681B88BE
:10F86000303B134A52F823301A461249002009F05F
:10F8700065FF16E0FB68002B0ED0FB680F2B0BD842
:10F880007B681B88013B0C4A52F823301A460B490F
:10F89000002009F053FF04E0FA680949002009F04C
:10F8A0004DFF00BF1037BD4680BD00BF88BD0200C0
:10F8B0007821002098BD02007C210020A4BD020018
:10F8C000B0BD020080B485B000AF786039607B685D
:10F8D000032B17D84FF0A043D3F81035DB43FB6060
:10F8E0000D4A7B6852F82330012202FA03F31A46CC
:10F8F000FB681340002B14BF01230023DAB23B68DE
:10F900001A7002E03B6800221A7000231846143770
:10F91000BD4680BC704700BFD4BD020080B586B034
:10F9200000AF03460A46FB711346BB710023FB750B
:10F9300000233B6102E03B6901333B613B69032BE0
:10F9400006D83D4A3B6952F82320FB799A42F2D10E
:10F950003B69032B60D8BB79012B04D0022B50D01C
:10F96000002B32D058E035493A6913465B00134406
:10F970000B441B78FB7531493A6913465B0013440D
:10F980000B4401331B78002B11D02D482D4B1A68E6
:10F9900013469B0013445B002B4A194609F098F864
:10F9A000F860FB68002B02D1274AFB7913702349CA
:10F9B0003A6913465B0013440B4402331978234A17
:10F9C0003B6913440A461A7026E01D4B184609F09D
:10F9D000B5F81E4A3B691344197818483A6913462A
:10F9E0005B001344034402331B78994213D113493B
:10F9F0003A6913465B0013440B4402331B78FB75D2
:10FA000009E00E493A6913465B0013440B44013385
:10FA10001B78FB7500E000BFFB7D002B08D00C4B72
:10FA20001B68002B04D00A4B1B68FA7D10469847D0
:10FA300000BF1837BD4680BDD4BD02008C24002015
:10FA4000982400203C240020B8240020BC2400205E
:10FA50008824002080B582B000AF78607B681B7876
:10FA600002211846FFF75AFF00BF0837BD4680BD88
:10FA700080B588B000AF0346FB710023FB61002313
:10FA8000BB61FB79172B00F2248301A252F823F00B
:10FA9000F1FA010015FB010015FB0100BBFB0100A1
:10FAA00061FC0100F1FC010095FD010021FE010057
:10FAB0005BFE010095FE0100D5FE01000FFF010075
:10FAC0004FFF01006DFF01006DFF01006DFF0100A0
:10FAD0006DFF01006DFF0100FBFF01001900020036
:10FAE0004D00020081000200B5000200B5000200D6
:10FAF0004FF0A042C54B1B68DB4303F4F013C2F880
:10FB000008354FF0A0430022C3F80C25C04AFB790A
:10FB10001370DFE24FF0A042BC4B1B68DB4303F4E1
:10FB2000E013C2F808354FF0A0430022C3F80C25BB
:10FB30004FF0A043D3F8043583F4F01303F40033FB
:10FB4000002B14D04FF0A0434FF40032C3F8082527
:10FB50004FF0A0430022C3F80C25FB79022B02D101
:10FB60004FF4E16301E04FF47A63BB6112E04FF0C0
:10FB7000A0434FF40032C3F80C254FF0A0430022FD
:10FB8000C3F80825FB79022B01D1C82301E04FF40B
:10FB9000C873BB619E4AFB7913709E48BB699E4A3D
:10FBA000A2FB03235B099D4A126802FB03F30022B8
:10FBB000194608F08DFFF8618CE24FF0A042934B9C
:10FBC0001B68DB4303F4E013C2F808354FF0A04391
:10FBD0000022C3F80C254FF0A043D3F8043583F47A
:10FBE000F01303F40033002B14D04FF0A0434FF474
:10FBF0000032C3F808254FF0A0430022C3F80C25BB
:10FC0000FB79032B02D14FF4487301E04FF47A6380
:10FC1000BB6112E04FF0A0434FF40032C3F80C2553
:10FC20004FF0A0430022C3F80825FB79032B01D134
:10FC3000C82301E04FF4C873BB61754AFB791370A8
:10FC40007448BB69744AA2FB03235B09734A1268B8
:10FC500002FB03F30022194608F03AFFF86139E28B
:10FC60004FF0A042694B1B68DB4303F4E013C2F87A
:10FC700008354FF0A0430022C3F80C254FF0A043F5
:10FC8000D3F8043583F4F01303F40033002B0ED0C3
:10FC90004FF0A0434FF40032C3F808254FF0A043C3
:10FCA0000022C3F80C254FF47A63BB610DE04FF0DE
:10FCB000A0434FF40032C3F80C254FF0A0430022BC
:10FCC000C3F808254FF4C873BB61514AFB79137020
:10FCD0005048BB69504AA2FB03235B094F4A126894
:10FCE00002FB03F30022194608F0F2FEF861F1E18D
:10FCF0004FF0A042454B1B68DB4303F4E013C2F80E
:10FD000008354FF0A0430022C3F80C254FF0A04364
:10FD1000D3F8043583F4F01303F40033002B13D02D
:10FD20004FF0A0434FF40032C3F808254FF0A04332
:10FD30000022C3F80C25FB79052B01D1C82301E073
:10FD40004FF47A63BB6112E04FF0A0434FF40032EE
:10FD5000C3F80C254FF0A0430022C3F80825FB7917
:10FD6000052B01D1C82301E04FF4C873BB61284AB9
:10FD7000FB7913702748BB69274AA2FB03235B0961
:10FD8000264A126802FB03F30022194608F0A0FE7F
:10FD9000F8619FE14FF0A0421C4B1B68DB4303F46A
:10FDA000E013C2F808354FF0A0430022C3F80C2539
:10FDB0004FF0A043D3F8043583F4F01303F4003379
:10FDC000002B0BD04FF0A0434FF40032C3F80825AE
:10FDD0004FF0A0430022C3F80C250AE04FF0A043E7
:10FDE0004FF40032C3F80C254FF0A0430022C3F8B3
:10FDF0000825074AFB7913700648084B1B68002248
:10FE0000194608F065FEF86164E100BF4424002053
:10FE100038240020482400201F85EB513C2400207A
:10FE20004FF0A042AE4B1B68DB4303F4E013C2F873
:10FE300008354FF0A0430022C3F80C254FF0A04333
:10FE40004FF40032C3F80C254FF0A0430022C3F852
:10FE50000825A44AFB7913703CE14FF0A043D3F886
:10FE600004357B614FF0A0427B69DB4303F48023C0
:10FE7000C2F808354FF0A0427B6903F48023C2F832
:10FE80000C359948994B1B680022194608F020FE52
:10FE9000F8611FE14FF0A043D3F804353B614FF008
:10FEA000A0423B69DB4303F48023C2F808354FF0DE
:10FEB000A0423B6903F48023C2F80C358A488B4B7F
:10FEC0001A6813469B0013440022194608F000FEEE
:10FED000F861FFE04FF0A043D3F80435FB604FF02A
:10FEE000A042FB68DB4303F48023C2F808354FF0DF
:10FEF000A042FB6803F48023C2F80C357A487B4BA0
:10FF00001B680022194608F0E3FDF861E2E04FF0BB
:10FF1000A043D3F80435BB604FF0A042BB68DB437D
:10FF200003F48023C2F808354FF0A042BB6803F405
:10FF30008023C2F80C356C486C4B1A6813469B0042
:10FF400013440022194608F0C3FDF861C2E04FF0E7
:10FF5000A0434FF4F012C3F80C254FF0A043002249
:10FF6000C3F808255F4AFB791370B3E0604B18466D
:10FF700008F0E4FDF861FB79C3F11103BB61BB69D3
:10FF8000002B29D0FB69002B26D1554B4FF40022C2
:10FF90001A60BB69012B11D95548BB69C82202FB05
:10FFA00003F3544AA2FB03235B09504A126802FB85
:10FFB00003F30022194608F08BFDF8614FF0A042D0
:10FFC000474B1B6803F4F013C2F80C354FF0A04305
:10FFD0000022C3F808257DE04FF0A042404B1B688B
:10FFE00003F4F013C2F808354FF0A0430022C3F821
:10FFF0000C253B4B00221A606CE04FF0A0434FF4FD
:020000022000DC
:10000000F012C3F808254FF0A0430022C3F80C25D6
:10001000344AFB7913705DE04FF0A0434FF4E012D7
:10002000C3F808254FF0A0430022C3F80C254FF079
:10003000A0434FF40032C3F80C254FF0A043002238
:10004000C3F80825274AFB79137043E04FF0A0431B
:100050004FF4D012C3F808254FF0A0430022C3F894
:100060000C254FF0A0434FF48022C3F80C254FF02D
:10007000A0430022C3F808251A4AFB79137029E02F
:100080004FF0A0434FF4C012C3F808254FF0A0432F
:100090000022C3F80C254FF0A0434FF4C022C3F850
:1000A0000C254FF0A0430022C3F808250D4AFB7928
:1000B00013700FE04FF0A0434FF4F012C3F80C257B
:1000C0004FF0A0430022C3F80825064AFB791370BD
:1000D00000E000BFFB6918462037BD4680BD00BF69
:1000E0004424002038240020482400203C24002000
:1000F000682400201F85EB5180B582B000AF786086
:10010000074B1B6803F00103002B04D0054B1B7841
:100110001846FFF7ADFC00BF0837BD4680BD00BFE5
:10012000402400203824002080B485B000AF7860DF
:100130004FF0A043D3F80435FB604FF0A042FB68BA
:10014000DB4303F40023C2F808354FF0A042FB68FC
:1001500003F40023C2F80C3500BF1437BD4680BC41
:10016000704700BF80B584B000AF0346FB71002329
:10017000FB60084B1B6803F00103002B04D0FB79E4
:100180001846FFF775FCF860FB6818461037BD4647
:1001900080BD00BF4024002080B586B000AFF8606D
:1001A000B9607A6000237B61334ABB681360334ACD
:1001B000FB681360324A7B681360FB6803F002033C
:1001C000002B2BD000233B6108E00122012138697C
:1001D00000F066F878613B6901333B613B69032BB2
:1001E00002D87B69002BF0D07B69002B07D1BB685C
:1001F0005B081A460421234807F030FC78617B69CC
:10020000002B02D107F094FC78617B69002B05D1AB
:100210001D4A00211D4808F00FFC7861FB6803F0BF
:100220000103002B10D04FF0A0434FF4F012C3F89D
:1002300008254FF0A0430022C3F80C254FF0A0433F
:100240004FF4F012C3F818257B69002B05D1104A32
:100250000021104808F0F0FB78617B69002B05D184
:100260000D4A01210D4808F0E7FB78617B691846CB
:100270001837BD4680BD00BF3C240020402400202C
:1002800088240020E4BD020055FA0100D0BD020020
:10029000F9000200C8BD020029010200CCBD020025
:1002A00080B485B000AF78600B46FB701346BB701E
:1002B0000023FB607B68032B35D8BB78012B09D169
:1002C000FB78012B04D17B68DBB20D33DBB200E09D
:1002D0000023BB70FB78012B04D0022B0BD0002B2A
:1002E00013D01CE014497A6813465B0013440B4496
:1002F000BA781A7019E010497A6813465B00134403
:100300000B440133BA781A700FE00B497A68134630
:100310005B0013440B440233BA781A7005E00723DC
:10032000FB6000BF01E00723FB60FB681846143741
:10033000BD4680BC704700BF8C24002080B487B0CD
:1003400000AF786000237B612EE04FF0A0421B4994
:100350007B6951F8233003F5E07352F823303B6199
:1003600001227B6902FA03F31A467B681340002BD3
:1003700001D0032300E00023FB603B6923F44033FA
:100380003B61FB681B043A6913433B614FF0A0419A
:100390000A4A7B6952F8233003F5E0733A6941F861
:1003A00023207B6901337B617B69032BCDD900233B
:1003B00018461C37BD4680BC704700BFD4BD020044
:1003C00080B582B000AF012200210020FFF768FF56
:1003D00078607B68002B04D07B68072B01D07B689A
:1003E0001CE0072202210120FFF75AFF78607B689A
:1003F000002B04D07B68072B01D07B680EE0042221
:1004000002210020FFF74CFF78607B68002B04D0AE
:100410007B68072B01D07B6800E000231846083773
:10042000BD4680BD80B582B000AF01220221002010
:10043000FFF736FF78607B68002B04D07B68072BC2
:1004400001D07B681CE0072202210120FFF728FF72
:1004500078607B68002B04D07B68072B01D07B6819
:100460000EE00A2200210020FFF71AFF78607B6867
:10047000002B04D07B68072B01D07B6800E00023B1
:1004800018460837BD4680BD80B584B000AF78609F
:1004900007F10B0319460020FFF714FAF860FB6818
:1004A000002B01D0FB681DE007F10A03194601206B
:1004B000FFF708FAF860FB68002B01D0FB6811E039
:1004C000BB7A002B03D07B6802221A7009E0FB7A0A
:1004D000002B03D07B680B221A7002E07B6800229D
:1004E0001A70002318461037BD4680BD80B582B013
:1004F00000AF0320FFF722FF78607B68002B04D059
:100500007B68062B01D07B6800E000231846083783
:10051000BD4680BD80B584B000AF78607B681B8825
:10052000102B02D0112B18D02FE01A4B1B68002B78
:100530000DD1FFF745FFF860FB68002B07D0164B85
:100540001B68002B03D0144B1B68F8689847114BAD
:100550001B6801330F4A136017E00E4B1B68013B09
:100560000C4A13600B4B1B68002B0DD1FFF75AFF91
:10057000F860FB68002B07D0074B1B68002B03D0EB
:10058000054B1B68F868984700BF00BF1037BD4691
:1005900080BD00BFC4240020C024002080B584B0EA
:1005A00000AF786039600023FB600D4A7B68136000
:1005B0003B68002B08D03868FFF766FFF860FB68DF
:1005C000002B01D0FB6807E0064B1B68002B02D113
:1005D000FFF728FFF860FB6818461037BD4680BD5E
:1005E000C0240020C424002071DF704700BF1846DB
:1005F00072DF704700BF184679DF704700BF1846AA
:100600007DDF704700BF184665DF704700BF1846A2
:1006100080B483B000AF03463960FB80FB88DAB258
:100620003B681A703B680133FA88120A92B2D2B260
:100630001A70022318460C37BD4680BC704700BFB5
:1006400080B487B000AFF860B9607A607B807B6867
:100650001B8803F112027B889A4201D90C2337E0F0
:100660007B681B881A46BB68134411221A707B688A
:100670001B8801339AB27B681A807B681B881A46F4
:10068000BB68134410221A707B681B8801339AB22E
:100690007B681A800F23FB7515E07B681B881A4660
:1006A000BB68134497F91720F9688A5C1A7097F9A8
:1006B0001730DBB2013BDBB2FB757B681B88013373
:1006C0009AB27B681A8097F91730002BE5DA00237D
:1006D00018461C37BD4680BC704700BF80B485B04B
:1006E00000AFB9607A601A460346FB731346BB81BC
:1006F0007B681B88DA1CBB899A4201D90C2352E023
:100700007B681B881A46BB68134402221A707B68F8
:100710001B8801339AB27B681A807B681B881A4653
:10072000BB6813441C221A707B681B8801339AB281
:100730007B681A80FB7B013B032B2BD801A252F86C
:1007400023F000BF5507020065070200750702008D
:10075000850702007B681B881A46BB681344002289
:100760001A7019E07B681B881A46BB681344012283
:100770001A7011E07B681B881A46BB68134402227A
:100780001A7009E07B681B881A46BB681344032271
:100790001A7001E0072306E07B681B8801339AB2D8
:1007A0007B681A80002318461437BD4680BC70470A
:1007B00080B588B000AFF860B9601346FB80BB68B5
:1007C0001B8803F10902FB889A4201D90C234FE0F0
:1007D00007F114031846FFF707FFF861FB69002BC8
:1007E00001D0FB6944E0BB681B881A46FB681344D0
:1007F00008221A70BB681B8801339AB2BB681A8042
:10080000BB681B881A46FB6813441B221A70BB681E
:100810001B8801339AB2BB681A80BB681B881A46D2
:10082000FB68981807F11403013306221946FDF7F7
:1008300097F9BB681B8806339AB2BB681A803B7D68
:10084000002B07D1BB681B881A46FB6813440022A3
:100850001A7006E0BB681B881A46FB681344012225
:100860001A70BB681B8801339AB2BB681A800023D8
:1008700018462037BD4680BD80B588B000AFF8600F
:10088000B9607A607B80FB681B78012B05D1FB681F
:100890005B78002B01D1072377E07B681B889A1CCB
:1008A0007B889A420DD8FB681B78012B0BD17B68A3
:1008B0001B881A46FB685B7813449A1C7B889A4213
:1008C00001D90C2361E07B681B887A88D31A9BB21C
:1008D000023BBB83BB8BFB827B681B880233BA68FD
:1008E000134407F1160211461846FFF789FEB86156
:1008F000BB69002B01D0BB6947E0FB681B78022B6A
:1009000006D1FB8ABA8B9A4202D30923FB7712E005
:100910000823FB77FB681B78012B0AD1FB685B7807
:100920009BB2BA8B9A4204D3FB685B789BB2FB8282
:1009300001E0BB8BFB82FB8AFE2B01D90C2324E058
:100940007B681B881A46BB681344FA8AD2B201320C
:10095000D2B21A707B681B8801339AB27B681A8006
:100960007B681B881A46BB681344FA7F1A707B6841
:100970001B8801339AB27B681A807B681A88FB8ACD
:1009800013449AB27B681A80002318462037BD466C
:1009900080BD00BF80B586B000AFF860B960134677
:1009A000FB80BB681B881A1DFB889A4201D90C2367
:1009B00038E007F112031846FFF71EFE78617B69E5
:1009C000002B01D07B692DE0BB681B881A46FB68B1
:1009D000134403221A70BB681B8801339AB2BB68A8
:1009E0001A80BB681B881A46FB68134419221A70C8
:1009F000BB681B8801339AB2BB681A807A8ABB68CD
:100A00001B881946FB680B4419461046FFF700FE89
:100A100003461946BB681A888BB213449AB2BB6866
:100A20001A80002318461837BD4680BD80B485B0B3
:100A300000AFB9607A601A460346FB731346BB8168
:100A40007B681B88DA1CBB899A4201D90C2327E0FA
:100A50007B681B881A46BB68134402221A707B68A5
:100A60001B8801339AB27B681A807B681B881A4600
:100A7000BB68134401221A707B681B8801339AB249
:100A80007B681A807B681B881A46BB681344FA7B14
:100A90001A707B681B8801339AB27B681A80002326
:100AA00018461437BD4680BC704700BF80B485B07F
:100AB00000AFB9607A601A460346FB731346BB81E8
:100AC0007B681B88DA1CBB899A4201D90C2327E07A
:100AD0007B681B881A46BB68134402221A707B6825
:100AE0001B8801339AB27B681A807B681B881A4680
:100AF000BB68134411221A707B681B8801339AB2B9
:100B00007B681A807B681B881A46BB681344FA7B93
:100B10001A707B681B8801339AB27B681A800023A5
:100B200018461437BD4680BC704700BF80B485B0FE
:100B300000AFB9607A601A460346FB731346BB8167
:100B40007B681B88DA1CBB899A4201D90C2327E0F9
:100B50007B681B881A46BB68134402221A707B68A4
:100B60001B8801339AB27B681A807B681B881A46FF
:100B7000BB6813440A221A707B681B8801339AB23F
:100B80007B681A807B681B881A46BB681344FA7B13
:100B90001A707B681B8801339AB27B681A80002325
:100BA00018461437BD4680BC704700BF80B58AB078
:100BB00000AFF8607B600B46FB721346BB720023EC
:100BC00087F823303B6B1B883B8400237B6268E003
:100BD000FB685A687B6A9B001A4407F1100310688F
:100BE000186007F1170107F1100300221846FFF7FC
:100BF0000BFDF861FB69002B01D0FB696EE0FB7D0A
:100C0000BA7A9A424AD197F82330002B01D00023B8
:100C100000E00223FB763B6B1B881A46FB7D1A44DF
:100C2000FB7E1A44BB8E9A4201DD0C2356E097F8F6
:100C3000233083F00103DBB2002B15D03B6B1B8804
:100C400001339AB23B6B1A803B6B1B881A467B6858
:100C50001344FA7A1A703B6B1B8801339AB23B6BD0
:100C60001A80012387F823303B6B1B881A467B6868
:100C70001A4407F1170107F110031846FFF7C4FCE7
:100C8000F861FB69002B01D0FB6927E03B6B1A88F8
:100C9000FB7D9BB213449AB23B6B1A807B6A013393
:100CA0007B62FB681B881A467B6A9A4290DC97F845
:100CB0002330002B11D03B6B1A883B8CD31A9BB28C
:100CC000013B3B833B8BFF2B01D90C2306E03B8C84
:100CD0007A6813443A8BD2B21A7000231846283728
:100CE000BD4680BD80B588B002AFF8607B600B4622
:100CF000FB721346BB72F97ABB8C01933B6A00937B
:100D00007B680222F868FFF751FF78617B69002B4E
:100D100001D07B6910E0B97ABB8C01933B6A0093E8
:100D20007B681022F868FFF741FF78617B69002B30
:100D300001D07B6900E0002318461837BD4680BD0E
:100D400080B483B000AF78607B681B88052B0AD91C
:100D50007B681B88B3F5486F07D97B681B884FF603
:100D6000FF72934201D0072325E07B685B88052B47
:100D70000AD97B685B88B3F5486F07D97B685B88C5
:100D80004FF6FF72934201D0072314E07B681B8863
:100D90004FF6FF7293420DD07B685B884FF6FF726F
:100DA000934207D07B681A887B685B889A4201D996
:100DB000072300E0002318460C37BD4680BC70476F
:100DC00080B586B000AFF860B9607A607B807B68E0
:100DD0001B889A1D7B889A4201D90C234BE0F86846
:100DE000FFF7AEFF78617B69002B01D07B6942E0A1
:100DF0007B681B881A46BB68134405221A707B68FF
:100E00001B8801339AB27B681A807B681B881A465C
:100E1000BB68134412221A707B681B8801339AB294
:100E20007B681A80FB681A887B681B881946BB6838
:100E30000B4419461046FFF7EBFB034619467B6847
:100E40001A888BB213449AB27B681A80FB685A885E
:100E50007B681B881946BB680B4419461046FFF790
:100E6000D7FB034619467B681A888BB213449AB2A3
:100E70007B681A80002318461837BD4680BD00BF26
:100E800080B586B000AFF860B9607A607B80FB689F
:100E90009B8802337B617B681B881A467B691344FD
:100EA0009A1C7B889A4201D90C2354E07B69FE2B63
:100EB00001D90C234FE07B681B881A46BB6813449A
:100EC0007A69D2B20132D2B21A707B681B880133C0
:100ED0009AB27B681A807B681B881A46BB681344E9
:100EE000FF221A707B681B8801339AB27B681A80D4
:100EF000FB681A887B681B881946BB680B44194637
:100F00001046FFF785FB034619467B681A888BB2AB
:100F100013449AB27B681A80FB689B88002B19D017
:100F2000FB689B68002B01D1072314E07B681B88BA
:100F30001A46BB689818FB689968FB689B881A4634
:100F4000FCF70EFE7B681A88FB689B8813449AB2F4
:100F50007B681A80002318461837BD4680BD00BF45
:100F600080B588B000AFF860B9607A607B80FB68BC
:100F70009B6A002B01D107236DE00023FB7763E020
:100F8000FB68996AFA7F13465B0013449B000B448D
:100F9000BB61BB699B8802337B617B69FE2B01D9F6
:100FA0000C2358E07B681B881A46BB6813447A6997
:100FB000D2B20132D2B21A707B681B8801339AB266
:100FC0007B681A807B681B881A46BB68134416220C
:100FD0001A707B681B8801339AB27B681A80BB69E0
:100FE0001A887B681B881946BB680B441946104653
:100FF000FFF70EFB034619467B681A888BB2134431
:101000009AB27B681A80BB699B88002B19D0BB6998
:101010009B68002B01D107231DE07B681B881A46C3
:10102000BB689818BB699968BB699B881A46FCF72E
:1010300097FD7B681A88BB699B8813449AB27B68CA
:101040001A80FB7F0133FB77FB6893F82C30FA7F23
:101050009A4295D3002318462037BD4680BD00BF75
:1010600080B588B002AFF860B9607A6000237B6118
:101070007B681B887B827B6800221A80FB685B6B25
:10108000002B0DD0FB685B6B18787B8A7A68B96897
:10109000FFF70CFD78617B69002B01D07B69EFE0E5
:1010A000FB681B6B002B0CD0FB68186B7B8A7A6883
:1010B000B968FFF7C5FA78617B69002B01D07B69BD
:1010C000DEE0FB6893F82E30002B0DD0FB6893F820
:1010D0002E007B8A7A68B968FFF700FB78617B692C
:1010E000002B01D07B69CBE0FB6893F82D30002BFF
:1010F0000BD07B8A1A467968B868FFF759FB78618C
:101100007B69002B01D07B69BAE0FB689B78002BE0
:101110000BD07B8A1A467968B868FFF73BFC786188
:101120007B69002B01D07B69AAE0FB68DB78002B90
:101130000DD0FB68DB7858B27B8A7A68B968FFF714
:1011400075FC78617B69002B01D07B6998E0FB68B6
:101150005B68002B0ED0FB685B6893F900007B8A0C
:101160007A68B968FFF7E2FC78617B69002B01D0EF
:101170007B6985E0FB681B89002B11D0FB6803F1BC
:1011800008007B8A01937B680093BB6806220221DA
:10119000FFF7A8FD78617B69002B01D07B696FE0C8
:1011A000FB681B8A002B11D0FB6803F110007B8ABF
:1011B00001937B680093BB6807220321FFF792FD30
:1011C00078617B69002B01D07B6959E0FB681B8B40
:1011D000002B11D0FB6803F118007B8A01937B6818
:1011E0000093BB6815221421FFF77CFD78617B69B1
:1011F000002B01D07B6943E0FB681B6A002B0CD0FD
:10120000FB68186A7B8A7A68B968FFF7D9FD78614C
:101210007B69002B01D07B6932E0FB685B6A002BA5
:101220000CD0FB68586A7B8A7A68B968FFF728FE99
:1012300078617B69002B01D07B6921E0FB6893F822
:101240002C30002B0BD07B8A7A68B968F868FFF7DE
:1012500087FE78617B69002B01D07B6910E0FB6819
:101260001B78002B0BD07B8A7A68B968F868FFF787
:1012700003FB78617B69002B01D07B6900E07B690F
:1012800018461837BD4680BD80B483B000AF786083
:101290007B68DB7803F00403002B01D1072300E017
:1012A000002318460C37BD4680BC704780B483B01D
:1012B00000AF78607B68DB78002B01D0072300E06B
:1012C000002318460C37BD4680BC704780B596B0E9
:1012D00000AF786039601F23A7F84A301F23A7F8B2
:1012E00048307B68002B1AD07868FFF7CDFFF86490
:1012F000FB6C002B01D0FB6C44E007F14A0207F1C4
:10130000280319467868FFF7ABFEF864FB6C002BE6
:1013100001D0FB6C36E007F128037B6504E0002375
:101320007B650023A7F84A303B68002B1AD0386849
:10133000FFF7BCFFF864FB6C002B01D0FB6C21E0D5
:1013400007F1480207F1080319463868FFF788FEDD
:10135000F864FB6C002B01D0FB6C13E007F1080371
:101360003B6504E000233B650023A7F84830B7F84D
:101370004A30D9B2B7F84830DBB23A6D786DFFF732
:1013800037F9034618465837BD4680BD73DF7047AE
:1013900000BF184674DF704700BF184680B483B0A2
:1013A00000AF78607B681B79002B03D17B681B7BC7
:1013B000002B01D0012300E0002318460C37BD4666
:1013C00080BC704780B500AF072200210248FBF7C0
:1013D000B9F800BF80BD00BFCC24002080B485B028
:1013E00000AF78600023FB600AE07A68FB68134472
:1013F0001B78002B01D0012306E0FB680133FB6062
:10140000FB68052BF1D9002318461437BD4680BC74
:10141000704700BFB0B588B000AFF860B9607A60BF
:101420003B60FB68002B01D10E23D6E07B68002BCC
:1014300001D10E23D1E06B4B00221A706A4A3B683F
:1014400013606A4A3B6B1360694A7B6814461D4609
:101450000FCD0FC40FCD0FC42B682360FFF7B2FF71
:10146000644B654A1A60634B644A9A6038220021D3
:101470006348FBF767F8FB681A78614B1A70FB68E2
:101480009A785F4B9A70FB68DA785D4BDA70FB688C
:101490005A785B4B5A705A4BFA681033103292E804
:1014A000030083E80300564BFA680833083292E8D9
:1014B000030083E80300524BFA681833183292E8AD
:1014C000030083E80300FB685B6A002B29D04C4BC8
:1014D0004C4A5A624B4B4C4A9A60494B5B6AFA68D9
:1014E000526A12881A80464B5B6AFA68526A92887E
:1014F0009A800023FB610DE0FB685B6A9A68FB69D8
:1015000013441978404AFB6913440A461A70FB6970
:101510000133FB613A4B5B6A9B881A46FB699A422E
:10152000EAD8FB689B6A002B33D0384B384A9A6064
:10153000334B364A9A62324B9B6A354A9A60304B3B
:101540009B6AFA68926A92889A802D4B9B6AFA6825
:10155000926A12881A800023BB610DE0FB689B6AC7
:101560009A68BB6913441978294ABB6913440A462F
:101570001A70BB690133BB61214B9B6A9B881A4679
:10158000BB699A42EAD8FB6893F82C201C4B83F87D
:101590002C20FB681B6A002B0ED0194B1D4A1A62C7
:1015A000174B1B6AFA68126A52885A80144B1B6ADE
:1015B000FA68126A12881A80FB685B68002B06D0F2
:1015C0000F4B154A5A60FB685B680D4A5360B96857
:1015D0000B48FFF77BFE78617B6918462037BD46D4
:1015E000B0BD00BF182500201025002014250020C4
:1015F0001C250020402500205025002070250020BB
:10160000D424002094250020A0250020C0250020FF
:10161000CC250020EC250020F025002080B582B0EC
:1016200000AF00233B603B46184604F0ADFD7860F8
:101630007B68082B04D07B68002B01D0012313E0CA
:101640007B68082B0AD13B46184607F09DFA0346F3
:101650007B607B68002B01D0002305E03B68002BFA
:1016600001D0012300E0002318460837BD4680BDA5
:1016700080B58AB000AF0346FB71A24AFB791370B4
:10168000FFF7CCFF0346002B04D09F4B01221A70BA
:1016900000236AE1FFF796FE9C4B5B78002B03D09A
:1016A000984B1B78012B0FD0984B9B78002B03D0C5
:1016B000944B1B78012B07D0944B9B78002B12D0B6
:1016C000904B1B78022B0ED1914B1B68002B07D03F
:1016D000904B01221A708E4B1B680820984702E03D
:1016E0008C4B00221A70874B1B78012B12D1874B31
:1016F0005B7883F00103DBB2002B08D18648FFF74B
:101700006DFE034683F00103DBB2002B02D07D4B5C
:1017100002221A707B4B1B78022B12D17B4B9B78D9
:1017200083F00103DBB2002B08D17B48FFF756FEA4
:10173000034683F00103DBB2002B02D0714B03227E
:101740001A70724B1B7B83F00103DBB2002B06D0B7
:101750006C4B1B78032B02D16A4B04221A706B4B23
:101760001B7E83F00103DBB2002B09D0654B1B7895
:10177000042B05D1634B00221A70684B00221A70AB
:10178000634B1B68002B1AD05E4B1B78032B03D0D6
:101790005C4B1B78042B12D15C4B1B78002B0ED0BA
:1017A0005F4B1B7883F00103DBB2002B07D05D4B4E
:1017B00001221A70564B1B680720984702E0594BCC
:1017C00000221A7007F10C03182200211846FAF7BC
:1017D000B9FE00233B7300233B6100233B750023CC
:1017E000BB61484B1B78013B032B00F2A38001A295
:1017F00052F823F0051802001D1802003D180200DF
:10180000A1180200484B3B6101233B730023FB837B
:101810000023BB83414B01221A708CE0424B3B6199
:1018200001233B73394B9B689BB2FB83374B5B684F
:101830009BB2BB83394B02221A707CE0334B5B694D
:101840009BB2FB83314B1B699BB2BB833748FFF7CD
:10185000A5FD0346002B1FD02C4B1B78002B1BD063
:101860002F4B1B7883F00103DBB2002B14D0022333
:101870003B752E4BBB612E4B0422DA7000212C48A5
:10188000FFF724FD78627B6A002B01D07B6A6CE055
:10189000224B05221A704EE0204B03221A704AE0B8
:1018A0001A4BDB699BB2BB83184B1B6A9BB2FB8351
:1018B0001E48FFF773FD0346002B1FD0134B1B7808
:1018C000002B1BD0164B1B7883F00103DBB2002BDF
:1018D00014D002233B75154BBB61154B0422DA7003
:1018E00000211348FFF7F2FC78627B6A002B01D0DD
:1018F0007B6A3AE0094B06221A701CE0074B04226F
:101900001A7018E018250020C82400201C2500208B
:101910001025002092250020CD2400200C25002039
:101920009025002091250020CC2400204025002077
:10193000D424002000BF0F4B1B78002B0AD007F1E6
:101940000C031846FFF722FD78627B6A002B01D05A
:101950007B6A0AE0084B1B68002B05D0064B1B680E
:10196000064A127810469847002318462837BD4685
:1019700080BD00BF18250020102500200C25002068
:1019800080B586B000AF78607B681B88112B0DD0C6
:101990001B2B24D0102B00D086E07B689B7D012B75
:1019A0007DD17B689A88424B1A8078E0414B0022B7
:1019B0001A707B689A883E4B1B889A4271D101202D
:1019C000FFF756FE78617B69002B6AD03A4B1B68A3
:1019D000002B66D0384B1B687869984761E07B68BC
:1019E0001B7A002B5FD1354B1B78013B032B4CD866
:1019F00001A252F823F000BF091A0200291A0200BE
:101A0000491A02006F1A02000220FFF731FE386106
:101A10003B69002B3BD0284B1B68002B37D0264B53
:101A20001B683869984732E00320FFF721FEF86011
:101A3000FB68002B2DD0204B1B68002B29D01E4BA0
:101A40001B68F868984724E01D4B03221A70042095
:101A5000FFF70EFEB860BB68002B1CD0164B1B684E
:101A6000002B18D0144B1B68B868984713E0144B30
:101A700000221A70134B1B68002B0ED0114B1B68F1
:101A80000F4A12781046984707E000BF0BE000BFEE
:101A900009E000BF07E000BF05E000BF03E000BFB2
:101AA00002E000BF00E000BF00BF1837BD4680BDA8
:101AB00094210020902500201425002018250020C6
:101AC0000C2500201025002080B584B000AF786080
:101AD0000023FB607B68023B012B18D80F4B1B785F
:101AE000002B16D00D4B00221A700D4B1B78184698
:101AF000FFF7BEFDF860FB68002B0AD0094B1B689E
:101B0000002B06D0074B1B68F868984701E000BF20
:101B100000E000BF00BF1037BD4680BDC8240020D4
:101B2000182500201425002080B582B000AF1E4B80
:101B30001B78002B33D01D4B1B7883F00103DBB2E5
:101B4000002B2CD01A4B1B78002B07D0FFF722FC60
:101B500078607B68002B01D07B6821E0134B012269
:101B60001A70144B0622DA7000211248FFF7AEFB00
:101B700078607B68002B01D07B6811E00C4B1B78F0
:101B80001846FFF775FD78607B68002B07D00A4B7D
:101B90001B68002B03D0084B1B687868984700230C
:101BA00018460837BD4680BD1C2500209025002022
:101BB00018250020D42400201425002075DF70474C
:101BC00000BF184676DF704700BF18467ADF7047BF
:101BD00000BF18467BDF704700BF184680B483B053
:101BE00000AF78607B681B781AB27B6801331B7882
:101BF0001B021BB213431BB29BB218460C37BD46E7
:101C000080BC704780B584B000AF78607868FFF71B
:101C1000E5FF0346FB81FB8903F00103002B14BFA2
:101C200001230023DBB218461037BD4680BD00BF3C
:101C300080B483B000AF78607B685A88084B1B88FB
:101C40009A4207D37B685A88054B5B889A4201D831
:101C5000012300E0002318460C37BD4680BC7047C6
:101C60001026002080B586B000AF7860264B1B8818
:101C70004FF6FF72934243D0244B1B780133DAB204
:101C8000224B1A70224B1A7B204B1B789A4212D39C
:101C90001D4B1B881F491846FFF790FF78617B6931
:101CA000002B2DD01A4B9B69002B29D0184B9B6918
:101CB0007869984724E0154B00221A70144B1B7C5E
:101CC000002B11D0104B1B883B211846FFF77AFFE1
:101CD00038613B69002B07D00D4B9B69002B03D06B
:101CE0000B4B9B6938699847094B5B69002B07D000
:101CF00000233B73064B5B6907F10C0210469847C3
:101D000000BF1837BD4680BD1A26002018260020C7
:101D1000F425002010260020B0B584B000AF786014
:101D20001C4A7B6814461D460FCD0FC495E807007A
:101D300084E80700184B00221A707B681B68002B90
:101D40000ED07B681A68154B1068516803C313489E
:101D5000FFF73CFFF860FB68002B0AD0FB6815E03A
:101D60000E48FFF737FFF860FB68002B01D0FB68D7
:101D70000CE00B4B4FF6FF721A800A4B00221A70D0
:101D8000094A0021094806F057FE03461846103755
:101D9000BD46B0BDF42500204426002010260020BA
:101DA0001A26002018260020651C020004BE02002E
