:020000021000EC
:10B0000000800020FD9502003D9602003F96020060
:10B010000000000000000000000000000000000030
:10B020000000000000000000000000004196020047
:10B030000000000000000000439602004596020058
:10B0400047960200479602004D490200956E0200A5
:10B0500047960200000000009D4202007995020020
:10B060004796020047960200479602004796020064
:10B070004796020047960200479602004796020054
:10B0800047960200417E0200479602004796020062
:10B090008D7E020047960200C5900200479602008E
:10B0A00047960200479602000000000000000000E2
:10B0B0000000000000000000000000000000000090
:10B0C00010B5064C2378002B07D1054B002B02D07E
:10B0D000044800E000BF0123237010BDA021002020
:10B0E000000000008CD10200084B10B5002B03D0EB
:10B0F0000749084800E000BF07480368002B00D15B
:10B1000010BD064B002BFBD09847F9E7000000006C
:10B11000A42100208CD102009C210020000000000E
:10B12000164B002B00D1144B9D46402292029A1AD6
:10B13000924600218B460F461348144A121A00F01B
:10B1400067F80F4B002B00D098470E4B002B00D018
:10B1500098470020002104000D000D48002802D06F
:10B160000C4800E000BF00F02DF82000290002F09C
:10B1700075FD00F011F8C0460000080000800020B6
:10B180000000000000000000A02100207433002017
:10B190000000000000000000084B10B50400002B68
:10B1A00002D0002100E000BF054B1868836A002B25
:10B1B00000D09847200001F0FDFEC04600000000CE
:10B1C0006CBF02000E4B70B500251E000D4CE41A3A
:10B1D000A410A54204D0AB00F35898470135F8E716
:10B1E00010F0B6FE084B00251E00084CE41AA4100F
:10B1F000A54204D0AB00F35898470135F8E770BD7D
:10B2000094210020942100209421002098210020E6
:10B2100003008218934202D019700133FAE7704795
:10B22000F0B58BB014001D1E129906DA8024240696
:10B230001B191D0014002D2300E000230B70202398
:10B24000149E03229E43462E07D03300453B5942AD
:10B250004B411099013ACB18109309AB049308ABFA
:10B260000393139B00920293109B220001932B00E7
:10B2700000F0DAFC0700472E02D1119BDB072DD529
:10B28000109BFB180793462E14D13B78302B0CD122
:10B2900000220023200029000EF02EFC002804D1FB
:10B2A0000123109A9B1A139A1360139B079A1B6829
:10B2B000D318079300220023200029000EF01CFC65
:10B2C0003022002802D0079B099307E0099B0799C9
:10B2D000994203D9591C09911A70F7E73800099B64
:10B2E000159ADB1B13600BB0F0BDF7B52B230700DD
:10B2F0000C000270861C002901DA2D234C427B7061
:10B30000092C1CDD6B46DD1D20000A210EF0DEFB42
:10B31000013D3031297020000A210EF0F1FA0400BD
:10B320000928F1DC013D30342C706B4607333000C6
:10B33000AB4209D92B78013533700136F5E730235C
:10B34000E4183370B01C7470C01BFEBDF0B595B02E
:10B350000C000A920B931A9D099001F02BFA0368D6
:10B3600018000D9300F0D2FB0023129323680E9077
:10B370000C930C99277E2B680722C90501D59B18D1
:10B3800000E0073393431A0008322A601A685B68AA
:10B39000A264E3640122E56CA66C6B005B080F936A
:10B3A0005242C04B30000F9910F0B0FA002819D16A
:10B3B0000122BC4B524230000F990EF0ADFB002829
:10B3C00010D100220023300029000EF09BFB002842
:10B3D00003D023002D2243331A70B34D472F0ED8CC
:10B3E000B24D0CE032002B003000290010F08EFA34
:10B3F000002800D19AE1AE4D472F00D8AD4D032370
:10B400000C9A236101339A432260002642E0672FA1
:10B4100000D193E1472F00D190E10C9A0021134312
:10B4200012AA059211AA0392232223600691019386
:10B4300008A9636852180292009332002B00049707
:10B440000998FFF7EDFE20233A0005009A43472AAA
:10B4500000D18EE11199652F00D996E120000139C4
:10B460003A0050301191FFF740FF129A06008318FE
:10B470002361012A00DD85E12268D20700D581E140
:10B48000232308AA9B181B78002B03D023002D220E
:10B4900043331A700B9B13AA009321000A9B09984F
:10B4A00000F0A4F9431C02D1012040429BE1226834
:10B4B000530501D4236964E0652F00D8CCE0A06C6B
:10B4C000E16C002200230EF017FB00282CD0012392
:10B4D000794A0A9909980B9DA847431CE4D0119B0F
:10B4E000129A934208DB2368DB0705D42368002502
:10B4F0009B0700D50FE113E10B9D0E9B0D9A0A9956
:10B500000998A8470025431CCED0129B013B9D42C1
:10B51000ECDA220001231A320A9909980B9EB047EF
:10B52000431CC1D00135F0E7119B002B2BDC01231C
:10B53000614A0A9909980B9EB047431CB4D0119BED
:10B54000002B05D1129B002B02D12368DB07CDD540
:10B550000B9E0E9B0D9A0A990998B0470026431C32
:10B56000A2D0119B5B429E420ADA220001231A32CA
:10B570000A9909980B9FB847431C95D00136F0E70C
:10B58000129B2A00ACE0A36D129E9E4200DD1E00BD
:10B59000002E05DC00230C93F343DB170F9315E01B
:10B5A00033002A000A9909980B9FB847431CF1D130
:10B5B0007AE7220001231A320A9909980B9FB847AB
:10B5C000431C00D170E70C9B01330C930F9BA26DC1
:10B5D0000C993340D31A9942EBDBAE18119B129AA7
:10B5E00093420DDB2368DB070AD4129B119AED18F6
:10B5F000AD1B9B1A9D4200DD1D00002D09DC11E0F2
:10B600000E9B0D9A0A9909980B9FB847431CECD1E1
:10B610004AE72B0032000A9909980B9EB047431C59
:10B6200000D141E7EF43FB1700260C930AE022000C
:10B6300001231A320A9909980B9FB847431C00D17D
:10B6400032E70136119A129B0C999B1A2A000A4084
:10B650009B1A9E42EBDB49E7129B012B02DC012384
:10B660001A4245D001232A000A9909980B9FB8472E
:10B67000431C00D118E70E9B0D9A0A9909980B9F5D
:10B68000B847431C00D10FE7A06CE16C00220023F7
:10B690000EF032FA002801D000251AE0129B6A1C35
:10B6A000013B26E0FFFFEF7F74BF020070BF020086
:10B6B0007CBF020078BF020080BF0200220001238D
:10B6C0001A320A9909980B9FB847431C00D1EBE640
:10B6D0000135129B013B9D42F0DB220033005032CA
:10B6E0000A9909980B9DA847431C00D0FEE6DBE6AB
:10B6F0002A000A9909980B9DA847431CEDD1D3E66F
:10B700002200012319320A9909980B9EB047431C65
:10B7100000D1C9E60135E368139A9B1A9D42EFDB1D
:10B72000139BE06898425EDA18005CE08023626850
:10B73000DB00511C00D06AE6073202E0002A02D189
:10B740000122626069E60C9908A80B43002106916A
:10B7500012A9059111A903912321091823600193CE
:10B7600000922B000497029132000998FFF758FDD0
:10B770000500119BDA1C02DB626893421CDD023F6C
:10B78000FFB267E6013323617AE6662F15D163685D
:10B79000002909DD2161002B02D12268D2071ED5C4
:10B7A0000133591821611AE0002B03D101222168CD
:10B7B000114213D09A1C11E06727119B129A9342F1
:10B7C00006DB22682361D20709D50133236106E035
:10B7D0000121002B01DC4918C91A8A182261119B2A
:10B7E0000026A3654CE615B0F0BDC046F7B51700BE
:10B7F00001938A680B6900900C00934200DA1300F1
:10B8000022003B6043321278002A01D001333B60B2
:10B8100023689B0602D53B6802333B6006252368FC
:10B820001D401ED0230043331B785A1E93412268CB
:10B8300092061CD53020E1184331087021005A1CB3
:10B8400045310978A2184332023311700FE022000B
:10B850000123193201990098089EB047431C0ED06D
:10B860000135E3683A689B1A9D42F0DBDAE7220073
:10B87000019943320098089DA847431C02D101203A
:10B88000404220E006232068E1683A680340002532
:10B89000042B03D18D1AEB43DB171D40A3682269EB
:10B8A000934201DD9B1AED180027BD420AD0220009
:10B8B00001231A3201990098089EB047431CDED03C
:10B8C0000137F2E70020FEBDF0B58BB006920A000A
:10B8D00043320793059004920A7E0C00109B6E2A57
:10B8E00000D1ABE011D8632A22D009D8002A00D1B8
:10B8F000B5E0582A00D0C5E045310A70814A4FE0D2
:10B90000642A1DD0692A1BD0BCE0732A00D1AAE0AA
:10B9100009D86F2A29D0702A00D0B3E02022096804
:10B920000A43226037E0752A1FD0782A33D0A9E075
:10B930000E001A684236111D196013683370A4E0B6
:10B9400021681A68080606D4490604D5111D196035
:10B950000023D55E02E0111D19601568002D3BDA49
:10B960002D23049A6D42137036E021681A68080688
:10B9700006D4490604D51568111D1960ADB202E060
:10B98000111D196015685F4B227E039308276F2AEB
:10B990001DD00A271BE022007821453211705A4A37
:10B9A00019680392081D226818600D68100602D4F9
:10B9B000500600D5ADB2D30702D520231A4322602A
:10B9C0001027002D03D1202322689A4322602300F0
:10B9D000002243331A7002E00A274A4B039363683C
:10B9E000A360002B09DB0422216891432160002D14
:10B9F00005D1049E002B11D07BE0002D79D0049E50
:10BA0000280039000DF078FF039B013E5B5C2800A5
:10BA1000337039000DF0EAFE051EF1D1082F09D16F
:10BA20002368DB0706D563682269934202DC302372
:10BA3000013E3370049B9B1B23612BE009681A684D
:10BA4000080607D4490605D5111D19601368A28A96
:10BA50001A8004E0111D1960136862691A600023DE
:10BA6000049E236116E01A68111D196016680021F2
:10BA70006268300000F0ACFE002801D0801B6060DE
:10BA8000636803E0260042363270012323610023FD
:10BA9000049A1370079B09AA00932100069B05983E
:10BAA000FFF7A4FE431C02D10120404227E0236996
:10BAB000320006990598079DA847431CF4D02368D7
:10BAC00000259B070FD4099BE068984217DA1800FD
:10BAD00015E022000123193206990598079EB04708
:10BAE000431CE1D00135E368099A9B1A9D42F0DBC3
:10BAF000E9E72600039B42361B7833708EE70BB0D4
:10BB0000F0BDC04682BF020093BF02000023C25CAA
:10BB10000133002AFBD1581E7047F0B503690C6948
:10BB200089B00700059100269C4279DC0B00013C9E
:10BB30001433A50003935B19049303001433029399
:10BB40005D19049B28681B68591C01930DF04EFE7B
:10BB50000190B04233D0039B02989C460696634600
:10BB600004CB9C46019B91B25943120C5A4389194C
:10BB70000B0CD3180793069A1E0C038889B29B18E6
:10BB800002685B1A110C6A46928B8A1A19145218B1
:10BB900011149BB21204134308C0049B0691634521
:10BBA000DDD22B68002B0AD1029B043DAB4201D3AE
:10BBB0003C6104E02B68002BFAD1013CF4E70599C5
:10BBC000380001F029F8002829DB0020019B0299A8
:10BBD0000133039A019340CA0B881818B3B2C31AF1
:10BBE0000868360C000C801B1D14451928149BB2E4
:10BBF0002D042B4308C1049B9342ECD2029AA3006C
:10BC0000D3181A68002A0AD1029A043B9A4201D337
:10BC10003C6104E01A68002AFAD1013CF4E7019E75
:10BC2000300009B0F0BD0000F0B516001F00446AF6
:10BC30009DB00490259D06960797002C08D11020F2
:10BC400000F0BCFD049B5862446084600460C460E2
:10BC5000049B5B6A196800290BD05A680123934042
:10BC60004A608B60049800F0FFFD0022049B5B6A31
:10BC70001A60079B002B05DA01232B607B005B0811
:10BC8000079301E000232B60079CC84B2200199307
:10BC90001A409A4219D1C64B249A1360069AC54B92
:10BCA000002A02D1240300D1C34B269A1800002A8F
:10BCB00001D100F07DFDD978DA1C002900D00532D1
:10BCC000269918000A6000F073FD069E079F002267
:10BCD0000023300039000DF00FFF051E0ED00123A8
:10BCE000249A1360B54B269A1800002A01D100F05F
:10BCF0005FFDB34A26990A6000F05AFD1AAB019322
:10BD00001BAB009332003B00049801F00BF863007A
:10BD100005905B0D09D03A03AA4C120B1443AA4AB2
:10BD2000300021009E1817951AE01A9B1B9A9E1846
:10BD3000A64BF318202B08DDA54A0698B218D04070
:10BD40004022D31A9C40204303E020220698D31AB5
:10BD500098400FF073FE01239E4C013E0919179382
:10BD600000229D4B0FF07EFA9C4A9D4B0FF000F88D
:10BD70009C4A9D4B0EF0ACF8040030000D000FF013
:10BD80001BFE9A4A9A4B0EF0F3FF02000B002000B4
:10BD900029000EF09DF804000D000FF0D7FD0022E1
:10BDA00003900023200029000DF0ACFE00280DD0E8
:10BDB00003980FF001FE02000B00200029000DF097
:10BDC0009BFE43424341039AD31A039301231693E4
:10BDD000039B162B11D88749DB00C91808684968EE
:10BDE000069A079B0DF0A2FE002805D0039B013B9D
:10BDF00003930023169300E016901A9B9E1B0023CA
:10BE00000B93013E0C9604D50C9B5B420B930023D5
:10BE10000C93039B002B08DB039A0C9B9446634412
:10BE20000C9300231192089307E00B9B039A9B1A33
:10BE30000B935342089300231193229B0125092B56
:10BE400025D8052B02DD0025043B2293229B981E5A
:10BE5000032824D80DF0C0FC060E0204012302E0E2
:10BE6000012308E000231093239B002B20DD1F00FB
:10BE70000A9321E00023239A1093039B9F187B1CB5
:10BE80000A930123FA18002A16DD130014E0012793
:10BE900000237F42229310950A97123305E0012771
:10BEA00001237F4210930A9711330022239203E06B
:10BEB00001273B000A972397049A546A0022626084
:10BEC000043211001431994204D8616852000131E2
:10BED0006160F6E76168049800F08EFC049B2060C6
:10BEE0005B6A1B680D930A9B0E2B00D981E1002D24
:10BEF00000D17EE1069B079C14931594039B002BB5
:10BF000031DD0F223B491340DB00CB185C681B6816
:10BF10000E930F94039B02241D11EB060AD514986F
:10BF20001599354B15401A6A5B6A0EF0FDFA0690BA
:10BF300007910134304E002D0ED001231D4208D050
:10BF40000E980F99E418326873680EF011FF0E9086
:10BF50000F916D100836EEE70E9A0F9B0698079921
:10BF60000EF0E2FA4CE0039B02245D42002D49D022
:10BF7000149815990F231F4A2B40DB00D3181A6819
:10BF80005B680EF0F5FE0023069007911A4E2D1106
:10BF9000002D33D00122154205D0A41832687368F1
:10BFA0000EF0E6FE01236D100836F1E70000F07F89
:10BFB0000F270000ADBF0200A4BF020080BF020037
:10BFC00081BF02000000F03F01FCFFFF32040000CF
:10BFD00012040000000010FE0000F83F61436F6390
:10BFE000A787D23FB3C8608B288AC63FFB799F5092
:10BFF0001344D33FC0BF020098C00200002B01D001
:10C0000006900791169B002B1DD0069D079E0022CF
:10C01000C74B280031000DF075FD002813D00A9B96
:10C02000002B10D0002F00DCDFE0039B3100013B30
:10C030000E930022BF4B28000EF09AFE01340690AA
:10C0400007913E0002E0039B0A9E0E9320000FF032
:10C05000B3FC069A079B0EF08BFE0022B64B0DF048
:10C0600037FFB64A12901391129C139D9446139B6E
:10C07000634418931D00002E1CD1069807990022D6
:10C08000AF4B0FF0EFF82200189B069007910DF0D0
:10C090004DFD002800D054E2AA481399844661441B
:10C0A0000B000698079922000DF02CFD002800D007
:10C0B0003DE29AE0109A731EA349DB00002A49D0A2
:10C0C000CB181A685B680020A0490EF02DFA2B00EF
:10C0D00022000FF0C7F8129013910D9D0698079952
:10C0E0000FF034FC04000FF067FC02000B00069810
:10C0F00007990FF0B7F801356B1E30341C70129A97
:10C10000139B069007910DF0FDFC002800D02EE354
:10C11000069A079B002086490FF0A4F8129A139BF9
:10C120000DF0F0FC002800D0C7E00D9BEB1AB342E5
:10C130005BDA1298139900227E4B0EF019FE002252
:10C1400012901391069807997A4B0EF011FE069003
:10C150000791C3E7C9182200086849682B000EF050
:10C1600007FE0D9C12901391A519069807990FF0E0
:10C17000EDFB06000FF020FC02000B00069807996B
:10C180000FF070F8303626700134069007910022C7
:10C19000A54222D16D4B129813990DF099FE020021
:10C1A0000B00069807990DF0C1FC002800D084E030
:10C1B000129A139B002065490FF054F802000B00FF
:10C1C000069807990DF09EFC00280ED06B1E1A7879
:10C1D000302A00D0CBE21D00F8E706980799554BAE
:10C1E0000EF0C6FD06900791BFE7149B159C0693C1
:10C1F00007941B9B002B00DA81E0039A0E2A00DDD6
:10C200007DE0D300504AD3185C681B6808930994FA
:10C21000239B002B15DA0A9B002B12DC00D088E14F
:10C22000089809990022464B0EF0A2FD069A079B3A
:10C230000DF086FC0A9B08931E00002800D07BE1CD
:10C2400082E10D9D069E079F089A099B30003900E8
:10C250000EF06AF90FF07AFB04000FF0ADFB089ABC
:10C26000099B0EF085FD02000B00300039000EF036
:10C27000F9FF220001356B1E30321A700D9B0A9AAD
:10C28000EB1A9A422ED102000B000DF021FE06009F
:10C290000F0002000B00089809990DF033FC0028EC
:10C2A0000FD10898099932003B000DF025FC0028B9
:10C2B00000D15EE2E30704D45BE20E9B039300E04F
:10C2C0001D006B1E1A78392A08D10D9A9A42F7D1AF
:10C2D000039A0D990132039230220A701A780132C2
:10C2E0001A7046E20022134B0EF042FD002200239A
:10C2F00006000F000DF000FC0028A5D039E2109ACE
:10C30000002A44D0229A012A0BDC179A002A02D074
:10C310000F4A9B1802E036231A9A9B1A089D0B9C21
:10C3200029E00A9B5D1E089BAB4213DB5D1B18E0F6
:10C330000000F03F0000244000001C400000C0FC52
:10C34000000014400000C07CC0BF02000000E03FBD
:10C3500033040000089B0895EA1A0025119B9B18DE
:10C3600011930A9B002B04DA0B9B0A9A9C1A002358
:10C3700001E00B9C0A9B0B9A0121D2180B920C9A9C
:10C380000498D3180C9300F00FFB060002E0089D00
:10C390000B9C109E002C0ED00C9B002B0BDD0C9ADE
:10C3A0002300944200DD13000B9AE41AD21A0B9278
:10C3B0000C9AD31A0C93089B002B20DD109B002BAA
:10C3C00017D0002D11D031002A00049800F07EFB18
:10C3D000059A01000600049800F0EFFA05990E9006
:10C3E000049800F041FA0E9B0593089B5A1B06D057
:10C3F00000E0089A0599049800F068FB0590012177
:10C40000049800F0D1FA119B0890002B00D1C0E1F4
:10C410001A000100049800F059FB229B0890012BA0
:10C4200017DC0025069BAB420ED1079B1B03AB42DA
:10C430000AD1199B079A134206D00B9B0135013391
:10C440000B930C9B01330C93119B0120002B0DD0FF
:10C4500000E00025089B089A1B690E9303339B009C
:10C46000D318586800F056FA2023181A0C9BC018ED
:10C470001F23184009D001331B1A042B02DD1C2393
:10C48000181A03E0042B08D018001C300B9B24184A
:10C490001B180B930C9B1B180C930B9B002B05DD9F
:10C4A0001A000599049800F065FB05900C9B002B81
:10C4B00005DD1A000899049800F05CFB0890169BB3
:10C4C000002B1DD00899059800F0A6FB002817DA6C
:10C4D000039B0A22013B039305990023049800F073
:10C4E000DCF9109B0590002B00D159E131000023AD
:10C4F0000A22049800F0D1F90600002F37DC33E05F
:10C500000A9B0A9F002B2ADC229B022B27DD002F8F
:10C5100012D108993B000522049800F0BEF908905A
:10C520000100059800F078FB00280DDC04E0089677
:10C5300002E000231E000893239B0D9DDB43039321
:10C540000AE00E9B089603930D9B0D9A5D1C312308
:10C550001370039B013303930A960026F3E0109BAC
:10C56000002B04D10D9DB5E0229B022BCFDC002CCB
:10C5700005DD31002200049800F0FCFA06000A965E
:10C58000002D12D07168049800F036F931000400D3
:10C5900033690C319A1C92000C3000F024F901220E
:10C5A0002100049800F0E6FA0A900D9B7D1E0B9383
:10C5B0005B190E9308990598FFF7AFFA31001090B8
:10C5C0000400059800F028FB0A9A050008990498D1
:10C5D00000F03DFB01230C93C36830340700002BAF
:10C5E00004D10100059800F017FB0C903900049865
:10C5F00000F03AF90C9B229A134308D1069A0133B2
:10C60000134204D1392C2AD0002D1CDC1DE0002D52
:10C6100006DB229B1D431BD10123069A134217D12F
:10C620000C9B002B11DD05990122049800F0A2FA61
:10C630000899059000F0F0FA002802DC05D1E30724
:10C6400003D5392C0BD0109C31340B9B5D1C0FE0B3
:10C650000B9B5F1C0C9B002B0CDD392C05D10B9B1D
:10C660000B9A5D1C3923137057E03D000B9B01347E
:10C670001C7068E00B9B0E9A3D001C7093423CD0EE
:10C6800000230A220599049800F007F90A9B0590F7
:10C690009E4208D1310000230A22049800F0FDF8E0
:10C6A00006000A900DE0310000230A22049800F0F1
:10C6B000F4F8002306000A220A99049800F0EDF825
:10C6C0000A900B9776E700230A220599049800F058
:10C6D000E4F8059008990598FFF71FFA0D9B303094
:10C6E000287001350400EB1ABB42ECDB3D1E00DC78
:10C6F00001250A9600260D9B5D19059901220498D3
:10C7000000F038FA0899059000F086FA002804DC59
:10C7100013D1E30701D410E01D006B1E1A78392AEB
:10C7200008D10D9A9A42F7D1039B01330393312329
:10C73000137008E001321A7005E06B1E1A78302A77
:10C7400001D11D00F9E70899049800F08DF80A9BC3
:10C75000002B0ED0002E05D09E4203D0310004984D
:10C7600000F082F80A99049800F07EF801E00E9B30
:10C7700003930498059900F077F800232B70039B2E
:10C78000249A01331360269B0D98002B10D01D6056
:10C790000EE0229B012B00DC43E6119D012065E6A3
:10C7A000002F00DDDEE6229B022B00DCDAE6AEE69F
:10C7B0001DB0F0BD00487047E420002010B5034BC9
:10C7C0000100186800F05CFB10BDC046E0200020AE
:10C7D000C9B28218904204D003788B4202D0013053
:10C7E000F8E700207047002310B59A4203D0CC5CD4
:10C7F000C4540133F9E710BD70B5466A04000D005A
:10C80000002E07D11020FFF7D9FF606246608660D6
:10C810000660C660666AF368002B09D0636AAA00E6
:10C82000DB689B18186800280ED002681A6017E0B1
:10C8300021220421200000F0C9FA636AF060DB685D
:10C84000002BEBD100200EE001210E00AE40721D46
:10C850009200200000F0BAFA0028F3D0456086600C
:10C8600000230361C36070BD70B5456A06000C000B
:10C87000002D07D11020FFF7A1FF70624560856091
:10C880000560C560002C07D0726A6368D2689B009F
:10C89000D3181A6822601C6070BDF7B50700080045
:10C8A0000C000D691E00002101921430019A0388CA
:10C8B000013153439B190668360C56431A0C9446B3
:10C8C000B4446246160C120494469BB2634408C0FA
:10C8D0008D42EBDC002E1BD0A3689D4212DB636807
:10C8E0003800591CFFF788FF2100236901909A1C2A
:10C8F00092000C310C30FFF776FF21003800FFF773
:10C90000B3FF019C2B1D9B00E31801355E60256180
:10C910002000FEBD00220300010C914201D103045E
:10C920001032190E01D108321B02190F01D1043245
:10C930001B01990F01D102329B001000002B03DB79
:10C9400020205B0000D5501C70470722036810B5FB
:10C9500001001A400CD001240020234223D10222DE
:10C96000134203D0E34020000B601CE09B0818E05A
:10C9700098B2002801D110221B0CD8B2002801D196
:10C9800008321B0A180701D104321B09980701D18C
:10C9900002329B08D80704D45B082020002B02D069
:10C9A000013210000B6010BD10B50C000121FFF723
:10C9B00023FF01234461036110BDF0B50B6914002E
:10C9C000126989B00D00934201DA25000C002F692D
:10C9D0002669AA68BB1969680193934200DD013199
:10C9E000FFF70AFF0200BB1914329B00D3189C46C4
:10C9F000002113000290634501D202C3FBE7143506
:10CA0000BF00EB191434B6000593A31903950793DF
:10CA1000079B9C4251D2208800281ED0150000267A
:10CA2000039F08CF069504936B461B8A4343190066
:10CA30002B88CB1804999B19090C41432E68360C9E
:10CA400089191E0C89190E0C9BB209040B4308C5E9
:10CA5000059BBB42E5D8069B5E6023681D0C1FD07A
:10CA6000002110001368039F04913E8801686E4303
:10CA7000090C7118049E9BB289190E04334303609C
:10CA800008CF86881B0C6B43090C9B195B18190C8B
:10CA90000491059906900430B942E6D806994B6096
:10CAA00004340432B4E704235B429C4463461B68AD
:10CAB000002B05D1019B013B0193019B002BF2DC74
:10CAC000029B019A18001A6109B0F0BD0323F7B563
:10CAD000134005000E001400002B08D02349013B31
:10CAE0009A00525800233100FFF7D7FE0600A3102A
:10CAF000019338D06C6A002C07D11020FFF75EFE3E
:10CB00006862446084600460C4606F6ABC68002C22
:10CB100010D117492800FFF747FF0023B860040031
:10CB2000036007E0019B5B1001931CD02068002884
:10CB300010D004000122019B1342F3D031002200E7
:10CB40002800FFF73AFF070031002800FFF78CFEAE
:10CB50003E00E7E7220021002800FFF72EFF002318
:10CB600020600360E5E73000FEBDC04688C00200DB
:10CB700071020000F0B50C0017002369551185B053
:10CB8000EB180193013300934968A3680290009A5F
:10CB9000934202DA01315B00F9E70298FFF72CFEBD
:10CBA00000230200060019001432AB4203DA980099
:10CBB00011500133F9E7EB43DB171D402300AD00B3
:10CBC00055192269143392009A1894461F2217406F
:10CBD00014D00132D21B0392002219682800B940F8
:10CBE0000A4304C504CB0399CA409C45F5D842606A
:10CBF000002A07D0019B0233009303E004CB04C555
:10CC00009C45FBD8009B0298013B33612100FFF754
:10CC10002BFE300005B0F0BD03690A6910B59B1A00
:10CC20000400181E12D1930014341431E218C918EC
:10CC3000043A043913680868834204D083429B4154
:10CC40000120184302E09442F2D3002010BDF0B559
:10CC50000C0085B00700110020001500FFF7DCFF75
:10CC6000061E07D101003800FFF7C6FD012346610B
:10CC7000036155E000230193984204DA23002C005D
:10CC80001D000123019361683800FFF7B5FD019B8A
:10CC900026692F00C3601434B300E3180200029326
:10CCA0002B69002514379B00FB180393143208CC22
:10CCB00069469C4608CF0432009363468B808B887C
:10CCC0005D19009B9BB2EB1A65460193009B2D0CEE
:10CCD000190C019B691A1D14131F9C466B464919B8
:10CCE0009B880D1409040B4361460B60039BBB42F8
:10CCF000DDD8029913008C420BD202CC8BB25B19A7
:10CD00001D14090C49190D149BB209040B4308C2E8
:10CD1000EFE7043B1A68002A01D1013EF9E70661FA
:10CD200005B0F0BDF7B51D000121089F1400FFF705
:10CD300063FD2B036D0006001B0B6D0D02D08022DE
:10CD4000520313430193002C18D068460094FFF758
:10CD5000FCFD009C002809D0019B20211A00091A23
:10CD60008A40C34022437261019300E07461019CD8
:10CD7000B461631E9C410134346107E001A8FFF7F0
:10CD8000E4FD0124019B346173612030002D06D045
:10CD90000B4BED1835232D183D60181A0BE0094B8D
:10CDA000C018094B3860E3189B00F3185869FFF767
:10CDB000B1FD6401201A099B18603000FEBDC04619
:10CDC000CDFBFFFFCEFBFFFFFFFFFF3F4A4370B5E8
:10CDD0001100140000F054F8051E03D022000021B9
:10CDE000FEF716FA280070BD70B50500002944D082
:10CDF0000C1F2368002B00DAE418280000F0B2F8BA
:10CE00001E4A13681100002B02D16360146031E0E8
:10CE1000A3420DD92268A018834203D118685B6829
:10CE20008218226063600C6024E0A24203D81300E1
:10CE30005A68002AF9D11E689819A0420BD12168BE
:10CE4000711858181960824214D11068526841183C
:10CE500019605A600EE0A04202D90C232B6009E051
:10CE600021686018824203D110685268411821601D
:10CE700062605C60280000F076F870BDC021002080
:10CE8000032370B5CD1C9D43083506000C2D01D23F
:10CE90000C2501E0002D01DBA94202D90C233360EF
:10CEA00048E0300000F05EF8234B1C681A002100B7
:10CEB000002913D00B685B1B0DD40B2B02D90B6020
:10CEC000CC181EE08C4202D1636813601AE04B68F4
:10CED00063600C0016E00C004968E9E7174C236812
:10CEE000002B03D1300000F02BF820602900300027
:10CEF00000F026F8431C18D00323C41C9C43A04216
:10CF00000DD12560300000F02EF8200007220B30F4
:10CF1000231D9043C31A0ED05A42E2500BE0211A4F
:10CF2000300000F00DF8431CEBD10C2330003360CF
:10CF300000F019F8002070BDC0210020BC210020A5
:10CF4000002370B5064C05000800236000F00CF8C3
:10CF5000431C03D12368002B00D02B6070BDC0465A
:10CF60003C320020704770470E4B10B51A68002AFB
:10CF700001D10D4A1A6069461A681018884206D80D
:10CF80000A490B4C0968A14208D0884206D900F032
:10CF900029F80C2303600120404201E018601000D2
:10CFA00010BDC046C4210020783300201C21002081
:10CFB000ADDEFECA012110B5494200F001F810BDF6
:10CFC00030B51824062901D1044D00E0044D201C81
:10CFD000291CABBE041C200030BDC046230002004B
:10CFE00026000200014B18687047C046E020002070
:10CFF000BFF34F8F034B044ADA60BFF34F8FC04635
:10D00000FDE7C04600ED00E00400FA0576DF70475A
:10D01000C04618007ADF7047C04618007CDF7047B2
:10D02000C0461800A9DF7047C04618003CDF7047B3
:10D03000C046180048DF7047C046180000B583B0EE
:10D0400001900091019B180001F070FBC04603B0F5
:10D0500000BDC04610B586B06B460F4A13CA13C355
:10D0600012681A600D4A69460D48002309F038FA23
:10D0700003000593059B0493049B002B05D0094AEC
:10D08000049B7A2118000AF06FF8054B180009F08C
:10D09000C9FAC04606B010BD64C102003DD001000F
:10D0A0002421002028C1020000B585B00190019B19
:10D0B000180001F0B5FC03000393039B0293029B4D
:10D0C000002B05D0044A029B942118000AF04CF86A
:10D0D000C04605B000BDC04628C1020000B585B0FD
:10D0E000314A324B190000200BF0E4FDFFF7B2FF8C
:10D0F0002F4B180001F022FC03000393039B0293C3
:10D10000029B002B05D02B4A029BA52118000AF098
:10D110002BF8032301220121012001F01BFC030055
:10D120000393039B0193019B002B05D0214A019B94
:10D13000A82118000AF018F801F0CAFC03000393B4
:10D14000039B0093009B002B05D01A4A009BAB2148
:10D1500018000AF009F8184B1800FFF7A5FFFA238A
:10D160005B00180000F0B6FE134B1800FFF79CFFA1
:10D17000114B9A68104B5A600F4B9A680E4B1A600D
:10D180000D4B5A690C4B1A610B4B5A690A4BDA600A
:10D19000094B1A6A084BDA61074B1A6A064B9A6107
:10D1A000C04605B000BDC04674C1020080C1020087
:10D1B0002421002028C102009432002000B58BB049
:10D1C000059004910392039B08934B4B1900002098
:10D1D0000BF070FD089B9A68089B1B889BB2180097
:10D1E000089B5B6845490093030000200BF062FD3B
:10D1F000434B190000200BF05DFDA023DA05A123AD
:10D20000DB00F0214904D150A023DB053D4A002179
:10D210009950089B9A68B8235B011A40B8235B01B8
:10D220009A4236D127236B4400221A7020E0A023B3
:10D23000DB05354A9B580793A023DA05079BD943A2
:10D2400080235B041940A123DB00D150A023DB0520
:10D250000799802252040A402A495A50642000F05B
:10D2600039FE27236B441A7827236B4401321A7046
:10D2700027236B441B78312BD9D9244B180009F094
:10D28000A9F9642000F026FEFFF7E4FEFFF726FF71
:10D290002EE026236B4400221A7022E0A023DB0537
:10D2A000194A9B580693A023DA05069BD943F0231D
:10D2B0005B041940A123DB00D150A023DB050699B4
:10D2C000F02252040A400F495A50FA239B001800DA
:10D2D00000F000FE26236B441A7826236B440132AB
:10D2E0001A7026236B441B78092BD7D9FFF780FED1
:10D2F000C0460BB000BDC04694C102009CC10200F4
:10D30000C0C102000C05000004050000242100201B
:10D3100082B00190024B01221A70C04602B07047E1
:10D320000C22002082B00190024B01221A70C046EC
:10D3300002B070470D22002000B587B01F4A0023BD
:10D34000052100200AF0A8FD03000593059B049326
:10D35000049B002B06D01A4A83235900049B180013
:10D3600009F002FF174A184B012118000AF016FEB7
:10D3700003000393039B0293029B002B06D0104AE9
:10D3800085235900029B180009F0EEFE0F4A104B4E
:10D39000012118000AF002FE03000393039B01938E
:10D3A000019B002B07D0064A0E23FF331900019B77
:10D3B000180009F0D9FEC04607B000BD10220020B9
:10D3C00028C1020011D3010020C1020025D30100B1
:10D3D00024C1020000B587B06B461A780F218A433A
:10D3E000111C01220A431A706B461A780F210A4059
:10D3F000111C10220A431A70204B1800FEF786FBFE
:10D4000003009AB21D496B461800FFF707FE0300A0
:10D410000593059B0493049B002B06D0184A912387
:10D420005900049B180009F09FFE01AB082200215F
:10D430001800FDF7EDFE01AB10221A8001AB282287
:10D440005A8001AB00229A8001ABC8225200DA80D8
:10D4500001AB1800FFF7DEFD03000593059B039366
:10D46000039B002B06D0064A96235900039B180005
:10D4700009F07AFEC04607B000BDC046C8C1020030
:10D4800028C1020010B5054B180001F005F8044B47
:10D49000180001F081FFC04610BDC0467832002060
:10D4A000B832002000B585B00190019B1B78002B9D
:10D4B00013D10B4B1B883B211800FFF7A7FD03007E
:10D4C0000393039B0293029B002B06D0054AA623DD
:10D4D0005900029B180009F047FEC04605B000BD88
:10D4E0002021002028C1020000B583B00190054A28
:10D4F0005823FF331900019B180009F035FEC04680
:10D5000003B000BD28C1020000B58BB001AB1C22E6
:10D5100000211800FDF77CFE01AB00221A6001AB70
:10D52000A02292025A6001ABF02212039A6001AB72
:10D5300003221A7301AB0022DA8101AB00221A74B4
:10D5400001AB0D4A5A6101AB0C4A9A6101AB18005C
:10D5500004F03CFC03000993099B0893089B002BF3
:10D5600006D0074AB7235900089B180009F0FCFDB4
:10D57000C0460BB000BDC046A5D40100E9D40100EF
:10D5800028C1020000B585B01648C0235B02002206
:10D5900019000AF04DFD03000393039B0293029BC5
:10D5A000002B07D0104A7A23FF331900029B180082
:10D5B00009F0DAFD0D48A023DB02002219000AF071
:10D5C00037FD03000393039B0193019B002B06D0BF
:10D5D000054ABE235900019B180009F0C5FDC0464D
:10D5E00005B000BDCC21002028C10200EC210020A4
:10D5F00000B585B0002002F04BFD03000393039BB0
:10D600000293029B002B07D0164A8823FF33190090
:10D61000029B180009F0A8FD02F01CFF0300039311
:10D62000039B0193019B002B07D00E4A8C23FF33F1
:10D630001900019B180009F097FDFFF7F7FC0300A4
:10D640000393039B0093009B002B07D0054A902374
:10D65000FF331900009B180009F086FDC04605B095
:10D6600000BDC04628C1020000B585B002006B466F
:10D6700007331A706B4607331B78002B15D0032B2A
:10D6800000D016E0022002F003FD03000393039B89
:10D690000293029B002B0BD0074AA223FF331900F1
:10D6A000029B180009F060FD02E0FFF7A1FF00E017
:10D6B000C046C04605B000BD28C1020000B587B015
:10D6C0000190019B180001F0E1FF019B1B88112BC9
:10D6D00036D0522B39D0102B00D04CE0072002F06E
:10D6E000D7FC03000593059B0493049B002B06D0F5
:10D6F000224ADD235900049B180009F035FD019BE7
:10D700009A881F4B1A801E4B188800230022002184
:10D71000FFF788FC03000593059B0393039B002BF5
:10D7200007D0164ABE23FF331900039B180009F0E7
:10D730001BFD144B01221A70134B01221A701AE0C0
:10D740000F4B012252421A8015E00D4B188800231E
:10D7500000220021FFF766FC03000593059B02935E
:10D76000029B002B06D0054AE4235900029B1800B7
:10D7700009F0FAFCC046C04607B000BD28C102004F
:10D78000202100200C2200200D22002000B583B0B3
:10D790000190019B180005F083FC019B180004F028
:10D7A0004BFC019B180002F069FE019B1800FFF77B
:10D7B00085FF019B180004F037F9019A064B110010
:10D7C000180000F04BFC019A044B1100180001F006
:10D7D00019FDC04603B000BD78320020B8320020E9
:10D7E00000B583B00190019B180007F067FE019B14
:10D7F000180004F0C3F9C04603B000BD00B591B0F5
:10D8000006AA3C4B1000190004231A00FEF7EBFF98
:10D81000394906A8002348220BF0ECFB03000F93C4
:10D820000F9B0E930E9B002B06D0344AFF2359000A
:10D830000E9B180009F098FC01AB1A000121002092
:10D840000BF062FC03000D930D9B0C930C9B002BC3
:10D8500006D02A4A812399000C9B180009F084FC09
:10D86000274B0B930B9B18000BF0A2FC03000D93AE
:10D870000D9B0A930A9B002B05D0204A21490A9B45
:10D88000180009F071FC01AB18000BF0BBFC0300A1
:10D890000D930D9B0993099B002B05D0174A1A493C
:10D8A000099B180009F060FC184B18000BF0EAFB0C
:10D8B00003000D930D9B0893089B002B05D00F4A86
:10D8C0001349089B180009F04FFC124B18000BF08D
:10D8D000E9FB03000D930D9B0793079B002B05D0DD
:10D8E000064A0D49079B180009F03EFCC04611B0DE
:10D8F00000BDC046CCC10200D823002028C10200D0
:10D90000E81F0020070200000B0200008DD7010075
:10D910000F020000E1D701001302000000B587B03C
:10D9200002006B4607331A706B4607331B78072BD0
:10D930001FD00A2B02D0042B03D031E0FFF758FE92
:10D940002EE0194B1B8813211800FFF75FFB030023
:10D950000593059B082B20D0059B0493049B002B6B
:10D960001BD0124A8A239900049B180009F0FCFB83
:10D9700013E004F033F903000593059B082B0ED048
:10D98000059B0393039B002B09D0084A8C23990025
:10D99000039B180009F0E8FB01E0C04600E0C04628
:10D9A000C04607B000BDC0462021002028C10200AB
:10D9B00000B587B0039002910192019B0593059BEE
:10D9C000002B05D0044A0549059B180009F0CCFB43
:10D9D0000023180007B000BD28C102004202000069
:10D9E00000B58BB002006B4607331A7005AB6A4670
:10D9F000073212781A7007F0D5FE03000993099BCD
:10DA00000893089B002B06D0304A97239900089B67
:10DA1000180009F0A9FB05AB180005F0E3F90300B5
:10DA20000993099B0793079B002B05D0274A284998
:10DA3000079B180009F098FB02AB05330522002173
:10DA40001800FDF7E5FB02AB5A7901210A435A7130
:10DA500002AB5A7902218A435A7102AB5A790421E6
:10DA60008A435A7102AB5A7908218A435A7102AB30
:10DA70005A7970218A43111C30220A435A7102AB31
:10DA80005A797F210A405A7102AB07229A7102AB80
:10DA90001022DA7102AB0F4A1A6002AB01221A712E
:10DAA00002AA0D4B1100180005F042FA0300099379
:10DAB000099B0693069B002B05D0044A0749069B49
:10DAC000180009F051FBC0460BB000BD28C1020090
:10DAD0005F020000B1D90100C82100206F020000E0
:10DAE00000B58FB01F4B382200211800FDF790FBC6
:10DAF0001C4B02221A701B4B01229A70194B0622F2
:10DB0000DA70184B01221A82164B174A5A6103AB7E
:10DB1000180024231A000021FDF77AFB03AB012231
:10DB20001A7303AB962252001A6103AB00225A61AA
:10DB30000E4903AA0B48002300930B00002103F0B9
:10DB4000B3FC03000D930D9B0C930C9B002B06D094
:10DB5000074AA22399000C9B180009F005FBC04658
:10DB60000FB000BD403200202C21002069D60100FA
:10DB700028C1020000B587B00190194B19491A005D
:10DB8000032002F0A1FA03000593059B0493049B74
:10DB9000002B05D0144A1549049B180009F0E4FA3B
:10DBA0000B236B441900002002F0AEFC0300059328
:10DBB000059B0393039B002B05D00B4A0C49039B49
:10DBC000180009F0D1FA0B236B441B78023B5A4230
:10DBD0005341DAB2019B1A70C04607B000BDC0467F
:10DBE0001DD90100CD0C000028C1020097020000E1
:10DBF0009A02000000B583B0FFF71CFA03000193FE
:10DC0000019B0093009B002B05D0044A0449009B14
:10DC1000180009F0A9FAC04603B000BD28C10200EF
:10DC2000A502000000B585B001AB012252421A8066
:10DC300001AB24229A8001AB064A9A60064B01AAE6
:10DC40005A62054B0021180003F090FBC04605B056
:10DC500000BDC0469432002040320020F0B595B09F
:10DC6000FFF76AFB47236B441800FFF783FFFFF7BA
:10DC7000C5FD47236B441B781800FFF7B1FEFFF783
:10DC8000A9FBFFF72DFFFFF7FDFBFFF73DFCFFF7BB
:10DC900025FAFFF777FC032003F02EFD0300139312
:10DCA000139B1293129B002B06D07D4AB32399003D
:10DCB000129B180009F058FA7A4B1B78DBB2002B44
:10DCC00000D1DFE0784B1800FFF7EEF9774A784B88
:10DCD0001100180000F032FC764A754B1100180054
:10DCE00000F070FC744A724B1100180000F0AEFC9A
:10DCF000724B190000200AF0C9FB6B4B1B6A18001D
:10DD00000CF0A8F8031C6E49181C0BF041FF031C13
:10DD1000181C0DF0CBFE06000F00634BDB691800EA
:10DD20000CF098F8031C6649181C0BF031FF031C1B
:10DD3000181C0DF0BBFE04000D005B4B9B69180026
:10DD40000CF088F8031C5E49181C0BF021FF031C23
:10DD5000181C0DF0ABFE02000B005A4905A80292F8
:10DD600003930094019532003B000DF021FF05ABB9
:10DD7000190000200AF09EFF4B4B9B6818000CF026
:10DD800069F8031C8921C905181C0BF001FF031C4D
:10DD9000181C0DF08BFE06000F00434B5B6818004B
:10DDA0000CF058F8031C8921C905181C0BF0F0FE73
:10DDB000031C181C0DF07AFE04000D003A4B1B6882
:10DDC00018000CF047F8031C8921C905181C0BF03A
:10DDD000DFFE031C181C0DF069FE02000B003A491F
:10DDE00005A8029203930094019532003B000DF0C8
:10DDF000DFFE05AB190000200AF05CFF2A4B5B69CF
:10DE000018000CF027F8031C2D49181C0BF0C0FE5D
:10DE1000031C181C0DF04AFE06000F00224B1B6964
:10DE200018000CF017F8031C2549181C0BF0B0FE65
:10DE3000031C181C0DF03AFE04000D001A4BDB68A1
:10DE400018000CF007F8031C1D49181C0BF0A0FE6D
:10DE5000031C181C0DF02AFE02000B001B4905A82C
:10DE6000029203930094019532003B000DF0A0FE56
:10DE700005AB190000200AF01DFFFFF7D3FE094B88
:10DE800000221A70124B1B78DBB2002B04D001F079
:10DE900013F90F4B00221A70FFF7ACFE0CE7C046D7
:10DEA00028C102000C22002094320020B43200204D
:10DEB000783200209C320020A8320020D0C102001D
:10DEC0000000C842DCC1020008C2020030C20200E9
:10DED0000D22002084B0019014E0019B013B0193CE
:10DEE0000B4B0393039B18000138C046C046C04645
:10DEF000C046C046C046C046C046C046C046C046F2
:10DF0000C046F1D1019B002BE7D1C04604B0704759
:10DF1000E7030000A0DF7047C0461800A2DF70478B
:10DF2000C0461800A5DF7047C0461800A6DF70473E
:10DF3000C046180063DF7047C046180000B58BB0BC
:10DF40000190009104AB02221A8004AB00225A8097
:10DF500004AB0E226A445A60009BDA88019B1B893D
:10DF60009A4221D1019B1888019B1B8904AA1900A0
:10DF7000FFF7D8FF03000993099B0893089B002B28
:10DF800005D0324A089B2921180009F0EDF80E232C
:10DF90006B441B88012B03D12D4B01221A7052E0D8
:10DFA0002B4B00221A704EE0009BDA88019B1B8AE3
:10DFB0009A4221D1019B1888019B1B8A04AA19004F
:10DFC000FFF7B0FF03000993099B0793079B002B02
:10DFD00005D01E4A079B3621180009F0C5F80E230C
:10DFE0006B441B88012B03D11A4B01221A702AE0C3
:10DFF000184B00221A7026E0009BDA88019B1B8BCD
:10E000009A4220D1019B1888019B1B8B04AA1900FE
:10E01000FFF788FF03000993099B0693069B002BDB
:10E0200005D00A4A069B4321180009F09DF80E23EB
:10E030006B441B88012B03D1074B01221A7002E0AD
:10E04000054B00221A70C0460BB000BD58C202003A
:10E0500020240020222400202124002000B583B0A9
:10E0600001900091009B1B88112B09D0502B0CD0E4
:10E07000102B00D010E0009B9A88019B1A800BE0C7
:10E08000019B012252421A8006E0009A019B110076
:10E090001800FFF753FFC046C04603B000BDC0469E
:10E0A00000B595B001900023139311AB01229A7033
:10E0B00011AB4E4A1A800AAB1C2200211800FDF752
:10E0C000A7F80AAB1A7802210A431A7009AB032297
:10E0D00000211800FDF79CF809AB1A780F218A433C
:10E0E000111C01220A431A7009AB1A780F210A4049
:10E0F000111C10220A431A7009AB5A780F218A4367
:10E10000111C01220A435A7009AB5A780F210A40A8
:10E11000111C10220A435A7009AB9A7806218A43CF
:10E12000111C02220A439A700AAB09AA5A610AAB6F
:10E130001A7810210A431A7008AB03220021180034
:10E14000FDF766F808AB9A7806218A43111C022273
:10E150000A439A7008AB1A780F218A43111C0122D6
:10E160000A431A7008AB1A780F210A40111C1022BA
:10E170000A431A7008AB5A780F218A435A7008ABC9
:10E180005A780F210A405A7003AB1422002118005C
:10E19000FDF73EF803AB11AA1A6003AB08AA5A6058
:10E1A00003AB04229A8103AB04221A8102AB002242
:10E1B0001A6003AB02AA1A61019B5888019B1433B1
:10E1C00003AA0AA9FFF7AAFE03001393139B129355
:10E1D000129B002B05D0064A129B8F21180008F0D5
:10E1E000C3FF0023180015B000BDC0465EE5FFFF69
:10E1F00058C2020000B595B001900023139311ABF3
:10E2000001229A7011ABD222FF321A800AAB1C2273
:10E2100000211800FCF7FCFF0AAB1A7802210A4320
:10E220001A7009AB032200211800FCF7F1FF09ABBB
:10E230001A780F218A43111C01220A431A7009AB74
:10E240001A780F210A40111C10220A431A7009ABD8
:10E250005A780F218A43111C01220A435A7009ABD4
:10E260005A780F210A40111C10220A435A7009AB38
:10E270009A7806218A43111C02220A439A700AAB3B
:10E2800009AA5A610AAB1A7810210A431A7008AB1E
:10E29000032200211800FCF7BBFF08AB9A78062187
:10E2A0008A43111C02220A439A7008AB1A780F2184
:10E2B0008A43111C01220A431A7008AB1A780F21F5
:10E2C0000A40111C10220A431A7008AB5A780F2119
:10E2D0008A435A7008AB5A780F210A405A7003AB30
:10E2E000142200211800FCF793FF03AB11AA1A6057
:10E2F00003AB08AA5A6003AB04229A8103AB042241
:10E300001A8102AB00221A6003AB02AA1A61019BB8
:10E310005888019B0C3303AA0AA9FFF7FFFD0300ED
:10E320001393139B1293129B002B05D0044A129B4C
:10E33000C321180008F018FF0023180015B000BD15
:10E3400058C2020000B595B001900023139311ABA1
:10E3500001229A7011AB4E4A1A800AAB1C2200218E
:10E360001800FCF755FF0AAB1A7802210A431A700D
:10E3700009AB032200211800FCF74AFF09AB1A7809
:10E380000F218A43111C01220A431A7009AB1A7823
:10E390000F210A40111C10220A431A7009AB5A7847
:10E3A0000F218A43111C01220A435A7009AB5A7883
:10E3B0000F210A40111C10220A435A7009AB9A78A7
:10E3C00006218A43111C02220A439A700AAB09AA49
:10E3D0005A610AAB1A7810210A431A7008AB03225B
:10E3E00000211800FCF714FF08AB9A7806218A4335
:10E3F000111C02220A439A7008AB1A780F218A4333
:10E40000111C01220A431A7008AB1A780F210A4026
:10E41000111C10220A431A7008AB5A780F218A4344
:10E420005A7008AB5A780F210A405A7003AB142275
:10E4300000211800FCF7ECFE03AB11AA1A6003AB35
:10E4400008AA5A6003AB04229A8103AB04221A8102
:10E4500002AB00221A6003AB02AA1A61019B588822
:10E46000019B043303AA0AA9FFF758FD0300139385
:10E47000139B1293129B002B05D0064A129BF72187
:10E48000180008F071FE0023180015B000BDC0464A
:10E49000AEEEFFFF58C2020000B58BB0019002AA99
:10E4A000234B1000190010231A00FEF79CF906AB4D
:10E4B000204A1A8006AB9A1C02AB11001800FFF725
:10E4C00039FD03000993099B0893089B002B06D094
:10E4D000194A85235900089B180008F045FE019B46
:10E4E000012252421A80019B9A1C06AB190001209E
:10E4F000FFF710FD03000993099B0793079B002B6F
:10E5000006D00D4A89235900079B180008F02CFEFD
:10E51000019B1800FFF716FF019B1800FFF76AFE2A
:10E52000019B1800FFF7BCFDC0460BB000BDC04604
:10E53000A0C202000DF0FFFF58C2020000B589B072
:10E5400001900091019B1B881B4A934231D01B4BC9
:10E550001B78DBB2002B2CD01A236B4404221A80C8
:10E5600002AB102200211800FCF752FE019B9A8892
:10E5700002AB1A8002AB01229A7002AB00229A8091
:10E5800002AB1A226A449A6002AB009ADA60019BDD
:10E590001B8802AA11001800FFF7C8FC03000793AC
:10E5A000079B002B05D0079A054B190000200AF0A5
:10E5B00081FBC04609B000BDFFFF00002024002001
:10E5C000B0C2020000B589B001900091019B1B8888
:10E5D0001B4A934231D01B4B1B78DBB2002B2CD053
:10E5E0001A236B4404221A8002AB10220021180067
:10E5F000FCF70EFE019B9A8902AB1A8002AB012246
:10E600009A7002AB00229A8002AB1A226A449A6086
:10E6100002AB009ADA60019B1B8802AA1100180065
:10E62000FFF784FC03000793079B002B05D0079A94
:10E63000054B190000200AF03DFBC04609B000BDA3
:10E64000FFFF000022240020C8C2020000B589B0EC
:10E6500001900091019B1B881B4A934231D01B4BB8
:10E660001B78DBB2002B2CD01A236B4404221A80B7
:10E6700002AB102200211800FCF7CAFD019B9A8A08
:10E6800002AB1A8002AB01229A7002AB00229A8080
:10E6900002AB1A226A449A6002AB009ADA60019BCC
:10E6A0001B8802AA11001800FFF740FC0300079323
:10E6B000079B002B05D0079A054B190000200AF094
:10E6C000F9FAC04609B000BDFFFF00002124002078
:10E6D000E0C2020000B583B001900122019B9A4084
:10E6E0001300180000F004F8C04603B000BDC04697
:10E6F00084B00190A023DB050A4A9B580393A02312
:10E70000DA05039BDB4301991940A123DB00D150BB
:10E71000A023DB05039A01990A4003495A50C046D9
:10E7200004B07047040500000C05000000B585B07A
:10E730000190019B1B78012B25D0022B2FD0002BA1
:10E7400000D03BE01820FFF7C5FF019B1B79012B90
:10E7500010D002DC002B05D014E0022B0ED0032BCE
:10E7600004D00FE0174B01221A700BE0154B012269
:10E770001A7007E0144B01221A7003E0124B0122B9
:10E780001A70C0461AE0114B0393039B002B12D062
:10E790000F4A039B3121180008F0E6FC0BE00D4BFB
:10E7A0000293029B002B08D0094A029B34211800D7
:10E7B00008F0DAFC01E0C04600E0C046C04605B003
:10E7C00000BDC04628240020292400200117000095
:10E7D000F8C202000217000000B589B002000F2342
:10E7E0006B441A700E236B440A1C1A701B4B079360
:10E7F00005AB0F226A4412781A7005AB0E226A44E8
:10E8000012785A70164B186805AA00230093022349
:10E81000762108F03FFA03000693069B002B01D0F7
:10E82000069B17E0C0460F4B1B78DBB2012253401A
:10E83000DBB2002B05D0079B013B0793079B002B06
:10E84000F1D1079B002B01D1074B03E0054B0022C0
:10E850001A70069B180009B000BDC04660E31600A0
:10E8600024240020282400200D17000000B589B0C2
:10E870000491039217236B44021C1A702A4B0793CE
:10E880002A4B186817226A4400230093012376213B
:10E8900008F000FA03000693069B002B01D0069BAC
:10E8A0003FE0C046224B1B78DBB201225340DBB273
:10E8B000002B05D0079B013B0793079B002BF1D151
:10E8C000079B002B01D11B4B2BE0194B00221A7028
:10E8D000164B1868039BDBB2049A762108F00CFAF9
:10E8E00003000693069B002B01D0069B19E00E4BFC
:10E8F0000793C046104B1B78DBB201225340DBB2BA
:10E90000002B05D0079B013B0793079B002BF1D100
:10E91000079B002B01D1074B03E0074B00221A7025
:10E92000069B180009B000BD60E3160024240020F7
:10E93000282400200D1700002924002082B0019017
:10E94000034B019A1A600023180002B07047C046BA
:10E950002424002030B585B005000C0010001900FB
:10E960006B4607332A1C1A706B460633221C1A703A
:10E970006B460533021C1A7001AB0A1C1A706B46F9
:10E9800006331B781900F220FFF726FF03000393DC
:10E99000039B002B01D0039B22E06B4607331B78BF
:10E9A0005B015AB26B4605331B789B005BB2134385
:10E9B0005AB201AB1B785BB213435AB20B236B44C0
:10E9C0001A700B236B441B781900F420FFF704FF27
:10E9D00003000393039B002B01D0039B00E0002363
:10E9E000180005B030BDC04686B00190019B1B6881
:10E9F0000593019B5B680493019B9B680393039AB7
:10EA0000059B9A4202D2019B039A1A60039A049BC7
:10EA10009A4202D9019B039A5A60C04606B07047D9
:10EA200000B589B0019002AB180008231A0000213C
:10EA3000FCF7EEFB02AB08221900F720FFF716FFE8
:10EA40000300079302AB9B791B0202AAD2791343FE
:10EA5000069302AB1B781A0402AB5B781B021343CC
:10EA600002AA927813431B11059302ABDB781A04B8
:10EA700002AB1B791B02134302AA527913431B11E9
:10EA80000493069B180000F0A9F90200019B9A600C
:10EA9000059B180000F006F90200019B5A61049BD7
:10EAA000180000F0C9F80200019B1A62019B1800CF
:10EAB000FFF79AFF019B0C331800FFF795FF019BAE
:10EAC00018331800FFF790FF079B180009B000BD2E
:10EAD00000B59FB06F236B4460221A706F236B44A4
:10EAE0001A7801AB19008820FFF7C0FE03001A93C3
:10EAF0001A9B002B01D01A9B98E067236B446F226E
:10EB00006A441278013A1A7067236B441B7801AA91
:10EB1000D35C5AB2474B1A7667236B4467226A4428
:10EB20001278013A1A7067236B441B7801AAD35CF0
:10EB30001B011AB267236B446721694409780139C4
:10EB4000197067236B441B7801A9CB5C1B09DBB2EE
:10EB50001BB213431AB2374B5A8367236B441B789B
:10EB600001AAD35C1BB20F2213401AB267236B4475
:10EB70006721694409780139197067236B441B7850
:10EB800001A9CB5C1B011BB213431AB2294B9A8318
:10EB900067236B4467226A441278013A1A7067232C
:10EBA0006B441B7801AAD25C224B9A7767236B4493
:10EBB00067226A441278013A1A7067236B441B7803
:10EBC00001AAD35C1B021AB267236B446721694414
:10EBD00009780139197067236B441B7801A9CB5C54
:10EBE0001BB213431AB2134B1A8467236B441922C6
:10EBF0001A7067236B441B7801AAD15C0D4B22224B
:10EC000099540C4B1D9388231C930BE01C9B883B51
:10EC100001AAD25C1D9B1A701D9B01331D931C9B86
:10EC200001331C931C9B9F2BF0DD002318001FB0A9
:10EC300000BDC046C832002086B00190019BDA10AA
:10EC4000164B1B885B00D31A144A0221525E5343B1
:10EC5000DB120593019B1B11104A12889B1A019A23
:10EC600012110E490988521A53431B130B4A0421EF
:10EC7000525E53439B130493059A049BD218084B8E
:10EC80001A60074B1A6813009B009B1880331B12F5
:10EC90000393039B180006B07047C046C83200209B
:10ECA000EC32002000B587B00190474B1B685B1029
:10ECB000464A944663440493049B9B10049A921022
:10ECC0005343DB12424A1021525E53430393404B9D
:10ECD0000E229B5E1A00049B53435B00039AD318D9
:10ECE0000393039B9A103A4B0C215B5E1B04D318D1
:10ECF0000393374B0A229B5E1900049B9B10049AD6
:10ED0000921053435B134B43DA10314B08215B5E87
:10ED10001900049B4B435B10D3189B140493049B72
:10ED20008022120294466344294AD2885343DB135B
:10ED30000493049B002B01D1002341E0019B5B4223
:10ED4000039A12139B1A234A5343234A944663445B
:10ED50000593059B002B09DB059B5B00049A1100C2
:10ED600018000AF043FD0300059307E0049B190017
:10ED700005980AF03BFD03005B000593144B162237
:10ED80009B5E1900059BDB08059AD20853435B0B79
:10ED90004B431B130493059B9B081A000C4B142137
:10EDA0005B5E53435B130393049A039BD318084A97
:10EDB0001221525E9B181A11059BD3180593059BCF
:10EDC000180007B000BDC046EC3200200006FFFF6F
:10EDD000C8320020350C0000000050C384B0019000
:10EDE0002D4B1B682D4A944663440393019B9A0361
:10EDF0002B4B1C215B5E1B05D21A294B1A215B5E33
:10EE00001900039B4B43D31A8022D20194466344DA
:10EE1000DB13234A127E52B21100039A4A43921224
:10EE20001F49897F080003994143C91280200002CD
:10EE3000844661444A439212802189038C4662448D
:10EE400017492020095E4A43802189018C4662448B
:10EE5000921353430393039BDB13039AD21353433D
:10EE6000DB110F4A2221525C53431B11039AD31A20
:10EE70000393039B002B00DA00230393039BC82218
:10EE80005205934201DDC8235B050393039B1B13CB
:10EE9000180004B07047C046EC32002000D4FEFFDA
:10EEA000C8320020A0DF7047C0461800A2DF7047BC
:10EEB000C0461800A5DF7047C0461800A6DF70479F
:10EEC000C046180000B585B002006B4606331A80B4
:10EED0006B4606331B88404A934204D90F236B4488
:10EEE00064221A7071E06B4606331B883B4A9342DA
:10EEF00012D96B4606331B88394AD31A3A22534338
:10EF0000642118000AF0FCFC0300DAB20F236B4402
:10EF100064218A1A1A7058E06B4606331B88314AFE
:10EF2000934214D96B4606331B882C4AD21A13001D
:10EF30005B009B18DB00A02118000AF0E1FC030035
:10EF4000DAB20F236B442A218A1A1A703DE06B460D
:10EF500006331B88244A934216D96B4606331B8816
:10EF6000204AD21A13005B009B189B001A009623BC
:10EF7000590010000AF0C4FC0300DAB20F236B44FE
:10EF800012218A1A1A7020E06B4606331B88174A32
:10EF9000934216D96B4606331B88134AD21A1300C4
:10EFA0005B009B185B001A00AA23590010000AF0AE
:10EFB000A7FC0300DAB20F236B4406218A1A1A70E9
:10EFC00003E00F236B4400221A700F236B441B785D
:10EFD000180005B000BDC046B70B0000540B000080
:10EFE000B80B0000B40A00008809000034080000D3
:10EFF00010B586B002000E236B441A800E236B44BA
:10F0000000229B5E18000AF0DDFE031C2449181C38
:10F010000AF0BEFD031C181C0CF048FD214A224BCF
:10F020000BF0A6FE03000C001800210000221F4B6D
:10F030000BF09EFE03000C001800210000221C4B68
:10F040000BF096FE03000C00180021000AF082FD70
:10F0500003009AB216236B442932FF321A8015241A
:10F060006C4416236B441B881800FFF72BFF03002A
:10F0700023700E236B4400229A5E16236B4418887B
:10F0800015236B441B780B4900930300002009F003
:10F0900011FE15236B441B78180006B010BDC04646
:10F0A00000C07F44333333333333F33F0000084031
:10F0B00000408F403CC3020000B583B06B46023372
:10F0C000012118000AF008FA03000193019B112B9B
:10F0D00001D1112301E00AF0A9F9180003B000BD25
:10F0E00000B583B00190019B1B78002B02D0012B4F
:10F0F00015D015E0019B5B6800229B5E1800FFF7AE
:10F1000077FF03001A00084B1A70084B1A68064B69
:10F110001B78DBB21900100000F072F900E0C04665
:10F12000C04603B000BDC046F03200202C240020B1
:10F1300000B585B001AB03221A70114B1A781C215F
:10F140008A43111C18220A431A700E4A01AB11009F
:10F1500018000AF01FF903000393039B0293029B1C
:10F16000002B05D0084A029B4A21180007F0FCFF3B
:10F17000034B18000AF03AF9C04605B000BDC0467E
:10F1800030210020E1F001005CC3020000B589B02D
:10F190000190009104AB02221A8004AB00225A8035
:10F1A00004AB0E226A445A60009BDA88019B1B89DB
:10F1B0009A4220D1019B1888019B1B8904AA19003F
:10F1C000FFF778FE03000793079B0693069B002B2F
:10F1D00005D00A4A069B5E21180007F0C5FF0E23E2
:10F1E0006B441B88012B03D1054B01221A7002E0EE
:10F1F000034B00221A70C04609B000BD5CC3020078
:10F20000F132002000B583B001900091009B1B8873
:10F21000112B09D0502B0CD0102B00D010E0009BEC
:10F220009A88019B1A800BE0019B012252421A80AE
:10F2300006E0009A019B11001800FFF7A7FFC046E7
:10F24000C04603B000BDC04600B595B00190002394
:10F25000139311AB01229A7011AB4D4A1A800AAB7D
:10F260001C2200211800FBF7D3FF0AAB1A780221F9
:10F270000A431A7009AB032200211800FBF7C8FFEC
:10F2800009AB1A780F218A43111C01220A431A7014
:10F2900009AB1A780F210A40111C10220A431A7078
:10F2A00009AB5A780F218A43111C01220A435A7074
:10F2B00009AB5A780F210A40111C10220A435A70D8
:10F2C00009AB9A7806218A43111C02220A439A70DC
:10F2D0000AAB09AA5A610AAB1A7810210A431A70BC
:10F2E00008AB032200211800FBF792FF08AB9A78C5
:10F2F00006218A43111C02220A439A7008AB1A782D
:10F300000F218A43111C01220A431A7008AB1A7894
:10F310000F210A40111C10220A431A7008AB5A78B8
:10F320000F218A435A7008AB5A780F210A405A704D
:10F3300003AB142200211800FBF76AFF03AB11AAEC
:10F340001A6003AB08AA5A6003AB01229A8103AB8F
:10F3500001221A81019B0C331A0003AB1A61019B35
:10F360005888019B043303AA0AA9FFF79FFD0300F5
:10F370001393139B1293129B002B05D0054A129BEB
:10F38000AA21180007F0F0FE0023180015B000BDF8
:10F39000192A00005CC3020000B587B00190154B2C
:10F3A000019A1A60FFF7C4FE03AB01229A7003AB07
:10F3B000114A1A80019B012252421A80019B9A1C19
:10F3C00003AB19000120FFF76DFD03000593059BBA
:10F3D0000493049B002B05D0084A049BC821180005
:10F3E00007F0C2FE019B1800FFF72EFFC04607B0D2
:10F3F00000BDC0462C2400200F1800005CC3020092
:10F4000000B589B001900A006B4603331A70019B66
:10F410001B881F4A934232D01E4B1B78DBB2002B55
:10F420002DD01A236B4401221A8002AB1022002136
:10F430001800FBF7EDFE019B9A8802AB1A8002AB25
:10F4400001229A7002AB00229A8002AB1A226A440F
:10F450009A6002AB6A460332DA60019B1B8802AAFB
:10F4600011001800FFF72AFD03000793079B002BEC
:10F4700005D0079A084B1900002009F01BFC6B46C9
:10F4800003331A78054B1A70C04609B000BDC04658
:10F49000FFFF0000F1320020A4C30200302400204E
:10F4A00010B582B00190019B1B88103B1A00414BA4
:10F4B0009200D258404B1900002009F0FBFB019B41
:10F4C0009B881A003D4B1900002009F0F3FB019BBB
:10F4D0001B88112B5ED0122B2FD0102B00D066E092
:10F4E000019B1B8B18000CF067FA0022344B0BF0C9
:10F4F0003FFC03000C00180021000AF02BFB030066
:10F500009BB21A002F4B1900002009F0D3FB019B7E
:10F51000DB8B1A0013009B009B185B001A002A4B20
:10F520001900002009F0C6FB019B9B8B1A00274B9A
:10F530001900002009F0BEFB39E0019B1B8918006F
:10F540000CF03AFA00221E4B0BF012FC03000C00E8
:10F55000180021000AF0FEFA03009BB21A00194BB2
:10F560001900002009F0A6FB019BDB891A0013009B
:10F570009B009B185B001A00134B1900002009F038
:10F5800099FB019B9B891A00104B1900002009F080
:10F5900091FB0CE0019B1B7A123B1A000C4B920072
:10F5A000D2580C4B1900002009F084FBC046C0461D
:10F5B00002B010BD38210020ECCA0200FCCA0200D3
:10F5C0000000F43F14CB02002CCB020044CB02001D
:10F5D0007C21002058CB020010B58AB0039026236E
:10F5E0006B44039A92881A8004AA039B043313CBBA
:10F5F00013C2196811609B88938009AB039A128823
:10F600001A8009AB1B88512B04D0522B29D0502BC8
:10F6100018D02FE004AB9B78012B09D104AB9B8859
:10F620001A0004ABDB881549002009F043FB21E0F8
:10F6300004AB9B881A0004ABDB881149002009F059
:10F6400039FB17E0039BDB881A00039B1B8918001A
:10F65000039B12330B4900930300002009F02AFB9F
:10F6600008E0039B9B791A00074B1900002009F062
:10F6700021FBC046C0460AB010BDC04660CB0200A8
:10F6800084CB0200A8CB0200D8CB020000B585B025
:10F690000190019B1B880393039A244B19000020BF
:10F6A00009F008FB039B0F2B07D9039B2F2B04D8D2
:10F6B000019B1800FFF7F4FE35E0039B4F2B07D9A1
:10F6C000039B6F2B04D8019B1800FFF785FF2AE0EE
:10F6D000039B2F2B0FD9039B4F2B0CD8019B1B880F
:10F6E000303B1A00124B9200D258124B19000020E6
:10F6F00009F0E0FA17E0039B002B0ED0039B0F2BC1
:10F700000BD8019B1B885A1E0B4B9200D2580B4BF7
:10F710001900002009F0CEFA05E0039A084B190001
:10F72000002009F0C7FAC04605B000BDE8CB0200D2
:10F7300074210020F8CB02007821002004CC0200C4
:10F7400010CC020084B001900091019B032B16D8CD
:10F75000A023DA05A223DB00D358DB4303930B4B32
:10F76000019A9200D35801229A4013001A00039B79
:10F7700013405A1E9341DAB2009B1A7002E0009BBC
:10F7800000221A700023180004B0704734CC020025
:10F7900000B587B002006B4607331A706B4606331C
:10F7A0000A1C1A7017236B4400221A70002304935A
:10F7B00002E0049B01330493049B032B08D8454BC0
:10F7C000049A9200D2586B4607331B789A42F0D1C4
:10F7D000049B032B6BD86B4606331B78012B04D09C
:10F7E000022B57D0002B37D061E0172169443A48EB
:10F7F000049A13005B009B181B5C0B703649049A3B
:10F8000013005B009B18CB1801331B78002B15D01D
:10F810003248334B1A6813009B009B185B00190099
:10F82000304B1A0008F004FC03000393039B002BE9
:10F8300004D12C4B6A46073212781A702649049A72
:10F8400013005B009B18CB1802331978264A049BDF
:10F85000D3180A1C1A702AE0204B180008F020FC6C
:10F86000214A049BD31819781B48049A13005B00A3
:10F870009B18C31802331B78994217D1172169448A
:10F880001548049A13005B009B18C31802331B78B9
:10F890000B700BE0172169440F48049A13005B00BA
:10F8A0009B18C31801331B780B7000E0C046172368
:10F8B0006B441B78002B0AD00C4B1B68002B06D026
:10F8C0000A4B1B6817226A44127810009847C046FA
:10F8D00007B000BD34CC0200842400209024002016
:10F8E00034240020B0240020B424002080240020F0
:10F8F00000B583B00190019B1B7802211800FFF72F
:10F9000047FFC04603B000BD10B588B002006B468B
:10F9100007331A7000230793002306936B460733BF
:10F920001B78172B00D96CE39A00DB4BD3181B68AC
:10F930009F46A023DA05D94B1B68D943F0235B040B
:10F940001940A123DB00D150A023DB05D44A0021BC
:10F950009950D44B6A46073212781A7052E3A023AA
:10F96000DA05CE4B1B68D943E0235B041940A12381
:10F97000DB00D150A023DB05C94A00219950A02308
:10F98000DB05C94A9B58F02252045A4080239B034E
:10F99000134017D0A023DA05A123DB0080218903BF
:10F9A000D150A023DB05BE4A002199506B46073396
:10F9B0001B78022B02D1E123DB0001E0FA231B01BB
:10F9C000069315E0A023DB05B549802292035A5027
:10F9D000A023DA05A123DB000021D1506B460733B9
:10F9E0001B78022B01D1C82301E0C8235B000693DA
:10F9F000AC4B6A46073212781A70AC4C069B6421F5
:10FA0000180009F0F3FE03001A00A94B1B685343CA
:10FA100000221900200008F00BFB03000793F1E21D
:10FA2000A023DA059D4B1B68D943E0235B041940F2
:10FA3000A123DB00D150A023DB05994A0021995076
:10FA4000A023DB05984A9B58F02252045A40802399
:10FA50009B03134017D0A023DA05A123DB008021EC
:10FA60008903D150A023DB058D4A002199506B46B4
:10FA700007331B78032B02D1C8239B0001E0FA2334
:10FA80001B01069315E0A023DB0585498022920324
:10FA90005A50A023DA05A123DB000021D1506B4688
:10FAA00007331B78032B01D1C82301E0C8235B0077
:10FAB00006937C4B6A46073212781A707B4C069B81
:10FAC0006421180009F092FE03001A00784B1B68AD
:10FAD000534300221900200008F0AAFA03000793FC
:10FAE00090E2A023DA056D4B1B68D943E0235B0449
:10FAF0001940A123DB00D150A023DB05684A002177
:10FB00009950A023DB05684A9B58F02252045A40C2
:10FB100080239B0313400FD0A023DA05A123DB0031
:10FB200080218903D150A023DB055D4A0021995033
:10FB3000FA231B0106930EE0A023DB05584980221F
:10FB400092035A50A023DA05A123DB000021D150F3
:10FB5000C8235B000693534B6A46073212781A702B
:10FB6000524C069B6421180009F040FE03001A0065
:10FB70004F4B1B68534300221900200008F058FA2D
:10FB8000030007933EE2A023DA05444B1B68D943E8
:10FB9000E0235B041940A123DB00D150A023DB0547
:10FBA0003F4A00219950A023DB053F4A9B58F02291
:10FBB00052045A4080239B03134016D0A023DA0539
:10FBC000A123DB0080218903D150A023DB05344A27
:10FBD000002199506B4607331B78052B01D1C823B0
:10FBE00001E0FA231B01069315E0A023DB052C4955
:10FBF000802292035A50A023DA05A123DB000021C2
:10FC0000D1506B4607331B78052B01D1C82301E087
:10FC1000C8235B000693234B6A46073212781A709A
:10FC2000224C069B6421180009F0E0FD03001A0035
:10FC30001F4B1B68534300221900200008F0F8F9FD
:10FC400003000793DEE1A023DA05144B1B68D943B8
:10FC5000E0235B041940A123DB00D150A023DB0586
:10FC60000F4A00219950A023DB050F4A9B58F02230
:10FC700052045A4080239B0313401BD0A023DA0573
:10FC8000A123DB0080218903D150A023DB05044A96
:10FC9000002199501AE0C04664CC02003C240020A8
:10FCA0000C05000031240020040500004024002041
:10FCB00034240020A023DB05D449802292035A502B
:10FCC000A023DA05A123DB000021D150D04B6A46E6
:10FCD000073212781A70CF48CF4B1B6800221900E8
:10FCE00008F0A6F9030007938CE1A023DA05CB4BBB
:10FCF0001B68D943E0235B041940A123DB00D150EA
:10FD0000A023DB05C14A00219950A023DB05BF4990
:10FD1000802292035A50A023DA05A123DB000021A0
:10FD2000D150BB4B6A46073212781A706AE1A023A1
:10FD3000DB05BB4A9B580593A023DA05059BD943F5
:10FD40008023DB031940A123DB00D150A023DB0576
:10FD500005998022D2030A40AC495A50AD48AE4BB7
:10FD60001B680022190008F063F90300079349E1BA
:10FD7000A023DB05AA4A9B580493A023DA05049B21
:10FD8000D9438023DB031940A123DB00D150A023FA
:10FD9000DB0504998022D2030A409C495A509D48B1
:10FDA0009D4B1A6813009B009B180022190008F055
:10FDB0003FF90300079325E1A023DB05984A9B58F0
:10FDC0000393A023DA05039BD9438023DB03194067
:10FDD000A123DB00D150A023DB0503998022D203AD
:10FDE0000A408A495A508B488B4B1B6800221900E5
:10FDF00008F01EF90300079304E1A023DB05884AFD
:10FE00009B580293A023DA05029BD9438023DB038E
:10FE10001940A123DB00D150A023DB0502998022E9
:10FE2000D2030A4079495A507A487B4B1A6813002A
:10FE30009B009B180022190008F0FAF803000793B2
:10FE4000E0E0A023DB057149F02252045A50A023C0
:10FE5000DA05A123DB000021D1506D4B6A46073241
:10FE600012781A70CEE06F4B180008F019F90300F1
:10FE700007936B4607331B781122D31A0693069B10
:10FE8000002B2DD0079B002B2AD1644B802212041B
:10FE90001A60069B012B13D9624C069BC822534360
:10FEA0006421180009F0A2FC03001A005A4B1B68D9
:10FEB000534300221900200008F0BAF8030007930A
:10FEC000A023DA05554B1968F0235B040B404F491A
:10FED0005350A023DA05A123DB000021D15091E08B
:10FEE000A023DA054D4B1968F0235B041940A123C8
:10FEF000DB00D150A023DB05444A00219950474B39
:10FF000000221A607EE0A023DA05A123DB00F021A5
:10FF10004904D150A023DB053C4A002199503C4BB9
:10FF20006A46073212781A706CE0A023DA05A12322
:10FF3000DB00E0214904D150A023DB05334A002136
:10FF40009950A023DB053149802292035A50A02307
:10FF5000DA05A123DB000021D1502D4B6A46073280
:10FF600012781A704EE0A023DA05A123DB00D0211D
:10FF70004904D150A023DB05244A00219950A02335
:10FF8000DB0522498022D2035A50A023DA05A1239F
:10FF9000DB000021D1501E4B6A46073212781A70DE
:10FFA00030E0A023DA05A123DB00C0214904D150B1
:10FFB000A023DB05154A00219950A023DB05134936
:10FFC000C022D2035A50A023DA05A123DB0000216E
:10FFD000D1500F4B6A46073212781A7012E0A023F4
:10FFE000DB050A49F02252045A50A023DA05A12366
:10FFF000DB000021D150064B6A46073212781A7096
:020000022000DC
:1000000000E0C046079B180008B010BD0C050000BA
:100010003124002040240020342400203C240020EF
:10002000040500006024002000B583B00190064B59
:100030001B680122134004D0044B1B781800FFF703
:1000400063FCC04603B000BD3824002031240020EA
:1000500084B00190A023DB050B4A9B580393A02397
:10006000DA05039BD94380231B041940A123DB003D
:10007000D150A023DB050399802212040A400349D2
:100080005A50C04604B07047040500000C0500003B
:1000900000B585B002006B4607331A700023039346
:1000A000084B1B680122134007D06B4607331B78AF
:1000B0001800FFF729FC03000393039B180005B009
:1000C00000BDC0463824002000B587B003900291DF
:1000D000019200230593384B029A1A60374B039A1A
:1000E0001A60374B019A1A60039B0222134031D0E9
:1000F000002304930AE0049B01220121180000F070
:1001000071F803000593049B01330493049B032BB4
:1001100002D8059B002BEED0059B002B08D1029B3B
:100120005A08284B0421180006F084FF03000593A9
:10013000059B002B03D106F0F7FF03000593059BF9
:10014000002B07D1204A214B0021180007F026FF81
:1001500003000593039B0122134012D0A023DA056C
:10016000A123DB00F0214904D150A023DB05184A6C
:1001700000219950A023DA05A323DB00F0214904D4
:10018000D150059B002B07D1124A134B00211800B8
:1001900007F004FF03000593059B002B07D10F4ACE
:1001A0000F4B0121180007F0F9FE03000593059B92
:1001B000180007B000BDC0463424002038240020B9
:1001C0008024002044CC0200F1F8010030CC020071
:1001D0000C0500002900020028CC0200510002009A
:1001E0002CCC020084B00190080011006B46033350
:1001F000021C1A706B4602330A1C1A700023039308
:10020000019B032B42D86B4602331B78012B0DD187
:100210006B4603331B78012B04D1019BDBB20D33FA
:10022000DAB200E000226B4602331A706B460333E9
:100230001B78012B04D0022B0CD0002B16D021E010
:100240001549019A13005B009B186A460232127826
:100250005A541DE01049019A13005B009B18CB18FB
:1002600001336A46023212781A7011E00A49019A83
:1002700013005B009B18CB1802336A4602321278D7
:100280001A7005E007230393C04601E00723039398
:10029000039B180004B070478424002086B00190AE
:1002A000002305932DE0A023DB05194A0599890059
:1002B0008A58C132FF329200D35804930122059B21
:1002C0009A4013001A00019B134001D0032300E061
:1002D00000230393049B0F4A13400493039B1B04C6
:1002E000049A13430493A023DB05094A0599890066
:1002F0008A58C132FF3292000499D150059B0133D4
:100300000593059B032BCED90023180006B0704738
:1003100034CC0200FFFFFCFF00B583B001220021B6
:100320000020FFF75FFF03000193019B002B04D027
:10033000019B072B01D0019B1EE007220221012017
:10034000FFF750FF03000193019B002B04D0019B9A
:10035000072B01D0019B0FE0042202210020FFF7B0
:1003600041FF03000193019B002B04D0019B072B4D
:1003700001D0019B00E00023180003B000BDC0467F
:1003800000B583B0012202210020FFF72BFF0300FC
:100390000193019B002B04D0019B072B01D0019BF3
:1003A0001EE0072202210120FFF71CFF030001933A
:1003B000019B002B04D0019B072B01D0019B0FE078
:1003C0000A2200210020FFF70DFF03000193019B8B
:1003D000002B04D0019B072B01D0019B00E00023E0
:1003E000180003B000BDC04600B585B001900B23D6
:1003F0006B4419000020FFF7A5F903000393039B4A
:10040000002B01D0039B22E00A236B44190001203A
:10041000FFF798F903000393039B002B01D0039B84
:1004200015E00A236B441B78002B03D0019B0222AA
:100430001A700BE00B236B441B78002B03D0019B3D
:100440000B221A7002E0019B00221A700023180090
:1004500005B000BD00B583B00320FFF71FFF030008
:100460000193019B002B04D0019B062B01D0019B23
:1004700000E00023180003B000BDC04600B585B001
:100480000190019B1B88102B02D0112B1AD033E056
:100490001B4B1B68002B0FD1FFF73EFF030003939C
:1004A000039B002B08D0174B1B68002B04D0154B67
:1004B0001B68039A10009847114B1B685A1C104B7D
:1004C0001A6019E00E4B1B685A1E0D4B1A600C4B3C
:1004D0001B68002B0FD1FFF753FF03000393039B0F
:1004E000002B08D0074B1B68002B04D0054B1B6862
:1004F000039A10009847C046C04605B000BDC046EC
:10050000BC240020B824002000B585B001900091E3
:10051000002303930E4B019A1A60009B002B0AD014
:10052000009B1800FFF760FF03000393039B002B61
:1005300001D0039B08E0074B1B68002B03D1FFF79A
:100540001FFF03000393039B180005B000BDC046C6
:10055000B8240020BC24002071DF7047C04618007A
:1005600072DF7047C046180079DF7047C046180038
:100570007DDF7047C046180065DF7047C046180031
:1005800082B0020000916B4606331A806B46063338
:100590001B88DAB2009B1A70009B01336A46063250
:1005A0001288120A92B2D2B21A700223180002B054
:1005B0007047C04686B00390029101921A006B46C4
:1005C00002331A80019B1B8812331A006B460233D8
:1005D0001B889A4201D90C2340E0019B1B881A001A
:1005E000029B9B1811221A70019B1B8801339AB23F
:1005F000019B1A80019B1B881A00029B9B181022EA
:100600001A70019B1B8801339AB2019B1A80172331
:100610006B440F221A701BE0019B1B881A00029B7F
:100620009B1817226A44127852B203998A5C1A7096
:1006300017236B441B785BB2DBB2013BDAB21723A2
:100640006B441A70019B1B8801339AB2019B1A807C
:1006500017236B441B787F2BDED90023180006B0CC
:100660007047C04684B00291019219000F236B4479
:10067000021C1A7003AB0A1C1A80019B1B88DA1C2F
:1006800003AB1B889A4201D90C2350E0019B1B88C5
:100690001A00029B9B1802221A70019B1B880133CF
:1006A0009AB2019B1A80019B1B881A00029B9B181F
:1006B0001C221A70019B1B8801339AB2019B1A807D
:1006C0000F236B441B78022B10D002DC012B05D0CA
:1006D00024E0032B12D0042B18D01FE0019B1B88B1
:1006E0001A00029B9B1800221A7019E0019B1B88BC
:1006F0001A00029B9B1801221A7011E0019B1B88B3
:100700001A00029B9B1802221A7009E0019B1B88A9
:100710001A00029B9B1803221A7001E0072306E0CF
:10072000019B1B8801339AB2019B1A800023180099
:1007300004B0704700B589B0039002916B46063350
:100740001A80029B1B8809331A006B4606331B88EC
:100750009A4201D90C234FE005AB1800FFF7FCFECD
:1007600003000793079B002B01D0079B44E0029BEB
:100770001B881A00039B9B1808221A70029B1B8877
:1007800001339AB2029B1A80029B1B881A00039BBA
:100790009B181B221A70029B1B8801339AB2029B82
:1007A0001A80029B1B881A00039B981805AB013323
:1007B00006221900FCF717F8029B1B8806339AB231
:1007C000029B1A8005AB1B78002B07D1029B1B886C
:1007D0001A00039B9B1800221A7006E0029B1B88DC
:1007E0001A00039B9B1801221A70029B1B8801337D
:1007F0009AB2029B1A800023180009B000BDC046BF
:1008000000B589B00390029101921A006B46023341
:100810001A80039B1B78012B05D1039B5B78002B6F
:1008200001D1072397E0019B1B889A1C6B4602337A
:100830001B889A420FD8039B1B78012B0DD1019B7B
:100840001B881A00039B5B78D3189A1C6B460233F3
:100850001B889A4201D90C237DE0019B1B886A46C4
:1008600002321288D31A9AB207AB023A1A801623C0
:100870006B4407AA12881A80019B1B880233029AD4
:10088000D31816226A4411001800FFF771FE030006
:100890000693069B002B01D0069B5CE0039B1B7814
:1008A000022B0BD116236B441B8807AA12889A428D
:1008B00004D31F236B4409221A701AE01F236B44D0
:1008C00008221A70039B1B78012B0DD1039B5B78C8
:1008D0009BB207AA12889A4206D3039B5B789AB20E
:1008E00016236B441A8004E016236B4407AA12886F
:1008F0001A8016236B441B88FE2B01D90C232AE097
:10090000019B1B881A00029B9B1816226A441288BE
:10091000D2B20132D2B21A70019B1B8801339AB253
:10092000019B1A80019B1B881A00029B9B181F22A7
:100930006A4412781A70019B1B8801339AB2019B9A
:100940001A80019B1A8816236B441B88D3189AB20D
:10095000019B1A800023180009B000BD00B587B0C4
:10096000039002916B4606331A80029B1B881A1D66
:100970006B4606331B889A4201D90C233BE01223B5
:100980006B441800FFF7F0FD03000593059B002B57
:1009900001D0059B2FE0029B1B881A00039B9B182C
:1009A00003221A70029B1B8801339AB2029B1A80A1
:1009B000029B1B881A00039B9B1819221A70029B2A
:1009C0001B8801339AB2029B1A8012236B441A8847
:1009D000029B1B881900039B5B1819001000FFF78E
:1009E000CFFD03001900029B1A888BB2D3189AB26C
:1009F000029B1A800023180007B000BD84B002914A
:100A0000019219000F236B44021C1A7003AB0A1CDD
:100A10001A80019B1B88DA1C03AB1B889A4201D900
:100A20000C2329E0019B1B881A00029B9B180222C1
:100A30001A70019B1B8801339AB2019B1A80019B9B
:100A40001B881A00029B9B1801221A70019B1B88AD
:100A500001339AB2019B1A80019B1B881A00029BEA
:100A60009B180F226A4412781A70019B1B8801336D
:100A70009AB2019B1A800023180004B07047C04648
:100A800084B00291019219000F236B44021C1A706A
:100A900003AB0A1C1A80019B1B88DA1C03AB1B8862
:100AA0009A4201D90C2329E0019B1B881A00029B62
:100AB0009B1802221A70019B1B8801339AB2019B7A
:100AC0001A80019B1B881A00029B9B1811221A7026
