:020000021000EC
:10C000000000012095C60100C9C60100CBC6010091
:10C010000000000000000000000000000000000020
:10C02000000000000000000000000000CDC601007C
:10C030000000000000000000CFC60100D1C60100D2
:10C04000D5C60100D7C60100FD2D0200315A0200FD
:10C05000DDC60100DFC60100C9250200E3C60100FC
:10C06000E5C60100E7C60100E9C60100EBC6010014
:10C07000EDC60100EFC60100F1C60100F3C60100E4
:10C08000F5C601003D6A0200F9C60100FBC60100C9
:10C090007D6A0200FFC601008D7C020003C701001B
:10C0A00005C7010007C7010009C701000BC7010050
:10C0B0000DC701000FC70100D3C60100D3C60100A0
:10C0C00011C7010013C7010015C7010017C7010000
:08C0D00019C701001BC70100A4
:10C0D80080B400AFBFF34F8F0549054BDB6803F40D
:10C0E800E062044B1343CB60BFF34F8FFEE700BF02
:10C0F80000ED00E00400FA0580B400AF034B044AE9
:10C108001A60BD465DF8047B704700BF60200020C0
:10C118000090D00380B500AF00F002F90346002B71
:10C1280006D0784A784B1B6803F460435B0B1360B6
:10C1380000F03CF90346002B05D0744A734BDB68CA
:10C1480023F08073D36000F05BF90346002B0ED018
:10C158004FF080430022C3F80C214FF080430022A7
:10C16800C3F810214FF080430022C3F8382500F0AF
:10C178008DF90346002B02D0654B03221A6000F0AC
:10C18800AFF90346002B76D0624A4FF08053D3F8BC
:10C198000434C2F820355F4A4FF08053D3F808348E
:10C1A800C2F824355B4A4FF08053D3F80C34C2F8F8
:10C1B8002835584A4FF08053D3F81034C2F82C353C
:10C1C800544A4FF08053D3F81434C2F83035514AEA
:10C1D8004FF08053D3F81834C2F834354D4A4FF035
:10C1E8008053D3F81C34C2F840354A4A4FF0805384
:10C1F800D3F82034C2F84435464A4FF08053D3F878
:10C208002434C2F84835434A4FF08053D3F82834D1
:10C21800C2F84C353F4A4FF08053D3F82C34C2F85B
:10C2280050353C4A4FF08053D3F83034C2F8543577
:10C23800384A4FF08053D3F83434C2F86035354A61
:10C248004FF08053D3F83834C2F86435314A4FF090
:10C258008053D3F83C34C2F868352E4A4FF08053E7
:10C26800D3F84034C2F86C352A4A4FF08053D3F8DB
:10C278004434C2F87035284A274BD3F8883043F441
:10C288007003C2F88830BFF34F8FBFF36F8F4FF042
:10C298001023D3F80032002B05DB4FF01023D3F81E
:10C2A8000432002B2BDA1D4B0122C3F8042500BFF2
:10C2B8001A4BD3F80034002BFAD04FF01023152274
:10C2C800C3F8002200BF154BD3F80034002BFAD076
:10C2D8004FF010231522C3F8042200BF0F4BD3F8E8
:10C2E8000034002BFAD00D4B0022C3F8042500BF00
:10C2F8000A4BD3F80034002BFAD0FFF7E9FEFFF71A
:10C30800FBFE80BD3C05004044020010F0ED00E05B
:10C31800A005004000C0004000ED00E000E0014042
:10C3280080B400AF1D4B1B68DBB2062B2FD11C4B12
:10C338001B6803F00F03002B29D11A4B1B6803F06D
:10C34800F003302B07D1184B1B6803F0F003002BC8
:10C3580001D101231CE0134B1B6803F0F003402BB1
:10C3680007D1114B1B6803F0F003002B01D1012307
:10C378000EE00C4B1B6803F0F003502B07D10A4B5F
:10C388001B6803F0F003002B01D1012300E0002318
:10C398001846BD465DF8047B704700BFE00F00F00B
:10C3A800E40F00F0E80F00F0EC0F00F080B400AFED
:10C3B8000F4B1B68DBB2062B13D10E4B1B6803F027
:10C3C8000F03002B0DD10C4B1B6803F0F003302B2F
:10C3D80007D10A4B1B6803F0F003002B01D101239E
:10C3E80000E000231846BD465DF8047B704700BF97
:10C3F800E00F00F0E40F00F0E80F00F0EC0F00F0A1
:10C4080080B400AF1D4B1B68DBB2062B2FD11C4B31
:10C418001B6803F00F03002B29D11A4B1B6803F08C
:10C42800F003302B07D1184B1B6803F0F003002BE7
:10C4380001D101231CE0134B1B6803F0F003402BD0
:10C4480007D1114B1B6803F0F003002B01D1012326
:10C458000EE00C4B1B6803F0F003502B07D10A4B7E
:10C468001B6803F0F003002B01D1012300E0002337
:10C478001846BD465DF8047B704700BFE00F00F02A
:10C48800E40F00F0E80F00F0EC0F00F080B400AF0C
:10C498000F4B1B68DBB2062B13D10E4B1B6803F046
:10C4A8000F03002B0DD10C4B1B6803F0F003302B4E
:10C4B80007D10A4B1B6803F0F003002B01D10123BD
:10C4C80000E000231846BD465DF8047B704700BFB6
:10C4D800E00F00F0E40F00F0E80F00F0EC0F00F0C0
:10C4E80080B400AF0F4B1B68DBB2062B13D10E4B89
:10C4F8001B6803F00F03002B0DD10C4B1B6803F0D6
:10C50800F003502B07D10A4B1B6803F0F003002BF4
:10C5180001D1012300E000231846BD465DF8047BE5
:10C52800704700BFE00F00F0E40F00F0E80F00F0E4
:10C53800EC0F00F0354936480A1A02D00722914319
:10C548008D46344934480A1A06D00722914381F3AC
:10C558000988022282F3148830483149314A00F0B0
:10C5680043F831483149324A00F03EF831483249FF
:10C57800324A00F039F832483249334A00F034F888
:10C5880032483349334A00F02FF833483349344AA4
:10C5980000F02AF833483449344A00F025F8344882
:10C5A8003449002200F02BF833483449002200F0C7
:10C5B80026F833483349091A082903DB00220260A8
:10C5C800043001601F482049884205D002680430C1
:10C5D80003B4904703BCF7E700208646EC460020EA
:10C5E8000021294A9047FEE7884207D0521A05D011
:10C5F800037801300B700131013AF9D17047884254
:10C6080002D002700130FAE77047000000000120F4
:10C6180000F80020000001200000012050AD0200B9
:10C62800E81F0020642000201CC701001CC701006F
:10C63800EC9D020050AD0200E81F0020E81F00201A
:10C64800EC9D0200EC9D0200EC9D0200EC9D0200B6
:10C65800EC9D0200EC9D0200EC9D0200EC9D0200A6
:10C6680050AD0200CCAD0200642000206420002000
:10C678006420002088310020883100208C3100207F
:10C688008C3100208C320020A9D0010008480949CB
:10C6980088438546084880470848016841F4700186
:10C6A8000160BFF34F8FBFF36F8FFFF743BF0000E9
:10C6B80000000120070000001DC1010088ED00E016
:10C6C800FEE7FEE7FEE7FEE7FEE7FEE7FEE7FEE73A
:10C6D800FEE7FEE7FEE7FEE7FEE7FEE7FEE7FEE72A
:10C6E800FEE7FEE7FEE7FEE7FEE7FEE7FEE7FEE71A
:10C6F800FEE7FEE7FEE7FEE7FEE7FEE7FEE7FEE70A
:10C70800FEE7FEE7FEE7FEE7FEE7FEE7FEE7FEE7F9
:04C71800FEE7FEE753
:10C71C0076DF7047184600BF7ADF7047184600BFB7
:10C72C007CDF7047184600BFA9DF7047184600BF72
:10C73C003CDF7047184600BF48DF7047184600BF03
:10C74C0090B589B002AFF860B9607A607B687B61A4
:10C75C0000200C490BF096F87B699A687B691B8862
:10C76C001C467B695B6800930020074923460BF04D
:10C77C0089F8002005490BF085F80C2001F0B6FE75
:10C78C00FEE700BFF09D0200F89D02001C9E020017
:10C79C0080B58AB000AF786007F11403184608F032
:10C7AC005DF878627B6A3B623B6A002B04D0386A86
:10C7BC009821314A09F084FA07F11003184608F061
:10C7CC0071F878627B6AFB61FB69002B04D0F86915
:10C7DC009A21294A09F074FA07F10C03184608F05B
:10C7EC0019F878627B6ABB61BB69002B04D0B8690D
:10C7FC009C21214A09F064FA7A69204B1B689A4201
:10C80C000DD07B69184608F025F902461C4B1A60BE
:10C81C001C481B4901F01AF87B69184A13603A69E5
:10C82C00194B1B689A420DD03B69184608F0ECF97D
:10C83C000246164B1A601348144901F045F83B693F
:10C84C00114A1360FA68124B1B689A420DD0FB68B0
:10C85C00184608F03DF902460E4B1A6009480D497E
:10C86C0001F070F8FB680A4A13600B4B01221A7036
:10C87C002837BD4680BD00BF249E0200A8200020A2
:10C88C00F01F00208C200020AC200020F41F002082
:10C89C00B0200020F81F00208820002080B584B034
:10C8AC0000AF00200521114A00230AF0E7F8F860D8
:10C8BC00FB68BB60BB68002B04D0B868C0210C4A75
:10C8CC0009F0FEF90B4801210B4A0AF053F9786084
:10C8DC007B683B603B68002B04D03868C421044A59
:10C8EC0009F0EEF91037BD4680BD00BFB420002022
:10C8FC00249E0200EC9D02009DC7010080B586B00D
:10C90C0000AF3B78012262F303033B703B780122BA
:10C91C0062F307133B701B480CF030F803469BB2D4
:10C92C003A46104617491A46FFF7FAFE78617B69BA
:10C93C003B613B69002B04D03869D821124A09F0BD
:10C94C00BFF93B1D1846002108220BF0C5FF102330
:10C95C00BB802823FB8000233B814FF4C8737B8171
:10C96C003B1D1846FFF7D8FE78617B69FB60FB68BE
:10C97C00002B04D0F868E621034A09F0A1F9183716
:10C98C00BD4680BD889E0200249E020080B500AF8B
:10C99C00014800F00DFF80BD8C20002080B584B0D4
:10C9AC0000AF78607B681B78002B11D10A4B1B8879
:10C9BC0018463B21FFF7ACFEF860FB68BB60BB6818
:10C9CC00002B05D0B8684FF48271044A09F078F94D
:10C9DC001037BD4680BD00BFE81F0020249E02001A
:10C9EC0080B582B000AF7860786840F20F11034ACE
:10C9FC0009F066F90837BD4680BD00BF249E0200D1
:10CA0C0080B58AB000AF3B1D184600211C220BF0EC
:10CA1C0063FF00237B604FF42033BB604FF4702323
:10CA2C00FB6003233B7400237B8200233B750B4B81
:10CA3C00BB610B4BFB613B1D184603F04DFB786251
:10CA4C007B6A3B623B6A002B05D0386A4FF49371CA
:10CA5C00044A09F035F92837BD4680BDA9C9010043
:10CA6C00EDC90100249E020080B582B000AF0B4BD3
:10CA7C0018464FF4803100220AF0CAF878607B68BF
:10CA8C003B603B68002B05D038684FF49871044A22
:10CA9C0009F016F90837BD4680BD00BF682000209C
:10CAAC00249E020080B584B000AF002001F01EFD72
:10CABC00F860FB68BB60BB68002B05D0B86840F21F
:10CACC003B11114A09F0FCF801F0D2FEF860FB684A
:10CADC007B607B68002B05D0786840F23F110A4AD6
:10CAEC0009F0EEF8FFF724FEF860FB683B603B684A
:10CAFC00002B05D0386840F24311034A09F0E0F8E6
:10CB0C001037BD4680BD00BF249E020080B584B0A6
:10CB1C0000AF0346FB71FB79002B13D0032B00D025
:10CB2C0013E0022001F0E2FCF860FB68BB60BB681C
:10CB3C00002B06D0B86840F25511054A09F0C0F830
:10CB4C0003E002E0FFF7AEFF00BF1037BD4680BD2B
:10CB5C00249E020080B586B000AF7860786801F042
:10CB6C001DF87B681B88112B2DD0522B30D0102B2D
:10CB7C0000D043E0072001F0B9FC78617B693B6190
:10CB8C003B69002B05D038694FF4B7711D4A09F089
:10CB9C0097F87B689A881C4B1A801B4B1B8818468D
:10CBAC00002100220023FFF7BFFD78617B69FB6049
:10CBBC00FB68002B06D0F86840F27111114A09F09D
:10CBCC007FF81BE01AE0104B4FF6FF721A8015E04D
:10CBDC000D4B1B881846002100220023FFF7A4FDF3
:10CBEC0078617B69BB60BB68002B06D0B8684FF4DA
:10CBFC00BD71044A09F064F8FFE700BF1837BD4661
:10CC0C0080BD00BF249E0200E81F002080B582B0CA
:10CC1C0000AF7860786804F0C9FB786803F08EFB8D
:10CC2C00786801F039FE7868FFF794FF786803F0B4
:10CC3C008DF80348796800F093FB0837BD4680BD3A
:10CC4C008C20002080B582B000AF7860786806F048
:10CC5C0091FE786803F016F90837BD4680BD00BF19
:10CC6C0080B590B000AF364A07F118031068186011
:10CC7C0007F1180318463349482200230AF092FFA3
:10CC8C00F863FB6BBB63BB6B002B05D0B86B4FF42D
:10CC9C00D8712D4A09F014F83B1D002001211A46C9
:10CCAC000BF010F878637B6B3B633B6B002B05D070
:10CCBC00386B4FF4DB71244A09F002F8234BFB620A
:10CCCC00F86A0BF047F878637B6BBB62BB6A002B8E
:10CCDC0005D0B86A40F2B9111B4A08F0F1FF3B1DB0
:10CCEC0018460BF061F878637B6B7B627B6A002BD8
:10CCFC0005D0786A40F2BD11134A08F0E1FF1448E0
:10CD0C000AF092FF78637B6B3B623B6A002B05D089
:10CD1C00386A40F2C1110C4A08F0D2FF0D480AF0F3
:10CD2C0099FF78637B6BFB61FB69002B05D0F8697D
:10CD3C0040F2C511044A08F0C3FF4037BD4680BD20
:10CD4C008C9E02007C220020249E0200E81F002002
:10CD5C0019CC010051CC010080B586B000AF034660
:10CD6C00FB71FB79072B1ED00A2B02D0042B03D0AE
:10CD7C002CE0FFF797FE29E0164B1B881846132171
:10CD8C00FFF7C6FC78617B69082B0BD07B693B6194
:10CD9C003B69002B06D038694FF4ED710E4A08F050
:10CDAC008FFF13E012E003F09BF878617B69082B8E
:10CDBC000BD07B69FB60FB68002B06D0F8684FF446
:10CDCC00F171054A08F07CFFFFE700BF1837BD463C
:10CDDC0080BD00BFE81F0020249E020080B586B0F5
:10CDEC0000AFF860B9607A607B687B617B69002B6F
:10CDFC0005D078694FF4FA71034A08F061FF0023FB
:10CE0C0018461837BD4680BD249E020080B58AB0F6
:10CE1C0000AF0346FB71FB793B7506F005FF7862AA
:10CE2C007B6A3B623B6A002B05D0386A40F20E21CC
:10CE3C00284A08F045FF07F11403184604F054F98A
:10CE4C0078627B6AFB61FB69002B05D0F86940F2C4
:10CE5C001121204A08F034FF07F108030533184666
:10CE6C00002105220BF038FD7B7B43F001037B7323
:10CE7C007B7B6FF341037B737B7B6FF382037B7351
:10CE8C007B7B6FF3C3037B737B7B032262F3061301
:10CE9C007B737B7B6FF3C7137B730723BB731023ED
:10CEAC00FB730D4BBB6001233B7307F108030B486D
:10CEBC00194604F0B9F978627B6ABB61BB69002B37
:10CECC0005D0B86940F22121024A08F0F9FE283752
:10CEDC00BD4680BD249E0200E9CD010064200020E7
:10CEEC0080B59CB002AF07F1280318460021382208
:10CEFC000BF0F2FC022387F82830012387F82A3044
:10CF0C00062387F82B3001233B871F4BFB633B1D0C
:10CF1C0000221A60043300221A60043300221A60C3
:10CF2C00043300221A60043300221A6004330022F6
:10CF3C001A60043300221A60043300221A6004338E
:10CF4C0000221A60043301233B744FF496737B6107
:10CF5C000023BB6107F128013A1D0023009308460A
:10CF6C0000210A4B02F03CFC78667B6E3B663B6E04
:10CF7C00002B05D0386E40F23B21054A08F0A0FE8C
:10CF8C006837BD4680BD00BFEC1F002019CB0100E7
:10CF9C00249E020080B586B000AF7860032040F676
:10CFAC00CD41164A01F0BCFA78617B693B613B6963
:10CFBC00002B05D0386940F24A21114A08F080FE56
:10CFCC0007F10B030020194601F0AAFC78617B697C
:10CFDC00FB60FB68002B05D0F86840F24D21084A35
:10CFEC0008F06EFEFB7A022B0CBF01230023DAB291
:10CFFC007B681A701837BD4680BD00BF65CD010037
:10D00C00249E020080B582B000AFFFF795FB7860DC
:10D01C007B683B603B68002B05D038684FF4167179
:10D02C00024A08F04DFE0837BD4680BD249E020022
:10D03C0080B582B000AF78603960786807F0C0FACC
:10D04C000837BD4680BD00BF90B587B000AF0F4B11
:10D05C003C460FCB84E80F003B460D4819460D4A61
:10D06C00002308F0B3F878617B693B613B69002BC6
:10D07C0005D038694FF41D71074A08F021FE0448A9
:10D08C0008F01EF91C37BD4690BD00BF909E0200F3
:10D09C00FC1F00203DD00100249E02002DE9B0436E
:10D0AC0096B004AF00205349534A0AF0EBFBFFF74C
:10D0BC00CBFF524807F068FB78647B6C3B643B6C9D
:10D0CC00002B05D0386C40F287214D4A08F0F8FD52
:10D0DC00012001210122032307F066FB78647B6C9D
:10D0EC00FB63FB6B002B05D0F86B40F28A21444AA2
:10D0FC0008F0E6FD07F0F4FB78647B6CBB63BB6B5C
:10D10C00002B05D0B86B40F28D213D4A08F0D8FDBC
:10D11C00FFF7C4FB07F12F031846FFF73BFFFFF7A0
:10D12C009FFD97F82F301846FFF770FEFFF7E6FBD0
:10D13C00FFF7D6FEFFF72AFCFFF762FCFFF794FC23
:10D14C00032002F07BFC78637B6B3B633B6B002B17
:10D15C0005D0386B40F29E21294A08F0B1FD294BCD
:10D16C001B78DBB2002B42D0274B1B6807EE903AA2
:10D17C00F8EE677A9FED257AC7EE877A17EE900A5C
:10D18C000AF006FF80468946214B1B6807EE903A51
:10D19C00F8EE677A9FED1F7AC7EE877A17EE900A42
:10D1AC000AF0F6FE04460D461B4B1B6807EE903A40
:10D1BC00F8EE677A9FED157AC7EE877A17EE900A2C
:10D1CC000AF0E6FE02460B46391DCDE90045CDE9D5
:10D1DC0002230846114942464B460BF039FB3B1DD6
:10D1EC00002019460AF04EFB064B00221A70FFF77E
:10D1FC0009FFB4E7A09E0200B49E0200FC1F0020B1
:10D20C00249E020088200020F01F00200000C8424D
:10D21C00F41F002000008044F81F0020C09E020074
:10D22C00A0DF7047184600BFA2DF7047184600BF4A
:10D23C00A5DF7047184600BFA6DF7047184600BF31
:10D24C0063DF7047184600BF80B58AB000AF7860C6
:10D25C00396002233B8200237B8207F10E037B6142
:10D26C003B68DA887B681B899A4220D17B681988D5
:10D27C007B681A8907F11003084611461A46FFF716
:10D28C00D7FF78627B6A3B623B6A002B04D0386A1A
:10D29C0027212F4A08F014FDFB89012B03D12D4BBC
:10D2AC0001221A7050E02B4B00221A704CE03B68A4
:10D2BC00DA887B681B8A9A4220D17B6819887B6844
:10D2CC001A8A07F11003084611461A46FFF7B0FFF9
:10D2DC0078627B6AFB61FB69002B04D0F86934210E
:10D2EC001B4A08F0EDFCFB89012B03D11A4B0122E0
:10D2FC001A7029E0184B00221A7025E03B68DA8876
:10D30C007B681B8B9A421FD17B6819887B681A8BB0
:10D31C0007F11003084611461A46FFF789FF786299
:10D32C007B6ABB61BB69002B04D0B8694121084AF8
:10D33C0008F0C6FCFB89012B03D1084B01221A70A3
:10D34C0002E0064B00221A702837BD4680BD00BF94
:10D35C00E89E0200C4220020C6220020C522002024
:10D36C0080B582B000AF786039603B681B88112BA8
:10D37C0009D0502B0CD0102B00D00EE03B689A88B3
:10D38C007B681A8009E07B684FF6FF721A8004E014
:10D39C0078683968FFF758FF00BF0837BD4680BD75
:10D3AC0080B594B000AF78600023FB64012387F84C
:10D3BC0046304EF25E53A7F8443007F12803184666
:10D3CC0000211C220BF088FA97F8283043F0020356
:10D3DC0087F8283007F124031846002103220BF0AC
:10D3EC007BFA97F82430012262F3030387F8243088
:10D3FC0097F82430012262F3071387F8243097F84A
:10D40C002530012262F3030387F8253097F8253085
:10D41C00012262F3071387F8253097F82630012292
:10D42C0062F3420387F8263007F12403FB6397F875
:10D43C00283043F0100387F8283007F120031846F2
:10D44C00002103220BF048FA97F82230012262F3F4
:10D45C00420387F8223097F82030012262F303034D
:10D46C0087F8203097F82030012262F3071387F8F1
:10D47C00203097F821306FF3030387F8213097F8A9
:10D48C0021306FF3071387F8213007F10C0318468E
:10D49C00002114220BF020FA07F14403FB6007F182
:10D4AC0020033B6104233B830423BB820023BB602A
:10D4BC0007F10803FB617B6858887B68143307F11C
:10D4CC00280107F10C02FFF7AFFEF864FB6CBB649C
:10D4DC00BB6C002B04D0B86C8D21044A08F0F0FB17
:10D4EC00002318465037BD4680BD00BFE89E0200A1
:10D4FC0080B594B000AF78600023FB64012387F8FB
:10D50C00463040F2D113A7F8443007F128031846EF
:10D51C0000211C220BF0E0F997F8283043F00203AD
:10D52C0087F8283007F124031846002103220BF05A
:10D53C00D3F997F82430012262F3030387F82430DF
:10D54C0097F82430012262F3071387F8243097F8F8
:10D55C002530012262F3030387F8253097F8253034
:10D56C00012262F3071387F8253097F82630012241
:10D57C0062F3420387F8263007F12403FB6397F824
:10D58C00283043F0100387F8283007F120031846A1
:10D59C00002103220BF0A0F997F82230012262F34C
:10D5AC00420387F8223097F82030012262F30303FC
:10D5BC0087F8203097F82030012262F3071387F8A0
:10D5CC00203097F821306FF3030387F8213097F858
:10D5DC0021306FF3071387F8213007F10C0318463D
:10D5EC00002114220BF078F907F14403FB6007F1DA
:10D5FC0020033B6104233B830423BB820023BB60D9
:10D60C0007F10803FB617B6858887B680C3307F1D2
:10D61C00280107F10C02FFF707FEF864FB6CBB64F2
:10D62C00BB6C002B04D0B86CC121074A08F048FB36
:10D63C007B681B8A002005491A460AF023F900234F
:10D64C0018465037BD4680BDE89E0200549F02002C
:10D65C0080B594B000AF78600023FB64012387F899
:10D66C0046304EF6AE63A7F8443007F1280318464F
:10D67C0000211C220BF030F997F8283043F00203FC
:10D68C0087F8283007F124031846002103220BF0F9
:10D69C0023F997F82430012262F3030387F824302E
:10D6AC0097F82430012262F3071387F8243097F897
:10D6BC002530012262F3030387F8253097F82530D3
:10D6CC00012262F3071387F8253097F826300122E0
:10D6DC0062F3420387F8263007F12403FB6397F8C3
:10D6EC00283043F0100387F8283007F12003184640
:10D6FC00002103220BF0F0F897F82230012262F39C
:10D70C00420387F8223097F82030012262F303039A
:10D71C0087F8203097F82030012262F3071387F83E
:10D72C00203097F821306FF3030387F8213097F8F6
:10D73C0021306FF3071387F8213007F10C031846DB
:10D74C00002114220BF0C8F807F14403FB6007F129
:10D75C0020033B6104233B830423BB820023BB6077
:10D76C0007F10803FB617B6858887B68043307F179
:10D77C00280107F10C02FFF757FDF864FB6CBB6442
:10D78C00BB6C002B04D0B86CF621074A08F098FA51
:10D79C007B681B89002005491A460AF073F80023A0
:10D7AC0018465037BD4680BDE89E02006C9F0200B3
:10D7BC0090B58BB000AF7860224B07F10804186865
:10D7CC0059689A68DB680FC44FF20D033B8307F16D
:10D7DC00080207F11803023310461946FFF730FD13
:10D7EC0078627B6A3B623B6A002B05D0386A4FF447
:10D7FC008571154A08F064FA7B684FF6FF721A803F
:10D80C007B68023307F11802012011461A46FFF714
:10D81C0007FD78627B6AFB61FB69002B05D0F86918
:10D82C004FF48971084A08F04BFA7868FFF710FF3B
:10D83C007868FFF75DFE7868FFF7B2FD2C37BD46C0
:10D84C0090BD00BF849F0200E89E020080B588B0A6
:10D85C0000AF786039607B681B884FF6FF7293428B
:10D86C002AD0174B1B78DBB2002B25D004237B83EB
:10D87C0007F108031846002110220BF02DF87B68E5
:10D88C009B883B810123BB720023BB8107F11A03E8
:10D89C003B613B687B617B681A8807F10803104683
:10D8AC001946FFF7C9FCF861FB69002B04D0002076
:10D8BC000449FA6909F0E6FF2037BD4680BD00BF78
:10D8CC00C4220020949F020080B588B000AF78601D
:10D8DC0039607B681B884FF6FF7293422AD0174B36
:10D8EC001B78DBB2002B25D004237B8307F10803C4
:10D8FC001846002110220AF0EFFF7B689B893B81C0
:10D90C000123BB720023BB8107F11A033B613B6807
:10D91C007B617B681A8807F1080310461946FFF7EC
:10D92C008BFCF861FB69002B04D000200449FA69D8
:10D93C0009F0A8FF2037BD4680BD00BFC6220020DD
:10D94C00AC9F020080B588B000AF786039607B680E
:10D95C001B884FF6FF7293422AD0174B1B78DBB211
:10D96C00002B25D004237B8307F1080318460021E4
:10D97C0010220AF0B1FF7B689B8A3B810123BB72AA
:10D98C000023BB8107F11A033B613B687B617B6819
:10D99C001A8807F1080310461946FFF74DFCF86189
:10D9AC00FB69002B04D000200449FA6909F06AFFD6
:10D9BC002037BD4680BD00BFC5220020C49F020099
:10D9CC0080B582B000AF78607B681B88103B424A00
:10D9DC0052F82330002041491A4609F053FF7B6866
:10D9EC009B8800203E491A4609F04CFF7B681B8837
:10D9FC00112B62D0122B31D0102B00D069E07B6838
:10DA0C001B8B18460AF018FA02460B4610461946AC
:10DA1C004FF00002334B0AF021FC02460B46104635
:10DA2C0019460AF07BFA03469BB200202E491A468F
:10DA3C0009F028FF7B68DB8B1A4613469B001344C6
:10DA4C005B00002029491A4609F01CFF7B689B8B60
:10DA5C00002027491A4609F015FF3AE07B681B891C
:10DA6C0018460AF0E9F902460B46104619464FF0E3
:10DA7C0000021C4B0AF0F2FB02460B4610461946FC
:10DA8C000AF04CFA03469BB2002017491A4609F0DB
:10DA9C00F9FE7B68DB891A4613469B0013445B0036
:10DAAC00002012491A4609F0EDFE7B689B89002084
:10DABC000F491A4609F0E6FE0BE07B681B7A123B15
:10DACC000C4A52F8233000200B491A4609F0DAFEB2
:10DADC0000BF0837BD4680BD042000200CA7020003
:10DAEC001CA702000000F43F34A702004CA7020060
:10DAFC0064A702004820002078A70200B0B58AB0C5
:10DB0C0002AF78607B689B88FB837B6807F1080415
:10DB1C001D1D0FCD0FC42B6823807B681B88BB8316
:10DB2C00BB8B512B04D0522B24D0502B13D029E07B
:10DB3C00BB7A012B07D1BB891A46FB8900201349FC
:10DB4C0009F0A0FE1EE0BB891A46FB890020104993
:10DB5C0009F098FE16E07B68DB881A467B681B8907
:10DB6C001C467B681233009300200A49234609F0B7
:10DB7C0089FE07E07B689B79002007491A4609F06B
:10DB8C0081FE00BF2037BD46B0BD00BF80A702009C
:10DB9C00A4A70200C8A70200F8A7020080B584B0B1
:10DBAC0000AF78607B681B88FB6000202149FA6815
:10DBBC0009F068FEFB680F2B06D9FB682F2B03D8E6
:10DBCC007868FFF7FDFE32E0FB684F2B06D9FB6847
:10DBDC006F2B03D87868FFF791FF28E0FB682F2B99
:10DBEC000ED9FB684F2B0BD87B681B88303B124A35
:10DBFC0052F82330002011491A4609F043FE16E072
:10DC0C00FB68002B0ED0FB680F2B0BD87B681B8896
:10DC1C00013B0B4A52F8233000200A491A4609F0FE
:10DC2C0031FE04E000200849FA6809F02BFE103799
:10DC3C00BD4680BD08A802004020002018A80200A4
:10DC4C004420002024A8020030A8020080B485B033
:10DC5C0000AF786039607B68032B17D84FF0A04376
:10DC6C00D3F81035DB43FB600D4A7B6852F8233048
:10DC7C001A46012393401A46FB681340002B14BF2D
:10DC8C0001230023DAB23B681A7002E03B680022E1
:10DC9C001A70002318461437BD465DF8047B704794
:10DCAC0054A8020080B586B000AF03460A46FB714B
:10DCBC001346BB710023FB7500233B6102E03B69FB
:10DCCC0001333B613B69032B06D83A4A3B6952F856
:10DCDC002320FB799A42F2D13B69032B5BD8BB79A9
:10DCEC00012B04D0022B4ED0002B31D053E0324903
:10DCFC003A6913465B0013440B441B78FB752E49A1
:10DD0C003A6913465B0013440B445B78002B12D02A
:10DD1C002A492B4B1A6813469B0013445B00084698
:10DD2C001946284A08F074FFF860FB68002B02D1F2
:10DD3C00244AFB79137020493A6913465B0013445B
:10DD4C000B449978204A3B6913440A461A7022E026
:10DD5C001A4B184608F094FF1B4A3B691344197878
:10DD6C0015483A6913465B00134403449B78994267
:10DD7C0008D111493A6913465B0013440B449B7854
:10DD8C00FB7508E007E00C493A6913465B00134445
:10DD9C000B445B78FB75FB7D002B08D00B4B1B6891
:10DDAC00002B04D0094B1B68FA7D10469847183796
:10DDBC00BD4680BD54A80200182300202423002057
:10DDCC00C8220020442300204823002014230020D4
:10DDDC0080B582B000AF78607B681B781846022152
:10DDEC00FFF760FF0837BD4680BD00BF80B588B027
:10DDFC0000AF0346FB710023FB610023BB61FB7981
:10DE0C00172B00F22D8301A252F823F079DE0100CA
:10DE1C009DDE01009DDE010045DF0100EDDF01000C
:10DE2C007FE0010025E10100B1E10100EBE101001F
:10DE3C0027E2010069E20100A5E20100E7E201002E
:10DE4C0005E3010005E3010005E3010005E3010022
:10DE5C0005E3010095E30100B3E30100E7E30100F2
:10DE6C001BE401004FE401004FE401004FF0A0421D
:10DE7C00C74B1B68DB4303F4F013C2F808354FF0B3
:10DE8C00A0430022C3F80C25C24AFB791370E8E2C8
:10DE9C004FF0A042BE4B1B68DB4303F4E013C2F807
:10DEAC0008354FF0A0430022C3F80C254FF0A043D7
:10DEBC00D3F8043583F4F01303F40033002B14D09F
:10DECC004FF0A0434FF40032C3F808254FF0A043A5
:10DEDC000022C3F80C25FB79022B02D14FF4E1632D
:10DEEC0001E04FF47A63BB6112E04FF0A0434FF4B2
:10DEFC000032C3F80C254FF0A0430022C3F80825CC
:10DF0C00FB79022B01D1C82301E04FF4C873BB612C
:10DF1C00A04AFB791370A049BB69A04AA2FB03235A
:10DF2C005B099F4A126802FB03F30846194600225C
:10DF3C0008F06EFEF86194E24FF0A042944B1B681F
:10DF4C00DB4303F4E013C2F808354FF0A043002282
:10DF5C00C3F80C254FF0A043D3F8043583F4F01329
:10DF6C0003F40033002B14D04FF0A0434FF40032D5
:10DF7C00C3F808254FF0A0430022C3F80C25FB7909
:10DF8C00032B02D14FF4487301E04FF47A63BB6169
:10DF9C0012E04FF0A0434FF40032C3F80C254FF0C1
:10DFAC00A0430022C3F80825FB79032B01D1C82319
:10DFBC0001E04FF4C873BB61764AFB791370764964
:10DFCC00BB69764AA2FB03235B09754A126802FB04
:10DFDC0003F308461946002208F01AFEF86140E2E5
:10DFEC004FF0A0426A4B1B68DB4303F4E013C2F80A
:10DFFC0008354FF0A0430022C3F80C254FF0A04386
:10E00C00D3F8043583F4F01303F40033002B0ED053
:10E01C004FF0A0434FF40032C3F808254FF0A04353
:10E02C000022C3F80C254FF47A63BB610DE04FF06E
:10E03C00A0434FF40032C3F80C254FF0A04300224C
:10E04C00C3F808254FF4C873BB61524AFB791370AF
:10E05C005149BB69514AA2FB03235B09504A126820
:10E06C0002FB03F308461946002208F0D1FDF861C3
:10E07C00F7E14FF0A042464B1B68DB4303F4E0137F
:10E08C00C2F808354FF0A0430022C3F80C254FF01E
:10E09C00A043D3F8043583F4F01303F40033002BBE
:10E0AC0013D04FF0A0434FF40032C3F808254FF0C3
:10E0BC00A0430022C3F80C25FB79052B01D1C82302
:10E0CC0001E04FF47A63BB6112E04FF0A0434FF4D0
:10E0DC000032C3F80C254FF0A0430022C3F80825EA
:10E0EC00FB79052B01D1C82301E04FF4C873BB6148
:10E0FC00284AFB7913702849BB69284AA2FB0323E1
:10E10C005B09274A126802FB03F3084619460022F2
:10E11C0008F07EFDF861A4E14FF0A0421C4B1B6897
:10E12C00DB4303F4E013C2F808354FF0A0430022A0
:10E13C00C3F80C254FF0A043D3F8043583F4F01347
:10E14C0003F40033002B0BD04FF0A0434FF40032FC
:10E15C00C3F808254FF0A0430022C3F80C250AE0B1
:10E16C004FF0A0434FF40032C3F80C254FF0A043FE
:10E17C000022C3F80825074AFB791370064A084B9E
:10E18C001B6810461946002208F042FDF86168E150
:10E19C00D0220020C7220020D42200201F85EB5162
:10E1AC00C82200204FF0A042B04B1B68DB4303F4A5
:10E1BC00E013C2F808354FF0A0430022C3F80C2539
:10E1CC004FF0A0434FF40032C3F80C254FF0A0439E
:10E1DC000022C3F80825A64AFB79137041E14FF0E1
:10E1EC00A043D3F804357B614FF0A0427B69DB433D
:10E1FC0003F48023C2F808354FF0A0427B6903F486
:10E20C008023C2F80C359B4A9B4B1B681046194661
:10E21C00002208F0FDFCF86123E14FF0A043D3F895
:10E22C0004353B614FF0A0423B69DB4303F4802390
:10E23C00C2F808354FF0A0423B6903F48023C2F8C2
:10E24C000C358C498C4B1A6813469B0013440846BA
:10E25C001946002208F0DCFCF86102E14FF0A04303
:10E26C00D3F80435FB604FF0A042FB68DB4303F4AA
:10E27C008023C2F808354FF0A042FB6803F48023DA
:10E28C00C2F80C357B4A7C4B1B68104619460022A1
:10E29C0008F0BEFCF861E4E04FF0A043D3F804357D
:10E2AC00BB604FF0A042BB68DB4303F48023C2F891
:10E2BC0008354FF0A042BB6803F48023C2F80C353C
:10E2CC006C496D4B1A6813469B001344084619465B
:10E2DC00002208F09DFCF861C3E04FF0A0434FF41E
:10E2EC00F012C3F80C254FF0A0430022C3F8082508
:10E2FC005F4AFB791370B4E0604B184608F0C0FC21
:10E30C00F861FB79C3F11103BB61BB69002B2AD007
:10E31C00FB69002B27D1554B4FF400221A60BB69C7
:10E32C00012B12D95549BB69C82202FB03F3544A8D
:10E33C00A2FB03235B09504A126802FB03F3084655
:10E34C001946002208F064FCF8614FF0A042474BDC
:10E35C001B6803F4F013C2F80C354FF0A0430022F5
:10E36C00C3F808257DE04FF0A042404B1B6803F436
:10E37C00F013C2F808354FF0A0430022C3F80C2567
:10E38C003A4B00221A606CE04FF0A0434FF4F012AD
:10E39C00C3F808254FF0A0430022C3F80C25344ADB
:10E3AC00FB7913705DE04FF0A0434FF4E012C3F81B
:10E3BC0008254FF0A0430022C3F80C254FF0A043D2
:10E3CC004FF40032C3F80C254FF0A0430022C3F8E1
:10E3DC000825274AFB79137043E04FF0A0434FF414
:10E3EC00D012C3F808254FF0A0430022C3F80C2527
:10E3FC004FF0A0434FF48022C3F80C254FF0A043FC
:10E40C000022C3F808251A4AFB79137029E04FF053
:10E41C00A0434FF4C012C3F808254FF0A0430022CC
:10E42C00C3F80C254FF0A0434FF4C022C3F80C25C1
:10E43C004FF0A0430022C3F808250D4AFB79137056
:10E44C000FE04FF0A0434FF4F012C3F80C254FF03F
:10E45C00A0430022C3F80825054AFB79137000E09D
:10E46C0000BFFB6918462037BD4680BDD022002076
:10E47C00C7220020D4220020C8220020F422002031
:10E48C001F85EB5180B582B000AF7860064B1B68DE
:10E49C0003F00103002B04D0044B1B781846FFF744
:10E4AC00A5FC0837BD4680BDCC220020C722002029
:10E4BC0080B485B000AF78604FF0A043D3F804353A
:10E4CC00FB604FF0A042FB68DB4303F40023C2F86F
:10E4DC0008354FF0A042FB6803F40023C2F80C355A
:10E4EC001437BD465DF8047B704700BF80B584B01F
:10E4FC0000AF0346FB710023FB60084B1B6803F065
:10E50C000103002B04D0FB791846FFF76FFCF86071
:10E51C00FB6818461037BD4680BD00BFCC220020DA
:10E52C0080B586B000AFF860B9607A6000237B617B
:10E53C00334ABB681360334AFB681360324A7B680A
:10E54C001360FB6803F00203002B2BD000233B610C
:10E55C0008E038690121012200F066F878613B6916
:10E56C0001333B613B69032B02D87B69002BF0D054
:10E57C007B69002B07D1BB685B08244804211A4631
:10E58C0007F010FB78617B69002B02D107F076FB5A
:10E59C0078617B69002B05D11D4800211D4A08F0CC
:10E5AC00E9FA7861FB6803F00103002B10D04FF0FF
:10E5BC00A0434FF4F012C3F808254FF0A0430022FB
:10E5CC00C3F80C254FF0A0434FF4F012C3F81825F4
:10E5DC007B69002B05D110480021104A08F0CAFABB
:10E5EC0078617B69002B05D10D4801210D4A08F09B
:10E5FC00C1FA78617B6918461837BD4680BD00BFEB
:10E60C00C8220020CC2200201423002064A8020081
:10E61C0050A80200DDDD010048A8020091E40100D1
:10E62C004CA80200BDE4010080B485B000AF786056
:10E63C000B46FB701346BB700023FB607B68032BFF
:10E64C0033D8BB78012B09D1FB78012B04D17B6823
:10E65C00DBB20D33DBB200E00023BB70FB78012B87
:10E66C0004D0022B0BD0002B12D01AE013497A687D
:10E67C0013465B0013440B44BA781A7014E00F492C
:10E68C007A6813465B0013440B44BA785A700BE05B
:10E69C000A497A6813465B0013440B44BA789A70A3
:10E6AC0002E00723FB6000BF01E00723FB60FB686F
:10E6BC0018461437BD465DF8047B704718230020BC
:10E6CC0080B487B000AF786000237B612EE04FF000
:10E6DC00A0421B497B6951F8233003F5E07352F8D3
:10E6EC0023303B617B69012202FA03F31A467B68F3
:10E6FC001340002B01D0032300E00023FB603B6997
:10E70C0023F440333B61FB681B043A6913433B61C0
:10E71C004FF0A0410A4A7B6952F8233003F5E073AD
:10E72C003A6941F823207B6901337B617B69032BB8
:10E73C00CDD9002318461C37BD465DF8047B7047C5
:10E74C0054A8020080B582B000AF00200021012245
:10E75C00FFF76AFF78607B68002B04D07B68072B7F
:10E76C0001D07B681CE0012002210722FFF75CFF2F
:10E77C0078607B68002B04D07B68072B01D07B680A
:10E78C000EE0002002210422FFF74EFF78607B6828
:10E79C00002B04D07B68072B01D07B6800E00023A2
:10E7AC0018460837BD4680BD80B582B000AF00204A
:10E7BC0002210122FFF738FF78607B68002B04D020
:10E7CC007B68072B01D07B681CE00120022107220B
:10E7DC00FFF72AFF78607B68002B04D07B68072B3F
:10E7EC0001D07B680EE0002000210A22FFF71CFFFD
:10E7FC0078607B68002B04D07B68072B01D07B688A
:10E80C0000E0002318460837BD4680BD80B584B0B3
:10E81C0000AF786007F10B0300201946FFF716FADA
:10E82C00F860FB68002B01D0FB681DE007F10A03C0
:10E83C0001201946FFF70AFAF860FB68002B01D09B
:10E84C00FB6811E0BB7A002B03D07B6802221A70A4
:10E85C0009E0FB7A002B03D07B680B221A7002E0D4
:10E86C007B6800221A70002318461037BD4680BD05
:10E87C0080B582B000AF0320FFF722FF78607B6881
:10E88C00002B04D07B68062B01D07B6800E00023B2
:10E89C0018460837BD4680BD80B584B000AF78609F
:10E8AC007B681B88102B02D0112B18D030E01A4B30
:10E8BC001B68002B0DD1FFF745FFF860FB68002BA0
:10E8CC0007D0164B1B68002B03D0144B1B68F86841
:10E8DC009847114B1B6801330F4A136018E00E4B1D
:10E8EC001B68013B0C4A13600B4B1B68002B0ED1B1
:10E8FC00FFF75AFFF860FB68002B08D0074B1B682A
:10E90C00002B04D0054B1B68F8689847FFE700BF45
:10E91C001037BD4680BD00BF502300204C23002083
:10E92C0080B584B000AF786039600023FB600D4A7D
:10E93C007B6813603B68002B08D03868FFF766FFD4
:10E94C00F860FB68002B01D0FB6807E0064B1B68E6
:10E95C00002B02D1FFF728FFF860FB681846103730
:10E96C00BD4680BD4C2300205023002071DF704732
:10E97C00184600BF72DF7047184600BF79DF70473A
:10E98C00184600BF7DDF7047184600BF65DF704733
:10E99C00184600BF80B483B000AF03463960FB80DB
:10E9AC00FB88DAB23B681A703B680133FA88120AAA
:10E9BC0092B2D2B21A70022318460C37BD465DF8DB
:10E9CC00047B704780B487B000AFF860B9607A60A0
:10E9DC007B807B681B8803F112027B889A4201D9E9
:10E9EC000C2336E07B681B881A46BB681344112243
:10E9FC001A707B681B8801339AB27B681A807B681B
:10EA0C001B881A46BB68134410221A707B681B883B
:10EA1C0001339AB27B681A800F23FB7514E07B6874
:10EA2C001B881A46BB68134497F91720F9688A5C4F
:10EA3C001A70FB7DDBB2013BDBB2FB757B681B887C
:10EA4C0001339AB27B681A8097F91730002BE6DAFB
:10EA5C00002318461C37BD465DF8047B704700BF89
:10EA6C0080B485B000AFB9607A601A460346FB7378
:10EA7C001346BB817B681B88DA1CBB899A4201D97F
:10EA8C000C2352E07B681B881A46BB681344022295
:10EA9C001A707B681B8801339AB27B681A807B687A
:10EAAC001B881A46BB6813441C221A707B681B888F
:10EABC0001339AB27B681A80FB7B013B032B2BD86A
:10EACC0001A252F823F000BFE5EA0100F5EA0100CB
:10EADC0005EB010015EB01007B681B881A46BB682F
:10EAEC00134400221A7019E07B681B881A46BB6815
:10EAFC00134401221A7011E07B681B881A46BB680C
:10EB0C00134402221A7009E07B681B881A46BB6802
:10EB1C00134403221A7001E0072306E07B681B886C
:10EB2C0001339AB27B681A80002318461437BD460D
:10EB3C005DF8047B704700BF80B588B000AFF8600B
:10EB4C00B9601346FB80BB681B8803F10902FB8884
:10EB5C009A4201D90C2350E007F114031846FFF731
:10EB6C0005FFF861FB69002B01D0FB6945E0BB6830
:10EB7C001B881A46FB68134408221A70BB681B8852
:10EB8C0001339AB2BB681A80BB681B881A46FB68B3
:10EB9C0013441B221A70BB681B8801339AB2BB68E2
:10EBAC001A80BB681B881A46FB681A4407F11403C9
:10EBBC00013310461946062209F070FEBB681B880B
:10EBCC0006339AB2BB681A803B7D002B07D1BB6819
:10EBDC001B881A46FB68134400221A7006E0BB68B7
:10EBEC001B881A46FB68134401221A70BB681B88E9
:10EBFC0001339AB2BB681A80002318462037BD46F1
:10EC0C0080BD00BF80B588B000AFF860B9607A6095
:10EC1C007B80FB681B78012B05D1FB685B78002B94
:10EC2C0001D1072377E07B681B889A1C7B889A426A
:10EC3C000DD8FB681B78012B0BD17B681B881A46FF
:10EC4C00FB685B7813449A1C7B889A4201D90C238D
:10EC5C0061E07B681B887A88D31A9BB2023BBB832A
:10EC6C00BB8BFB827B681B880233BA681A4407F1A2
:10EC7C00160310461946FFF785FEB861BB69002BD9
:10EC8C0001D0BB6947E0FB681B78022B06D1FB8ADD
:10EC9C00BA8B9A4202D30923FB7712E00823FB7745
:10ECAC00FB681B78012B0AD1FB685B789BB2BA8B93
:10ECBC009A4204D3FB685B789BB2FB8201E0BB8B6E
:10ECCC00FB82FB8AFE2B01D90C2324E07B681B887A
:10ECDC001A46BB681344FA8AD2B20132D2B21A7005
:10ECEC007B681B8801339AB27B681A807B681B880F
:10ECFC001A46BB681344FA7F1A707B681B88013371
:10ED0C009AB27B681A807B681A88FB8A13449AB281
:10ED1C007B681A80002318462037BD4680BD00BF93
:10ED2C0080B586B000AFF860B9601346FB80BB6855
:10ED3C001B881A1DFB889A4201D90C2338E007F175
:10ED4C0012031846FFF71AFE78617B69002B01D07D
:10ED5C007B692DE0BB681B881A46FB6813440322B1
:10ED6C001A70BB681B8801339AB2BB681A80BB68E7
:10ED7C001B881A46FB68134419221A70BB681B883F
:10ED8C0001339AB2BB681A807A8ABB681B88194611
:10ED9C00FB680B4410461946FFF7FCFD0346194669
:10EDAC00BB681A888BB213449AB2BB681A800023D2
:10EDBC0018461837BD4680BD80B485B000AFB96029
:10EDCC007A601A460346FB731346BB817B681B882B
:10EDDC00DA1CBB899A4201D90C2327E07B681B887B
:10EDEC001A46BB68134402221A707B681B880133D5
:10EDFC009AB27B681A807B681B881A46BB681344DE
:10EE0C0001221A707B681B8801339AB27B681A80C6
:10EE1C007B681B881A46BB681344FA7B1A707B68A4
:10EE2C001B8801339AB27B681A800023184614376A
:10EE3C00BD465DF8047B704780B485B000AFB96007
:10EE4C007A601A460346FB731346BB817B681B88AA
:10EE5C00DA1CBB899A4201D90C2327E07B681B88FA
:10EE6C001A46BB68134402221A707B681B88013354
:10EE7C009AB27B681A807B681B881A46BB6813445D
:10EE8C0011221A707B681B8801339AB27B681A8036
:10EE9C007B681B881A46BB681344FA7B1A707B6824
:10EEAC001B8801339AB27B681A80002318461437EA
:10EEBC00BD465DF8047B704780B485B000AFB96087
:10EECC007A601A460346FB731346BB817B681B882A
:10EEDC00DA1CBB899A4201D90C2327E07B681B887A
:10EEEC001A46BB68134402221A707B681B880133D4
:10EEFC009AB27B681A807B681B881A46BB681344DD
:10EF0C000A221A707B681B8801339AB27B681A80BC
:10EF1C007B681B881A46BB681344FA7B1A707B68A3
:10EF2C001B8801339AB27B681A8000231846143769
:10EF3C00BD465DF8047B704780B58AB000AFF860C1
:10EF4C007B600B46FB721346BB72002387F82330A1
:10EF5C003B6B1B883B8400237B626BE0FB685A682D
:10EF6C007B6A9B001A4407F110031068186007F1C4
:10EF7C00100207F11703104619460022FFF706FD91
:10EF8C00F861FB69002B01D0FB6970E0FB7DBA7A5C
:10EF9C009A424CD197F82330002B01D0002300E08B
:10EFAC000223FB763B6B1B881A46FB7D1A44FB7EC7
:10EFBC001A44BB8E9A4201DD0C2358E097F823309B
:10EFCC0083F00103DBB2002B15D03B6B1B880133A4
:10EFDC009AB23B6B1A803B6B1B881A467B681344B6
:10EFEC00FA7A1A703B6B1B8801339AB23B6B1A800E
:10EFFC00012387F823303B6B1B881A467B6813442C
:10F00C0007F1100107F11702084611461A46FFF7DF
:10F01C00BDFCF861FB69002B01D0FB6927E03B6B61
:10F02C001A88FB7D9BB213449AB23B6B1A807B6AA5
:10F03C0001337B62FB681B881A467B6A9A428DDC23
:10F04C0097F82330002B11D03B6B1A883B8CD31ACA
:10F05C009BB2013B3B833B8BFF2B01D90C2306E07E
:10F06C003B8C7A6813443A8BD2B21A700023184640
:10F07C002837BD4680BD00BF80B588B002AFF860B0
:10F08C007B600B46FB721346BB72FA7A3B6A0093A9
:10F09C00BB8C0193F868114602227B68FFF74CFF8A
:10F0AC0078617B69002B01D07B6911E0BA7A3B6AED
:10F0BC000093BB8C0193F868114610227B68FFF714
:10F0CC003BFF78617B69002B01D07B6900E000235A
:10F0DC0018461837BD4680BD80B483B000AF786049
:10F0EC007B681B88052B0AD97B681B88B3F5486F96
:10F0FC0007D97B681B884FF6FF72934201D0072318
:10F10C0025E07B685B88052B0AD97B685B88B3F5A7
:10F11C00486F07D97B685B884FF6FF72934201D02A
:10F12C00072314E07B681B884FF6FF7293420DD0C7
:10F13C007B685B884FF6FF72934207D07B681A8816
:10F14C007B685B889A4201D9072300E000231846AC
:10F15C000C37BD465DF8047B704700BF80B586B0A8
:10F16C0000AFF860B9607A607B807B681B889A1D61
:10F17C007B889A4201D90C234BE0F868FFF7ACFF6F
:10F18C0078617B69002B01D07B6942E07B681B882E
:10F19C001A46BB68134405221A707B681B8801331E
:10F1AC009AB27B681A807B681B881A46BB6813442A
:10F1BC0012221A707B681B8801339AB27B681A8002
:10F1CC00FB681A887B681B881946BB680B44104681
:10F1DC001946FFF7DFFB034619467B681A888BB28A
:10F1EC0013449AB27B681A80FB685A887B681B8828
:10F1FC001946BB680B4410461946FFF7CBFB034678
:10F20C0019467B681A888BB213449AB27B681A80B1
:10F21C00002318461837BD4680BD00BF80B586B0A8
:10F22C0000AFF860B9607A607B80FB689B88023322
:10F23C007B617B681B881A467B6913449A1C7B880C
:10F24C009A4201D90C2356E07B69FE2B01D90C2381
:10F25C0051E07B681B881A46BB6813447A69D2B2AA
:10F26C000132D2B21A707B681B8801339AB27B6868
:10F27C001A807B681B881A46BB681344FF221A70DD
:10F28C007B681B8801339AB27B681A80FB681A88EA
:10F29C007B681B881946BB680B4410461946FFF760
:10F2AC0079FB034619467B681A888BB213449AB2D1
:10F2BC007B681A80FB689B88002B1BD0FB689B68C3
:10F2CC00002B01D1072316E07B681B881A46BB680C
:10F2DC009918FB689A68FB689B88084611461A4681
:10F2EC0009F0DCFA7B681A88FB689B8813449AB295
:10F2FC007B681A80002318461837BD4680BD00BFB6
:10F30C0080B588B000AFF860B9607A607B80FB682C
:10F31C009B6A002B01D107236FE00023FB7765E08C
:10F32C00FB68996AFA7F13465B0013449B000B44FD
:10F33C00BB61BB699B8802337B617B69FE2B01D966
:10F34C000C235AE07B681B881A46BB6813447A6905
:10F35C00D2B20132D2B21A707B681B8801339AB2D6
:10F36C007B681A807B681B881A46BB68134416227C
:10F37C001A707B681B8801339AB27B681A80BB6950
:10F38C001A887B681B881946BB680B4410461946C3
:10F39C00FFF700FB034619467B681A888BB21344AF
:10F3AC009AB27B681A80BB699B88002B1BD0BB6907
:10F3BC009B68002B01D107231FE07B681B881A4632
:10F3CC00BB689918BB699A68BB699B88084611464B
:10F3DC001A4609F063FA7B681A88BB699B88134448
:10F3EC009AB27B681A80FB7F0133FB77FB6893F83A
:10F3FC002C30FA7F9A4293D3002318462037BD460F
:10F40C0080BD00BF80B588B002AFF860B9607A608B
:10F41C0000237B617B681B887B827B6800221A80BF
:10F42C00FB685B6B002B0ED0FB685B6B1A787B8ADE
:10F43C001046B9687A68FFF7FFFC78617B69002B8E
:10F44C0001D07B69F9E0FB681B6B002B0DD0FB68CE
:10F45C001A6B7B8A1046B9687A68FFF7B3FA786141
:10F46C007B69002B01D07B69E7E0FB6893F82E30B9
:10F47C00002B0ED0FB6893F82E207B8A1046B968BF
:10F48C007A68FFF7EDFA78617B69002B01D07B6914
:10F49C00D3E0FB6893F82D30002B0BD07B8AB86837
:10F4AC0079681A46FFF748FB78617B69002B01D01D
:10F4BC007B69C2E0FB689B78002B0BD07B8AB86819
:10F4CC0079681A46FFF72CFC78617B69002B01D018
:10F4DC007B69B2E0FB68DB78002B0FD0FB68DB7834
:10F4EC00DBB25AB27B8A1046B9687A68FFF764FCC3
:10F4FC0078617B69002B01D07B699EE0FB685B68BF
:10F50C00002B0FD0FB685B681B785AB27B8A1046C5
:10F51C00B9687A68FFF7D0FC78617B69002B01D061
:10F52C007B698AE0FB681B89002B12D0FB6803F116
:10F53C0008027B6800937B8A019310460221062205
:10F54C00BB68FFF799FD78617B69002B01D07B6963
:10F55C0073E0FB681B8A002B12D0FB6803F11002CE
:10F56C007B6800937B8A0193104603210722BB68BA
:10F57C00FFF782FD78617B69002B01D07B695CE031
:10F58C00FB681B8B002B12D0FB6803F118027B6805
:10F59C0000937B8A0193104614211522BB68FFF758
:10F5AC006BFD78617B69002B01D07B6945E0FB68C2
:10F5BC001B6A002B0DD0FB681A6A7B8A1046B9684F
:10F5CC007A68FFF7CBFD78617B69002B01D07B69F2
:10F5DC0033E0FB685B6A002B0DD0FB685A6A7B8AB0
:10F5EC001046B9687A68FFF719FE78617B69002BC1
:10F5FC0001D07B6921E0FB6893F82C30002B0BD0F9
:10F60C007B8AF868B9687A68FFF77AFE78617B695B
:10F61C00002B01D07B6910E0FB681B78002B0BD012
:10F62C007B8AF868B9687A68FFF7ECFA78617B69CD
:10F63C00002B01D07B6900E07B6918461837BD466A
:10F64C0080BD00BF80B483B000AF78607B68DB788E
:10F65C0003F00403002B01D1072300E0002318461C
:10F66C000C37BD465DF8047B704700BF80B483B097
:10F67C0000AF78607B68DB78002B01D0072300E0BB
:10F68C00002318460C37BD465DF8047B704700BF5D
:10F69C0080B596B000AF786039601F23A7F84A3068
:10F6AC001F23A7F848307B68002B1BD07868FFF726
:10F6BC00C9FFF864FB6C002B01D0FB6C47E007F131
:10F6CC00280207F14A03786811461A46FFF79AFE9A
:10F6DC00F864FB6C002B01D0FB6C38E007F12803BD
:10F6EC007B6504E000237B650023A7F84A303B6868
:10F6FC00002B1BD03868FFF7B9FFF864FB6C002BAC
:10F70C0001D0FB6C23E007F1080207F148033868CD
:10F71C0011461A46FFF776FEF864FB6C002B01D0FD
:10F72C00FB6C14E007F108033B6504E000233B6528
:10F73C000023A7F84830B7F84A30DAB2B7F84830A7
:10F74C00DBB2786D11463A6DFFF714F90346184693
:10F75C005837BD4680BD00BF73DF7047184600BFE9
:10F76C0074DF7047184600BF80B483B000AF786078
:10F77C007B681B79002B03D17B681B7B002B01D092
:10F78C00012300E0002318460C37BD465DF8047BCE
:10F79C00704700BF80B500AF02480021072209F076
:10F7AC009BF880BD5823002080B485B000AF7860F2
:10F7BC000023FB600AE07A68FB6813441B78002B7B
:10F7CC0001D0012306E0FB680133FB60FB68052BCD
:10F7DC00F1D9002318461437BD465DF8047B7047F9
:10F7EC00B0B588B000AFF860B9607A603B60FB6878
:10F7FC00002B01D10E23D6E07B68002B01D10E2308
:10F80C00D1E06B4B00221A706A4A3B6813606A4A5B
:10F81C003B6B1360694A7B6814461D460FCD0FC4C1
:10F82C000FCD0FC42B682360FFF7B4FF644B654A00
:10F83C001A60634B644A9A6064480021382209F0CC
:10F84C004BF8FB681A78614B1A70FB689A785F4B1F
:10F85C009A70FB68DA785D4BDA70FB685A785B4B10
:10F86C005A705A4BFA681033103292E8030083E84E
:10F87C000300564BFA680833083292E8030083E819
:10F88C000300524BFA681833183292E8030083E8ED
:10F89C000300FB685B6A002B29D04C4B4C4A5A6224
:10F8AC004B4B4C4A9A60494B5B6AFA68526A128815
:10F8BC001A80464B5B6AFA68526A92889A800023D7
:10F8CC00FB610DE0FB685B6A9A68FB69134419786D
:10F8DC00404AFB6913440A461A70FB690133FB6109
:10F8EC003A4B5B6A9B881A46FB699A42EAD8FB68DA
:10F8FC009B6A002B33D0384B384A9A60334B364ACC
:10F90C009A62324B9B6A354A9A60304B9B6AFA6812
:10F91C00926A92889A802D4B9B6AFA68926A128836
:10F92C001A800023BB610DE0FB689B6A9A68BB6977
:10F93C0013441978294ABB6913440A461A70BB69E7
:10F94C000133BB61214B9B6A9B881A46BB699A4267
:10F95C00EAD8FB6893F82C201C4B83F82C20FB680E
:10F96C001B6A002B0ED0194B1D4A1A62174B1B6ACF
:10F97C00FA68126A52885A80144B1B6AFA68126A27
:10F98C0012881A80FB685B68002B06D00F4B154A57
:10F99C005A60FB685B680D4A53600C48B968FFF706
:10F9AC0077FE78617B6918462037BD46B0BD00BF35
:10F9BC00A42300209C230020A0230020A8230020A7
:10F9CC00CC230020DC230020FC230020602300201B
:10F9DC00202400202C2400204C240020582400201B
:10F9EC00782400207C24002080B582B000AF002356
:10F9FC003B603B46184604F095FD78607B68082B0D
:10FA0C0004D07B68002B01D0012313E07B68082B0A
:10FA1C000AD13B46184607F059F903467B607B68D0
:10FA2C00002B01D0002305E03B68002B01D0012303
:10FA3C0000E0002318460837BD4680BD80B58AB06B
:10FA4C0000AF0346FB71A24AFB791370FFF7CCFFA2
:10FA5C000346002B04D09F4B01221A7000236AE14D
:10FA6C00FFF798FE9C4B5B78002B03D0984B1B78D0
:10FA7C00012B0FD0984B9B78002B03D0944B1B7809
:10FA8C00012B07D0944B9B78002B12D0904B1B78FA
:10FA9C00022B0ED1914B1B68002B07D0904B0122EF
:10FAAC001A708E4B1B680820984702E08C4B002282
:10FABC001A70874B1B78012B12D1874B5B7883F024
:10FACC000103DBB2002B08D18648FFF76DFE03461D
:10FADC0083F00103DBB2002B02D07D4B02221A70A3
:10FAEC007B4B1B78022B12D17B4B9B7883F0010351
:10FAFC00DBB2002B08D17B48FFF756FE034683F0A0
:10FB0C000103DBB2002B02D0714B03221A70724B33
:10FB1C001B7B83F00103DBB2002B06D06C4B1B78F4
:10FB2C00032B02D16A4B04221A706B4B1B7E83F0A1
:10FB3C000103DBB2002B09D0654B1B78042B05D1DC
:10FB4C00634B00221A70684B00221A70634B1B68BF
:10FB5C00002B1AD05E4B1B78032B03D05C4B1B780D
:10FB6C00042B12D15C4B1B78002B0ED05F4B1B78F7
:10FB7C0083F00103DBB2002B07D05D4B01221A701E
:10FB8C00564B1B680720984702E0594B00221A700D
:10FB9C0007F10C0318460021182208F09DFE0023E3
:10FBAC003B7300233B6100233B750023BB61484B37
:10FBBC001B78013B032B00F2A38001A252F823F027
:10FBCC00DDFB0100F5FB010015FC010079FC0100D7
:10FBDC00484B3B6101233B730023FB830023BB8316
:10FBEC00414B01221A708CE0424B3B6101233B7369
:10FBFC00394B9B689BB2FB83374B5B689BB2BB83D7
:10FC0C00394B02221A707CE0334B5B699BB2FB834D
:10FC1C00314B1B699BB2BB833748FFF7A5FD0346ED
:10FC2C00002B1FD02C4B1B78002B1BD02F4B1B7881
:10FC3C0083F00103DBB2002B14D002233B752E4B57
:10FC4C00BB612E4B0422DA702C480021FFF720FDFB
:10FC5C0078627B6A002B01D07B6A6CE0224B052218
:10FC6C001A704EE0204B03221A704AE01A4BDB69E3
:10FC7C009BB2BB83184B1B6A9BB2FB831E48FFF7DE
:10FC8C0073FD0346002B1FD0134B1B78002B1BD08E
:10FC9C00164B1B7883F00103DBB2002B14D002232C
:10FCAC003B75154BBB61154B0422DA7013480021D0
:10FCBC00FFF7EEFC78627B6A002B01D07B6A3AE09E
:10FCCC00094B06221A701CE0074B04221A7018E02C
:10FCDC00A423002054230020A82300209C230020D0
:10FCEC001E24002059230020982300201C240020CF
:10FCFC001D24002058230020CC230020602300204A
:10FD0C0000BF0F4B1B78002B0AD007F10C031846D1
:10FD1C00FFF722FD78627B6A002B01D07B6A0AE038
:10FD2C00084B1B68002B05D0064B1B68064A127843
:10FD3C0010469847002318462837BD4680BD00BFA3
:10FD4C00A42300209C2300209823002080B586B09B
:10FD5C0000AF78607B681B88112B0ED01B2B26D034
:10FD6C00102B00D07FE07B689B7D012B04D17B683E
:10FD7C009A883E4B1A8076E075E03D4B00221A7053
:10FD8C007B689A88394B1B889A420FD10120FFF768
:10FD9C0055FE78617B69002B08D0364B1B68002B15
:10FDAC0004D0344B1B68786998475CE05BE07B6857
:10FDBC001B7A002B56D1304B1B78013B032B50D8B0
:10FDCC0001A252F823F000BFE5FD010007FE01007F
:10FDDC0029FE010051FE01000220FFF72FFE3861C1
:10FDEC003B69002B08D0234B1B68002B04D0214B04
:10FDFC001B683869984735E034E00320FFF71EFE96
:10FE0C00F860FB68002B08D01A4B1B68002B04D041
:10FE1C00184B1B68F868984724E023E0174B032223
:10FE2C001A700420FFF70AFEB860BB68002B08D0DC
:10FE3C00104B1B68002B04D00E4B1B68B8689847FE
:10FE4C0010E00FE00D4B00221A700D4B1B68002BBD
:10FE5C0006D00B4B1B68094A12781046984701E0F4
:10FE6C0000E000BF00BF1837BD4680BD5C200020FD
:10FE7C001C240020A0230020A42300209823002071
:10FE8C009C23002080B584B000AF78600023FB6019
:10FE9C007B68023B012B19D80E4B1B78002B14D01E
:10FEAC000C4B00221A700C4B1B781846FFF7C6FD42
:10FEBC00F860FB68002B08D0084B1B68002B04D0A3
:10FECC00064B1B68F868984701E000E000BF10374C
:10FEDC00BD4680BD54230020A4230020A023002075
:10FEEC0080B582B000AF1E4B1B78002B33D01D4B5E
:10FEFC001B7883F00103DBB2002B2CD01A4B1B7840
:10FF0C00002B07D0FFF72CFC78607B68002B01D00E
:10FF1C007B6821E0134B01221A70144B0622DA7015
:10FF2C0012480021FFF7B4FB78607B68002B01D0EE
:10FF3C007B6811E00C4B1B781846FFF77FFD78604F
:10FF4C007B68002B07D00A4B1B68002B03D0084B97
:10FF5C001B6878689847002318460837BD4680BD53
:10FF6C00A82300201C240020A423002060230020B0
:10FF7C00A023002075DF7047184600BF76DF70475E
:10FF8C00184600BF7ADF7047184600BF7BDF70470A
:10FF9C00184600BF80B483B000AF78607B681B78D4
:10FFAC009AB27B6801331B781B029BB213439BB242
:10FFBC009BB218460C37BD465DF8047B704700BFFA
:10FFCC0080B584B000AF78607868FFF7E3FF034634
:10FFDC00FB81FB8903F00103002B14BF01230023D9
:10FFEC00DBB218461037BD4680BD00BF80B483B06D
:04FFFC0000AF78607A
:020000022000DC
:100000007B685A88094B1B889A4207D37B685A88B9
:10001000064B5B889A4201D8012300E00023184672
:100020000C37BD465DF8047B704700BF9C24002060
:1000300080B586B000AF7860264B1B884FF6FF7204
:10004000934244D0244B1B780133DAB2224B1A700E
:10005000224B1A7B204B1B789A4213D31D4B1B88D3
:1000600018461F49FFF78CFF78617B69002B08D089
:100070001A4B9B69002B04D0184B9B6978699847F1
:1000800025E024E0144B00221A70144B1B7C002B3B
:1000900011D0104B1B8818463B21FFF775FF3861C4
:1000A0003B69002B07D00D4B9B69002B03D00B4BFA
:1000B0009B6938699847094B5B69002B07D000237F
:1000C0003B73064B5B6907F10C02104698471837E3
:1000D000BD4680BDA6240020A4240020802400204A
:1000E0009C240020B0B584B000AF78601C4A7B68C7
:1000F00014461D460FCD0FC495E8070084E807009D
:10010000184B00221A707B681B68002B0ED07B688E
:100110001A68154B1068516803C31348FFF738FF7E
:10012000F860FB68002B0AD0FB6815E00E48FFF76B
:1001300033FFF860FB68002B01D0FB680CE00B4B31
:100140004FF6FF721A800A4B00221A7009480021EC
:10015000094A06F015FD034618461037BD46B0BDE6
:1001600080240020D02400209C240020A6240020ED
:10017000A424002084A802003100020080B584B0CD
:1001800000AF2448FFF738FF034683F00103DBB2DA
:10019000002B2ED0204B1B78002B0BD01F4B5B6904
:1001A000002B25D000233B711C4B5B693A1D104688
:1001B000984729E01A4B1B78002B03D1174B5B683B
:1001C000FB6002E0154B9B68FB60164B1846F96814
:1001D000002206F023FDB860BB68002B08D00F4B4F
:1001E0009B69002B04D00D4B9B69B86898470BE0C6
:1001F0000AE00A4B5B69002B06D001233B70074BDA
:100200005B693A4610469847034B00221A70103734
:10021000BD4680BDA8240020D024002080240020DA
:10022000A4240020B024002080B582B000AF786004
:100230007B689A880A4B1A800A4A7B68183393E8CD
:10024000030082E80300084B00221A70074BDB8989
:10025000002B01D1FFF792FF0837BD4680BD00BFDC
:10026000A6240020A8240020A4240020802400200C
:1002700080B584B000AF78600C4B4FF6FF721A80E7
:100280000B4B00221A700B4B184606F0FFFCF8606F
:10029000FB68002B07D0084B9B69002B03D0064B53
:1002A0009B69F86898471037BD4680BDA62400209A
:1002B000A4240020B02400208024002080B584B035
:1002C00000AF78607B680633FB60FB681A88134BCD
:1002D000DB899A421ED1FB685B89022B1AD1FB682D
:1002E0000C331846FFF772FE0346002B02D0FFF7CF
:1002F00045FF0FE00A4B184606F0C8FCB860BB6823
:10030000002B07D0054B9B69002B03D0034B9B6947
:10031000B86898471037BD4680BD00BF80240020D4
:10032000B024002080B582B000AF7860054A7B68B9
:10033000083393E8030082E80300FFF71FFF083744
:10034000BD4680BDA824002080B582B000AF786093
:100350007B681B88112B0DD0112B02DC102B05D0D4
:1003600014E0122B0ED0502B08D00FE07868FFF766
:100370005BFF0BE07868FFF77BFF07E07868FFF72B
:100380009DFF03E07868FFF7CDFF00BF0837BD464B
:1003900080BD00BF7FDF7047184600BF86DF704713
:1003A000184600BFA7DF7047184600BFA9DF704797
:1003B000184600BFAADF7047184600BF80B483B05C
:1003C00000AF78607B68012202FA03F3DA43054B41
:1003D0001B681340034A13600C37BD465DF8047B6D
:1003E000704700BF1426002080B483B000AF78604F
:1003F0007B68012202FA03F31A46074B1B6813407D
:10040000002B14BF01230023DBB218460C37BD4676
:100410005DF8047B704700BF1426002080B483B0D1
:1004200000AF786010497A6813465B0013449B0064
:100430000B4400221A600C497A6813465B0013448F
:100440009B000B44083300225A7007497A68134610
:100450005B0013449B000B44083300229A700C3756
:10046000BD465DF8047B70470026002080B582B051
:1004700000AF786016497A6813465B0013449B000E
:100480000B44083301229A7011497A6813465B00C5
:1004900013449B000B4408334FF6FF721A800C493B
:1004A0007A6813465B0013449B000B440833FF2219
:1004B000DA707A6813465B0013449B00044A1344C5
:1004C00018460021072208F00DFA0837BD4680BD06
:1004D000F425002080B582B000AF78607A681346BA
:1004E000DB009B1A9B0010331E4A1344013318464D
:1004F0000021062208F0F6F97A681346DB009B1A01
:100500009B00184A134418460021102208F0EAF90B
:1005100014497A681346DB009B1A9B000B44103386
:10052000FF221A700F497A681346DB009B1A9B0062
:100530000B441833FF229A700A497A681346DB008D
:100540009B1A9B000B4418334FF6FF721A80786891
:10055000FFF734FF044A7B68002142F82310083774
:10056000BD4680BDF0240020D424002080B485B096
:1005700000AF03463A60FB800B467B710823FB60AB
:100580000023BB6029E01A49BA6813465B00134494
:100590009B000B4408339A787B791340DBB2002B25
:1005A00018D0FB884FF6FF7293420BD01049BA68FF
:1005B00013465B0013449B000B4408331B88FA88E6
:1005C0009A4205D13B68BA681A600023FB6007E0D5
:1005D0000523FB60BB680133BB60BB68002BD2D036
:1005E000FB6818461437BD465DF8047B704700BFB2
:1005F000F425002080B485B000AF7860396048F2FF
:100600004303FB600023BB6054E02F49BA681346E4
:10061000DB009B1A9B000B4418339B78FF2B46D1C1
:100620003B681B78022B25D02749BA681346DB00AC
:100630009B1A9B000B4418339B7823F00203D8B21B
:100640002149BA681346DB009B1A9B000B44183300
:1006500002469A701C49BA681346DB009B1A9B003D
:100660000B4410333A681068186091889279998029
:100670009A7115E01449BA681346DB009B1A9B0077
:100680000B4418339B7823F00103D8B20E49BA68A3
:100690001346DB009B1A9B000B44183302469A70EA
:1006A000BB68DAB27B681A700023FB6005E0BB68A8
:1006B0000133BB60BB68062BA7D9FB68184614370B
:1006C000BD465DF8047B7047F024002080B586B0FD
:1006D00000AF78607B689AB207F10C030D481146B1
:1006E0001A4603F0CFFB78617B69002B0CD107F130
:1006F0000C031846742103F04BFE78617B69002BD4
:1007000002D17868FFF7E6FE7B6918461837BD46C8
:1007100080BD00BF0C26002080B586B000AFF86019
:10072000B9601346FB8005237B6100233B612AE00F
:10073000FB68002B0BD118493A691346DB009B1A62
:100740009B000B4418331B88FA889A4212D0FB682E
:10075000002B15D03A691346DB009B1A9B0010331F
:100760000D4A13441846F968072208F059F8034661
:10077000002B05D1BB683A691A6000237B6105E054
:100780003B6901333B613B69062BD1D97B69184634
:100790001837BD4680BD00BFF024002080B586B06C
:1007A00000AFF860B9607A60054B1B687B617B69BC
:1007B000F868B9687A6898471837BD4680BD00BFA9
:1007C0000026002080B584B000AF78604FF6FF703F
:1007D00001217A68FFF7CAFEF860FB68002B0BD195
:1007E0007B681A68084913465B0013449B000B445E
:1007F000083302229A7001E00423FB60FB6818466C
:100800001037BD4680BD00BFF425002080B582B002
:1008100000AF78607B681A68084913465B00134490
:100820009B000B4408339B78012B04D07B681B682A
:100830001846FFF71BFE0837BD4680BDF425002093
:1008400080B485B000AFF860B96011461A460B4617
:10085000FB801346BB80002318461437BD465DF865
:10086000047B704790B587B000AF78600B46FB7093
:100870007B689B789AB207F10803424811461A46F2
:1008800003F000FB38613B69002B78D17B685B7813
:1008900019463D4A0B465B000B449B00134408334A
:1008A0009B7803F04003002B02D1FB78022B02D18E
:1008B000364B7B6107E0FB78012B02D1344B7B6127
:1008C00001E0344B7B617B689B781A461346DB0062
:1008D0009B1A9B00304A134407F108027C691046BA
:1008E00019461C220023A04738613B69002B2ED1FA
:1008F000FB78022B2BD07B685B7819467B685B7892
:100900001846214A03465B0003449B001344083306
:100910009B7823F04003D8B21B4A0B465B000B4484
:100920009B001344083302469A707B685B781A4632
:100930001346DB009B1A9B00184A134407F1080278
:100940007C69104619461C221C23A0473861FB789D
:10095000022B14D07B681B781946114A0B465B00AA
:100960000B449B00134408339B781A460D4B53F8F5
:10097000223007F1080210467968984738611C3721
:10098000BD4690BD0C260020F4250020C540020085
:10099000713F020041080200F0240020B42500202D
:1009A0000026002088A8020080B483B000AF7860E1
:1009B0003960002318460C37BD465DF8047B70474C
:1009C00090B58DB000AF786039600323BB621A2305
:1009D0007B843B685B7819464C4A0B465B000B44B2
:1009E0009B0013440833198807F1080207F122031A
:1009F000084611461A46BB6AFFF7DCFC78627B6A40
:100A0000002B7ED13B685B781A461346DB0013440B
:100A10009B0008333E4A1A447B8C1C4607F10803AE
:100A200010461946224607F0FBFE0346002B1DD157
:100A30003B685B781946354A0B465B000B449B00CC
:100A4000134408339B7803F00203002B59D13B6811
:100A50005B781A461346DB0013449B002C4A134470
:100A600018460021242207F03DFF4AE03B685B78EE
:100A70001946274A0B46DB000B449B0013445B6876
:100A8000002B02D0234BFB6201E0234BFB623B684F
:100A90005B7819461E4A0B46DB000B449B0013444F
:100AA000BA6A1A603B685B7819467B8C1846184A0C
:100AB0000B46DB000B449B00134458603B685B789B
:100AC0001A461346DB0013449B000833104A1A44AD
:100AD0007B8C1C4607F1080310461946224607F096
:100AE000E3FE3B685B781A461346DB0013449B0029
:100AF000074A1344FC6A7868194624223823A04721
:100B00007862002318463437BD4690BDF425002096
:100B1000D0250020C5400200713F020080B483B0A0
:100B200000AF78603960002318460C37BD465DF889
:100B3000047B704780B584B000AF78603960786816
:100B40003968FFF73DFFF860FB68002B04D1786837
:100B50003968FFF7E3FFF860FB6818461037BD46B9
:100B600080BD00BF80B483B000AF786039600023DF
:100B700018460C37BD465DF8047B704780B584B0DD
:100B800000AF786039603B685B781A461346DB003B
:100B900013449B00144A13441846796824223823CE
:100BA00003F03AFBF860FB68002B17D13B685B78D9
:100BB00019460D4A0B46DB000B449B0013445B684F
:100BC000B3F1FF3F0AD13B685B781946064A0B46F2
:100BD000DB000B449B00134400225A60FB6818465C
:100BE0001037BD4680BD00BFD025002080B483B043
:100BF00000AF78603960002318460C37BD465DF8B9
:100C0000047B704780B584B000AF78603960786845
:100C10003968FFF7B3FFF860FB68002B04D17868F0
:100C20003968FFF7E3FFF860FB6818461037BD46E8
:100C300080BD00BF80B483B000AF78600023184649
:100C40000C37BD465DF8047B704700BF80B586B0A9
:100C500000AF786000233B610023FB810023BB6071
:100C60007B685B781946564A0B46DB000B449B00B9
:100C700013445B68002B3ED07B685B781946514A71
:100C80000B465B000B449B00134408339B78DBB29C
:100C90005BB2002B2FDA7B685B781946494A0B461A
:100CA0005B000B449B00134408339B7803F0400324
:100CB000002B20D17B685B781A461346DB00134477
:100CC0009B0008333E4A13443B617B685B781946BE
:100CD0003B4A0B46DB000B449B0013445B68FB81E3
:100CE0007B685B781946364A0B46DB000B449B0059
:100CF00013441B68BB607B685B781946314A0B461E
:100D00005B000B449B00134408331A88FB89104690
:100D100039691A46BB68FFF749FB78617B690B2B81
:100D200014D10123BB607B685B781946254A0B46CA
:100D30005B000B449B00134408331A88FB89104660
:100D400039691A46BB68FFF731FB78617B69002B74
:100D500002D048F241037B61BB68012B2AD17B683A
:100D60005B781946174A0B465B000B449B00134403
:100D700008331B8818460C214FF6FF72FFF712FB51
:100D800078617B69002B15D07B6943F202029342A4
:100D90000DD07B69082B0AD07B6943F20402934291
:100DA00005D07B69112B02D000237B6102E048F261
:100DB00041037B617B6918461837BD4680BD00BF83
:100DC000D0250020F425002080B483B000AF7860E7
:100DD000002318460C37BD465DF8047B704700BF02
:100DE00080B584B000AF78607868FFF72FFFF860B7
:100DF000FB68002B03D17868FFF7E6FFF860FB681B
:100E000018461037BD4680BD80B59CB000AFF86075
:100E10007A603B600B46FB72AA4B1B68002B00D12B
:100E20004CE1BB6F742B00D948E1012387F86F3088
:100E300007F14803184600F065FA38663B6EFB651B
:100E4000FB6D002B05D0F86D40F2A1519E4A04F0D5
:100E50003DFF002387F84830002387F84C303B687B
:100E60007B64BB6F3B640023BB661EE0BB6E9AB223
:100E700007F13403954811461A4603F003F8386623
:100E80003B6E002B0ED107F13403F8681946082297
:100E900007F0C6FC0346002B04D1BB6EDBB287F81B
:100EA0004A3005E0BB6E0133BB66BB6E062BDDD955
:100EB00097F84A30FF2B00F00181FB7A032B0AD10F
:100EC000BB6F742B03D1202387F84C30C9E040233B
:100ED00087F84C30C5E03B687D4A9B1A9B087D4AE9
:100EE000A2FB0323BB65BB6D062B1DD807F13C039A
:100EF0003B657B68002B0ED197F84A301846FFF708
:100F000073FA034683F00103DBB2002B03D0002306
:100F100087F86F30A5E097F84A301846FFF74EFA89
:100F2000202387F84C309CE03B686B4A9B1A9B0857
:100F3000684AA2FB0323BB65BB6D002B25D107F1DB
:100F40003C033B65202387F84C30BB6DDBB287F850
:100F5000493000237B62614BBB62BA6D1346DB00F4
:100F60009B1A9B005C4A13447B6197F84A301A46EF
:100F70001346DB009B1A9B00554A1344BB6107F1E3
:100F800014037B6420233B646BE03B68544A9B1A48
:100F90001A46544BA3FB0223DB08BB65BB6D002B39
:100FA00025D1302387F84C30BB6DDBB287F8493050
:100FB000012387F84B304C49BA6D13465B0013444C
:100FC0009B000B4408339B7803F00203002B48D1AD
:100FD00097F849301A461346DB0013449B00404AF9
:100FE000134418460021242207F07CFC39E000233A
:100FF00087F86F30402387F84C303B683B4A934278
:1010000005D10323FB72012387F86F3029E097F89D
:101010004A301A46364B53F822203B689A4220D178
:10102000012387F86F3007F13C033B6500237B66A3
:1010300014E097F84A102C487A6E13465B0013446C
:101040009B0003440833DB78994204D17B6EDBB20A
:1010500087F8493005E07B6E01337B667B6E002BA1
:10106000E7D097F86F30002B28D0FB7A032B07D1FD
:1010700097F84C3043F00303DBB287F84C3011E0B3
:10108000FB7A022B07D197F84C3043F00103DBB217
:1010900087F84C3006E097F84C3043F00203DBB29F
:1010A00087F84C3007F13C033B6507F1480207F134
:1010B0004C03104619467A68FFF770FB7037BD463F
:1010C00080BD00BF00260020BCA802000C26002026
:1010D000F024002025499224B42500201826002061
:1010E000D0250020398EE338F4250020B8A802006E
:1010F000D424002080B588B000AF78607B68002BD6
:1011000002D148F20E0385E00023BB6105E0B86917
:10111000FFF784F9BB690133BB61BB69002BF6D0D3
:101120000023BB6105E0B869FFF7A0F9BB69013393
:10113000BB61BB69002BF6D038480021242207F0A0
:10114000D1FB0023BB610AE0B869FFF7C3F9344A59
:10115000BB691344FF221A70BB690133BB61BB69D1
:10116000062BF1D97423BB820723FB822D4B3B61F5
:1011700007F1100318462C4902F0C0FDF861FB6925
:10118000002B46D1294B01221A707B681B7883F013
:101190000103DBB2002B32D00023BB612AE0BB6924
:1011A0009AB207F10803204811461A4602F06AFE77
:1011B000F861FB69002B16D1BA691346DB009B1A54
:1011C0009B001B4A1A4407F10803104619461C22CB
:1011D000002303F021F8F861FB69002B07D0134BC3
:1011E00000221A700AE0114B00221A7006E0BB6957
:1011F0000133BB61BB69062BD1D90AE009E0BA8A89
:10120000FB8A12FB03F39BB20748194603F0C0F8B0
:10121000F861FB6918462037BD4680BDD025002007
:1012200030260020090E02000C2600202F26002068
:10123000F024002080B485B000AF786039602F4B77
:101240001B7883F00103DBB2002B02D048F20803C5
:101250004EE07B68002B02D148F20E0348E03B6869
:10126000002B02D148F20E0342E03B681B68002BC2
:1012700002D148F20E033BE0214B1B68002B33D117
:101280003B681B681E4A13601D4B3A6804330532E5
:101290001068186012791A713B681A79184B9A72A3
:1012A000174A137A6FF300031372154A137A43F047
:1012B00002031372124A137A6FF382031372104AF5
:1012C000D37943F00103D3710D4AD37943F002037C
:1012D000D3710B4AD3796FF38203D3717B680022F9
:1012E0001A700023FB6002E048F20403FB60FB6815
:1012F00018461437BD465DF8047B70472F26002042
:101300000026002080B483B000AF78607B68002B9B
:1013100002D148F20E030CE07B68FF221A707B6852
:10132000FF225A707B68FF229A707B68FF22DA7076
:10133000002318460C37BD465DF8047B704700BF9C
:1013400080B586B000AF78607B689B789AB207F171
:101350000C03154811461A4602F094FD78617B692A
:10136000002B1DD17B685B781A461346DB009B1A65
:101370009B000E4A1A4407F10C03104619461C2222
:101380001C2302F049FF7861094B9B7A1A46094BEE
:1013900053F8223007F10C021046796898477861BB
:1013A0001837BD4680BD00BF0C260020B4250020A4
:1013B0000026002098A8020080B596B000AF7860A3
:1013C000FF23BB63002387F853300023BB64BA4B71
:1013D0001B7883F00103DBB2002B01D000F0BCBC12
:1013E000B64B1B68002B01D100F0B6BC07F13403EB
:1013F0001846FFF787FF78657B6D7B647B6C002B5D
:1014000005D0786C40F6F111AD4A04F05FFC002382
:10141000FB6400237B657B680433FB622C233B86E3
:10142000FF2387F83630002387F834300023FB632E
:101430007B681B88102B1BD07B689A8807F13C03C4
:10144000104602211A46FFF791F878657B6D002B54
:101450000ED1FA6B9B4913465B0013449B000B446F
:101460000833DB7887F83630FB6BDBB287F8353032
:101470007B681B88103B422B00F2578401A252F874
:1014800023F000BF91150200CD1602002B1D0200B3
:1014900043180200751702002B1D02002B1D0200CD
:1014A0002B1D02002B1D0200B9190200D11B0200E6
:1014B0002B1D02002B1D02002B1D02001D1D020012
:1014C0002B1D02002B1D02002B1D02002B1D0200F4
:1014D0002B1D02002B1D02002B1D02002B1D0200E4
:1014E0002B1D02002B1D02002B1D02002B1D0200D4
:1014F0002B1D02002B1D02002B1D02002B1D0200C4
:101500002B1D02002B1D02002B1D02002B1D0200B3
:101510002B1D02002B1D02002B1D02002B1D0200A3
:101520002B1D02002B1D02002B1D02002B1D020093
:101530002B1D02002B1D02002B1D02002B1D020083
:101540002B1D02002B1D02002B1D02002B1D020073
:101550002B1D02002B1D02002B1D02002B1D020063
:101560002B1D02002B1D02002B1D02002B1D020053
:101570002B1D02002B1D02002B1D02002B1D020043
:101580002B1D02002B1D02002B1D0200051D020059
:1015900007F13C031846FFF715F978657B6D002BC2
:1015A00040F08980012387F85330112387F82830D1
:1015B000FB6BDBB287F83530FA6B7B689888414962
:1015C00013465B0013449B000B44083302461A8009
:1015D000FA6B3C4913465B0013449B000B440833F1
:1015E00002229A70FA6B374913465B0013449B0042
:1015F0000B447A68083292E80300186004331980BB
:1016000002330A0C1A707B68DB7D03F00103DBB246
:10161000002B15D07B68DB7DC3F34603DBB21A4693
:10162000294B9B5CFF2B17D07B68DB7DC3F3460304
:10163000DBB21A46244B9B5CBB6300237B650BE04B
:101640007B6803F1080207F13803104619464FF68C
:10165000FF72FFF761F878657B6D002B2BD1FA6B79
:10166000BB6BD8B2174913465B0013449B000B4475
:1016700008330246DA70FA6BF96B12480B465B00CE
:101680000B449B00034408339B7843F00803D8B213
:101690000C4913465B0013449B000B44083302467D
:1016A0009A70BB6BDBB287F8363007F1340318460B
:1016B000FFF746FE3AE339E32F26002000260020FC
:1016C000BCA80200F425002030260020FA6BF96B3C
:1016D000B5480B465B000B449B00034408339B78E2
:1016E00023F00203D8B2B04913465B0013449B00B9
:1016F0000B44083302469A70FA6BAB4913465B0001
:1017000013449B000B4408339B7803F00803002B21
:1017100013D0FA6BA44913465B0013449B000B449F
:1017200008339B78DBB25BB2002B12DA07F134038B
:1017300018460021FFF796F80BE097F83630FF2B9C
:1017400007D097F836301846FEF7C4FEFF2387F817
:101750003630FA6B944913465B0013449B000B44EC
:10176000083310229A70012387F85330122387F828
:101770002830DBE2FA6B8C4913465B0013449B0074
:101780000B440833DB78FF2B37D17B681B8A07F1CA
:101790003802002011461A46FEF7BEFF78657B6DC1
:1017A000002B2AD1FA6BBB6BD8B27F4913465B0082
:1017B00013449B000B4408330246DA70FA6BF96B52
:1017C00079480B465B000B449B00034408339B782D
:1017D00043F00803D8B2744913465B0013449B00DE
:1017E0000B44083302469A70BB6BDBB287F8363085
:1017F00007F134031846FFF7A3FDFA6B6A49134655
:101800005B0013449B000B440833DB78FF2B07D0AD
:10181000FA6B1346DB009B1A9B00644A1344BB64BB
:101820007B689988FA6B1346DB009B1A9B00604A21
:1018300013440846B96C1A460023FEF7AFFD7865DD
:1018400074E2132387F82830FA6BF96B56480B467D
:101850005B000B449B00034408339B7843F0040374
:10186000D8B2514913465B0013449B000B44083324
:1018700002469A70012387F85330FA6B4A4913469F
:101880005B0013449B000B440833DB78FF2B5FD1D4
:10189000FA6B13465B0013449B00434A134407F161
:1018A000380210461946FEF7A5FE78657B6D002BC1
:1018B00010D1BB6BDBB287F83630FA6BBB6BD8B29A
:1018C000394913465B0013449B000B44083302461E
:1018D000DA7004E07B6DFB64012387F8533000234A
:1018E000BB61FA6B304913465B0013449B000B4409
:1018F0000833DB781A461346DB009B1A9B002C4A00
:101900001344FB6100233B6200237B62FA6B1346A6
:10191000DB009B1A9B00254A1344BB600023FB603D
:1019200000233B6100237B617B689A8807F10803F1
:10193000104600211F4AFEF72DFD78657B6D002BB8
:1019400005D07B6DFB64002387F853302BE02AE041
:10195000FA6BF96B14480B465B000B449B00034485
:1019600008339B7843F04003D8B20F4913465B001D
:1019700013449B000B44083302469A70162387F8E1
:1019800028307B689B881846852100220023FEF7BB
:1019900001FD78657B6D002B05D07B6DFB6400231A
:1019A00087F85330C2E1C1E1F4250020B4250020BE
:1019B000F024002004260020B54B5B7A23F00103BD
:1019C000DAB2B34B5A72FA6BF96BB2480B465B0052
:1019D0000B449B00034408339B7823F00403D8B2E4
:1019E000AC4913465B0013449B000B44083302468A
:1019F0009A70142387F82830012387F853307B68C6
:101A00001B7A002B1ED0FA6BA24913465B001344CD
:101A10009B000B4408339B7803F04003002B40F0FD
:101A2000D680FA6B9B4913465B0013449B000B4422
:101A30000833DB781846FEF749FE38647B681B7A6A
:101A4000FB6473E17B685B7A03F00403DBB2002B79
:101A500000F0BD8097F83630FF2B00F0B880FA6BAD
:101A6000F96B8C480B465B000B449B000344083326
:101A70009B7843F00803D8B2864913465B001344B1
:101A80009B000B44083302469A707B685B7B03F033
:101A90000203DBB2002B19D097F83630194697F8BD
:101AA000363018467C4A0346DB001B1A9B00134461
:101AB00018339B7823F00103D8B2774A0B46DB003A
:101AC0005B1A9B001344183302469A70FA6B7149F3
